{
  "contractName": "AuthenticatedProxy",
  "abi": [
    {
      "constant": false,
      "inputs": [
        {
          "name": "id",
          "type": "uint256"
        },
        {
          "name": "dest",
          "type": "address"
        },
        {
          "name": "calldata",
          "type": "bytes"
        },
        {
          "name": "replace",
          "type": "bytes"
        },
        {
          "name": "start",
          "type": "uint256"
        },
        {
          "name": "length",
          "type": "uint256"
        },
        {
          "name": "v",
          "type": "uint8"
        },
        {
          "name": "r",
          "type": "bytes32"
        },
        {
          "name": "s",
          "type": "bytes32"
        }
      ],
      "name": "proxy",
      "outputs": [
        {
          "name": "",
          "type": "bool"
        }
      ],
      "payable": false,
      "stateMutability": "nonpayable",
      "type": "function"
    },
    {
      "constant": false,
      "inputs": [
        {
          "name": "id",
          "type": "uint256"
        },
        {
          "name": "dest",
          "type": "address"
        },
        {
          "name": "calldata",
          "type": "bytes"
        },
        {
          "name": "v",
          "type": "uint8"
        },
        {
          "name": "r",
          "type": "bytes32"
        },
        {
          "name": "s",
          "type": "bytes32"
        }
      ],
      "name": "proxyUnaltered",
      "outputs": [
        {
          "name": "",
          "type": "bool"
        }
      ],
      "payable": false,
      "stateMutability": "nonpayable",
      "type": "function"
    },
    {
      "constant": true,
      "inputs": [],
      "name": "userAddr",
      "outputs": [
        {
          "name": "",
          "type": "address"
        }
      ],
      "payable": false,
      "stateMutability": "view",
      "type": "function"
    },
    {
      "inputs": [
        {
          "name": "addrUser",
          "type": "address"
        }
      ],
      "payable": false,
      "stateMutability": "nonpayable",
      "type": "constructor"
    }
  ],
  "bytecode": "0x6060604052341561000f57600080fd5b6040516020806105c08339810160405280805160008054600160a060020a03909216600160a060020a0319909216919091179055505061056c806100546000396000f3006060604052600436106100565763ffffffff7c010000000000000000000000000000000000000000000000000000000060003504166312711d37811461005b57806346a8ade814610131578063a277051f146101a6575b600080fd5b341561006657600080fd5b61011d600480359060248035600160a060020a0316919060649060443590810190830135806020601f8201819004810201604051908101604052818152929190602084018383808284378201915050505050509190803590602001908201803590602001908080601f016020809104026020016040519081016040528181529291906020840183838082843750949650508435946020810135945060ff6040820135169350606081013592506080013590506101d5565b604051901515815260200160405180910390f35b341561013c57600080fd5b61011d600480359060248035600160a060020a0316919060649060443590810190830135806020601f820181900481020160405190810160405281815292919060208401838380828437509496505060ff85351694602081013594506040013592506102d9915050565b34156101b157600080fd5b6101b961031b565b604051600160a060020a03909116815260200160405180910390f35b60006101df61052e565b6000868951146101ee57600080fd5b6101f98a8a8a61032a565b91508b8b8b8a8a336040518681526c01000000000000000000000000600160a060020a0387160260208201526034810185805190602001908083835b602083106102545780518252601f199092019160209182019101610235565b6001836020036101000a03801982511681845116808217855250505050505090500184815260200183815260200182600160a060020a0316600160a060020a03166c010000000000000000000000000281526014019650505050505050604051809103902090506102c98b83838989896103e3565b9c9b505050505050505050505050565b600061031087878760006040518059106102f05750595b818152601f19601f830116810160200160405290506000808a8a8a6101d5565b979650505050505050565b600054600160a060020a031681565b61033261052e565b60005b83518110156103da5783818151811061034a57fe5b01602001517f010000000000000000000000000000000000000000000000000000000000000090047f01000000000000000000000000000000000000000000000000000000000000000285848301815181106103a257fe5b9060200101907effffffffffffffffffffffffffffffffffffffffffffffffffffffffffffff1916908160001a905350600101610335565b50929392505050565b60008481526001602052604081205460ff16156103ff57600080fd5b600054600160a060020a03166001868686866040516000815260200160405260006040516020015260405193845260ff90921660208085019190915260408085019290925260608401929092526080909201915160208103908084039060008661646e5a03f1151561047057600080fd5b505060206040510351600160a060020a03161461048c57600080fd5b600085815260016020819052604091829020805460ff19169091179055600160a060020a0388169087905180828051906020019080838360005b838110156104de5780820151838201526020016104c6565b50505050905090810190601f16801561050b5780820380516001836020036101000a031916815260200191505b5091505060006040518083038160008661646e5a03f19998505050505050505050565b602060405190810160405260008152905600a165627a7a72305820e43b3e5378d08495f09f90ed046ec027e8a9e7ed820f759d125ed78b82d4bc8b0029",
  "source": "/* \n\n  Proxy contract to hold access to assets on behalf a user (e.g. ERC20 approve).\n\n  Includes replay prevention; each signature can only be used once and is only valid for the particular contract specified.\n\n*/\n\npragma solidity 0.4.18;\n\nimport \"../common/ArrayUtils.sol\";\n\n/**\n * @title AuthenticatedProxy\n * @author Project Wyvern Developers\n */\ncontract AuthenticatedProxy {\n\n    address public userAddr;\n\n    mapping(bytes32 => bool) sent;\n\n    function AuthenticatedProxy(address addrUser) public {\n        userAddr = addrUser;\n    }\n\n    function validateAndSend(address dest, bytes calldata, bytes32 signature, uint8 v, bytes32 r, bytes32 s) internal returns (bool) {\n        require(!sent[signature]);\n        require(ecrecover(signature, v, r, s) == userAddr);\n        sent[signature] = true;\n        return dest.call(calldata);\n    }\n\n    /* User has signed :: Transaction -> Bool.\n       Requesting user wants to replace (bytes replace) */\n    function proxy(uint id, address dest, bytes calldata, bytes replace, uint start, uint length, uint8 v, bytes32 r, bytes32 s) public returns (bool) {\n        require(replace.length == length);\n        bytes memory finalCalldata = ArrayUtils.arrayCopy(calldata, replace, start);\n        bytes32 signature = keccak256(id, dest, calldata, start, length, msg.sender);\n        return validateAndSend(dest, finalCalldata, signature, v, r, s);\n    }\n\n    /* User has signed :: Transaction */\n    function proxyUnaltered(uint id, address dest, bytes calldata, uint8 v, bytes32 r, bytes32 s) public returns (bool) {\n        return proxy(id, dest, calldata, new bytes(0), 0, 0, v, r, s);\n    }\n\n}\n",
  "sourcePath": "/home/cwgoes/working/crypto/wyvern/wyvern-ethereum/contracts/registry/AuthenticatedProxy.sol",
  "compiler": {
    "name": "solc",
    "version": "0.4.18+commit.9cf6e910.Emscripten.clang"
  },
  "schemaVersion": "1.0.1",
  "updatedAt": "2018-01-01T02:53:11.823Z"
}