{
  "contractName": "AuthenticatedProxy",
  "abi": [
    {
      "constant": false,
      "inputs": [
        {
          "name": "dest",
          "type": "address"
        },
        {
          "name": "howToCall",
          "type": "uint8"
        },
        {
          "name": "calldata",
          "type": "bytes"
        }
      ],
      "name": "proxy",
      "outputs": [
        {
          "name": "result",
          "type": "bool"
        }
      ],
      "payable": false,
      "stateMutability": "nonpayable",
      "type": "function"
    },
    {
      "constant": false,
      "inputs": [
        {
          "name": "revoke",
          "type": "bool"
        }
      ],
      "name": "setRevoke",
      "outputs": [],
      "payable": false,
      "stateMutability": "nonpayable",
      "type": "function"
    },
    {
      "constant": true,
      "inputs": [],
      "name": "user",
      "outputs": [
        {
          "name": "",
          "type": "address"
        }
      ],
      "payable": false,
      "stateMutability": "view",
      "type": "function"
    },
    {
      "constant": true,
      "inputs": [],
      "name": "registry",
      "outputs": [
        {
          "name": "",
          "type": "address"
        }
      ],
      "payable": false,
      "stateMutability": "view",
      "type": "function"
    },
    {
      "constant": false,
      "inputs": [
        {
          "name": "from",
          "type": "address"
        },
        {
          "name": "value",
          "type": "uint256"
        },
        {
          "name": "token",
          "type": "address"
        },
        {
          "name": "extraData",
          "type": "bytes"
        }
      ],
      "name": "receiveApproval",
      "outputs": [],
      "payable": false,
      "stateMutability": "nonpayable",
      "type": "function"
    },
    {
      "inputs": [
        {
          "name": "addrUser",
          "type": "address"
        },
        {
          "name": "addrRegistry",
          "type": "address"
        }
      ],
      "payable": false,
      "stateMutability": "nonpayable",
      "type": "constructor"
    },
    {
      "payable": true,
      "stateMutability": "payable",
      "type": "fallback"
    },
    {
      "anonymous": false,
      "inputs": [
        {
          "indexed": true,
          "name": "dest",
          "type": "address"
        },
        {
          "indexed": false,
          "name": "howToCall",
          "type": "uint8"
        },
        {
          "indexed": false,
          "name": "calldata",
          "type": "bytes"
        },
        {
          "indexed": true,
          "name": "created",
          "type": "address"
        },
        {
          "indexed": false,
          "name": "success",
          "type": "bool"
        }
      ],
      "name": "ProxiedCall",
      "type": "event"
    },
    {
      "anonymous": false,
      "inputs": [
        {
          "indexed": true,
          "name": "sender",
          "type": "address"
        },
        {
          "indexed": false,
          "name": "amount",
          "type": "uint256"
        }
      ],
      "name": "ReceivedEther",
      "type": "event"
    },
    {
      "anonymous": false,
      "inputs": [
        {
          "indexed": true,
          "name": "from",
          "type": "address"
        },
        {
          "indexed": false,
          "name": "value",
          "type": "uint256"
        },
        {
          "indexed": true,
          "name": "token",
          "type": "address"
        },
        {
          "indexed": false,
          "name": "extraData",
          "type": "bytes"
        }
      ],
      "name": "ReceivedTokens",
      "type": "event"
    }
  ],
  "bytecode": "0x60606040526001805460a060020a60ff0219169055341561001f57600080fd5b604051604080610763833981016040528080519190602001805160008054600160a060020a03958616600160a060020a031991821617909155600180549590921694169390931790925550506106e98061007a6000396000f3006060604052600436106100535763ffffffff60e060020a6000350416631b0f7ba981146100925780634c93505f1461010e5780634f8632ba146101285780637b103999146101575780638f4ffcb11461016a575b33600160a060020a03167fa419615bc8fda4c87663805ee2a3597a6d71c1d476911d9892f340d965bc7bf13460405190815260200160405180910390a2005b341561009d57600080fd5b6100fa60048035600160a060020a0316906024803560ff16919060649060443590810190830135806020601f820181900481020160405190810160405281815292919060208401838380828437509496506101d695505050505050565b604051901515815260200160405180910390f35b341561011957600080fd5b61012660043515156104f8565b005b341561013357600080fd5b61013b610553565b604051600160a060020a03909116815260200160405180910390f35b341561016257600080fd5b61013b610562565b341561017557600080fd5b61012660048035600160a060020a0390811691602480359260443516919060849060643590810190830135806020601f8201819004810201604051908101604052818152929190602084018383808284375094965061057195505050505050565b600080548190819033600160a060020a039081169116148061028e575060015474010000000000000000000000000000000000000000900460ff1615801561028e5750600154600160a060020a03166369dc9ff33360006040516020015260405160e060020a63ffffffff8416028152600160a060020a039091166004820152602401602060405180830381600087803b151561027257600080fd5b6102c65a03f1151561028357600080fd5b505050604051805190505b151561029957600080fd5b60008560038111156102a757fe5b141561032f5785600160a060020a03168460405180828051906020019080838360005b838110156102e25780820151838201526020016102ca565b50505050905090810190601f16801561030f5780820380516001836020036101000a031916815260200191505b5091505060006040518083038160008661646e5a03f19150509250610420565b600185600381111561033d57fe5b14156103c35785600160a060020a03168460405180828051906020019080838360005b83811015610378578082015183820152602001610360565b50505050905090810190601f1680156103a55780820380516001836020036101000a031916815260200191505b509150506000604051808303818561646e5a03f49150509250610420565b60028560038111156103d157fe5b14156103ea57835190506000848286895afa9250610420565b60038560038111156103f857fe5b141561041b578351602085016000f0600160a060020a0381161593509150610420565b600080fd5b81600160a060020a031686600160a060020a03167fbcec2b82fac852ebad97fbb7cca734b00bb63e535049c3818557773d8a7ec0238787876040518084600381111561046857fe5b60ff1681526020018060200183151515158152602001828103825284818151815260200191508051906020019080838360005b838110156104b357808201518382015260200161049b565b50505050905090810190601f1680156104e05780820380516001836020036101000a031916815260200191505b5094505050505060405180910390a350509392505050565b60005433600160a060020a0390811691161461051357600080fd5b60018054911515740100000000000000000000000000000000000000000274ff000000000000000000000000000000000000000019909216919091179055565b600054600160a060020a031681565b600154600160a060020a031681565b81600160a060020a0381166323b872dd86308760006040516020015260405160e060020a63ffffffff8616028152600160a060020a0393841660048201529190921660248201526044810191909152606401602060405180830381600087803b15156105dc57600080fd5b6102c65a03f115156105ed57600080fd5b50505060405180519050151561060257600080fd5b82600160a060020a031685600160a060020a03167fd65b48fd35864b3528d38e44760be5553248f89bf3ff6b06cca57817cc2650bf868560405182815260406020820181815290820183818151815260200191508051906020019080838360005b8381101561067b578082015183820152602001610663565b50505050905090810190601f1680156106a85780820380516001836020036101000a031916815260200191505b50935050505060405180910390a350505050505600a165627a7a723058208fb7bd5534b88856e645c3eaaf3bfeba90978ced5657a344c4232637c3404c830029",
  "source": "/* \n\n  Proxy contract to hold access to assets on behalf of a user (e.g. ERC20 approve) and execute calls under particular conditions.\n\n*/\n\npragma solidity 0.4.18;\n\nimport \"../common/TokenRecipient.sol\";\nimport \"./ProxyRegistry.sol\";\n\n/**\n * @title AuthenticatedProxy\n * @author Project Wyvern Developers\n */\ncontract AuthenticatedProxy is TokenRecipient {\n\n    address public user;\n\n    ProxyRegistry public registry;\n\n    bool revoked = false;\n\n    enum HowToCall { Call, DelegateCall, StaticCall, Create }\n\n    event ProxiedCall(address indexed dest, HowToCall howToCall, bytes calldata, address indexed created, bool success);\n\n    /**\n     * Create an AuthenticatedProxy\n     *\n     * @param addrUser Address of user on whose behalf this proxy will act\n     * @param addrRegistry Address of ProxyRegistry contract which will manage this proxy\n     */\n    function AuthenticatedProxy(address addrUser, ProxyRegistry addrRegistry) public {\n        user = addrUser;\n        registry = addrRegistry;\n    }\n\n    /**\n     * Set the revoked flag (allows a user to revoke ProxyRegistry access)\n     *\n     * @dev Can be called by the user only\n     * @param revoke Whether or not to revoke access\n     */\n    function setRevoke(bool revoke)\n        public\n    {\n        require(msg.sender == user);\n        revoked = revoke;\n    }\n\n    /**\n     * Execute a message call from the proxy contract\n     *\n     * @dev Can be called by the user, or by a contract authorized by the registry as long as the user has not revoked access\n     * @param dest Address to which the call will be sent\n     * @param howToCall Which kind of call to make\n     * @param calldata Calldata to send\n     */\n    function proxy(address dest, HowToCall howToCall, bytes calldata) public returns (bool result) {\n        require(msg.sender == user || (!revoked && registry.contracts(msg.sender)));\n        address created;\n        if (howToCall == HowToCall.Call) {\n            result = dest.call(calldata);\n        } else if (howToCall == HowToCall.DelegateCall) {\n            result = dest.delegatecall(calldata);\n        } else if (howToCall == HowToCall.StaticCall) {\n            // Check this.\n            uint len = calldata.length;\n            assembly {\n                result := staticcall(gas, dest, calldata, len, calldata, 0)\n            }\n        } else if (howToCall == HowToCall.Create) {\n            assembly {\n                created := create(0, add(calldata, 0x20), mload(calldata))\n            }\n            result = created == address(0);\n        } else {\n            revert();\n        }\n        ProxiedCall(dest, howToCall, calldata, created, result);\n        return result;\n    }\n\n}\n",
  "sourcePath": "/home/cwgoes/working/crypto/wyvern/wyvern-ethereum/contracts/registry/AuthenticatedProxy.sol",
  "compiler": {
    "name": "solc",
    "version": "0.4.18+commit.9cf6e910.Emscripten.clang"
  },
  "schemaVersion": "1.0.1",
  "updatedAt": "2018-01-22T02:41:10.313Z"
}