{
  "contractName": "AuthenticatedProxy",
  "abi": [
    {
      "constant": false,
      "inputs": [
        {
          "name": "dest",
          "type": "address"
        },
        {
          "name": "howToCall",
          "type": "uint8"
        },
        {
          "name": "calldata",
          "type": "bytes"
        }
      ],
      "name": "proxy",
      "outputs": [
        {
          "name": "result",
          "type": "bool"
        }
      ],
      "payable": false,
      "stateMutability": "nonpayable",
      "type": "function"
    },
    {
      "constant": false,
      "inputs": [
        {
          "name": "dest",
          "type": "address"
        },
        {
          "name": "howToCall",
          "type": "uint8"
        },
        {
          "name": "calldata",
          "type": "bytes"
        }
      ],
      "name": "proxyAssert",
      "outputs": [],
      "payable": false,
      "stateMutability": "nonpayable",
      "type": "function"
    },
    {
      "constant": false,
      "inputs": [
        {
          "name": "revoke",
          "type": "bool"
        }
      ],
      "name": "setRevoke",
      "outputs": [],
      "payable": false,
      "stateMutability": "nonpayable",
      "type": "function"
    },
    {
      "constant": true,
      "inputs": [],
      "name": "user",
      "outputs": [
        {
          "name": "",
          "type": "address"
        }
      ],
      "payable": false,
      "stateMutability": "view",
      "type": "function"
    },
    {
      "constant": true,
      "inputs": [],
      "name": "registry",
      "outputs": [
        {
          "name": "",
          "type": "address"
        }
      ],
      "payable": false,
      "stateMutability": "view",
      "type": "function"
    },
    {
      "constant": false,
      "inputs": [
        {
          "name": "from",
          "type": "address"
        },
        {
          "name": "value",
          "type": "uint256"
        },
        {
          "name": "token",
          "type": "address"
        },
        {
          "name": "extraData",
          "type": "bytes"
        }
      ],
      "name": "receiveApproval",
      "outputs": [],
      "payable": false,
      "stateMutability": "nonpayable",
      "type": "function"
    },
    {
      "inputs": [
        {
          "name": "addrUser",
          "type": "address"
        },
        {
          "name": "addrRegistry",
          "type": "address"
        }
      ],
      "payable": false,
      "stateMutability": "nonpayable",
      "type": "constructor"
    },
    {
      "payable": true,
      "stateMutability": "payable",
      "type": "fallback"
    },
    {
      "anonymous": false,
      "inputs": [
        {
          "indexed": true,
          "name": "dest",
          "type": "address"
        },
        {
          "indexed": false,
          "name": "howToCall",
          "type": "uint8"
        },
        {
          "indexed": false,
          "name": "calldata",
          "type": "bytes"
        },
        {
          "indexed": true,
          "name": "created",
          "type": "address"
        },
        {
          "indexed": false,
          "name": "success",
          "type": "bool"
        }
      ],
      "name": "ProxiedCall",
      "type": "event"
    },
    {
      "anonymous": false,
      "inputs": [
        {
          "indexed": true,
          "name": "sender",
          "type": "address"
        },
        {
          "indexed": false,
          "name": "amount",
          "type": "uint256"
        }
      ],
      "name": "ReceivedEther",
      "type": "event"
    },
    {
      "anonymous": false,
      "inputs": [
        {
          "indexed": true,
          "name": "from",
          "type": "address"
        },
        {
          "indexed": false,
          "name": "value",
          "type": "uint256"
        },
        {
          "indexed": true,
          "name": "token",
          "type": "address"
        },
        {
          "indexed": false,
          "name": "extraData",
          "type": "bytes"
        }
      ],
      "name": "ReceivedTokens",
      "type": "event"
    }
  ],
  "bytecode": "0x60606040526001805460a060020a60ff0219169055341561001f57600080fd5b6040516040806107f1833981016040528080519190602001805160008054600160a060020a03958616600160a060020a031991821617909155600180549590921694169390931790925550506107778061007a6000396000f30060606040526004361061005e5763ffffffff60e060020a6000350416631b0f7ba9811461009d5780633f801f91146101195780634c93505f146101835780634f8632ba1461019b5780637b103999146101ca5780638f4ffcb1146101dd575b33600160a060020a03167fa419615bc8fda4c87663805ee2a3597a6d71c1d476911d9892f340d965bc7bf13460405190815260200160405180910390a2005b34156100a857600080fd5b61010560048035600160a060020a0316906024803560ff16919060649060443590810190830135806020601f8201819004810201604051908101604052818152929190602084018383808284375094965061024995505050505050565b604051901515815260200160405180910390f35b341561012457600080fd5b61018160048035600160a060020a0316906024803560ff16919060649060443590810190830135806020601f8201819004810201604051908101604052818152929190602084018383808284375094965061056b95505050505050565b005b341561018e57600080fd5b6101816004351515610586565b34156101a657600080fd5b6101ae6105e1565b604051600160a060020a03909116815260200160405180910390f35b34156101d557600080fd5b6101ae6105f0565b34156101e857600080fd5b61018160048035600160a060020a0390811691602480359260443516919060849060643590810190830135806020601f820181900481020160405190810160405281815292919060208401838380828437509496506105ff95505050505050565b600080548190819033600160a060020a0390811691161480610301575060015474010000000000000000000000000000000000000000900460ff161580156103015750600154600160a060020a03166369dc9ff33360006040516020015260405160e060020a63ffffffff8416028152600160a060020a039091166004820152602401602060405180830381600087803b15156102e557600080fd5b6102c65a03f115156102f657600080fd5b505050604051805190505b151561030c57600080fd5b600085600381111561031a57fe5b14156103a25785600160a060020a03168460405180828051906020019080838360005b8381101561035557808201518382015260200161033d565b50505050905090810190601f1680156103825780820380516001836020036101000a031916815260200191505b5091505060006040518083038160008661646e5a03f19150509250610493565b60018560038111156103b057fe5b14156104365785600160a060020a03168460405180828051906020019080838360005b838110156103eb5780820151838201526020016103d3565b50505050905090810190601f1680156104185780820380516001836020036101000a031916815260200191505b509150506000604051808303818561646e5a03f49150509250610493565b600285600381111561044457fe5b141561045d57835190506000848286895afa9250610493565b600385600381111561046b57fe5b141561048e578351602085016000f0600160a060020a0381161593509150610493565b600080fd5b81600160a060020a031686600160a060020a03167fbcec2b82fac852ebad97fbb7cca734b00bb63e535049c3818557773d8a7ec023878787604051808460038111156104db57fe5b60ff1681526020018060200183151515158152602001828103825284818151815260200191508051906020019080838360005b8381101561052657808201518382015260200161050e565b50505050905090810190601f1680156105535780820380516001836020036101000a031916815260200191505b5094505050505060405180910390a350509392505050565b610576838383610249565b151561058157600080fd5b505050565b60005433600160a060020a039081169116146105a157600080fd5b60018054911515740100000000000000000000000000000000000000000274ff000000000000000000000000000000000000000019909216919091179055565b600054600160a060020a031681565b600154600160a060020a031681565b81600160a060020a0381166323b872dd86308760006040516020015260405160e060020a63ffffffff8616028152600160a060020a0393841660048201529190921660248201526044810191909152606401602060405180830381600087803b151561066a57600080fd5b6102c65a03f1151561067b57600080fd5b50505060405180519050151561069057600080fd5b82600160a060020a031685600160a060020a03167fd65b48fd35864b3528d38e44760be5553248f89bf3ff6b06cca57817cc2650bf868560405182815260406020820181815290820183818151815260200191508051906020019080838360005b838110156107095780820151838201526020016106f1565b50505050905090810190601f1680156107365780820380516001836020036101000a031916815260200191505b50935050505060405180910390a350505050505600a165627a7a723058208d2b69996e7d1f442c6103fe3520244bf1c63fd9dcae83b2f9108fe0bf30654a0029",
  "source": "/* \n\n  Proxy contract to hold access to assets on behalf of a user (e.g. ERC20 approve) and execute calls under particular conditions.\n\n*/\n\npragma solidity 0.4.18;\n\nimport \"../common/TokenRecipient.sol\";\nimport \"./ProxyRegistry.sol\";\n\n/**\n * @title AuthenticatedProxy\n * @author Project Wyvern Developers\n */\ncontract AuthenticatedProxy is TokenRecipient {\n\n    address public user;\n\n    ProxyRegistry public registry;\n\n    bool revoked = false;\n\n    enum HowToCall { Call, DelegateCall, StaticCall, Create }\n\n    event ProxiedCall(address indexed dest, HowToCall howToCall, bytes calldata, address indexed created, bool success);\n\n    /**\n     * Create an AuthenticatedProxy\n     *\n     * @param addrUser Address of user on whose behalf this proxy will act\n     * @param addrRegistry Address of ProxyRegistry contract which will manage this proxy\n     */\n    function AuthenticatedProxy(address addrUser, ProxyRegistry addrRegistry) public {\n        user = addrUser;\n        registry = addrRegistry;\n    }\n\n    /**\n     * Set the revoked flag (allows a user to revoke ProxyRegistry access)\n     *\n     * @dev Can be called by the user only\n     * @param revoke Whether or not to revoke access\n     */\n    function setRevoke(bool revoke)\n        public\n    {\n        require(msg.sender == user);\n        revoked = revoke;\n    }\n\n    /**\n     * Execute a message call from the proxy contract\n     *\n     * @dev Can be called by the user, or by a contract authorized by the registry as long as the user has not revoked access\n     * @param dest Address to which the call will be sent\n     * @param howToCall Which kind of call to make\n     * @param calldata Calldata to send\n     */\n    function proxy(address dest, HowToCall howToCall, bytes calldata)\n        public\n        returns (bool result)\n    {\n        require(msg.sender == user || (!revoked && registry.contracts(msg.sender)));\n        address created;\n        if (howToCall == HowToCall.Call) {\n            result = dest.call(calldata);\n        } else if (howToCall == HowToCall.DelegateCall) {\n            result = dest.delegatecall(calldata);\n        } else if (howToCall == HowToCall.StaticCall) {\n            // Check this.\n            uint len = calldata.length;\n            assembly {\n                result := staticcall(gas, dest, calldata, len, calldata, 0)\n            }\n        } else if (howToCall == HowToCall.Create) {\n            assembly {\n                created := create(0, add(calldata, 0x20), mload(calldata))\n            }\n            result = created == address(0);\n        } else {\n            revert();\n        }\n        ProxiedCall(dest, howToCall, calldata, created, result);\n        return result;\n    }\n\n    /**\n     * Execute a message call and assert success\n     */\n    function proxyAssert(address dest, HowToCall howToCall, bytes calldata)\n        public\n    {\n        require(proxy(dest, howToCall, calldata));\n    }\n\n}\n",
  "sourcePath": "/home/cwgoes/working/crypto/wyvern/wyvern-ethereum/contracts/registry/AuthenticatedProxy.sol",
  "compiler": {
    "name": "solc",
    "version": "0.4.18+commit.9cf6e910.Emscripten.clang"
  },
  "schemaVersion": "1.0.1",
  "updatedAt": "2018-01-23T17:52:06.281Z"
}