{
  "contractName": "AuthenticatedLazyBank",
  "abi": [
    {
      "constant": false,
      "inputs": [
        {
          "name": "user",
          "type": "address"
        },
        {
          "name": "token",
          "type": "address"
        },
        {
          "name": "amount",
          "type": "uint256"
        }
      ],
      "name": "_credit",
      "outputs": [],
      "payable": false,
      "stateMutability": "nonpayable",
      "type": "function"
    },
    {
      "constant": false,
      "inputs": [
        {
          "name": "token",
          "type": "address"
        },
        {
          "name": "amount",
          "type": "uint256"
        }
      ],
      "name": "deposit",
      "outputs": [],
      "payable": false,
      "stateMutability": "nonpayable",
      "type": "function"
    },
    {
      "constant": true,
      "inputs": [
        {
          "name": "user",
          "type": "address"
        },
        {
          "name": "token",
          "type": "address"
        }
      ],
      "name": "lockedFor",
      "outputs": [
        {
          "name": "",
          "type": "uint256"
        }
      ],
      "payable": false,
      "stateMutability": "view",
      "type": "function"
    },
    {
      "constant": false,
      "inputs": [
        {
          "name": "user",
          "type": "address"
        },
        {
          "name": "token",
          "type": "address"
        },
        {
          "name": "amount",
          "type": "uint256"
        }
      ],
      "name": "_lazyLock",
      "outputs": [],
      "payable": false,
      "stateMutability": "nonpayable",
      "type": "function"
    },
    {
      "constant": false,
      "inputs": [
        {
          "name": "token",
          "type": "address"
        },
        {
          "name": "amount",
          "type": "uint256"
        },
        {
          "name": "dest",
          "type": "address"
        }
      ],
      "name": "withdraw",
      "outputs": [],
      "payable": false,
      "stateMutability": "nonpayable",
      "type": "function"
    },
    {
      "constant": true,
      "inputs": [],
      "name": "registry",
      "outputs": [
        {
          "name": "",
          "type": "address"
        }
      ],
      "payable": false,
      "stateMutability": "view",
      "type": "function"
    },
    {
      "constant": false,
      "inputs": [
        {
          "name": "user",
          "type": "address"
        },
        {
          "name": "token",
          "type": "address"
        },
        {
          "name": "amount",
          "type": "uint256"
        }
      ],
      "name": "_unlock",
      "outputs": [],
      "payable": false,
      "stateMutability": "nonpayable",
      "type": "function"
    },
    {
      "constant": true,
      "inputs": [
        {
          "name": "",
          "type": "address"
        },
        {
          "name": "",
          "type": "address"
        }
      ],
      "name": "balances",
      "outputs": [
        {
          "name": "",
          "type": "uint256"
        }
      ],
      "payable": false,
      "stateMutability": "view",
      "type": "function"
    },
    {
      "constant": false,
      "inputs": [
        {
          "name": "user",
          "type": "address"
        },
        {
          "name": "token",
          "type": "address"
        },
        {
          "name": "amount",
          "type": "uint256"
        }
      ],
      "name": "_lazyDebit",
      "outputs": [],
      "payable": false,
      "stateMutability": "nonpayable",
      "type": "function"
    },
    {
      "constant": true,
      "inputs": [
        {
          "name": "",
          "type": "address"
        },
        {
          "name": "",
          "type": "address"
        }
      ],
      "name": "locked",
      "outputs": [
        {
          "name": "",
          "type": "uint256"
        }
      ],
      "payable": false,
      "stateMutability": "view",
      "type": "function"
    },
    {
      "constant": true,
      "inputs": [
        {
          "name": "user",
          "type": "address"
        },
        {
          "name": "token",
          "type": "address"
        }
      ],
      "name": "availableFor",
      "outputs": [
        {
          "name": "",
          "type": "uint256"
        }
      ],
      "payable": false,
      "stateMutability": "view",
      "type": "function"
    },
    {
      "constant": false,
      "inputs": [
        {
          "name": "from",
          "type": "address"
        },
        {
          "name": "to",
          "type": "address"
        },
        {
          "name": "token",
          "type": "address"
        },
        {
          "name": "amount",
          "type": "uint256"
        }
      ],
      "name": "_transferTo",
      "outputs": [],
      "payable": false,
      "stateMutability": "nonpayable",
      "type": "function"
    },
    {
      "constant": true,
      "inputs": [
        {
          "name": "user",
          "type": "address"
        },
        {
          "name": "token",
          "type": "address"
        }
      ],
      "name": "balanceFor",
      "outputs": [
        {
          "name": "",
          "type": "uint256"
        }
      ],
      "payable": false,
      "stateMutability": "view",
      "type": "function"
    },
    {
      "inputs": [
        {
          "name": "addrRegistry",
          "type": "address"
        }
      ],
      "payable": false,
      "stateMutability": "nonpayable",
      "type": "constructor"
    },
    {
      "anonymous": false,
      "inputs": [
        {
          "indexed": true,
          "name": "user",
          "type": "address"
        },
        {
          "indexed": true,
          "name": "token",
          "type": "address"
        },
        {
          "indexed": false,
          "name": "amount",
          "type": "uint256"
        }
      ],
      "name": "Credited",
      "type": "event"
    },
    {
      "anonymous": false,
      "inputs": [
        {
          "indexed": true,
          "name": "user",
          "type": "address"
        },
        {
          "indexed": true,
          "name": "token",
          "type": "address"
        },
        {
          "indexed": false,
          "name": "amount",
          "type": "uint256"
        }
      ],
      "name": "Debited",
      "type": "event"
    },
    {
      "anonymous": false,
      "inputs": [
        {
          "indexed": true,
          "name": "user",
          "type": "address"
        },
        {
          "indexed": true,
          "name": "token",
          "type": "address"
        },
        {
          "indexed": false,
          "name": "amount",
          "type": "uint256"
        }
      ],
      "name": "Locked",
      "type": "event"
    },
    {
      "anonymous": false,
      "inputs": [
        {
          "indexed": true,
          "name": "user",
          "type": "address"
        },
        {
          "indexed": true,
          "name": "token",
          "type": "address"
        },
        {
          "indexed": false,
          "name": "amount",
          "type": "uint256"
        }
      ],
      "name": "Unlocked",
      "type": "event"
    }
  ],
  "bytecode": "0x6060604052341561000f57600080fd5b604051602080610d878339810160405280805160028054600160a060020a03909216600160a060020a03199092169190911790555050610d33806100546000396000f3006060604052600436106100ab5763ffffffff60e060020a600035041663034422ef81146100b057806347e7ef24146100da5780634e10c95d146100fc5780635a8158e21461013357806369328dec1461015b5780637b103999146101845780639577bffa146101b3578063c23f001f146101db578063cb5f264314610200578063db20266f14610228578063db2ec6bd1461024d578063f49ec96114610272578063f771e78b146102a0575b600080fd5b34156100bb57600080fd5b6100d8600160a060020a03600435811690602435166044356102c5565b005b34156100e557600080fd5b6100d8600160a060020a0360043516602435610354565b341561010757600080fd5b610121600160a060020a03600435811690602435166103f3565b60405190815260200160405180910390f35b341561013e57600080fd5b6100d8600160a060020a036004358116906024351660443561041e565b341561016657600080fd5b6100d8600160a060020a0360043581169060243590604435166104a8565b341561018f57600080fd5b610197610585565b604051600160a060020a03909116815260200160405180910390f35b34156101be57600080fd5b6100d8600160a060020a0360043581169060243516604435610594565b34156101e657600080fd5b610121600160a060020a036004358116906024351661061e565b341561020b57600080fd5b6100d8600160a060020a0360043581169060243516604435610638565b341561023357600080fd5b610121600160a060020a03600435811690602435166106c2565b341561025857600080fd5b610121600160a060020a03600435811690602435166106df565b341561027d57600080fd5b6100d8600160a060020a036004358116906024358116906044351660643561072b565b34156102ab57600080fd5b610121600160a060020a03600435811690602435166107bc565b600254600160a060020a03166369dc9ff33360006040516020015260405160e060020a63ffffffff8416028152600160a060020a039091166004820152602401602060405180830381600087803b151561031e57600080fd5b6102c65a03f1151561032f57600080fd5b50505060405180519050151561034457600080fd5b61034f8383836107e5565b505050565b61035f3383836107e5565b81600160a060020a03166323b872dd33308460006040516020015260405160e060020a63ffffffff8616028152600160a060020a0393841660048201529190921660248201526044810191909152606401602060405180830381600087803b15156103c957600080fd5b6102c65a03f115156103da57600080fd5b5050506040518051905015156103ef57600080fd5b5050565b600160a060020a03918216600090815260016020908152604080832093909416825291909152205490565b600254600160a060020a03166369dc9ff33360006040516020015260405160e060020a63ffffffff8416028152600160a060020a039091166004820152602401602060405180830381600087803b151561047757600080fd5b6102c65a03f1151561048857600080fd5b50505060405180519050151561049d57600080fd5b61034f838383610879565b600160a060020a033381166000818152602081815260408083209488168084529482528083205493835260018252808320948352939052918220546104ed9190610a6b565b9050808311156104fc57600080fd5b610507338585610a7d565b83600160a060020a031663a9059cbb838560006040516020015260405160e060020a63ffffffff8516028152600160a060020a0390921660048301526024820152604401602060405180830381600087803b151561056457600080fd5b6102c65a03f1151561057557600080fd5b5050506040518051505050505050565b600254600160a060020a031681565b600254600160a060020a03166369dc9ff33360006040516020015260405160e060020a63ffffffff8416028152600160a060020a039091166004820152602401602060405180830381600087803b15156105ed57600080fd5b6102c65a03f115156105fe57600080fd5b50505060405180519050151561061357600080fd5b61034f838383610c30565b600060208181529281526040808220909352908152205481565b600254600160a060020a03166369dc9ff33360006040516020015260405160e060020a63ffffffff8416028152600160a060020a039091166004820152602401602060405180830381600087803b151561069157600080fd5b6102c65a03f115156106a257600080fd5b5050506040518051905015156106b757600080fd5b61034f838383610a7d565b600160209081526000928352604080842090915290825290205481565b600160a060020a038083166000818152602081815260408083209486168084529482528083205493835260018252808320948352939052918220546107249190610a6b565b9392505050565b600254600160a060020a03166369dc9ff33360006040516020015260405160e060020a63ffffffff8416028152600160a060020a039091166004820152602401602060405180830381600087803b151561078457600080fd5b6102c65a03f1151561079557600080fd5b5050506040518051905015156107aa57600080fd5b6107b684848484610ce2565b50505050565b600160a060020a0391821660009081526020818152604080832093909416825291909152205490565b600160a060020a03808416600090815260208181526040808320938616835292905220546108139082610cf8565b600160a060020a0380851660008181526020818152604080832094881680845294909152908190209390935590917f4e45da441832cf53bdaa69235704fc0575e68210f459ee1562911024b12967d59084905190815260200160405180910390a3505050565b600160a060020a0380841660009081526001602090815260408083209386168352929052908120546108ab9083610cf8565b600160a060020a03858116600081815260016020908152604080832094891680845285835281842087905593835282825280832093835292815291902054919052901115610a1e57600160a060020a03808516600081815260016020908152604080832094881680845294825280832054938352828252808320948352939052919091205461093a9190610a6b565b600160a060020a038086166000908152602081815260408083209388168352929052205490915061096b9082610cf8565b600160a060020a03808616600090815260208181526040808320938816808452939091528082209390935590916323b872dd91879130918691516020015260405160e060020a63ffffffff8616028152600160a060020a0393841660048201529190921660248201526044810191909152606401602060405180830381600087803b15156109f857600080fd5b6102c65a03f11515610a0957600080fd5b505050604051805190501515610a1e57600080fd5b82600160a060020a031684600160a060020a03167f989eaa915cbb416ea3d6f9a63b1a3de51770c7674b11fe21ecdf76b4e1d139108460405190815260200160405180910390a350505050565b600082821115610a7757fe5b50900390565b600160a060020a038084166000818152602081815260408083209487168084529482528083205493835260018252808320948352939052918220548291610ac391610a6b565b915083600160a060020a031685600160a060020a03167f9407bd81f01ad8f5ae4a2487b63d3d1b1947257c2dcdda3ea183dc8e6965cc6e8560405190815260200160405180910390a3828210610b6a57600160a060020a0380861660009081526020818152604080832093881683529290522054610b419084610a6b565b600160a060020a0380871660009081526020818152604080832093891683529290522055610c29565b610b748383610a6b565b600160a060020a038087166000908152602081815260408083209389168084529390915280822082905592935090916323b872dd91889130918691516020015260405160e060020a63ffffffff8616028152600160a060020a0393841660048201529190921660248201526044810191909152606401602060405180830381600087803b1515610c0357600080fd5b6102c65a03f11515610c1457600080fd5b505050604051805190501515610c2957600080fd5b5050505050565b600160a060020a03808416600090815260016020908152604080832093861683529290522054610c609082610a6b565b600160a060020a0384811660009081526001602090815260408083209387168352929052908120829055901015610c9657600080fd5b81600160a060020a031683600160a060020a03167fe6e0ef9cd056ca98561ca60e347ada61e1ede2f1142a078951b7a52e1e508e608360405190815260200160405180910390a3505050565b610ced8383836107e5565b6107b6848383610a7d565b60008282018381101561072457fe00a165627a7a723058205bcfcae5387ecba2406e577cf66f6c599e742fcb6b891407e5f6f26e119bcb1a0029",
  "source": "/*\n\n  Authenticated lazy bank.\n\n*/\n\npragma solidity 0.4.18;\n\nimport \"../common/LazyBank.sol\";\nimport \"./ProxyRegistry.sol\";\n\n/**\n * @title AuthenticatedLazyBank\n * @author Project Wyvern Developers\n */\ncontract AuthenticatedLazyBank is LazyBank {\n\n    ProxyRegistry public registry;\n\n    modifier withRegistryAuth {\n        require(registry.contracts(msg.sender));\n        _;\n    }\n\n    function AuthenticatedLazyBank(ProxyRegistry addrRegistry)\n        public\n    {\n        registry = addrRegistry;\n    }\n\n    function _credit(address user, ERC20 token, uint amount)\n        public\n        withRegistryAuth\n    {\n        credit(user, token, amount);\n    }\n\n    function _lazyDebit(address user, ERC20 token, uint amount)\n        public\n        withRegistryAuth\n    {\n        lazyDebit(user, token, amount);\n    }\n\n    function _transferTo(address from, address to, ERC20 token, uint amount)\n        public\n        withRegistryAuth\n    {\n        transferTo(from, to, token, amount);\n    }\n\n    function _lazyLock(address user, ERC20 token, uint amount)\n        public\n        withRegistryAuth\n    {\n        lazyLock(user, token, amount);\n    }\n\n    function _unlock(address user, ERC20 token, uint amount)\n        public\n        withRegistryAuth\n    {\n        unlock(user, token, amount);\n    }\n\n}\n",
  "sourcePath": "/home/cwgoes/working/crypto/wyvern/wyvern-ethereum/contracts/registry/AuthenticatedLazyBank.sol",
  "compiler": {
    "name": "solc",
    "version": "0.4.18+commit.9cf6e910.Emscripten.clang"
  },
  "schemaVersion": "1.0.1",
  "updatedAt": "2018-01-30T20:09:57.467Z"
}