{
  "contractName": "AuthenticatedProxy",
  "abi": [
    {
      "constant": false,
      "inputs": [
        {
          "name": "id",
          "type": "uint256"
        },
        {
          "name": "dest",
          "type": "address"
        },
        {
          "name": "calldata",
          "type": "bytes"
        },
        {
          "name": "replace",
          "type": "bytes"
        },
        {
          "name": "start",
          "type": "uint256"
        },
        {
          "name": "length",
          "type": "uint256"
        },
        {
          "name": "v",
          "type": "uint8"
        },
        {
          "name": "r",
          "type": "bytes32"
        },
        {
          "name": "s",
          "type": "bytes32"
        }
      ],
      "name": "proxy",
      "outputs": [
        {
          "name": "",
          "type": "bool"
        }
      ],
      "payable": false,
      "stateMutability": "nonpayable",
      "type": "function"
    },
    {
      "constant": false,
      "inputs": [
        {
          "name": "id",
          "type": "uint256"
        },
        {
          "name": "dest",
          "type": "address"
        },
        {
          "name": "calldata",
          "type": "bytes"
        },
        {
          "name": "v",
          "type": "uint8"
        },
        {
          "name": "r",
          "type": "bytes32"
        },
        {
          "name": "s",
          "type": "bytes32"
        }
      ],
      "name": "proxyUnaltered",
      "outputs": [
        {
          "name": "",
          "type": "bool"
        }
      ],
      "payable": false,
      "stateMutability": "nonpayable",
      "type": "function"
    },
    {
      "constant": false,
      "inputs": [
        {
          "name": "from",
          "type": "address"
        },
        {
          "name": "value",
          "type": "uint256"
        },
        {
          "name": "token",
          "type": "address"
        },
        {
          "name": "extraData",
          "type": "bytes"
        }
      ],
      "name": "receiveApproval",
      "outputs": [],
      "payable": false,
      "stateMutability": "nonpayable",
      "type": "function"
    },
    {
      "constant": true,
      "inputs": [],
      "name": "userAddr",
      "outputs": [
        {
          "name": "",
          "type": "address"
        }
      ],
      "payable": false,
      "stateMutability": "view",
      "type": "function"
    },
    {
      "inputs": [
        {
          "name": "addrUser",
          "type": "address"
        }
      ],
      "payable": false,
      "stateMutability": "nonpayable",
      "type": "constructor"
    },
    {
      "payable": true,
      "stateMutability": "payable",
      "type": "fallback"
    },
    {
      "anonymous": false,
      "inputs": [
        {
          "indexed": true,
          "name": "dest",
          "type": "address"
        },
        {
          "indexed": false,
          "name": "calldata",
          "type": "bytes"
        },
        {
          "indexed": false,
          "name": "signature",
          "type": "bytes32"
        }
      ],
      "name": "ProxiedCall",
      "type": "event"
    },
    {
      "anonymous": false,
      "inputs": [
        {
          "indexed": true,
          "name": "sender",
          "type": "address"
        },
        {
          "indexed": false,
          "name": "amount",
          "type": "uint256"
        }
      ],
      "name": "ReceivedEther",
      "type": "event"
    },
    {
      "anonymous": false,
      "inputs": [
        {
          "indexed": true,
          "name": "from",
          "type": "address"
        },
        {
          "indexed": false,
          "name": "value",
          "type": "uint256"
        },
        {
          "indexed": true,
          "name": "token",
          "type": "address"
        },
        {
          "indexed": false,
          "name": "extraData",
          "type": "bytes"
        }
      ],
      "name": "ReceivedTokens",
      "type": "event"
    }
  ],
  "bytecode": "0x6060604052341561000f57600080fd5b6040516020806109278339810160405280805160008054600160a060020a03909216600160a060020a031990921691909117905550506108d3806100546000396000f3006060604052600436106100615763ffffffff7c010000000000000000000000000000000000000000000000000000000060003504166312711d3781146100a057806346a8ade8146101765780638f4ffcb1146101eb578063a277051f14610259575b33600160a060020a03167fa419615bc8fda4c87663805ee2a3597a6d71c1d476911d9892f340d965bc7bf13460405190815260200160405180910390a2005b34156100ab57600080fd5b610162600480359060248035600160a060020a0316919060649060443590810190830135806020601f8201819004810201604051908101604052818152929190602084018383808284378201915050505050509190803590602001908201803590602001908080601f016020809104026020016040519081016040528181529291906020840183838082843750949650508435946020810135945060ff604082013516935060608101359250608001359050610288565b604051901515815260200160405180910390f35b341561018157600080fd5b610162600480359060248035600160a060020a0316919060649060443590810190830135806020601f820181900481020160405190810160405281815292919060208401838380828437509496505060ff853516946020810135945060400135925061042e915050565b34156101f657600080fd5b61025760048035600160a060020a0390811691602480359260443516919060849060643590810190830135806020601f8201819004810201604051908101604052818152929190602084018383808284375094965061047095505050505050565b005b341561026457600080fd5b61026c6105d5565b604051600160a060020a03909116815260200160405180910390f35b6000610292610895565b61029a610895565b6000878a51146102a957600080fd5b6102b48b8b8b6105e4565b92506040805190810160405280601c81526020017f19457468657265756d205369676e6564204d6573736167653a0a3332000000008152509150818d8d8d8c8c336040518681526c01000000000000000000000000600160a060020a0387160260208201526034810185805190602001908083835b602083106103485780518252601f199092019160209182019101610329565b6001836020036101000a03801982511681845116808217855250505050505090500184815260200183815260200182600160a060020a0316600160a060020a03166c01000000000000000000000000028152601401965050505050505060405180910390206040518083805190602001908083835b602083106103dc5780518252601f1990920191602091820191016103bd565b6001836020036101000a038019825116818451161790925250505091909101928352505060200190506040518091039020905061041d8c84838a8a8a61069d565b9d9c50505050505050505050505050565b600061046587878760006040518059106104455750595b818152601f19601f830116810160200160405290506000808a8a8a610288565b979650505050505050565b81600160a060020a0381166323b872dd8630876000604051602001526040517c010000000000000000000000000000000000000000000000000000000063ffffffff8616028152600160a060020a0393841660048201529190921660248201526044810191909152606401602060405180830381600087803b15156104f457600080fd5b6102c65a03f1151561050557600080fd5b50505060405180519050151561051a57600080fd5b82600160a060020a031685600160a060020a03167fd65b48fd35864b3528d38e44760be5553248f89bf3ff6b06cca57817cc2650bf868560405182815260406020820181815290820183818151815260200191508051906020019080838360005b8381101561059357808201518382015260200161057b565b50505050905090810190601f1680156105c05780820380516001836020036101000a031916815260200191505b50935050505060405180910390a35050505050565b600054600160a060020a031681565b6105ec610895565b60005b83518110156106945783818151811061060457fe5b01602001517f010000000000000000000000000000000000000000000000000000000000000090047f010000000000000000000000000000000000000000000000000000000000000002858483018151811061065c57fe5b9060200101907effffffffffffffffffffffffffffffffffffffffffffffffffffffffffffff1916908160001a9053506001016105ef565b50929392505050565b60008481526001602052604081205460ff16156106b957600080fd5b600054600160a060020a03166001868686866040516000815260200160405260006040516020015260405193845260ff90921660208085019190915260408085019290925260608401929092526080909201915160208103908084039060008661646e5a03f1151561072a57600080fd5b505060206040510351600160a060020a03161461074657600080fd5b600085815260016020819052604091829020805460ff19169091179055600160a060020a038816907fbd82c19cddd168b2c99a313024f4bdac7a5e1e3c389f2abef8a934685ea4f3d89088908890516020810182905260408082528190810184818151815260200191508051906020019080838360005b838110156107d55780820151838201526020016107bd565b50505050905090810190601f1680156108025780820380516001836020036101000a031916815260200191505b50935050505060405180910390a286600160a060020a03168660405180828051906020019080838360005b8381101561084557808201518382015260200161082d565b50505050905090810190601f1680156108725780820380516001836020036101000a031916815260200191505b5091505060006040518083038160008661646e5a03f19998505050505050505050565b602060405190810160405260008152905600a165627a7a723058206e4ba233a975bd41fb75f48d7e8d5416ae7d64c7b79f8b1820be0fd3d8f9a62d0029",
  "source": "/* \n\n  Proxy contract to hold access to assets on behalf of a user (e.g. ERC20 approve).\n\n  Includes replay prevention; each signature can only be used once and is only valid for the particular contract specified.\n\n*/\n\npragma solidity 0.4.18;\n\nimport \"../common/ArrayUtils.sol\";\nimport \"../common/TokenRecipient.sol\";\n\n/**\n * @title AuthenticatedProxy\n * @author Project Wyvern Developers\n */\ncontract AuthenticatedProxy is TokenRecipient {\n\n    address public userAddr;\n\n    mapping(bytes32 => bool) sent;\n\n    event ProxiedCall(address indexed dest, bytes calldata, bytes32 signature);\n\n    function AuthenticatedProxy(address addrUser) public {\n        userAddr = addrUser;\n    }\n\n    function validateAndSend(address dest, bytes calldata, bytes32 signature, uint8 v, bytes32 r, bytes32 s) internal returns (bool) {\n        require(!sent[signature]);\n        require(ecrecover(signature, v, r, s) == userAddr);\n        sent[signature] = true;\n        ProxiedCall(dest, calldata, signature);\n        return dest.call(calldata);\n    }\n\n    /* User has signed :: Transaction -> Bool.\n       Requesting user wants to replace (bytes replace) */\n    function proxy(uint id, address dest, bytes calldata, bytes replace, uint start, uint length, uint8 v, bytes32 r, bytes32 s) public returns (bool) {\n        require(replace.length == length);\n        bytes memory finalCalldata = ArrayUtils.arrayCopy(calldata, replace, start);\n        bytes memory prefix = \"\\x19Ethereum Signed Message:\\n32\";\n        bytes32 signature = keccak256(prefix, keccak256(id, dest, calldata, start, length, msg.sender));\n        return validateAndSend(dest, finalCalldata, signature, v, r, s);\n    }\n\n    /* User has signed :: Transaction */\n    function proxyUnaltered(uint id, address dest, bytes calldata, uint8 v, bytes32 r, bytes32 s) public returns (bool) {\n        return proxy(id, dest, calldata, new bytes(0), 0, 0, v, r, s);\n    }\n\n}\n",
  "sourcePath": "/home/cwgoes/working/crypto/wyvern/wyvern-ethereum/contracts/registry/AuthenticatedProxy.sol",
  "compiler": {
    "name": "solc",
    "version": "0.4.18+commit.9cf6e910.Emscripten.clang"
  },
  "schemaVersion": "1.0.1",
  "updatedAt": "2018-01-07T20:03:38.537Z"
}