{
  "contractName": "DelayedReleaseToken",
  "abi": [
    {
      "constant": false,
      "inputs": [
        {
          "name": "_spender",
          "type": "address"
        },
        {
          "name": "_value",
          "type": "uint256"
        }
      ],
      "name": "approve",
      "outputs": [
        {
          "name": "",
          "type": "bool"
        }
      ],
      "payable": false,
      "stateMutability": "nonpayable",
      "type": "function"
    },
    {
      "constant": true,
      "inputs": [],
      "name": "totalSupply",
      "outputs": [
        {
          "name": "",
          "type": "uint256"
        }
      ],
      "payable": false,
      "stateMutability": "view",
      "type": "function"
    },
    {
      "constant": false,
      "inputs": [
        {
          "name": "_from",
          "type": "address"
        },
        {
          "name": "_to",
          "type": "address"
        },
        {
          "name": "_value",
          "type": "uint256"
        }
      ],
      "name": "transferFrom",
      "outputs": [
        {
          "name": "",
          "type": "bool"
        }
      ],
      "payable": false,
      "stateMutability": "nonpayable",
      "type": "function"
    },
    {
      "constant": false,
      "inputs": [
        {
          "name": "_spender",
          "type": "address"
        },
        {
          "name": "_subtractedValue",
          "type": "uint256"
        }
      ],
      "name": "decreaseApproval",
      "outputs": [
        {
          "name": "",
          "type": "bool"
        }
      ],
      "payable": false,
      "stateMutability": "nonpayable",
      "type": "function"
    },
    {
      "constant": true,
      "inputs": [
        {
          "name": "_owner",
          "type": "address"
        }
      ],
      "name": "balanceOf",
      "outputs": [
        {
          "name": "balance",
          "type": "uint256"
        }
      ],
      "payable": false,
      "stateMutability": "view",
      "type": "function"
    },
    {
      "constant": false,
      "inputs": [
        {
          "name": "destination",
          "type": "address"
        }
      ],
      "name": "releaseTokens",
      "outputs": [],
      "payable": false,
      "stateMutability": "nonpayable",
      "type": "function"
    },
    {
      "constant": false,
      "inputs": [
        {
          "name": "_to",
          "type": "address"
        },
        {
          "name": "_value",
          "type": "uint256"
        }
      ],
      "name": "transfer",
      "outputs": [
        {
          "name": "",
          "type": "bool"
        }
      ],
      "payable": false,
      "stateMutability": "nonpayable",
      "type": "function"
    },
    {
      "constant": false,
      "inputs": [
        {
          "name": "_spender",
          "type": "address"
        },
        {
          "name": "_addedValue",
          "type": "uint256"
        }
      ],
      "name": "increaseApproval",
      "outputs": [
        {
          "name": "",
          "type": "bool"
        }
      ],
      "payable": false,
      "stateMutability": "nonpayable",
      "type": "function"
    },
    {
      "constant": true,
      "inputs": [
        {
          "name": "_owner",
          "type": "address"
        },
        {
          "name": "_spender",
          "type": "address"
        }
      ],
      "name": "allowance",
      "outputs": [
        {
          "name": "",
          "type": "uint256"
        }
      ],
      "payable": false,
      "stateMutability": "view",
      "type": "function"
    },
    {
      "anonymous": false,
      "inputs": [
        {
          "indexed": false,
          "name": "destination",
          "type": "address"
        },
        {
          "indexed": false,
          "name": "numberOfTokens",
          "type": "uint256"
        }
      ],
      "name": "TokensReleased",
      "type": "event"
    },
    {
      "anonymous": false,
      "inputs": [
        {
          "indexed": true,
          "name": "owner",
          "type": "address"
        },
        {
          "indexed": true,
          "name": "spender",
          "type": "address"
        },
        {
          "indexed": false,
          "name": "value",
          "type": "uint256"
        }
      ],
      "name": "Approval",
      "type": "event"
    },
    {
      "anonymous": false,
      "inputs": [
        {
          "indexed": true,
          "name": "from",
          "type": "address"
        },
        {
          "indexed": true,
          "name": "to",
          "type": "address"
        },
        {
          "indexed": false,
          "name": "value",
          "type": "uint256"
        }
      ],
      "name": "Transfer",
      "type": "event"
    }
  ],
  "bytecode": "0x60606040526003805460a060020a60ff0219169055341561001f57600080fd5b6108298061002e6000396000f3006060604052600436106100985763ffffffff7c0100000000000000000000000000000000000000000000000000000000600035041663095ea7b3811461009d57806318160ddd146100d357806323b872dd146100f8578063661884631461012057806370a082311461014257806387b0be4814610161578063a9059cbb14610182578063d73dd623146101a4578063dd62ed3e146101c6575b600080fd5b34156100a857600080fd5b6100bf600160a060020a03600435166024356101eb565b604051901515815260200160405180910390f35b34156100de57600080fd5b6100e6610257565b60405190815260200160405180910390f35b341561010357600080fd5b6100bf600160a060020a036004358116906024351660443561025d565b341561012b57600080fd5b6100bf600160a060020a03600435166024356103df565b341561014d57600080fd5b6100e6600160a060020a03600435166104d9565b341561016c57600080fd5b610180600160a060020a03600435166104f4565b005b341561018d57600080fd5b6100bf600160a060020a036004351660243561060b565b34156101af57600080fd5b6100bf600160a060020a0360043516602435610706565b34156101d157600080fd5b6100e6600160a060020a03600435811690602435166107aa565b600160a060020a03338116600081815260026020908152604080832094871680845294909152808220859055909291907f8c5be1e5ebec7d5bd14f71427d1e84f3dd0314c0f7b2291e5b200ac8c7c3b9259085905190815260200160405180910390a350600192915050565b60005481565b6000600160a060020a038316151561027457600080fd5b600160a060020a03841660009081526001602052604090205482111561029957600080fd5b600160a060020a03808516600090815260026020908152604080832033909416835292905220548211156102cc57600080fd5b600160a060020a0384166000908152600160205260409020546102f5908363ffffffff6107d516565b600160a060020a03808616600090815260016020526040808220939093559085168152205461032a908363ffffffff6107e716565b600160a060020a03808516600090815260016020908152604080832094909455878316825260028152838220339093168252919091522054610372908363ffffffff6107d516565b600160a060020a03808616600081815260026020908152604080832033861684529091529081902093909355908516917fddf252ad1be2c89b69c2b068fc378daa952ba7f163c4a11628f55a4df523b3ef9085905190815260200160405180910390a35060019392505050565b600160a060020a0333811660009081526002602090815260408083209386168352929052908120548083111561043c57600160a060020a033381166000908152600260209081526040808320938816835292905290812055610473565b61044c818463ffffffff6107d516565b600160a060020a033381166000908152600260209081526040808320938916835292905220555b600160a060020a0333811660008181526002602090815260408083209489168084529490915290819020547f8c5be1e5ebec7d5bd14f71427d1e84f3dd0314c0f7b2291e5b200ac8c7c3b925915190815260200160405180910390a35060019392505050565b600160a060020a031660009081526001602052604090205490565b60035433600160a060020a03908116911614801561052d575060035474010000000000000000000000000000000000000000900460ff16155b151561053857600080fd5b6003805474ff0000000000000000000000000000000000000000191674010000000000000000000000000000000000000000179055600454600160a060020a038216600081815260016020526040808220849055919290917fddf252ad1be2c89b69c2b068fc378daa952ba7f163c4a11628f55a4df523b3ef91905190815260200160405180910390a37fc7798891864187665ac6dd119286e44ec13f014527aeeb2b8eb3fd413df9317981600454604051600160a060020a03909216825260208201526040908101905180910390a150565b6000600160a060020a038316151561062257600080fd5b600160a060020a03331660009081526001602052604090205482111561064757600080fd5b600160a060020a033316600090815260016020526040902054610670908363ffffffff6107d516565b600160a060020a0333811660009081526001602052604080822093909355908516815220546106a5908363ffffffff6107e716565b600160a060020a0380851660008181526001602052604090819020939093559133909116907fddf252ad1be2c89b69c2b068fc378daa952ba7f163c4a11628f55a4df523b3ef9085905190815260200160405180910390a350600192915050565b600160a060020a03338116600090815260026020908152604080832093861683529290529081205461073e908363ffffffff6107e716565b600160a060020a0333811660008181526002602090815260408083209489168084529490915290819020849055919290917f8c5be1e5ebec7d5bd14f71427d1e84f3dd0314c0f7b2291e5b200ac8c7c3b92591905190815260200160405180910390a350600192915050565b600160a060020a03918216600090815260026020908152604080832093909416825291909152205490565b6000828211156107e157fe5b50900390565b6000828201838110156107f657fe5b93925050505600a165627a7a72305820e5d0a315c652e5cba2e07aadabf9a8eb4fee01f223d06ad02a17b4977357311e0029",
  "source": "/*\n\n  Delayed release token - a token which delays initial mint of a specified amount to allow an address to be provided after the token contract is instantiated.\n\n  Used in our case to allow the Wyvern token to be instantiated, then the Wyvern DAO instantiated using the Wyvern token as the share token, then an amount of WYV to be minted to the DAO.\n\n*/\n\npragma solidity 0.4.18;\n\nimport \"zeppelin-solidity/contracts/token/StandardToken.sol\";\n\n/**\n  * @title DelayedReleaseToken\n  * @author Project Wyvern Developers\n  */\ncontract DelayedReleaseToken is StandardToken {\n\n    /* Temporary administrator address, only used for the initial token release, must be initialized by token constructor. */\n    address temporaryAdmin;\n\n    /* Whether or not the delayed token release has occurred. */\n    bool hasBeenReleased = false;\n\n    /* Number of tokens to be released, must be initialized by token constructor. */\n    uint numberOfDelayedTokens;\n\n    /* Event for convenience. */\n    event TokensReleased(address destination, uint numberOfTokens);\n\n    /**\n     * @dev Release the previously specified amount of tokens to the provided address\n     * @param destination Address for which tokens will be released (minted) \n     */\n    function releaseTokens(address destination) public {\n        require((msg.sender == temporaryAdmin) && (!hasBeenReleased));\n        hasBeenReleased = true;\n        balances[destination] = numberOfDelayedTokens;\n        Transfer(address(0), destination, numberOfDelayedTokens); \n        TokensReleased(destination, numberOfDelayedTokens);\n    }\n\n}\n",
  "sourcePath": "/home/cwgoes/working/crypto/wyvern/wyvern-ethereum/contracts/token/DelayedReleaseToken.sol",
  "compiler": {
    "name": "solc",
    "version": "0.4.18+commit.9cf6e910.Emscripten.clang"
  },
  "schemaVersion": "1.0.1",
  "updatedAt": "2018-01-01T02:53:11.824Z"
}