{
  "contractName": "DelayedReleaseToken",
  "abi": [
    {
      "constant": false,
      "inputs": [
        {
          "name": "_spender",
          "type": "address"
        },
        {
          "name": "_value",
          "type": "uint256"
        }
      ],
      "name": "approve",
      "outputs": [
        {
          "name": "",
          "type": "bool"
        }
      ],
      "payable": false,
      "stateMutability": "nonpayable",
      "type": "function"
    },
    {
      "constant": true,
      "inputs": [],
      "name": "totalSupply",
      "outputs": [
        {
          "name": "",
          "type": "uint256"
        }
      ],
      "payable": false,
      "stateMutability": "view",
      "type": "function"
    },
    {
      "constant": false,
      "inputs": [
        {
          "name": "_from",
          "type": "address"
        },
        {
          "name": "_to",
          "type": "address"
        },
        {
          "name": "_value",
          "type": "uint256"
        }
      ],
      "name": "transferFrom",
      "outputs": [
        {
          "name": "",
          "type": "bool"
        }
      ],
      "payable": false,
      "stateMutability": "nonpayable",
      "type": "function"
    },
    {
      "constant": false,
      "inputs": [
        {
          "name": "_spender",
          "type": "address"
        },
        {
          "name": "_subtractedValue",
          "type": "uint256"
        }
      ],
      "name": "decreaseApproval",
      "outputs": [
        {
          "name": "",
          "type": "bool"
        }
      ],
      "payable": false,
      "stateMutability": "nonpayable",
      "type": "function"
    },
    {
      "constant": true,
      "inputs": [
        {
          "name": "_owner",
          "type": "address"
        }
      ],
      "name": "balanceOf",
      "outputs": [
        {
          "name": "",
          "type": "uint256"
        }
      ],
      "payable": false,
      "stateMutability": "view",
      "type": "function"
    },
    {
      "constant": false,
      "inputs": [
        {
          "name": "_to",
          "type": "address"
        },
        {
          "name": "_value",
          "type": "uint256"
        }
      ],
      "name": "transfer",
      "outputs": [
        {
          "name": "",
          "type": "bool"
        }
      ],
      "payable": false,
      "stateMutability": "nonpayable",
      "type": "function"
    },
    {
      "constant": false,
      "inputs": [
        {
          "name": "_spender",
          "type": "address"
        },
        {
          "name": "_addedValue",
          "type": "uint256"
        }
      ],
      "name": "increaseApproval",
      "outputs": [
        {
          "name": "",
          "type": "bool"
        }
      ],
      "payable": false,
      "stateMutability": "nonpayable",
      "type": "function"
    },
    {
      "constant": true,
      "inputs": [
        {
          "name": "_owner",
          "type": "address"
        },
        {
          "name": "_spender",
          "type": "address"
        }
      ],
      "name": "allowance",
      "outputs": [
        {
          "name": "",
          "type": "uint256"
        }
      ],
      "payable": false,
      "stateMutability": "view",
      "type": "function"
    },
    {
      "anonymous": false,
      "inputs": [
        {
          "indexed": false,
          "name": "destination",
          "type": "address"
        },
        {
          "indexed": false,
          "name": "numberOfTokens",
          "type": "uint256"
        }
      ],
      "name": "TokensReleased",
      "type": "event"
    },
    {
      "anonymous": false,
      "inputs": [
        {
          "indexed": true,
          "name": "owner",
          "type": "address"
        },
        {
          "indexed": true,
          "name": "spender",
          "type": "address"
        },
        {
          "indexed": false,
          "name": "value",
          "type": "uint256"
        }
      ],
      "name": "Approval",
      "type": "event"
    },
    {
      "anonymous": false,
      "inputs": [
        {
          "indexed": true,
          "name": "from",
          "type": "address"
        },
        {
          "indexed": true,
          "name": "to",
          "type": "address"
        },
        {
          "indexed": false,
          "name": "value",
          "type": "uint256"
        }
      ],
      "name": "Transfer",
      "type": "event"
    },
    {
      "constant": false,
      "inputs": [
        {
          "name": "destination",
          "type": "address"
        }
      ],
      "name": "releaseTokens",
      "outputs": [],
      "payable": false,
      "stateMutability": "nonpayable",
      "type": "function"
    }
  ],
  "bytecode": "0x60806040526003805460a060020a60ff021916905534801561002057600080fd5b5061082e806100306000396000f3006080604052600436106100985763ffffffff7c0100000000000000000000000000000000000000000000000000000000600035041663095ea7b3811461009d57806318160ddd146100d557806323b872dd146100fc578063661884631461012657806370a082311461014a57806387b0be481461016b578063a9059cbb1461018e578063d73dd623146101b2578063dd62ed3e146101d6575b600080fd5b3480156100a957600080fd5b506100c1600160a060020a03600435166024356101fd565b604080519115158252519081900360200190f35b3480156100e157600080fd5b506100ea610267565b60408051918252519081900360200190f35b34801561010857600080fd5b506100c1600160a060020a036004358116906024351660443561026d565b34801561013257600080fd5b506100c1600160a060020a03600435166024356103ed565b34801561015657600080fd5b506100ea600160a060020a03600435166104e6565b34801561017757600080fd5b5061018c600160a060020a0360043516610501565b005b34801561019a57600080fd5b506100c1600160a060020a0360043516602435610617565b3480156101be57600080fd5b506100c1600160a060020a0360043516602435610710565b3480156101e257600080fd5b506100ea600160a060020a03600435811690602435166107b2565b600160a060020a03338116600081815260026020908152604080832094871680845294825280832086905580518681529051929493927f8c5be1e5ebec7d5bd14f71427d1e84f3dd0314c0f7b2291e5b200ac8c7c3b925929181900390910190a350600192915050565b60015490565b6000600160a060020a038316151561028457600080fd5b600160a060020a0384166000908152602081905260409020548211156102a957600080fd5b600160a060020a03808516600090815260026020908152604080832033909416835292905220548211156102dc57600080fd5b600160a060020a038416600090815260208190526040902054610305908363ffffffff6107dd16565b600160a060020a03808616600090815260208190526040808220939093559085168152205461033a908363ffffffff6107ef16565b600160a060020a0380851660009081526020818152604080832094909455878316825260028152838220339093168252919091522054610380908363ffffffff6107dd16565b600160a060020a038086166000818152600260209081526040808320338616845282529182902094909455805186815290519287169391927fddf252ad1be2c89b69c2b068fc378daa952ba7f163c4a11628f55a4df523b3ef929181900390910190a35060019392505050565b600160a060020a0333811660009081526002602090815260408083209386168352929052908120548083111561044a57600160a060020a033381166000908152600260209081526040808320938816835292905290812055610481565b61045a818463ffffffff6107dd16565b600160a060020a033381166000908152600260209081526040808320938916835292905220555b600160a060020a0333811660008181526002602090815260408083209489168084529482529182902054825190815291517f8c5be1e5ebec7d5bd14f71427d1e84f3dd0314c0f7b2291e5b200ac8c7c3b9259281900390910190a35060019392505050565b600160a060020a031660009081526020819052604090205490565b60035433600160a060020a03908116911614801561053a575060035474010000000000000000000000000000000000000000900460ff16155b151561054557600080fd5b6003805474ff0000000000000000000000000000000000000000191674010000000000000000000000000000000000000000179055600454600160a060020a038216600081815260208181526040808320859055805194855251929391927fddf252ad1be2c89b69c2b068fc378daa952ba7f163c4a11628f55a4df523b3ef9281900390910190a360045460408051600160a060020a0384168152602081019290925280517fc7798891864187665ac6dd119286e44ec13f014527aeeb2b8eb3fd413df931799281900390910190a150565b6000600160a060020a038316151561062e57600080fd5b600160a060020a03331660009081526020819052604090205482111561065357600080fd5b600160a060020a03331660009081526020819052604090205461067c908363ffffffff6107dd16565b600160a060020a0333811660009081526020819052604080822093909355908516815220546106b1908363ffffffff6107ef16565b600160a060020a03808516600081815260208181526040918290209490945580518681529051919333909316927fddf252ad1be2c89b69c2b068fc378daa952ba7f163c4a11628f55a4df523b3ef92918290030190a350600192915050565b600160a060020a033381166000908152600260209081526040808320938616835292905290812054610748908363ffffffff6107ef16565b600160a060020a0333811660008181526002602090815260408083209489168084529482529182902085905581519485529051929391927f8c5be1e5ebec7d5bd14f71427d1e84f3dd0314c0f7b2291e5b200ac8c7c3b9259281900390910190a350600192915050565b600160a060020a03918216600090815260026020908152604080832093909416825291909152205490565b6000828211156107e957fe5b50900390565b818101828110156107fc57fe5b929150505600a165627a7a72305820708e066d1d118b284743e6e851bc13b420a08dab8b23e9ef657d9e022f935dc60029",
  "source": "/*\n\n  Delayed release token - a token which delays initial mint of a specified amount to allow an address to be provided after the token contract is instantiated.\n\n  Used in our case to allow the Wyvern token to be instantiated, then the Wyvern DAO instantiated using the Wyvern token as the share token, then an amount of WYV to be minted to the DAO.\n\n*/\n\npragma solidity 0.4.23;\n\nimport \"zeppelin-solidity/contracts/token/ERC20/StandardToken.sol\";\n\n/**\n  * @title DelayedReleaseToken\n  * @author Project Wyvern Developers\n  */\ncontract DelayedReleaseToken is StandardToken {\n\n    /* Temporary administrator address, only used for the initial token release, must be initialized by token constructor. */\n    address temporaryAdmin;\n\n    /* Whether or not the delayed token release has occurred. */\n    bool hasBeenReleased = false;\n\n    /* Number of tokens to be released, must be initialized by token constructor. */\n    uint numberOfDelayedTokens;\n\n    /* Event for convenience. */\n    event TokensReleased(address destination, uint numberOfTokens);\n\n    /**\n     * @dev Release the previously specified amount of tokens to the provided address\n     * @param destination Address for which tokens will be released (minted) \n     */\n    function releaseTokens(address destination) public {\n        require((msg.sender == temporaryAdmin) && (!hasBeenReleased));\n        hasBeenReleased = true;\n        balances[destination] = numberOfDelayedTokens;\n        emit Transfer(address(0), destination, numberOfDelayedTokens); \n        emit TokensReleased(destination, numberOfDelayedTokens);\n    }\n\n}\n",
  "sourcePath": "/home/cwgoes/working/crypto/wyvern/wyvern-ethereum/contracts/token/DelayedReleaseToken.sol",
  "compiler": {
    "name": "solc",
    "version": "0.4.23+commit.124ca40d.Emscripten.clang"
  },
  "schemaVersion": "2.0.0",
  "updatedAt": "2018-05-12T16:08:48.297Z"
}