{
  "contractName": "DelegatedShareholderAssociation",
  "abi": [
    {
      "constant": true,
      "inputs": [
        {
          "name": "",
          "type": "uint256"
        }
      ],
      "name": "proposals",
      "outputs": [
        {
          "name": "recipient",
          "type": "address"
        },
        {
          "name": "amount",
          "type": "uint256"
        },
        {
          "name": "metadataHash",
          "type": "bytes"
        },
        {
          "name": "votingDeadline",
          "type": "uint256"
        },
        {
          "name": "executed",
          "type": "bool"
        },
        {
          "name": "proposalPassed",
          "type": "bool"
        },
        {
          "name": "numberOfVotes",
          "type": "uint256"
        },
        {
          "name": "proposalHash",
          "type": "bytes32"
        }
      ],
      "payable": false,
      "stateMutability": "view",
      "type": "function"
    },
    {
      "constant": true,
      "inputs": [
        {
          "name": "",
          "type": "address"
        }
      ],
      "name": "delegatesByDelegator",
      "outputs": [
        {
          "name": "",
          "type": "address"
        }
      ],
      "payable": false,
      "stateMutability": "view",
      "type": "function"
    },
    {
      "constant": true,
      "inputs": [
        {
          "name": "",
          "type": "address"
        }
      ],
      "name": "lockedDelegatingTokens",
      "outputs": [
        {
          "name": "",
          "type": "uint256"
        }
      ],
      "payable": false,
      "stateMutability": "view",
      "type": "function"
    },
    {
      "constant": false,
      "inputs": [
        {
          "name": "minimumSharesToPassAVote",
          "type": "uint256"
        },
        {
          "name": "minutesForDebate",
          "type": "uint256"
        }
      ],
      "name": "changeVotingRules",
      "outputs": [],
      "payable": false,
      "stateMutability": "nonpayable",
      "type": "function"
    },
    {
      "constant": false,
      "inputs": [
        {
          "name": "proposalNumber",
          "type": "uint256"
        },
        {
          "name": "transactionBytecode",
          "type": "bytes"
        }
      ],
      "name": "executeProposal",
      "outputs": [],
      "payable": false,
      "stateMutability": "nonpayable",
      "type": "function"
    },
    {
      "constant": true,
      "inputs": [],
      "name": "sharesTokenAddress",
      "outputs": [
        {
          "name": "",
          "type": "address"
        }
      ],
      "payable": false,
      "stateMutability": "view",
      "type": "function"
    },
    {
      "constant": false,
      "inputs": [
        {
          "name": "beneficiary",
          "type": "address"
        },
        {
          "name": "etherAmount",
          "type": "uint256"
        },
        {
          "name": "jobMetadataHash",
          "type": "bytes"
        },
        {
          "name": "transactionBytecode",
          "type": "bytes"
        }
      ],
      "name": "newProposalInEther",
      "outputs": [
        {
          "name": "proposalID",
          "type": "uint256"
        }
      ],
      "payable": false,
      "stateMutability": "nonpayable",
      "type": "function"
    },
    {
      "constant": true,
      "inputs": [
        {
          "name": "",
          "type": "address"
        }
      ],
      "name": "delegatedAmountsByDelegate",
      "outputs": [
        {
          "name": "",
          "type": "uint256"
        }
      ],
      "payable": false,
      "stateMutability": "view",
      "type": "function"
    },
    {
      "constant": true,
      "inputs": [],
      "name": "numProposals",
      "outputs": [
        {
          "name": "",
          "type": "uint256"
        }
      ],
      "payable": false,
      "stateMutability": "view",
      "type": "function"
    },
    {
      "constant": false,
      "inputs": [
        {
          "name": "tokensToLock",
          "type": "uint256"
        },
        {
          "name": "delegate",
          "type": "address"
        }
      ],
      "name": "setDelegateAndLockTokens",
      "outputs": [],
      "payable": false,
      "stateMutability": "nonpayable",
      "type": "function"
    },
    {
      "constant": false,
      "inputs": [],
      "name": "clearDelegateAndUnlockTokens",
      "outputs": [
        {
          "name": "lockedTokens",
          "type": "uint256"
        }
      ],
      "payable": false,
      "stateMutability": "nonpayable",
      "type": "function"
    },
    {
      "constant": true,
      "inputs": [],
      "name": "debatingPeriodInMinutes",
      "outputs": [
        {
          "name": "",
          "type": "uint256"
        }
      ],
      "payable": false,
      "stateMutability": "view",
      "type": "function"
    },
    {
      "constant": true,
      "inputs": [],
      "name": "minimumQuorum",
      "outputs": [
        {
          "name": "",
          "type": "uint256"
        }
      ],
      "payable": false,
      "stateMutability": "view",
      "type": "function"
    },
    {
      "constant": false,
      "inputs": [
        {
          "name": "_from",
          "type": "address"
        },
        {
          "name": "_value",
          "type": "uint256"
        },
        {
          "name": "_token",
          "type": "address"
        },
        {
          "name": "_extraData",
          "type": "bytes"
        }
      ],
      "name": "receiveApproval",
      "outputs": [],
      "payable": false,
      "stateMutability": "nonpayable",
      "type": "function"
    },
    {
      "constant": true,
      "inputs": [],
      "name": "requiredSharesToBeBoardMember",
      "outputs": [
        {
          "name": "",
          "type": "uint256"
        }
      ],
      "payable": false,
      "stateMutability": "view",
      "type": "function"
    },
    {
      "constant": false,
      "inputs": [
        {
          "name": "proposalNumber",
          "type": "uint256"
        },
        {
          "name": "supportsProposal",
          "type": "bool"
        }
      ],
      "name": "vote",
      "outputs": [
        {
          "name": "voteID",
          "type": "uint256"
        }
      ],
      "payable": false,
      "stateMutability": "nonpayable",
      "type": "function"
    },
    {
      "constant": false,
      "inputs": [
        {
          "name": "beneficiary",
          "type": "address"
        },
        {
          "name": "weiAmount",
          "type": "uint256"
        },
        {
          "name": "jobMetadataHash",
          "type": "bytes"
        },
        {
          "name": "transactionBytecode",
          "type": "bytes"
        }
      ],
      "name": "newProposal",
      "outputs": [
        {
          "name": "proposalID",
          "type": "uint256"
        }
      ],
      "payable": false,
      "stateMutability": "nonpayable",
      "type": "function"
    },
    {
      "constant": true,
      "inputs": [
        {
          "name": "proposalNumber",
          "type": "uint256"
        },
        {
          "name": "beneficiary",
          "type": "address"
        },
        {
          "name": "weiAmount",
          "type": "uint256"
        },
        {
          "name": "transactionBytecode",
          "type": "bytes"
        }
      ],
      "name": "checkProposalCode",
      "outputs": [
        {
          "name": "codeChecksOut",
          "type": "bool"
        }
      ],
      "payable": false,
      "stateMutability": "view",
      "type": "function"
    },
    {
      "constant": true,
      "inputs": [],
      "name": "totalLockedTokens",
      "outputs": [
        {
          "name": "",
          "type": "uint256"
        }
      ],
      "payable": false,
      "stateMutability": "view",
      "type": "function"
    },
    {
      "payable": true,
      "stateMutability": "payable",
      "type": "fallback"
    },
    {
      "anonymous": false,
      "inputs": [
        {
          "indexed": false,
          "name": "proposalID",
          "type": "uint256"
        },
        {
          "indexed": false,
          "name": "recipient",
          "type": "address"
        },
        {
          "indexed": false,
          "name": "amount",
          "type": "uint256"
        },
        {
          "indexed": false,
          "name": "metadataHash",
          "type": "bytes"
        }
      ],
      "name": "ProposalAdded",
      "type": "event"
    },
    {
      "anonymous": false,
      "inputs": [
        {
          "indexed": false,
          "name": "proposalID",
          "type": "uint256"
        },
        {
          "indexed": false,
          "name": "position",
          "type": "bool"
        },
        {
          "indexed": false,
          "name": "voter",
          "type": "address"
        }
      ],
      "name": "Voted",
      "type": "event"
    },
    {
      "anonymous": false,
      "inputs": [
        {
          "indexed": false,
          "name": "proposalID",
          "type": "uint256"
        },
        {
          "indexed": false,
          "name": "result",
          "type": "uint256"
        },
        {
          "indexed": false,
          "name": "quorum",
          "type": "uint256"
        },
        {
          "indexed": false,
          "name": "active",
          "type": "bool"
        }
      ],
      "name": "ProposalTallied",
      "type": "event"
    },
    {
      "anonymous": false,
      "inputs": [
        {
          "indexed": false,
          "name": "newMinimumQuorum",
          "type": "uint256"
        },
        {
          "indexed": false,
          "name": "newDebatingPeriodInMinutes",
          "type": "uint256"
        },
        {
          "indexed": false,
          "name": "newSharesTokenAddress",
          "type": "address"
        }
      ],
      "name": "ChangeOfRules",
      "type": "event"
    },
    {
      "anonymous": false,
      "inputs": [
        {
          "indexed": true,
          "name": "delegator",
          "type": "address"
        },
        {
          "indexed": false,
          "name": "numberOfTokens",
          "type": "uint256"
        },
        {
          "indexed": true,
          "name": "delegate",
          "type": "address"
        }
      ],
      "name": "TokensDelegated",
      "type": "event"
    },
    {
      "anonymous": false,
      "inputs": [
        {
          "indexed": true,
          "name": "delegator",
          "type": "address"
        },
        {
          "indexed": false,
          "name": "numberOfTokens",
          "type": "uint256"
        },
        {
          "indexed": true,
          "name": "delegate",
          "type": "address"
        }
      ],
      "name": "TokensUndelegated",
      "type": "event"
    },
    {
      "anonymous": false,
      "inputs": [
        {
          "indexed": false,
          "name": "sender",
          "type": "address"
        },
        {
          "indexed": false,
          "name": "amount",
          "type": "uint256"
        }
      ],
      "name": "ReceivedEther",
      "type": "event"
    },
    {
      "anonymous": false,
      "inputs": [
        {
          "indexed": false,
          "name": "_from",
          "type": "address"
        },
        {
          "indexed": false,
          "name": "_value",
          "type": "uint256"
        },
        {
          "indexed": false,
          "name": "_token",
          "type": "address"
        },
        {
          "indexed": false,
          "name": "_extraData",
          "type": "bytes"
        }
      ],
      "name": "ReceivedTokens",
      "type": "event"
    }
  ],
  "bytecode": "0x6060604052341561000f57600080fd5b61189d8061001e6000396000f3006060604052600436106101065763ffffffff7c0100000000000000000000000000000000000000000000000000000000600035041663013cf08b811461014c578063064cc7a71461022c57806313f47f2414610267578063158059e214610298578063237e9492146102b357806327ebcf0e146103095780632decd4c71461031c5780633fb3ec28146103c3578063400e3949146103e25780635fa7df6b146103f5578063645bd4361461041757806369bd34361461042a5780638160f0b51461043d5780638f4ffcb114610450578063b94fa03f146104bc578063c9d27afe146104cf578063dbc45228146104ea578063eceb294514610591578063f5c476f91461060d575b7fa419615bc8fda4c87663805ee2a3597a6d71c1d476911d9892f340d965bc7bf13334604051600160a060020a03909216825260208201526040908101905180910390a1005b341561015757600080fd5b610162600435610620565b604051600160a060020a03891681526020810188905260608101869052841515608082015283151560a082015260c0810183905260e08101829052610100604082018181528854600260018216158402600019019091160491830182905290610120830190899080156102165780601f106101eb57610100808354040283529160200191610216565b820191906000526020600020905b8154815290600101906020018083116101f957829003601f168201915b5050995050505050505050505060405180910390f35b341561023757600080fd5b61024b600160a060020a036004351661067f565b604051600160a060020a03909116815260200160405180910390f35b341561027257600080fd5b610286600160a060020a036004351661069a565b60405190815260200160405180910390f35b34156102a357600080fd5b6102b16004356024356106ac565b005b34156102be57600080fd5b6102b1600480359060446024803590810190830135806020601f8201819004810201604051908101604052818152929190602084018383808284375094965061074495505050505050565b341561031457600080fd5b61024b610b2b565b341561032757600080fd5b61028660048035600160a060020a03169060248035919060649060443590810190830135806020601f8201819004810201604051908101604052818152929190602084018383808284378201915050505050509190803590602001908201803590602001908080601f016020809104026020016040519081016040528181529291906020840183838082843750949650610b3a95505050505050565b34156103ce57600080fd5b610286600160a060020a0360043516610bf9565b34156103ed57600080fd5b610286610c0b565b341561040057600080fd5b6102b1600435600160a060020a0360243516610c11565b341561042257600080fd5b610286610e17565b341561043557600080fd5b610286610f96565b341561044857600080fd5b610286610f9c565b341561045b57600080fd5b6102b160048035600160a060020a0390811691602480359260443516919060849060643590810190830135806020601f82018190048102016040519081016040528181529291906020840183838082843750949650610fa295505050505050565b34156104c757600080fd5b61028661110f565b34156104da57600080fd5b6102866004356024351515611115565b34156104f557600080fd5b61028660048035600160a060020a03169060248035919060649060443590810190830135806020601f8201819004810201604051908101604052818152929190602084018383808284378201915050505050509190803590602001908201803590602001908080601f01602080910402602001604051908101604052818152929190602084018383808284375094965061131c95505050505050565b341561059c57600080fd5b6105f9600480359060248035600160a060020a0316916044359160849060643590810190830135806020601f820181900481020160405190810160405281815292919060208401838380828437509496506115ab95505050505050565b604051901515815260200160405180910390f35b341561061857600080fd5b610286611664565b600280548290811061062e57fe5b60009182526020909120600990910201805460018201546003830154600484015460058501546006860154600160a060020a039095169650929460020193919260ff80831693610100909304169188565b600560205260009081526040902054600160a060020a031681565b60066020526000908152604090205481565b30600160a060020a031633600160a060020a03161415156106cc57600080fd5b8115156106d857600191505b600082905560018190556004547f68259880819f96f54b67d672fefc666565de06099c91b57a689a42073ba090c99083908390600160a060020a03166040519283526020830191909152600160a060020a03166040808301919091526060909101905180910390a15050565b600080600080600080600060028981548110151561075e57fe5b906000526020600020906009020196508660030154421180156107865750600487015460ff16155b801561082b575086546001880154600160a060020a0390911690896040516c01000000000000000000000000600160a060020a038516028152601481018390526034810182805190602001908083835b602083106107f55780518252601f1990920191602091820191016107d6565b6001836020036101000a038019825116818451161790925250505091909101945060409350505050519081900390206006880154145b151561083657600080fd5b600095506000945060009350600092505b6007870154831015610945576007870180548490811061086357fe5b600091825260208083209091018054600160a060020a03610100909104811680855260079093526040808520546004549397509492909116926370a0823192909151602001526040517c010000000000000000000000000000000000000000000000000000000063ffffffff8416028152600160a060020a039091166004820152602401602060405180830381600087803b151561090057600080fd5b6102c65a03f1151561091157600080fd5b5050506040518051845492019788019792505060ff1615610935579384019361093a565b928301925b826001019250610847565b60005486101561095457600080fd5b83851115610aaf5760048701805460ff19166001908117909155875490880154600160a060020a03909116908960405180828051906020019080838360005b838110156109ab578082015183820152602001610993565b50505050905090810190601f1680156109d85780820380516001836020036101000a031916815260200191505b5091505060006040518083038185876187965a03f19250505015156109fc57600080fd5b600854600454600160a060020a03166370a08231306000604051602001526040517c010000000000000000000000000000000000000000000000000000000063ffffffff8416028152600160a060020a039091166004820152602401602060405180830381600087803b1515610a7157600080fd5b6102c65a03f11515610a8257600080fd5b5050506040518051905010151515610a9957600080fd5b60048701805461ff001916610100179055610abd565b60048701805461ff00191690555b7f4bdc4ffee1d0e901f1c0270e9917651a82a81a109b5736b546a1b26668c55c0e89858703888a60040160019054906101000a900460ff16604051938452602084019290925260408084019190915290151560608301526080909101905180910390a1505050505050505050565b600454600160a060020a031681565b60095460045460009190600160a060020a03166370a082313384604051602001526040517c010000000000000000000000000000000000000000000000000000000063ffffffff8416028152600160a060020a039091166004820152602401602060405180830381600087803b1515610bb257600080fd5b6102c65a03f11515610bc357600080fd5b5050506040518051905010151515610bda57600080fd5b610bf08585670de0b6b3a764000002858561131c565b95945050505050565b60076020526000908152604090205481565b60035481565b600454600090600160a060020a03166370a082313383604051602001526040517c010000000000000000000000000000000000000000000000000000000063ffffffff8416028152600160a060020a039091166004820152602401602060405180830381600087803b1515610c8557600080fd5b6102c65a03f11515610c9657600080fd5b50505060405180519050111515610cac57600080fd5b600160a060020a033381166000908152600560205260409020541615610cd157600080fd5b600454600160a060020a03166323b872dd3330856000604051602001526040517c010000000000000000000000000000000000000000000000000000000063ffffffff8616028152600160a060020a0393841660048201529190921660248201526044810191909152606401602060405180830381600087803b1515610d5657600080fd5b6102c65a03f11515610d6757600080fd5b505050604051805190501515610d7c57600080fd5b600160a060020a033381166000818152600660209081526040808320879055938516808352600782528483208054880190556008805488019055838352600590915290839020805473ffffffffffffffffffffffffffffffffffffffff191682179055917f57593c23286b632d1ba413b24ecae252f34f6b81fdff1022dc7ac0d78cde56b79085905190815260200160405180910390a35050565b600160a060020a0333811660009081526005602052604081205490918291161515610e4157600080fd5b5050600160a060020a03338181166000818152600560208181526040808420805460068452828620805490879055908916808752600785528387208054839003905560088054839003905596865293909252815473ffffffffffffffffffffffffffffffffffffffff191690915560045491959394919093169263a9059cbb92869151602001526040517c010000000000000000000000000000000000000000000000000000000063ffffffff8516028152600160a060020a0390921660048301526024820152604401602060405180830381600087803b1515610f2457600080fd5b6102c65a03f11515610f3557600080fd5b505050604051805190501515610f4a57600080fd5b80600160a060020a031633600160a060020a03167fccc924ef18d5fcabbf624302b6a02f9014c9b3371994eacc0cec2c107f2503e48460405190815260200160405180910390a35b5090565b60015481565b60005481565b81600160a060020a0381166323b872dd8630876000604051602001526040517c010000000000000000000000000000000000000000000000000000000063ffffffff8616028152600160a060020a0393841660048201529190921660248201526044810191909152606401602060405180830381600087803b151561102657600080fd5b6102c65a03f1151561103757600080fd5b50505060405180519050151561104c57600080fd5b7fd65b48fd35864b3528d38e44760be5553248f89bf3ff6b06cca57817cc2650bf85858585604051600160a060020a038086168252602082018590528316604082015260806060820181815290820183818151815260200191508051906020019080838360005b838110156110cb5780820151838201526020016110b3565b50505050905090810190601f1680156110f85780820380516001836020036101000a031916815260200191505b509550505050505060405180910390a15050505050565b60095481565b60045460009081908190600160a060020a03166370a082313383604051602001526040517c010000000000000000000000000000000000000000000000000000000063ffffffff8416028152600160a060020a039091166004820152602401602060405180830381600087803b151561118d57600080fd5b6102c65a03f1151561119e57600080fd5b505050604051805190501115156111b457600080fd5b60028054859081106111c257fe5b60009182526020808320600160a060020a03331684526008600990930201918201905260409091205490915060ff1615156001141561120057600080fd5b60078101805490611214906001830161166a565b9150604080519081016040528315158152600160a060020a03331660208201526007820180548490811061124457fe5b60009182526020909120018151815460ff1916901515178155602082015181547fffffffffffffffffffffff0000000000000000000000000000000000000000ff16610100600160a060020a03928316021790915533908116600090815260088401602052604090819020805460ff19166001908117909155850160058501557f86abfce99b7dd908bec0169288797f85049ec73cbe046ed9de818fab3a497ae0925086918691519283529015156020830152600160a060020a03166040808301919091526060909101905180910390a15092915050565b6009546004546000918291600160a060020a03166370a082313384604051602001526040517c010000000000000000000000000000000000000000000000000000000063ffffffff8416028152600160a060020a039091166004820152602401602060405180830381600087803b151561139557600080fd5b6102c65a03f115156113a657600080fd5b50505060405180519050101515156113bd57600080fd5b60028054906113cf9060018301611693565b91506002828154811015156113e057fe5b60009182526020909120600990910201805473ffffffffffffffffffffffffffffffffffffffff1916600160a060020a038816178155600181018690559050600281018480516114349291602001906116bf565b508585846040516c01000000000000000000000000600160a060020a038516028152601481018390526034810182805190602001908083835b6020831061148c5780518252601f19909201916020918201910161146d565b6001836020036101000a038019825116818451161790925250505091909101945060409350505050519081900390206006820155600154603c024201600382015560048101805461ffff19169055600060058201557f06d6b095e85f5218421975622a7aee84a98b32aa7d174b90088357014003b43382878787604051848152600160a060020a03841660208201526040810183905260806060820181815290820183818151815260200191508051906020019080838360005b8381101561155e578082015183820152602001611546565b50505050905090810190601f16801561158b5780820380516001836020036101000a031916815260200191505b509550505050505060405180910390a16001820160035550949350505050565b6000806002868154811015156115bd57fe5b906000526020600020906009020190508484846040516c01000000000000000000000000600160a060020a038516028152601481018390526034810182805190602001908083835b602083106116245780518252601f199092019160209182019101611605565b6001836020036101000a03801982511681845116179092525050509190910194506040935050505051908190039020600682015414915050949350505050565b60085481565b81548183558181151161168e5760008381526020902061168e918101908301611739565b505050565b81548183558181151161168e5760090281600902836000526020600020918201910161168e9190611778565b828054600181600116156101000203166002900490600052602060002090601f016020900481019282601f1061170057805160ff191683800117855561172d565b8280016001018555821561172d579182015b8281111561172d578251825591602001919060010190611712565b50610f929291506117f2565b61177591905b80821115610f925780547fffffffffffffffffffffff00000000000000000000000000000000000000000016815560010161173f565b90565b61177591905b80821115610f9257805473ffffffffffffffffffffffffffffffffffffffff191681556000600182018190556117b7600283018261180c565b60006003830181905560048301805461ffff1916905560058301819055600683018190556117e9906007840190611853565b5060090161177e565b61177591905b80821115610f9257600081556001016117f8565b50805460018160011615610100020316600290046000825580601f106118325750611850565b601f01602090049060005260206000209081019061185091906117f2565b50565b508054600082559060005260206000209081019061185091906117395600a165627a7a723058203a68dee247428ad2b38d86851bc980640bc1664a2fe42fd279be9df4588a63d90029",
  "source": "/*\n\n  Delegated self-upgrading shareholders association.\n\n  Originally based on the Shareholder Association example from https://ethereum.org/dao.\n  \n  Modified to support vote delegation and self-ownership - modifications in detail:\n\n    Delegation\n\n      Overview\n\n        Any shareholder in the DAO (which is anyone who holds the associated token) can voluntarily delegate any portion of their tokens to another address.\n        They do so by sending the tokens which they wish to delegate to the DAO, which locks them until the user undelegates their tokens (at which point the DAO returns the tokens to the user).\n        While locked, these tokens count as extra votes for the address to whom the user delegated their tokens.\n        Tokens can be unlocked at any time, and once unlocked no longer count as delegated votes in this manner.\n\n      Notes\n\n        - Delegated votes are counted when a proposal is finalized and executed (or not) - there's no way to move tokens around to create more votes than tokens and/or cause any tokens to count twice.\n        - The DAO is prevented from spending these locked tokens in the executeProposal function, so users who lock tokens are guaranteed the ability to withdraw them whenever they choose (no reserve banking).\n\n    Self-Ownership\n\n      Only the DAO itself can change its own voting rules (not an owning address). \n\n  TODO\n\n    - Convenience constant function for vote tallying\n    - Clarify some documentation\n\n*/\n\npragma solidity ^0.4.18;\n\nimport \"zeppelin-solidity/contracts/token/ERC20.sol\";\nimport \"../common/TokenRecipient.sol\";\n\ncontract DelegatedShareholderAssociation is TokenRecipient {\n\n    uint public minimumQuorum;\n    uint public debatingPeriodInMinutes;\n    Proposal[] public proposals;\n    uint public numProposals;\n    ERC20 public sharesTokenAddress;\n\n    /* Delegate addresses by delegator. */\n    mapping (address => address) public delegatesByDelegator;\n\n    /* Locked tokens by delegator. */\n    mapping (address => uint) public lockedDelegatingTokens;\n\n    /* Delegated votes by delegate. */\n    mapping (address => uint) public delegatedAmountsByDelegate;\n    \n    /* Tokens currently locked by vote delegation. */\n    uint public totalLockedTokens;\n\n    /* Threshold for the ability to create proposals. */\n    uint public requiredSharesToBeBoardMember;\n\n    /* Events for all state changes. TODO: Add for execution. */\n\n    event ProposalAdded(uint proposalID, address recipient, uint amount, bytes metadataHash);\n    event Voted(uint proposalID, bool position, address voter);\n    event ProposalTallied(uint proposalID, uint result, uint quorum, bool active);\n    event ChangeOfRules(uint newMinimumQuorum, uint newDebatingPeriodInMinutes, address newSharesTokenAddress);\n\n    event TokensDelegated(address indexed delegator, uint numberOfTokens, address indexed delegate);\n    event TokensUndelegated(address indexed delegator, uint numberOfTokens, address indexed delegate);\n\n    struct Proposal {\n        address recipient;\n        uint amount;\n        bytes metadataHash;\n        uint votingDeadline;\n        bool executed;\n        bool proposalPassed;\n        uint numberOfVotes;\n        bytes32 proposalHash;\n        Vote[] votes;\n        mapping (address => bool) voted;\n    }\n\n    struct Vote {\n        bool inSupport;\n        address voter;\n    }\n\n    /* Only shareholders can execute a function with this modifier. */\n    modifier onlyShareholders {\n        require(ERC20(sharesTokenAddress).balanceOf(msg.sender) > 0);\n        _;\n    }\n\n    /* Only the DAO itself (via an approved proposal) can execute a function with this modifier. */\n    modifier onlySelf {\n        require(msg.sender == address(this));\n        _;\n    }\n\n    /* Only a shareholder who has *not* delegated his vote can execute a function with this modifier. */\n    modifier onlyUndelegated {\n        require(delegatesByDelegator[msg.sender] == address(0));\n        _;\n    }\n\n    modifier onlyBoardMembers {\n        require(ERC20(sharesTokenAddress).balanceOf(msg.sender) >= requiredSharesToBeBoardMember);\n        _;\n    }\n\n    /* Only a shareholder who has delegated his vote can execute a function with this modifier. */\n    modifier onlyDelegated {\n        require(delegatesByDelegator[msg.sender] != address(0));\n        _;\n    }\n\n    /** \n      * @notice Set the delegate address for a specified number of tokens belonging to the sending address, locking the tokens.\n      * @dev An address holding tokens (shares) may only delegate some portion of their vote to one delegate at any one time\n      * @param tokensToLock number of tokens to be locked (sending address must have at least this many tokens)\n      * @param delegate the address to which votes equal to the number of tokens locked will be delegated\n      */\n    function setDelegateAndLockTokens(uint tokensToLock, address delegate) public onlyShareholders onlyUndelegated {\n        require(ERC20(sharesTokenAddress).transferFrom(msg.sender, address(this), tokensToLock));\n        lockedDelegatingTokens[msg.sender] = tokensToLock;\n        delegatedAmountsByDelegate[delegate] += tokensToLock;\n        totalLockedTokens += tokensToLock;\n        delegatesByDelegator[msg.sender] = delegate;\n        TokensDelegated(msg.sender, tokensToLock, delegate);\n    }\n\n    /** \n     * @notice Clear the delegate address for all tokens delegated by the sending address, unlocking the locked tokens.\n     * @dev Can only be called by a sending address currently delegating tokens, will transfer all locked tokens back to the sender\n     * @return The number of tokens previously locked, now released\n     */\n    function clearDelegateAndUnlockTokens() public onlyDelegated returns (uint lockedTokens) {\n        address delegate = delegatesByDelegator[msg.sender];\n        lockedTokens = lockedDelegatingTokens[msg.sender];\n        lockedDelegatingTokens[msg.sender] = 0;\n        delegatedAmountsByDelegate[delegate] -= lockedTokens;\n        totalLockedTokens -= lockedTokens;\n        delete delegatesByDelegator[msg.sender];\n        require(ERC20(sharesTokenAddress).transfer(msg.sender, lockedTokens));\n        TokensUndelegated(msg.sender, lockedTokens, delegate);\n        return lockedTokens;\n    }\n\n    /**\n     * Change voting rules\n     *\n     * Make so that proposals need tobe discussed for at least `minutesForDebate/60` hours\n     * and all voters combined must own more than `minimumSharesToPassAVote` shares of token `sharesAddress` to be executed\n     *\n     * @param minimumSharesToPassAVote proposal can vote only if the sum of shares held by all voters exceed this number\n     * @param minutesForDebate the minimum amount of delay between when a proposal is made and when it can be executed\n     */\n    function changeVotingRules(uint minimumSharesToPassAVote, uint minutesForDebate) public onlySelf {\n        if (minimumSharesToPassAVote == 0 ) {\n            minimumSharesToPassAVote = 1;\n        }\n        minimumQuorum = minimumSharesToPassAVote;\n        debatingPeriodInMinutes = minutesForDebate;\n        ChangeOfRules(minimumQuorum, debatingPeriodInMinutes, sharesTokenAddress);\n    }\n\n    /**\n     * Add Proposal\n     *\n     * Propose to send `weiAmount / 1e18` ether to `beneficiary` for `jobMetadataHash`. `transactionBytecode ? Contains : Does not contain` code.\n     *\n     * @param beneficiary who to send the ether to\n     * @param weiAmount amount of ether to send, in wei\n     * @param jobMetadataHash Hash of job metadata (IPFS)\n     * @param transactionBytecode bytecode of transaction\n     */\n    function newProposal(\n        address beneficiary,\n        uint weiAmount,\n        bytes jobMetadataHash,\n        bytes transactionBytecode\n    )\n        public\n        onlyBoardMembers\n        returns (uint proposalID)\n    {\n        proposalID = proposals.length++;\n        Proposal storage p = proposals[proposalID];\n        p.recipient = beneficiary;\n        p.amount = weiAmount;\n        p.metadataHash = jobMetadataHash;\n        p.proposalHash = keccak256(beneficiary, weiAmount, transactionBytecode);\n        p.votingDeadline = now + debatingPeriodInMinutes * 1 minutes;\n        p.executed = false;\n        p.proposalPassed = false;\n        p.numberOfVotes = 0;\n        ProposalAdded(proposalID, beneficiary, weiAmount, jobMetadataHash);\n        numProposals = proposalID+1;\n\n        return proposalID;\n    }\n\n    /**\n     * Add proposal in Ether\n     *\n     * Propose to send `etherAmount` ether to `beneficiary` for `jobMetadataHash`. `transactionBytecode ? Contains : Does not contain` code.\n     * This is a convenience function to use if the amount to be given is in round number of ether units.\n     *\n     * @param beneficiary who to send the ether to\n     * @param etherAmount amount of ether to send\n     * @param jobMetadataHash Hash of job metadata (IPFS)\n     * @param transactionBytecode bytecode of transaction\n     */\n    function newProposalInEther(\n        address beneficiary,\n        uint etherAmount,\n        bytes jobMetadataHash,\n        bytes transactionBytecode\n    )\n        public\n        onlyBoardMembers\n        returns (uint proposalID)\n    {\n        return newProposal(beneficiary, etherAmount * 1 ether, jobMetadataHash, transactionBytecode);\n    }\n\n    /**\n     * Check if a proposal code matches\n     *\n     * @param proposalNumber ID number of the proposal to query\n     * @param beneficiary who to send the ether to\n     * @param weiAmount amount of ether to send\n     * @param transactionBytecode bytecode of transaction\n     */\n    function checkProposalCode(\n        uint proposalNumber,\n        address beneficiary,\n        uint weiAmount,\n        bytes transactionBytecode\n    )\n        public\n        view\n        returns (bool codeChecksOut)\n    {\n        Proposal storage p = proposals[proposalNumber];\n        return p.proposalHash == keccak256(beneficiary, weiAmount, transactionBytecode);\n    }\n\n    /**\n     * Log a vote for a proposal\n     *\n     * Vote `supportsProposal? in support of : against` proposal #`proposalNumber`\n     *\n     * @param proposalNumber number of proposal\n     * @param supportsProposal either in favor or against it\n     */\n    function vote(\n        uint proposalNumber,\n        bool supportsProposal\n    )\n        public\n        onlyShareholders\n        returns (uint voteID)\n    {\n        Proposal storage p = proposals[proposalNumber];\n        require(p.voted[msg.sender] != true);\n\n        voteID = p.votes.length++;\n        p.votes[voteID] = Vote({inSupport: supportsProposal, voter: msg.sender});\n        p.voted[msg.sender] = true;\n        p.numberOfVotes = voteID + 1;\n        Voted(proposalNumber,  supportsProposal, msg.sender);\n        return voteID;\n    }\n\n    /**\n     * Finish vote\n     *\n     * Count the votes proposal #`proposalNumber` and execute it if approved\n     *\n     * @param proposalNumber proposal number\n     * @param transactionBytecode optional: if the transaction contained a bytecode, you need to send it\n     */\n    function executeProposal(uint proposalNumber, bytes transactionBytecode)  public {\n        Proposal storage p = proposals[proposalNumber];\n\n        /* If past deadline, not already executed, and code is correct, keep going. */\n        require((now > p.votingDeadline) && !p.executed && p.proposalHash == keccak256(p.recipient, p.amount, transactionBytecode));\n\n        // ...then tally the results\n        uint quorum = 0;\n        uint yea = 0;\n        uint nay = 0;\n\n        for (uint i = 0; i < p.votes.length; ++i) {\n            Vote storage v = p.votes[i];\n            uint voteWeight = sharesTokenAddress.balanceOf(v.voter) + delegatedAmountsByDelegate[v.voter];\n            quorum += voteWeight;\n            if (v.inSupport) {\n                yea += voteWeight;\n            } else {\n                nay += voteWeight;\n            }\n        }\n\n        /* Assert that a minimum quorum has been reached. */\n        require(quorum >= minimumQuorum);\n\n        if (yea > nay) {\n            // Proposal passed; execute the transaction\n\n            p.executed = true;\n            require(p.recipient.call.value(p.amount)(transactionBytecode));\n\n            /* Prevent the DAO from sending the locked shares tokens (and thus potentially being unable to release locked tokens to delegating shareholders). */\n            require(ERC20(sharesTokenAddress).balanceOf(address(this)) >= totalLockedTokens);\n\n            p.proposalPassed = true;\n        } else {\n            // Proposal failed\n            p.proposalPassed = false;\n        }\n\n        // Fire Events\n        ProposalTallied(proposalNumber, yea - nay, quorum, p.proposalPassed);\n    }\n}\n",
  "sourcePath": "/home/cwgoes/working/crypto/wyvern/wyvern-ethereum/contracts/dao/DelegatedShareholderAssociation.sol",
  "compiler": {
    "name": "solc",
    "version": "0.4.18+commit.9cf6e910.Emscripten.clang"
  },
  "schemaVersion": "1.0.1",
  "updatedAt": "2017-12-11T01:12:27.036Z"
}