{
  "contractName": "DelegateProxy",
  "abi": [
    {
      "constant": true,
      "inputs": [],
      "name": "owner",
      "outputs": [
        {
          "name": "",
          "type": "address"
        }
      ],
      "payable": false,
      "stateMutability": "view",
      "type": "function"
    },
    {
      "constant": false,
      "inputs": [
        {
          "name": "from",
          "type": "address"
        },
        {
          "name": "value",
          "type": "uint256"
        },
        {
          "name": "token",
          "type": "address"
        },
        {
          "name": "extraData",
          "type": "bytes"
        }
      ],
      "name": "receiveApproval",
      "outputs": [],
      "payable": false,
      "stateMutability": "nonpayable",
      "type": "function"
    },
    {
      "constant": false,
      "inputs": [
        {
          "name": "dest",
          "type": "address"
        },
        {
          "name": "calldata",
          "type": "bytes"
        }
      ],
      "name": "delegateProxyAssert",
      "outputs": [],
      "payable": false,
      "stateMutability": "nonpayable",
      "type": "function"
    },
    {
      "constant": false,
      "inputs": [
        {
          "name": "newOwner",
          "type": "address"
        }
      ],
      "name": "transferOwnership",
      "outputs": [],
      "payable": false,
      "stateMutability": "nonpayable",
      "type": "function"
    },
    {
      "constant": false,
      "inputs": [
        {
          "name": "dest",
          "type": "address"
        },
        {
          "name": "calldata",
          "type": "bytes"
        }
      ],
      "name": "delegateProxy",
      "outputs": [
        {
          "name": "result",
          "type": "bool"
        }
      ],
      "payable": false,
      "stateMutability": "nonpayable",
      "type": "function"
    },
    {
      "payable": true,
      "stateMutability": "payable",
      "type": "fallback"
    },
    {
      "anonymous": false,
      "inputs": [
        {
          "indexed": true,
          "name": "previousOwner",
          "type": "address"
        },
        {
          "indexed": true,
          "name": "newOwner",
          "type": "address"
        }
      ],
      "name": "OwnershipTransferred",
      "type": "event"
    },
    {
      "anonymous": false,
      "inputs": [
        {
          "indexed": true,
          "name": "sender",
          "type": "address"
        },
        {
          "indexed": false,
          "name": "amount",
          "type": "uint256"
        }
      ],
      "name": "ReceivedEther",
      "type": "event"
    },
    {
      "anonymous": false,
      "inputs": [
        {
          "indexed": true,
          "name": "from",
          "type": "address"
        },
        {
          "indexed": false,
          "name": "value",
          "type": "uint256"
        },
        {
          "indexed": true,
          "name": "token",
          "type": "address"
        },
        {
          "indexed": false,
          "name": "extraData",
          "type": "bytes"
        }
      ],
      "name": "ReceivedTokens",
      "type": "event"
    }
  ],
  "bytecode": "0x606060405260008054600160a060020a033316600160a060020a0319909116179055610528806100306000396000f30060606040526004361061006c5763ffffffff7c01000000000000000000000000000000000000000000000000000000006000350416638da5cb5b81146100ab5780638f4ffcb1146100da578063a018f2b214610148578063f2fde38b146101a7578063fc74dadd146101c6575b33600160a060020a03167fa419615bc8fda4c87663805ee2a3597a6d71c1d476911d9892f340d965bc7bf13460405190815260200160405180910390a2005b34156100b657600080fd5b6100be610239565b604051600160a060020a03909116815260200160405180910390f35b34156100e557600080fd5b61014660048035600160a060020a0390811691602480359260443516919060849060643590810190830135806020601f8201819004810201604051908101604052818152929190602084018383808284375094965061024895505050505050565b005b341561015357600080fd5b61014660048035600160a060020a03169060446024803590810190830135806020601f820181900481020160405190810160405281815292919060208401838380828437509496506103ad95505050505050565b34156101b257600080fd5b610146600160a060020a03600435166103c6565b34156101d157600080fd5b61022560048035600160a060020a03169060446024803590810190830135806020601f8201819004810201604051908101604052818152929190602084018383808284375094965061046195505050505050565b604051901515815260200160405180910390f35b600054600160a060020a031681565b81600160a060020a0381166323b872dd8630876000604051602001526040517c010000000000000000000000000000000000000000000000000000000063ffffffff8616028152600160a060020a0393841660048201529190921660248201526044810191909152606401602060405180830381600087803b15156102cc57600080fd5b6102c65a03f115156102dd57600080fd5b5050506040518051905015156102f257600080fd5b82600160a060020a031685600160a060020a03167fd65b48fd35864b3528d38e44760be5553248f89bf3ff6b06cca57817cc2650bf868560405182815260406020820181815290820183818151815260200191508051906020019080838360005b8381101561036b578082015183820152602001610353565b50505050905090810190601f1680156103985780820380516001836020036101000a031916815260200191505b50935050505060405180910390a35050505050565b6103b78282610461565b15156103c257600080fd5b5050565b60005433600160a060020a039081169116146103e157600080fd5b600160a060020a03811615156103f657600080fd5b600054600160a060020a0380831691167f8be0079c531659141344cd1fd0a4f28419497f9722a3daafe3b4186f6b6457e060405160405180910390a36000805473ffffffffffffffffffffffffffffffffffffffff1916600160a060020a0392909216919091179055565b6000805433600160a060020a0390811691161461047d57600080fd5b82600160a060020a03168260405180828051906020019080838360005b838110156104b257808201518382015260200161049a565b50505050905090810190601f1680156104df5780820380516001836020036101000a031916815260200191505b509150506000604051808303818561646e5a03f4959450505050505600a165627a7a72305820887c241b6cc6b3185ea1ec81324ae4f11d231f8ab09583bb0a23c0840b2fe6e00029",
  "source": "/*\n\n  DELEGATECALL proxy contract.\n  Primarily intended to enable easy atomic composition of future transactions (unknown at the time of proxy creation).\n  Example: atomically deploying a new contract and changing ENS name resolution to point to it.\n  Holds no state and does not capture call results.\n\n*/\n\npragma solidity 0.4.18;\n\nimport \"zeppelin-solidity/contracts/ownership/Ownable.sol\";\n\nimport \"../common/TokenRecipient.sol\";\n\n/**\n * @title DelegateProxy\n * @author Project Wyvern Developers\n */\ncontract DelegateProxy is TokenRecipient, Ownable {\n\n    /**\n     * Execute a DELEGATECALL from the proxy contract\n     *\n     * @dev Owner only\n     * @param dest Address to which the call will be sent\n     * @param calldata Calldata to send\n     * @return Result of the delegatecall (success or failure)\n     */\n    function delegateProxy(address dest, bytes calldata)\n        public\n        onlyOwner\n        returns (bool result)\n    {\n        return dest.delegatecall(calldata);\n    }\n\n    /**\n     * Execute a DELEGATECALL and assert success\n     *\n     * @dev Same functionality as `delegateProxy`, just asserts the return value\n     * @param dest Address to which the call will be sent\n     * @param calldata Calldata to send\n     */\n    function delegateProxyAssert(address dest, bytes calldata)\n        public\n    {\n        require(delegateProxy(dest, calldata));\n    }\n\n}\n",
  "sourcePath": "/home/cwgoes/working/crypto/wyvern/wyvern-ethereum/contracts/dao/DelegateProxy.sol",
  "compiler": {
    "name": "solc",
    "version": "0.4.18+commit.9cf6e910.Emscripten.clang"
  },
  "schemaVersion": "1.0.1",
  "updatedAt": "2018-03-06T22:28:03.365Z"
}