{
  "contractName": "DelegatedShareholderAssociation",
  "abi": [
    {
      "constant": true,
      "inputs": [
        {
          "name": "",
          "type": "uint256"
        }
      ],
      "name": "proposals",
      "outputs": [
        {
          "name": "recipient",
          "type": "address"
        },
        {
          "name": "amount",
          "type": "uint256"
        },
        {
          "name": "metadataHash",
          "type": "bytes"
        },
        {
          "name": "timeCreated",
          "type": "uint256"
        },
        {
          "name": "votingDeadline",
          "type": "uint256"
        },
        {
          "name": "finalized",
          "type": "bool"
        },
        {
          "name": "proposalPassed",
          "type": "bool"
        },
        {
          "name": "numberOfVotes",
          "type": "uint256"
        },
        {
          "name": "proposalHash",
          "type": "bytes32"
        }
      ],
      "payable": false,
      "stateMutability": "view",
      "type": "function"
    },
    {
      "constant": true,
      "inputs": [
        {
          "name": "",
          "type": "address"
        }
      ],
      "name": "delegatesByDelegator",
      "outputs": [
        {
          "name": "",
          "type": "address"
        }
      ],
      "payable": false,
      "stateMutability": "view",
      "type": "function"
    },
    {
      "constant": true,
      "inputs": [
        {
          "name": "",
          "type": "address"
        }
      ],
      "name": "lockedDelegatingTokens",
      "outputs": [
        {
          "name": "",
          "type": "uint256"
        }
      ],
      "payable": false,
      "stateMutability": "view",
      "type": "function"
    },
    {
      "constant": true,
      "inputs": [
        {
          "name": "proposalNumber",
          "type": "uint256"
        }
      ],
      "name": "countVotes",
      "outputs": [
        {
          "name": "yea",
          "type": "uint256"
        },
        {
          "name": "nay",
          "type": "uint256"
        },
        {
          "name": "quorum",
          "type": "uint256"
        }
      ],
      "payable": false,
      "stateMutability": "view",
      "type": "function"
    },
    {
      "constant": false,
      "inputs": [
        {
          "name": "proposalNumber",
          "type": "uint256"
        },
        {
          "name": "transactionBytecode",
          "type": "bytes"
        }
      ],
      "name": "executeProposal",
      "outputs": [],
      "payable": false,
      "stateMutability": "nonpayable",
      "type": "function"
    },
    {
      "constant": true,
      "inputs": [],
      "name": "sharesTokenAddress",
      "outputs": [
        {
          "name": "",
          "type": "address"
        }
      ],
      "payable": false,
      "stateMutability": "view",
      "type": "function"
    },
    {
      "constant": true,
      "inputs": [
        {
          "name": "",
          "type": "address"
        }
      ],
      "name": "delegatedAmountsByDelegate",
      "outputs": [
        {
          "name": "",
          "type": "uint256"
        }
      ],
      "payable": false,
      "stateMutability": "view",
      "type": "function"
    },
    {
      "constant": true,
      "inputs": [],
      "name": "numProposals",
      "outputs": [
        {
          "name": "",
          "type": "uint256"
        }
      ],
      "payable": false,
      "stateMutability": "view",
      "type": "function"
    },
    {
      "constant": true,
      "inputs": [
        {
          "name": "proposalNumber",
          "type": "uint256"
        },
        {
          "name": "shareholder",
          "type": "address"
        }
      ],
      "name": "hasVoted",
      "outputs": [
        {
          "name": "",
          "type": "bool"
        }
      ],
      "payable": false,
      "stateMutability": "view",
      "type": "function"
    },
    {
      "constant": false,
      "inputs": [
        {
          "name": "tokensToLock",
          "type": "uint256"
        },
        {
          "name": "delegate",
          "type": "address"
        }
      ],
      "name": "setDelegateAndLockTokens",
      "outputs": [],
      "payable": false,
      "stateMutability": "nonpayable",
      "type": "function"
    },
    {
      "constant": false,
      "inputs": [],
      "name": "clearDelegateAndUnlockTokens",
      "outputs": [
        {
          "name": "lockedTokens",
          "type": "uint256"
        }
      ],
      "payable": false,
      "stateMutability": "nonpayable",
      "type": "function"
    },
    {
      "constant": true,
      "inputs": [],
      "name": "debatingPeriodInMinutes",
      "outputs": [
        {
          "name": "",
          "type": "uint256"
        }
      ],
      "payable": false,
      "stateMutability": "view",
      "type": "function"
    },
    {
      "constant": false,
      "inputs": [
        {
          "name": "minimumSharesToPassAVote",
          "type": "uint256"
        },
        {
          "name": "minutesForDebate",
          "type": "uint256"
        },
        {
          "name": "sharesToBeBoardMember",
          "type": "uint256"
        }
      ],
      "name": "changeVotingRules",
      "outputs": [],
      "payable": false,
      "stateMutability": "nonpayable",
      "type": "function"
    },
    {
      "constant": true,
      "inputs": [],
      "name": "minimumQuorum",
      "outputs": [
        {
          "name": "",
          "type": "uint256"
        }
      ],
      "payable": false,
      "stateMutability": "view",
      "type": "function"
    },
    {
      "constant": false,
      "inputs": [
        {
          "name": "from",
          "type": "address"
        },
        {
          "name": "value",
          "type": "uint256"
        },
        {
          "name": "token",
          "type": "address"
        },
        {
          "name": "extraData",
          "type": "bytes"
        }
      ],
      "name": "receiveApproval",
      "outputs": [],
      "payable": false,
      "stateMutability": "nonpayable",
      "type": "function"
    },
    {
      "constant": true,
      "inputs": [],
      "name": "tokenLocker",
      "outputs": [
        {
          "name": "",
          "type": "address"
        }
      ],
      "payable": false,
      "stateMutability": "view",
      "type": "function"
    },
    {
      "constant": true,
      "inputs": [],
      "name": "requiredSharesToBeBoardMember",
      "outputs": [
        {
          "name": "",
          "type": "uint256"
        }
      ],
      "payable": false,
      "stateMutability": "view",
      "type": "function"
    },
    {
      "constant": false,
      "inputs": [
        {
          "name": "proposalNumber",
          "type": "uint256"
        },
        {
          "name": "supportsProposal",
          "type": "bool"
        }
      ],
      "name": "vote",
      "outputs": [
        {
          "name": "voteID",
          "type": "uint256"
        }
      ],
      "payable": false,
      "stateMutability": "nonpayable",
      "type": "function"
    },
    {
      "constant": false,
      "inputs": [
        {
          "name": "beneficiary",
          "type": "address"
        },
        {
          "name": "weiAmount",
          "type": "uint256"
        },
        {
          "name": "jobMetadataHash",
          "type": "bytes"
        },
        {
          "name": "transactionBytecode",
          "type": "bytes"
        }
      ],
      "name": "newProposal",
      "outputs": [
        {
          "name": "proposalID",
          "type": "uint256"
        }
      ],
      "payable": false,
      "stateMutability": "nonpayable",
      "type": "function"
    },
    {
      "constant": true,
      "inputs": [
        {
          "name": "proposalNumber",
          "type": "uint256"
        },
        {
          "name": "beneficiary",
          "type": "address"
        },
        {
          "name": "weiAmount",
          "type": "uint256"
        },
        {
          "name": "transactionBytecode",
          "type": "bytes"
        }
      ],
      "name": "checkProposalCode",
      "outputs": [
        {
          "name": "codeChecksOut",
          "type": "bool"
        }
      ],
      "payable": false,
      "stateMutability": "view",
      "type": "function"
    },
    {
      "constant": true,
      "inputs": [],
      "name": "totalLockedTokens",
      "outputs": [
        {
          "name": "",
          "type": "uint256"
        }
      ],
      "payable": false,
      "stateMutability": "view",
      "type": "function"
    },
    {
      "payable": true,
      "stateMutability": "payable",
      "type": "fallback"
    },
    {
      "anonymous": false,
      "inputs": [
        {
          "indexed": false,
          "name": "proposalID",
          "type": "uint256"
        },
        {
          "indexed": false,
          "name": "recipient",
          "type": "address"
        },
        {
          "indexed": false,
          "name": "amount",
          "type": "uint256"
        },
        {
          "indexed": false,
          "name": "metadataHash",
          "type": "bytes"
        }
      ],
      "name": "ProposalAdded",
      "type": "event"
    },
    {
      "anonymous": false,
      "inputs": [
        {
          "indexed": false,
          "name": "proposalID",
          "type": "uint256"
        },
        {
          "indexed": false,
          "name": "position",
          "type": "bool"
        },
        {
          "indexed": false,
          "name": "voter",
          "type": "address"
        }
      ],
      "name": "Voted",
      "type": "event"
    },
    {
      "anonymous": false,
      "inputs": [
        {
          "indexed": false,
          "name": "proposalID",
          "type": "uint256"
        },
        {
          "indexed": false,
          "name": "yea",
          "type": "uint256"
        },
        {
          "indexed": false,
          "name": "nay",
          "type": "uint256"
        },
        {
          "indexed": false,
          "name": "quorum",
          "type": "uint256"
        },
        {
          "indexed": false,
          "name": "active",
          "type": "bool"
        }
      ],
      "name": "ProposalTallied",
      "type": "event"
    },
    {
      "anonymous": false,
      "inputs": [
        {
          "indexed": false,
          "name": "newMinimumQuorum",
          "type": "uint256"
        },
        {
          "indexed": false,
          "name": "newDebatingPeriodInMinutes",
          "type": "uint256"
        },
        {
          "indexed": false,
          "name": "newSharesTokenAddress",
          "type": "address"
        }
      ],
      "name": "ChangeOfRules",
      "type": "event"
    },
    {
      "anonymous": false,
      "inputs": [
        {
          "indexed": true,
          "name": "delegator",
          "type": "address"
        },
        {
          "indexed": false,
          "name": "numberOfTokens",
          "type": "uint256"
        },
        {
          "indexed": true,
          "name": "delegate",
          "type": "address"
        }
      ],
      "name": "TokensDelegated",
      "type": "event"
    },
    {
      "anonymous": false,
      "inputs": [
        {
          "indexed": true,
          "name": "delegator",
          "type": "address"
        },
        {
          "indexed": false,
          "name": "numberOfTokens",
          "type": "uint256"
        },
        {
          "indexed": true,
          "name": "delegate",
          "type": "address"
        }
      ],
      "name": "TokensUndelegated",
      "type": "event"
    },
    {
      "anonymous": false,
      "inputs": [
        {
          "indexed": true,
          "name": "sender",
          "type": "address"
        },
        {
          "indexed": false,
          "name": "amount",
          "type": "uint256"
        }
      ],
      "name": "ReceivedEther",
      "type": "event"
    },
    {
      "anonymous": false,
      "inputs": [
        {
          "indexed": true,
          "name": "from",
          "type": "address"
        },
        {
          "indexed": false,
          "name": "value",
          "type": "uint256"
        },
        {
          "indexed": true,
          "name": "token",
          "type": "address"
        },
        {
          "indexed": false,
          "name": "extraData",
          "type": "bytes"
        }
      ],
      "name": "ReceivedTokens",
      "type": "event"
    }
  ],
  "bytecode": "0x6060604052341561000f57600080fd5b6119978061001e6000396000f3006060604052600436106101035763ffffffff60e060020a600035041663013cf08b8114610142578063064cc7a71461022d57806313f47f24146102685780631840f0ca14610299578063237e9492146102d357806327ebcf0e1461032b5780633fb3ec281461033e578063400e39491461035d57806343859632146103705780635fa7df6b146103a6578063645bd436146103c857806369bd3436146103db5780636e676b69146103ee5780638160f0b51461040a5780638f4ffcb11461041d578063a80bf3e614610489578063b94fa03f1461049c578063c9d27afe146104af578063dbc45228146104ca578063eceb294514610571578063f5c476f9146105d9575b33600160a060020a03167fa419615bc8fda4c87663805ee2a3597a6d71c1d476911d9892f340d965bc7bf13460405190815260200160405180910390a2005b341561014d57600080fd5b6101586004356105ec565b604051600160a060020a038a16815260208101899052606081018790526080810186905284151560a082015283151560c082015260e08101839052610100808201839052610120604083018181528a54600260018216159094026000190116929092049083018190526101408301908a9080156102165780601f106101eb57610100808354040283529160200191610216565b820191906000526020600020905b8154815290600101906020018083116101f957829003601f168201915b50509a505050505050505050505060405180910390f35b341561023857600080fd5b61024c600160a060020a0360043516610653565b604051600160a060020a03909116815260200160405180910390f35b341561027357600080fd5b610287600160a060020a036004351661066e565b60405190815260200160405180910390f35b34156102a457600080fd5b6102af600435610680565b60405180848152602001838152602001828152602001935050505060405180910390f35b34156102de57600080fd5b610329600480359060446024803590810190830135806020601f820181900481020160405190810160405281815292919060208401838380828437509496506107d995505050505050565b005b341561033657600080fd5b61024c610a40565b341561034957600080fd5b610287600160a060020a0360043516610a4f565b341561036857600080fd5b610287610a61565b341561037b57600080fd5b610392600435600160a060020a0360243516610a67565b604051901515815260200160405180910390f35b34156103b157600080fd5b610329600435600160a060020a0360243516610aaf565b34156103d357600080fd5b610287610d75565b34156103e657600080fd5b610287610fb7565b34156103f957600080fd5b610329600435602435604435610fbd565b341561041557600080fd5b61028761105b565b341561042857600080fd5b61032960048035600160a060020a0390811691602480359260443516919060849060643590810190830135806020601f8201819004810201604051908101604052818152929190602084018383808284375094965061106195505050505050565b341561049457600080fd5b61024c6111ad565b34156104a757600080fd5b6102876111bc565b34156104ba57600080fd5b61028760043560243515156111c2565b34156104d557600080fd5b61028760048035600160a060020a03169060248035919060649060443590810190830135806020601f8201819004810201604051908101604052818152929190602084018383808284378201915050505050509190803590602001908201803590602001908080601f0160208091040260200160405190810160405281815292919060208401838380828437509496506113c795505050505050565b341561057c57600080fd5b610392600480359060248035600160a060020a0316916044359160849060643590810190830135806020601f8201819004810201604051908101604052818152929190602084018383808284375094965061168095505050505050565b34156105e457600080fd5b610287611739565b60028054829081106105fa57fe5b60009182526020909120600a909102018054600182015460038301546004840154600585015460068601546007870154600160a060020a0390961697509395600201949293919260ff8083169361010090930416919089565b600560205260009081526040902054600160a060020a031681565b60066020526000908152604090205481565b600080600080600080600060028881548110151561069a57fe5b90600052602060002090600a02019350600096506000955060009450600092505b60088401548310156107ce57600884018054849081106106d757fe5b6000918252602082206004549101805490945061078c92600160a060020a03928316926370a0823192610100900416906040516020015260405160e060020a63ffffffff8416028152600160a060020a039091166004820152602401602060405180830381600087803b151561074c57600080fd5b6102c65a03f1151561075d57600080fd5b505050604051805184546101009004600160a060020a031660009081526007602052604090205490915061173f565b9050610798858261173f565b825490955060ff16156107b6576107af878261173f565b96506107c3565b6107c0868261173f565b95505b8260010192506106bb565b505050509193909250565b60008060008030600160a060020a031633600160a060020a03161415151561080057600080fd5b600280548790811061080e57fe5b90600052602060002090600a02019350836004015442101580156108375750600584015460ff16155b80156108dc575083546001850154600160a060020a0390911690866040516c01000000000000000000000000600160a060020a038516028152601481018390526034810182805190602001908083835b602083106108a65780518252601f199092019160209182019101610887565b6001836020036101000a038019825116818451161790925250505091909101945060409350505050519081900390206007850154145b15156108e757600080fd5b6108f086610680565b925092509250600054811015151561090757600080fd5b60058401805460ff19166001179055818311156109c35760058401805461ff00191661010017905583546001850154600160a060020a03909116908660405180828051906020019080838360005b8381101561096d578082015183820152602001610955565b50505050905090810190601f16801561099a5780820380516001836020036101000a031916815260200191505b5091505060006040518083038185876187965a03f19250505015156109be57600080fd5b6109d1565b60058401805461ff00191690555b7f748f0810c68633063bb13f3c71e10cd1889925b3721d6e567114d0632574a396868484848860050160019054906101000a900460ff1660405194855260208501939093526040808501929092526060840152901515608083015260a0909101905180910390a1505050505050565b600454600160a060020a031681565b60076020526000908152604090205481565b60035481565b600080600284815481101515610a7957fe5b60009182526020808320600160a060020a03969096168352600a919091029094016009019093525050604090205460ff16919050565b600454600090600160a060020a03166370a0823133836040516020015260405160e060020a63ffffffff8416028152600160a060020a039091166004820152602401602060405180830381600087803b1515610b0a57600080fd5b6102c65a03f11515610b1b57600080fd5b50505060405180519050111515610b3157600080fd5b600160a060020a033381166000908152600560205260409020541615610b5657600080fd5b30600160a060020a031633600160a060020a031614151515610b7757600080fd5b600160a060020a0333811660009081526006602090815260408083208690559284168252600790522054610bab908361173f565b600160a060020a038216600090815260076020526040902055600854610bd1908361173f565b60085533600160a060020a03818116600090815260056020526040808220805473ffffffffffffffffffffffffffffffffffffffff1916868516179055600454600a54908416946323b872dd949093911691879190516020015260405160e060020a63ffffffff8616028152600160a060020a0393841660048201529190921660248201526044810191909152606401602060405180830381600087803b1515610c7a57600080fd5b6102c65a03f11515610c8b57600080fd5b505050604051805190501515610ca057600080fd5b600854600454600a54600160a060020a03918216916370a08231911660006040516020015260405160e060020a63ffffffff8416028152600160a060020a039091166004820152602401602060405180830381600087803b1515610d0357600080fd5b6102c65a03f11515610d1457600080fd5b50505060405180519050141515610d2a57600080fd5b80600160a060020a031633600160a060020a03167f57593c23286b632d1ba413b24ecae252f34f6b81fdff1022dc7ac0d78cde56b78460405190815260200160405180910390a35050565b600160a060020a0333811660009081526005602052604081205490918291161515610d9f57600080fd5b30600160a060020a031633600160a060020a031614151515610dc057600080fd5b5050600160a060020a03338116600090815260056020908152604080832054600683528184208054908590559416808452600790925290912054610e049083611755565b600160a060020a038216600090815260076020526040902055600854610e2a9083611755565b600855600160a060020a0333818116600090815260056020526040808220805473ffffffffffffffffffffffffffffffffffffffff19169055600a549093169263a9059cbb92918691516020015260405160e060020a63ffffffff8516028152600160a060020a0390921660048301526024820152604401602060405180830381600087803b1515610ebb57600080fd5b6102c65a03f11515610ecc57600080fd5b505050604051805190501515610ee157600080fd5b600854600454600a54600160a060020a03918216916370a08231911660006040516020015260405160e060020a63ffffffff8416028152600160a060020a039091166004820152602401602060405180830381600087803b1515610f4457600080fd5b6102c65a03f11515610f5557600080fd5b50505060405180519050141515610f6b57600080fd5b80600160a060020a031633600160a060020a03167fccc924ef18d5fcabbf624302b6a02f9014c9b3371994eacc0cec2c107f2503e48460405190815260200160405180910390a35b5090565b60015481565b30600160a060020a031633600160a060020a0316141515610fdd57600080fd5b821515610fe957600192505b6000839055600182905560098190556004547f68259880819f96f54b67d672fefc666565de06099c91b57a689a42073ba090c99084908490600160a060020a03166040519283526020830191909152600160a060020a03166040808301919091526060909101905180910390a1505050565b60005481565b81600160a060020a0381166323b872dd86308760006040516020015260405160e060020a63ffffffff8616028152600160a060020a0393841660048201529190921660248201526044810191909152606401602060405180830381600087803b15156110cc57600080fd5b6102c65a03f115156110dd57600080fd5b5050506040518051905015156110f257600080fd5b82600160a060020a031685600160a060020a03167fd65b48fd35864b3528d38e44760be5553248f89bf3ff6b06cca57817cc2650bf868560405182815260406020820181815290820183818151815260200191508051906020019080838360005b8381101561116b578082015183820152602001611153565b50505050905090810190601f1680156111985780820380516001836020036101000a031916815260200191505b50935050505060405180910390a35050505050565b600a54600160a060020a031681565b60095481565b60045460009081908190600160a060020a03166370a0823133836040516020015260405160e060020a63ffffffff8416028152600160a060020a039091166004820152602401602060405180830381600087803b151561122157600080fd5b6102c65a03f1151561123257600080fd5b5050506040518051905011151561124857600080fd5b30600160a060020a031633600160a060020a03161415151561126957600080fd5b600280548590811061127757fe5b60009182526020808320600160a060020a03331684526009600a90930201918201905260409091205490915060ff161515600114156112b557600080fd5b600881018054906112c99060018301611767565b9150604080519081016040528315158152600160a060020a0333166020820152600882018054849081106112f957fe5b60009182526020909120018151815460ff19169015151781556020820151815474ffffffffffffffffffffffffffffffffffffffff001916610100600160a060020a03928316021790915533908116600090815260098401602052604090819020805460ff19166001908117909155850160068501557f86abfce99b7dd908bec0169288797f85049ec73cbe046ed9de818fab3a497ae0925086918691519283529015156020830152600160a060020a03166040808301919091526060909101905180910390a15092915050565b6009546004546000918291600160a060020a03166370a0823133846040516020015260405160e060020a63ffffffff8416028152600160a060020a039091166004820152602401602060405180830381600087803b151561142757600080fd5b6102c65a03f1151561143857600080fd5b505050604051805190501015151561144f57600080fd5b30600160a060020a031633600160a060020a03161415151561147057600080fd5b600a54600160a060020a038781169116141561148b57600080fd5b600280549061149d9060018301611790565b91506002828154811015156114ae57fe5b60009182526020909120600a90910201805473ffffffffffffffffffffffffffffffffffffffff1916600160a060020a038816178155600181018690559050600281018480516115029291602001906117bc565b508585846040516c01000000000000000000000000600160a060020a038516028152601481018390526034810182805190602001908083835b6020831061155a5780518252601f19909201916020918201910161153b565b6001836020036101000a0380198251168184511617909252505050919091019450604093505050505190819003902060078201554260038201819055600154603c0201600482015560058101805461ffff19169055600060068201557f06d6b095e85f5218421975622a7aee84a98b32aa7d174b90088357014003b43382878787604051848152600160a060020a03841660208201526040810183905260806060820181815290820183818151815260200191508051906020019080838360005b8381101561163357808201518382015260200161161b565b50505050905090810190601f1680156116605780820380516001836020036101000a031916815260200191505b509550505050505060405180910390a16001820160035550949350505050565b60008060028681548110151561169257fe5b90600052602060002090600a020190508484846040516c01000000000000000000000000600160a060020a038516028152601481018390526034810182805190602001908083835b602083106116f95780518252601f1990920191602091820191016116da565b6001836020036101000a03801982511681845116179092525050509190910194506040935050505051908190039020600782015414915050949350505050565b60085481565b60008282018381101561174e57fe5b9392505050565b60008282111561176157fe5b50900390565b81548183558181151161178b5760008381526020902061178b918101908301611836565b505050565b81548183558181151161178b57600a0281600a02836000526020600020918201910161178b919061186b565b828054600181600116156101000203166002900490600052602060002090601f016020900481019282601f106117fd57805160ff191683800117855561182a565b8280016001018555821561182a579182015b8281111561182a57825182559160200191906001019061180f565b50610fb39291506118ec565b61186891905b80821115610fb357805474ffffffffffffffffffffffffffffffffffffffffff1916815560010161183c565b90565b61186891905b80821115610fb357805473ffffffffffffffffffffffffffffffffffffffff191681556000600182018190556118aa6002830182611906565b6000600383018190556004830181905560058301805461ffff1916905560068301819055600783018190556118e390600884019061194d565b50600a01611871565b61186891905b80821115610fb357600081556001016118f2565b50805460018160011615610100020316600290046000825580601f1061192c575061194a565b601f01602090049060005260206000209081019061194a91906118ec565b50565b508054600082559060005260206000209081019061194a91906118365600a165627a7a7230582038311d74f817f7cf21a85b33e50e6c1d20377cf852c4e8a98fa154ed6a392c5f0029",
  "source": "/*\n\n  Delegated self-upgrading shareholders association.\n\n  Originally based on the Shareholder Association example from https://ethereum.org/dao.\n  \n  Modified to support vote delegation, self-ownership, and board members - modifications in detail:\n\n    Delegation\n\n      Motivation\n      \n        A basic shareholder association only allows shareholders to vote directly. This poses a usability limitation and an attack risk. Small shareholders are unlikely to invest time evaluating and voting on proposals,\n        especially if proposals are frequent, so an active shareholder association with many small shareholders would need a low quorum threshold - thus rendering it easier for a malicious party to buy enough shares to\n        pass a proposal in their exclusive interest (for example, that sends all the DAO's assets to their account) before enough shareholders are paying attention. Vote delegation - allowing shareholders to choose someone\n        else to vote in their stead - solves this problem, as small shareholders need only choose a trusted delegate once (and check back occaisionally to make sure they still approve of the delegate's votes).\n\n      Implementation \n\n        Any shareholder in the DAO (which is anyone who holds the associated token) can voluntarily delegate any portion of their voting stake to another address.\n        They do so by sending the tokens which they wish to delegate to the DAO, which locks them until the user undelegates their tokens, at which point the DAO returns the tokens to the user.\n        While locked, these tokens count as extra votes for the address to whom the user delegated their tokens.\n        Tokens can be unlocked at any time, and once unlocked no longer count as delegated votes.\n        Notably, this allows delegating shareholders to *withdraw* their support for a proposal under consideration before the execution deadline even if their delegate had originally voted in favor of the proposal.\n\n      Notes\n\n        Delegated votes are counted when a proposal is finalized and executed (or not) - there's no way to move tokens around to create more votes than tokens and/or cause any tokens to count twice.\n        The DAO is prevented from spending these locked tokens in the executeProposal function, so users who lock tokens are guaranteed the ability to withdraw them whenever they choose (no reserve banking).\n\n    Self-Ownership\n\n      Only the DAO itself can change its own voting rules (not an owning address). \n      This poses the small risk that a large amount of shareholders not voting could cause the DAO never to be able to reach quorum (and thus change the required quorum),\n        but given the strong incentives for shareholders to avoid that (since a dysfunctional DAO would render their shares less valuable) and the expected liquidity of share tokens,\n        this seems unlikely.\n\n    Board Members\n\n      A modicum of shares is required to create proposals to prevent proposal spam by shareholders only holding a tiny amount of tokens.\n      This threshold can be adjusted by the DAO over time, so it shouldn't pose a capital barrier to proposal ideas.\n\n*/\n\npragma solidity 0.4.18;\n\nimport \"zeppelin-solidity/contracts/token/ERC20.sol\";\nimport \"zeppelin-solidity/contracts/math/SafeMath.sol\";\nimport \"../common/TokenRecipient.sol\";\nimport \"../common/TokenLocker.sol\";\n\n/**\n * @title DelegatedShareholderAssociation\n * @author Project Wyvern Developers\n */\ncontract DelegatedShareholderAssociation is TokenRecipient {\n\n    uint public minimumQuorum;\n    uint public debatingPeriodInMinutes;\n    Proposal[] public proposals;\n    uint public numProposals;\n    ERC20 public sharesTokenAddress;\n\n    /* Delegate addresses by delegator. */\n    mapping (address => address) public delegatesByDelegator;\n\n    /* Locked tokens by delegator. */\n    mapping (address => uint) public lockedDelegatingTokens;\n\n    /* Delegated votes by delegate. */\n    mapping (address => uint) public delegatedAmountsByDelegate;\n    \n    /* Tokens currently locked by vote delegation. */\n    uint public totalLockedTokens;\n\n    /* Threshold for the ability to create proposals. */\n    uint public requiredSharesToBeBoardMember;\n\n    /* Token Locker contract. */\n    TokenLocker public tokenLocker;\n\n    /* Events for all state changes. */\n\n    event ProposalAdded(uint proposalID, address recipient, uint amount, bytes metadataHash);\n    event Voted(uint proposalID, bool position, address voter);\n    event ProposalTallied(uint proposalID, uint yea, uint nay, uint quorum, bool active);\n    event ChangeOfRules(uint newMinimumQuorum, uint newDebatingPeriodInMinutes, address newSharesTokenAddress);\n    event TokensDelegated(address indexed delegator, uint numberOfTokens, address indexed delegate);\n    event TokensUndelegated(address indexed delegator, uint numberOfTokens, address indexed delegate);\n\n    struct Proposal {\n        address recipient;\n        uint amount;\n        bytes metadataHash;\n        uint timeCreated;\n        uint votingDeadline;\n        bool finalized;\n        bool proposalPassed;\n        uint numberOfVotes;\n        bytes32 proposalHash;\n        Vote[] votes;\n        mapping (address => bool) voted;\n    }\n\n    struct Vote {\n        bool inSupport;\n        address voter;\n    }\n\n    /* Only shareholders can execute a function with this modifier. */\n    modifier onlyShareholders {\n        require(ERC20(sharesTokenAddress).balanceOf(msg.sender) > 0);\n        _;\n    }\n\n    /* Only the DAO itself (via an approved proposal) can execute a function with this modifier. */\n    modifier onlySelf {\n        require(msg.sender == address(this));\n        _;\n    }\n\n    /* Any account except the DAO itself can execute a function with this modifier. */\n    modifier notSelf {\n        require(msg.sender != address(this));\n        _;\n    }\n\n    /* Only a shareholder who has *not* delegated his vote can execute a function with this modifier. */\n    modifier onlyUndelegated {\n        require(delegatesByDelegator[msg.sender] == address(0));\n        _;\n    }\n\n    /* Only boardmembers (shareholders above a certain threshold) can execute a function with this modifier. */\n    modifier onlyBoardMembers {\n        require(ERC20(sharesTokenAddress).balanceOf(msg.sender) >= requiredSharesToBeBoardMember);\n        _;\n    }\n\n    /* Only a shareholder who has delegated his vote can execute a function with this modifier. */\n    modifier onlyDelegated {\n        require(delegatesByDelegator[msg.sender] != address(0));\n        _;\n    }\n\n    /**\n      * Delegate an amount of tokens\n      * \n      * @notice Set the delegate address for a specified number of tokens belonging to the sending address, locking the tokens.\n      * @dev An address holding tokens (shares) may only delegate some portion of their vote to one delegate at any one time\n      * @param tokensToLock number of tokens to be locked (sending address must have at least this many tokens)\n      * @param delegate the address to which votes equal to the number of tokens locked will be delegated\n      */\n    function setDelegateAndLockTokens(uint tokensToLock, address delegate)\n        public\n        onlyShareholders\n        onlyUndelegated\n        notSelf\n    {\n        lockedDelegatingTokens[msg.sender] = tokensToLock;\n        delegatedAmountsByDelegate[delegate] = SafeMath.add(delegatedAmountsByDelegate[delegate], tokensToLock);\n        totalLockedTokens = SafeMath.add(totalLockedTokens, tokensToLock);\n        delegatesByDelegator[msg.sender] = delegate;\n        require(sharesTokenAddress.transferFrom(msg.sender, tokenLocker, tokensToLock));\n        require(sharesTokenAddress.balanceOf(tokenLocker) == totalLockedTokens);\n        TokensDelegated(msg.sender, tokensToLock, delegate);\n    }\n\n    /** \n     * Undelegate all delegated tokens\n     * \n     * @notice Clear the delegate address for all tokens delegated by the sending address, unlocking the locked tokens.\n     * @dev Can only be called by a sending address currently delegating tokens, will transfer all locked tokens back to the sender\n     * @return The number of tokens previously locked, now released\n     */\n    function clearDelegateAndUnlockTokens()\n        public\n        onlyDelegated\n        notSelf\n        returns (uint lockedTokens)\n    {\n        address delegate = delegatesByDelegator[msg.sender];\n        lockedTokens = lockedDelegatingTokens[msg.sender];\n        lockedDelegatingTokens[msg.sender] = 0;\n        delegatedAmountsByDelegate[delegate] = SafeMath.sub(delegatedAmountsByDelegate[delegate], lockedTokens);\n        totalLockedTokens = SafeMath.sub(totalLockedTokens, lockedTokens);\n        delete delegatesByDelegator[msg.sender];\n        require(tokenLocker.transfer(msg.sender, lockedTokens));\n        require(sharesTokenAddress.balanceOf(tokenLocker) == totalLockedTokens);\n        TokensUndelegated(msg.sender, lockedTokens, delegate);\n        return lockedTokens;\n    }\n\n    /**\n     * Change voting rules\n     *\n     * Make so that proposals need tobe discussed for at least `minutesForDebate/60` hours\n     * and all voters combined must own more than `minimumSharesToPassAVote` shares of token `sharesAddress` to be executed\n     * and a shareholder needs `sharesToBeBoardMember` shares to create a transaction proposal\n     *\n     * @param minimumSharesToPassAVote proposal can vote only if the sum of shares held by all voters exceed this number\n     * @param minutesForDebate the minimum amount of delay between when a proposal is made and when it can be executed\n     * @param sharesToBeBoardMember the minimum number of shares required to create proposals\n     */\n    function changeVotingRules(uint minimumSharesToPassAVote, uint minutesForDebate, uint sharesToBeBoardMember)\n        public\n        onlySelf\n    {\n        if (minimumSharesToPassAVote == 0 ) {\n            minimumSharesToPassAVote = 1;\n        }\n        minimumQuorum = minimumSharesToPassAVote;\n        debatingPeriodInMinutes = minutesForDebate;\n        requiredSharesToBeBoardMember = sharesToBeBoardMember;\n        ChangeOfRules(minimumQuorum, debatingPeriodInMinutes, sharesTokenAddress);\n    }\n\n    /**\n     * Add Proposal\n     *\n     * Propose to send `weiAmount / 1e18` ether to `beneficiary` for `jobMetadataHash`. `transactionBytecode ? Contains : Does not contain` code.\n     *\n     * @dev Submit proposal for the DAO to execute a particular transaction. Submitter should check that the `beneficiary` account exists, unless the intent is to burn Ether.\n     * @param beneficiary who to send the ether to\n     * @param weiAmount amount of ether to send, in wei\n     * @param jobMetadataHash Hash of job metadata (IPFS)\n     * @param transactionBytecode bytecode of transaction\n     */\n    function newProposal(\n        address beneficiary,\n        uint weiAmount,\n        bytes jobMetadataHash,\n        bytes transactionBytecode\n    )\n        public\n        onlyBoardMembers\n        notSelf\n        returns (uint proposalID)\n    {\n        /* Proposals cannot be directed to the token locking contract. */\n        require(beneficiary != address(tokenLocker));\n        proposalID = proposals.length++;\n        Proposal storage p = proposals[proposalID];\n        p.recipient = beneficiary;\n        p.amount = weiAmount;\n        p.metadataHash = jobMetadataHash;\n        p.proposalHash = keccak256(beneficiary, weiAmount, transactionBytecode);\n        p.timeCreated = now;\n        p.votingDeadline = now + debatingPeriodInMinutes * 1 minutes;\n        p.finalized = false;\n        p.proposalPassed = false;\n        p.numberOfVotes = 0;\n        ProposalAdded(proposalID, beneficiary, weiAmount, jobMetadataHash);\n        numProposals = proposalID+1;\n        return proposalID;\n    }\n\n    /**\n     * Check if a proposal code matches\n     *\n     * @param proposalNumber ID number of the proposal to query\n     * @param beneficiary who to send the ether to\n     * @param weiAmount amount of ether to send\n     * @param transactionBytecode bytecode of transaction\n     */\n    function checkProposalCode(\n        uint proposalNumber,\n        address beneficiary,\n        uint weiAmount,\n        bytes transactionBytecode\n    )\n        public\n        view\n        returns (bool codeChecksOut)\n    {\n        Proposal storage p = proposals[proposalNumber];\n        return p.proposalHash == keccak256(beneficiary, weiAmount, transactionBytecode);\n    }\n\n    /**\n     * Log a vote for a proposal\n     *\n     * Vote `supportsProposal? in support of : against` proposal #`proposalNumber`\n     *\n     * @dev Vote in favor or against an existing proposal. Voter should check that the proposal destination account exists, unless the intent is to burn Ether.\n     * @param proposalNumber number of proposal\n     * @param supportsProposal either in favor or against it\n     */\n    function vote(\n        uint proposalNumber,\n        bool supportsProposal\n    )\n        public\n        onlyShareholders\n        notSelf\n        returns (uint voteID)\n    {\n        Proposal storage p = proposals[proposalNumber];\n        require(p.voted[msg.sender] != true);\n        voteID = p.votes.length++;\n        p.votes[voteID] = Vote({inSupport: supportsProposal, voter: msg.sender});\n        p.voted[msg.sender] = true;\n        p.numberOfVotes = voteID + 1;\n        Voted(proposalNumber, supportsProposal, msg.sender);\n        return voteID;\n    }\n\n    /**\n     * Return whether a particular shareholder has voted on a particular proposal (convenience function)\n     * @param proposalNumber proposal number\n     * @param shareholder address to query\n     * @return whether or not the specified address has cast a vote on the specified proposal\n     */\n    function hasVoted(uint proposalNumber, address shareholder) public view returns (bool) {\n        Proposal storage p = proposals[proposalNumber];\n        return p.voted[shareholder];\n    }\n\n    /**\n     * Count the votes, including delegated votes, in support of, against, and in total for a particular proposal\n     * @param proposalNumber proposal number\n     * @return yea votes, nay votes, quorum (total votes)\n     */\n    function countVotes(uint proposalNumber) public view returns (uint yea, uint nay, uint quorum) {\n        Proposal storage p = proposals[proposalNumber];\n        yea = 0;\n        nay = 0;\n        quorum = 0;\n        for (uint i = 0; i < p.votes.length; ++i) {\n            Vote storage v = p.votes[i];\n            uint voteWeight = SafeMath.add(sharesTokenAddress.balanceOf(v.voter), delegatedAmountsByDelegate[v.voter]);\n            quorum = SafeMath.add(quorum, voteWeight);\n            if (v.inSupport) {\n                yea = SafeMath.add(yea, voteWeight);\n            } else {\n                nay = SafeMath.add(nay, voteWeight);\n            }\n        }\n    }\n\n    /**\n     * Finish vote\n     *\n     * Count the votes proposal #`proposalNumber` and execute it if approved\n     *\n     * @param proposalNumber proposal number\n     * @param transactionBytecode optional: if the transaction contained a bytecode, you need to send it\n     */\n    function executeProposal(uint proposalNumber, bytes transactionBytecode)\n        public\n        notSelf\n    {\n        Proposal storage p = proposals[proposalNumber];\n\n        /* If at or past deadline, not already finalized, and code is correct, keep going. */\n        require((now >= p.votingDeadline) && !p.finalized && p.proposalHash == keccak256(p.recipient, p.amount, transactionBytecode));\n\n        /* Count the votes. */\n        var ( yea, nay, quorum ) = countVotes(proposalNumber);\n\n        /* Assert that a minimum quorum has been reached. */\n        require(quorum >= minimumQuorum);\n        \n        /* Mark proposal as finalized. */   \n        p.finalized = true;\n\n        if (yea > nay) {\n            /* Mark proposal as passed. */\n            p.proposalPassed = true;\n\n            /* Execute the function. */\n            require(p.recipient.call.value(p.amount)(transactionBytecode));\n\n        } else {\n            /* Proposal failed. */\n            p.proposalPassed = false;\n        }\n\n        /* Log event. */\n        ProposalTallied(proposalNumber, yea, nay, quorum, p.proposalPassed);\n    }\n}\n",
  "sourcePath": "/home/cwgoes/working/crypto/wyvern/wyvern-ethereum/contracts/dao/DelegatedShareholderAssociation.sol",
  "compiler": {
    "name": "solc",
    "version": "0.4.18+commit.9cf6e910.Emscripten.clang"
  },
  "schemaVersion": "1.0.1",
  "updatedAt": "2018-01-07T20:03:38.532Z"
}