{
  "contractName": "DirectEscrowProvider",
  "abi": [
    {
      "constant": true,
      "inputs": [
        {
          "name": "",
          "type": "bytes32"
        }
      ],
      "name": "requestRelease",
      "outputs": [
        {
          "name": "",
          "type": "bool"
        }
      ],
      "payable": false,
      "stateMutability": "pure",
      "type": "function"
    },
    {
      "constant": false,
      "inputs": [
        {
          "name": "",
          "type": "bytes32"
        },
        {
          "name": "",
          "type": "address"
        },
        {
          "name": "seller",
          "type": "address"
        },
        {
          "name": "token",
          "type": "address"
        },
        {
          "name": "price",
          "type": "uint256"
        }
      ],
      "name": "holdInEscrow",
      "outputs": [
        {
          "name": "",
          "type": "bool"
        }
      ],
      "payable": false,
      "stateMutability": "nonpayable",
      "type": "function"
    },
    {
      "constant": true,
      "inputs": [
        {
          "name": "",
          "type": "bytes32"
        }
      ],
      "name": "releaseEscrow",
      "outputs": [
        {
          "name": "",
          "type": "bool"
        }
      ],
      "payable": false,
      "stateMutability": "pure",
      "type": "function"
    },
    {
      "constant": true,
      "inputs": [
        {
          "name": "",
          "type": "bytes32"
        }
      ],
      "name": "disputeEscrow",
      "outputs": [
        {
          "name": "",
          "type": "bool"
        }
      ],
      "payable": false,
      "stateMutability": "pure",
      "type": "function"
    },
    {
      "inputs": [],
      "payable": false,
      "stateMutability": "nonpayable",
      "type": "constructor"
    }
  ],
  "bytecode": "0x6060604052341561000f57600080fd5b6102308061001e6000396000f3006060604052600436106100475763ffffffff60e060020a6000350416625dd204811461004c578063b472704f14610076578063bf89fc611461004c578063cfd245221461004c575b600080fd5b341561005757600080fd5b6100626004356100b4565b604051901515815260200160405180910390f35b341561008157600080fd5b61006260043573ffffffffffffffffffffffffffffffffffffffff602435811690604435811690606435166084356100ba565b50600090565b60008273ffffffffffffffffffffffffffffffffffffffff166323b872dd33308560006040516020015260405160e060020a63ffffffff861602815273ffffffffffffffffffffffffffffffffffffffff93841660048201529190921660248201526044810191909152606401602060405180830381600087803b151561014057600080fd5b6102c65a03f1151561015157600080fd5b50505060405180519050151561016657600080fd5b8273ffffffffffffffffffffffffffffffffffffffff1663a9059cbb858460006040516020015260405160e060020a63ffffffff851602815273ffffffffffffffffffffffffffffffffffffffff90921660048301526024820152604401602060405180830381600087803b15156101dd57600080fd5b6102c65a03f115156101ee57600080fd5b50505060405180515060019796505050505050505600a165627a7a72305820c8f0d600a2211b82379b53b504fa2426a72ef293dee50aebe5d6fbe593a5d4430029",
  "source": "pragma solidity 0.4.18;\n\nimport \"zeppelin-solidity/contracts/token/ERC20.sol\";\n\nimport \"./EscrowProvider.sol\";\n\n/**\n * @title DirectEscrowProvider\n * @author Project Wyvern Developers\n */\ncontract DirectEscrowProvider {\n  \n    function DirectEscrowProvider () public {\n    }\n\n    function holdInEscrow(bytes32, address, address seller, ERC20 token, uint price) public returns (bool) {\n        require(token.transferFrom(msg.sender, this, price));\n        token.transfer(seller, price);\n        return true;\n    }\n\n    function requestRelease(bytes32) pure public returns (bool) {\n        return false;\n    }    \n\n    function releaseEscrow(bytes32) pure public returns (bool) {\n        return false;\n    }\n\n    function disputeEscrow(bytes32) pure public returns (bool) {\n        return false;\n    }\n\n}\n",
  "sourcePath": "/home/cwgoes/working/crypto/wyvern/wyvern-ethereum/contracts/escrow/DirectEscrowProvider.sol",
  "compiler": {
    "name": "solc",
    "version": "0.4.18+commit.9cf6e910.Emscripten.clang"
  },
  "schemaVersion": "1.0.1",
  "updatedAt": "2018-01-01T20:54:08.739Z"
}