{
  "contractName": "Exchange",
  "abi": [
    {
      "constant": true,
      "inputs": [],
      "name": "exchangeTokenAddress",
      "outputs": [
        {
          "name": "",
          "type": "address"
        }
      ],
      "payable": false,
      "stateMutability": "view",
      "type": "function"
    },
    {
      "constant": false,
      "inputs": [
        {
          "name": "user",
          "type": "address"
        },
        {
          "name": "token",
          "type": "address"
        },
        {
          "name": "amount",
          "type": "uint256"
        },
        {
          "name": "dest",
          "type": "address"
        }
      ],
      "name": "withdraw",
      "outputs": [],
      "payable": false,
      "stateMutability": "nonpayable",
      "type": "function"
    },
    {
      "constant": true,
      "inputs": [
        {
          "name": "array",
          "type": "bytes"
        },
        {
          "name": "desired",
          "type": "bytes"
        },
        {
          "name": "mask",
          "type": "bytes"
        }
      ],
      "name": "guardedArrayReplace",
      "outputs": [
        {
          "name": "",
          "type": "bytes"
        }
      ],
      "payable": false,
      "stateMutability": "pure",
      "type": "function"
    },
    {
      "constant": true,
      "inputs": [
        {
          "name": "addrs",
          "type": "address[6]"
        },
        {
          "name": "uints",
          "type": "uint256[7]"
        },
        {
          "name": "side",
          "type": "uint8"
        },
        {
          "name": "saleKind",
          "type": "uint8"
        },
        {
          "name": "howToCall",
          "type": "uint8"
        },
        {
          "name": "calldata",
          "type": "bytes"
        },
        {
          "name": "replacementPattern",
          "type": "bytes"
        },
        {
          "name": "metadataHash",
          "type": "bytes"
        },
        {
          "name": "v",
          "type": "uint8"
        },
        {
          "name": "r",
          "type": "bytes32"
        },
        {
          "name": "s",
          "type": "bytes32"
        }
      ],
      "name": "validateOrder_",
      "outputs": [
        {
          "name": "",
          "type": "bool"
        }
      ],
      "payable": false,
      "stateMutability": "view",
      "type": "function"
    },
    {
      "constant": false,
      "inputs": [
        {
          "name": "addrs",
          "type": "address[12]"
        },
        {
          "name": "uints",
          "type": "uint256[14]"
        },
        {
          "name": "sidesKindsHowToCalls",
          "type": "uint8[6]"
        },
        {
          "name": "calldataBuy",
          "type": "bytes"
        },
        {
          "name": "calldataSell",
          "type": "bytes"
        },
        {
          "name": "replacementPatternBuy",
          "type": "bytes"
        },
        {
          "name": "replacementPatternSell",
          "type": "bytes"
        },
        {
          "name": "metadataHashBuy",
          "type": "bytes"
        },
        {
          "name": "metadataHashSell",
          "type": "bytes"
        },
        {
          "name": "vs",
          "type": "uint8[2]"
        },
        {
          "name": "rss",
          "type": "bytes32[4]"
        }
      ],
      "name": "atomicMatch_",
      "outputs": [],
      "payable": false,
      "stateMutability": "nonpayable",
      "type": "function"
    },
    {
      "constant": true,
      "inputs": [
        {
          "name": "user",
          "type": "address"
        },
        {
          "name": "token",
          "type": "address"
        }
      ],
      "name": "lockedFor",
      "outputs": [
        {
          "name": "",
          "type": "uint256"
        }
      ],
      "payable": false,
      "stateMutability": "view",
      "type": "function"
    },
    {
      "constant": true,
      "inputs": [
        {
          "name": "",
          "type": "bytes32"
        }
      ],
      "name": "topBids",
      "outputs": [
        {
          "name": "bidder",
          "type": "address"
        },
        {
          "name": "amount",
          "type": "uint256"
        }
      ],
      "payable": false,
      "stateMutability": "view",
      "type": "function"
    },
    {
      "constant": true,
      "inputs": [
        {
          "name": "buyCalldata",
          "type": "bytes"
        },
        {
          "name": "buyReplacementPattern",
          "type": "bytes"
        },
        {
          "name": "sellCalldata",
          "type": "bytes"
        },
        {
          "name": "sellReplacementPattern",
          "type": "bytes"
        }
      ],
      "name": "orderCalldataCanMatch",
      "outputs": [
        {
          "name": "",
          "type": "bool"
        }
      ],
      "payable": false,
      "stateMutability": "pure",
      "type": "function"
    },
    {
      "constant": false,
      "inputs": [
        {
          "name": "addrs",
          "type": "address[6]"
        },
        {
          "name": "uints",
          "type": "uint256[7]"
        },
        {
          "name": "side",
          "type": "uint8"
        },
        {
          "name": "saleKind",
          "type": "uint8"
        },
        {
          "name": "howToCall",
          "type": "uint8"
        },
        {
          "name": "calldata",
          "type": "bytes"
        },
        {
          "name": "replacementPattern",
          "type": "bytes"
        },
        {
          "name": "metadataHash",
          "type": "bytes"
        },
        {
          "name": "v",
          "type": "uint8"
        },
        {
          "name": "r",
          "type": "bytes32"
        },
        {
          "name": "s",
          "type": "bytes32"
        },
        {
          "name": "amount",
          "type": "uint256"
        }
      ],
      "name": "bid_",
      "outputs": [],
      "payable": false,
      "stateMutability": "nonpayable",
      "type": "function"
    },
    {
      "constant": true,
      "inputs": [],
      "name": "registry",
      "outputs": [
        {
          "name": "",
          "type": "address"
        }
      ],
      "payable": false,
      "stateMutability": "view",
      "type": "function"
    },
    {
      "constant": false,
      "inputs": [
        {
          "name": "user",
          "type": "address"
        },
        {
          "name": "token",
          "type": "address"
        },
        {
          "name": "amount",
          "type": "uint256"
        }
      ],
      "name": "deposit",
      "outputs": [],
      "payable": false,
      "stateMutability": "nonpayable",
      "type": "function"
    },
    {
      "constant": true,
      "inputs": [
        {
          "name": "addrs",
          "type": "address[12]"
        },
        {
          "name": "uints",
          "type": "uint256[14]"
        },
        {
          "name": "sidesKindsHowToCalls",
          "type": "uint8[6]"
        },
        {
          "name": "calldataBuy",
          "type": "bytes"
        },
        {
          "name": "calldataSell",
          "type": "bytes"
        },
        {
          "name": "replacementPatternBuy",
          "type": "bytes"
        },
        {
          "name": "replacementPatternSell",
          "type": "bytes"
        },
        {
          "name": "metadataHashBuy",
          "type": "bytes"
        },
        {
          "name": "metadataHashSell",
          "type": "bytes"
        }
      ],
      "name": "ordersCanMatch_",
      "outputs": [
        {
          "name": "",
          "type": "bool"
        }
      ],
      "payable": false,
      "stateMutability": "pure",
      "type": "function"
    },
    {
      "constant": true,
      "inputs": [
        {
          "name": "",
          "type": "address"
        },
        {
          "name": "",
          "type": "address"
        }
      ],
      "name": "balances",
      "outputs": [
        {
          "name": "",
          "type": "uint256"
        }
      ],
      "payable": false,
      "stateMutability": "view",
      "type": "function"
    },
    {
      "constant": false,
      "inputs": [
        {
          "name": "addrs",
          "type": "address[6]"
        },
        {
          "name": "uints",
          "type": "uint256[7]"
        },
        {
          "name": "side",
          "type": "uint8"
        },
        {
          "name": "saleKind",
          "type": "uint8"
        },
        {
          "name": "howToCall",
          "type": "uint8"
        },
        {
          "name": "calldata",
          "type": "bytes"
        },
        {
          "name": "replacementPattern",
          "type": "bytes"
        },
        {
          "name": "metadataHash",
          "type": "bytes"
        },
        {
          "name": "orderbookInclusionDesired",
          "type": "bool"
        }
      ],
      "name": "approveOrder_",
      "outputs": [],
      "payable": false,
      "stateMutability": "nonpayable",
      "type": "function"
    },
    {
      "constant": true,
      "inputs": [
        {
          "name": "",
          "type": "address"
        },
        {
          "name": "",
          "type": "address"
        }
      ],
      "name": "locked",
      "outputs": [
        {
          "name": "",
          "type": "uint256"
        }
      ],
      "payable": false,
      "stateMutability": "view",
      "type": "function"
    },
    {
      "constant": true,
      "inputs": [
        {
          "name": "user",
          "type": "address"
        },
        {
          "name": "token",
          "type": "address"
        }
      ],
      "name": "availableFor",
      "outputs": [
        {
          "name": "",
          "type": "uint256"
        }
      ],
      "payable": false,
      "stateMutability": "view",
      "type": "function"
    },
    {
      "constant": true,
      "inputs": [
        {
          "name": "addrs",
          "type": "address[6]"
        },
        {
          "name": "uints",
          "type": "uint256[7]"
        },
        {
          "name": "side",
          "type": "uint8"
        },
        {
          "name": "saleKind",
          "type": "uint8"
        },
        {
          "name": "howToCall",
          "type": "uint8"
        },
        {
          "name": "calldata",
          "type": "bytes"
        },
        {
          "name": "replacementPattern",
          "type": "bytes"
        },
        {
          "name": "metadataHash",
          "type": "bytes"
        }
      ],
      "name": "hashOrder_",
      "outputs": [
        {
          "name": "",
          "type": "bytes32"
        }
      ],
      "payable": false,
      "stateMutability": "pure",
      "type": "function"
    },
    {
      "constant": false,
      "inputs": [
        {
          "name": "addrs",
          "type": "address[6]"
        },
        {
          "name": "uints",
          "type": "uint256[7]"
        },
        {
          "name": "side",
          "type": "uint8"
        },
        {
          "name": "saleKind",
          "type": "uint8"
        },
        {
          "name": "howToCall",
          "type": "uint8"
        },
        {
          "name": "calldata",
          "type": "bytes"
        },
        {
          "name": "replacementPattern",
          "type": "bytes"
        },
        {
          "name": "metadataHash",
          "type": "bytes"
        },
        {
          "name": "v",
          "type": "uint8"
        },
        {
          "name": "r",
          "type": "bytes32"
        },
        {
          "name": "s",
          "type": "bytes32"
        }
      ],
      "name": "cancelOrder_",
      "outputs": [],
      "payable": false,
      "stateMutability": "nonpayable",
      "type": "function"
    },
    {
      "constant": true,
      "inputs": [
        {
          "name": "user",
          "type": "address"
        },
        {
          "name": "token",
          "type": "address"
        }
      ],
      "name": "balanceFor",
      "outputs": [
        {
          "name": "",
          "type": "uint256"
        }
      ],
      "payable": false,
      "stateMutability": "view",
      "type": "function"
    },
    {
      "anonymous": false,
      "inputs": [
        {
          "indexed": false,
          "name": "hash",
          "type": "bytes32"
        },
        {
          "indexed": true,
          "name": "approver",
          "type": "address"
        },
        {
          "components": [
            {
              "name": "exchange",
              "type": "address"
            },
            {
              "name": "maker",
              "type": "address"
            },
            {
              "name": "taker",
              "type": "address"
            },
            {
              "name": "makerFee",
              "type": "uint256"
            },
            {
              "name": "takerFee",
              "type": "uint256"
            },
            {
              "name": "feeRecipient",
              "type": "address"
            },
            {
              "name": "side",
              "type": "uint8"
            },
            {
              "name": "saleKind",
              "type": "uint8"
            },
            {
              "name": "target",
              "type": "address"
            },
            {
              "name": "howToCall",
              "type": "uint8"
            },
            {
              "name": "calldata",
              "type": "bytes"
            },
            {
              "name": "replacementPattern",
              "type": "bytes"
            },
            {
              "name": "metadataHash",
              "type": "bytes"
            },
            {
              "name": "paymentToken",
              "type": "address"
            },
            {
              "name": "basePrice",
              "type": "uint256"
            },
            {
              "name": "extra",
              "type": "uint256"
            },
            {
              "name": "listingTime",
              "type": "uint256"
            },
            {
              "name": "expirationTime",
              "type": "uint256"
            },
            {
              "name": "salt",
              "type": "uint256"
            }
          ],
          "indexed": false,
          "name": "order",
          "type": "tuple"
        },
        {
          "indexed": false,
          "name": "orderbookInclusionDesired",
          "type": "bool"
        }
      ],
      "name": "OrderApproved",
      "type": "event"
    },
    {
      "anonymous": false,
      "inputs": [
        {
          "indexed": false,
          "name": "hash",
          "type": "bytes32"
        }
      ],
      "name": "OrderCancelled",
      "type": "event"
    },
    {
      "anonymous": false,
      "inputs": [
        {
          "indexed": false,
          "name": "hash",
          "type": "bytes32"
        },
        {
          "indexed": true,
          "name": "bidder",
          "type": "address"
        },
        {
          "indexed": false,
          "name": "amount",
          "type": "uint256"
        },
        {
          "indexed": false,
          "name": "timestamp",
          "type": "uint256"
        }
      ],
      "name": "OrderBidOn",
      "type": "event"
    },
    {
      "anonymous": false,
      "inputs": [
        {
          "components": [
            {
              "name": "exchange",
              "type": "address"
            },
            {
              "name": "maker",
              "type": "address"
            },
            {
              "name": "taker",
              "type": "address"
            },
            {
              "name": "makerFee",
              "type": "uint256"
            },
            {
              "name": "takerFee",
              "type": "uint256"
            },
            {
              "name": "feeRecipient",
              "type": "address"
            },
            {
              "name": "side",
              "type": "uint8"
            },
            {
              "name": "saleKind",
              "type": "uint8"
            },
            {
              "name": "target",
              "type": "address"
            },
            {
              "name": "howToCall",
              "type": "uint8"
            },
            {
              "name": "calldata",
              "type": "bytes"
            },
            {
              "name": "replacementPattern",
              "type": "bytes"
            },
            {
              "name": "metadataHash",
              "type": "bytes"
            },
            {
              "name": "paymentToken",
              "type": "address"
            },
            {
              "name": "basePrice",
              "type": "uint256"
            },
            {
              "name": "extra",
              "type": "uint256"
            },
            {
              "name": "listingTime",
              "type": "uint256"
            },
            {
              "name": "expirationTime",
              "type": "uint256"
            },
            {
              "name": "salt",
              "type": "uint256"
            }
          ],
          "indexed": false,
          "name": "buy",
          "type": "tuple"
        },
        {
          "components": [
            {
              "name": "exchange",
              "type": "address"
            },
            {
              "name": "maker",
              "type": "address"
            },
            {
              "name": "taker",
              "type": "address"
            },
            {
              "name": "makerFee",
              "type": "uint256"
            },
            {
              "name": "takerFee",
              "type": "uint256"
            },
            {
              "name": "feeRecipient",
              "type": "address"
            },
            {
              "name": "side",
              "type": "uint8"
            },
            {
              "name": "saleKind",
              "type": "uint8"
            },
            {
              "name": "target",
              "type": "address"
            },
            {
              "name": "howToCall",
              "type": "uint8"
            },
            {
              "name": "calldata",
              "type": "bytes"
            },
            {
              "name": "replacementPattern",
              "type": "bytes"
            },
            {
              "name": "metadataHash",
              "type": "bytes"
            },
            {
              "name": "paymentToken",
              "type": "address"
            },
            {
              "name": "basePrice",
              "type": "uint256"
            },
            {
              "name": "extra",
              "type": "uint256"
            },
            {
              "name": "listingTime",
              "type": "uint256"
            },
            {
              "name": "expirationTime",
              "type": "uint256"
            },
            {
              "name": "salt",
              "type": "uint256"
            }
          ],
          "indexed": false,
          "name": "sell",
          "type": "tuple"
        }
      ],
      "name": "OrdersMatched",
      "type": "event"
    },
    {
      "anonymous": false,
      "inputs": [
        {
          "indexed": true,
          "name": "user",
          "type": "address"
        },
        {
          "indexed": true,
          "name": "token",
          "type": "address"
        },
        {
          "indexed": false,
          "name": "amount",
          "type": "uint256"
        }
      ],
      "name": "Credited",
      "type": "event"
    },
    {
      "anonymous": false,
      "inputs": [
        {
          "indexed": true,
          "name": "user",
          "type": "address"
        },
        {
          "indexed": true,
          "name": "token",
          "type": "address"
        },
        {
          "indexed": false,
          "name": "amount",
          "type": "uint256"
        }
      ],
      "name": "Debited",
      "type": "event"
    },
    {
      "anonymous": false,
      "inputs": [
        {
          "indexed": true,
          "name": "user",
          "type": "address"
        },
        {
          "indexed": true,
          "name": "token",
          "type": "address"
        },
        {
          "indexed": false,
          "name": "amount",
          "type": "uint256"
        }
      ],
      "name": "Locked",
      "type": "event"
    },
    {
      "anonymous": false,
      "inputs": [
        {
          "indexed": true,
          "name": "user",
          "type": "address"
        },
        {
          "indexed": true,
          "name": "token",
          "type": "address"
        },
        {
          "indexed": false,
          "name": "amount",
          "type": "uint256"
        }
      ],
      "name": "Unlocked",
      "type": "event"
    }
  ],
  "bytecode": "0x60606040526002805460ff19169055341561001957600080fd5b613773806100286000396000f3006060604052600436106100ed5763ffffffff60e060020a6000350416630e5d2e2181146100f25780630e917f7614610121578063239e83df14610152578063386cc7971461029e5780633c88e9a8146104015780634e10c95d1461066b578063532aa1c8146106a2578063562b2ebc146106da57806370dc7063146107f15780637b103999146109455780638340f5491461095857806390a6365914610980578063c23f001f14610b96578063d404a96c14610bbb578063db20266f14610cfe578063db2ec6bd14610d23578063e22b847814610d48578063e60a95d714610e87578063f771e78b14610fd6575b600080fd5b34156100fd57600080fd5b610105610ffb565b604051600160a060020a03909116815260200160405180910390f35b341561012c57600080fd5b610150600160a060020a03600435811690602435811690604435906064351661100f565b005b341561015d57600080fd5b61022760046024813581810190830135806020601f8201819004810201604051908101604052818152929190602084018383808284378201915050505050509190803590602001908201803590602001908080601f01602080910402602001604051908101604052818152929190602084018383808284378201915050505050509190803590602001908201803590602001908080601f01602080910402602001604051908101604052818152929190602084018383808284375094965061111095505050505050565b60405160208082528190810183818151815260200191508051906020019080838360005b8381101561026357808201518382015260200161024b565b50505050905090810190601f1680156102905780820380516001836020036101000a031916815260200191505b509250505060405180910390f35b34156102a957600080fd5b6103ed600460c481600660c06040519081016040529190828260c080828437820191505050505091908060e001906007806020026040519081016040529190828260e08082843750939560ff8635811696602080820135831697506040808301359093169650929450608081019350606001358401808301929035918291601f83018190048102019051908101604052818152929190602084018383808284378201915050505050509190803590602001908201803590602001908080601f01602080910402602001604051908101604052818152929190602084018383808284378201915050505050509190803590602001908201803590602001908080601f0160208091040260200160405190810160405281815292919060208401838380828437509496505060ff853516946020810135945060400135925061112b915050565b604051901515815260200160405180910390f35b341561040c57600080fd5b610150600461018481600c610180604051908101604052919082826101808082843782019150505050509190806101c00190600e80602002604051908101604052919082826101c080828437820191505050505091908060c001906006806020026040519081016040529190828260c0808284375093959460208082019550903586018082019450359250829150601f8201819004810201604051908101604052818152929190602084018383808284378201915050505050509190803590602001908201803590602001908080601f01602080910402602001604051908101604052818152929190602084018383808284378201915050505050509190803590602001908201803590602001908080601f01602080910402602001604051908101604052818152929190602084018383808284378201915050505050509190803590602001908201803590602001908080601f01602080910402602001604051908101604052818152929190602084018383808284378201915050505050509190803590602001908201803590602001908080601f01602080910402602001604051908101604052818152929190602084018383808284378201915050505050509190803590602001908201803590602001908080601f01602080910402602001604051908101604052818152929190602084018383808284378201915050505050509190806040019060028060200260405190810160405280929190826002602002808284378201915050505050919080608001906004806020026040519081016040529190828260808082843750939550611283945050505050565b341561067657600080fd5b610690600160a060020a0360043581169060243516611581565b60405190815260200160405180910390f35b34156106ad57600080fd5b6106b86004356115ac565b604051600160a060020a03909216825260208201526040908101905180910390f35b34156106e557600080fd5b6103ed60046024813581810190830135806020601f8201819004810201604051908101604052818152929190602084018383808284378201915050505050509190803590602001908201803590602001908080601f01602080910402602001604051908101604052818152929190602084018383808284378201915050505050509190803590602001908201803590602001908080601f01602080910402602001604051908101604052818152929190602084018383808284378201915050505050509190803590602001908201803590602001908080601f0160208091040260200160405190810160405281815292919060208401838380828437509496506115d195505050505050565b34156107fc57600080fd5b610150600460c481600660c06040519081016040529190828260c080828437820191505050505091908060e001906007806020026040519081016040529190828260e08082843750939560ff8635811696602080820135831697506040808301359093169650929450608081019350606001358401808301929035918291601f83018190048102019051908101604052818152929190602084018383808284378201915050505050509190803590602001908201803590602001908080601f01602080910402602001604051908101604052818152929190602084018383808284378201915050505050509190803590602001908201803590602001908080601f0160208091040260200160405190810160405281815292919060208401838380828437509496505050833560ff169360208101359350604081013592506060013590506115fe565b341561095057600080fd5b61010561173e565b341561096357600080fd5b610150600160a060020a036004358116906024351660443561174d565b341561098b57600080fd5b6103ed600461018481600c610180604051908101604052919082826101808082843782019150505050509190806101c00190600e80602002604051908101604052919082826101c080828437820191505050505091908060c001906006806020026040519081016040529190828260c0808284375093959460208082019550903586018082019450359250829150601f8201819004810201604051908101604052818152929190602084018383808284378201915050505050509190803590602001908201803590602001908080601f01602080910402602001604051908101604052818152929190602084018383808284378201915050505050509190803590602001908201803590602001908080601f01602080910402602001604051908101604052818152929190602084018383808284378201915050505050509190803590602001908201803590602001908080601f01602080910402602001604051908101604052818152929190602084018383808284378201915050505050509190803590602001908201803590602001908080601f01602080910402602001604051908101604052818152929190602084018383808284378201915050505050509190803590602001908201803590602001908080601f01602080910402602001604051908101604052818152929190602084018383808284375094965061180d95505050505050565b3415610ba157600080fd5b610690600160a060020a0360043581169060243516611aaf565b3415610bc657600080fd5b610150600460c481600660c06040519081016040529190828260c080828437820191505050505091908060e001906007806020026040519081016040529190828260e08082843750939560ff8635811696602080820135831697506040808301359093169650929450608081019350606001358401808301929035918291601f83018190048102019051908101604052818152929190602084018383808284378201915050505050509190803590602001908201803590602001908080601f01602080910402602001604051908101604052818152929190602084018383808284378201915050505050509190803590602001908201803590602001908080601f016020809104026020016040519081016040528181529291906020840183838082843750949650505050913515159150611ac99050565b3415610d0957600080fd5b610690600160a060020a0360043581169060243516611bf3565b3415610d2e57600080fd5b610690600160a060020a0360043581169060243516611c10565b3415610d5357600080fd5b610690600460c481600660c06040519081016040529190828260c080828437820191505050505091908060e001906007806020026040519081016040529190828260e08082843750939560ff8635811696602080820135831697506040808301359093169650929450608081019350606001358401808301929035918291601f83018190048102019051908101604052818152929190602084018383808284378201915050505050509190803590602001908201803590602001908080601f01602080910402602001604051908101604052818152929190602084018383808284378201915050505050509190803590602001908201803590602001908080601f016020809104026020016040519081016040528181529291906020840183838082843750949650611c5c95505050505050565b3415610e9257600080fd5b610150600460c481600660c06040519081016040529190828260c080828437820191505050505091908060e001906007806020026040519081016040529190828260e08082843750939560ff8635811696602080820135831697506040808301359093169650929450608081019350606001358401808301929035918291601f83018190048102019051908101604052818152929190602084018383808284378201915050505050509190803590602001908201803590602001908080601f01602080910402602001604051908101604052818152929190602084018383808284378201915050505050509190803590602001908201803590602001908080601f0160208091040260200160405190810160405281815292919060208401838380828437509496505060ff8535169460208101359450604001359250611d7d915050565b3415610fe157600080fd5b610690600160a060020a0360043581169060243516611eae565b6002546101009004600160a060020a031681565b600084600160a060020a031633600160a060020a031614151561103157600080fd5b600160a060020a03808616600081815260208181526040808320948916808452948252808320549383526001825280832094835293905291909120546110779190611ed7565b90508083111561108657600080fd5b611091858585611ee9565b83600160a060020a031663a9059cbb838560006040516020015260405160e060020a63ffffffff8516028152600160a060020a0390921660048301526024820152604401602060405180830381600087803b15156110ee57600080fd5b6102c65a03f115156110ff57600080fd5b505050604051805150505050505050565b61111861365b565b61112384848461209c565b949350505050565b600061113561366d565b610260604051908101604052808e51600160a060020a031681526020018e60016020020151600160a060020a0316815260200160408f0151600160a060020a031681526020018d5181526020018d60016020020151815260200160608f0151600160a060020a031681526020018c60018111156111ae57fe5b81526020018b60028111156111bf57fe5b815260200160808f0151600160a060020a031681526020018a60038111156111e357fe5b8152602081018a9052604081018990526060810188905260800160a08f0151600160a060020a0316815260200160408e0151815260200160608e0151815260200160808e0151815260200160a08e0151815260200160c08e01519052905061127261124d826122d2565b826060604051908101604090815260ff8a168252602082018990528101879052612387565b9d9c50505050505050505050505050565b611574610260604051908101604052808d51600160a060020a031681526020018d60016020020151600160a060020a0316815260200160408e0151600160a060020a031681526020018c5181526020018c60016020020151815260200160608e0151600160a060020a031681526020018b5160ff16600181111561130357fe5b600181111561130e57fe5b81526020018b6001602002015160ff16600281111561132957fe5b600281111561133457fe5b815260200160808e0151600160a060020a0316815260200160408c015160ff16600381111561135f57fe5b600381111561136a57fe5b8152602081018b9052604081018990526060810187905260800160a08e0151600160a060020a0316815260200160408d0151815260200160608d0151815260200160808d0151815260200160a08d0151815260200160c08d01519052606060405190810160405280855160ff1681526020018451815260200184600160200201519052610260604051908101604052808f60066020020151600160a060020a031681526020018f60076020020151600160a060020a031681526020018f60086020020151600160a060020a0316815260200160e08f015181526020016101008f015181526020018f60096020020151600160a060020a0316815260200160608e015160ff16600181111561147a57fe5b600181111561148557fe5b815260200160808e015160ff16600281111561149d57fe5b60028111156114a857fe5b81526020018f600a6020020151600160a060020a0316815260200160a08e015160ff1660038111156114d657fe5b60038111156114e157fe5b8152602081018c9052604081018a9052606081018890526080018f600b6020020151600160a060020a031681526020016101208f015181526020016101408f015181526020016101608f015181526020016101808f015181526020016101a08f01519052606060405190810160405280602088015160ff16815260200160408701518152602001606087015190526124a8565b5050505050505050505050565b600160a060020a03918216600090815260016020908152604080832093909416825291909152205490565b60046020526000908152604090208054600190910154600160a060020a039091169082565b60006115de85848661209c565b506115ea83868461209c565b506115f5858461280a565b95945050505050565b611730610260604051908101604052808e51600160a060020a031681526020018e60016020020151600160a060020a0316815260200160408f0151600160a060020a031681526020018d5181526020018d60016020020151815260200160608f0151600160a060020a031681526020018c600181111561167a57fe5b81526020018b600281111561168b57fe5b815260200160808f0151600160a060020a031681526020018a60038111156116af57fe5b8152602081018a9052604081018990526060810188905260800160a08f0151600160a060020a0316815260200160408e0151815260200160608e0151815260200160808e0151815260200160a08e0151815260200160c08e015190526060604051908101604090815260ff88168252602082018790528101859052836128a0565b505050505050505050505050565b600354600160a060020a031681565b82600160a060020a031633600160a060020a031614151561176d57600080fd5b611778838383612a3a565b81600160a060020a03166323b872dd84308460006040516020015260405160e060020a63ffffffff8616028152600160a060020a0393841660048201529190921660248201526044810191909152606401602060405180830381600087803b15156117e257600080fd5b6102c65a03f115156117f357600080fd5b50505060405180519050151561180857600080fd5b505050565b6000611aa1610260604051908101604052808c51600160a060020a031681526020018c60016020020151600160a060020a0316815260200160408d0151600160a060020a031681526020018b5181526020018b60016020020151815260200160608d0151600160a060020a031681526020018a5160ff16600181111561188f57fe5b600181111561189a57fe5b81526020018a6001602002015160ff1660028111156118b557fe5b60028111156118c057fe5b815260200160808d0151600160a060020a0316815260200160408b015160ff1660038111156118eb57fe5b60038111156118f657fe5b8152602081018a9052604081018890526060810186905260800160a08d0151600160a060020a0316815260200160408c0151815260200160608c0151815260200160808c0151815260200160a08c0151815260200160c08c015190526102606040519081016040528060c08e0151600160a060020a0316815260200160e08e0151600160a060020a031681526020016101008e0151600160a060020a0316815260200160e08d015181526020016101008d015181526020016101208e0151600160a060020a0316815260200160608c015160ff1660018111156119d557fe5b60018111156119e057fe5b815260200160808c015160ff1660028111156119f857fe5b6002811115611a0357fe5b81526020016101408e0151600160a060020a0316815260200160a08c015160ff166003811115611a2f57fe5b6003811115611a3a57fe5b8152602081018a905260408101889052606081018690526080016101608e0151600160a060020a031681526020016101208d015181526020016101408d015181526020016101608d015181526020016101808d015181526020016101a08d01519052612ace565b9a9950505050505050505050565b600060208181529281526040808220909352908152205481565b611ad161366d565b610260604051908101604052808b51600160a060020a031681526020018b60016020020151600160a060020a0316815260200160408c0151600160a060020a031681526020018a5181526020018a60016020020151815260200160608c0151600160a060020a03168152602001896001811115611b4a57fe5b8152602001886002811115611b5b57fe5b815260200160808c0151600160a060020a03168152602001876003811115611b7f57fe5b815260208101879052604081018690526060810185905260800160a08c0151600160a060020a0316815260200160408b0151815260200160608b0151815260200160808b0151815260200160a08b0151815260200160c08b015190529050611be78183612bf4565b50505050505050505050565b600160209081526000928352604080842090915290825290205481565b600160a060020a03808316600081815260208181526040808320948616808452948252808320549383526001825280832094835293905291822054611c559190611ed7565b9392505050565b6000611d70610260604051908101604052808b51600160a060020a031681526020018b60016020020151600160a060020a0316815260200160408c0151600160a060020a031681526020018a5181526020018a60016020020151815260200160608c0151600160a060020a03168152602001896001811115611cda57fe5b8152602001886002811115611ceb57fe5b815260200160808c0151600160a060020a03168152602001876003811115611d0f57fe5b815260208101879052604081018690526060810185905260800160a08c0151600160a060020a0316815260200160408b0151815260200160608b0151815260200160808b0151815260200160a08b0151815260200160c08b01519052612cb8565b9998505050505050505050565b611574610260604051908101604052808d51600160a060020a031681526020018d60016020020151600160a060020a0316815260200160408e0151600160a060020a031681526020018c5181526020018c60016020020151815260200160608e0151600160a060020a031681526020018b6001811115611df957fe5b81526020018a6002811115611e0a57fe5b815260200160808e0151600160a060020a03168152602001896003811115611e2e57fe5b815260208101899052604081018890526060810187905260800160a08e0151600160a060020a0316815260200160408d0151815260200160608d0151815260200160808d0151815260200160a08d0151815260200160c08d015190526060604051908101604090815260ff87168252602082018690528101849052612cea565b600160a060020a0391821660009081526020818152604080832093909416825291909152205490565b600082821115611ee357fe5b50900390565b600160a060020a038084166000818152602081815260408083209487168084529482528083205493835260018252808320948352939052918220548291611f2f91611ed7565b915083600160a060020a031685600160a060020a03167f9407bd81f01ad8f5ae4a2487b63d3d1b1947257c2dcdda3ea183dc8e6965cc6e8560405190815260200160405180910390a3828210611fd657600160a060020a0380861660009081526020818152604080832093881683529290522054611fad9084611ed7565b600160a060020a0380871660009081526020818152604080832093891683529290522055612095565b611fe08383611ed7565b600160a060020a038087166000908152602081815260408083209389168084529390915280822082905592935090916323b872dd91889130918691516020015260405160e060020a63ffffffff8616028152600160a060020a0393841660048201529190921660248201526044810191909152606401602060405180830381600087803b151561206f57600080fd5b6102c65a03f1151561208057600080fd5b50505060405180519050151561209557600080fd5b5050505050565b6120a461365b565b6120ac61371e565b60008061010060405190810160409081527f800000000000000000000000000000000000000000000000000000000000000082527f400000000000000000000000000000000000000000000000000000000000000060208301527f2000000000000000000000000000000000000000000000000000000000000000908201527f100000000000000000000000000000000000000000000000000000000000000060608201527f080000000000000000000000000000000000000000000000000000000000000060808201527f040000000000000000000000000000000000000000000000000000000000000060a08201527f020000000000000000000000000000000000000000000000000000000000000060c082015260f860020a60e0820152925085518751146121dd57600080fd5b600887518115156121ea57fe5b04855110156121f857600080fd5b600091505b86518210156122c75782600883066008811061221557fe5b602002015185600884048151811061222957fe5b016020015160f860020a900460f860020a0216600160f860020a031916600060f860020a02149050806122795785828151811061226257fe5b016020015160f860020a900460f860020a02612298565b86828151811061228557fe5b016020015160f860020a900460f860020a025b8783815181106122a457fe5b906020010190600160f860020a031916908160001a9053506001909101906121fd565b509495945050505050565b60006122dc61365b565b600060408051908101604052601c81527f19457468657265756d205369676e6564204d6573736167653a0a333200000000602082015291508161231e85612cb8565b6040518083805190602001908083835b6020831061234d5780518252601f19909201916020918201910161232e565b6001836020036101000a03801982511681845116179092525050509190910192835250506020019050604051908190039020949350505050565b6000600160a060020a0330168351600160a060020a03161480156123ba575060008481526005602052604090205460ff16155b801561248957508260200151600160a060020a031633600160a060020a031614806123f3575060008481526006602052604090205460ff165b8061248957508260200151600160a060020a03166001858451856020015186604001516040516000815260200160405260006040516020015260405193845260ff90921660208085019190915260408085019290925260608401929092526080909201915160208103908084039060008661646e5a03f1151561247557600080fd5b505060206040510351600160a060020a0316145b801561112357506111238360c001518460e00151856102200151612d6f565b60025460009081908190819060ff16156124c157600080fd5b6002805460ff191660011790556124d88888612dbe565b93506124e48686612dbe565b92506124f08887612ace565b15156124fb57600080fd5b6000838152600460205260409020915061253760e089015187602001518a61022001516040805190810160405260008082526020820152612de2565b151561254257600080fd5b61257d8660e00151896020015188610220015185604080519081016040528154600160a060020a031681526001909101546020820152612de2565b151561258857600080fd5b6125a28861014001518761014001518a610160015161209c565b506125bd86610140015189610140015188610160015161209c565b506125d288610140015187610140015161280a565b15156125dd57600080fd5b600354600160a060020a031663c4552791602088015160006040516020015260405160e060020a63ffffffff8416028152600160a060020a039091166004820152602401602060405180830381600087803b151561263a57600080fd5b6102c65a03f1151561264b57600080fd5b5050506040518051915050600160a060020a038116151561266b57600080fd5b6000848152600560205260408082208054600160ff19918216811790925586845291909220805490911690911790556126a48887612e33565b80600160a060020a0316631b0f7ba98761010001518861012001518961014001516000604051602001526040518463ffffffff1660e060020a0281526004018084600160a060020a0316600160a060020a0316815260200183600381111561270857fe5b60ff16815260200180602001828103825283818151815260200191508051906020019080838360005b83811015612749578082015183820152602001612731565b50505050905090810190601f1680156127765780820380516001836020036101000a031916815260200191505b50945050505050602060405180830381600087803b151561279657600080fd5b6102c65a03f115156127a757600080fd5b5050506040518051905015156127bc57600080fd5b7f9ff26dd672a3e8185e401656a709aa9a05045a9043260b8a0a31d2746e396669888760405191825260208201526040908101905180910390a150506002805460ff19169055505050505050565b600080825184511461281f5760009150612899565b5060005b83518110156128945782818151811061283857fe5b016020015160f860020a900460f860020a02600160f860020a03191684828151811061286057fe5b016020015160f860020a900460f860020a02600160f860020a03191614151561288c5760009150612899565b600101612823565b600191505b5092915050565b6002546000908190819060ff16156128b757600080fd5b6002805460ff191660011790556128ce8686612dbe565b6000818152600460205260409020909350915061292860c08701518760e00151886101c00151896101e001518a610220015187604080519081016040528154600160a060020a031681526001909101546020820152612eed565b90508084101561293757600080fd5b604080519081016040908152600160a060020a0333168252602080830187905260008681526004909152208151815473ffffffffffffffffffffffffffffffffffffffff1916600160a060020a03919091161781556020820151600190910155508154600160a060020a0316156129c75781546129c790600160a060020a03166101a08801518460010154612f59565b6129d733876101a001518661300b565b33600160a060020a03167f6a75ae33d1548c67bfaaa25fac7ffdd9e545fa843c22b7e883e4ac8edabb37a284864260405192835260208301919091526040808301919091526060909101905180910390a250506002805460ff1916905550505050565b600160a060020a0380841660009081526020818152604080832093861683529290522054612a6890826131fd565b600160a060020a0380851660008181526020818152604080832094881680845294909152908190209390935590917f4e45da441832cf53bdaa69235704fc0575e68210f459ee1562911024b12967d59084905190815260200160405180910390a3505050565b6000808360c001516001811115612ae157fe5b148015612afd575060018260c001516001811115612afb57fe5b145b8015612b245750816101a00151600160a060020a0316836101a00151600160a060020a0316145b8015612b60575060006040830151600160a060020a03161480612b6057508260200151600160a060020a03168260400151600160a060020a0316145b8015612b9c575060006040840151600160a060020a03161480612b9c57508160200151600160a060020a03168360400151600160a060020a0316145b8015612bc35750816101000151600160a060020a0316836101000151600160a060020a0316145b8015611c5557508161012001516003811115612bdb57fe5b8361012001516003811115612bec57fe5b149392505050565b60008260200151600160a060020a031633600160a060020a0316141515612c1a57600080fd5b612c23836122d2565b60008181526006602052604090205490915060ff1615612c4257600080fd5b60008181526006602052604090819020805460ff19166001179055600160a060020a033316907fc2dbd1050ed906aad01d660eb6004ecefd4b48906b4b93197cd8ea92d869503f9083908690869051928352602083019190915215156040808301919091526060909101905180910390a2505050565b6000612cc38261320c565b612ccc836133c3565b60405191825260208201526040908101905180910390209050919050565b6000612cf68383612dbe565b90508260200151600160a060020a031633600160a060020a0316141515612d1c57600080fd5b60008181526005602052604090819020805460ff191660011790557f5152abf959f6564662358c2e52b702259b78bac5ee7842a0f01937e670efcc7d9082905190815260200160405180910390a1505050565b60006001836002811115612d7f57fe5b141580612d9757506001846001811115612d9557fe5b145b801561112357506000836002811115612dac57fe5b14806111235750506000901192915050565b600080612dca846122d2565b9050612dd7818585612387565b1515611c5557600080fd5b60006001856002811115612df257fe5b1415612e21578151600160a060020a031684600160a060020a0316148015612e1a5750824210155b9050611123565b821580612e1a57508242109050611123565b60008060046000612e4385612cb8565b815260208101919091526040016000209150612e6084848461349d565b9050612e7984602001518560a00151866060015161356d565b612e9083602001518460a00151856060015161356d565b8154600160a060020a031615612ebf578154612ebf90600160a060020a03166101a08501518460010154612f59565b612ed38460200151846101a0015183611ee9565b612ee78360200151846101a0015183612a3a565b50505050565b60006001876001811115612efd57fe5b148015612f1557506001866002811115612f1357fe5b145b8015612f2057508242105b1515612f2b57600080fd5b60008251600160a060020a03161415612f45575083612f4f565b8382602001510190505b9695505050505050565b600160a060020a03808416600090815260016020908152604080832093861683529290522054612f899082611ed7565b600160a060020a0384811660009081526001602090815260408083209387168352929052908120829055901015612fbf57600080fd5b81600160a060020a031683600160a060020a03167fe6e0ef9cd056ca98561ca60e347ada61e1ede2f1142a078951b7a52e1e508e608360405190815260200160405180910390a3505050565b600160a060020a03808416600090815260016020908152604080832093861683529290529081205461303d90836131fd565b600160a060020a038581166000818152600160209081526040808320948916808452858352818420879055938352828252808320938352928152919020549190529011156131b057600160a060020a0380851660008181526001602090815260408083209488168084529482528083205493835282825280832094835293905291909120546130cc9190611ed7565b600160a060020a03808616600090815260208181526040808320938816835292905220549091506130fd90826131fd565b600160a060020a03808616600090815260208181526040808320938816808452939091528082209390935590916323b872dd91879130918691516020015260405160e060020a63ffffffff8616028152600160a060020a0393841660048201529190921660248201526044810191909152606401602060405180830381600087803b151561318a57600080fd5b6102c65a03f1151561319b57600080fd5b5050506040518051905015156131b057600080fd5b82600160a060020a031684600160a060020a03167f989eaa915cbb416ea3d6f9a63b1a3de51770c7674b11fe21ecdf76b4e1d139108460405190815260200160405180910390a350505050565b600082820183811015611c5557fe5b6000815182602001518360400151846060015185608001518660a001518760c001518860e001518961010001518a61012001518b61014001518c61016001516040516c01000000000000000000000000600160a060020a03808f16820283528d8116820260148401528c811682026028840152603c83018c9052605c83018b9052891602607c820152609081018760018111156132a557fe5b60ff1660f860020a0281526001018660028111156132bf57fe5b60ff1660f860020a02815260010185600160a060020a0316600160a060020a03166c0100000000000000000000000002815260140184600381111561330057fe5b60ff1660f860020a02815260010183805190602001908083835b602083106133395780518252601f19909201916020918201910161331a565b6001836020036101000a038019825116818451161790925250505091909101905082805190602001908083835b602083106133855780518252601f199092019160209182019101613366565b6001836020036101000a0380198251168184511617909252505050919091019d5060409c505050505050505050505050505180910390209050919050565b6000816101800151826101a00151836101c00151846101e001518561020001518661022001518761024001516040518088805190602001908083835b6020831061341e5780518252601f1990920191602091820191016133ff565b6001836020036101000a03801982511681845116808217855250505050505090500187600160a060020a0316600160a060020a03166c0100000000000000000000000002815260140186815260200185815260200184815260200183815260200182815260200197505050505050505060405180910390209050919050565b60008060006134ef8560c001518660e00151876101c00151886101e001518961020001518a61022001518a604080519081016040528154600160a060020a031681526001909101546020820152613597565b915061353e8660c001518760e00151886101c00151896101e001518a61020001518b61022001518a604080519081016040528154600160a060020a031681526001909101546020820152613597565b90508181101561354d57600080fd5b856102000151856102000151106135645780612f4f565b50949350505050565b6000811115611808576118088383600260019054906101000a9004600160a060020a031684613645565b600080808860028111156135a757fe5b14156135b557869150613639565b60018860028111156135c357fe5b14156135ed5760008351600160a060020a031614156135e157600080fd5b82602001519150613639565b60028860028111156135fb57fe5b14156100ed57848403854203870281151561361257fe5b049050600189600181111561362357fe5b1415613633578087039150613639565b80870191505b50979650505050505050565b613650838383612a3a565b612ee7848383611ee9565b60206040519081016040526000815290565b6102606040519081016040908152600080835260208301819052908201819052606082018190526080820181905260a0820181905260c0820181905260e08201819052610100820181905261012082015261014081016136cb61365b565b81526020016136d861365b565b81526020016136e561365b565b81526020016000600160a060020a0316815260200160008152602001600081526020016000815260200160008152602001600081525090565b6101006040519081016040526008815b60008152600019909101906020018161372e57905050905600a165627a7a72305820a9daadd073cfdc42bb02d82c981c4488b30053ba6002886390397107132a8cf50029",
  "source": "/*\n\n  Decentralized digital item exchange. Supports any digital asset that can be represented on the Ethereum blockchain.\n\n  Let us suppose two agents interacting with a distributed ledger have utility functions preferencing certain states of that ledger over others.\n  Aiming to maximize their utility, these agents may construct with their utility functions along with the present ledger state a mapping of state transitions (transactions) to marginal utilities.\n  Any composite state transition with positive marginal utility for and enactable by the combined permissions of both agents thus is a mutually desirable trade, and the trustless \n  code execution provided by a distributed ledger renders the requisite atomicity trivial.\n\n  Relative to this model, the present Exchange instantiation makes two concessions to practicality:\n  - State transition preferences are not matched directly but instead intermediated by a standard of tokenized value.\n  - A small fee is charged in WYV for order settlement, with an amount configurable by the frontend hosting the orderbook.\n\n  Solidity presently possesses neither a strong functional typesystem nor runtime reflection (ABI encoding in Solidity), so we must be a bit clever in implementation.\n\n  TODO: Clarify maker/taker distinction, require fee agreement, see if we can implement negative fees. Consider implementing frontend order signatures.\n  \n*/\n\npragma solidity 0.4.18;\n\nimport \"zeppelin-solidity/contracts/token/ERC20.sol\";\n\nimport \"../registry/ProxyRegistry.sol\";\nimport \"../common/LazyBank.sol\";\nimport \"../common/ArrayUtils.sol\";\nimport \"../common/ReentrancyGuarded.sol\";\nimport \"./SaleKindInterface.sol\";\n\n/**\n * @title Exchange\n * @author Project Wyvern Developers\n */\ncontract Exchange is LazyBank, ReentrancyGuarded {\n\n    /* The token used to pay exchange fees. */\n    ERC20 public exchangeTokenAddress;\n\n    /* User registry. */\n    ProxyRegistry public registry;\n\n    /* Top bids for all bid-supporting auctions, by hash. */\n    mapping(bytes32 => SaleKindInterface.Bid) public topBids;\n \n    /* Cancelled / finalized orders, by hash. */\n    mapping(bytes32 => bool) cancelledOrFinalized;\n\n    /* Orders verified by on-chain approval (alternative to ECDSA signatures so that smart contracts can place orders directly). */\n    mapping(bytes32 => bool) approvedOrders;\n\n    /* An ECDSA signature. */ \n    struct Sig {\n        /* v parameter */\n        uint8 v;\n        /* r parameter */\n        bytes32 r;\n        /* s parameter */\n        bytes32 s;\n    }\n\n    /* An order on the exchange. */\n    struct Order {\n        /* Exchange address, intended as a versioning mechanism. */\n        address exchange;\n        /* Order maker address. */\n        address maker;\n        /* Order taker address, if specified. */\n        address taker;\n        /* Maker fee of the order (in Exchange fee tokens). */\n        uint makerFee;\n        /* Taker fee of the order (in Exchange fee tokens). */\n        uint takerFee;\n        /* Order fee recipient. */\n        address feeRecipient;\n        /* Side (buy/sell). */\n        SaleKindInterface.Side side;\n        /* Kind of sale. */\n        SaleKindInterface.SaleKind saleKind;\n        /* Target. */\n        address target;\n        /* HowToCall. */\n        AuthenticatedProxy.HowToCall howToCall;\n        /* Calldata. */\n        bytes calldata;\n        /* replacementPattern pattern. */\n        bytes replacementPattern;\n        /* Order metadata IPFS hash. */\n        bytes metadataHash;\n        /* Token used to pay for the order. */\n        ERC20 paymentToken;\n        /* Base price of the order (in paymentTokens). */\n        uint basePrice;\n        /* Auction extra parameter - minimum bid increment for English auctions, decay factor for Dutch auctions. */\n        uint extra;\n        /* Listing timestamp. */\n        uint listingTime;\n        /* Expiration timestamp - 0 for no expiry. */\n        uint expirationTime;\n        /* Order salt, used to prevent duplicate hashes. */\n        uint salt;\n    }\n    \n    event OrderApproved   (bytes32 hash, address indexed approver, Order order, bool orderbookInclusionDesired);\n    event OrderCancelled  (bytes32 hash);\n    event OrderBidOn      (bytes32 hash, address indexed bidder, uint amount, uint timestamp);\n    event OrdersMatched   (Order buy, Order sell);\n\n    function guardedArrayReplace(bytes array, bytes desired, bytes mask)\n        public\n        pure\n        returns (bytes)\n    {\n        return ArrayUtils.guardedArrayReplace(array, desired, mask);\n    }\n\n    function chargeFee(address from, address to, uint amount)\n        internal\n    {\n        if (amount > 0) {\n            transferTo(from, to, exchangeTokenAddress, amount);\n        }\n    }\n\n    function hashOrderPartOne(Order order)\n        internal\n        pure\n        returns (bytes32)\n    {\n        return keccak256(order.exchange, order.maker, order.taker, order.makerFee, order.takerFee, order.feeRecipient, order.side, order.saleKind, order.target, order.howToCall, order.calldata, order.replacementPattern);\n    }\n\n    function hashOrderPartTwo(Order order)\n        internal\n        pure\n        returns (bytes32)\n    {\n        return keccak256(order.metadataHash, order.paymentToken, order.basePrice, order.extra, order.listingTime, order.expirationTime, order.salt);\n    }\n\n    function hashOrder(Order order)\n        internal\n        pure\n        returns (bytes32)\n    {\n        /* This is silly, but necessary due to Solidity compiler stack size constraints. FIXME, waste of gas. */\n        return keccak256(hashOrderPartOne(order), hashOrderPartTwo(order));\n    }\n\n    function hashOrder_(\n        address[6] addrs,\n        uint[7] uints,\n        SaleKindInterface.Side side,\n        SaleKindInterface.SaleKind saleKind,\n        AuthenticatedProxy.HowToCall howToCall,\n        bytes calldata,\n        bytes replacementPattern,\n        bytes metadataHash)\n        public\n        pure\n        returns (bytes32)\n    { \n        return hashOrder(\n          Order(addrs[0], addrs[1], addrs[2], uints[0], uints[1], addrs[3], side, saleKind, addrs[4], howToCall, calldata, replacementPattern, metadataHash, ERC20(addrs[5]), uints[2], uints[3], uints[4], uints[5], uints[6])\n        );\n    }\n\n    function hashToSign(Order order)\n        internal\n        pure\n        returns (bytes32)\n    {\n        bytes memory prefix = \"\\x19Ethereum Signed Message:\\n32\";\n        bytes32 hash = keccak256(prefix, hashOrder(order));\n        return hash;\n    }\n\n    function requireValidOrder(Order order, Sig sig)\n        internal\n        view\n        returns (bytes32)\n    {\n        bytes32 hash = hashToSign(order);\n        require(validateOrder(hash, order, sig));\n        return hash;\n    }\n\n    function validateOrder(bytes32 hash, Order memory order, Sig memory sig) \n        view\n        internal\n        returns (bool)\n    {\n        return(\n            /* Order must be targeted at this protocol version (this Exchange contract). */\n            order.exchange == address(this) &&\n            /* Order must have not been canceled or already filled. */\n            !cancelledOrFinalized[hash] && \n            /* Order authentication. Order must be either (a) sent by maker, (b) previously approved, or (c) ECDSA-signed by maker. */\n            (msg.sender == order.maker || approvedOrders[hash] || ecrecover(hash, sig.v, sig.r, sig.s) == order.maker) &&\n            /* Order must possess valid sale kind parameter combination. */\n            SaleKindInterface.validateParameters(order.side, order.saleKind, order.expirationTime)\n        );\n    }\n\n    /* Solidity ABI encoding limitation workaround, hopefully temporary. */\n    function validateOrder_ (\n        address[6] addrs,\n        uint[7] uints,\n        SaleKindInterface.Side side,\n        SaleKindInterface.SaleKind saleKind,\n        AuthenticatedProxy.HowToCall howToCall,\n        bytes calldata,\n        bytes replacementPattern,\n        bytes metadataHash,\n        uint8 v,\n        bytes32 r,\n        bytes32 s)\n        view\n        public\n        returns (bool)\n    {\n        Order memory order = Order(addrs[0], addrs[1], addrs[2], uints[0], uints[1], addrs[3], side, saleKind, addrs[4], howToCall, calldata, replacementPattern, metadataHash, ERC20(addrs[5]), uints[2], uints[3], uints[4], uints[5], uints[6]);\n        return validateOrder(\n          hashToSign(order),\n          order,\n          Sig(v, r, s)\n        );\n    }\n\n    function approveOrder(Order memory order, bool orderbookInclusionDesired)\n        internal\n    {\n        require(msg.sender == order.maker);\n        bytes32 hash = hashToSign(order);\n        require(!approvedOrders[hash]);\n        approvedOrders[hash] = true;\n        OrderApproved(hash, msg.sender, order, orderbookInclusionDesired);\n    }\n\n    /* Solidity ABI encoding limitation workaround, hopefully temporary. */\n    function approveOrder_ (\n        address[6] addrs,\n        uint[7] uints,\n        SaleKindInterface.Side side,\n        SaleKindInterface.SaleKind saleKind,\n        AuthenticatedProxy.HowToCall howToCall,\n        bytes calldata,\n        bytes replacementPattern,\n        bytes metadataHash,\n        bool orderbookInclusionDesired) \n        public\n    {\n        Order memory order = Order(addrs[0], addrs[1], addrs[2], uints[0], uints[1], addrs[3], side, saleKind, addrs[4], howToCall, calldata, replacementPattern, metadataHash, ERC20(addrs[5]), uints[2], uints[3], uints[4], uints[5], uints[6]);\n        return approveOrder(order, orderbookInclusionDesired);\n    }\n\n    function cancelOrder(Order memory order, Sig memory sig) \n        internal\n    {\n        /* CHECKS */\n        bytes32 hash = requireValidOrder(order, sig);\n        require(msg.sender == order.maker);\n  \n        /* EFFECTS */\n        cancelledOrFinalized[hash] = true;\n\n        OrderCancelled(hash);\n    }\n\n    /* Solidity ABI encoding limitation workaround, hopefully temporary. */\n    function cancelOrder_(\n        address[6] addrs,\n        uint[7] uints,\n        SaleKindInterface.Side side,\n        SaleKindInterface.SaleKind saleKind,\n        AuthenticatedProxy.HowToCall howToCall,\n        bytes calldata,\n        bytes replacementPattern,\n        bytes metadataHash,\n        uint8 v,\n        bytes32 r,\n        bytes32 s)\n        public\n    {\n\n        return cancelOrder(\n          Order(addrs[0], addrs[1], addrs[2], uints[0], uints[1], addrs[3], side, saleKind, addrs[4], howToCall, calldata, replacementPattern, metadataHash, ERC20(addrs[5]), uints[2], uints[3], uints[4], uints[5], uints[6]),\n          Sig(v, r, s)\n        );\n    }\n\n    function bid (Order order, Sig sig, uint amount)\n        internal\n        reentrancyGuard\n    {\n        /* CHECKS */\n  \n        bytes32 hash = requireValidOrder(order, sig);\n\n        SaleKindInterface.Bid storage topBid = topBids[hash];\n        \n        /* Calculated required bid price. */\n        uint requiredBidPrice = SaleKindInterface.requiredBidPrice(order.side, order.saleKind, order.basePrice, order.extra, order.expirationTime, topBid);\n\n        /* Assert bid amount is sufficient. */\n        require(amount >= requiredBidPrice);\n\n        /* EFFECTS */\n\n        /* Store the new high bid. */\n        topBids[hash] = SaleKindInterface.Bid(msg.sender, amount);\n\n        /* Unlock tokens to the previous high bidder, if existent. */\n        if (topBid.bidder != address(0)) {\n            unlock(topBid.bidder, order.paymentToken, topBid.amount);\n        }\n\n        /* Lock tokens for the new high bidder. */\n        lazyLock(msg.sender, order.paymentToken, amount);\n\n        /* Log the bid event. */\n        OrderBidOn(hash, msg.sender, amount, now);\n    }\n\n    /* Solidity ABI encoding limitation workaround, hopefully temporary. */\n    function bid_(\n        address[6] addrs,\n        uint[7] uints,\n        SaleKindInterface.Side side,\n        SaleKindInterface.SaleKind saleKind,\n        AuthenticatedProxy.HowToCall howToCall,\n        bytes calldata,\n        bytes replacementPattern,\n        bytes metadataHash,\n        uint8 v,\n        bytes32 r,\n        bytes32 s,\n        uint amount)\n        public\n    {\n        return bid(\n          Order(addrs[0], addrs[1], addrs[2], uints[0], uints[1], addrs[3], side, saleKind, addrs[4], howToCall, calldata, replacementPattern, metadataHash, ERC20(addrs[5]), uints[2], uints[3], uints[4], uints[5], uints[6]),\n          Sig(v, r, s),\n          amount\n        );\n    }\n\n    function calculateMatchPrice(Order buy, Order sell, SaleKindInterface.Bid storage topBid)\n        view\n        internal\n        returns (uint price)\n    {\n        /* Calculate sell price. */\n        uint sellPrice = SaleKindInterface.calculateFinalPrice(sell.side, sell.saleKind, sell.basePrice, sell.extra, sell.listingTime, sell.expirationTime, topBid);\n\n        /* Calculate buy price. */\n        uint buyPrice = SaleKindInterface.calculateFinalPrice(buy.side, buy.saleKind, buy.basePrice, buy.extra, buy.listingTime, buy.expirationTime, topBid);\n\n        /* Require price cross. */\n        require(buyPrice >= sellPrice);\n        \n        /* Time priority. */\n        price = sell.listingTime < buy.listingTime ? sellPrice : buyPrice;\n\n        return price;\n    }\n\n    function executeFundsTransfer(Order buy, Order sell)\n        internal\n    {\n        /* Fetch top bid, if existent. */\n        SaleKindInterface.Bid storage topBid = topBids[hashOrder(sell)];\n\n        /* Calculate match price. */\n        uint price = calculateMatchPrice(buy, sell, topBid);\n\n        /* TODO: Charge fees. */\n        chargeFee(buy.maker, buy.feeRecipient, buy.makerFee);\n        chargeFee(sell.maker, sell.feeRecipient, sell.makerFee);\n\n        /* Unlock tokens for top bidder, if existent. */\n        if (topBid.bidder != address(0)) {\n            unlock(topBid.bidder, sell.paymentToken, topBid.amount);\n        }\n\n        /* Debit buyer. */\n        lazyDebit(buy.maker, sell.paymentToken, price);\n\n        /* Credit seller. */\n        credit(sell.maker, sell.paymentToken, price);\n    }\n\n    function ordersCanMatch(Order buy, Order sell)\n        internal\n        pure\n        returns (bool)\n    {\n        return (\n            /* Must be opposite-side. */\n            (buy.side == SaleKindInterface.Side.Buy && sell.side == SaleKindInterface.Side.Sell) &&     \n            /* Must use same payment token. */\n            (buy.paymentToken == sell.paymentToken) &&\n            /* Must match maker/taker. */\n            (sell.taker == address(0) || sell.taker == buy.maker) &&\n            (buy.taker == address(0) || buy.taker == sell.maker) &&\n            /* Must match target. */\n            (buy.target == sell.target) &&\n            /* Must match howToCall. */\n            (buy.howToCall == sell.howToCall)\n        );\n    }\n\n    /* Solidity ABI encoding limitation workaround, hopefully temporary. */\n    function ordersCanMatch_(\n        address[12] addrs,\n        uint[14] uints,\n        uint8[6] sidesKindsHowToCalls,\n        bytes calldataBuy,\n        bytes calldataSell,\n        bytes replacementPatternBuy,\n        bytes replacementPatternSell,\n        bytes metadataHashBuy,\n        bytes metadataHashSell)\n        public\n        pure\n        returns (bool)\n    {\n        return ordersCanMatch(\n          Order(addrs[0], addrs[1], addrs[2], uints[0], uints[1], addrs[3], SaleKindInterface.Side(sidesKindsHowToCalls[0]), SaleKindInterface.SaleKind(sidesKindsHowToCalls[1]), addrs[4], AuthenticatedProxy.HowToCall(sidesKindsHowToCalls[2]), calldataBuy, replacementPatternBuy, metadataHashBuy, ERC20(addrs[5]), uints[2], uints[3], uints[4], uints[5], uints[6]),\n          Order(addrs[6], addrs[7], addrs[8], uints[7], uints[8], addrs[9], SaleKindInterface.Side(sidesKindsHowToCalls[3]), SaleKindInterface.SaleKind(sidesKindsHowToCalls[4]), addrs[10], AuthenticatedProxy.HowToCall(sidesKindsHowToCalls[5]), calldataSell, replacementPatternSell, metadataHashSell, ERC20(addrs[11]), uints[9], uints[10], uints[11], uints[12], uints[13])\n        );\n    }\n\n    function orderCalldataCanMatch(bytes buyCalldata, bytes buyReplacementPattern, bytes sellCalldata, bytes sellReplacementPattern)\n        public\n        pure\n        returns (bool)\n    {\n        ArrayUtils.guardedArrayReplace(buyCalldata, sellCalldata, buyReplacementPattern);\n        ArrayUtils.guardedArrayReplace(sellCalldata, buyCalldata, sellReplacementPattern);\n        return ArrayUtils.arrayEq(buyCalldata, sellCalldata);\n    }\n\n    function atomicMatch(Order buy, Sig buySig, Order sell, Sig sellSig)\n        internal\n        reentrancyGuard\n    {\n        /* CHECKS */\n      \n        bytes32 buyHash = requireValidOrder(buy, buySig);\n        bytes32 sellHash = requireValidOrder(sell, sellSig); \n\n        /* Must be matcheable. */\n        require(ordersCanMatch(buy, sell));\n        \n        /* Must be settleable. */\n        SaleKindInterface.Bid storage topBid = topBids[sellHash];\n        require(SaleKindInterface.canSettleOrder(buy.saleKind, sell.maker, buy.expirationTime, SaleKindInterface.Bid({ bidder: address(0), amount: 0 })));\n        require(SaleKindInterface.canSettleOrder(sell.saleKind, buy.maker, sell.expirationTime, topBid));\n       \n        /* Must match calldata after replacementPattern. */ \n        ArrayUtils.guardedArrayReplace(buy.calldata, sell.calldata, buy.replacementPattern);\n        ArrayUtils.guardedArrayReplace(sell.calldata, buy.calldata, sell.replacementPattern);\n        require(ArrayUtils.arrayEq(buy.calldata, sell.calldata));\n\n        /* Retrieve proxy (the registry contract is trusted). */\n        AuthenticatedProxy proxy = registry.proxies(sell.maker);\n\n        /* Proxy must exist. */\n        require(proxy != address(0));\n\n        /* EFFECTS */\n\n        /* Mark orders as finalized. */\n        cancelledOrFinalized[buyHash] = true;\n        cancelledOrFinalized[sellHash] = true;\n\n        /* Validate and transfer funds. */ \n        executeFundsTransfer(buy, sell);\n\n        /* INTERACTIONS */\n\n        /* Execute call through proxy. */\n        require(proxy.proxy(sell.target, sell.howToCall, sell.calldata));\n\n        /* Log match event. */\n        OrdersMatched(buy, sell);\n    }\n\n    /* Solidity ABI encoding limitation workaround, hopefully temporary. */\n    function atomicMatch_(\n        address[12] addrs,\n        uint[14] uints,\n        uint8[6] sidesKindsHowToCalls,\n        bytes calldataBuy,\n        bytes calldataSell,\n        bytes replacementPatternBuy,\n        bytes replacementPatternSell,\n        bytes metadataHashBuy,\n        bytes metadataHashSell,\n        uint8[2] vs,\n        bytes32[4] rss)\n        public\n    {\n        return atomicMatch(\n          Order(addrs[0], addrs[1], addrs[2], uints[0], uints[1], addrs[3], SaleKindInterface.Side(sidesKindsHowToCalls[0]), SaleKindInterface.SaleKind(sidesKindsHowToCalls[1]), addrs[4], AuthenticatedProxy.HowToCall(sidesKindsHowToCalls[2]), calldataBuy, replacementPatternBuy, metadataHashBuy, ERC20(addrs[5]), uints[2], uints[3], uints[4], uints[5], uints[6]),\n          Sig(vs[0], rss[0], rss[1]),\n          Order(addrs[6], addrs[7], addrs[8], uints[7], uints[8], addrs[9], SaleKindInterface.Side(sidesKindsHowToCalls[3]), SaleKindInterface.SaleKind(sidesKindsHowToCalls[4]), addrs[10], AuthenticatedProxy.HowToCall(sidesKindsHowToCalls[5]), calldataSell, replacementPatternSell, metadataHashSell, ERC20(addrs[11]), uints[9], uints[10], uints[11], uints[12], uints[13]),\n          Sig(vs[1], rss[2], rss[3])\n        );\n    }\n\n}\n",
  "sourcePath": "/home/cwgoes/working/crypto/wyvern/wyvern-ethereum/contracts/exchange/Exchange.sol",
  "compiler": {
    "name": "solc",
    "version": "0.4.18+commit.9cf6e910.Emscripten.clang"
  },
  "schemaVersion": "1.0.1",
  "updatedAt": "2018-01-23T02:39:27.491Z"
}