{
  "contractName": "Exchange",
  "abi": [
    {
      "constant": false,
      "inputs": [
        {
          "name": "bidFee",
          "type": "uint256"
        }
      ],
      "name": "setBidFee",
      "outputs": [],
      "payable": false,
      "stateMutability": "nonpayable",
      "type": "function"
    },
    {
      "constant": true,
      "inputs": [
        {
          "name": "",
          "type": "bytes32"
        }
      ],
      "name": "sales",
      "outputs": [
        {
          "name": "buyer",
          "type": "address"
        },
        {
          "name": "price",
          "type": "uint256"
        },
        {
          "name": "timestamp",
          "type": "uint256"
        },
        {
          "name": "metadataHash",
          "type": "bytes"
        }
      ],
      "payable": false,
      "stateMutability": "view",
      "type": "function"
    },
    {
      "constant": false,
      "inputs": [
        {
          "name": "buyFee",
          "type": "uint256"
        }
      ],
      "name": "setBuyFee",
      "outputs": [],
      "payable": false,
      "stateMutability": "nonpayable",
      "type": "function"
    },
    {
      "constant": true,
      "inputs": [],
      "name": "exchangeTokenAddress",
      "outputs": [
        {
          "name": "",
          "type": "address"
        }
      ],
      "payable": false,
      "stateMutability": "view",
      "type": "function"
    },
    {
      "constant": false,
      "inputs": [
        {
          "name": "dest",
          "type": "address"
        }
      ],
      "name": "withdrawFees",
      "outputs": [],
      "payable": false,
      "stateMutability": "nonpayable",
      "type": "function"
    },
    {
      "constant": false,
      "inputs": [
        {
          "name": "id",
          "type": "bytes32"
        }
      ],
      "name": "removeItem",
      "outputs": [],
      "payable": false,
      "stateMutability": "nonpayable",
      "type": "function"
    },
    {
      "constant": false,
      "inputs": [
        {
          "name": "listFee",
          "type": "uint256"
        }
      ],
      "name": "setListFee",
      "outputs": [],
      "payable": false,
      "stateMutability": "nonpayable",
      "type": "function"
    },
    {
      "constant": false,
      "inputs": [
        {
          "name": "id",
          "type": "bytes32"
        }
      ],
      "name": "purchaseItem",
      "outputs": [],
      "payable": false,
      "stateMutability": "nonpayable",
      "type": "function"
    },
    {
      "constant": true,
      "inputs": [
        {
          "name": "",
          "type": "bytes32"
        }
      ],
      "name": "items",
      "outputs": [
        {
          "name": "seller",
          "type": "address"
        },
        {
          "name": "contractAddress",
          "type": "address"
        },
        {
          "name": "metadataHash",
          "type": "bytes"
        },
        {
          "name": "saleKind",
          "type": "uint8"
        },
        {
          "name": "paymentToken",
          "type": "address"
        },
        {
          "name": "basePrice",
          "type": "uint256"
        },
        {
          "name": "listingTime",
          "type": "uint256"
        },
        {
          "name": "expirationTime",
          "type": "uint256"
        },
        {
          "name": "auctionExtra",
          "type": "uint256"
        },
        {
          "name": "escrowProvider",
          "type": "address"
        },
        {
          "name": "removed",
          "type": "bool"
        }
      ],
      "payable": false,
      "stateMutability": "view",
      "type": "function"
    },
    {
      "constant": true,
      "inputs": [
        {
          "name": "",
          "type": "bytes32"
        }
      ],
      "name": "topBids",
      "outputs": [
        {
          "name": "bidder",
          "type": "address"
        },
        {
          "name": "amount",
          "type": "uint256"
        },
        {
          "name": "timestamp",
          "type": "uint256"
        }
      ],
      "payable": false,
      "stateMutability": "view",
      "type": "function"
    },
    {
      "constant": true,
      "inputs": [],
      "name": "feeBid",
      "outputs": [
        {
          "name": "",
          "type": "uint256"
        }
      ],
      "payable": false,
      "stateMutability": "view",
      "type": "function"
    },
    {
      "constant": true,
      "inputs": [],
      "name": "feeList",
      "outputs": [
        {
          "name": "",
          "type": "uint256"
        }
      ],
      "payable": false,
      "stateMutability": "view",
      "type": "function"
    },
    {
      "constant": false,
      "inputs": [
        {
          "name": "id",
          "type": "bytes32"
        },
        {
          "name": "saleMetadataHash",
          "type": "bytes"
        }
      ],
      "name": "finalizeSale",
      "outputs": [],
      "payable": false,
      "stateMutability": "nonpayable",
      "type": "function"
    },
    {
      "constant": true,
      "inputs": [],
      "name": "owner",
      "outputs": [
        {
          "name": "",
          "type": "address"
        }
      ],
      "payable": false,
      "stateMutability": "view",
      "type": "function"
    },
    {
      "constant": true,
      "inputs": [],
      "name": "collectedFees",
      "outputs": [
        {
          "name": "",
          "type": "uint256"
        }
      ],
      "payable": false,
      "stateMutability": "view",
      "type": "function"
    },
    {
      "constant": false,
      "inputs": [
        {
          "name": "id",
          "type": "bytes32"
        },
        {
          "name": "amount",
          "type": "uint256"
        }
      ],
      "name": "bidOnItem",
      "outputs": [],
      "payable": false,
      "stateMutability": "nonpayable",
      "type": "function"
    },
    {
      "constant": true,
      "inputs": [
        {
          "name": "id",
          "type": "bytes32"
        }
      ],
      "name": "calculateFinalItemPrice",
      "outputs": [
        {
          "name": "price",
          "type": "uint256"
        }
      ],
      "payable": false,
      "stateMutability": "view",
      "type": "function"
    },
    {
      "constant": true,
      "inputs": [],
      "name": "feeBuy",
      "outputs": [
        {
          "name": "",
          "type": "uint256"
        }
      ],
      "payable": false,
      "stateMutability": "view",
      "type": "function"
    },
    {
      "constant": false,
      "inputs": [
        {
          "name": "newOwner",
          "type": "address"
        }
      ],
      "name": "transferOwnership",
      "outputs": [],
      "payable": false,
      "stateMutability": "nonpayable",
      "type": "function"
    },
    {
      "constant": false,
      "inputs": [
        {
          "name": "contractAddress",
          "type": "address"
        },
        {
          "name": "metadataHash",
          "type": "bytes"
        },
        {
          "name": "saleKind",
          "type": "uint8"
        },
        {
          "name": "paymentToken",
          "type": "address"
        },
        {
          "name": "price",
          "type": "uint256"
        },
        {
          "name": "expirationTime",
          "type": "uint256"
        },
        {
          "name": "auctionExtra",
          "type": "uint256"
        },
        {
          "name": "escrowProvider",
          "type": "address"
        }
      ],
      "name": "listItem",
      "outputs": [
        {
          "name": "id",
          "type": "bytes32"
        }
      ],
      "payable": false,
      "stateMutability": "nonpayable",
      "type": "function"
    },
    {
      "constant": true,
      "inputs": [
        {
          "name": "",
          "type": "uint256"
        }
      ],
      "name": "ids",
      "outputs": [
        {
          "name": "",
          "type": "bytes32"
        }
      ],
      "payable": false,
      "stateMutability": "view",
      "type": "function"
    },
    {
      "anonymous": false,
      "inputs": [
        {
          "indexed": false,
          "name": "id",
          "type": "bytes32"
        },
        {
          "indexed": false,
          "name": "seller",
          "type": "address"
        },
        {
          "indexed": false,
          "name": "contractAddress",
          "type": "address"
        },
        {
          "indexed": false,
          "name": "metadataHash",
          "type": "bytes"
        },
        {
          "indexed": false,
          "name": "saleKind",
          "type": "uint8"
        },
        {
          "indexed": false,
          "name": "paymentToken",
          "type": "address"
        },
        {
          "indexed": false,
          "name": "price",
          "type": "uint256"
        },
        {
          "indexed": false,
          "name": "timestamp",
          "type": "uint256"
        },
        {
          "indexed": false,
          "name": "expirationTime",
          "type": "uint256"
        },
        {
          "indexed": false,
          "name": "auctionExtra",
          "type": "uint256"
        },
        {
          "indexed": false,
          "name": "escrowProvider",
          "type": "address"
        }
      ],
      "name": "ItemListed",
      "type": "event"
    },
    {
      "anonymous": false,
      "inputs": [
        {
          "indexed": false,
          "name": "id",
          "type": "bytes32"
        }
      ],
      "name": "ItemRemoved",
      "type": "event"
    },
    {
      "anonymous": false,
      "inputs": [
        {
          "indexed": false,
          "name": "id",
          "type": "bytes32"
        },
        {
          "indexed": false,
          "name": "bidder",
          "type": "address"
        },
        {
          "indexed": false,
          "name": "amount",
          "type": "uint256"
        },
        {
          "indexed": false,
          "name": "timestamp",
          "type": "uint256"
        }
      ],
      "name": "ItemBidOn",
      "type": "event"
    },
    {
      "anonymous": false,
      "inputs": [
        {
          "indexed": false,
          "name": "id",
          "type": "bytes32"
        },
        {
          "indexed": false,
          "name": "buyer",
          "type": "address"
        },
        {
          "indexed": false,
          "name": "price",
          "type": "uint256"
        }
      ],
      "name": "ItemPurchased",
      "type": "event"
    },
    {
      "anonymous": false,
      "inputs": [
        {
          "indexed": false,
          "name": "id",
          "type": "bytes32"
        },
        {
          "indexed": false,
          "name": "metadataHash",
          "type": "bytes"
        }
      ],
      "name": "SaleFinalized",
      "type": "event"
    },
    {
      "anonymous": false,
      "inputs": [
        {
          "indexed": true,
          "name": "previousOwner",
          "type": "address"
        },
        {
          "indexed": true,
          "name": "newOwner",
          "type": "address"
        }
      ],
      "name": "OwnershipTransferred",
      "type": "event"
    }
  ],
  "bytecode": "0x606060405260008054600160a060020a033316600160a060020a0319909116179055611c74806100306000396000f30060606040526004361061011c5763ffffffff7c0100000000000000000000000000000000000000000000000000000000600035041663013869bf81146101215780630c2afd72146101395780630cc835a3146101f75780630e5d2e211461020d578063164e68de1461023c578063180370451461025b5780631d048860146102715780631ef499351461028757806348f343f31461029d578063532aa1c8146103b05780635f1ae8aa146103fc578063622ed7df146104215780638bb023f4146104345780638da5cb5b1461048a5780639003adfe1461049d578063a05e36d1146104b0578063a9f6252d146104c9578063c5b0fe9d146104df578063f2fde38b146104f2578063f73bd36914610511578063fac333ac1461059c575b600080fd5b341561012c57600080fd5b6101376004356105b2565b005b341561014457600080fd5b61014f6004356105d2565b604051600160a060020a038516815260208101849052604081018390526080606082018181528354600260001961010060018416150201909116049183018290529060a0830190849080156101e55780601f106101ba576101008083540402835291602001916101e5565b820191906000526020600020905b8154815290600101906020018083116101c857829003601f168201915b50509550505050505060405180910390f35b341561020257600080fd5b610137600435610601565b341561021857600080fd5b610220610621565b604051600160a060020a03909116815260200160405180910390f35b341561024757600080fd5b610137600160a060020a0360043516610630565b341561026657600080fd5b6101376004356106f8565b341561027c57600080fd5b61013760043561081a565b341561029257600080fd5b61013760043561083a565b34156102a857600080fd5b6102b3600435610d51565b604051600160a060020a03808d1682528b16602082015260408101606082018a60028111156102de57fe5b60ff168152600160a060020a038a81166020830152604082018a9052606082018990526080820188905260a08201879052851660c082015283151560e0820152610100838203810183528c546002600182161583026000190190911604908201819052610120909101908c9080156103975780601f1061036c57610100808354040283529160200191610397565b820191906000526020600020905b81548152906001019060200180831161037a57829003601f168201915b50509c5050505050505050505050505060405180910390f35b34156103bb57600080fd5b6103c6600435610dcc565b6040518084600160a060020a0316600160a060020a03168152602001838152602001828152602001935050505060405180910390f35b341561040757600080fd5b61040f610df7565b60405190815260200160405180910390f35b341561042c57600080fd5b61040f610dfd565b341561043f57600080fd5b610137600480359060446024803590810190830135806020601f82018190048102016040519081016040528181529291906020840183838082843750949650610e0395505050505050565b341561049557600080fd5b610220610ef1565b34156104a857600080fd5b61040f610f00565b34156104bb57600080fd5b610137600435602435610f06565b34156104d457600080fd5b61040f600435611351565b34156104ea57600080fd5b61040f6114ed565b34156104fd57600080fd5b610137600160a060020a03600435166114f3565b341561051c57600080fd5b61040f60048035600160a060020a03169060446024803590810190830135806020601f820181900481020160405190810160405281815292919060208401838380828437509496505050833560ff16936020810135600160a060020a039081169450604082013593506060820135925060808201359160a001351661158e565b34156105a757600080fd5b61040f600435611b65565b60005433600160a060020a039081169116146105cd57600080fd5b600255565b6008602052600090815260409020805460018201546002830154600160a060020a039092169290919060030184565b60005433600160a060020a0390811691161461061c57600080fd5b600355565b600554600160a060020a031681565b60005433600160a060020a0390811691161461064b57600080fd5b600554600454600160a060020a039091169063a9059cbb9083906000604051602001526040517c010000000000000000000000000000000000000000000000000000000063ffffffff8516028152600160a060020a0390921660048301526024820152604401602060405180830381600087803b15156106ca57600080fd5b6102c65a03f115156106db57600080fd5b5050506040518051905015156106f057600080fd5b506000600455565b6000818152600660205260409020548190600160a060020a03161580159061074a575060008181526006602052604090206008015474010000000000000000000000000000000000000000900460ff16155b801561076b5750600081815260086020526040902054600160a060020a0316155b151561077657600080fd5b60008281526006602052604090205433600160a060020a0390811691161461079d57600080fd5b60008281526006602052604090819020600801805474ff00000000000000000000000000000000000000001916740100000000000000000000000000000000000000001790557f4d14690cbd42eab82cd15ad666b9b98197ade97acdd17512bdec0497b591de489083905190815260200160405180910390a15050565b60005433600160a060020a0390811691161461083557600080fd5b600155565b600081815260066020526040812054819081908490600160a060020a031615801590610890575060008181526006602052604090206008015474010000000000000000000000000000000000000000900460ff16155b80156108b15750600081815260086020526040902054600160a060020a0316155b15156108bc57600080fd5b600354600554600160a060020a03166323b872dd3330846000604051602001526040517c010000000000000000000000000000000000000000000000000000000063ffffffff8616028152600160a060020a0393841660048201529190921660248201526044810191909152606401602060405180830381600087803b151561094457600080fd5b6102c65a03f1151561095557600080fd5b50505060405180519050151561096a57600080fd5b6004805482019055600160008781526006602052604090206003015460ff16600281111561099457fe5b1415610a99576000868152600960205260409020805490955033600160a060020a0390811691161480156109da5750600086815260066020819052604090912001544210155b15156109e557600080fd5b600086815260066020526040808220600301546001880154610100909104600160a060020a03169263a9059cbb923392919051602001526040517c010000000000000000000000000000000000000000000000000000000063ffffffff8516028152600160a060020a0390921660048301526024820152604401602060405180830381600087803b1515610a7857600080fd5b6102c65a03f11515610a8957600080fd5b5050506040518051905050610ab7565b600086815260066020819052604090912001544210610ab757600080fd5b610ac086611351565b60008781526006602052604080822060088101548154600390920154949850600160a060020a039081169463b472704f948c943394841693610100909304909216918b919051602001526040517c010000000000000000000000000000000000000000000000000000000063ffffffff88160281526004810195909552600160a060020a03938416602486015291831660448501529091166064830152608482015260a401602060405180830381600087803b1515610b7e57600080fd5b6102c65a03f11515610b8f57600080fd5b505050604051805190501515610ba457600080fd5b600086815260066020526040902060010154600160a060020a031692508215610c435782600160a060020a031663f2fde38b336040517c010000000000000000000000000000000000000000000000000000000063ffffffff8416028152600160a060020a039091166004820152602401600060405180830381600087803b1515610c2e57600080fd5b6102c65a03f11515610c3f57600080fd5b5050505b60806040519081016040528033600160a060020a031681526020018581526020014281526020016000604051805910610c795750595b818152601f19601f83011681016020016040529050905260008781526008602052604090208151815473ffffffffffffffffffffffffffffffffffffffff1916600160a060020a03919091161781556020820151816001015560408201518160020155606082015181600301908051610cf6929160200190611b84565b509050507f3f7e7c9ec22f45dbf0d3c47a04c1f1e2e77716b0dcaa5974cb5f4b2ba6dd6b35863386604051928352600160a060020a0390911660208301526040808301919091526060909101905180910390a1505050505050565b6006602081905260009182526040909120805460018201546003830154600484015460058501549585015460078601546008870154600160a060020a0396871698958716976002019660ff8087169761010090970482169694939291821691740100000000000000000000000000000000000000009004168b565b600960205260009081526040902080546001820154600290920154600160a060020a03909116919083565b60025481565b60015481565b60008281526006602052604090205433600160a060020a03908116911614610e2a57600080fd5b6000828152600860205260409020600301818051610e4c929160200190611b84565b507f07a8a89d5ccd9c5a4cfaa7950639bdd8edb423a3b9598ce3ab86efe8371f5015828260405182815260406020820181815290820183818151815260200191508051906020019080838360005b83811015610eb2578082015183820152602001610e9a565b50505050905090810190601f168015610edf5780820380516001836020036101000a031916815260200191505b50935050505060405180910390a15050565b600054600160a060020a031681565b60045481565b6000828152600660205260409020548290600160a060020a031615801590610f58575060008181526006602052604090206008015474010000000000000000000000000000000000000000900460ff16155b8015610f795750600081815260086020526040902054600160a060020a0316155b1515610f8457600080fd5b600254600554600160a060020a03166323b872dd3330846000604051602001526040517c010000000000000000000000000000000000000000000000000000000063ffffffff8616028152600160a060020a0393841660048201529190921660248201526044810191909152606401602060405180830381600087803b151561100c57600080fd5b6102c65a03f1151561101d57600080fd5b50505060405180519050151561103257600080fd5b6004805482019055600160008581526006602052604090206003015460ff16600281111561105c57fe5b14801561107a57506000848152600660208190526040909120015442105b151561108557600080fd5b600084815260096020526040902054600160a060020a031615156110c6576000848152600660205260409020600401548310156110c157600080fd5b6111c0565b600084815260066020908152604080832060070154600990925290912060010154018310156110f457600080fd5b6000848152600660209081526040808320600301546009909252808320805460019190910154600160a060020a0361010090940484169463a9059cbb94929092169290919051602001526040517c010000000000000000000000000000000000000000000000000000000063ffffffff8516028152600160a060020a0390921660048301526024820152604401602060405180830381600087803b151561119a57600080fd5b6102c65a03f115156111ab57600080fd5b5050506040518051905015156111c057600080fd5b600084815260066020526040808220600301546101009004600160a060020a0316916323b872dd913391309188919051602001526040517c010000000000000000000000000000000000000000000000000000000063ffffffff8616028152600160a060020a0393841660048201529190921660248201526044810191909152606401602060405180830381600087803b151561125c57600080fd5b6102c65a03f1151561126d57600080fd5b50505060405180519050151561128257600080fd5b60606040519081016040908152600160a060020a03331682526020808301869052428284015260008781526009909152208151815473ffffffffffffffffffffffffffffffffffffffff1916600160a060020a0391909116178155602082015181600101556040820151600290910155507f539e08755531e0ceee4dfc4e45c1cfafef6e9b228a4b645456e229f5f4c9d1bf84338542604051938452600160a060020a03909216602084015260408084019190915260608301919091526080909101905180910390a150505050565b6000818152600660205260408120548290600160a060020a0316158015906113a3575060008181526006602052604090206008015474010000000000000000000000000000000000000000900460ff16155b80156113c45750600081815260086020526040902054600160a060020a0316155b15156113cf57600080fd5b60008381526006602052604081206003015460ff1660028111156113ef57fe5b141561140e5760008381526006602052604090206004015491506114e7565b600160008481526006602052604090206003015460ff16600281111561143057fe5b141561147257600083815260096020526040902054600160a060020a0316151561145957600080fd5b60008381526009602052604090206001015491506114e7565b600260008481526006602052604090206003015460ff16600281111561149457fe5b141561011c57600083815260066020819052604090912060058101549181015460079091015490829003914203028115156114cb57fe5b6000858152600660205260409020600401549190046001030291505b50919050565b60035481565b60005433600160a060020a0390811691161461150e57600080fd5b600160a060020a038116151561152357600080fd5b600054600160a060020a0380831691167f8be0079c531659141344cd1fd0a4f28419497f9722a3daafe3b4186f6b6457e060405160405180910390a36000805473ffffffffffffffffffffffffffffffffffffffff1916600160a060020a0392909216919091179055565b60015460055460009190600160a060020a03166323b872dd33308486604051602001526040517c010000000000000000000000000000000000000000000000000000000063ffffffff8616028152600160a060020a0393841660048201529190921660248201526044810191909152606401602060405180830381600087803b151561161957600080fd5b6102c65a03f1151561162a57600080fd5b50505060405180519050151561163f57600080fd5b6004805482019055338a8a8a8a8a428b8b8b6040516c01000000000000000000000000600160a060020a03808d16820283528b160260148201526028810189805190602001908083835b602083106116a85780518252601f199092019160209182019101611689565b6001836020036101000a03801982511681845116179092525050509190910190508860028111156116d557fe5b60ff167f010000000000000000000000000000000000000000000000000000000000000002815260010187600160a060020a0316600160a060020a03166c0100000000000000000000000002815260140186815260200185815260200184815260200183815260200182600160a060020a0316600160a060020a03166c010000000000000000000000000281526014019a5050505050505050505050604051908190039020600081815260066020526040902054909250600160a060020a03161561179f57600080fd5b600160a060020a038a16156118195789600160a060020a0316634e71e0c86040518163ffffffff167c0100000000000000000000000000000000000000000000000000000000028152600401600060405180830381600087803b151561180457600080fd5b6102c65a03f1151561181557600080fd5b5050505b6101606040519081016040528033600160a060020a031681526020018b600160a060020a031681526020018a815260200189600281111561185657fe5b8152600160a060020a03808a1660208084019190915260408084018b9052426060850152608084018a905260a0840189905291871660c0840152600060e09093018390528583526006905290208151815473ffffffffffffffffffffffffffffffffffffffff1916600160a060020a0391909116178155602082015160018201805473ffffffffffffffffffffffffffffffffffffffff1916600160a060020a039290921691909117905560408201518160020190805161191b929160200190611b84565b50606082015160038201805460ff1916600183600281111561193957fe5b021790555060808201518160030160016101000a815481600160a060020a030219169083600160a060020a0316021790555060a0820151816004015560c0820151816005015560e08201518160060155610100820151816007015561012082015160088201805473ffffffffffffffffffffffffffffffffffffffff1916600160a060020a039290921691909117905561014082015160089091018054911515740100000000000000000000000000000000000000000274ff000000000000000000000000000000000000000019909216919091179055506007805460018101611a238382611c02565b5060009182526020909120018290557f213dee258e93b11ddd6d7915583a9c3801ad6f8528a74c10cd6c53549acf264d82338c8c8c8c8c428d8d8d6040518b8152600160a060020a03808c1660208301528a1660408201526060810160808201896002811115611a8f57fe5b60ff16815260200188600160a060020a0316600160a060020a0316815260200187815260200186815260200185815260200184815260200183600160a060020a0316600160a060020a0316815260200182810382528a818151815260200191508051906020019080838360005b83811015611b14578082015183820152602001611afc565b50505050905090810190601f168015611b415780820380516001836020036101000a031916815260200191505b509c5050505050505050505050505060405180910390a15098975050505050505050565b6007805482908110611b7357fe5b600091825260209091200154905081565b828054600181600116156101000203166002900490600052602060002090601f016020900481019282601f10611bc557805160ff1916838001178555611bf2565b82800160010185558215611bf2579182015b82811115611bf2578251825591602001919060010190611bd7565b50611bfe929150611c2b565b5090565b815481835581811511611c2657600083815260209020611c26918101908301611c2b565b505050565b611c4591905b80821115611bfe5760008155600101611c31565b905600a165627a7a72305820451cd12f073fe83429c943bf07ff601d5bbe2fc1f15580cafda68b485fd8b2ed0029",
  "source": "/*\n\n  Trustless decentralized digital item & smart contract exchange.\n\n  Written from scratch.\n\n*/\n\npragma solidity ^0.4.18;\n\nimport \"zeppelin-solidity/contracts/token/ERC20.sol\";\nimport \"zeppelin-solidity/contracts/ownership/Ownable.sol\";\nimport \"zeppelin-solidity/contracts/ownership/Claimable.sol\";\n\nimport \"./EscrowProvider.sol\";\n\ncontract Exchange is Ownable {\n\n  /* The owner address of the exchange (a) can withdraw fees periodically and (b) can change the fee amounts, escrow settings. */\n\n  /* The fee required to list an item for sale. */\n  uint public feeList;\n  \n  /* The fee required to bid on an item. */\n  uint public feeBid;\n\n  /* The fee required to buy an item. */\n  uint public feeBuy;\n\n  /* Current collected fees, reset upon withdrawal. */\n  uint public collectedFees;\n\n  /* The token used to pay exchange fees. */\n  ERC20 public exchangeTokenAddress;\n\n  /* All items that have ever been listed. */\n  mapping(bytes32 => Item) public items;\n\n  /* Item IDs, stored for accessor convenience. */\n  bytes32[] public ids;\n\n  /* All sales that have ever occurred. */\n  mapping(bytes32 => Sale) public sales;\n\n  /* Top bids for all English auctions. */\n  mapping(bytes32 => Bid) public topBids;\n\n  /* Kind of sale - fixed price or auction. */\n  enum SaleKind { FixedPrice, EnglishAuction, DutchAuction }\n\n  /* An item listed for sale on the exchange. */\n  struct Item {\n    /* The address selling the item. */\n    address seller;\n    /* Item contract - a value of 0 means no contract is being sold. */\n    Claimable contractAddress;\n    /* Item metadata IPFS hash. */\n    bytes metadataHash;\n    /* The kind of sale. */\n    SaleKind saleKind;\n    /* Token used to pay for the item. */\n    ERC20 paymentToken;\n    /* Base price of the item (tokens). */\n    uint basePrice;\n    /* Listing timestamp. */\n    uint listingTime;\n    /* Expiration timestamp - 0 for no expiry. */\n    uint expirationTime;\n    /* Auction extra parameter - minimum bid increment for English auctions, decay factor for Dutch auctions. */\n    uint auctionExtra;\n    /* The escrow provider contract, which is paid a fee to arbitrage escrow disputes and must provide (TODO) specific functions. 0 for no escrow. */\n    EscrowProvider escrowProvider;\n    /* Whether or not the listing has been removed. */\n    bool removed;\n  }\n\n  struct Bid {\n    /* Address of the bidder. */\n    address bidder;\n    /* Amount of the bid. */\n    uint amount;\n    /* Timestamp of bid placement. */\n    uint timestamp;\n  }\n\n  struct Sale {\n    /* Address of the buyer. */\n    address buyer;\n    /* Final sale price. */\n    uint price;\n    /* Timestamp of purchase. */\n    uint timestamp;\n    /* Sale metadata IPFS hash. */\n    bytes metadataHash;\n  }\n\n  event ItemListed    (bytes32 id, address seller, Claimable contractAddress, bytes metadataHash, SaleKind saleKind, ERC20 paymentToken, uint price, uint timestamp, uint expirationTime, uint auctionExtra, EscrowProvider escrowProvider);\n  event ItemRemoved   (bytes32 id);\n  event ItemBidOn     (bytes32 id, address bidder, uint amount, uint timestamp);\n  event ItemPurchased (bytes32 id, address buyer, uint price);\n  event SaleFinalized (bytes32 id, bytes metadataHash);\n\n  modifier costs (uint amount) {\n    require(exchangeTokenAddress.transferFrom(msg.sender, this, amount));\n    collectedFees += amount;\n    _;\n  }\n\n  modifier requiresActiveItem (bytes32 id) {\n    require(\n      (items[id].seller != address(0)) &&\n      (!items[id].removed) &&\n      (sales[id].buyer == address(0))\n    );\n    _;\n  }\n\n  function withdrawFees(address dest) onlyOwner  public {\n    require(exchangeTokenAddress.transfer(dest, collectedFees));\n    collectedFees = 0;\n  }\n\n  function setListFee(uint listFee) onlyOwner  public {\n    feeList = listFee;\n  }\n\n  function setBidFee(uint bidFee) onlyOwner  public {\n    feeBid = bidFee;\n  }\n\n  function setBuyFee(uint buyFee) onlyOwner  public {\n    feeBuy = buyFee;\n  }\n\n  function listItem(Claimable contractAddress, bytes metadataHash, SaleKind saleKind, ERC20 paymentToken, uint price, uint expirationTime, uint auctionExtra, EscrowProvider escrowProvider) public costs (feeList) returns (bytes32 id) {\n    id = keccak256(msg.sender, contractAddress, metadataHash, saleKind, paymentToken, price, now, expirationTime, auctionExtra, escrowProvider);\n    require(items[id].seller == address(0));\n    if (contractAddress != address(0)) {\n      contractAddress.claimOwnership();\n    }\n    items[id] = Item(msg.sender, contractAddress, metadataHash, saleKind, paymentToken, price, now, expirationTime, auctionExtra, escrowProvider, false);\n    ids.push(id);\n    ItemListed(id, msg.sender, contractAddress, metadataHash, saleKind, paymentToken, price, now, expirationTime, auctionExtra, escrowProvider);\n    return id;\n  }\n\n  function removeItem (bytes32 id) public requiresActiveItem(id) {\n    require(items[id].seller == msg.sender);\n    items[id].removed = true;\n    ItemRemoved(id);\n  }\n\n  function bidOnItem (bytes32 id, uint amount) public requiresActiveItem (id) costs (feeBid) {\n    /* Must be an English auction that has not yet completed. */\n    require(\n      (items[id].saleKind == SaleKind.EnglishAuction) &&\n      (now < items[id].expirationTime)\n      );\n    if (topBids[id].bidder == address(0)) {\n      /* Amount must be at least the minimum bid. */\n      require(amount >= items[id].basePrice);\n    } else {\n      /* Amount must be at least the last high bid plus the minimum bid increment. */\n      require(amount >= topBids[id].amount + items[id].auctionExtra);\n      /* Return locked tokens to the previous high bidder. */\n      require(items[id].paymentToken.transfer(topBids[id].bidder, topBids[id].amount));\n    }\n    /* Lock tokens for the new high bidder. */\n    require(items[id].paymentToken.transferFrom(msg.sender, this, amount));\n    /* Store the new high bid. */\n    topBids[id] = Bid(msg.sender, amount, now);\n    /* Log the bid event. */\n    ItemBidOn(id, msg.sender, amount, now);\n  }\n\n  function calculateFinalItemPrice (bytes32 id) public constant requiresActiveItem(id) returns (uint price) {\n    if (items[id].saleKind == SaleKind.FixedPrice) {\n      return items[id].basePrice;\n    } else if (items[id].saleKind == SaleKind.EnglishAuction) {\n      require(topBids[id].bidder != address(0));\n      return topBids[id].amount;\n    } else if (items[id].saleKind == SaleKind.DutchAuction) {\n      return items[id].basePrice * (1 - (items[id].auctionExtra * (now - items[id].listingTime) / (items[id].expirationTime - items[id].listingTime)));\n    } else {\n      revert();\n    }\n  }\n\n  /* Called by a buyer to purchase an item or finalize an auction they have won. */\n  function purchaseItem (bytes32 id) public requiresActiveItem (id) costs (feeBuy) {\n    if (items[id].saleKind == SaleKind.EnglishAuction) {\n      Bid storage topBid = topBids[id];\n      require(\n        (msg.sender == topBid.bidder) &&\n        (now >= items[id].expirationTime)\n      );\n      items[id].paymentToken.transfer(msg.sender, topBid.amount);\n    } else {\n      require(now < items[id].expirationTime);\n    }\n    uint price = calculateFinalItemPrice(id);\n    require(items[id].escrowProvider.holdInEscrow(id, msg.sender, items[id].seller, items[id].paymentToken, price));\n    Claimable contractAddress = items[id].contractAddress;\n    if (contractAddress != address(0)) {\n      contractAddress.transferOwnership(msg.sender);\n    }\n    sales[id] = Sale(msg.sender, price, now, new bytes(0));\n    ItemPurchased(id, msg.sender, price);\n  }\n\n  /* Called by the seller of an item to finalize sale to the buyer, linking the IPFS metadata. */\n  function finalizeSale (bytes32 id, bytes saleMetadataHash) public {\n    require(items[id].seller == msg.sender);\n    sales[id].metadataHash = saleMetadataHash;\n    SaleFinalized(id, saleMetadataHash);\n  }\n\n}\n",
  "sourcePath": "/home/cwgoes/working/crypto/wyvern/wyvern-ethereum/contracts/exchange/Exchange.sol",
  "compiler": {
    "name": "solc",
    "version": "0.4.18+commit.9cf6e910.Emscripten.clang"
  },
  "schemaVersion": "1.0.1",
  "updatedAt": "2017-12-11T01:12:27.039Z"
}