{
  "contractName": "Exchange",
  "abi": [
    {
      "constant": true,
      "inputs": [],
      "name": "exchangeTokenAddress",
      "outputs": [
        {
          "name": "",
          "type": "address"
        }
      ],
      "payable": false,
      "stateMutability": "view",
      "type": "function"
    },
    {
      "constant": true,
      "inputs": [
        {
          "name": "addrs",
          "type": "address[14]"
        },
        {
          "name": "uints",
          "type": "uint256[14]"
        },
        {
          "name": "sidesKindsHowToCalls",
          "type": "uint8[6]"
        },
        {
          "name": "calldataBuy",
          "type": "bytes"
        },
        {
          "name": "calldataSell",
          "type": "bytes"
        },
        {
          "name": "replacementPatternBuy",
          "type": "bytes"
        },
        {
          "name": "replacementPatternSell",
          "type": "bytes"
        },
        {
          "name": "staticExtradataBuy",
          "type": "bytes"
        },
        {
          "name": "staticExtradataSell",
          "type": "bytes"
        }
      ],
      "name": "ordersCanMatch_",
      "outputs": [
        {
          "name": "",
          "type": "bool"
        }
      ],
      "payable": false,
      "stateMutability": "view",
      "type": "function"
    },
    {
      "constant": false,
      "inputs": [
        {
          "name": "addrs",
          "type": "address[7]"
        },
        {
          "name": "uints",
          "type": "uint256[7]"
        },
        {
          "name": "side",
          "type": "uint8"
        },
        {
          "name": "saleKind",
          "type": "uint8"
        },
        {
          "name": "howToCall",
          "type": "uint8"
        },
        {
          "name": "calldata",
          "type": "bytes"
        },
        {
          "name": "replacementPattern",
          "type": "bytes"
        },
        {
          "name": "staticExtradata",
          "type": "bytes"
        },
        {
          "name": "orderbookInclusionDesired",
          "type": "bool"
        }
      ],
      "name": "approveOrder_",
      "outputs": [],
      "payable": false,
      "stateMutability": "nonpayable",
      "type": "function"
    },
    {
      "constant": true,
      "inputs": [
        {
          "name": "array",
          "type": "bytes"
        },
        {
          "name": "desired",
          "type": "bytes"
        },
        {
          "name": "mask",
          "type": "bytes"
        }
      ],
      "name": "guardedArrayReplace",
      "outputs": [
        {
          "name": "",
          "type": "bytes"
        }
      ],
      "payable": false,
      "stateMutability": "pure",
      "type": "function"
    },
    {
      "constant": false,
      "inputs": [
        {
          "name": "addrs",
          "type": "address[7]"
        },
        {
          "name": "uints",
          "type": "uint256[7]"
        },
        {
          "name": "side",
          "type": "uint8"
        },
        {
          "name": "saleKind",
          "type": "uint8"
        },
        {
          "name": "howToCall",
          "type": "uint8"
        },
        {
          "name": "calldata",
          "type": "bytes"
        },
        {
          "name": "replacementPattern",
          "type": "bytes"
        },
        {
          "name": "staticExtradata",
          "type": "bytes"
        },
        {
          "name": "v",
          "type": "uint8"
        },
        {
          "name": "r",
          "type": "bytes32"
        },
        {
          "name": "s",
          "type": "bytes32"
        }
      ],
      "name": "cancelOrder_",
      "outputs": [],
      "payable": false,
      "stateMutability": "nonpayable",
      "type": "function"
    },
    {
      "constant": true,
      "inputs": [
        {
          "name": "",
          "type": "bytes32"
        }
      ],
      "name": "topBids",
      "outputs": [
        {
          "name": "bidder",
          "type": "address"
        },
        {
          "name": "amount",
          "type": "uint256"
        }
      ],
      "payable": false,
      "stateMutability": "view",
      "type": "function"
    },
    {
      "constant": true,
      "inputs": [
        {
          "name": "buyCalldata",
          "type": "bytes"
        },
        {
          "name": "buyReplacementPattern",
          "type": "bytes"
        },
        {
          "name": "sellCalldata",
          "type": "bytes"
        },
        {
          "name": "sellReplacementPattern",
          "type": "bytes"
        }
      ],
      "name": "orderCalldataCanMatch",
      "outputs": [
        {
          "name": "",
          "type": "bool"
        }
      ],
      "payable": false,
      "stateMutability": "pure",
      "type": "function"
    },
    {
      "constant": true,
      "inputs": [
        {
          "name": "addrs",
          "type": "address[14]"
        },
        {
          "name": "uints",
          "type": "uint256[14]"
        },
        {
          "name": "sidesKindsHowToCalls",
          "type": "uint8[6]"
        },
        {
          "name": "calldataBuy",
          "type": "bytes"
        },
        {
          "name": "calldataSell",
          "type": "bytes"
        },
        {
          "name": "replacementPatternBuy",
          "type": "bytes"
        },
        {
          "name": "replacementPatternSell",
          "type": "bytes"
        },
        {
          "name": "staticExtradataBuy",
          "type": "bytes"
        },
        {
          "name": "staticExtradataSell",
          "type": "bytes"
        }
      ],
      "name": "calculateMatchPrice_",
      "outputs": [
        {
          "name": "",
          "type": "uint256"
        }
      ],
      "payable": false,
      "stateMutability": "view",
      "type": "function"
    },
    {
      "constant": true,
      "inputs": [
        {
          "name": "addrs",
          "type": "address[7]"
        },
        {
          "name": "uints",
          "type": "uint256[7]"
        },
        {
          "name": "side",
          "type": "uint8"
        },
        {
          "name": "saleKind",
          "type": "uint8"
        },
        {
          "name": "howToCall",
          "type": "uint8"
        },
        {
          "name": "calldata",
          "type": "bytes"
        },
        {
          "name": "replacementPattern",
          "type": "bytes"
        },
        {
          "name": "staticExtradata",
          "type": "bytes"
        },
        {
          "name": "v",
          "type": "uint8"
        },
        {
          "name": "r",
          "type": "bytes32"
        },
        {
          "name": "s",
          "type": "bytes32"
        }
      ],
      "name": "validateOrder_",
      "outputs": [
        {
          "name": "",
          "type": "bool"
        }
      ],
      "payable": false,
      "stateMutability": "view",
      "type": "function"
    },
    {
      "constant": true,
      "inputs": [],
      "name": "bank",
      "outputs": [
        {
          "name": "",
          "type": "address"
        }
      ],
      "payable": false,
      "stateMutability": "view",
      "type": "function"
    },
    {
      "constant": true,
      "inputs": [],
      "name": "registry",
      "outputs": [
        {
          "name": "",
          "type": "address"
        }
      ],
      "payable": false,
      "stateMutability": "view",
      "type": "function"
    },
    {
      "constant": true,
      "inputs": [
        {
          "name": "",
          "type": "bytes32"
        }
      ],
      "name": "cancelledOrFinalized",
      "outputs": [
        {
          "name": "",
          "type": "bool"
        }
      ],
      "payable": false,
      "stateMutability": "view",
      "type": "function"
    },
    {
      "constant": false,
      "inputs": [
        {
          "name": "addrs",
          "type": "address[14]"
        },
        {
          "name": "uints",
          "type": "uint256[14]"
        },
        {
          "name": "sidesKindsHowToCalls",
          "type": "uint8[6]"
        },
        {
          "name": "calldataBuy",
          "type": "bytes"
        },
        {
          "name": "calldataSell",
          "type": "bytes"
        },
        {
          "name": "replacementPatternBuy",
          "type": "bytes"
        },
        {
          "name": "replacementPatternSell",
          "type": "bytes"
        },
        {
          "name": "staticExtradataBuy",
          "type": "bytes"
        },
        {
          "name": "staticExtradataSell",
          "type": "bytes"
        },
        {
          "name": "vs",
          "type": "uint8[2]"
        },
        {
          "name": "rss",
          "type": "bytes32[4]"
        }
      ],
      "name": "atomicMatch_",
      "outputs": [],
      "payable": false,
      "stateMutability": "nonpayable",
      "type": "function"
    },
    {
      "constant": true,
      "inputs": [
        {
          "name": "",
          "type": "bytes32"
        }
      ],
      "name": "approvedOrders",
      "outputs": [
        {
          "name": "",
          "type": "bool"
        }
      ],
      "payable": false,
      "stateMutability": "view",
      "type": "function"
    },
    {
      "constant": false,
      "inputs": [
        {
          "name": "addrs",
          "type": "address[7]"
        },
        {
          "name": "uints",
          "type": "uint256[7]"
        },
        {
          "name": "side",
          "type": "uint8"
        },
        {
          "name": "saleKind",
          "type": "uint8"
        },
        {
          "name": "howToCall",
          "type": "uint8"
        },
        {
          "name": "calldata",
          "type": "bytes"
        },
        {
          "name": "replacementPattern",
          "type": "bytes"
        },
        {
          "name": "staticExtradata",
          "type": "bytes"
        },
        {
          "name": "v",
          "type": "uint8"
        },
        {
          "name": "r",
          "type": "bytes32"
        },
        {
          "name": "s",
          "type": "bytes32"
        },
        {
          "name": "amount",
          "type": "uint256"
        }
      ],
      "name": "bid_",
      "outputs": [],
      "payable": false,
      "stateMutability": "nonpayable",
      "type": "function"
    },
    {
      "constant": true,
      "inputs": [
        {
          "name": "addrs",
          "type": "address[7]"
        },
        {
          "name": "uints",
          "type": "uint256[7]"
        },
        {
          "name": "side",
          "type": "uint8"
        },
        {
          "name": "saleKind",
          "type": "uint8"
        },
        {
          "name": "howToCall",
          "type": "uint8"
        },
        {
          "name": "calldata",
          "type": "bytes"
        },
        {
          "name": "replacementPattern",
          "type": "bytes"
        },
        {
          "name": "staticExtradata",
          "type": "bytes"
        }
      ],
      "name": "calculateCurrentPrice_",
      "outputs": [
        {
          "name": "",
          "type": "uint256"
        }
      ],
      "payable": false,
      "stateMutability": "view",
      "type": "function"
    },
    {
      "constant": true,
      "inputs": [
        {
          "name": "addrs",
          "type": "address[7]"
        },
        {
          "name": "uints",
          "type": "uint256[7]"
        },
        {
          "name": "side",
          "type": "uint8"
        },
        {
          "name": "saleKind",
          "type": "uint8"
        },
        {
          "name": "howToCall",
          "type": "uint8"
        },
        {
          "name": "calldata",
          "type": "bytes"
        },
        {
          "name": "replacementPattern",
          "type": "bytes"
        },
        {
          "name": "staticExtradata",
          "type": "bytes"
        }
      ],
      "name": "hashOrder_",
      "outputs": [
        {
          "name": "",
          "type": "bytes32"
        }
      ],
      "payable": false,
      "stateMutability": "pure",
      "type": "function"
    },
    {
      "anonymous": false,
      "inputs": [
        {
          "indexed": true,
          "name": "hash",
          "type": "bytes32"
        },
        {
          "indexed": false,
          "name": "exchange",
          "type": "address"
        },
        {
          "indexed": true,
          "name": "maker",
          "type": "address"
        },
        {
          "indexed": false,
          "name": "taker",
          "type": "address"
        },
        {
          "indexed": false,
          "name": "makerFee",
          "type": "uint256"
        },
        {
          "indexed": false,
          "name": "takerFee",
          "type": "uint256"
        },
        {
          "indexed": true,
          "name": "feeRecipient",
          "type": "address"
        },
        {
          "indexed": false,
          "name": "side",
          "type": "uint8"
        },
        {
          "indexed": false,
          "name": "saleKind",
          "type": "uint8"
        },
        {
          "indexed": false,
          "name": "target",
          "type": "address"
        },
        {
          "indexed": false,
          "name": "howToCall",
          "type": "uint8"
        },
        {
          "indexed": false,
          "name": "calldata",
          "type": "bytes"
        }
      ],
      "name": "OrderApprovedPartOne",
      "type": "event"
    },
    {
      "anonymous": false,
      "inputs": [
        {
          "indexed": true,
          "name": "hash",
          "type": "bytes32"
        },
        {
          "indexed": false,
          "name": "replacementPattern",
          "type": "bytes"
        },
        {
          "indexed": false,
          "name": "staticTarget",
          "type": "address"
        },
        {
          "indexed": false,
          "name": "staticExtradata",
          "type": "bytes"
        },
        {
          "indexed": false,
          "name": "paymentToken",
          "type": "address"
        },
        {
          "indexed": false,
          "name": "basePrice",
          "type": "uint256"
        },
        {
          "indexed": false,
          "name": "extra",
          "type": "uint256"
        },
        {
          "indexed": false,
          "name": "listingTime",
          "type": "uint256"
        },
        {
          "indexed": false,
          "name": "expirationTime",
          "type": "uint256"
        },
        {
          "indexed": false,
          "name": "salt",
          "type": "uint256"
        },
        {
          "indexed": false,
          "name": "orderbookInclusionDesired",
          "type": "bool"
        }
      ],
      "name": "OrderApprovedPartTwo",
      "type": "event"
    },
    {
      "anonymous": false,
      "inputs": [
        {
          "indexed": true,
          "name": "hash",
          "type": "bytes32"
        }
      ],
      "name": "OrderCancelled",
      "type": "event"
    },
    {
      "anonymous": false,
      "inputs": [
        {
          "indexed": true,
          "name": "hash",
          "type": "bytes32"
        },
        {
          "indexed": true,
          "name": "bidder",
          "type": "address"
        },
        {
          "indexed": false,
          "name": "amount",
          "type": "uint256"
        }
      ],
      "name": "OrderBidOn",
      "type": "event"
    },
    {
      "anonymous": false,
      "inputs": [
        {
          "indexed": true,
          "name": "buyHash",
          "type": "bytes32"
        },
        {
          "indexed": true,
          "name": "sellHash",
          "type": "bytes32"
        }
      ],
      "name": "OrdersMatched",
      "type": "event"
    }
  ],
  "bytecode": "0x60606040526000805460ff19169055341561001957600080fd5b613ee2806100286000396000f3006060604052600436106100d75763ffffffff60e060020a6000350416630e5d2e2181146100dc578063136f5b5a1461010b5780631665e6b314610335578063239e83df1461047a57806335d91b85146105c6578063532aa1c814610715578063562b2ebc1461074d578063582420bb146108645780637627e94114610a8c57806376cdb03b14610bdb5780637b10399914610bee5780638076f00514610c01578063dfc7209f14610c17578063e57d4adb14610e81578063e6d2bd7b14610e97578063f4c9180714610feb578063f9c29e661461112a575b600080fd5b34156100e757600080fd5b6100ef611269565b604051600160a060020a03909116815260200160405180910390f35b341561011657600080fd5b61032160046101c481600e6101c0604051908101604052919082826101c08082843782019150505050509190806101c00190600e80602002604051908101604052919082826101c080828437820191505050505091908060c001906006806020026040519081016040529190828260c0808284375093959460208082019550903586018082019450359250829150601f8201819004810201604051908101604052818152929190602084018383808284378201915050505050509190803590602001908201803590602001908080601f01602080910402602001604051908101604052818152929190602084018383808284378201915050505050509190803590602001908201803590602001908080601f01602080910402602001604051908101604052818152929190602084018383808284378201915050505050509190803590602001908201803590602001908080601f01602080910402602001604051908101604052818152929190602084018383808284378201915050505050509190803590602001908201803590602001908080601f01602080910402602001604051908101604052818152929190602084018383808284378201915050505050509190803590602001908201803590602001908080601f01602080910402602001604051908101604052818152929190602084018383808284375094965061127d95505050505050565b604051901515815260200160405180910390f35b341561034057600080fd5b610478600460e481600760e06040519081016040529190828260e080828437820191505050505091908060e001906007806020026040519081016040529190828260e08082843750939560ff8635811696602080820135831697506040808301359093169650929450608081019350606001358401808301929035918291601f83018190048102019051908101604052818152929190602084018383808284378201915050505050509190803590602001908201803590602001908080601f01602080910402602001604051908101604052818152929190602084018383808284378201915050505050509190803590602001908201803590602001908080601f0160208091040260200160405190810160405281815292919060208401838380828437509496505050509135151591506115829050565b005b341561048557600080fd5b61054f60046024813581810190830135806020601f8201819004810201604051908101604052818152929190602084018383808284378201915050505050509190803590602001908201803590602001908080601f01602080910402602001604051908101604052818152929190602084018383808284378201915050505050509190803590602001908201803590602001908080601f0160208091040260200160405190810160405281815292919060208401838380828437509496506116bf95505050505050565b60405160208082528190810183818151815260200191508051906020019080838360005b8381101561058b578082015183820152602001610573565b50505050905090810190601f1680156105b85780820380516001836020036101000a031916815260200191505b509250505060405180910390f35b34156105d157600080fd5b610478600460e481600760e06040519081016040529190828260e080828437820191505050505091908060e001906007806020026040519081016040529190828260e08082843750939560ff8635811696602080820135831697506040808301359093169650929450608081019350606001358401808301929035918291601f83018190048102019051908101604052818152929190602084018383808284378201915050505050509190803590602001908201803590602001908080601f01602080910402602001604051908101604052818152929190602084018383808284378201915050505050509190803590602001908201803590602001908080601f0160208091040260200160405190810160405281815292919060208401838380828437509496505060ff85351694602081013594506040013592506116dc915050565b341561072057600080fd5b61072b60043561182d565b604051600160a060020a03909216825260208201526040908101905180910390f35b341561075857600080fd5b61032160046024813581810190830135806020601f8201819004810201604051908101604052818152929190602084018383808284378201915050505050509190803590602001908201803590602001908080601f01602080910402602001604051908101604052818152929190602084018383808284378201915050505050509190803590602001908201803590602001908080601f01602080910402602001604051908101604052818152929190602084018383808284378201915050505050509190803590602001908201803590602001908080601f01602080910402602001604051908101604052818152929190602084018383808284375094965061185295505050505050565b341561086f57600080fd5b610a7a60046101c481600e6101c0604051908101604052919082826101c08082843782019150505050509190806101c00190600e80602002604051908101604052919082826101c080828437820191505050505091908060c001906006806020026040519081016040529190828260c0808284375093959460208082019550903586018082019450359250829150601f8201819004810201604051908101604052818152929190602084018383808284378201915050505050509190803590602001908201803590602001908080601f01602080910402602001604051908101604052818152929190602084018383808284378201915050505050509190803590602001908201803590602001908080601f01602080910402602001604051908101604052818152929190602084018383808284378201915050505050509190803590602001908201803590602001908080601f01602080910402602001604051908101604052818152929190602084018383808284378201915050505050509190803590602001908201803590602001908080601f01602080910402602001604051908101604052818152929190602084018383808284378201915050505050509190803590602001908201803590602001908080601f01602080910402602001604051908101604052818152929190602084018383808284375094965061187f95505050505050565b60405190815260200160405180910390f35b3415610a9757600080fd5b610321600460e481600760e06040519081016040529190828260e080828437820191505050505091908060e001906007806020026040519081016040529190828260e08082843750939560ff8635811696602080820135831697506040808301359093169650929450608081019350606001358401808301929035918291601f83018190048102019051908101604052818152929190602084018383808284378201915050505050509190803590602001908201803590602001908080601f01602080910402602001604051908101604052818152929190602084018383808284378201915050505050509190803590602001908201803590602001908080601f0160208091040260200160405190810160405281815292919060208401838380828437509496505060ff8535169460208101359450604001359250611b73915050565b3415610be657600080fd5b6100ef611ccd565b3415610bf957600080fd5b6100ef611cdc565b3415610c0c57600080fd5b610321600435611ceb565b3415610c2257600080fd5b61047860046101c481600e6101c0604051908101604052919082826101c08082843782019150505050509190806101c00190600e80602002604051908101604052919082826101c080828437820191505050505091908060c001906006806020026040519081016040529190828260c0808284375093959460208082019550903586018082019450359250829150601f8201819004810201604051908101604052818152929190602084018383808284378201915050505050509190803590602001908201803590602001908080601f01602080910402602001604051908101604052818152929190602084018383808284378201915050505050509190803590602001908201803590602001908080601f01602080910402602001604051908101604052818152929190602084018383808284378201915050505050509190803590602001908201803590602001908080601f01602080910402602001604051908101604052818152929190602084018383808284378201915050505050509190803590602001908201803590602001908080601f01602080910402602001604051908101604052818152929190602084018383808284378201915050505050509190803590602001908201803590602001908080601f01602080910402602001604051908101604052818152929190602084018383808284378201915050505050509190806040019060028060200260405190810160405280929190826002602002808284378201915050505050919080608001906004806020026040519081016040529190828260808082843750939550611d00945050505050565b3415610e8c57600080fd5b610321600435612030565b3415610ea257600080fd5b610478600460e481600760e06040519081016040529190828260e080828437820191505050505091908060e001906007806020026040519081016040529190828260e08082843750939560ff8635811696602080820135831697506040808301359093169650929450608081019350606001358401808301929035918291601f83018190048102019051908101604052818152929190602084018383808284378201915050505050509190803590602001908201803590602001908080601f01602080910402602001604051908101604052818152929190602084018383808284378201915050505050509190803590602001908201803590602001908080601f0160208091040260200160405190810160405281815292919060208401838380828437509496505050833560ff16936020810135935060408101359250606001359050612045565b3415610ff657600080fd5b610a7a600460e481600760e06040519081016040529190828260e080828437820191505050505091908060e001906007806020026040519081016040529190828260e08082843750939560ff8635811696602080820135831697506040808301359093169650929450608081019350606001358401808301929035918291601f83018190048102019051908101604052818152929190602084018383808284378201915050505050509190803590602001908201803590602001908080601f01602080910402602001604051908101604052818152929190602084018383808284378201915050505050509190803590602001908201803590602001908080601f01602080910402602001604051908101604052818152929190602084018383808284375094965061219895505050505050565b341561113557600080fd5b610a7a600460e481600760e06040519081016040529190828260e080828437820191505050505091908060e001906007806020026040519081016040529190828260e08082843750939560ff8635811696602080820135831697506040808301359093169650929450608081019350606001358401808301929035918291601f83018190048102019051908101604052818152929190602084018383808284378201915050505050509190803590602001908201803590602001908080601f01602080910402602001604051908101604052818152929190602084018383808284378201915050505050509190803590602001908201803590602001908080601f0160208091040260200160405190810160405281815292919060208401838380828437509496506122cc95505050505050565b6000546101009004600160a060020a031681565b6000611287613dc3565b61128f613dc3565b6000610280604051908101604052808e51600160a060020a031681526020018e60016020020151600160a060020a0316815260200160408f0151600160a060020a031681526020018d5181526020018d60016020020151815260200160608f0151600160a060020a031681526020018c5160ff16600181111561130e57fe5b600181111561131957fe5b81526020018c6001602002015160ff16600281111561133457fe5b600281111561133f57fe5b815260200160808f0151600160a060020a0316815260200160408d015160ff16600181111561136a57fe5b600181111561137557fe5b8152602081018c9052604081018a905260600160a08f0151600160a060020a031681526020810188905260400160c08f0151600160a060020a0316815260200160408e0151815260200160608e0151815260200160808e0151815260200160a08e0151815260200160c08e0151905292506102806040519081016040528060e08f0151600160a060020a031681526020016101008f0151600160a060020a031681526020016101208f0151600160a060020a0316815260200160e08e015181526020016101008e015181526020016101408f0151600160a060020a0316815260200160608d015160ff16600181111561146a57fe5b600181111561147557fe5b815260200160808d015160ff16600281111561148d57fe5b600281111561149857fe5b81526020016101608f0151600160a060020a0316815260200160a08d015160ff1660018111156114c457fe5b60018111156114cf57fe5b8152602081018b9052604081018990526060016101808f0151600160a060020a03168152602081018790526040016101a08f0151600160a060020a031681526020016101208e015181526020016101408e015181526020016101608e015181526020016101808e015181526020016101a08e01519052915060036000611554846123ef565b815260208101919091526040016000209050611571838383612421565b9d9c50505050505050505050505050565b61158a613dc3565b610280604051908101604052808b51600160a060020a031681526020018b60016020020151600160a060020a0316815260200160408c0151600160a060020a031681526020018a5181526020018a60016020020151815260200160608c0151600160a060020a0316815260200189600181111561160357fe5b815260200188600281111561161457fe5b815260200160808c0151600160a060020a0316815260200187600181111561163857fe5b8152602081018790526040810186905260600160a08c0151600160a060020a031681526020810185905260400160c08c0151600160a060020a0316815260200160408b0151815260200160608b0151815260200160808b0151815260200160a08b0151815260200160c08b0151905290506116b38183612619565b50505050505050505050565b6116c7613e7b565b6116d2848484612965565b50825b9392505050565b611820610280604051908101604052808d51600160a060020a031681526020018d60016020020151600160a060020a0316815260200160408e0151600160a060020a031681526020018c5181526020018c60016020020151815260200160608e0151600160a060020a031681526020018b600181111561175857fe5b81526020018a600281111561176957fe5b815260200160808e0151600160a060020a0316815260200189600181111561178d57fe5b8152602081018990526040810188905260600160a08e0151600160a060020a031681526020810187905260400160c08e0151600160a060020a0316815260200160408d0151815260200160608d0151815260200160808d0151815260200160a08d0151815260200160c08d015190526060604051908101604090815260ff87168252602082018690528101849052612b90565b5050505050505050505050565b60036020526000908152604090208054600190910154600160a060020a039091169082565b600061185f858486612965565b61186a838684612965565b6118748584612c0f565b90505b949350505050565b6000611889613dc3565b611891613dc3565b6000610280604051908101604052808e51600160a060020a031681526020018e60016020020151600160a060020a0316815260200160408f0151600160a060020a031681526020018d5181526020018d60016020020151815260200160608f0151600160a060020a031681526020018c5160ff16600181111561191057fe5b600181111561191b57fe5b81526020018c6001602002015160ff16600281111561193657fe5b600281111561194157fe5b815260200160808f0151600160a060020a0316815260200160408d015160ff16600181111561196c57fe5b600181111561197757fe5b8152602081018c9052604081018a905260600160a08f0151600160a060020a031681526020810188905260400160c08f0151600160a060020a0316815260200160408e0151815260200160608e0151815260200160808e0151815260200160a08e0151815260200160c08e0151905292506102806040519081016040528060e08f0151600160a060020a031681526020016101008f0151600160a060020a031681526020016101208f0151600160a060020a0316815260200160e08e015181526020016101008e015181526020016101408f0151600160a060020a0316815260200160608d015160ff166001811115611a6c57fe5b6001811115611a7757fe5b815260200160808d015160ff166002811115611a8f57fe5b6002811115611a9a57fe5b81526020016101608f0151600160a060020a0316815260200160a08d015160ff166001811115611ac657fe5b6001811115611ad157fe5b8152602081018b9052604081018990526060016101808f0151600160a060020a03168152602081018790526040016101a08f0151600160a060020a031681526020016101208e015181526020016101408e015181526020016101608e015181526020016101808e015181526020016101a08e01519052915060036000611b56846123ef565b815260208101919091526040016000209050611571838383612ca5565b6000611b7d613dc3565b610280604051908101604052808e51600160a060020a031681526020018e60016020020151600160a060020a0316815260200160408f0151600160a060020a031681526020018d5181526020018d60016020020151815260200160608f0151600160a060020a031681526020018c6001811115611bf657fe5b81526020018b6002811115611c0757fe5b815260200160808f0151600160a060020a031681526020018a6001811115611c2b57fe5b8152602081018a90526040810189905260600160a08f0151600160a060020a031681526020810188905260400160c08f0151600160a060020a0316815260200160408e0151815260200160608e0151815260200160808e0151815260200160a08e0151815260200160c08e015190529050611571611ca882612d78565b826060604051908101604090815260ff8a168252602082018990528101879052612e2d565b600254600160a060020a031681565b600154600160a060020a031681565b60046020526000908152604090205460ff1681565b611d08613dc3565b611d10613dc3565b610280604051908101604052808e51600160a060020a031681526020018e60016020020151600160a060020a0316815260200160408f0151600160a060020a031681526020018d5181526020018d60016020020151815260200160608f0151600160a060020a031681526020018c5160ff166001811115611d8d57fe5b6001811115611d9857fe5b81526020018c6001602002015160ff166002811115611db357fe5b6002811115611dbe57fe5b815260200160808f0151600160a060020a0316815260200160408d015160ff166001811115611de957fe5b6001811115611df457fe5b8152602081018c9052604081018a905260600160a08f0151600160a060020a031681526020810188905260400160c08f0151600160a060020a0316815260200160408e0151815260200160608e0151815260200160808e0151815260200160a08e0151815260200160c08e0151905291506102806040519081016040528060e08f0151600160a060020a031681526020016101008f0151600160a060020a031681526020016101208f0151600160a060020a0316815260200160e08e015181526020016101008e015181526020016101408f0151600160a060020a0316815260200160608d015160ff166001811115611ee957fe5b6001811115611ef457fe5b815260200160808d015160ff166002811115611f0c57fe5b6002811115611f1757fe5b81526020016101608f0151600160a060020a0316815260200160a08d015160ff166001811115611f4357fe5b6001811115611f4e57fe5b8152602081018b9052604081018990526060016101808f0151600160a060020a03168152602081018790526040016101a08f0151600160a060020a031681526020016101208e015181526020016101408e015181526020016101608e015181526020016101808e015181526020016101a08e01519052905061202182606060405190810160405280875160ff16815260200186518152602001866001602002015190528360606040519081016040528060208a015160ff1681526020016040890151815260200160608901519052612f81565b50505050505050505050505050565b60056020526000908152604090205460ff1681565b61218a610280604051908101604052808e51600160a060020a031681526020018e60016020020151600160a060020a0316815260200160408f0151600160a060020a031681526020018d5181526020018d60016020020151815260200160608f0151600160a060020a031681526020018c60018111156120c157fe5b81526020018b60028111156120d257fe5b815260200160808f0151600160a060020a031681526020018a60018111156120f657fe5b8152602081018a90526040810189905260600160a08f0151600160a060020a031681526020810188905260400160c08f0151600160a060020a0316815260200160408e0151815260200160608e0151815260200160808e0151815260200160a08e0151815260200160c08e015190526060604051908101604090815260ff88168252602082018790528101859052836132a7565b505050505050505050505050565b60006122bf610280604051908101604052808b51600160a060020a031681526020018b60016020020151600160a060020a0316815260200160408c0151600160a060020a031681526020018a5181526020018a60016020020151815260200160608c0151600160a060020a0316815260200189600181111561221657fe5b815260200188600281111561222757fe5b815260200160808c0151600160a060020a0316815260200187600181111561224b57fe5b8152602081018790526040810186905260600160a08c0151600160a060020a031681526020810185905260400160c08c0151600160a060020a0316815260200160408b0151815260200160608b0151815260200160808b0151815260200160a08b0151815260200160c08b015190526134da565b9998505050505050505050565b60006122bf610280604051908101604052808b51600160a060020a031681526020018b60016020020151600160a060020a0316815260200160408c0151600160a060020a031681526020018a5181526020018a60016020020151815260200160608c0151600160a060020a0316815260200189600181111561234a57fe5b815260200188600281111561235b57fe5b815260200160808c0151600160a060020a0316815260200187600181111561237f57fe5b8152602081018790526040810186905260600160a08c0151600160a060020a031681526020810185905260400160c08c0151600160a060020a0316815260200160408b0151815260200160608b0151815260200160808b0151815260200160a08b0151815260200160c08b015190525b60006123fa82613548565b612403836136ff565b60405191825260208201526040908101905180910390209050919050565b6000808460c00151600181111561243457fe5b148015612450575060018360c00151600181111561244e57fe5b145b80156124775750826101c00151600160a060020a0316846101c00151600160a060020a0316145b80156124b3575060006040840151600160a060020a031614806124b357508360200151600160a060020a03168360400151600160a060020a0316145b80156124ef575060006040850151600160a060020a031614806124ef57508260200151600160a060020a03168460400151600160a060020a0316145b80156125525750600060a0840151600160a060020a03161480156125215750600060a0850151600160a060020a031614155b806125525750600060a0840151600160a060020a0316141580156125525750600060a0850151600160a060020a0316145b80156125795750826101000151600160a060020a0316846101000151600160a060020a0316145b80156125a45750826101200151600181111561259157fe5b84610120015160018111156125a257fe5b145b80156125d757506125d78460e00151846020015186610240015160408051908101604052600080825260208201526137fe565b801561187757506118778360e00151856020015185610240015185604080519081016040528154600160a060020a0316815260019091015460208201526137fe565b60008260200151600160a060020a031633600160a060020a031614151561263f57600080fd5b61264883612d78565b60008181526005602052604090205490915060ff161561266757600080fd5b6000818152600560205260409020805460ff1916600117905560a0830151600160a060020a03168360200151600160a060020a0316827faee3673166cb20f9607e8257375d5244a4f82611eb34a8319dd0b527e89460bf86518760400151886060015189608001518a60c001518b60e001518c61010001518d61012001518e6101400151604051600160a060020a03808b1682528916602082015260408101889052606081018790526080810186600181111561272057fe5b60ff16815260200185600281111561273457fe5b60ff168152600160a060020a038516602082015260400183600181111561275757fe5b60ff16815260200180602001828103825283818151815260200191508051906020019080838360005b83811015612798578082015183820152602001612780565b50505050905090810190601f1680156127c55780820380516001836020036101000a031916815260200191505b509a505050505050505050505060405180910390a4807f6b227a8fe336bb14cfe503246633ca4550cd8065f1933a5ffaf83a955eaa40ed610160850151856101800151866101a00151876101c00151886101e001518961020001518a61022001518b61024001518c61026001518c604051600160a060020a03808b166020830152881660608201526080810187905260a0810186905260c0810185905260e0810184905261010081018390528115156101208201526101408082528190604082019082018d818151815260200191508051906020019080838360005b838110156128b95780820151838201526020016128a1565b50505050905090810190601f1680156128e65780820380516001836020036101000a031916815260200191505b5083810382528b818151815260200191508051906020019080838360005b8381101561291c578082015183820152602001612904565b50505050905090810190601f1680156129495780820380516001836020036101000a031916815260200191505b509c5050505050505050505050505060405180910390a2505050565b61296d613e8d565b60008061010060405190810160409081527f800000000000000000000000000000000000000000000000000000000000000082527f400000000000000000000000000000000000000000000000000000000000000060208301527f2000000000000000000000000000000000000000000000000000000000000000908201527f100000000000000000000000000000000000000000000000000000000000000060608201527f080000000000000000000000000000000000000000000000000000000000000060808201527f040000000000000000000000000000000000000000000000000000000000000060a08201527f020000000000000000000000000000000000000000000000000000000000000060c082015260f860020a60e082015292508451865114612a9e57600080fd5b60088651811515612aab57fe5b0484511015612ab957600080fd5b600091505b8551821015612b8857826008830660088110612ad657fe5b6020020151846008840481518110612aea57fe5b016020015160f860020a900460f860020a0216600160f860020a031916600060f860020a0214905080612b3a57848281518110612b2357fe5b016020015160f860020a900460f860020a02612b59565b858281518110612b4657fe5b016020015160f860020a900460f860020a025b868381518110612b6557fe5b906020010190600160f860020a031916908160001a905350600190910190612abe565b505050505050565b6000612b9c838361384f565b90508260200151600160a060020a031633600160a060020a0316141515612bc257600080fd5b60008181526004602052604090819020805460ff1916600117905581907f5152abf959f6564662358c2e52b702259b78bac5ee7842a0f01937e670efcc7d905160405180910390a2505050565b6000808251845114612c245760009150612c9e565b5060005b8351811015612c9957828181518110612c3d57fe5b016020015160f860020a900460f860020a02600160f860020a031916848281518110612c6557fe5b016020015160f860020a900460f860020a02600160f860020a031916141515612c915760009150612c9e565b600101612c28565b600191505b5092915050565b6000806000612cf78560c001518660e00151876101e001518861020001518961022001518a61024001518a604080519081016040528154600160a060020a031681526001909101546020820152613873565b9150612d468660c001518760e00151886101e001518961020001518a61022001518b61024001518a604080519081016040528154600160a060020a031681526001909101546020820152613873565b905081811015612d5557600080fd5b85610220015185610220015110612d6c5780612d6e565b815b9695505050505050565b6000612d82613e7b565b600060408051908101604052601c81527f19457468657265756d205369676e6564204d6573736167653a0a3332000000006020820152915081612dc4856123ef565b6040518083805190602001908083835b60208310612df35780518252601f199092019160209182019101612dd4565b6001836020036101000a03801982511681845116179092525050509190910192835250506020019050604051908190039020949350505050565b6000600160a060020a0330168351600160a060020a031614612e51575060006116d5565b60008481526004602052604090205460ff1615612e70575060006116d5565b612e888360c001518460e00151856102400151613921565b1515612e96575060006116d5565b8260200151600160a060020a031633600160a060020a03161415612ebc575060016116d5565b60008481526005602052604090205460ff1615612edb575060016116d5565b8260200151600160a060020a03166001858451856020015186604001516040516000815260200160405260006040516020015260405193845260ff90921660208085019190915260408085019290925260608401929092526080909201915160208103908084039060008661646e5a03f11515612f5757600080fd5b505060206040510351600160a060020a03161415612f77575060016116d5565b5060009392505050565b600080600080612f91888861384f565b9350612f9d868661384f565b60008181526003602052604090209093509150612fbb888784612421565b1515612fc657600080fd5b612fe08861014001518761014001518a6101600151612965565b612ffa866101400151896101400151886101600151612965565b61300e886101400151876101400151612c0f565b151561301957600080fd5b600154600160a060020a031663c4552791602088015160006040516020015260405160e060020a63ffffffff8416028152600160a060020a039091166004820152602401602060405180830381600087803b151561307657600080fd5b6102c65a03f1151561308757600080fd5b5050506040518051915050600160a060020a03811615156130a757600080fd5b6000848152600460205260408082208054600160ff19918216811790925586845291909220805490911690911790556130e1888784613970565b80600160a060020a0316631b0f7ba98761010001518861012001518961014001516000604051602001526040518463ffffffff1660e060020a0281526004018084600160a060020a0316600160a060020a0316815260200183600181111561314557fe5b60ff16815260200180602001828103825283818151815260200191508051906020019080838360005b8381101561318657808201518382015260200161316e565b50505050905090810190601f1680156131b35780820380516001836020036101000a031916815260200191505b50945050505050602060405180830381600087803b15156131d357600080fd5b6102c65a03f115156131e457600080fd5b5050506040518051905015156131f957600080fd5b6000610180890151600160a060020a031614613234576132298861018001518761014001518a6101a00151613bbd565b151561323457600080fd5b6000610180870151600160a060020a03161461326f57613264866101800151876101400151886101a00151613bbd565b151561326f57600080fd5b82847f0ac43ae443462c4ede260ad38899e594fa78238f3252539851b7b4395f3b043e60405160405180910390a35050505050505050565b60008060006132b6868661384f565b6000818152600360205260409020909350915061331060c08701518760e00151886101e001518961020001518a610240015187604080519081016040528154600160a060020a031681526001909101546020820152613cc2565b90508084101561331f57600080fd5b604080519081016040908152600160a060020a0333168252602080830187905260008681526003909152208151815473ffffffffffffffffffffffffffffffffffffffff1916600160a060020a03919091161781556020820151600190910155508154600160a060020a031615613417576002548254600160a060020a0391821691639577bffa91166101c0890151856001015460405160e060020a63ffffffff8616028152600160a060020a0393841660048201529190921660248201526044810191909152606401600060405180830381600087803b151561340257600080fd5b6102c65a03f1151561341357600080fd5b5050505b600254600160a060020a0316635a8158e2336101c08901518760405160e060020a63ffffffff8616028152600160a060020a0393841660048201529190921660248201526044810191909152606401600060405180830381600087803b151561347f57600080fd5b6102c65a03f1151561349057600080fd5b5050600160a060020a0333169050837fff38b86de5d69f2775369319139dcab1f44807defd694708dd58e5d96ecd7c158660405190815260200160405180910390a3505050505050565b60008060006134e8846123ef565b6000818152600360205260409020909250905061187760c08501518560e00151866101e0015187610200015188610220015189610240015187604080519081016040528154600160a060020a031681526001909101546020820152613873565b6000815182602001518360400151846060015185608001518660a001518760c001518860e001518961010001518a61012001518b61014001518c61016001516040516c01000000000000000000000000600160a060020a03808f16820283528d8116820260148401528c811682026028840152603c83018c9052605c83018b9052891602607c820152609081018760018111156135e157fe5b60ff1660f860020a0281526001018660028111156135fb57fe5b60ff1660f860020a02815260010185600160a060020a0316600160a060020a03166c0100000000000000000000000002815260140184600181111561363c57fe5b60ff1660f860020a02815260010183805190602001908083835b602083106136755780518252601f199092019160209182019101613656565b6001836020036101000a038019825116818451161790925250505091909101905082805190602001908083835b602083106136c15780518252601f1990920191602091820191016136a2565b6001836020036101000a0380198251168184511617909252505050919091019d5060409c505050505050505050505050505180910390209050919050565b6000816101800151826101a00151836101c00151846101e001518561020001518661022001518761024001518861026001516040516c01000000000000000000000000600160a060020a038a160281526014810188805190602001908083835b6020831061377e5780518252601f19909201916020918201910161375f565b6001836020036101000a03801982511681845116808217855250505050505090500187600160a060020a0316600160a060020a03166c010000000000000000000000000281526014018681526020018581526020018481526020018381526020018281526020019850505050505050505060405180910390209050919050565b6000600185600281111561380e57fe5b141561383d578151600160a060020a031684600160a060020a03161480156138365750824210155b9050611877565b82158061383657508242109050611877565b60008061385b84612d78565b9050613868818585612e2d565b15156116d557600080fd5b6000808088600281111561388357fe5b141561389157869150613915565b600188600281111561389f57fe5b14156138c95760008351600160a060020a031614156138bd57600080fd5b82602001519150613915565b60028860028111156138d757fe5b14156100d75784840385420387028115156138ee57fe5b04905060018960018111156138ff57fe5b141561390f578087039150613915565b80870191505b50979650505050505050565b6000600183600281111561393157fe5b1415806139495750600184600181111561394757fe5b145b80156118775750600083600281111561395e57fe5b14806118775750506000901192915050565b600061397d848484612ca5565b9050600060a0840151600160a060020a0316146139dc578360800151836080015111156139a957600080fd5b6139c083602001518460a001518560600151613d2c565b6139d784602001518460a001518560800151613d2c565b613a1f565b8260800151846080015111156139f157600080fd5b613a0884602001518560a001518660600151613d2c565b613a1f83602001518560a001518660800151613d2c565b8154600160a060020a031615613ab6576002548254600160a060020a0391821691639577bffa91166101c0860151856001015460405160e060020a63ffffffff8616028152600160a060020a0393841660048201529190921660248201526044810191909152606401600060405180830381600087803b1515613aa157600080fd5b6102c65a03f11515613ab257600080fd5b5050505b600254600160a060020a031663cb5f26436020860151856101c001518460405160e060020a63ffffffff8616028152600160a060020a0393841660048201529190921660248201526044810191909152606401600060405180830381600087803b1515613b2257600080fd5b6102c65a03f11515613b3357600080fd5b5050600254600160a060020a0316905063034422ef6020850151856101c001518460405160e060020a63ffffffff8616028152600160a060020a0393841660048201529190921660248201526044810191909152606401600060405180830381600087803b1515613ba357600080fd5b6102c65a03f11515613bb457600080fd5b50505050505050565b6000613bc7613e7b565b60008060008551875101604051805910613bde5750595b818152601f19601f83011681016020016040529050935083519250600091505b8651821015613c5457868281518110613c1357fe5b016020015160f860020a900460f860020a02848381518110613c3157fe5b906020010190600160f860020a031916908160001a905350600190910190613bfe565b5060005b8551811015613cae57858181518110613c6d57fe5b016020015160f860020a900460f860020a02848851830181518110613c8e57fe5b906020010190600160f860020a031916908160001a905350600101613c58565b60008484868b5afa98975050505050505050565b60006001876001811115613cd257fe5b148015613cea57506001866002811115613ce857fe5b145b8015613cf557508242105b1515613d0057600080fd5b60008251600160a060020a03161415613d1a575083612d6e565b83826020015101979650505050505050565b6000811115613dbe57600254600054600160a060020a039182169163f49ec96191869186916101009004168560405160e060020a63ffffffff8716028152600160a060020a0394851660048201529284166024840152921660448201526064810191909152608401600060405180830381600087803b1515613dad57600080fd5b6102c65a03f11515612b8857600080fd5b505050565b6102806040519081016040908152600080835260208301819052908201819052606082018190526080820181905260a0820181905260c0820181905260e0820181905261010082018190526101208201526101408101613e21613e7b565b8152602001613e2e613e7b565b815260006020820152604001613e42613e7b565b81526020016000600160a060020a0316815260200160008152602001600081526020016000815260200160008152602001600081525090565b60206040519081016040526000815290565b6101006040519081016040526008815b600081526000199091019060200181613e9d57905050905600a165627a7a72305820ee3dedc18fcc358a387f64f4cf493ce9547a40061c4c232db3bf235cf65e96cb0029",
  "source": "/*\n  \n  Exchange (outer contract with public functions).\n \n*/\n\npragma solidity 0.4.18;\n\nimport \"./ExchangeCore.sol\";\n\n/**\n * @title Exchange\n * @author Project Wyvern Developers\n */\ncontract Exchange is ExchangeCore {\n\n    /* Inline library function exposed for testing. */\n    function guardedArrayReplace(bytes array, bytes desired, bytes mask)\n        public\n        pure\n        returns (bytes)\n    {\n        ArrayUtils.guardedArrayReplace(array, desired, mask);\n        return array;\n    }\n\n    /* Solidity ABI encoding limitation workaround, hopefully temporary. */\n    function hashOrder_(\n        address[7] addrs,\n        uint[7] uints,\n        SaleKindInterface.Side side,\n        SaleKindInterface.SaleKind saleKind,\n        AuthenticatedProxy.HowToCall howToCall,\n        bytes calldata,\n        bytes replacementPattern,\n        bytes staticExtradata)\n        public\n        pure\n        returns (bytes32)\n    { \n        return hashOrder(\n          Order(addrs[0], addrs[1], addrs[2], uints[0], uints[1], addrs[3], side, saleKind, addrs[4], howToCall, calldata, replacementPattern, addrs[5], staticExtradata, ERC20(addrs[6]), uints[2], uints[3], uints[4], uints[5], uints[6])\n        );\n    }\n\n    /* Solidity ABI encoding limitation workaround, hopefully temporary. */\n    function validateOrder_ (\n        address[7] addrs,\n        uint[7] uints,\n        SaleKindInterface.Side side,\n        SaleKindInterface.SaleKind saleKind,\n        AuthenticatedProxy.HowToCall howToCall,\n        bytes calldata,\n        bytes replacementPattern,\n        bytes staticExtradata,\n        uint8 v,\n        bytes32 r,\n        bytes32 s)\n        view\n        public\n        returns (bool)\n    {\n        Order memory order = Order(addrs[0], addrs[1], addrs[2], uints[0], uints[1], addrs[3], side, saleKind, addrs[4], howToCall, calldata, replacementPattern, addrs[5], staticExtradata, ERC20(addrs[6]), uints[2], uints[3], uints[4], uints[5], uints[6]);\n        return validateOrder(\n          hashToSign(order),\n          order,\n          Sig(v, r, s)\n        );\n    }\n\n    /* Solidity ABI encoding limitation workaround, hopefully temporary. */\n    function approveOrder_ (\n        address[7] addrs,\n        uint[7] uints,\n        SaleKindInterface.Side side,\n        SaleKindInterface.SaleKind saleKind,\n        AuthenticatedProxy.HowToCall howToCall,\n        bytes calldata,\n        bytes replacementPattern,\n        bytes staticExtradata,\n        bool orderbookInclusionDesired) \n        public\n    {\n        Order memory order = Order(addrs[0], addrs[1], addrs[2], uints[0], uints[1], addrs[3], side, saleKind, addrs[4], howToCall, calldata, replacementPattern, addrs[5], staticExtradata, ERC20(addrs[6]), uints[2], uints[3], uints[4], uints[5], uints[6]);\n        return approveOrder(order, orderbookInclusionDesired);\n    }\n\n    /* Solidity ABI encoding limitation workaround, hopefully temporary. */\n    function cancelOrder_(\n        address[7] addrs,\n        uint[7] uints,\n        SaleKindInterface.Side side,\n        SaleKindInterface.SaleKind saleKind,\n        AuthenticatedProxy.HowToCall howToCall,\n        bytes calldata,\n        bytes replacementPattern,\n        bytes staticExtradata,\n        uint8 v,\n        bytes32 r,\n        bytes32 s)\n        public\n    {\n\n        return cancelOrder(\n          Order(addrs[0], addrs[1], addrs[2], uints[0], uints[1], addrs[3], side, saleKind, addrs[4], howToCall, calldata, replacementPattern, addrs[5], staticExtradata, ERC20(addrs[6]), uints[2], uints[3], uints[4], uints[5], uints[6]),\n          Sig(v, r, s)\n        );\n    }\n\n    /* Solidity ABI encoding limitation workaround, hopefully temporary. */\n    function bid_(\n        address[7] addrs,\n        uint[7] uints,\n        SaleKindInterface.Side side,\n        SaleKindInterface.SaleKind saleKind,\n        AuthenticatedProxy.HowToCall howToCall,\n        bytes calldata,\n        bytes replacementPattern,\n        bytes staticExtradata,\n        uint8 v,\n        bytes32 r,\n        bytes32 s,\n        uint amount)\n        public\n    {\n        return bid(\n          Order(addrs[0], addrs[1], addrs[2], uints[0], uints[1], addrs[3], side, saleKind, addrs[4], howToCall, calldata, replacementPattern, addrs[5], staticExtradata, ERC20(addrs[6]), uints[2], uints[3], uints[4], uints[5], uints[6]),\n          Sig(v, r, s),\n          amount\n        );\n    }\n\n    /* Solidity ABI encoding limitation workaround, hopefully temporary. */\n    function calculateCurrentPrice_(\n        address[7] addrs,\n        uint[7] uints,\n        SaleKindInterface.Side side,\n        SaleKindInterface.SaleKind saleKind,\n        AuthenticatedProxy.HowToCall howToCall,\n        bytes calldata,\n        bytes replacementPattern,\n        bytes staticExtradata)\n        public\n        view\n        returns (uint)\n    {\n        return calculateCurrentPrice(\n          Order(addrs[0], addrs[1], addrs[2], uints[0], uints[1], addrs[3], side, saleKind, addrs[4], howToCall, calldata, replacementPattern, addrs[5], staticExtradata, ERC20(addrs[6]), uints[2], uints[3], uints[4], uints[5], uints[6])\n        );\n    }\n\n    /* Solidity ABI encoding limitation workaround, hopefully temporary. */\n    function ordersCanMatch_(\n        address[14] addrs,\n        uint[14] uints,\n        uint8[6] sidesKindsHowToCalls,\n        bytes calldataBuy,\n        bytes calldataSell,\n        bytes replacementPatternBuy,\n        bytes replacementPatternSell,\n        bytes staticExtradataBuy,\n        bytes staticExtradataSell)\n        public\n        view\n        returns (bool)\n    {\n        Order memory buy = Order(addrs[0], addrs[1], addrs[2], uints[0], uints[1], addrs[3], SaleKindInterface.Side(sidesKindsHowToCalls[0]), SaleKindInterface.SaleKind(sidesKindsHowToCalls[1]), addrs[4], AuthenticatedProxy.HowToCall(sidesKindsHowToCalls[2]), calldataBuy, replacementPatternBuy, addrs[5], staticExtradataBuy, ERC20(addrs[6]), uints[2], uints[3], uints[4], uints[5], uints[6]);\n        Order memory sell = Order(addrs[7], addrs[8], addrs[9], uints[7], uints[8], addrs[10], SaleKindInterface.Side(sidesKindsHowToCalls[3]), SaleKindInterface.SaleKind(sidesKindsHowToCalls[4]), addrs[11], AuthenticatedProxy.HowToCall(sidesKindsHowToCalls[5]), calldataSell, replacementPatternSell, addrs[12], staticExtradataSell, ERC20(addrs[13]), uints[9], uints[10], uints[11], uints[12], uints[13]);\n        SaleKindInterface.Bid storage topBid = topBids[hashOrder(sell)];\n        return ordersCanMatch(\n          buy,\n          sell,\n          topBid\n        );\n    }\n\n    function orderCalldataCanMatch(bytes buyCalldata, bytes buyReplacementPattern, bytes sellCalldata, bytes sellReplacementPattern)\n        public\n        pure\n        returns (bool)\n    {\n        ArrayUtils.guardedArrayReplace(buyCalldata, sellCalldata, buyReplacementPattern);\n        ArrayUtils.guardedArrayReplace(sellCalldata, buyCalldata, sellReplacementPattern);\n        return ArrayUtils.arrayEq(buyCalldata, sellCalldata);\n    }\n\n    /* Solidity ABI encoding limitation workaround, hopefully temporary. */\n    function calculateMatchPrice_(\n        address[14] addrs,\n        uint[14] uints,\n        uint8[6] sidesKindsHowToCalls,\n        bytes calldataBuy,\n        bytes calldataSell,\n        bytes replacementPatternBuy,\n        bytes replacementPatternSell,\n        bytes staticExtradataBuy,\n        bytes staticExtradataSell)\n        public\n        view\n        returns (uint)\n    {\n        Order memory buy = Order(addrs[0], addrs[1], addrs[2], uints[0], uints[1], addrs[3], SaleKindInterface.Side(sidesKindsHowToCalls[0]), SaleKindInterface.SaleKind(sidesKindsHowToCalls[1]), addrs[4], AuthenticatedProxy.HowToCall(sidesKindsHowToCalls[2]), calldataBuy, replacementPatternBuy, addrs[5], staticExtradataBuy, ERC20(addrs[6]), uints[2], uints[3], uints[4], uints[5], uints[6]);\n        Order memory sell = Order(addrs[7], addrs[8], addrs[9], uints[7], uints[8], addrs[10], SaleKindInterface.Side(sidesKindsHowToCalls[3]), SaleKindInterface.SaleKind(sidesKindsHowToCalls[4]), addrs[11], AuthenticatedProxy.HowToCall(sidesKindsHowToCalls[5]), calldataSell, replacementPatternSell, addrs[12], staticExtradataSell, ERC20(addrs[13]), uints[9], uints[10], uints[11], uints[12], uints[13]);\n        SaleKindInterface.Bid storage topBid = topBids[hashOrder(sell)];\n        return calculateMatchPrice(\n          buy,\n          sell,\n          topBid\n        );\n    }\n\n    /* Solidity ABI encoding limitation workaround, hopefully temporary. */\n    function atomicMatch_(\n        address[14] addrs,\n        uint[14] uints,\n        uint8[6] sidesKindsHowToCalls,\n        bytes calldataBuy,\n        bytes calldataSell,\n        bytes replacementPatternBuy,\n        bytes replacementPatternSell,\n        bytes staticExtradataBuy,\n        bytes staticExtradataSell,\n        uint8[2] vs,\n        bytes32[4] rss)\n        public\n    {\n        Order memory buy = Order(addrs[0], addrs[1], addrs[2], uints[0], uints[1], addrs[3], SaleKindInterface.Side(sidesKindsHowToCalls[0]), SaleKindInterface.SaleKind(sidesKindsHowToCalls[1]), addrs[4], AuthenticatedProxy.HowToCall(sidesKindsHowToCalls[2]), calldataBuy, replacementPatternBuy, addrs[5], staticExtradataBuy, ERC20(addrs[6]), uints[2], uints[3], uints[4], uints[5], uints[6]);\n        Order memory sell = Order(addrs[7], addrs[8], addrs[9], uints[7], uints[8], addrs[10], SaleKindInterface.Side(sidesKindsHowToCalls[3]), SaleKindInterface.SaleKind(sidesKindsHowToCalls[4]), addrs[11], AuthenticatedProxy.HowToCall(sidesKindsHowToCalls[5]), calldataSell, replacementPatternSell, addrs[12], staticExtradataSell, ERC20(addrs[13]), uints[9], uints[10], uints[11], uints[12], uints[13]);\n        return atomicMatch(\n          buy,\n          Sig(vs[0], rss[0], rss[1]),\n          sell,\n          Sig(vs[1], rss[2], rss[3])\n        );\n    }\n\n}\n",
  "sourcePath": "/home/cwgoes/working/crypto/wyvern/wyvern-ethereum/contracts/exchange/Exchange.sol",
  "compiler": {
    "name": "solc",
    "version": "0.4.18+commit.9cf6e910.Emscripten.clang"
  },
  "schemaVersion": "1.0.1",
  "updatedAt": "2018-01-30T22:10:25.330Z"
}