{
  "contractName": "ExchangeCore",
  "abi": [
    {
      "constant": true,
      "inputs": [],
      "name": "exchangeTokenAddress",
      "outputs": [
        {
          "name": "",
          "type": "address"
        }
      ],
      "payable": false,
      "stateMutability": "view",
      "type": "function"
    },
    {
      "constant": true,
      "inputs": [
        {
          "name": "",
          "type": "bytes32"
        }
      ],
      "name": "topBids",
      "outputs": [
        {
          "name": "bidder",
          "type": "address"
        },
        {
          "name": "amount",
          "type": "uint256"
        }
      ],
      "payable": false,
      "stateMutability": "view",
      "type": "function"
    },
    {
      "constant": true,
      "inputs": [],
      "name": "bank",
      "outputs": [
        {
          "name": "",
          "type": "address"
        }
      ],
      "payable": false,
      "stateMutability": "view",
      "type": "function"
    },
    {
      "constant": true,
      "inputs": [],
      "name": "registry",
      "outputs": [
        {
          "name": "",
          "type": "address"
        }
      ],
      "payable": false,
      "stateMutability": "view",
      "type": "function"
    },
    {
      "constant": true,
      "inputs": [
        {
          "name": "",
          "type": "bytes32"
        }
      ],
      "name": "cancelledOrFinalized",
      "outputs": [
        {
          "name": "",
          "type": "bool"
        }
      ],
      "payable": false,
      "stateMutability": "view",
      "type": "function"
    },
    {
      "constant": true,
      "inputs": [
        {
          "name": "",
          "type": "bytes32"
        }
      ],
      "name": "approvedOrders",
      "outputs": [
        {
          "name": "",
          "type": "bool"
        }
      ],
      "payable": false,
      "stateMutability": "view",
      "type": "function"
    },
    {
      "anonymous": false,
      "inputs": [
        {
          "indexed": true,
          "name": "hash",
          "type": "bytes32"
        },
        {
          "indexed": false,
          "name": "exchange",
          "type": "address"
        },
        {
          "indexed": true,
          "name": "maker",
          "type": "address"
        },
        {
          "indexed": false,
          "name": "taker",
          "type": "address"
        },
        {
          "indexed": false,
          "name": "makerFee",
          "type": "uint256"
        },
        {
          "indexed": false,
          "name": "takerFee",
          "type": "uint256"
        },
        {
          "indexed": true,
          "name": "feeRecipient",
          "type": "address"
        },
        {
          "indexed": false,
          "name": "side",
          "type": "uint8"
        },
        {
          "indexed": false,
          "name": "saleKind",
          "type": "uint8"
        },
        {
          "indexed": false,
          "name": "target",
          "type": "address"
        },
        {
          "indexed": false,
          "name": "howToCall",
          "type": "uint8"
        },
        {
          "indexed": false,
          "name": "calldata",
          "type": "bytes"
        }
      ],
      "name": "OrderApprovedPartOne",
      "type": "event"
    },
    {
      "anonymous": false,
      "inputs": [
        {
          "indexed": true,
          "name": "hash",
          "type": "bytes32"
        },
        {
          "indexed": false,
          "name": "replacementPattern",
          "type": "bytes"
        },
        {
          "indexed": false,
          "name": "staticTarget",
          "type": "address"
        },
        {
          "indexed": false,
          "name": "staticExtradata",
          "type": "bytes"
        },
        {
          "indexed": false,
          "name": "paymentToken",
          "type": "address"
        },
        {
          "indexed": false,
          "name": "basePrice",
          "type": "uint256"
        },
        {
          "indexed": false,
          "name": "extra",
          "type": "uint256"
        },
        {
          "indexed": false,
          "name": "listingTime",
          "type": "uint256"
        },
        {
          "indexed": false,
          "name": "expirationTime",
          "type": "uint256"
        },
        {
          "indexed": false,
          "name": "salt",
          "type": "uint256"
        },
        {
          "indexed": false,
          "name": "orderbookInclusionDesired",
          "type": "bool"
        }
      ],
      "name": "OrderApprovedPartTwo",
      "type": "event"
    },
    {
      "anonymous": false,
      "inputs": [
        {
          "indexed": true,
          "name": "hash",
          "type": "bytes32"
        }
      ],
      "name": "OrderCancelled",
      "type": "event"
    },
    {
      "anonymous": false,
      "inputs": [
        {
          "indexed": true,
          "name": "hash",
          "type": "bytes32"
        },
        {
          "indexed": true,
          "name": "bidder",
          "type": "address"
        },
        {
          "indexed": false,
          "name": "amount",
          "type": "uint256"
        }
      ],
      "name": "OrderBidOn",
      "type": "event"
    },
    {
      "anonymous": false,
      "inputs": [
        {
          "indexed": true,
          "name": "buyHash",
          "type": "bytes32"
        },
        {
          "indexed": true,
          "name": "sellHash",
          "type": "bytes32"
        }
      ],
      "name": "OrdersMatched",
      "type": "event"
    }
  ],
  "bytecode": "0x60606040526000805460ff19169055341561001957600080fd5b6101f6806100286000396000f3006060604052600436106100775763ffffffff7c01000000000000000000000000000000000000000000000000000000006000350416630e5d2e21811461007c578063532aa1c8146100ab57806376cdb03b146100e35780637b103999146100f65780638076f00514610109578063e57d4adb14610133575b600080fd5b341561008757600080fd5b61008f610149565b604051600160a060020a03909116815260200160405180910390f35b34156100b657600080fd5b6100c160043561015d565b604051600160a060020a03909216825260208201526040908101905180910390f35b34156100ee57600080fd5b61008f610182565b341561010157600080fd5b61008f610191565b341561011457600080fd5b61011f6004356101a0565b604051901515815260200160405180910390f35b341561013e57600080fd5b61011f6004356101b5565b6000546101009004600160a060020a031681565b60036020526000908152604090208054600190910154600160a060020a039091169082565b600254600160a060020a031681565b600154600160a060020a031681565b60046020526000908152604090205460ff1681565b60056020526000908152604090205460ff16815600a165627a7a723058206a67cbbcf6acfea16ca671220ccfc5cd7808914eac63117713bd4cda459302a30029",
  "source": "/*\n\n  Decentralized digital asset exchange. Supports any digital asset that can be represented on the Ethereum blockchain (transferred in an Ethereum transaction).\n\n  Let us suppose two agents interacting with a distributed ledger have utility functions preferencing certain states of that ledger over others.\n  Aiming to maximize their utility, these agents may construct with their utility functions along with the present ledger state a mapping of state transitions (transactions) to marginal utilities.\n  Any composite state transition with positive marginal utility for and enactable by the combined permissions of both agents thus is a mutually desirable trade, and the trustless \n  code execution provided by a distributed ledger renders the requisite atomicity trivial.\n\n  Relative to this model, this instantiation makes two concessions to practicality:\n  - State transition preferences are not matched directly but instead intermediated by a standard of tokenized value.\n  - A small fee can be charged in WYV for order settlement in an amount configurable by the frontend hosting the orderbook.\n\n  Solidity presently possesses neither a first-class functional typesystem nor runtime reflection (ABI encoding in Solidity), so we must be a bit clever in implementation and work at a lower level than would be ideal.\n \n*/\n\npragma solidity 0.4.18;\n\nimport \"zeppelin-solidity/contracts/token/ERC20.sol\";\n\nimport \"../registry/ProxyRegistry.sol\";\nimport \"../registry/AuthenticatedLazyBank.sol\";\nimport \"../common/ArrayUtils.sol\";\nimport \"../common/ReentrancyGuarded.sol\";\nimport \"./SaleKindInterface.sol\";\n\n/**\n * @title ExchangeCore\n * @author Project Wyvern Developers\n */\ncontract ExchangeCore is ReentrancyGuarded {\n\n    /* The token used to pay exchange fees. */\n    ERC20 public exchangeTokenAddress;\n\n    /* User registry. */\n    ProxyRegistry public registry;\n\n    /* Lazy bank. */\n    AuthenticatedLazyBank public bank;\n\n    /* Top bids for all bid-supporting auctions, by hash. */\n    mapping(bytes32 => SaleKindInterface.Bid) public topBids;\n \n    /* Cancelled / finalized orders, by hash. */\n    mapping(bytes32 => bool) public cancelledOrFinalized;\n\n    /* Orders verified by on-chain approval (alternative to ECDSA signatures so that smart contracts can place orders directly). */\n    mapping(bytes32 => bool) public approvedOrders;\n\n    /* An ECDSA signature. */ \n    struct Sig {\n        /* v parameter */\n        uint8 v;\n        /* r parameter */\n        bytes32 r;\n        /* s parameter */\n        bytes32 s;\n    }\n\n    /* An order on the exchange. */\n    struct Order {\n        /* Exchange address, intended as a versioning mechanism. */\n        address exchange;\n        /* Order maker address. */\n        address maker;\n        /* Order taker address, if specified. */\n        address taker;\n        /* Maker fee of the order (in Exchange fee tokens), unused for taker order. */\n        uint makerFee;\n        /* Taker fee of the order (in Exchange fee tokens), or maximum taker fee for a taker order. */\n        uint takerFee;\n        /* Order fee recipient or zero address for taker order. */\n        address feeRecipient;\n        /* Side (buy/sell). */\n        SaleKindInterface.Side side;\n        /* Kind of sale. */\n        SaleKindInterface.SaleKind saleKind;\n        /* Target. */\n        address target;\n        /* HowToCall. */\n        AuthenticatedProxy.HowToCall howToCall;\n        /* Calldata. */\n        bytes calldata;\n        /* Calldata replacement pattern. */\n        bytes replacementPattern;\n        /* Static call target, zero-address for no static call. */\n        address staticTarget;\n        /* Static call extra data. */\n        bytes staticExtradata;\n        /* Token used to pay for the order. */\n        ERC20 paymentToken;\n        /* Base price of the order (in paymentTokens). */\n        uint basePrice;\n        /* Auction extra parameter - minimum bid increment for English auctions, starting/ending price difference. */\n        uint extra;\n        /* Listing timestamp. */\n        uint listingTime;\n        /* Expiration timestamp - 0 for no expiry. */\n        uint expirationTime;\n        /* Order salt, used to prevent duplicate hashes. */\n        uint salt;\n    }\n    \n    event OrderApprovedPartOne    (bytes32 indexed hash, address exchange, address indexed maker, address taker, uint makerFee, uint takerFee, address indexed feeRecipient, SaleKindInterface.Side side, SaleKindInterface.SaleKind saleKind, address target, AuthenticatedProxy.HowToCall howToCall, bytes calldata);\n    event OrderApprovedPartTwo    (bytes32 indexed hash, bytes replacementPattern, address staticTarget, bytes staticExtradata, ERC20 paymentToken, uint basePrice, uint extra, uint listingTime, uint expirationTime, uint salt, bool orderbookInclusionDesired);\n    event OrderCancelled          (bytes32 indexed hash);\n    event OrderBidOn              (bytes32 indexed hash, address indexed bidder, uint amount);\n    event OrdersMatched           (bytes32 indexed buyHash, bytes32 indexed sellHash);\n\n    function chargeFee(address from, address to, uint amount)\n        internal\n    {\n        if (amount > 0) {\n            bank._transferTo(from, to, exchangeTokenAddress, amount);\n        }\n    }\n\n    function staticCall(address target, bytes calldata, bytes extradata)\n        internal\n        view\n        returns (bool result)\n    {\n        bytes memory combined = new bytes(calldata.length + extradata.length);\n        uint len = combined.length;\n        for (uint i = 0; i < calldata.length; i++) {\n            combined[i] = calldata[i];\n        }\n        for (uint j = 0; j < extradata.length; j++) {\n            combined[j + calldata.length] = extradata[j];\n        }\n        assembly {\n            result := staticcall(gas, target, combined, len, combined, 0)\n        }\n        return result;\n    }\n\n    function hashOrderPartOne(Order order)\n        internal\n        pure\n        returns (bytes32)\n    {\n        return keccak256(order.exchange, order.maker, order.taker, order.makerFee, order.takerFee, order.feeRecipient, order.side, order.saleKind, order.target, order.howToCall, order.calldata, order.replacementPattern);\n    }\n\n    function hashOrderPartTwo(Order order)\n        internal\n        pure\n        returns (bytes32)\n    {\n        return keccak256(order.staticTarget, order.staticExtradata, order.paymentToken, order.basePrice, order.extra, order.listingTime, order.expirationTime, order.salt);\n    }\n\n    function hashOrder(Order order)\n        internal\n        pure\n        returns (bytes32)\n    {\n        /* This is silly, but necessary due to Solidity compiler stack size constraints. Should be fixed, waste of gas. */\n        return keccak256(hashOrderPartOne(order), hashOrderPartTwo(order));\n    }\n\n    function hashToSign(Order order)\n        internal\n        pure\n        returns (bytes32)\n    {\n        bytes memory prefix = \"\\x19Ethereum Signed Message:\\n32\";\n        bytes32 hash = keccak256(prefix, hashOrder(order));\n        return hash;\n    }\n\n    function requireValidOrder(Order order, Sig sig)\n        internal\n        view\n        returns (bytes32)\n    {\n        bytes32 hash = hashToSign(order);\n        require(validateOrder(hash, order, sig));\n        return hash;\n    }\n\n    function validateOrder(bytes32 hash, Order memory order, Sig memory sig) \n        view\n        internal\n        returns (bool)\n    {\n        /* Not done in an if-conditional to prevent unnecessary ecrecover evaluation. */\n\n        /* Order must be targeted at this protocol version (this Exchange contract). */\n        if (order.exchange != address(this)) {\n            return false;\n        }\n\n        /* Order must have not been canceled or already filled. */\n        if (cancelledOrFinalized[hash]) {\n            return false;\n        }\n        \n        /* Order must possess valid sale kind parameter combination. */\n        if (!SaleKindInterface.validateParameters(order.side, order.saleKind, order.expirationTime)) {\n            return false;\n        }\n\n        /* Order authentication. Order must be either:\n           (a) sent by maker */\n        if (msg.sender == order.maker) {\n            return true;\n        }\n  \n        /* (b) previously approved */\n        if (approvedOrders[hash]) {\n            return true;\n        }\n\n        /* or (c) ECDSA-signed by maker. */\n        if (ecrecover(hash, sig.v, sig.r, sig.s) == order.maker) {\n            return true;\n        }\n\n        return false;\n    }\n\n    function approveOrder(Order memory order, bool orderbookInclusionDesired)\n        internal\n    {\n        /* CHECKS */\n\n        /* Assert sender is authorized to approve order. */\n        require(msg.sender == order.maker);\n\n        /* Calculate order hash. */\n        bytes32 hash = hashToSign(order);\n\n        /* Assert order has not already been approved. */\n        require(!approvedOrders[hash]);\n\n        /* EFFECTS */\n    \n        /* Mark order as approved. */\n        approvedOrders[hash] = true;\n  \n        /* Log approval event. Must be split in two due to Solidity stack size limitations. */\n        {\n            OrderApprovedPartOne(hash, order.exchange, order.maker, order.taker, order.makerFee, order.takerFee, order.feeRecipient, order.side, order.saleKind, order.target, order.howToCall, order.calldata);\n        }\n        {   \n            OrderApprovedPartTwo(hash, order.replacementPattern, order.staticTarget, order.staticExtradata, order.paymentToken, order.basePrice, order.extra, order.listingTime, order.expirationTime, order.salt, orderbookInclusionDesired);\n        }\n    }\n\n    function cancelOrder(Order memory order, Sig memory sig) \n        internal\n    {\n        /* CHECKS */\n\n        /* Calculate order hash. */\n        bytes32 hash = requireValidOrder(order, sig);\n\n        /* Assert sender is authorized to cancel order. */\n        require(msg.sender == order.maker);\n  \n        /* EFFECTS */\n      \n        /* Mark order as cancelled, preventing it from being bid on or matched. */\n        cancelledOrFinalized[hash] = true;\n\n        /* Log cancel event. */\n        OrderCancelled(hash);\n    }\n\n    function bid (Order order, Sig sig, uint amount)\n        internal\n    {\n        /* CHECKS */\n \n        /* Calculate order hash. */ \n        bytes32 hash = requireValidOrder(order, sig);\n\n        /* Fetch current top bid, if existent. */\n        SaleKindInterface.Bid storage topBid = topBids[hash];\n        \n        /* Calculated required bid price. */\n        uint requiredBidPrice = SaleKindInterface.requiredBidPrice(order.side, order.saleKind, order.basePrice, order.extra, order.expirationTime, topBid);\n\n        /* Assert bid amount is sufficient. */\n        require(amount >= requiredBidPrice);\n\n        /* EFFECTS */\n\n        /* Store the new high bid. */\n        topBids[hash] = SaleKindInterface.Bid(msg.sender, amount);\n\n        /* Unlock tokens to the previous high bidder, if existent. */\n        if (topBid.bidder != address(0)) {\n            bank._unlock(topBid.bidder, order.paymentToken, topBid.amount);\n        }\n\n        /* Lock tokens for the new high bidder. */\n        bank._lazyLock(msg.sender, order.paymentToken, amount);\n\n        /* Log bid event. */\n        OrderBidOn(hash, msg.sender, amount);\n    }\n\n    function calculateCurrentPrice (Order order)\n        view\n        internal  \n        returns (uint)\n    {\n        bytes32 hash = hashOrder(order);\n        SaleKindInterface.Bid storage topBid = topBids[hash];\n        return SaleKindInterface.calculateFinalPrice(order.side, order.saleKind, order.basePrice, order.extra, order.listingTime, order.expirationTime, topBid);\n    }\n\n    function calculateMatchPrice(Order buy, Order sell, SaleKindInterface.Bid storage topBid)\n        view\n        internal\n        returns (uint price)\n    {\n        /* Calculate sell price. */\n        uint sellPrice = SaleKindInterface.calculateFinalPrice(sell.side, sell.saleKind, sell.basePrice, sell.extra, sell.listingTime, sell.expirationTime, topBid);\n\n        /* Calculate buy price. */\n        uint buyPrice = SaleKindInterface.calculateFinalPrice(buy.side, buy.saleKind, buy.basePrice, buy.extra, buy.listingTime, buy.expirationTime, topBid);\n\n        /* Require price cross. */\n        require(buyPrice >= sellPrice);\n        \n        /* Time priority. */\n        price = sell.listingTime < buy.listingTime ? sellPrice : buyPrice;\n\n        return price;\n    }\n\n    function executeFundsTransfer(Order buy, Order sell, SaleKindInterface.Bid storage topBid)\n        internal\n    {\n        /* Calculate match price. */\n        uint price = calculateMatchPrice(buy, sell, topBid);\n\n        /* Determine maker/taker and charge fees accordingly. */\n        if (sell.feeRecipient != address(0)) {\n            /* Sell-side order is maker. */\n      \n            /* Assert taker fee is less than or equal to maximum fee specified by buyer. */\n            require(sell.takerFee <= buy.takerFee);\n            \n            /* Charge maker fee to seller. */\n            chargeFee(sell.maker, sell.feeRecipient, sell.makerFee);\n\n            /* Charge taker fee to buyer. */\n            chargeFee(buy.maker, sell.feeRecipient, sell.takerFee);\n        } else {\n            /* Buy-side order is maker. */\n\n            /* Assert taker fee is less than or equal to maximum fee specified by seller. */\n            require(buy.takerFee <= sell.takerFee);\n\n            /* Charge maker fee to buyer. */\n            chargeFee(buy.maker, buy.feeRecipient, buy.makerFee);\n      \n            /* Charge taker fee to seller. */\n            chargeFee(sell.maker, buy.feeRecipient, buy.takerFee);\n        }\n\n        /* Unlock tokens for top bidder, if existent. */\n        if (topBid.bidder != address(0)) {\n            bank._unlock(topBid.bidder, sell.paymentToken, topBid.amount);\n        }\n\n        /* Debit buyer. */\n        bank._lazyDebit(buy.maker, sell.paymentToken, price);\n\n        /* Credit seller. */\n        bank._credit(sell.maker, sell.paymentToken, price);\n    }\n\n    function ordersCanMatch(Order buy, Order sell, SaleKindInterface.Bid storage topBid)\n        internal\n        view\n        returns (bool)\n    {\n        return (\n            /* Must be opposite-side. */\n            (buy.side == SaleKindInterface.Side.Buy && sell.side == SaleKindInterface.Side.Sell) &&     \n            /* Must use same payment token. */\n            (buy.paymentToken == sell.paymentToken) &&\n            /* Must match maker/taker addresses. */\n            (sell.taker == address(0) || sell.taker == buy.maker) &&\n            (buy.taker == address(0) || buy.taker == sell.maker) &&\n            /* One must be maker and the other must be taker (no bool XOR in Solidity). */\n            ((sell.feeRecipient == address(0) && buy.feeRecipient != address(0)) || (sell.feeRecipient != address(0) && buy.feeRecipient == address(0))) &&\n            /* Must match target. */\n            (buy.target == sell.target) &&\n            /* Must match howToCall. */\n            (buy.howToCall == sell.howToCall) &&\n            /* Buy-side order must be settleable. */\n            SaleKindInterface.canSettleOrder(buy.saleKind, sell.maker, buy.expirationTime, SaleKindInterface.Bid({ bidder: address(0), amount: 0 })) &&\n            /* Sell-side order must be settleable. */\n            SaleKindInterface.canSettleOrder(sell.saleKind, buy.maker, sell.expirationTime, topBid)\n        );\n    }\n\n    function atomicMatch(Order buy, Sig buySig, Order sell, Sig sellSig)\n        internal\n    {\n        /* CHECKS */\n      \n        bytes32 buyHash = requireValidOrder(buy, buySig);\n        bytes32 sellHash = requireValidOrder(sell, sellSig); \n        \n        /* Fetch top bid, if existent. */\n        SaleKindInterface.Bid storage topBid = topBids[sellHash];\n\n        /* Must be matchable. */\n        require(ordersCanMatch(buy, sell, topBid));\n      \n        /* Must match calldata after replacementPattern. */ \n        ArrayUtils.guardedArrayReplace(buy.calldata, sell.calldata, buy.replacementPattern);\n        ArrayUtils.guardedArrayReplace(sell.calldata, buy.calldata, sell.replacementPattern);\n        require(ArrayUtils.arrayEq(buy.calldata, sell.calldata));\n\n        /* Retrieve proxy (the registry contract is trusted). */\n        AuthenticatedProxy proxy = registry.proxies(sell.maker);\n\n        /* Proxy must exist. */\n        require(proxy != address(0));\n\n        /* EFFECTS */\n\n        /* Mark orders as finalized. */\n        cancelledOrFinalized[buyHash] = true;\n        cancelledOrFinalized[sellHash] = true;\n\n        /* Validate balances and transfer funds. */ \n        executeFundsTransfer(buy, sell, topBid);\n\n        /* INTERACTIONS */\n\n        /* Execute specified call through proxy.\n           Both orders have already been marked as finalized, so they can't be rematched by a reentrant call.\n           However, it *is* possible for this call to match other orders - apart from causing unusual log\n           order, that shouldn't be a problem. */\n        require(proxy.proxy(sell.target, sell.howToCall, sell.calldata));\n\n        /* Static calls are intentionally done after the effectful call so they can check resulting state. */\n\n        /* Handle buy-side static call if specified. */\n        if (buy.staticTarget != address(0)) {\n            require(staticCall(buy.staticTarget, sell.calldata, buy.staticExtradata));\n        }\n\n        /* Handle sell-side static call if specified. */\n        if (sell.staticTarget != address(0)) {\n            require(staticCall(sell.staticTarget, sell.calldata, sell.staticExtradata));\n        }\n\n        /* Log match event. */\n        OrdersMatched(buyHash, sellHash);\n    }\n\n}\n",
  "sourcePath": "/home/cwgoes/working/crypto/wyvern/wyvern-ethereum/contracts/exchange/ExchangeCore.sol",
  "compiler": {
    "name": "solc",
    "version": "0.4.18+commit.9cf6e910.Emscripten.clang"
  },
  "schemaVersion": "1.0.1",
  "updatedAt": "2018-01-30T22:10:25.333Z"
}