{
  "contractName": "Exchange",
  "abi": [
    {
      "constant": true,
      "inputs": [
        {
          "name": "addrs",
          "type": "address[5]"
        },
        {
          "name": "uints",
          "type": "uint256[5]"
        },
        {
          "name": "side",
          "type": "uint8"
        },
        {
          "name": "saleKind",
          "type": "uint8"
        },
        {
          "name": "howToCall",
          "type": "uint8"
        },
        {
          "name": "calldata",
          "type": "bytes"
        },
        {
          "name": "replacementPattern",
          "type": "bytes"
        },
        {
          "name": "metadataHash",
          "type": "bytes"
        },
        {
          "name": "v",
          "type": "uint8"
        },
        {
          "name": "r",
          "type": "bytes32"
        },
        {
          "name": "s",
          "type": "bytes32"
        }
      ],
      "name": "validateOrder_",
      "outputs": [
        {
          "name": "",
          "type": "bool"
        }
      ],
      "payable": false,
      "stateMutability": "view",
      "type": "function"
    },
    {
      "constant": true,
      "inputs": [],
      "name": "exchangeTokenAddress",
      "outputs": [
        {
          "name": "",
          "type": "address"
        }
      ],
      "payable": false,
      "stateMutability": "view",
      "type": "function"
    },
    {
      "constant": false,
      "inputs": [
        {
          "name": "user",
          "type": "address"
        },
        {
          "name": "token",
          "type": "address"
        },
        {
          "name": "amount",
          "type": "uint256"
        },
        {
          "name": "dest",
          "type": "address"
        }
      ],
      "name": "withdraw",
      "outputs": [],
      "payable": false,
      "stateMutability": "nonpayable",
      "type": "function"
    },
    {
      "constant": true,
      "inputs": [
        {
          "name": "user",
          "type": "address"
        },
        {
          "name": "token",
          "type": "address"
        }
      ],
      "name": "lockedFor",
      "outputs": [
        {
          "name": "",
          "type": "uint256"
        }
      ],
      "payable": false,
      "stateMutability": "view",
      "type": "function"
    },
    {
      "constant": true,
      "inputs": [
        {
          "name": "",
          "type": "bytes32"
        }
      ],
      "name": "topBids",
      "outputs": [
        {
          "name": "bidder",
          "type": "address"
        },
        {
          "name": "amount",
          "type": "uint256"
        }
      ],
      "payable": false,
      "stateMutability": "view",
      "type": "function"
    },
    {
      "constant": false,
      "inputs": [
        {
          "name": "addrs",
          "type": "address[10]"
        },
        {
          "name": "uints",
          "type": "uint256[10]"
        },
        {
          "name": "sidesKindsHowToCalls",
          "type": "uint8[6]"
        },
        {
          "name": "calldataBuy",
          "type": "bytes"
        },
        {
          "name": "calldataSell",
          "type": "bytes"
        },
        {
          "name": "replacementPatternBuy",
          "type": "bytes"
        },
        {
          "name": "replacementPatternSell",
          "type": "bytes"
        },
        {
          "name": "metadataHashBuy",
          "type": "bytes"
        },
        {
          "name": "metadataHashSell",
          "type": "bytes"
        },
        {
          "name": "vs",
          "type": "uint8[2]"
        },
        {
          "name": "rss",
          "type": "bytes32[4]"
        }
      ],
      "name": "atomicMatch_",
      "outputs": [],
      "payable": false,
      "stateMutability": "nonpayable",
      "type": "function"
    },
    {
      "constant": true,
      "inputs": [],
      "name": "registry",
      "outputs": [
        {
          "name": "",
          "type": "address"
        }
      ],
      "payable": false,
      "stateMutability": "view",
      "type": "function"
    },
    {
      "constant": false,
      "inputs": [
        {
          "name": "addrs",
          "type": "address[5]"
        },
        {
          "name": "uints",
          "type": "uint256[5]"
        },
        {
          "name": "side",
          "type": "uint8"
        },
        {
          "name": "saleKind",
          "type": "uint8"
        },
        {
          "name": "howToCall",
          "type": "uint8"
        },
        {
          "name": "calldata",
          "type": "bytes"
        },
        {
          "name": "replacementPattern",
          "type": "bytes"
        },
        {
          "name": "metadataHash",
          "type": "bytes"
        },
        {
          "name": "v",
          "type": "uint8"
        },
        {
          "name": "r",
          "type": "bytes32"
        },
        {
          "name": "s",
          "type": "bytes32"
        }
      ],
      "name": "cancelOrder_",
      "outputs": [],
      "payable": false,
      "stateMutability": "nonpayable",
      "type": "function"
    },
    {
      "constant": false,
      "inputs": [
        {
          "name": "user",
          "type": "address"
        },
        {
          "name": "token",
          "type": "address"
        },
        {
          "name": "amount",
          "type": "uint256"
        }
      ],
      "name": "deposit",
      "outputs": [],
      "payable": false,
      "stateMutability": "nonpayable",
      "type": "function"
    },
    {
      "constant": false,
      "inputs": [
        {
          "name": "addrs",
          "type": "address[5]"
        },
        {
          "name": "uints",
          "type": "uint256[5]"
        },
        {
          "name": "side",
          "type": "uint8"
        },
        {
          "name": "saleKind",
          "type": "uint8"
        },
        {
          "name": "howToCall",
          "type": "uint8"
        },
        {
          "name": "calldata",
          "type": "bytes"
        },
        {
          "name": "replacementPattern",
          "type": "bytes"
        },
        {
          "name": "metadataHash",
          "type": "bytes"
        },
        {
          "name": "v",
          "type": "uint8"
        },
        {
          "name": "r",
          "type": "bytes32"
        },
        {
          "name": "s",
          "type": "bytes32"
        },
        {
          "name": "amount",
          "type": "uint256"
        }
      ],
      "name": "bid_",
      "outputs": [],
      "payable": false,
      "stateMutability": "nonpayable",
      "type": "function"
    },
    {
      "constant": true,
      "inputs": [
        {
          "name": "",
          "type": "address"
        },
        {
          "name": "",
          "type": "address"
        }
      ],
      "name": "balances",
      "outputs": [
        {
          "name": "",
          "type": "uint256"
        }
      ],
      "payable": false,
      "stateMutability": "view",
      "type": "function"
    },
    {
      "constant": true,
      "inputs": [
        {
          "name": "addrs",
          "type": "address[5]"
        },
        {
          "name": "uints",
          "type": "uint256[5]"
        },
        {
          "name": "side",
          "type": "uint8"
        },
        {
          "name": "saleKind",
          "type": "uint8"
        },
        {
          "name": "howToCall",
          "type": "uint8"
        },
        {
          "name": "calldata",
          "type": "bytes"
        },
        {
          "name": "replacementPattern",
          "type": "bytes"
        },
        {
          "name": "metadataHash",
          "type": "bytes"
        }
      ],
      "name": "hashOrder_",
      "outputs": [
        {
          "name": "",
          "type": "bytes32"
        }
      ],
      "payable": false,
      "stateMutability": "pure",
      "type": "function"
    },
    {
      "constant": true,
      "inputs": [
        {
          "name": "",
          "type": "address"
        },
        {
          "name": "",
          "type": "address"
        }
      ],
      "name": "locked",
      "outputs": [
        {
          "name": "",
          "type": "uint256"
        }
      ],
      "payable": false,
      "stateMutability": "view",
      "type": "function"
    },
    {
      "constant": true,
      "inputs": [
        {
          "name": "user",
          "type": "address"
        },
        {
          "name": "token",
          "type": "address"
        }
      ],
      "name": "availableFor",
      "outputs": [
        {
          "name": "",
          "type": "uint256"
        }
      ],
      "payable": false,
      "stateMutability": "view",
      "type": "function"
    },
    {
      "constant": true,
      "inputs": [
        {
          "name": "user",
          "type": "address"
        },
        {
          "name": "token",
          "type": "address"
        }
      ],
      "name": "balanceFor",
      "outputs": [
        {
          "name": "",
          "type": "uint256"
        }
      ],
      "payable": false,
      "stateMutability": "view",
      "type": "function"
    },
    {
      "anonymous": false,
      "inputs": [
        {
          "indexed": false,
          "name": "hash",
          "type": "bytes32"
        }
      ],
      "name": "OrderCancelled",
      "type": "event"
    },
    {
      "anonymous": false,
      "inputs": [
        {
          "indexed": false,
          "name": "hash",
          "type": "bytes32"
        },
        {
          "indexed": true,
          "name": "bidder",
          "type": "address"
        },
        {
          "indexed": false,
          "name": "amount",
          "type": "uint256"
        },
        {
          "indexed": false,
          "name": "timestamp",
          "type": "uint256"
        }
      ],
      "name": "OrderBidOn",
      "type": "event"
    },
    {
      "anonymous": false,
      "inputs": [
        {
          "components": [
            {
              "name": "exchange",
              "type": "address"
            },
            {
              "name": "initiator",
              "type": "address"
            },
            {
              "name": "side",
              "type": "uint8"
            },
            {
              "name": "saleKind",
              "type": "uint8"
            },
            {
              "name": "target",
              "type": "address"
            },
            {
              "name": "howToCall",
              "type": "uint8"
            },
            {
              "name": "calldata",
              "type": "bytes"
            },
            {
              "name": "replacementPattern",
              "type": "bytes"
            },
            {
              "name": "metadataHash",
              "type": "bytes"
            },
            {
              "name": "paymentToken",
              "type": "address"
            },
            {
              "name": "basePrice",
              "type": "uint256"
            },
            {
              "name": "baseFee",
              "type": "uint256"
            },
            {
              "name": "extra",
              "type": "uint256"
            },
            {
              "name": "listingTime",
              "type": "uint256"
            },
            {
              "name": "expirationTime",
              "type": "uint256"
            },
            {
              "name": "frontend",
              "type": "address"
            }
          ],
          "indexed": false,
          "name": "buy",
          "type": "tuple"
        },
        {
          "components": [
            {
              "name": "exchange",
              "type": "address"
            },
            {
              "name": "initiator",
              "type": "address"
            },
            {
              "name": "side",
              "type": "uint8"
            },
            {
              "name": "saleKind",
              "type": "uint8"
            },
            {
              "name": "target",
              "type": "address"
            },
            {
              "name": "howToCall",
              "type": "uint8"
            },
            {
              "name": "calldata",
              "type": "bytes"
            },
            {
              "name": "replacementPattern",
              "type": "bytes"
            },
            {
              "name": "metadataHash",
              "type": "bytes"
            },
            {
              "name": "paymentToken",
              "type": "address"
            },
            {
              "name": "basePrice",
              "type": "uint256"
            },
            {
              "name": "baseFee",
              "type": "uint256"
            },
            {
              "name": "extra",
              "type": "uint256"
            },
            {
              "name": "listingTime",
              "type": "uint256"
            },
            {
              "name": "expirationTime",
              "type": "uint256"
            },
            {
              "name": "frontend",
              "type": "address"
            }
          ],
          "indexed": false,
          "name": "sell",
          "type": "tuple"
        }
      ],
      "name": "OrdersMatched",
      "type": "event"
    },
    {
      "anonymous": false,
      "inputs": [
        {
          "indexed": true,
          "name": "user",
          "type": "address"
        },
        {
          "indexed": true,
          "name": "token",
          "type": "address"
        },
        {
          "indexed": false,
          "name": "amount",
          "type": "uint256"
        }
      ],
      "name": "Credited",
      "type": "event"
    },
    {
      "anonymous": false,
      "inputs": [
        {
          "indexed": true,
          "name": "user",
          "type": "address"
        },
        {
          "indexed": true,
          "name": "token",
          "type": "address"
        },
        {
          "indexed": false,
          "name": "amount",
          "type": "uint256"
        }
      ],
      "name": "Debited",
      "type": "event"
    },
    {
      "anonymous": false,
      "inputs": [
        {
          "indexed": true,
          "name": "user",
          "type": "address"
        },
        {
          "indexed": true,
          "name": "token",
          "type": "address"
        },
        {
          "indexed": false,
          "name": "amount",
          "type": "uint256"
        }
      ],
      "name": "Locked",
      "type": "event"
    },
    {
      "anonymous": false,
      "inputs": [
        {
          "indexed": true,
          "name": "user",
          "type": "address"
        },
        {
          "indexed": true,
          "name": "token",
          "type": "address"
        },
        {
          "indexed": false,
          "name": "amount",
          "type": "uint256"
        }
      ],
      "name": "Unlocked",
      "type": "event"
    }
  ],
  "bytecode": "0x6060604052341561000f57600080fd5b612a6d8061001e6000396000f3006060604052600436106100c15763ffffffff60e060020a60003504166302b1533681146100c65780630e5d2e21146102295780630e917f76146102585780634e10c95d14610289578063532aa1c8146102c05780636ebda176146102f85780637b103999146105625780637f80468e146105755780638340f549146106c4578063b3a2b51f146106ec578063c23f001f14610840578063c73f028214610865578063db20266f146109a4578063db2ec6bd146109c9578063f771e78b146109ee575b600080fd5b34156100d157600080fd5b610215600460a481600560a06040519081016040529190828260a080828437820191505050505091908060a001906005806020026040519081016040529190828260a08082843750939560ff8635811696602080820135831697506040808301359093169650929450608081019350606001358401808301929035918291601f83018190048102019051908101604052818152929190602084018383808284378201915050505050509190803590602001908201803590602001908080601f01602080910402602001604051908101604052818152929190602084018383808284378201915050505050509190803590602001908201803590602001908080601f0160208091040260200160405190810160405281815292919060208401838380828437509496505060ff8535169460208101359450604001359250610a13915050565b604051901515815260200160405180910390f35b341561023457600080fd5b61023c610b47565b604051600160a060020a03909116815260200160405180910390f35b341561026357600080fd5b610287600160a060020a036004358116906024358116906044359060643516610b56565b005b341561029457600080fd5b6102ae600160a060020a0360043581169060243516610c57565b60405190815260200160405180910390f35b34156102cb57600080fd5b6102d6600435610c82565b604051600160a060020a03909216825260208201526040908101905180910390f35b341561030357600080fd5b610287600461014481600a610140604051908101604052919082826101408082843782019150505050509190806101400190600a806020026040519081016040529190828261014080828437820191505050505091908060c001906006806020026040519081016040529190828260c0808284375093959460208082019550903586018082019450359250829150601f8201819004810201604051908101604052818152929190602084018383808284378201915050505050509190803590602001908201803590602001908080601f01602080910402602001604051908101604052818152929190602084018383808284378201915050505050509190803590602001908201803590602001908080601f01602080910402602001604051908101604052818152929190602084018383808284378201915050505050509190803590602001908201803590602001908080601f01602080910402602001604051908101604052818152929190602084018383808284378201915050505050509190803590602001908201803590602001908080601f01602080910402602001604051908101604052818152929190602084018383808284378201915050505050509190803590602001908201803590602001908080601f01602080910402602001604051908101604052818152929190602084018383808284378201915050505050509190806040019060028060200260405190810160405280929190826002602002808284378201915050505050919080608001906004806020026040519081016040529190828260808082843750939550610ca7945050505050565b341561056d57600080fd5b61023c610f53565b341561058057600080fd5b610287600460a481600560a06040519081016040529190828260a080828437820191505050505091908060a001906005806020026040519081016040529190828260a08082843750939560ff8635811696602080820135831697506040808301359093169650929450608081019350606001358401808301929035918291601f83018190048102019051908101604052818152929190602084018383808284378201915050505050509190803590602001908201803590602001908080601f01602080910402602001604051908101604052818152929190602084018383808284378201915050505050509190803590602001908201803590602001908080601f0160208091040260200160405190810160405281815292919060208401838380828437509496505060ff8535169460208101359450604001359250610f62915050565b34156106cf57600080fd5b610287600160a060020a036004358116906024351660443561106f565b34156106f757600080fd5b610287600460a481600560a06040519081016040529190828260a080828437820191505050505091908060a001906005806020026040519081016040529190828260a08082843750939560ff8635811696602080820135831697506040808301359093169650929450608081019350606001358401808301929035918291601f83018190048102019051908101604052818152929190602084018383808284378201915050505050509190803590602001908201803590602001908080601f01602080910402602001604051908101604052818152929190602084018383808284378201915050505050509190803590602001908201803590602001908080601f0160208091040260200160405190810160405281815292919060208401838380828437509496505050833560ff1693602081013593506040810135925060600135905061112f565b341561084b57600080fd5b6102ae600160a060020a036004358116906024351661124b565b341561087057600080fd5b6102ae600460a481600560a06040519081016040529190828260a080828437820191505050505091908060a001906005806020026040519081016040529190828260a08082843750939560ff8635811696602080820135831697506040808301359093169650929450608081019350606001358401808301929035918291601f83018190048102019051908101604052818152929190602084018383808284378201915050505050509190803590602001908201803590602001908080601f01602080910402602001604051908101604052818152929190602084018383808284378201915050505050509190803590602001908201803590602001908080601f01602080910402602001604051908101604052818152929190602084018383808284375094965061126595505050505050565b34156109af57600080fd5b6102ae600160a060020a0360043581169060243516611362565b34156109d457600080fd5b6102ae600160a060020a036004358116906024351661137f565b34156109f957600080fd5b6102ae600160a060020a03600435811690602435166113cb565b6000610a1d612964565b610200604051908101604052808e51600160a060020a031681526020018e60016020020151600160a060020a031681526020018c6001811115610a5c57fe5b81526020018b6002811115610a6d57fe5b815260200160408f0151600160a060020a031681526020018a6003811115610a9157fe5b8152602081018a905260408101899052606081018890526080018e60036020020151600160a060020a031681526020018d5181526020018d60016020020151815260200160408e0151815260200160608e0151815260200160808e0151815260200160808f0151600160a060020a031690529050610b36610b11826113f4565b826060604051908101604090815260ff8a1682526020820189905281018790526114a9565b9d9c50505050505050505050505050565b600254600160a060020a031681565b600084600160a060020a031633600160a060020a0316141515610b7857600080fd5b600160a060020a0380861660008181526020818152604080832094891680845294825280832054938352600182528083209483529390529190912054610bbe919061159a565b905080831115610bcd57600080fd5b610bd88585856115ac565b83600160a060020a031663a9059cbb838560006040516020015260405160e060020a63ffffffff8516028152600160a060020a0390921660048301526024820152604401602060405180830381600087803b1515610c3557600080fd5b6102c65a03f11515610c4657600080fd5b505050604051805150505050505050565b600160a060020a03918216600090815260016020908152604080832093909416825291909152205490565b60046020526000908152604090208054600190910154600160a060020a039091169082565b610f46610200604051908101604052808d51600160a060020a031681526020018d60016020020151600160a060020a031681526020018b5160ff166001811115610ced57fe5b6001811115610cf857fe5b81526020018b6001602002015160ff166002811115610d1357fe5b6002811115610d1e57fe5b815260200160408e0151600160a060020a0316815260200160408c015160ff166003811115610d4957fe5b6003811115610d5457fe5b8152602081018b905260408101899052606081018790526080018d60036020020151600160a060020a031681526020018c5181526020018c60016020020151815260200160408d0151815260200160608d0151815260200160808d0151815260200160808e0151600160a060020a03169052606060405190810160405280855160ff1681526020018451815260200184600160200201519052610200604051908101604052808f60056020020151600160a060020a031681526020018f60066020020151600160a060020a0316815260200160608e015160ff166001811115610e3957fe5b6001811115610e4457fe5b815260200160808e015160ff166002811115610e5c57fe5b6002811115610e6757fe5b81526020018f60076020020151600160a060020a0316815260200160a08e015160ff166003811115610e9557fe5b6003811115610ea057fe5b8152602081018c9052604081018a9052606081018890526080018f60086020020151600160a060020a0316815260200160a08f0151815260200160c08f0151815260200160e08f015181526020016101008f015181526020016101208f015181526020018f60096020020151600160a060020a03169052606060405190810160405280602088015160ff168152602001604087015181526020016060870151905261175f565b5050505050505050505050565b600354600160a060020a031681565b610f46610200604051908101604052808d51600160a060020a031681526020018d60016020020151600160a060020a031681526020018b6001811115610fa457fe5b81526020018a6002811115610fb557fe5b815260200160408e0151600160a060020a03168152602001896003811115610fd957fe5b81526020810189905260408101889052606081018790526080018d60036020020151600160a060020a031681526020018c5181526020018c60016020020151815260200160408d0151815260200160608d0151815260200160808d0151815260200160808e0151600160a060020a031690526060604051908101604090815260ff87168252602082018690528101849052611b28565b82600160a060020a031633600160a060020a031614151561108f57600080fd5b61109a838383611bad565b81600160a060020a03166323b872dd84308460006040516020015260405160e060020a63ffffffff8616028152600160a060020a0393841660048201529190921660248201526044810191909152606401602060405180830381600087803b151561110457600080fd5b6102c65a03f1151561111557600080fd5b50505060405180519050151561112a57600080fd5b505050565b61123d610200604051908101604052808e51600160a060020a031681526020018e60016020020151600160a060020a031681526020018c600181111561117157fe5b81526020018b600281111561118257fe5b815260200160408f0151600160a060020a031681526020018a60038111156111a657fe5b8152602081018a905260408101899052606081018890526080018e60036020020151600160a060020a031681526020018d5181526020018d60016020020151815260200160408e0151815260200160608e0151815260200160808e0151815260200160808f0151600160a060020a031690526060604051908101604090815260ff8816825260208201879052810185905283611c41565b505050505050505050505050565b600060208181529281526040808220909352908152205481565b6000611355610200604051908101604052808b51600160a060020a031681526020018b60016020020151600160a060020a031681526020018960018111156112a957fe5b81526020018860028111156112ba57fe5b815260200160408c0151600160a060020a031681526020018760038111156112de57fe5b81526020810187905260408101869052606081018590526080018b60036020020151600160a060020a031681526020018a5181526020018a60016020020151815260200160408b0151815260200160608b0151815260200160808b0151815260200160808c0151600160a060020a03169052611db4565b9998505050505050505050565b600160209081526000928352604080842090915290825290205481565b600160a060020a038083166000818152602081815260408083209486168084529482528083205493835260018252808320948352939052918220546113c4919061159a565b9392505050565b600160a060020a0391821660009081526020818152604080832093909416825291909152205490565b60006113fe612a06565b600060408051908101604052601c81527f19457468657265756d205369676e6564204d6573736167653a0a333200000000602082015291508161144085611db4565b6040518083805190602001908083835b6020831061146f5780518252601f199092019160209182019101611450565b6001836020036101000a03801982511681845116179092525050509190910192835250506020019050604051908190039020949350505050565b6000600160a060020a0330168351600160a060020a03161480156114dc575060008481526005602052604090205460ff16155b801561157357508260200151600160a060020a03166001858451856020015186604001516040516000815260200160405260006040516020015260405193845260ff90921660208085019190915260408085019290925260608401929092526080909201915160208103908084039060008661646e5a03f1151561155f57600080fd5b505060206040510351600160a060020a0316145b8015611592575061159283604001518460600151856101c00151611de6565b949350505050565b6000828211156115a657fe5b50900390565b600160a060020a0380841660008181526020818152604080832094871680845294825280832054938352600182528083209483529390529182205482916115f29161159a565b915083600160a060020a031685600160a060020a03167f9407bd81f01ad8f5ae4a2487b63d3d1b1947257c2dcdda3ea183dc8e6965cc6e8560405190815260200160405180910390a382821061169957600160a060020a0380861660009081526020818152604080832093881683529290522054611670908461159a565b600160a060020a0380871660009081526020818152604080832093891683529290522055611758565b6116a3838361159a565b600160a060020a038087166000908152602081815260408083209389168084529390915280822082905592935090916323b872dd91889130918691516020015260405160e060020a63ffffffff8616028152600160a060020a0393841660048201529190921660248201526044810191909152606401602060405180830381600087803b151561173257600080fd5b6102c65a03f1151561174357600080fd5b50505060405180519050151561175857600080fd5b5050505050565b60008060008061176f8888611e35565b935061177b8686611e35565b925060008860400151600181111561178f57fe5b1480156117ab57506001866040015160018111156117a957fe5b145b15156117b657600080fd5b856101200151600160a060020a0316886101200151600160a060020a0316146117de57600080fd5b6000838152600460205260409020915061181a606089015187602001518a6101c001516040805190810160405260008082526020820152611e64565b151561182557600080fd5b61186086606001518960200151886101c0015185604080519081016040528154600160a060020a031681526001909101546020820152611e64565b151561186b57600080fd5b8560800151600160a060020a03168860800151600160a060020a03161461189157600080fd5b8560a0015160038111156118a157fe5b8860a0015160038111156118b157fe5b146118bb57600080fd5b6118d28860c001518760c001518a60e00151611eb5565b506118ea8660c001518960c001518860e00151611eb5565b506118fd8860c001518760c001516120ea565b151561190857600080fd5b600354600160a060020a031663c4552791602088015160006040516020015260405160e060020a63ffffffff8416028152600160a060020a039091166004820152602401602060405180830381600087803b151561196557600080fd5b6102c65a03f1151561197657600080fd5b5050506040518051915050600160a060020a038116151561199657600080fd5b6000848152600560205260408082208054600160ff19918216811790925586845291909220805490911690911790556119cf888761217e565b80600160a060020a0316631b0f7ba987608001518860a001518960c001516000604051602001526040518463ffffffff1660e060020a0281526004018084600160a060020a0316600160a060020a03168152602001836003811115611a3057fe5b60ff16815260200180602001828103825283818151815260200191508051906020019080838360005b83811015611a71578082015183820152602001611a59565b50505050905090810190601f168015611a9e5780820380516001836020036101000a031916815260200191505b50945050505050602060405180830381600087803b1515611abe57600080fd5b6102c65a03f11515611acf57600080fd5b505050604051805190501515611ae457600080fd5b7f31cd237f6b8473035e4e28a3c4069d92f69c1f4dc4a9d1166bb97cea078b0a86888760405191825260208201526040908101905180910390a15050505050505050565b6000611b348383611e35565b90508260200151600160a060020a031633600160a060020a0316141515611b5a57600080fd5b60008181526005602052604090819020805460ff191660011790557f5152abf959f6564662358c2e52b702259b78bac5ee7842a0f01937e670efcc7d9082905190815260200160405180910390a1505050565b600160a060020a0380841660009081526020818152604080832093861683529290522054611bdb908261223c565b600160a060020a0380851660008181526020818152604080832094881680845294909152908190209390935590917f4e45da441832cf53bdaa69235704fc0575e68210f459ee1562911024b12967d59084905190815260200160405180910390a3505050565b6000806000611c508686611e35565b60008181526004602052604090819020919450909250611cac9087015187606001518861014001518961018001518a6101c0015187604080519081016040528154600160a060020a03168152600190910154602082015261224b565b905080841015611cbb57600080fd5b604080519081016040908152600160a060020a0333168252602080830187905260008681526004909152208151815473ffffffffffffffffffffffffffffffffffffffff1916600160a060020a03919091161781556020820151600190910155508154600160a060020a031615611d4b578154611d4b90600160a060020a031661012088015184600101546122b7565b611d5b3387610120015186612369565b33600160a060020a03167f6a75ae33d1548c67bfaaa25fac7ffdd9e545fa843c22b7e883e4ac8edabb37a284864260405192835260208301919091526040808301919091526060909101905180910390a2505050505050565b6000611dbf8261255b565b611dc8836126d4565b60405191825260208201526040908101905180910390209050919050565b60006001836002811115611df657fe5b141580611e0e57506001846001811115611e0c57fe5b145b801561159257506000836002811115611e2357fe5b14806115925750506000901192915050565b600080611e41846113f4565b9050611e4e8185856114a9565b1515611e5957600080fd5b8091505b5092915050565b60006001856002811115611e7457fe5b1415611ea3578151600160a060020a031684600160a060020a0316148015611e9c5750824210155b9050611592565b821580611e9c57505050421092915050565b611ebd612a06565b611ec5612a18565b60008061010060405190810160409081527f800000000000000000000000000000000000000000000000000000000000000082527f400000000000000000000000000000000000000000000000000000000000000060208301527f2000000000000000000000000000000000000000000000000000000000000000908201527f100000000000000000000000000000000000000000000000000000000000000060608201527f080000000000000000000000000000000000000000000000000000000000000060808201527f040000000000000000000000000000000000000000000000000000000000000060a08201527f020000000000000000000000000000000000000000000000000000000000000060c082015260f860020a60e082015292508551875114611ff657600080fd5b6008875181151561200357fe5b0485511461201057600080fd5b600091505b86518210156120df5782600883066008811061202d57fe5b602002015185600884048151811061204157fe5b016020015160f860020a900460f860020a0216600160f860020a031916600060f860020a02149050806120915785828151811061207a57fe5b016020015160f860020a900460f860020a026120b0565b86828151811061209d57fe5b016020015160f860020a900460f860020a025b8783815181106120bc57fe5b906020010190600160f860020a031916908160001a905350600190910190612015565b509495945050505050565b60008082518451146120ff5760009150611e5d565b5060005b83518110156121745782818151811061211857fe5b016020015160f860020a900460f860020a02600160f860020a03191684828151811061214057fe5b016020015160f860020a900460f860020a02600160f860020a03191614151561216c5760009150611e5d565b600101612103565b5060019392505050565b6000806004600061218e85611db4565b8152602081019190915260400160002091506121ab8484846127b6565b90506121c68460200151856101e00151866101600151612886565b6121df8360200151846101e00151856101600151612886565b8154600160a060020a03161561220e57815461220e90600160a060020a031661012085015184600101546122b7565b6122228460200151846101200151836115ac565b612236836020015184610120015183611bad565b50505050565b600082820183811015611e5957fe5b6000600187600181111561225b57fe5b1480156122735750600186600281111561227157fe5b145b801561227e57508242105b151561228957600080fd5b60008251600160a060020a031614156122a35750836122ad565b8382602001510190505b9695505050505050565b600160a060020a038084166000908152600160209081526040808320938616835292905220546122e7908261159a565b600160a060020a038481166000908152600160209081526040808320938716835292905290812082905590101561231d57600080fd5b81600160a060020a031683600160a060020a03167fe6e0ef9cd056ca98561ca60e347ada61e1ede2f1142a078951b7a52e1e508e608360405190815260200160405180910390a3505050565b600160a060020a03808416600090815260016020908152604080832093861683529290529081205461239b908361223c565b600160a060020a0385811660008181526001602090815260408083209489168084528583528184208790559383528282528083209383529281529190205491905290111561250e57600160a060020a03808516600081815260016020908152604080832094881680845294825280832054938352828252808320948352939052919091205461242a919061159a565b600160a060020a038086166000908152602081815260408083209388168352929052205490915061245b908261223c565b600160a060020a03808616600090815260208181526040808320938816808452939091528082209390935590916323b872dd91879130918691516020015260405160e060020a63ffffffff8616028152600160a060020a0393841660048201529190921660248201526044810191909152606401602060405180830381600087803b15156124e857600080fd5b6102c65a03f115156124f957600080fd5b50505060405180519050151561250e57600080fd5b82600160a060020a031684600160a060020a03167f989eaa915cbb416ea3d6f9a63b1a3de51770c7674b11fe21ecdf76b4e1d139108460405190815260200160405180910390a350505050565b6000815182602001518360400151846060015185608001518660a001518760c001518860e001516040516c01000000000000000000000000600160a060020a03808b16820283528916026014820152602881018760018111156125ba57fe5b60ff1660f860020a0281526001018660028111156125d457fe5b60ff1660f860020a02815260010185600160a060020a0316600160a060020a03166c0100000000000000000000000002815260140184600381111561261557fe5b60ff1660f860020a02815260010183805190602001908083835b6020831061264e5780518252601f19909201916020918201910161262f565b6001836020036101000a038019825116818451161790925250505091909101905082805190602001908083835b6020831061269a5780518252601f19909201916020918201910161267b565b6001836020036101000a03801982511681845116179092525050509190910199506040985050505050505050505180910390209050919050565b6000816101000151826101200151836101400151846101600151856101800151866101a00151876101c00151886101e001516040518089805190602001908083835b602083106127355780518252601f199092019160209182019101612716565b6001836020036101000a03801982511681845116179092525050506c01000000000000000000000000600160a060020a039b8c168102939091019283526014830199909952506034810196909652506054850193909352607484019190915260948301529092160260b482015260c801905060405180910390209050919050565b600080600061280885604001518660600151876101400151886101800151896101a001518a6101c001518a604080519081016040528154600160a060020a0316815260019091015460208201526128a0565b9150612857866040015187606001518861014001518961018001518a6101a001518b6101c001518a604080519081016040528154600160a060020a0316815260019091015460208201526128a0565b90508181101561286657600080fd5b856101a00151856101a001511061287d57806122ad565b50949350505050565b60025461112a9084908490600160a060020a03168461294e565b600080808860028111156128b057fe5b14156128be57869150612942565b60018860028111156128cc57fe5b14156128f65760008351600160a060020a031614156128ea57600080fd5b82602001519150612942565b600288600281111561290457fe5b14156100c157848403854203870281151561291b57fe5b049050600189600181111561292c57fe5b141561293c578087039150612942565b80870191505b50979650505050505050565b612959838383611bad565b6122368483836115ac565b6102006040519081016040908152600080835260208301819052908201819052606082018190526080820181905260a082015260c081016129a3612a06565b81526020016129b0612a06565b81526020016129bd612a06565b81526020016000600160a060020a0316815260200160008152602001600081526020016000815260200160008152602001600081526020016000600160a060020a031681525090565b60206040519081016040526000815290565b6101006040519081016040526008815b600081526000199091019060200181612a2857905050905600a165627a7a723058200859cc06e3c1ff2ef1cd4bdd9268cccc5aa0c52fc50fe147c5b44a0323823f390029",
  "source": "/*\n\n  Decentralized digital item exchange. Supports any digital asset that can be represented on the Ethereum blockchain.\n\n  Let us suppose two agents interacting with a distributed ledger have utility functions preferencing certain states of that ledger over others.\n  Aiming to maximize their utility, these agents may construct with their utility functions along with the present ledger state a mapping of state transitions (transactions) to marginal utilities.\n  Any composite state transition with positive marginal utility for and enactable by the combined permissions of both agents thus is a mutually desirable trade, and the trustless \n  code execution provided by a distributed ledger renders the requisite atomicity trivial.\n\n  Relative to this model, the present Exchange instantiation makes two concessions to practicality:\n  - State transition preferences are not matched directly but instead intermediated by a standard of tokenized value.\n  - A small fee is charged in the token of payment, split between protocol development and frontend compensation.\n\n  Solidity presently possesses neither a strong functional typesystem nor runtime reflection (ABI encoding in Solidity), so we must be a bit clever in implementation.\n  \n*/\n\npragma solidity 0.4.18;\n\nimport \"zeppelin-solidity/contracts/token/ERC20.sol\";\n\nimport \"../registry/Registry.sol\";\nimport \"../common/LazyBank.sol\";\nimport \"../common/ArrayUtils.sol\";\nimport \"./SaleKindInterface.sol\";\n\n/**\n * @title Exchange\n * @author Project Wyvern Developers\n */\ncontract Exchange is LazyBank {\n\n    /* The token used to pay exchange fees. */\n    ERC20 public exchangeTokenAddress;\n\n    /* User registry. */\n    Registry public registry;\n\n    /* Top bids for all bid-supporting auctions, by hash. */\n    mapping(bytes32 => SaleKindInterface.Bid) public topBids;\n \n    /* Cancelled / finalized orders, by hash. */\n    mapping(bytes32 => bool) cancelledOrFinalized;\n\n    /* An ECDSA signature. */ \n    struct Sig {\n        /* v parameter */\n        uint8 v;\n        /* r parameter */\n        bytes32 r;\n        /* s parameter */\n        bytes32 s;\n    }\n\n    /* An order on the exchange. */\n    struct Order {\n        /* Exchange address, intended as a versioning mechanism. */\n        address exchange;\n        /* The address buying/selling the item. */\n        address initiator;\n        /* Side (buy/sell). */\n        SaleKindInterface.Side side;\n        /* Kind of sale. */\n        SaleKindInterface.SaleKind saleKind;\n        /* Target. */\n        address target;\n        /* HowToCall. */\n        AuthenticatedProxy.HowToCall howToCall;\n        /* Calldata. */\n        bytes calldata;\n        /* replacementPattern pattern. */\n        bytes replacementPattern;\n        /* Order metadata IPFS hash. */\n        bytes metadataHash;\n        /* Token used to pay for the item. */\n        ERC20 paymentToken;\n        /* Base price of the item (tokens). */\n        uint basePrice;\n        /* Base fee of the item (Exchange fee tokens). */\n        uint baseFee;\n        /* Auction extra parameter - minimum bid increment for English auctions, decay factor for Dutch auctions. */\n        uint extra;\n        /* Listing timestamp. */\n        uint listingTime;\n        /* Expiration timestamp - 0 for no expiry. */\n        uint expirationTime;\n        /* Order frontend. */\n        address frontend;\n    }\n\n    event OrderCancelled  (bytes32 hash);\n    event OrderBidOn      (bytes32 hash, address indexed bidder, uint amount, uint timestamp);\n    event OrdersMatched   (Order buy, Order sell);\n\n    function chargeFee(address from, address to, uint amount)\n        internal\n    {\n        transferTo(from, to, exchangeTokenAddress, amount);\n    }\n\n    function hashOrderPartOne(Order order)\n        internal\n        pure\n        returns (bytes32)\n    {\n        return keccak256(order.exchange, order.initiator, order.side, order.saleKind, order.target, order.howToCall, order.calldata, order.replacementPattern);\n    }\n\n    function hashOrderPartTwo(Order order)\n        internal\n        pure\n        returns (bytes32)\n    {\n        return keccak256(order.metadataHash, order.paymentToken, order.basePrice, order.baseFee, order.extra, order.listingTime, order.expirationTime, order.frontend);\n    }\n\n    function hashOrder(Order order)\n        internal\n        pure\n        returns (bytes32)\n    {\n        /* This is silly, but necessary due to Solidity compiler stack size constraints. */\n        return keccak256(hashOrderPartOne(order), hashOrderPartTwo(order));\n    }\n\n    function hashOrder_(\n        address[5] addrs,\n        uint[5] uints,\n        SaleKindInterface.Side side,\n        SaleKindInterface.SaleKind saleKind,\n        AuthenticatedProxy.HowToCall howToCall,\n        bytes calldata,\n        bytes replacementPattern,\n        bytes metadataHash)\n        public\n        pure\n        returns (bytes32)\n    { \n        return hashOrder(\n          Order(addrs[0], addrs[1], side, saleKind, addrs[2], howToCall, calldata, replacementPattern, metadataHash, ERC20(addrs[3]), uints[0], uints[1], uints[2], uints[3], uints[4], addrs[4])\n        );\n    }\n\n    function hashToSign(Order order)\n        internal\n        pure\n        returns (bytes32)\n    {\n        bytes memory prefix = \"\\x19Ethereum Signed Message:\\n32\";\n        bytes32 hash = keccak256(prefix, hashOrder(order));\n        return hash;\n    }\n\n    function requireValidOrder(Order order, Sig sig)\n        internal\n        view\n        returns (bytes32)\n    {\n        bytes32 hash = hashToSign(order);\n        require(validateOrder(hash, order, sig));\n        return hash;\n    }\n\n    function validateOrder(bytes32 hash, Order memory order, Sig memory sig) \n        view\n        internal\n        returns (bool)\n    {\n        return(\n            order.exchange == address(this) &&\n            !cancelledOrFinalized[hash] && \n            ecrecover(hash, sig.v, sig.r, sig.s) == order.initiator &&\n            SaleKindInterface.validateParameters(order.side, order.saleKind, order.expirationTime)\n        );\n    }\n\n    /* Solidity ABI encoding limitation workaround, hopefully temporary. */\n    function validateOrder_ (\n        address[5] addrs,\n        uint[5] uints,\n        SaleKindInterface.Side side,\n        SaleKindInterface.SaleKind saleKind,\n        AuthenticatedProxy.HowToCall howToCall,\n        bytes calldata,\n        bytes replacementPattern,\n        bytes metadataHash,\n        uint8 v,\n        bytes32 r,\n        bytes32 s)\n        view\n        public\n        returns (bool)\n    {\n        Order memory order = Order(addrs[0], addrs[1], side, saleKind, addrs[2], howToCall, calldata, replacementPattern, metadataHash, ERC20(addrs[3]), uints[0], uints[1], uints[2], uints[3], uints[4], addrs[4]);\n        return validateOrder(\n          hashToSign(order),\n          order,\n          Sig(v, r, s)\n        );\n    }\n\n    function cancelOrder(Order memory order, Sig memory sig) \n        internal\n    {\n        /* CHECKS */\n        bytes32 hash = requireValidOrder(order, sig);\n        require(msg.sender == order.initiator);\n  \n        /* EFFECTS */\n        cancelledOrFinalized[hash] = true;\n\n        OrderCancelled(hash);\n    }\n\n    /* Solidity ABI encoding limitation workaround, hopefully temporary. */\n    function cancelOrder_(\n        address[5] addrs,\n        uint[5] uints,\n        SaleKindInterface.Side side,\n        SaleKindInterface.SaleKind saleKind,\n        AuthenticatedProxy.HowToCall howToCall,\n        bytes calldata,\n        bytes replacementPattern,\n        bytes metadataHash,\n        uint8 v,\n        bytes32 r,\n        bytes32 s)\n        public\n    {\n        return cancelOrder(\n          Order(addrs[0], addrs[1], side, saleKind, addrs[2], howToCall, calldata, replacementPattern, metadataHash, ERC20(addrs[3]), uints[0], uints[1], uints[2], uints[3], uints[4], addrs[4]),\n          Sig(v, r, s)\n        );\n    }\n\n    function bid (Order order, Sig sig, uint amount)\n        internal\n    {\n        /* CHECKS */\n  \n        bytes32 hash = requireValidOrder(order, sig);\n\n        SaleKindInterface.Bid storage topBid = topBids[hash];\n        \n        /* Calculated required bid price. */\n        uint requiredBidPrice = SaleKindInterface.requiredBidPrice(order.side, order.saleKind, order.basePrice, order.extra, order.expirationTime, topBid);\n\n        /* Assert bid amount is sufficient. */\n        require(amount >= requiredBidPrice);\n\n        /* EFFECTS */\n\n        /* Store the new high bid. */\n        topBids[hash] = SaleKindInterface.Bid(msg.sender, amount);\n\n        /* Unlock tokens to the previous high bidder, if existent. */\n        if (topBid.bidder != address(0)) {\n            unlock(topBid.bidder, order.paymentToken, topBid.amount);\n        }\n\n        /* Lock tokens for the new high bidder. */\n        lazyLock(msg.sender, order.paymentToken, amount);\n\n        /* Log the bid event. */\n        OrderBidOn(hash, msg.sender, amount, now);\n    }\n\n    /* Solidity ABI encoding limitation workaround, hopefully temporary. */\n    function bid_(\n        address[5] addrs,\n        uint[5] uints,\n        SaleKindInterface.Side side,\n        SaleKindInterface.SaleKind saleKind,\n        AuthenticatedProxy.HowToCall howToCall,\n        bytes calldata,\n        bytes replacementPattern,\n        bytes metadataHash,\n        uint8 v,\n        bytes32 r,\n        bytes32 s,\n        uint amount)\n        public\n    {\n        return bid(\n          Order(addrs[0], addrs[1], side, saleKind, addrs[2], howToCall, calldata, replacementPattern, metadataHash, ERC20(addrs[3]), uints[0], uints[1], uints[2], uints[3], uints[4], addrs[4]),\n          Sig(v, r, s),\n          amount\n        );\n    }\n\n    function calculateMatchPrice(Order buy, Order sell, SaleKindInterface.Bid storage topBid)\n        view\n        internal\n        returns (uint price)\n    {\n        /* Calculate sell price. */\n        uint sellPrice = SaleKindInterface.calculateFinalPrice(sell.side, sell.saleKind, sell.basePrice, sell.extra, sell.listingTime, sell.expirationTime, topBid);\n\n        /* Calculate buy price. */\n        uint buyPrice = SaleKindInterface.calculateFinalPrice(buy.side, buy.saleKind, buy.basePrice, buy.extra, buy.listingTime, buy.expirationTime, topBid);\n\n        /* Require price cross. */\n        require(buyPrice >= sellPrice);\n        \n        /* Time priority. */\n        price = sell.listingTime < buy.listingTime ? sellPrice : buyPrice;\n\n        return price;\n    }\n\n    function executeFundsTransfer(Order buy, Order sell)\n        internal\n    {\n        /* Fetch top bid, if existent. */\n        SaleKindInterface.Bid storage topBid = topBids[hashOrder(sell)];\n\n        /* Calculate match price. */\n        uint price = calculateMatchPrice(buy, sell, topBid);\n\n        /* Charge fees. */\n        chargeFee(buy.initiator, buy.frontend, buy.baseFee);\n        chargeFee(sell.initiator, sell.frontend, sell.baseFee);\n\n        /* Unlock tokens for top bidder, if existent. */\n        if (topBid.bidder != address(0)) {\n            unlock(topBid.bidder, sell.paymentToken, topBid.amount);\n        }\n\n        /* Debit buyer. */\n        lazyDebit(buy.initiator, sell.paymentToken, price);\n\n        /* Credit seller. */\n        credit(sell.initiator, sell.paymentToken, price);\n    }\n\n    function atomicMatch(Order buy, Sig buySig, Order sell, Sig sellSig)\n        internal\n    {\n        /* CHECKS */\n      \n        bytes32 buyHash = requireValidOrder(buy, buySig);\n        bytes32 sellHash = requireValidOrder(sell, sellSig); \n\n        /* Must be opposite-side. */\n        require(buy.side == SaleKindInterface.Side.Buy && sell.side == SaleKindInterface.Side.Sell);\n\n        /* Must use same payment token. */\n        require(buy.paymentToken == sell.paymentToken);\n\n        /* Must be settleable. */\n        SaleKindInterface.Bid storage topBid = topBids[sellHash];\n        require(SaleKindInterface.canSettleOrder(buy.saleKind, sell.initiator, buy.expirationTime, SaleKindInterface.Bid({ bidder: address(0), amount: 0 })));\n        require(SaleKindInterface.canSettleOrder(sell.saleKind, buy.initiator, sell.expirationTime, topBid));\n        \n        /* Must match target. */\n        require(buy.target == sell.target);\n\n        /* Must match howToCall. */\n        require(buy.howToCall == sell.howToCall);\n       \n        /* Must match calldata after replacementPattern. */ \n        ArrayUtils.guardedArrayReplace(buy.calldata, sell.calldata, buy.replacementPattern);\n        ArrayUtils.guardedArrayReplace(sell.calldata, buy.calldata, sell.replacementPattern);\n        require(ArrayUtils.arrayEq(buy.calldata, sell.calldata));\n\n        /* Retrieve proxy (the registry contract is trusted). */\n        AuthenticatedProxy proxy = registry.proxies(sell.initiator);\n\n        /* Proxy must exist. */\n        require(proxy != address(0));\n\n        /* EFFECTS */\n\n        /* Mark orders as finalized. */\n        cancelledOrFinalized[buyHash] = true;\n        cancelledOrFinalized[sellHash] = true;\n\n        /* Validate and transfer funds. */ \n        executeFundsTransfer(buy, sell);\n\n        /* INTERACTIONS */\n\n        /* Execute call through proxy. is is though? lazyDebit? safer to reentrancy guard?\n           This is the *only* external call to untrusted contract(s) in this function. */\n        require(proxy.proxy(sell.target, sell.howToCall, sell.calldata));\n\n        /* Log match event. */\n        OrdersMatched(buy, sell);\n    }\n\n    /* Solidity ABI encoding limitation workaround, hopefully temporary. */\n    function atomicMatch_(\n        address[10] addrs,\n        uint[10] uints,\n        uint8[6] sidesKindsHowToCalls,\n        bytes calldataBuy,\n        bytes calldataSell,\n        bytes replacementPatternBuy,\n        bytes replacementPatternSell,\n        bytes metadataHashBuy,\n        bytes metadataHashSell,\n        uint8[2] vs,\n        bytes32[4] rss)\n        public\n    {\n        return atomicMatch(\n          Order(addrs[0], addrs[1], SaleKindInterface.Side(sidesKindsHowToCalls[0]), SaleKindInterface.SaleKind(sidesKindsHowToCalls[1]), addrs[2], AuthenticatedProxy.HowToCall(sidesKindsHowToCalls[2]), calldataBuy, replacementPatternBuy, metadataHashBuy, ERC20(addrs[3]), uints[0], uints[1], uints[2], uints[3], uints[4], addrs[4]),\n          Sig(vs[0], rss[0], rss[1]),\n          Order(addrs[5], addrs[6], SaleKindInterface.Side(sidesKindsHowToCalls[3]), SaleKindInterface.SaleKind(sidesKindsHowToCalls[4]), addrs[7], AuthenticatedProxy.HowToCall(sidesKindsHowToCalls[5]), calldataSell, replacementPatternSell, metadataHashSell, ERC20(addrs[8]), uints[5], uints[6], uints[7], uints[8], uints[9], addrs[9]),\n          Sig(vs[1], rss[2], rss[3])\n        );\n    }\n\n}\n",
  "sourcePath": "/home/cwgoes/working/crypto/wyvern/wyvern-ethereum/contracts/exchange/Exchange.sol",
  "compiler": {
    "name": "solc",
    "version": "0.4.18+commit.9cf6e910.Emscripten.clang"
  },
  "schemaVersion": "1.0.1",
  "updatedAt": "2018-01-13T04:20:21.511Z"
}