{
  "contractName": "Exchange",
  "abi": [
    {
      "constant": true,
      "inputs": [
        {
          "name": "target",
          "type": "address"
        },
        {
          "name": "calldata",
          "type": "bytes"
        },
        {
          "name": "extradata",
          "type": "bytes"
        }
      ],
      "name": "staticCall",
      "outputs": [
        {
          "name": "result",
          "type": "bool"
        }
      ],
      "payable": false,
      "stateMutability": "view",
      "type": "function"
    },
    {
      "constant": true,
      "inputs": [
        {
          "name": "addrs",
          "type": "address[14]"
        },
        {
          "name": "uints",
          "type": "uint256[14]"
        },
        {
          "name": "sidesKindsHowToCalls",
          "type": "uint8[6]"
        },
        {
          "name": "calldataBuy",
          "type": "bytes"
        },
        {
          "name": "calldataSell",
          "type": "bytes"
        },
        {
          "name": "replacementPatternBuy",
          "type": "bytes"
        },
        {
          "name": "replacementPatternSell",
          "type": "bytes"
        },
        {
          "name": "staticExtradataBuy",
          "type": "bytes"
        },
        {
          "name": "staticExtradataSell",
          "type": "bytes"
        }
      ],
      "name": "ordersCanMatch_",
      "outputs": [
        {
          "name": "",
          "type": "bool"
        }
      ],
      "payable": false,
      "stateMutability": "view",
      "type": "function"
    },
    {
      "constant": false,
      "inputs": [
        {
          "name": "addrs",
          "type": "address[7]"
        },
        {
          "name": "uints",
          "type": "uint256[7]"
        },
        {
          "name": "side",
          "type": "uint8"
        },
        {
          "name": "saleKind",
          "type": "uint8"
        },
        {
          "name": "howToCall",
          "type": "uint8"
        },
        {
          "name": "calldata",
          "type": "bytes"
        },
        {
          "name": "replacementPattern",
          "type": "bytes"
        },
        {
          "name": "staticExtradata",
          "type": "bytes"
        },
        {
          "name": "orderbookInclusionDesired",
          "type": "bool"
        }
      ],
      "name": "approveOrder_",
      "outputs": [],
      "payable": false,
      "stateMutability": "nonpayable",
      "type": "function"
    },
    {
      "constant": true,
      "inputs": [
        {
          "name": "array",
          "type": "bytes"
        },
        {
          "name": "desired",
          "type": "bytes"
        },
        {
          "name": "mask",
          "type": "bytes"
        }
      ],
      "name": "guardedArrayReplace",
      "outputs": [
        {
          "name": "",
          "type": "bytes"
        }
      ],
      "payable": false,
      "stateMutability": "pure",
      "type": "function"
    },
    {
      "constant": false,
      "inputs": [
        {
          "name": "addrs",
          "type": "address[7]"
        },
        {
          "name": "uints",
          "type": "uint256[7]"
        },
        {
          "name": "side",
          "type": "uint8"
        },
        {
          "name": "saleKind",
          "type": "uint8"
        },
        {
          "name": "howToCall",
          "type": "uint8"
        },
        {
          "name": "calldata",
          "type": "bytes"
        },
        {
          "name": "replacementPattern",
          "type": "bytes"
        },
        {
          "name": "staticExtradata",
          "type": "bytes"
        },
        {
          "name": "v",
          "type": "uint8"
        },
        {
          "name": "r",
          "type": "bytes32"
        },
        {
          "name": "s",
          "type": "bytes32"
        }
      ],
      "name": "cancelOrder_",
      "outputs": [],
      "payable": false,
      "stateMutability": "nonpayable",
      "type": "function"
    },
    {
      "constant": true,
      "inputs": [
        {
          "name": "buyCalldata",
          "type": "bytes"
        },
        {
          "name": "buyReplacementPattern",
          "type": "bytes"
        },
        {
          "name": "sellCalldata",
          "type": "bytes"
        },
        {
          "name": "sellReplacementPattern",
          "type": "bytes"
        }
      ],
      "name": "orderCalldataCanMatch",
      "outputs": [
        {
          "name": "",
          "type": "bool"
        }
      ],
      "payable": false,
      "stateMutability": "pure",
      "type": "function"
    },
    {
      "constant": true,
      "inputs": [
        {
          "name": "addrs",
          "type": "address[14]"
        },
        {
          "name": "uints",
          "type": "uint256[14]"
        },
        {
          "name": "sidesKindsHowToCalls",
          "type": "uint8[6]"
        },
        {
          "name": "calldataBuy",
          "type": "bytes"
        },
        {
          "name": "calldataSell",
          "type": "bytes"
        },
        {
          "name": "replacementPatternBuy",
          "type": "bytes"
        },
        {
          "name": "replacementPatternSell",
          "type": "bytes"
        },
        {
          "name": "staticExtradataBuy",
          "type": "bytes"
        },
        {
          "name": "staticExtradataSell",
          "type": "bytes"
        }
      ],
      "name": "calculateMatchPrice_",
      "outputs": [
        {
          "name": "",
          "type": "uint256"
        }
      ],
      "payable": false,
      "stateMutability": "view",
      "type": "function"
    },
    {
      "constant": true,
      "inputs": [
        {
          "name": "side",
          "type": "uint8"
        },
        {
          "name": "saleKind",
          "type": "uint8"
        },
        {
          "name": "basePrice",
          "type": "uint256"
        },
        {
          "name": "extra",
          "type": "uint256"
        },
        {
          "name": "listingTime",
          "type": "uint256"
        },
        {
          "name": "expirationTime",
          "type": "uint256"
        }
      ],
      "name": "calculateFinalPrice",
      "outputs": [
        {
          "name": "",
          "type": "uint256"
        }
      ],
      "payable": false,
      "stateMutability": "view",
      "type": "function"
    },
    {
      "constant": true,
      "inputs": [
        {
          "name": "addrs",
          "type": "address[7]"
        },
        {
          "name": "uints",
          "type": "uint256[7]"
        },
        {
          "name": "side",
          "type": "uint8"
        },
        {
          "name": "saleKind",
          "type": "uint8"
        },
        {
          "name": "howToCall",
          "type": "uint8"
        },
        {
          "name": "calldata",
          "type": "bytes"
        },
        {
          "name": "replacementPattern",
          "type": "bytes"
        },
        {
          "name": "staticExtradata",
          "type": "bytes"
        },
        {
          "name": "v",
          "type": "uint8"
        },
        {
          "name": "r",
          "type": "bytes32"
        },
        {
          "name": "s",
          "type": "bytes32"
        }
      ],
      "name": "validateOrder_",
      "outputs": [
        {
          "name": "",
          "type": "bool"
        }
      ],
      "payable": false,
      "stateMutability": "view",
      "type": "function"
    },
    {
      "constant": true,
      "inputs": [],
      "name": "registry",
      "outputs": [
        {
          "name": "",
          "type": "address"
        }
      ],
      "payable": false,
      "stateMutability": "view",
      "type": "function"
    },
    {
      "constant": true,
      "inputs": [
        {
          "name": "",
          "type": "bytes32"
        }
      ],
      "name": "cancelledOrFinalized",
      "outputs": [
        {
          "name": "",
          "type": "bool"
        }
      ],
      "payable": false,
      "stateMutability": "view",
      "type": "function"
    },
    {
      "constant": true,
      "inputs": [],
      "name": "exchangeToken",
      "outputs": [
        {
          "name": "",
          "type": "address"
        }
      ],
      "payable": false,
      "stateMutability": "view",
      "type": "function"
    },
    {
      "constant": false,
      "inputs": [
        {
          "name": "addrs",
          "type": "address[14]"
        },
        {
          "name": "uints",
          "type": "uint256[14]"
        },
        {
          "name": "sidesKindsHowToCalls",
          "type": "uint8[6]"
        },
        {
          "name": "calldataBuy",
          "type": "bytes"
        },
        {
          "name": "calldataSell",
          "type": "bytes"
        },
        {
          "name": "replacementPatternBuy",
          "type": "bytes"
        },
        {
          "name": "replacementPatternSell",
          "type": "bytes"
        },
        {
          "name": "staticExtradataBuy",
          "type": "bytes"
        },
        {
          "name": "staticExtradataSell",
          "type": "bytes"
        },
        {
          "name": "vs",
          "type": "uint8[2]"
        },
        {
          "name": "rssMetadata",
          "type": "bytes32[5]"
        }
      ],
      "name": "atomicMatch_",
      "outputs": [],
      "payable": false,
      "stateMutability": "nonpayable",
      "type": "function"
    },
    {
      "constant": true,
      "inputs": [
        {
          "name": "",
          "type": "bytes32"
        }
      ],
      "name": "approvedOrders",
      "outputs": [
        {
          "name": "",
          "type": "bool"
        }
      ],
      "payable": false,
      "stateMutability": "view",
      "type": "function"
    },
    {
      "constant": true,
      "inputs": [
        {
          "name": "addrs",
          "type": "address[7]"
        },
        {
          "name": "uints",
          "type": "uint256[7]"
        },
        {
          "name": "side",
          "type": "uint8"
        },
        {
          "name": "saleKind",
          "type": "uint8"
        },
        {
          "name": "howToCall",
          "type": "uint8"
        },
        {
          "name": "calldata",
          "type": "bytes"
        },
        {
          "name": "replacementPattern",
          "type": "bytes"
        },
        {
          "name": "staticExtradata",
          "type": "bytes"
        }
      ],
      "name": "calculateCurrentPrice_",
      "outputs": [
        {
          "name": "",
          "type": "uint256"
        }
      ],
      "payable": false,
      "stateMutability": "view",
      "type": "function"
    },
    {
      "constant": true,
      "inputs": [
        {
          "name": "addrs",
          "type": "address[7]"
        },
        {
          "name": "uints",
          "type": "uint256[7]"
        },
        {
          "name": "side",
          "type": "uint8"
        },
        {
          "name": "saleKind",
          "type": "uint8"
        },
        {
          "name": "howToCall",
          "type": "uint8"
        },
        {
          "name": "calldata",
          "type": "bytes"
        },
        {
          "name": "replacementPattern",
          "type": "bytes"
        },
        {
          "name": "staticExtradata",
          "type": "bytes"
        }
      ],
      "name": "hashOrder_",
      "outputs": [
        {
          "name": "",
          "type": "bytes32"
        }
      ],
      "payable": false,
      "stateMutability": "pure",
      "type": "function"
    },
    {
      "anonymous": false,
      "inputs": [
        {
          "indexed": true,
          "name": "hash",
          "type": "bytes32"
        },
        {
          "indexed": false,
          "name": "exchange",
          "type": "address"
        },
        {
          "indexed": true,
          "name": "maker",
          "type": "address"
        },
        {
          "indexed": false,
          "name": "taker",
          "type": "address"
        },
        {
          "indexed": false,
          "name": "makerFee",
          "type": "uint256"
        },
        {
          "indexed": false,
          "name": "takerFee",
          "type": "uint256"
        },
        {
          "indexed": true,
          "name": "feeRecipient",
          "type": "address"
        },
        {
          "indexed": false,
          "name": "side",
          "type": "uint8"
        },
        {
          "indexed": false,
          "name": "saleKind",
          "type": "uint8"
        },
        {
          "indexed": false,
          "name": "target",
          "type": "address"
        },
        {
          "indexed": false,
          "name": "howToCall",
          "type": "uint8"
        },
        {
          "indexed": false,
          "name": "calldata",
          "type": "bytes"
        }
      ],
      "name": "OrderApprovedPartOne",
      "type": "event"
    },
    {
      "anonymous": false,
      "inputs": [
        {
          "indexed": true,
          "name": "hash",
          "type": "bytes32"
        },
        {
          "indexed": false,
          "name": "replacementPattern",
          "type": "bytes"
        },
        {
          "indexed": false,
          "name": "staticTarget",
          "type": "address"
        },
        {
          "indexed": false,
          "name": "staticExtradata",
          "type": "bytes"
        },
        {
          "indexed": false,
          "name": "paymentToken",
          "type": "address"
        },
        {
          "indexed": false,
          "name": "basePrice",
          "type": "uint256"
        },
        {
          "indexed": false,
          "name": "extra",
          "type": "uint256"
        },
        {
          "indexed": false,
          "name": "listingTime",
          "type": "uint256"
        },
        {
          "indexed": false,
          "name": "expirationTime",
          "type": "uint256"
        },
        {
          "indexed": false,
          "name": "salt",
          "type": "uint256"
        },
        {
          "indexed": false,
          "name": "orderbookInclusionDesired",
          "type": "bool"
        }
      ],
      "name": "OrderApprovedPartTwo",
      "type": "event"
    },
    {
      "anonymous": false,
      "inputs": [
        {
          "indexed": true,
          "name": "hash",
          "type": "bytes32"
        }
      ],
      "name": "OrderCancelled",
      "type": "event"
    },
    {
      "anonymous": false,
      "inputs": [
        {
          "indexed": false,
          "name": "buyHash",
          "type": "bytes32"
        },
        {
          "indexed": false,
          "name": "sellHash",
          "type": "bytes32"
        },
        {
          "indexed": true,
          "name": "maker",
          "type": "address"
        },
        {
          "indexed": true,
          "name": "taker",
          "type": "address"
        },
        {
          "indexed": false,
          "name": "price",
          "type": "uint256"
        },
        {
          "indexed": true,
          "name": "metadata",
          "type": "bytes32"
        }
      ],
      "name": "OrdersMatched",
      "type": "event"
    }
  ],
  "bytecode": "0x60606040526000805460ff19169055341561001957600080fd5b613892806100286000396000f3006060604052600436106100cc5763ffffffff60e060020a60003504166310796a4781146100d1578063136f5b5a146101865780631665e6b31461039c578063239e83df146104e157806335d91b851461062d578063562b2ebc1461077c578063582420bb1461089357806363d36c0b14610abb5780637627e94114610ae65780637b10399914610c355780638076f00514610c64578063a25eb5d914610c7a578063e1e9360414610c8d578063e57d4adb14610ef7578063f4c9180714610f0d578063f9c29e661461104c575b600080fd5b34156100dc57600080fd5b61017260048035600160a060020a03169060446024803590810190830135806020601f8201819004810201604051908101604052818152929190602084018383808284378201915050505050509190803590602001908201803590602001908080601f01602080910402602001604051908101604052818152929190602084018383808284375094965061118b95505050505050565b604051901515815260200160405180910390f35b341561019157600080fd5b61017260046101c481600e6101c0604051908101604052919082826101c08082843782019150505050509190806101c00190600e80602002604051908101604052919082826101c080828437820191505050505091908060c001906006806020026040519081016040529190828260c0808284375093959460208082019550903586018082019450359250829150601f8201819004810201604051908101604052818152929190602084018383808284378201915050505050509190803590602001908201803590602001908080601f01602080910402602001604051908101604052818152929190602084018383808284378201915050505050509190803590602001908201803590602001908080601f01602080910402602001604051908101604052818152929190602084018383808284378201915050505050509190803590602001908201803590602001908080601f01602080910402602001604051908101604052818152929190602084018383808284378201915050505050509190803590602001908201803590602001908080601f01602080910402602001604051908101604052818152929190602084018383808284378201915050505050509190803590602001908201803590602001908080601f01602080910402602001604051908101604052818152929190602084018383808284375094965061129695505050505050565b34156103a757600080fd5b6104df600460e481600760e06040519081016040529190828260e080828437820191505050505091908060e001906007806020026040519081016040529190828260e08082843750939560ff8635811696602080820135831697506040808301359093169650929450608081019350606001358401808301929035918291601f83018190048102019051908101604052818152929190602084018383808284378201915050505050509190803590602001908201803590602001908080601f01602080910402602001604051908101604052818152929190602084018383808284378201915050505050509190803590602001908201803590602001908080601f0160208091040260200160405190810160405281815292919060208401838380828437509496505050509135151591506115789050565b005b34156104ec57600080fd5b6105b660046024813581810190830135806020601f8201819004810201604051908101604052818152929190602084018383808284378201915050505050509190803590602001908201803590602001908080601f01602080910402602001604051908101604052818152929190602084018383808284378201915050505050509190803590602001908201803590602001908080601f0160208091040260200160405190810160405281815292919060208401838380828437509496506116b595505050505050565b60405160208082528190810183818151815260200191508051906020019080838360005b838110156105f25780820151838201526020016105da565b50505050905090810190601f16801561061f5780820380516001836020036101000a031916815260200191505b509250505060405180910390f35b341561063857600080fd5b6104df600460e481600760e06040519081016040529190828260e080828437820191505050505091908060e001906007806020026040519081016040529190828260e08082843750939560ff8635811696602080820135831697506040808301359093169650929450608081019350606001358401808301929035918291601f83018190048102019051908101604052818152929190602084018383808284378201915050505050509190803590602001908201803590602001908080601f01602080910402602001604051908101604052818152929190602084018383808284378201915050505050509190803590602001908201803590602001908080601f0160208091040260200160405190810160405281815292919060208401838380828437509496505060ff85351694602081013594506040013592506116d2915050565b341561078757600080fd5b61017260046024813581810190830135806020601f8201819004810201604051908101604052818152929190602084018383808284378201915050505050509190803590602001908201803590602001908080601f01602080910402602001604051908101604052818152929190602084018383808284378201915050505050509190803590602001908201803590602001908080601f01602080910402602001604051908101604052818152929190602084018383808284378201915050505050509190803590602001908201803590602001908080601f01602080910402602001604051908101604052818152929190602084018383808284375094965061182395505050505050565b341561089e57600080fd5b610aa960046101c481600e6101c0604051908101604052919082826101c08082843782019150505050509190806101c00190600e80602002604051908101604052919082826101c080828437820191505050505091908060c001906006806020026040519081016040529190828260c0808284375093959460208082019550903586018082019450359250829150601f8201819004810201604051908101604052818152929190602084018383808284378201915050505050509190803590602001908201803590602001908080601f01602080910402602001604051908101604052818152929190602084018383808284378201915050505050509190803590602001908201803590602001908080601f01602080910402602001604051908101604052818152929190602084018383808284378201915050505050509190803590602001908201803590602001908080601f01602080910402602001604051908101604052818152929190602084018383808284378201915050505050509190803590602001908201803590602001908080601f01602080910402602001604051908101604052818152929190602084018383808284378201915050505050509190803590602001908201803590602001908080601f01602080910402602001604051908101604052818152929190602084018383808284375094965061184e95505050505050565b60405190815260200160405180910390f35b3415610ac657600080fd5b610aa960ff6004358116906024351660443560643560843560a435611b20565b3415610af157600080fd5b610172600460e481600760e06040519081016040529190828260e080828437820191505050505091908060e001906007806020026040519081016040529190828260e08082843750939560ff8635811696602080820135831697506040808301359093169650929450608081019350606001358401808301929035918291601f83018190048102019051908101604052818152929190602084018383808284378201915050505050509190803590602001908201803590602001908080601f01602080910402602001604051908101604052818152929190602084018383808284378201915050505050509190803590602001908201803590602001908080601f0160208091040260200160405190810160405281815292919060208401838380828437509496505060ff8535169460208101359450604001359250611b3b915050565b3415610c4057600080fd5b610c48611ca6565b604051600160a060020a03909116815260200160405180910390f35b3415610c6f57600080fd5b610172600435611cb5565b3415610c8557600080fd5b610c48611cca565b3415610c9857600080fd5b6104df60046101c481600e6101c0604051908101604052919082826101c08082843782019150505050509190806101c00190600e80602002604051908101604052919082826101c080828437820191505050505091908060c001906006806020026040519081016040529190828260c0808284375093959460208082019550903586018082019450359250829150601f8201819004810201604051908101604052818152929190602084018383808284378201915050505050509190803590602001908201803590602001908080601f01602080910402602001604051908101604052818152929190602084018383808284378201915050505050509190803590602001908201803590602001908080601f01602080910402602001604051908101604052818152929190602084018383808284378201915050505050509190803590602001908201803590602001908080601f01602080910402602001604051908101604052818152929190602084018383808284378201915050505050509190803590602001908201803590602001908080601f01602080910402602001604051908101604052818152929190602084018383808284378201915050505050509190803590602001908201803590602001908080601f0160208091040260200160405190810160405281815292919060208401838380828437820191505050505050919080604001906002806020026040519081016040528092919082600260200280828437820191505050505091908060a001906005806020026040519081016040529190828260a08082843750939550611cde945050505050565b3415610f0257600080fd5b610172600435611ffd565b3415610f1857600080fd5b610aa9600460e481600760e06040519081016040529190828260e080828437820191505050505091908060e001906007806020026040519081016040529190828260e08082843750939560ff8635811696602080820135831697506040808301359093169650929450608081019350606001358401808301929035918291601f83018190048102019051908101604052818152929190602084018383808284378201915050505050509190803590602001908201803590602001908080601f01602080910402602001604051908101604052818152929190602084018383808284378201915050505050509190803590602001908201803590602001908080601f01602080910402602001604051908101604052818152929190602084018383808284375094965061201295505050505050565b341561105757600080fd5b610aa9600460e481600760e06040519081016040529190828260e080828437820191505050505091908060e001906007806020026040519081016040529190828260e08082843750939560ff8635811696602080820135831697506040808301359093169650929450608081019350606001358401808301929035918291601f83018190048102019051908101604052818152929190602084018383808284378201915050505050509190803590602001908201803590602001908080601f01602080910402602001604051908101604052818152929190602084018383808284378201915050505050509190803590602001908201803590602001908080601f01602080910402602001604051908101604052818152929190602084018383808284375094965061214695505050505050565b6000611195613773565b6000806111a48651865161226d565b6040518059106111b15750595b818152601f19601f830116810160200160405290509250600091505b8451821015611223578482815181106111e257fe5b016020015160f860020a900460f860020a0283838151811061120057fe5b906020010190600160f860020a031916908160001a9053506001909101906111cd565b5060005b855181101561127d5785818151811061123c57fe5b016020015160f860020a900460f860020a0283865183018151811061125d57fe5b906020010190600160f860020a031916908160001a905350600101611227565b60006040518451602086018a5afa979650505050505050565b60006112a0613785565b6112a8613785565b610280604051908101604052808d51600160a060020a031681526020018d60016020020151600160a060020a0316815260200160408e0151600160a060020a031681526020018c5181526020018c60016020020151815260200160608e0151600160a060020a031681526020018b5160ff16600181111561132557fe5b600181111561133057fe5b81526020018b6001602002015160ff16600181111561134b57fe5b600181111561135657fe5b815260200160808e0151600160a060020a0316815260200160408c015160ff16600181111561138157fe5b600181111561138c57fe5b8152602081018b90526040810189905260600160a08e0151600160a060020a031681526020810187905260400160c08e0151600160a060020a0316815260200160408d0151815260200160608d0151815260200160808d0151815260200160a08d0151815260200160c08d0151905291506102806040519081016040528060e08e0151600160a060020a031681526020016101008e0151600160a060020a031681526020016101208e0151600160a060020a0316815260200160e08d015181526020016101008d015181526020016101408e0151600160a060020a0316815260200160608c015160ff16600181111561148157fe5b600181111561148c57fe5b815260200160808c015160ff1660018111156114a457fe5b60018111156114af57fe5b81526020016101608e0151600160a060020a0316815260200160a08c015160ff1660018111156114db57fe5b60018111156114e657fe5b8152602081018a9052604081018890526060016101808e0151600160a060020a03168152602081018690526040016101a08e0151600160a060020a031681526020016101208d015181526020016101408d015181526020016101608d015181526020016101808d015181526020016101a08d0151905290506115688282612287565b9c9b505050505050505050505050565b611580613785565b610280604051908101604052808b51600160a060020a031681526020018b60016020020151600160a060020a0316815260200160408c0151600160a060020a031681526020018a5181526020018a60016020020151815260200160608c0151600160a060020a031681526020018960018111156115f957fe5b815260200188600181111561160a57fe5b815260200160808c0151600160a060020a0316815260200187600181111561162e57fe5b8152602081018790526040810186905260600160a08c0151600160a060020a031681526020810185905260400160c08c0151600160a060020a0316815260200160408b0151815260200160608b0151815260200160808b0151815260200160a08b0151815260200160c08b0151905290506116a98183612440565b50505050505050505050565b6116bd613773565b6116c884848461278c565b50825b9392505050565b611816610280604051908101604052808d51600160a060020a031681526020018d60016020020151600160a060020a0316815260200160408e0151600160a060020a031681526020018c5181526020018c60016020020151815260200160608e0151600160a060020a031681526020018b600181111561174e57fe5b81526020018a600181111561175f57fe5b815260200160808e0151600160a060020a0316815260200189600181111561178357fe5b8152602081018990526040810188905260600160a08e0151600160a060020a031681526020810187905260400160c08e0151600160a060020a0316815260200160408d0151815260200160608d0151815260200160808d0151815260200160a08d0151815260200160c08d015190526060604051908101604090815260ff87168252602082018690528101849052612996565b5050505050505050505050565b600061183085848661278c565b61183b83868461278c565b6118458584612a15565b95945050505050565b6000611858613785565b611860613785565b610280604051908101604052808d51600160a060020a031681526020018d60016020020151600160a060020a0316815260200160408e0151600160a060020a031681526020018c5181526020018c60016020020151815260200160608e0151600160a060020a031681526020018b5160ff1660018111156118dd57fe5b60018111156118e857fe5b81526020018b6001602002015160ff16600181111561190357fe5b600181111561190e57fe5b815260200160808e0151600160a060020a0316815260200160408c015160ff16600181111561193957fe5b600181111561194457fe5b8152602081018b90526040810189905260600160a08e0151600160a060020a031681526020810187905260400160c08e0151600160a060020a0316815260200160408d0151815260200160608d0151815260200160808d0151815260200160a08d0151815260200160c08d0151905291506102806040519081016040528060e08e0151600160a060020a031681526020016101008e0151600160a060020a031681526020016101208e0151600160a060020a0316815260200160e08d015181526020016101008d015181526020016101408e0151600160a060020a0316815260200160608c015160ff166001811115611a3957fe5b6001811115611a4457fe5b815260200160808c015160ff166001811115611a5c57fe5b6001811115611a6757fe5b81526020016101608e0151600160a060020a0316815260200160a08c015160ff166001811115611a9357fe5b6001811115611a9e57fe5b8152602081018a9052604081018890526060016101808e0151600160a060020a03168152602081018690526040016101a08e0151600160a060020a031681526020016101208d015181526020016101408d015181526020016101608d015181526020016101808d015181526020016101a08d0151905290506115688282612aa9565b6000611b30878787878787612b37565b979650505050505050565b6000611b45613785565b610280604051908101604052808e51600160a060020a031681526020018e60016020020151600160a060020a0316815260200160408f0151600160a060020a031681526020018d5181526020018d60016020020151815260200160608f0151600160a060020a031681526020018c6001811115611bbe57fe5b81526020018b6001811115611bcf57fe5b815260200160808f0151600160a060020a031681526020018a6001811115611bf357fe5b8152602081018a90526040810189905260600160a08f0151600160a060020a031681526020810188905260400160c08f0151600160a060020a0316815260200160408e0151815260200160608e0151815260200160808e0151815260200160a08e0151815260200160c08e015190529050611c95611c7082612bca565b826060604051908101604090815260ff8a168252602082018990528101879052612c8d565b9d9c50505050505050505050505050565b600154600160a060020a031681565b60026020526000908152604090205460ff1681565b6000546101009004600160a060020a031681565b611816610280604051908101604052808d51600160a060020a031681526020018d60016020020151600160a060020a0316815260200160408e0151600160a060020a031681526020018c5181526020018c60016020020151815260200160608e0151600160a060020a031681526020018b5160ff166001811115611d5e57fe5b6001811115611d6957fe5b81526020018b6001602002015160ff166001811115611d8457fe5b6001811115611d8f57fe5b815260200160808e0151600160a060020a0316815260200160408c015160ff166001811115611dba57fe5b6001811115611dc557fe5b8152602081018b90526040810189905260600160a08e0151600160a060020a031681526020810187905260400160c08e0151600160a060020a0316815260200160408d0151815260200160608d0151815260200160808d0151815260200160a08d0151815260200160c08d01519052606060405190810160405280855160ff1681526020018451815260200184600160200201519052610280604051908101604052808f60076020020151600160a060020a031681526020018f60086020020151600160a060020a031681526020018f60096020020151600160a060020a0316815260200160e08f015181526020016101008f015181526020018f600a6020020151600160a060020a0316815260200160608e015160ff166001811115611ee857fe5b6001811115611ef357fe5b815260200160808e015160ff166001811115611f0b57fe5b6001811115611f1657fe5b81526020018f600b6020020151600160a060020a0316815260200160a08e015160ff166001811115611f4457fe5b6001811115611f4f57fe5b8152602081018c9052604081018a90526060018f600c6020020151600160a060020a03168152602081018890526040018f600d6020020151600160a060020a031681526020016101208f015181526020016101408f015181526020016101608f015181526020016101808f015181526020016101a08f01519052606060405190810160405280602088015160ff16815260200160408701518152602001606087015190526080860151612ddc565b60036020526000908152604090205460ff1681565b6000612139610280604051908101604052808b51600160a060020a031681526020018b60016020020151600160a060020a0316815260200160408c0151600160a060020a031681526020018a5181526020018a60016020020151815260200160608c0151600160a060020a0316815260200189600181111561209057fe5b81526020018860018111156120a157fe5b815260200160808c0151600160a060020a031681526020018760018111156120c557fe5b8152602081018790526040810186905260600160a08c0151600160a060020a031681526020810185905260400160c08c0151600160a060020a0316815260200160408b0151815260200160608b0151815260200160808b0151815260200160a08b0151815260200160c08b015190526131cf565b9998505050505050505050565b6000612139610280604051908101604052808b51600160a060020a031681526020018b60016020020151600160a060020a0316815260200160408c0151600160a060020a031681526020018a5181526020018a60016020020151815260200160608c0151600160a060020a031681526020018960018111156121c457fe5b81526020018860018111156121d557fe5b815260200160808c0151600160a060020a031681526020018760018111156121f957fe5b8152602081018790526040810186905260600160a08c0151600160a060020a031681526020810185905260400160c08c0151600160a060020a0316815260200160408b0151815260200160608b0151815260200160808b0151815260200160a08b0151815260200160c08b01519052612bca565b60008282018381101561227c57fe5b8091505b5092915050565b6000808360c00151600181111561229a57fe5b1480156122b6575060018260c0015160018111156122b457fe5b145b80156122dd5750816101c00151600160a060020a0316836101c00151600160a060020a0316145b8015612319575060006040830151600160a060020a0316148061231957508260200151600160a060020a03168260400151600160a060020a0316145b8015612355575060006040840151600160a060020a0316148061235557508160200151600160a060020a03168360400151600160a060020a0316145b80156123b85750600060a0830151600160a060020a03161480156123875750600060a0840151600160a060020a031614155b806123b85750600060a0830151600160a060020a0316141580156123b85750600060a0840151600160a060020a0316145b80156123df5750816101000151600160a060020a0316836101000151600160a060020a0316145b801561240a575081610120015160018111156123f757fe5b836101200151600181111561240857fe5b145b80156124255750612425836102200151846102400151613201565b80156116cb57506116cb826102200151836102400151613201565b60008260200151600160a060020a031633600160a060020a031614151561246657600080fd5b61246f83612bca565b60008181526003602052604090205490915060ff161561248e57600080fd5b6000818152600360205260409020805460ff1916600117905560a0830151600160a060020a03168360200151600160a060020a0316827faee3673166cb20f9607e8257375d5244a4f82611eb34a8319dd0b527e89460bf86518760400151886060015189608001518a60c001518b60e001518c61010001518d61012001518e6101400151604051600160a060020a03808b1682528916602082015260408101889052606081018790526080810186600181111561254757fe5b60ff16815260200185600181111561255b57fe5b60ff168152600160a060020a038516602082015260400183600181111561257e57fe5b60ff16815260200180602001828103825283818151815260200191508051906020019080838360005b838110156125bf5780820151838201526020016125a7565b50505050905090810190601f1680156125ec5780820380516001836020036101000a031916815260200191505b509a505050505050505050505060405180910390a4807f6b227a8fe336bb14cfe503246633ca4550cd8065f1933a5ffaf83a955eaa40ed610160850151856101800151866101a00151876101c00151886101e001518961020001518a61022001518b61024001518c61026001518c604051600160a060020a03808b166020830152881660608201526080810187905260a0810186905260c0810185905260e0810184905261010081018390528115156101208201526101408082528190604082019082018d818151815260200191508051906020019080838360005b838110156126e05780820151838201526020016126c8565b50505050905090810190601f16801561270d5780820380516001836020036101000a031916815260200191505b5083810382528b818151815260200191508051906020019080838360005b8381101561274357808201518382015260200161272b565b50505050905090810190601f1680156127705780820380516001836020036101000a031916815260200191505b509c5050505050505050505050505060405180910390a2505050565b61279461383d565b60008061010060405190810160409081527f800000000000000000000000000000000000000000000000000000000000000082527f400000000000000000000000000000000000000000000000000000000000000060208301527f2000000000000000000000000000000000000000000000000000000000000000908201527f100000000000000000000000000000000000000000000000000000000000000060608201527f080000000000000000000000000000000000000000000000000000000000000060808201527f040000000000000000000000000000000000000000000000000000000000000060a08201527f020000000000000000000000000000000000000000000000000000000000000060c082015260f860020a60e0820152925084518651146128c557600080fd5b600886518115156128d257fe5b04845110156128e057600080fd5b600091505b855182101561298e578260088306600881106128fd57fe5b602002015184600884048151811061291157fe5b016020015160f860020a900460f860020a0216600160f860020a031916600060f860020a021490508015156129835784828151811061294c57fe5b016020015160f860020a900460f860020a0286838151811061296a57fe5b906020010190600160f860020a031916908160001a9053505b6001909101906128e5565b505050505050565b60006129a2838361321d565b90508260200151600160a060020a031633600160a060020a03161415156129c857600080fd5b60008181526002602052604090819020805460ff1916600117905581907f5152abf959f6564662358c2e52b702259b78bac5ee7842a0f01937e670efcc7d905160405180910390a2505050565b6000808251845114612a2a5760009150612280565b5060005b8351811015612a9f57828181518110612a4357fe5b016020015160f860020a900460f860020a02600160f860020a031916848281518110612a6b57fe5b016020015160f860020a900460f860020a02600160f860020a031916141515612a975760009150612280565b600101612a2e565b5060019392505050565b6000806000612ad88460c001518560e00151866101e00151876102000151886102200151896102400151612b37565b9150612b048560c001518660e00151876101e001518861020001518961022001518a6102400151612b37565b905081811015612b1357600080fd5b600060a0850151600160a060020a03161415612b2f5780611845565b509392505050565b60008080876001811115612b4757fe5b1415612b5557859150612bbf565b6001876001811115612b6357fe5b1415612bbf57612b8e612b7f86612b7a4288613241565b613253565b612b898587613241565b61327e565b90506001886001811115612b9e57fe5b1415612bb557612bae8682613241565b9150612bbf565b612bae868261226d565b509695505050505050565b6000612bd4613773565b600060408051908101604052601c81527f19457468657265756d205369676e6564204d6573736167653a0a3332000000006020820152915081612c1685613295565b612c1f8661344c565b6040518084805190602001908083835b60208310612c4e5780518252601f199092019160209182019101612c2f565b6001836020036101000a038019825116818451161790925250505091909101938452505060208201526040908101915051908190039020949350505050565b6000600160a060020a0330168351600160a060020a031614612cb1575060006116cb565b60008481526002602052604090205460ff1615612cd0575060006116cb565b612ce38360e0015184610240015161354b565b1515612cf1575060006116cb565b8260200151600160a060020a031633600160a060020a03161415612d17575060016116cb565b60008481526003602052604090205460ff1615612d36575060016116cb565b8260200151600160a060020a03166001858451856020015186604001516040516000815260200160405260006040516020015260405193845260ff90921660208085019190915260408085019290925260608401929092526080909201915160208103908084039060008661646e5a03f11515612db257600080fd5b505060206040510351600160a060020a03161415612dd2575060016116cb565b5060009392505050565b600080548190819081908190819060ff1615612df757600080fd5b6000805460ff19166001179055612e0e8b8b61321d565b9550612e1a898961321d565b9450612e268b8a612287565b1515612e3157600080fd5b886101000151803b9450925060008411612e4a57600080fd5b60008b6101600151511115612e7357612e738b61014001518a61014001518d610160015161278c565b6000896101600151511115612e9c57612e9c8961014001518c61014001518b610160015161278c565b612eb08b61014001518a6101400151612a15565b1515612ebb57600080fd5b600154600160a060020a031663c455279160208b015160006040516020015260405160e060020a63ffffffff8416028152600160a060020a039091166004820152602401602060405180830381600087803b1515612f1857600080fd5b6102c65a03f11515612f2957600080fd5b5050506040518051925050600160a060020a0382161515612f4957600080fd5b6000868152600260205260408082208054600160ff1991821681179092558884529190922080549091169091179055612f828b8a61356b565b905081600160a060020a0316631b0f7ba98a61010001518b61012001518c61014001516000604051602001526040518463ffffffff1660e060020a0281526004018084600160a060020a0316600160a060020a03168152602001836001811115612fe857fe5b60ff16815260200180602001828103825283818151815260200191508051906020019080838360005b83811015613029578082015183820152602001613011565b50505050905090810190601f1680156130565780820380516001836020036101000a031916815260200191505b50945050505050602060405180830381600087803b151561307657600080fd5b6102c65a03f1151561308757600080fd5b50505060405180519050151561309c57600080fd5b60006101808c0151600160a060020a0316146130d7576130cc8b61018001518a61014001518d6101a0015161118b565b15156130d757600080fd5b60006101808a0151600160a060020a031614613112576131078961018001518a61014001518b6101a0015161118b565b151561311257600080fd5b86600060a08b0151600160a060020a03161415613133578960200151613139565b8b602001515b600160a060020a0316600060a08c0151600160a060020a03161415613162578c60200151613168565b8a602001515b600160a060020a03167fc4109843e0b7d514e4c093114b863f8e7d8d9a458c372cd51bfe526b588006c989898660405192835260208301919091526040808301919091526060909101905180910390a450506000805460ff19169055505050505050505050565b60006131fb8260c001518360e00151846101e00151856102000151866102200151876102400151612b37565b92915050565b600042831080156116cb57508115806116cb5750504210919050565b60008061322984612bca565b9050613236818585612c8d565b151561227c57600080fd5b60008282111561324d57fe5b50900390565b6000808315156132665760009150612280565b5082820282848281151561327657fe5b041461227c57fe5b600080828481151561328c57fe5b04949350505050565b6000815182602001518360400151846060015185608001518660a001518760c001518860e001518961010001518a61012001518b61014001518c61016001516040516c01000000000000000000000000600160a060020a03808f16820283528d8116820260148401528c811682026028840152603c83018c9052605c83018b9052891602607c8201526090810187600181111561332e57fe5b60ff1660f860020a02815260010186600181111561334857fe5b60ff1660f860020a02815260010185600160a060020a0316600160a060020a03166c0100000000000000000000000002815260140184600181111561338957fe5b60ff1660f860020a02815260010183805190602001908083835b602083106133c25780518252601f1990920191602091820191016133a3565b6001836020036101000a038019825116818451161790925250505091909101905082805190602001908083835b6020831061340e5780518252601f1990920191602091820191016133ef565b6001836020036101000a0380198251168184511617909252505050919091019d5060409c505050505050505050505050505180910390209050919050565b6000816101800151826101a00151836101c00151846101e001518561020001518661022001518761024001518861026001516040516c01000000000000000000000000600160a060020a038a160281526014810188805190602001908083835b602083106134cb5780518252601f1990920191602091820191016134ac565b6001836020036101000a03801982511681845116808217855250505050505090500187600160a060020a0316600160a060020a03166c010000000000000000000000000281526014018681526020018581526020018481526020018381526020018281526020019850505050505050505060405180910390209050919050565b60008083600181111561355a57fe5b14806116cb57505060009011919050565b6000806135788484612aa9565b9050600060a0840151600160a060020a0316146135d7578360800151836080015111156135a457600080fd5b6135bb83602001518460a0015185606001516136c0565b6135d284602001518460a0015185608001516136c0565b61361a565b8260800151846080015111156135ec57600080fd5b61360384602001518560a0015186606001516136c0565b61361a83602001518560a0015186608001516136c0565b600081111561227c57826101c00151600160a060020a03166323b872dd856020015185602001518460006040516020015260405160e060020a63ffffffff8616028152600160a060020a0393841660048201529190921660248201526044810191909152606401602060405180830381600087803b151561369a57600080fd5b6102c65a03f115156136ab57600080fd5b50505060405180519050151561227c57600080fd5b600081111561376e57600060019054906101000a9004600160a060020a0316600160a060020a03166323b872dd84848460006040516020015260405160e060020a63ffffffff8616028152600160a060020a0393841660048201529190921660248201526044810191909152606401602060405180830381600087803b151561374857600080fd5b6102c65a03f1151561375957600080fd5b50505060405180519050151561376e57600080fd5b505050565b60206040519081016040526000815290565b6102806040519081016040908152600080835260208301819052908201819052606082018190526080820181905260a0820181905260c0820181905260e08201819052610100820181905261012082015261014081016137e3613773565b81526020016137f0613773565b815260006020820152604001613804613773565b81526020016000600160a060020a0316815260200160008152602001600081526020016000815260200160008152602001600081525090565b6101006040519081016040526008815b60008152600019909101906020018161384d57905050905600a165627a7a72305820b59f6cbcfbb8cb950786e5299a8b4477cf235103de2fb9c32989585fc37950820029",
  "source": "/*\n  \n  Exchange contract. This is an outer contract with public or convenience functions and includes no state-modifying functions.\n \n*/\n\npragma solidity 0.4.18;\n\nimport \"./ExchangeCore.sol\";\n\n/**\n * @title Exchange\n * @author Project Wyvern Developers\n */\ncontract Exchange is ExchangeCore {\n\n    /**\n     * @dev Call guardedArrayReplace - library function exposed for testing.\n     */\n    function guardedArrayReplace(bytes array, bytes desired, bytes mask)\n        public\n        pure\n        returns (bytes)\n    {\n        ArrayUtils.guardedArrayReplace(array, desired, mask);\n        return array;\n    }\n\n    /**\n     * @dev Call calculateFinalPrice - library function exposed for testing.\n     */\n    function calculateFinalPrice(SaleKindInterface.Side side, SaleKindInterface.SaleKind saleKind, uint basePrice, uint extra, uint listingTime, uint expirationTime)\n        public\n        view\n        returns (uint)\n    {\n        return SaleKindInterface.calculateFinalPrice(side, saleKind, basePrice, extra, listingTime, expirationTime);\n    }\n\n    /**\n     * @dev Call hashOrder - Solidity ABI encoding limitation workaround, hopefully temporary.\n     */\n    function hashOrder_(\n        address[7] addrs,\n        uint[7] uints,\n        SaleKindInterface.Side side,\n        SaleKindInterface.SaleKind saleKind,\n        AuthenticatedProxy.HowToCall howToCall,\n        bytes calldata,\n        bytes replacementPattern,\n        bytes staticExtradata)\n        public\n        pure\n        returns (bytes32)\n    { \n        return hashToSign(\n          Order(addrs[0], addrs[1], addrs[2], uints[0], uints[1], addrs[3], side, saleKind, addrs[4], howToCall, calldata, replacementPattern, addrs[5], staticExtradata, ERC20(addrs[6]), uints[2], uints[3], uints[4], uints[5], uints[6])\n        );\n    }\n\n    /**\n     * @dev Call validateOrder - Solidity ABI encoding limitation workaround, hopefully temporary.\n     */\n    function validateOrder_ (\n        address[7] addrs,\n        uint[7] uints,\n        SaleKindInterface.Side side,\n        SaleKindInterface.SaleKind saleKind,\n        AuthenticatedProxy.HowToCall howToCall,\n        bytes calldata,\n        bytes replacementPattern,\n        bytes staticExtradata,\n        uint8 v,\n        bytes32 r,\n        bytes32 s)\n        view\n        public\n        returns (bool)\n    {\n        Order memory order = Order(addrs[0], addrs[1], addrs[2], uints[0], uints[1], addrs[3], side, saleKind, addrs[4], howToCall, calldata, replacementPattern, addrs[5], staticExtradata, ERC20(addrs[6]), uints[2], uints[3], uints[4], uints[5], uints[6]);\n        return validateOrder(\n          hashToSign(order),\n          order,\n          Sig(v, r, s)\n        );\n    }\n\n    /**\n     * @dev Call approveOrder - Solidity ABI encoding limitation workaround, hopefully temporary.\n     */\n    function approveOrder_ (\n        address[7] addrs,\n        uint[7] uints,\n        SaleKindInterface.Side side,\n        SaleKindInterface.SaleKind saleKind,\n        AuthenticatedProxy.HowToCall howToCall,\n        bytes calldata,\n        bytes replacementPattern,\n        bytes staticExtradata,\n        bool orderbookInclusionDesired) \n        public\n    {\n        Order memory order = Order(addrs[0], addrs[1], addrs[2], uints[0], uints[1], addrs[3], side, saleKind, addrs[4], howToCall, calldata, replacementPattern, addrs[5], staticExtradata, ERC20(addrs[6]), uints[2], uints[3], uints[4], uints[5], uints[6]);\n        return approveOrder(order, orderbookInclusionDesired);\n    }\n\n    /**\n     * @dev Call cancelOrder - Solidity ABI encoding limitation workaround, hopefully temporary.\n     */\n    function cancelOrder_(\n        address[7] addrs,\n        uint[7] uints,\n        SaleKindInterface.Side side,\n        SaleKindInterface.SaleKind saleKind,\n        AuthenticatedProxy.HowToCall howToCall,\n        bytes calldata,\n        bytes replacementPattern,\n        bytes staticExtradata,\n        uint8 v,\n        bytes32 r,\n        bytes32 s)\n        public\n    {\n\n        return cancelOrder(\n          Order(addrs[0], addrs[1], addrs[2], uints[0], uints[1], addrs[3], side, saleKind, addrs[4], howToCall, calldata, replacementPattern, addrs[5], staticExtradata, ERC20(addrs[6]), uints[2], uints[3], uints[4], uints[5], uints[6]),\n          Sig(v, r, s)\n        );\n    }\n\n    /**\n     * @dev Call calculateCurrentPrice - Solidity ABI encoding limitation workaround, hopefully temporary.\n     */\n    function calculateCurrentPrice_(\n        address[7] addrs,\n        uint[7] uints,\n        SaleKindInterface.Side side,\n        SaleKindInterface.SaleKind saleKind,\n        AuthenticatedProxy.HowToCall howToCall,\n        bytes calldata,\n        bytes replacementPattern,\n        bytes staticExtradata)\n        public\n        view\n        returns (uint)\n    {\n        return calculateCurrentPrice(\n          Order(addrs[0], addrs[1], addrs[2], uints[0], uints[1], addrs[3], side, saleKind, addrs[4], howToCall, calldata, replacementPattern, addrs[5], staticExtradata, ERC20(addrs[6]), uints[2], uints[3], uints[4], uints[5], uints[6])\n        );\n    }\n\n    /**\n     * @dev Call ordersCanMatch - Solidity ABI encoding limitation workaround, hopefully temporary.\n     */\n    function ordersCanMatch_(\n        address[14] addrs,\n        uint[14] uints,\n        uint8[6] sidesKindsHowToCalls,\n        bytes calldataBuy,\n        bytes calldataSell,\n        bytes replacementPatternBuy,\n        bytes replacementPatternSell,\n        bytes staticExtradataBuy,\n        bytes staticExtradataSell)\n        public\n        view\n        returns (bool)\n    {\n        Order memory buy = Order(addrs[0], addrs[1], addrs[2], uints[0], uints[1], addrs[3], SaleKindInterface.Side(sidesKindsHowToCalls[0]), SaleKindInterface.SaleKind(sidesKindsHowToCalls[1]), addrs[4], AuthenticatedProxy.HowToCall(sidesKindsHowToCalls[2]), calldataBuy, replacementPatternBuy, addrs[5], staticExtradataBuy, ERC20(addrs[6]), uints[2], uints[3], uints[4], uints[5], uints[6]);\n        Order memory sell = Order(addrs[7], addrs[8], addrs[9], uints[7], uints[8], addrs[10], SaleKindInterface.Side(sidesKindsHowToCalls[3]), SaleKindInterface.SaleKind(sidesKindsHowToCalls[4]), addrs[11], AuthenticatedProxy.HowToCall(sidesKindsHowToCalls[5]), calldataSell, replacementPatternSell, addrs[12], staticExtradataSell, ERC20(addrs[13]), uints[9], uints[10], uints[11], uints[12], uints[13]);\n        return ordersCanMatch(\n          buy,\n          sell\n        );\n    }\n\n    /**\n     * @dev Return whether or not two orders' calldata specifications can match\n     * @param buyCalldata Buy-side order calldata\n     * @param buyReplacementPattern Buy-side order calldata replacement mask\n     * @param sellCalldata Sell-side order calldata\n     * @param sellReplacementPattern Sell-side order calldata replacement mask\n     * @return Whether the orders' calldata can be matched\n     */\n    function orderCalldataCanMatch(bytes buyCalldata, bytes buyReplacementPattern, bytes sellCalldata, bytes sellReplacementPattern)\n        public\n        pure\n        returns (bool)\n    {\n        ArrayUtils.guardedArrayReplace(buyCalldata, sellCalldata, buyReplacementPattern);\n        ArrayUtils.guardedArrayReplace(sellCalldata, buyCalldata, sellReplacementPattern);\n        return ArrayUtils.arrayEq(buyCalldata, sellCalldata);\n    }\n\n    /**\n     * @dev Call calculateMatchPrice - Solidity ABI encoding limitation workaround, hopefully temporary.\n     */\n    function calculateMatchPrice_(\n        address[14] addrs,\n        uint[14] uints,\n        uint8[6] sidesKindsHowToCalls,\n        bytes calldataBuy,\n        bytes calldataSell,\n        bytes replacementPatternBuy,\n        bytes replacementPatternSell,\n        bytes staticExtradataBuy,\n        bytes staticExtradataSell)\n        public\n        view\n        returns (uint)\n    {\n        Order memory buy = Order(addrs[0], addrs[1], addrs[2], uints[0], uints[1], addrs[3], SaleKindInterface.Side(sidesKindsHowToCalls[0]), SaleKindInterface.SaleKind(sidesKindsHowToCalls[1]), addrs[4], AuthenticatedProxy.HowToCall(sidesKindsHowToCalls[2]), calldataBuy, replacementPatternBuy, addrs[5], staticExtradataBuy, ERC20(addrs[6]), uints[2], uints[3], uints[4], uints[5], uints[6]);\n        Order memory sell = Order(addrs[7], addrs[8], addrs[9], uints[7], uints[8], addrs[10], SaleKindInterface.Side(sidesKindsHowToCalls[3]), SaleKindInterface.SaleKind(sidesKindsHowToCalls[4]), addrs[11], AuthenticatedProxy.HowToCall(sidesKindsHowToCalls[5]), calldataSell, replacementPatternSell, addrs[12], staticExtradataSell, ERC20(addrs[13]), uints[9], uints[10], uints[11], uints[12], uints[13]);\n        return calculateMatchPrice(\n          buy,\n          sell\n        );\n    }\n\n    /**\n     * @dev Call atomicMatch - Solidity ABI encoding limitation workaround, hopefully temporary.\n     */\n    function atomicMatch_(\n        address[14] addrs,\n        uint[14] uints,\n        uint8[6] sidesKindsHowToCalls,\n        bytes calldataBuy,\n        bytes calldataSell,\n        bytes replacementPatternBuy,\n        bytes replacementPatternSell,\n        bytes staticExtradataBuy,\n        bytes staticExtradataSell,\n        uint8[2] vs,\n        bytes32[5] rssMetadata)\n        public\n    {\n        return atomicMatch(\n          Order(addrs[0], addrs[1], addrs[2], uints[0], uints[1], addrs[3], SaleKindInterface.Side(sidesKindsHowToCalls[0]), SaleKindInterface.SaleKind(sidesKindsHowToCalls[1]), addrs[4], AuthenticatedProxy.HowToCall(sidesKindsHowToCalls[2]), calldataBuy, replacementPatternBuy, addrs[5], staticExtradataBuy, ERC20(addrs[6]), uints[2], uints[3], uints[4], uints[5], uints[6]),\n          Sig(vs[0], rssMetadata[0], rssMetadata[1]),\n          Order(addrs[7], addrs[8], addrs[9], uints[7], uints[8], addrs[10], SaleKindInterface.Side(sidesKindsHowToCalls[3]), SaleKindInterface.SaleKind(sidesKindsHowToCalls[4]), addrs[11], AuthenticatedProxy.HowToCall(sidesKindsHowToCalls[5]), calldataSell, replacementPatternSell, addrs[12], staticExtradataSell, ERC20(addrs[13]), uints[9], uints[10], uints[11], uints[12], uints[13]),\n          Sig(vs[1], rssMetadata[2], rssMetadata[3]),\n          rssMetadata[4]\n        );\n    }\n\n}\n",
  "sourcePath": "/home/cwgoes/working/crypto/wyvern/wyvern-ethereum/contracts/exchange/Exchange.sol",
  "compiler": {
    "name": "solc",
    "version": "0.4.18+commit.9cf6e910.Emscripten.clang"
  },
  "schemaVersion": "1.0.1",
  "updatedAt": "2018-02-18T03:37:06.645Z"
}