{
  "contractName": "Exchange",
  "abi": [
    {
      "constant": true,
      "inputs": [],
      "name": "tokenTransferProxy",
      "outputs": [
        {
          "name": "",
          "type": "address"
        }
      ],
      "payable": false,
      "stateMutability": "view",
      "type": "function"
    },
    {
      "constant": true,
      "inputs": [
        {
          "name": "target",
          "type": "address"
        },
        {
          "name": "calldata",
          "type": "bytes"
        },
        {
          "name": "extradata",
          "type": "bytes"
        }
      ],
      "name": "staticCall",
      "outputs": [
        {
          "name": "result",
          "type": "bool"
        }
      ],
      "payable": false,
      "stateMutability": "view",
      "type": "function"
    },
    {
      "constant": false,
      "inputs": [
        {
          "name": "newMinimumMakerProtocolFee",
          "type": "uint256"
        }
      ],
      "name": "changeMinimumMakerProtocolFee",
      "outputs": [],
      "payable": false,
      "stateMutability": "nonpayable",
      "type": "function"
    },
    {
      "constant": false,
      "inputs": [
        {
          "name": "newMinimumTakerProtocolFee",
          "type": "uint256"
        }
      ],
      "name": "changeMinimumTakerProtocolFee",
      "outputs": [],
      "payable": false,
      "stateMutability": "nonpayable",
      "type": "function"
    },
    {
      "constant": true,
      "inputs": [],
      "name": "minimumTakerProtocolFee",
      "outputs": [
        {
          "name": "",
          "type": "uint256"
        }
      ],
      "payable": false,
      "stateMutability": "view",
      "type": "function"
    },
    {
      "constant": false,
      "inputs": [
        {
          "name": "newProtocolFeeRecipient",
          "type": "address"
        }
      ],
      "name": "changeProtocolFeeRecipient",
      "outputs": [],
      "payable": false,
      "stateMutability": "nonpayable",
      "type": "function"
    },
    {
      "constant": true,
      "inputs": [],
      "name": "protocolFeeRecipient",
      "outputs": [
        {
          "name": "",
          "type": "address"
        }
      ],
      "payable": false,
      "stateMutability": "view",
      "type": "function"
    },
    {
      "constant": true,
      "inputs": [],
      "name": "registry",
      "outputs": [
        {
          "name": "",
          "type": "address"
        }
      ],
      "payable": false,
      "stateMutability": "view",
      "type": "function"
    },
    {
      "constant": true,
      "inputs": [],
      "name": "minimumMakerProtocolFee",
      "outputs": [
        {
          "name": "",
          "type": "uint256"
        }
      ],
      "payable": false,
      "stateMutability": "view",
      "type": "function"
    },
    {
      "constant": true,
      "inputs": [
        {
          "name": "",
          "type": "bytes32"
        }
      ],
      "name": "cancelledOrFinalized",
      "outputs": [
        {
          "name": "",
          "type": "bool"
        }
      ],
      "payable": false,
      "stateMutability": "view",
      "type": "function"
    },
    {
      "constant": true,
      "inputs": [],
      "name": "owner",
      "outputs": [
        {
          "name": "",
          "type": "address"
        }
      ],
      "payable": false,
      "stateMutability": "view",
      "type": "function"
    },
    {
      "constant": true,
      "inputs": [],
      "name": "exchangeToken",
      "outputs": [
        {
          "name": "",
          "type": "address"
        }
      ],
      "payable": false,
      "stateMutability": "view",
      "type": "function"
    },
    {
      "constant": true,
      "inputs": [],
      "name": "INVERSE_BASIS_POINT",
      "outputs": [
        {
          "name": "",
          "type": "uint256"
        }
      ],
      "payable": false,
      "stateMutability": "view",
      "type": "function"
    },
    {
      "constant": true,
      "inputs": [
        {
          "name": "",
          "type": "bytes32"
        }
      ],
      "name": "approvedOrders",
      "outputs": [
        {
          "name": "",
          "type": "bool"
        }
      ],
      "payable": false,
      "stateMutability": "view",
      "type": "function"
    },
    {
      "constant": false,
      "inputs": [
        {
          "name": "newOwner",
          "type": "address"
        }
      ],
      "name": "transferOwnership",
      "outputs": [],
      "payable": false,
      "stateMutability": "nonpayable",
      "type": "function"
    },
    {
      "anonymous": false,
      "inputs": [
        {
          "indexed": true,
          "name": "hash",
          "type": "bytes32"
        },
        {
          "indexed": false,
          "name": "exchange",
          "type": "address"
        },
        {
          "indexed": true,
          "name": "maker",
          "type": "address"
        },
        {
          "indexed": false,
          "name": "taker",
          "type": "address"
        },
        {
          "indexed": false,
          "name": "makerRelayerFee",
          "type": "uint256"
        },
        {
          "indexed": false,
          "name": "takerRelayerFee",
          "type": "uint256"
        },
        {
          "indexed": false,
          "name": "makerProtocolFee",
          "type": "uint256"
        },
        {
          "indexed": false,
          "name": "takerProtocolFee",
          "type": "uint256"
        },
        {
          "indexed": true,
          "name": "feeRecipient",
          "type": "address"
        },
        {
          "indexed": false,
          "name": "feeMethod",
          "type": "uint8"
        },
        {
          "indexed": false,
          "name": "side",
          "type": "uint8"
        },
        {
          "indexed": false,
          "name": "saleKind",
          "type": "uint8"
        },
        {
          "indexed": false,
          "name": "target",
          "type": "address"
        }
      ],
      "name": "OrderApprovedPartOne",
      "type": "event"
    },
    {
      "anonymous": false,
      "inputs": [
        {
          "indexed": true,
          "name": "hash",
          "type": "bytes32"
        },
        {
          "indexed": false,
          "name": "howToCall",
          "type": "uint8"
        },
        {
          "indexed": false,
          "name": "calldata",
          "type": "bytes"
        },
        {
          "indexed": false,
          "name": "replacementPattern",
          "type": "bytes"
        },
        {
          "indexed": false,
          "name": "staticTarget",
          "type": "address"
        },
        {
          "indexed": false,
          "name": "staticExtradata",
          "type": "bytes"
        },
        {
          "indexed": false,
          "name": "paymentToken",
          "type": "address"
        },
        {
          "indexed": false,
          "name": "basePrice",
          "type": "uint256"
        },
        {
          "indexed": false,
          "name": "extra",
          "type": "uint256"
        },
        {
          "indexed": false,
          "name": "listingTime",
          "type": "uint256"
        },
        {
          "indexed": false,
          "name": "expirationTime",
          "type": "uint256"
        },
        {
          "indexed": false,
          "name": "salt",
          "type": "uint256"
        },
        {
          "indexed": false,
          "name": "orderbookInclusionDesired",
          "type": "bool"
        }
      ],
      "name": "OrderApprovedPartTwo",
      "type": "event"
    },
    {
      "anonymous": false,
      "inputs": [
        {
          "indexed": true,
          "name": "hash",
          "type": "bytes32"
        }
      ],
      "name": "OrderCancelled",
      "type": "event"
    },
    {
      "anonymous": false,
      "inputs": [
        {
          "indexed": false,
          "name": "buyHash",
          "type": "bytes32"
        },
        {
          "indexed": false,
          "name": "sellHash",
          "type": "bytes32"
        },
        {
          "indexed": true,
          "name": "maker",
          "type": "address"
        },
        {
          "indexed": true,
          "name": "taker",
          "type": "address"
        },
        {
          "indexed": false,
          "name": "price",
          "type": "uint256"
        },
        {
          "indexed": true,
          "name": "metadata",
          "type": "bytes32"
        }
      ],
      "name": "OrdersMatched",
      "type": "event"
    },
    {
      "anonymous": false,
      "inputs": [
        {
          "indexed": true,
          "name": "previousOwner",
          "type": "address"
        },
        {
          "indexed": true,
          "name": "newOwner",
          "type": "address"
        }
      ],
      "name": "OwnershipTransferred",
      "type": "event"
    },
    {
      "constant": true,
      "inputs": [
        {
          "name": "array",
          "type": "bytes"
        },
        {
          "name": "desired",
          "type": "bytes"
        },
        {
          "name": "mask",
          "type": "bytes"
        }
      ],
      "name": "guardedArrayReplace",
      "outputs": [
        {
          "name": "",
          "type": "bytes"
        }
      ],
      "payable": false,
      "stateMutability": "pure",
      "type": "function"
    },
    {
      "constant": true,
      "inputs": [
        {
          "name": "arrToCopy",
          "type": "bytes"
        }
      ],
      "name": "testCopy",
      "outputs": [
        {
          "name": "",
          "type": "bytes"
        }
      ],
      "payable": false,
      "stateMutability": "pure",
      "type": "function"
    },
    {
      "constant": true,
      "inputs": [
        {
          "name": "addr",
          "type": "address"
        }
      ],
      "name": "testCopyAddress",
      "outputs": [
        {
          "name": "",
          "type": "bytes"
        }
      ],
      "payable": false,
      "stateMutability": "pure",
      "type": "function"
    },
    {
      "constant": true,
      "inputs": [
        {
          "name": "side",
          "type": "uint8"
        },
        {
          "name": "saleKind",
          "type": "uint8"
        },
        {
          "name": "basePrice",
          "type": "uint256"
        },
        {
          "name": "extra",
          "type": "uint256"
        },
        {
          "name": "listingTime",
          "type": "uint256"
        },
        {
          "name": "expirationTime",
          "type": "uint256"
        }
      ],
      "name": "calculateFinalPrice",
      "outputs": [
        {
          "name": "",
          "type": "uint256"
        }
      ],
      "payable": false,
      "stateMutability": "view",
      "type": "function"
    },
    {
      "constant": true,
      "inputs": [
        {
          "name": "addrs",
          "type": "address[7]"
        },
        {
          "name": "uints",
          "type": "uint256[9]"
        },
        {
          "name": "feeMethod",
          "type": "uint8"
        },
        {
          "name": "side",
          "type": "uint8"
        },
        {
          "name": "saleKind",
          "type": "uint8"
        },
        {
          "name": "howToCall",
          "type": "uint8"
        },
        {
          "name": "calldata",
          "type": "bytes"
        },
        {
          "name": "replacementPattern",
          "type": "bytes"
        },
        {
          "name": "staticExtradata",
          "type": "bytes"
        }
      ],
      "name": "hashOrder_",
      "outputs": [
        {
          "name": "",
          "type": "bytes32"
        }
      ],
      "payable": false,
      "stateMutability": "pure",
      "type": "function"
    },
    {
      "constant": true,
      "inputs": [
        {
          "name": "addrs",
          "type": "address[7]"
        },
        {
          "name": "uints",
          "type": "uint256[9]"
        },
        {
          "name": "feeMethod",
          "type": "uint8"
        },
        {
          "name": "side",
          "type": "uint8"
        },
        {
          "name": "saleKind",
          "type": "uint8"
        },
        {
          "name": "howToCall",
          "type": "uint8"
        },
        {
          "name": "calldata",
          "type": "bytes"
        },
        {
          "name": "replacementPattern",
          "type": "bytes"
        },
        {
          "name": "staticExtradata",
          "type": "bytes"
        }
      ],
      "name": "hashToSign_",
      "outputs": [
        {
          "name": "",
          "type": "bytes32"
        }
      ],
      "payable": false,
      "stateMutability": "pure",
      "type": "function"
    },
    {
      "constant": true,
      "inputs": [
        {
          "name": "addrs",
          "type": "address[7]"
        },
        {
          "name": "uints",
          "type": "uint256[9]"
        },
        {
          "name": "feeMethod",
          "type": "uint8"
        },
        {
          "name": "side",
          "type": "uint8"
        },
        {
          "name": "saleKind",
          "type": "uint8"
        },
        {
          "name": "howToCall",
          "type": "uint8"
        },
        {
          "name": "calldata",
          "type": "bytes"
        },
        {
          "name": "replacementPattern",
          "type": "bytes"
        },
        {
          "name": "staticExtradata",
          "type": "bytes"
        }
      ],
      "name": "validateOrderParameters_",
      "outputs": [
        {
          "name": "",
          "type": "bool"
        }
      ],
      "payable": false,
      "stateMutability": "view",
      "type": "function"
    },
    {
      "constant": true,
      "inputs": [
        {
          "name": "addrs",
          "type": "address[7]"
        },
        {
          "name": "uints",
          "type": "uint256[9]"
        },
        {
          "name": "feeMethod",
          "type": "uint8"
        },
        {
          "name": "side",
          "type": "uint8"
        },
        {
          "name": "saleKind",
          "type": "uint8"
        },
        {
          "name": "howToCall",
          "type": "uint8"
        },
        {
          "name": "calldata",
          "type": "bytes"
        },
        {
          "name": "replacementPattern",
          "type": "bytes"
        },
        {
          "name": "staticExtradata",
          "type": "bytes"
        },
        {
          "name": "v",
          "type": "uint8"
        },
        {
          "name": "r",
          "type": "bytes32"
        },
        {
          "name": "s",
          "type": "bytes32"
        }
      ],
      "name": "validateOrder_",
      "outputs": [
        {
          "name": "",
          "type": "bool"
        }
      ],
      "payable": false,
      "stateMutability": "view",
      "type": "function"
    },
    {
      "constant": false,
      "inputs": [
        {
          "name": "addrs",
          "type": "address[7]"
        },
        {
          "name": "uints",
          "type": "uint256[9]"
        },
        {
          "name": "feeMethod",
          "type": "uint8"
        },
        {
          "name": "side",
          "type": "uint8"
        },
        {
          "name": "saleKind",
          "type": "uint8"
        },
        {
          "name": "howToCall",
          "type": "uint8"
        },
        {
          "name": "calldata",
          "type": "bytes"
        },
        {
          "name": "replacementPattern",
          "type": "bytes"
        },
        {
          "name": "staticExtradata",
          "type": "bytes"
        },
        {
          "name": "orderbookInclusionDesired",
          "type": "bool"
        }
      ],
      "name": "approveOrder_",
      "outputs": [],
      "payable": false,
      "stateMutability": "nonpayable",
      "type": "function"
    },
    {
      "constant": false,
      "inputs": [
        {
          "name": "addrs",
          "type": "address[7]"
        },
        {
          "name": "uints",
          "type": "uint256[9]"
        },
        {
          "name": "feeMethod",
          "type": "uint8"
        },
        {
          "name": "side",
          "type": "uint8"
        },
        {
          "name": "saleKind",
          "type": "uint8"
        },
        {
          "name": "howToCall",
          "type": "uint8"
        },
        {
          "name": "calldata",
          "type": "bytes"
        },
        {
          "name": "replacementPattern",
          "type": "bytes"
        },
        {
          "name": "staticExtradata",
          "type": "bytes"
        },
        {
          "name": "v",
          "type": "uint8"
        },
        {
          "name": "r",
          "type": "bytes32"
        },
        {
          "name": "s",
          "type": "bytes32"
        }
      ],
      "name": "cancelOrder_",
      "outputs": [],
      "payable": false,
      "stateMutability": "nonpayable",
      "type": "function"
    },
    {
      "constant": true,
      "inputs": [
        {
          "name": "addrs",
          "type": "address[7]"
        },
        {
          "name": "uints",
          "type": "uint256[9]"
        },
        {
          "name": "feeMethod",
          "type": "uint8"
        },
        {
          "name": "side",
          "type": "uint8"
        },
        {
          "name": "saleKind",
          "type": "uint8"
        },
        {
          "name": "howToCall",
          "type": "uint8"
        },
        {
          "name": "calldata",
          "type": "bytes"
        },
        {
          "name": "replacementPattern",
          "type": "bytes"
        },
        {
          "name": "staticExtradata",
          "type": "bytes"
        }
      ],
      "name": "calculateCurrentPrice_",
      "outputs": [
        {
          "name": "",
          "type": "uint256"
        }
      ],
      "payable": false,
      "stateMutability": "view",
      "type": "function"
    },
    {
      "constant": true,
      "inputs": [
        {
          "name": "addrs",
          "type": "address[14]"
        },
        {
          "name": "uints",
          "type": "uint256[18]"
        },
        {
          "name": "feeMethodsSidesKindsHowToCalls",
          "type": "uint8[8]"
        },
        {
          "name": "calldataBuy",
          "type": "bytes"
        },
        {
          "name": "calldataSell",
          "type": "bytes"
        },
        {
          "name": "replacementPatternBuy",
          "type": "bytes"
        },
        {
          "name": "replacementPatternSell",
          "type": "bytes"
        },
        {
          "name": "staticExtradataBuy",
          "type": "bytes"
        },
        {
          "name": "staticExtradataSell",
          "type": "bytes"
        }
      ],
      "name": "ordersCanMatch_",
      "outputs": [
        {
          "name": "",
          "type": "bool"
        }
      ],
      "payable": false,
      "stateMutability": "view",
      "type": "function"
    },
    {
      "constant": true,
      "inputs": [
        {
          "name": "buyCalldata",
          "type": "bytes"
        },
        {
          "name": "buyReplacementPattern",
          "type": "bytes"
        },
        {
          "name": "sellCalldata",
          "type": "bytes"
        },
        {
          "name": "sellReplacementPattern",
          "type": "bytes"
        }
      ],
      "name": "orderCalldataCanMatch",
      "outputs": [
        {
          "name": "",
          "type": "bool"
        }
      ],
      "payable": false,
      "stateMutability": "pure",
      "type": "function"
    },
    {
      "constant": true,
      "inputs": [
        {
          "name": "addrs",
          "type": "address[14]"
        },
        {
          "name": "uints",
          "type": "uint256[18]"
        },
        {
          "name": "feeMethodsSidesKindsHowToCalls",
          "type": "uint8[8]"
        },
        {
          "name": "calldataBuy",
          "type": "bytes"
        },
        {
          "name": "calldataSell",
          "type": "bytes"
        },
        {
          "name": "replacementPatternBuy",
          "type": "bytes"
        },
        {
          "name": "replacementPatternSell",
          "type": "bytes"
        },
        {
          "name": "staticExtradataBuy",
          "type": "bytes"
        },
        {
          "name": "staticExtradataSell",
          "type": "bytes"
        }
      ],
      "name": "calculateMatchPrice_",
      "outputs": [
        {
          "name": "",
          "type": "uint256"
        }
      ],
      "payable": false,
      "stateMutability": "view",
      "type": "function"
    },
    {
      "constant": false,
      "inputs": [
        {
          "name": "addrs",
          "type": "address[14]"
        },
        {
          "name": "uints",
          "type": "uint256[18]"
        },
        {
          "name": "feeMethodsSidesKindsHowToCalls",
          "type": "uint8[8]"
        },
        {
          "name": "calldataBuy",
          "type": "bytes"
        },
        {
          "name": "calldataSell",
          "type": "bytes"
        },
        {
          "name": "replacementPatternBuy",
          "type": "bytes"
        },
        {
          "name": "replacementPatternSell",
          "type": "bytes"
        },
        {
          "name": "staticExtradataBuy",
          "type": "bytes"
        },
        {
          "name": "staticExtradataSell",
          "type": "bytes"
        },
        {
          "name": "vs",
          "type": "uint8[2]"
        },
        {
          "name": "rssMetadata",
          "type": "bytes32[5]"
        }
      ],
      "name": "atomicMatch_",
      "outputs": [],
      "payable": true,
      "stateMutability": "payable",
      "type": "function"
    }
  ],
  "bytecode": "0x60606040526000805460068290556007829055600160a060020a03331661010002600160a860020a03199091161790556148328061003e6000396000f3006060604052600436106101665763ffffffff60e060020a6000350416630eefdbad811461016b57806310796a471461019a57806314350c241461024f5780631a6b13e214610267578063239e83df1461027d57806328a8ee68146103c95780633464af6a146103ee5780633e1e292a1461040d5780633f67ee0d1461045e578063514f0330146105ab578063562b2ebc146105ca57806360bef33a146106e157806363d36c0b1461083e57806364df049e1461086957806371d02b381461087c57806372593b4c146109c95780637966686814610be15780637b10399914610d325780637ccefc5214610d455780637d76698114610d585780638076f00514610ea55780638da5cb5b14610ebb578063a25eb5d914610ece578063a8a41c7014610ee1578063ab834bab1461103e578063ca595b9a1461129f578063cae6047f146113ec578063d537e131146113ff578063e57d4adb14611617578063f2fde38b1461162d575b600080fd5b341561017657600080fd5b61017e61164c565b604051600160a060020a03909116815260200160405180910390f35b34156101a557600080fd5b61023b60048035600160a060020a03169060446024803590810190830135806020601f8201819004810201604051908101604052818152929190602084018383808284378201915050505050509190803590602001908201803590602001908080601f01602080910402602001604051908101604052818152929190602084018383808284375094965061165b95505050505050565b604051901515815260200160405180910390f35b341561025a57600080fd5b6102656004356116c4565b005b341561027257600080fd5b6102656004356116e9565b341561028857600080fd5b61035260046024813581810190830135806020601f8201819004810201604051908101604052818152929190602084018383808284378201915050505050509190803590602001908201803590602001908080601f01602080910402602001604051908101604052818152929190602084018383808284378201915050505050509190803590602001908201803590602001908080601f01602080910402602001604051908101604052818152929190602084018383808284375094965061170e95505050505050565b60405160208082528190810183818151815260200191508051906020019080838360005b8381101561038e578082015183820152602001610376565b50505050905090810190601f1680156103bb5780820380516001836020036101000a031916815260200191505b509250505060405180910390f35b34156103d457600080fd5b6103dc61172b565b60405190815260200160405180910390f35b34156103f957600080fd5b610352600160a060020a0360043516611731565b341561041857600080fd5b61035260046024813581810190830135806020601f8201819004810201604051908101604052818152929190602084018383808284375094965061178195505050505050565b341561046957600080fd5b6103dc600460e481600760e06040519081016040529190828260e08082843782019150505050509190806101200190600980602002604051908101604052919082826101208082843750939560ff863581169660208082013583169750604080830135841697506060830135909316955092935060a08101926080909101358401808201929035918291601f830182900482029091019051908101604052818152929190602084018383808284378201915050505050509190803590602001908201803590602001908080601f01602080910402602001604051908101604052818152929190602084018383808284378201915050505050509190803590602001908201803590602001908080601f0160208091040260200160405190810160405281815292919060208401838380828437509496506117c895505050505050565b34156105b657600080fd5b610265600160a060020a0360043516611923565b34156105d557600080fd5b61023b60046024813581810190830135806020601f8201819004810201604051908101604052818152929190602084018383808284378201915050505050509190803590602001908201803590602001908080601f01602080910402602001604051908101604052818152929190602084018383808284378201915050505050509190803590602001908201803590602001908080601f01602080910402602001604051908101604052818152929190602084018383808284378201915050505050509190803590602001908201803590602001908080601f01602080910402602001604051908101604052818152929190602084018383808284375094965061197295505050505050565b34156106ec57600080fd5b61023b600460e481600760e06040519081016040529190828260e08082843782019150505050509190806101200190600980602002604051908101604052919082826101208082843750939560ff863581169660208082013583169750604080830135841697506060830135909316955092935060a08101926080909101358401808201929035918291601f830182900482029091019051908101604052818152929190602084018383808284378201915050505050509190803590602001908201803590602001908080601f01602080910402602001604051908101604052818152929190602084018383808284378201915050505050509190803590602001908201803590602001908080601f0160208091040260200160405190810160405281815292919060208401838380828437509496505060ff85351694602081013594506040013592506119b0915050565b341561084957600080fd5b6103dc60ff6004358116906024351660443560643560843560a435611b51565b341561087457600080fd5b61017e611b6c565b341561088757600080fd5b6103dc600460e481600760e06040519081016040529190828260e08082843782019150505050509190806101200190600980602002604051908101604052919082826101208082843750939560ff863581169660208082013583169750604080830135841697506060830135909316955092935060a08101926080909101358401808201929035918291601f830182900482029091019051908101604052818152929190602084018383808284378201915050505050509190803590602001908201803590602001908080601f01602080910402602001604051908101604052818152929190602084018383808284378201915050505050509190803590602001908201803590602001908080601f016020809104026020016040519081016040528181529291906020840183838082843750949650611b7b95505050505050565b34156109d457600080fd5b61023b60046101c481600e6101c0604051908101604052919082826101c0808284378201915050505050919080610240019060128060200260405190810160405291908282610240808284378201915050505050919080610100019060088060200260405190810160405291908282610100808284375093959460208082019550903586018082019450359250829150601f8201819004810201604051908101604052818152929190602084018383808284378201915050505050509190803590602001908201803590602001908080601f01602080910402602001604051908101604052818152929190602084018383808284378201915050505050509190803590602001908201803590602001908080601f01602080910402602001604051908101604052818152929190602084018383808284378201915050505050509190803590602001908201803590602001908080601f01602080910402602001604051908101604052818152929190602084018383808284378201915050505050509190803590602001908201803590602001908080601f01602080910402602001604051908101604052818152929190602084018383808284378201915050505050509190803590602001908201803590602001908080601f016020809104026020016040519081016040528181529291906020840183838082843750949650611cc895505050505050565b3415610bec57600080fd5b610265600460e481600760e06040519081016040529190828260e08082843782019150505050509190806101200190600980602002604051908101604052919082826101208082843750939560ff863581169660208082013583169750604080830135841697506060830135909316955092935060a08101926080909101358401808201929035918291601f830182900482029091019051908101604052818152929190602084018383808284378201915050505050509190803590602001908201803590602001908080601f01602080910402602001604051908101604052818152929190602084018383808284378201915050505050509190803590602001908201803590602001908080601f01602080910402602001604051908101604052818152929190602084018383808284375094965050505091351515915061201c9050565b3415610d3d57600080fd5b61017e612180565b3415610d5057600080fd5b6103dc61218f565b3415610d6357600080fd5b6103dc600460e481600760e06040519081016040529190828260e08082843782019150505050509190806101200190600980602002604051908101604052919082826101208082843750939560ff863581169660208082013583169750604080830135841697506060830135909316955092935060a08101926080909101358401808201929035918291601f830182900482029091019051908101604052818152929190602084018383808284378201915050505050509190803590602001908201803590602001908080601f01602080910402602001604051908101604052818152929190602084018383808284378201915050505050509190803590602001908201803590602001908080601f01602080910402602001604051908101604052818152929190602084018383808284375094965061219595505050505050565b3415610eb057600080fd5b61023b6004356122e2565b3415610ec657600080fd5b61017e6122f7565b3415610ed957600080fd5b61017e61230b565b3415610eec57600080fd5b610265600460e481600760e06040519081016040529190828260e08082843782019150505050509190806101200190600980602002604051908101604052919082826101208082843750939560ff863581169660208082013583169750604080830135841697506060830135909316955092935060a08101926080909101358401808201929035918291601f830182900482029091019051908101604052818152929190602084018383808284378201915050505050509190803590602001908201803590602001908080601f01602080910402602001604051908101604052818152929190602084018383808284378201915050505050509190803590602001908201803590602001908080601f0160208091040260200160405190810160405281815292919060208401838380828437509496505060ff853516946020810135945060400135925061231a915050565b61026560046101c481600e6101c0604051908101604052919082826101c0808284378201915050505050919080610240019060128060200260405190810160405291908282610240808284378201915050505050919080610100019060088060200260405190810160405291908282610100808284375093959460208082019550903586018082019450359250829150601f8201819004810201604051908101604052818152929190602084018383808284378201915050505050509190803590602001908201803590602001908080601f01602080910402602001604051908101604052818152929190602084018383808284378201915050505050509190803590602001908201803590602001908080601f01602080910402602001604051908101604052818152929190602084018383808284378201915050505050509190803590602001908201803590602001908080601f01602080910402602001604051908101604052818152929190602084018383808284378201915050505050509190803590602001908201803590602001908080601f01602080910402602001604051908101604052818152929190602084018383808284378201915050505050509190803590602001908201803590602001908080601f0160208091040260200160405190810160405281815292919060208401838380828437820191505050505050919080604001906002806020026040519081016040528092919082600260200280828437820191505050505091908060a001906005806020026040519081016040529190828260a08082843750939550612492945050505050565b34156112aa57600080fd5b61023b600460e481600760e06040519081016040529190828260e08082843782019150505050509190806101200190600980602002604051908101604052919082826101208082843750939560ff863581169660208082013583169750604080830135841697506060830135909316955092935060a08101926080909101358401808201929035918291601f830182900482029091019051908101604052818152929190602084018383808284378201915050505050509190803590602001908201803590602001908080601f01602080910402602001604051908101604052818152929190602084018383808284378201915050505050509190803590602001908201803590602001908080601f01602080910402602001604051908101604052818152929190602084018383808284375094965061282395505050505050565b34156113f757600080fd5b6103dc61298a565b341561140a57600080fd5b6103dc60046101c481600e6101c0604051908101604052919082826101c0808284378201915050505050919080610240019060128060200260405190810160405291908282610240808284378201915050505050919080610100019060088060200260405190810160405291908282610100808284375093959460208082019550903586018082019450359250829150601f8201819004810201604051908101604052818152929190602084018383808284378201915050505050509190803590602001908201803590602001908080601f01602080910402602001604051908101604052818152929190602084018383808284378201915050505050509190803590602001908201803590602001908080601f01602080910402602001604051908101604052818152929190602084018383808284378201915050505050509190803590602001908201803590602001908080601f01602080910402602001604051908101604052818152929190602084018383808284378201915050505050509190803590602001908201803590602001908080601f01602080910402602001604051908101604052818152929190602084018383808284378201915050505050509190803590602001908201803590602001908080601f01602080910402602001604051908101604052818152929190602084018383808284375094965061299095505050505050565b341561162257600080fd5b61023b600435612cd4565b341561163857600080fd5b610265600160a060020a0360043516612ce9565b600354600160a060020a031681565b6000611665614724565b600083518551016040518059106116795750595b818152601f19601f830116810160200160405290509150506020810161169f8185612d94565b90506116ab8186612d94565b506000604051835160208501895afa9695505050505050565b60005433600160a060020a0390811661010090920416146116e457600080fd5b600655565b60005433600160a060020a03908116610100909204161461170957600080fd5b600755565b611716614724565b611721848484612dd8565b50825b9392505050565b60075481565b611739614724565b611741614724565b600060146040518059106117525750595b818152601f19601f83011681016020016040529050915050602081016117788185612f58565b50909392505050565b611789614724565b611791614724565b600083516040518059106117a25750595b818152601f19601f83011681016020016040529050915050602081016117788185612d94565b60006119156102e0604051908101604052808c51600160a060020a031681526020018c60016020020151600160a060020a0316815260200160408d0151600160a060020a031681526020018b5181526020018b60016020020151815260200160408c0151815260200160608c0151815260200160608d0151600160a060020a031681526020018a600181111561185a57fe5b815260200189600181111561186b57fe5b815260200188600181111561187c57fe5b815260200160808d0151600160a060020a031681526020018760018111156118a057fe5b8152602081018790526040810186905260600160a08d0151600160a060020a031681526020810185905260400160c08d0151600160a060020a0316815260200160808c0151815260200160a08c0151815260200160c08c0151815260200160e08c015181526020016101008c01519052612f84565b9a9950505050505050505050565b60005433600160a060020a03908116610100909204161461194357600080fd5b6008805473ffffffffffffffffffffffffffffffffffffffff1916600160a060020a0392909216919091179055565b6000808451111561198857611988858486612dd8565b60008251111561199d5761199d838684612dd8565b6119a78584612fba565b95945050505050565b60006119ba614736565b6102e0604051908101604052808f51600160a060020a031681526020018f60016020020151600160a060020a031681526020018f60026020020151600160a060020a031681526020018e5181526020018e60016020020151815260200160408f0151815260200160608f015181526020018f60036020020151600160a060020a031681526020018d6001811115611a4d57fe5b81526020018c6001811115611a5e57fe5b81526020018b6001811115611a6f57fe5b81526020018f60046020020151600160a060020a031681526020018a6001811115611a9657fe5b8152602081018a9052604081018990526060018f60056020020151600160a060020a03168152602081018890526040018f60066020020151600160a060020a0316815260200160808f0151815260200160a08f0151815260200160c08f0151815260200160e08f015181526020016101008f015190529050611b3f611b1a8261301d565b826060604051908101604090815260ff8a168252602082018990528101879052613068565b9e9d5050505050505050505050505050565b6000611b61878787878787613165565b979650505050505050565b600854600160a060020a031681565b60006119156102e0604051908101604052808c51600160a060020a031681526020018c60016020020151600160a060020a0316815260200160408d0151600160a060020a031681526020018b5181526020018b60016020020151815260200160408c0151815260200160608c0151815260200160608d0151600160a060020a031681526020018a6001811115611c0d57fe5b8152602001896001811115611c1e57fe5b8152602001886001811115611c2f57fe5b815260200160808d0151600160a060020a03168152602001876001811115611c5357fe5b8152602081018790526040810186905260600160a08d0151600160a060020a031681526020810185905260400160c08d0151600160a060020a0316815260200160808c0151815260200160a08c0151815260200160c08c0151815260200160e08c015181526020016101008c015190526131f8565b6000611cd2614736565b611cda614736565b6102e0604051908101604052808d51600160a060020a031681526020018d60016020020151600160a060020a0316815260200160408e0151600160a060020a031681526020018c5181526020018c60016020020151815260200160408d0151815260200160608d0151815260200160608e0151600160a060020a031681526020018b5160ff166001811115611d6b57fe5b6001811115611d7657fe5b81526020018b6001602002015160ff166001811115611d9157fe5b6001811115611d9c57fe5b815260200160408c015160ff166001811115611db457fe5b6001811115611dbf57fe5b815260200160808e0151600160a060020a0316815260200160608c015160ff166001811115611dea57fe5b6001811115611df557fe5b8152602081018b90526040810189905260600160a08e0151600160a060020a031681526020810187905260400160c08e0151600160a060020a0316815260200160808d0151815260200160a08d0151815260200160c08d0151815260200160e08d015181526020016101008d0151905291506102e06040519081016040528060e08e0151600160a060020a031681526020016101008e0151600160a060020a031681526020016101208e0151600160a060020a031681526020016101208d015181526020016101408d015181526020016101608d015181526020016101808d015181526020016101408e0151600160a060020a0316815260200160808c015160ff166001811115611f0257fe5b6001811115611f0d57fe5b815260200160a08c015160ff166001811115611f2557fe5b6001811115611f3057fe5b815260200160c08c015160ff166001811115611f4857fe5b6001811115611f5357fe5b81526020016101608e0151600160a060020a0316815260200160e08c015160ff166001811115611f7f57fe5b6001811115611f8a57fe5b8152602081018a9052604081018890526060016101808e0151600160a060020a03168152602081018690526040016101a08e0151600160a060020a031681526020016101a08d015181526020016101c08d015181526020016101e08d015181526020016102008d015181526020016102208d01519052905061200c82826133dd565b9c9b505050505050505050505050565b612024614736565b6102e0604051908101604052808c51600160a060020a031681526020018c60016020020151600160a060020a0316815260200160408d0151600160a060020a031681526020018b5181526020018b60016020020151815260200160408c0151815260200160608c0151815260200160608d0151600160a060020a031681526020018a60018111156120b157fe5b81526020018960018111156120c257fe5b81526020018860018111156120d357fe5b815260200160808d0151600160a060020a031681526020018760018111156120f757fe5b8152602081018790526040810186905260600160a08d0151600160a060020a031681526020810185905260400160c08d0151600160a060020a0316815260200160808c0151815260200160a08c0151815260200160c08c0151815260200160e08c015181526020016101008c01519052905061217381836135c3565b5050505050505050505050565b600254600160a060020a031681565b60065481565b60006119156102e0604051908101604052808c51600160a060020a031681526020018c60016020020151600160a060020a0316815260200160408d0151600160a060020a031681526020018b5181526020018b60016020020151815260200160408c0151815260200160608c0151815260200160608d0151600160a060020a031681526020018a600181111561222757fe5b815260200189600181111561223857fe5b815260200188600181111561224957fe5b815260200160808d0151600160a060020a0316815260200187600181111561226d57fe5b8152602081018790526040810186905260600160a08d0151600160a060020a031681526020810185905260400160c08d0151600160a060020a0316815260200160808c0151815260200160a08c0151815260200160c08c0151815260200160e08c015181526020016101008c0151905261301d565b60046020526000908152604090205460ff1681565b6000546101009004600160a060020a031681565b600154600160a060020a031681565b6124846102e0604051908101604052808e51600160a060020a031681526020018e60016020020151600160a060020a0316815260200160408f0151600160a060020a031681526020018d5181526020018d60016020020151815260200160408e0151815260200160608e0151815260200160608f0151600160a060020a031681526020018c60018111156123aa57fe5b81526020018b60018111156123bb57fe5b81526020018a60018111156123cc57fe5b815260200160808f0151600160a060020a031681526020018960018111156123f057fe5b8152602081018990526040810188905260600160a08f0151600160a060020a031681526020810187905260400160c08f0151600160a060020a0316815260200160808e0151815260200160a08e0151815260200160c08e0151815260200160e08e015181526020016101008e015190526060604051908101604090815260ff87168252602082018690528101849052613977565b505050505050505050505050565b6121736102e0604051908101604052808d51600160a060020a031681526020018d60016020020151600160a060020a0316815260200160408e0151600160a060020a031681526020018c5181526020018c60016020020151815260200160408d0151815260200160608d0151815260200160608e0151600160a060020a031681526020018b5160ff16600181111561252657fe5b600181111561253157fe5b81526020018b6001602002015160ff16600181111561254c57fe5b600181111561255757fe5b815260200160408c015160ff16600181111561256f57fe5b600181111561257a57fe5b815260200160808e0151600160a060020a0316815260200160608c015160ff1660018111156125a557fe5b60018111156125b057fe5b8152602081018b90526040810189905260600160a08e0151600160a060020a031681526020810187905260400160c08e0151600160a060020a0316815260200160808d0151815260200160a08d0151815260200160c08d0151815260200160e08d015181526020016101008d01519052606060405190810160405280855160ff16815260200184518152602001846001602002015190526102e0604051908101604052808f60076020020151600160a060020a031681526020018f60086020020151600160a060020a031681526020018f60096020020151600160a060020a031681526020016101208f015181526020016101408f015181526020016101608f015181526020016101808f015181526020018f600a6020020151600160a060020a0316815260200160808e015160ff1660018111156126eb57fe5b60018111156126f657fe5b815260200160a08e015160ff16600181111561270e57fe5b600181111561271957fe5b815260200160c08e015160ff16600181111561273157fe5b600181111561273c57fe5b81526020018f600b6020020151600160a060020a0316815260200160e08e015160ff16600181111561276a57fe5b600181111561277557fe5b8152602081018c9052604081018a90526060018f600c6020020151600160a060020a03168152602081018890526040018f600d6020020151600160a060020a031681526020016101a08f015181526020016101c08f015181526020016101e08f015181526020016102008f015181526020016102208f01519052606060405190810160405280602088015160ff168152602001604087015181526020016060870151905260808601516139f6565b600061282d614736565b6102e0604051908101604052808c51600160a060020a031681526020018c60016020020151600160a060020a0316815260200160408d0151600160a060020a031681526020018b5181526020018b60016020020151815260200160408c0151815260200160608c0151815260200160608d0151600160a060020a031681526020018a60018111156128ba57fe5b81526020018960018111156128cb57fe5b81526020018860018111156128dc57fe5b815260200160808d0151600160a060020a0316815260200187600181111561290057fe5b8152602081018790526040810186905260600160a08d0151600160a060020a031681526020810185905260400160c08d0151600160a060020a0316815260200160808c0151815260200160a08c0151815260200160c08c0151815260200160e08c015181526020016101008c01519052905061297b81613e9c565b9b9a5050505050505050505050565b61271081565b600061299a614736565b6129a2614736565b6102e0604051908101604052808d51600160a060020a031681526020018d60016020020151600160a060020a0316815260200160408e0151600160a060020a031681526020018c5181526020018c60016020020151815260200160408d0151815260200160608d0151815260200160608e0151600160a060020a031681526020018b5160ff166001811115612a3357fe5b6001811115612a3e57fe5b81526020018b6001602002015160ff166001811115612a5957fe5b6001811115612a6457fe5b815260200160408c015160ff166001811115612a7c57fe5b6001811115612a8757fe5b815260200160808e0151600160a060020a0316815260200160608c015160ff166001811115612ab257fe5b6001811115612abd57fe5b8152602081018b90526040810189905260600160a08e0151600160a060020a031681526020810187905260400160c08e0151600160a060020a0316815260200160808d0151815260200160a08d0151815260200160c08d0151815260200160e08d015181526020016101008d0151905291506102e06040519081016040528060e08e0151600160a060020a031681526020016101008e0151600160a060020a031681526020016101208e0151600160a060020a031681526020016101208d015181526020016101408d015181526020016101608d015181526020016101808d015181526020016101408e0151600160a060020a0316815260200160808c015160ff166001811115612bca57fe5b6001811115612bd557fe5b815260200160a08c015160ff166001811115612bed57fe5b6001811115612bf857fe5b815260200160c08c015160ff166001811115612c1057fe5b6001811115612c1b57fe5b81526020016101608e0151600160a060020a0316815260200160e08c015160ff166001811115612c4757fe5b6001811115612c5257fe5b8152602081018a9052604081018890526060016101808e0151600160a060020a03168152602081018690526040016101a08e0151600160a060020a031681526020016101a08d015181526020016101c08d015181526020016101e08d015181526020016102008d015181526020016102208d01519052905061200c8282613f2b565b60056020526000908152604090205460ff1681565b60005433600160a060020a039081166101009092041614612d0957600080fd5b600160a060020a0381161515612d1e57600080fd5b600054600160a060020a03808316916101009004167f8be0079c531659141344cd1fd0a4f28419497f9722a3daafe3b4186f6b6457e060405160405180910390a360008054600160a060020a039092166101000274ffffffffffffffffffffffffffffffffffffffff0019909216919091179055565b60008082511115612dd157815180602001830160208401855b60018383101415612dc8578151815260209182019101612dad565b50505092909201915b5090919050565b60008060008451865114612deb57600080fd5b8351865114612df957600080fd5b612e0586516020613fbd565b9250612e12836020613fd4565b9150600090505b82811015612e485780600101602002808501518186015181168289015191199091161790870152600101612e19565b6000831115612e7c576020865103905080600101602002808501518186015181168289015182191617828901525050612f50565b50805b8551811015612f5057848181518110612e9457fe5b016020015160f860020a900460f860020a02848281518110612eb257fe5b016020015160f860020a900460f860020a0216868281518110612ed157fe5b016020015160f860020a900460f860020a02858381518110612eef57fe5b016020015160f860020a900460f860020a0260ff60f860020a02181617868281518110612f1857fe5b9060200101907effffffffffffffffffffffffffffffffffffffffffffffffffffffffffffff1916908160001a905350600101612e7f565b505050505050565b6c01000000000000000000000000600160a060020a0382160280835260149092019182905b5092915050565b6000612fb2826101200151836101400151846102400151856102600151866102800151876102a00151613165565b90505b919050565b6000600183518351811460018114612fd55760009250613013565b600160208701838101602088015b60028483851001141561300e5780518351146130025760009650600093505b60209283019201612fe3565b505050505b5090949350505050565b6000613028826131f8565b6040517f19457468657265756d205369676e6564204d6573736167653a0a3332000000008152601c810191909152603c0160405180910390209050919050565b600061307383613e9c565b151561308157506000611724565b60008481526004602052604090205460ff16156130a057506000611724565b60008481526005602052604090205460ff16156130bf57506001611724565b8260200151600160a060020a03166001858451856020015186604001516040516000815260200160405260006040516020015260405193845260ff90921660208085019190915260408085019290925260608401929092526080909201915160208103908084039060008661646e5a03f1151561313b57600080fd5b505060206040510351600160a060020a0316141561315b57506001611724565b5060009392505050565b6000808087600181111561317557fe5b1415613183578591506131ed565b600187600181111561319157fe5b14156131ed576131bc6131ad866131a84288613fff565b613fd4565b6131b78587613fff565b613fbd565b905060018860018111156131cc57fe5b14156131e3576131dc8682613fff565b91506131ed565b6131dc8682614011565b509695505050505050565b600080613203614724565b600061320e85614020565b92508260405180591061321e5750595b818152601f19601f8301168101602001604052905091505060208101613245818651612f58565b9050613255818660200151612f58565b9050613265818660400151612f58565b9050613275818660600151614043565b9050613285818660800151614043565b9050613295818660a00151614043565b90506132a5818660c00151614043565b90506132b5818660e00151612f58565b90506132d18186610100015160018111156132cc57fe5b61404b565b90506132e88186610120015160018111156132cc57fe5b90506132ff8186610140015160018111156132cc57fe5b905061331081866101600151612f58565b90506133278186610180015160018111156132cc57fe5b905061333881866101a00151612d94565b905061334981866101c00151612d94565b905061335a81866101e00151612f58565b905061336b81866102000151612d94565b905061337c81866102200151612f58565b905061338d81866102400151614043565b905061339e81866102600151614043565b90506133af81866102800151614043565b90506133c081866102a00151614043565b90506133d181866102c00151614043565b50506020012092915050565b60008083610120015160018111156133f157fe5b14801561340e57506001826101200151600181111561340c57fe5b145b80156134395750816101000151600181111561342657fe5b836101000151600181111561343757fe5b145b80156134605750816102200151600160a060020a0316836102200151600160a060020a0316145b801561349c575060006040830151600160a060020a0316148061349c57508260200151600160a060020a03168260400151600160a060020a0316145b80156134d8575060006040840151600160a060020a031614806134d857508160200151600160a060020a03168360400151600160a060020a0316145b801561353b5750600060e0830151600160a060020a031614801561350a5750600060e0840151600160a060020a031614155b8061353b5750600060e0830151600160a060020a03161415801561353b5750600060e0840151600160a060020a0316145b80156135625750816101600151600160a060020a0316836101600151600160a060020a0316145b801561358d5750816101800151600181111561357a57fe5b836101800151600181111561358b57fe5b145b80156135a857506135a8836102800151846102a00151614058565b80156117245750611724826102800151836102a00151614058565b60008260200151600160a060020a031633600160a060020a03161415156135e957600080fd5b6135f28361301d565b60008181526005602052604090205490915060ff161561361157600080fd5b6000818152600560205260409020805460ff1916600117905560e0830151600160a060020a03168360200151600160a060020a0316827f90c7f9f5b58c15f0f635bfb99f55d3d78fdbef3559e7d8abf5c81052a527662286518760400151886060015189608001518a60a001518b60c001518c61010001518d61012001518e61014001518f6101600151604051808b600160a060020a0316600160a060020a031681526020018a600160a060020a0316600160a060020a031681526020018981526020018881526020018781526020018681526020018560018111156136f357fe5b60ff16815260200184600181111561370757fe5b60ff16815260200183600181111561371b57fe5b60ff16815260200182600160a060020a0316600160a060020a031681526020019a505050505050505050505060405180910390a4807fe55393c778364e440d958b39ac1debd99dcfae3775a8a04d1e79124adf6a2d08610180850151856101a00151866101c00151876101e001518861020001518961022001518a61024001518b61026001518c61028001518d6102a001518e6102c001518e604051808d60018111156137c457fe5b60ff16815260200180602001806020018c600160a060020a0316600160a060020a03168152602001806020018b600160a060020a0316600160a060020a031681526020018a81526020018981526020018881526020018781526020018681526020018515151515815260200184810384528f818151815260200191508051906020019080838360005b8381101561386557808201518382015260200161384d565b50505050905090810190601f1680156138925780820380516001836020036101000a031916815260200191505b5084810383528e818151815260200191508051906020019080838360005b838110156138c85780820151838201526020016138b0565b50505050905090810190601f1680156138f55780820380516001836020036101000a031916815260200191505b5084810382528c818151815260200191508051906020019080838360005b8381101561392b578082015183820152602001613913565b50505050905090810190601f1680156139585780820380516001836020036101000a031916815260200191505b509f5050505050505050505050505050505060405180910390a2505050565b60006139838383614074565b90508260200151600160a060020a031633600160a060020a03161415156139a957600080fd5b60008181526004602052604090819020805460ff1916600117905581907f5152abf959f6564662358c2e52b702259b78bac5ee7842a0f01937e670efcc7d905160405180910390a2505050565b600080548190819081908190819060ff1615613a1157600080fd5b6000805460ff19166001179055600160a060020a03331660208c0151600160a060020a03161415613a5557613a458b613e9c565b1515613a5057600080fd5b613a62565b613a5f8b8b614074565b95505b33600160a060020a03168960200151600160a060020a03161415613a9957613a8989613e9c565b1515613a9457600080fd5b613aa6565b613aa38989614074565b94505b613ab08b8a6133dd565b1515613abb57600080fd5b886101600151803b9450925060008411613ad457600080fd5b60008b6101c00151511115613afd57613afd8b6101a001518a6101a001518d6101c00151612dd8565b6000896101c00151511115613b2657613b26896101a001518c6101a001518b6101c00151612dd8565b613b3a8b6101a001518a6101a00151612fba565b1515613b4557600080fd5b600254600160a060020a031663c455279160208b015160006040516020015260405160e060020a63ffffffff8416028152600160a060020a039091166004820152602401602060405180830381600087803b1515613ba257600080fd5b6102c65a03f11515613bb357600080fd5b5050506040518051925050600160a060020a0382161515613bd357600080fd5b8a60200151600160a060020a031633600160a060020a0316141515613c0c576000868152600460205260409020805460ff191660011790555b8860200151600160a060020a031633600160a060020a0316141515613c45576000858152600460205260409020805460ff191660011790555b613c4f8b8a614098565b905081600160a060020a0316631b0f7ba98a61016001518b61018001518c6101a001516000604051602001526040518463ffffffff1660e060020a0281526004018084600160a060020a0316600160a060020a03168152602001836001811115613cb557fe5b60ff16815260200180602001828103825283818151815260200191508051906020019080838360005b83811015613cf6578082015183820152602001613cde565b50505050905090810190601f168015613d235780820380516001836020036101000a031916815260200191505b50945050505050602060405180830381600087803b1515613d4357600080fd5b6102c65a03f11515613d5457600080fd5b505050604051805190501515613d6957600080fd5b60006101e08c0151600160a060020a031614613da457613d998b6101e001518a6101a001518d610200015161165b565b1515613da457600080fd5b60006101e08a0151600160a060020a031614613ddf57613dd4896101e001518a6101a001518b610200015161165b565b1515613ddf57600080fd5b86600060e08b0151600160a060020a03161415613e00578960200151613e06565b8b602001515b600160a060020a0316600060e08c0151600160a060020a03161415613e2f578c60200151613e35565b8a602001515b600160a060020a03167fc4109843e0b7d514e4c093114b863f8e7d8d9a458c372cd51bfe526b588006c989898660405192835260208301919091526040808301919091526060909101905180910390a450506000805460ff19169055505050505050505050565b6000600160a060020a0330168251600160a060020a031614613ec057506000612fb5565b613ed4826101400151836102a0015161463f565b1515613ee257506000612fb5565b60018261010001516001811115613ef557fe5b148015613f1657506006548260a001511080613f1657506007548260c00151105b15613f2357506000612fb5565b506001919050565b6000806000613f5c846101200151856101400151866102400151876102600151886102800151896102a00151613165565b9150613f8a8561012001518661014001518761024001518861026001518961028001518a6102a00151613165565b905081811015613f9957600080fd5b600060e0850151600160a060020a03161415613fb557806119a7565b509392505050565b6000808284811515613fcb57fe5b04949350505050565b600080831515613fe75760009150612f7d565b50828202828482811515613ff757fe5b041461172457fe5b60008282111561400b57fe5b50900390565b60008282018381101561172457fe5b600081610200015151826101c0015151836101a001515101016101b00192915050565b815260200190565b6000818353505060010190565b6000428310801561172457508115806117245750504210919050565b6000806140808461301d565b905061408d818585613068565b151561172457600080fd5b60008080808080808080806102208b0151600160a060020a0316146140c25734156140c257600080fd5b6140cc8b8b613f2b565b97506000881180156140ed575060006102208b0151600160a060020a031614155b1561410b5761410b8a61022001518c602001518c602001518b61465f565b879650869550600060e08b0151600160a060020a03161461440d578a608001518a60800151111561413b57600080fd5b60018a6101000151600181111561414e57fe5b14156143da578a60c001518a60c00151111561416957600080fd5b60008a6060015111156142075761418f6141878b606001518a613fd4565b612710613fbd565b945060006102208b0151600160a060020a031614156141ee576141b28786613fff565b96508960e00151600160a060020a031685156108fc0286604051600060405180830381858888f1935050505015156141e957600080fd5b614207565b6142078a61022001518b602001518c60e001518861465f565b60008a60800151111561429d576142256141878b608001518a613fd4565b935060006102208b0151600160a060020a03161415614284576142488685614011565b95508960e00151600160a060020a031684156108fc0285604051600060405180830381858888f19350505050151561427f57600080fd5b61429d565b61429d8a61022001518c602001518c60e001518761465f565b60008a60a001511115614339576142bb6141878b60a001518a613fd4565b925060006102208b0151600160a060020a03161415614319576142de8784613fff565b600854909750600160a060020a031683156108fc0284604051600060405180830381858888f19350505050151561431457600080fd5b614339565b6143398a61022001518b60200151600854600160a060020a03168661465f565b60008a60c0015111156143d5576143576141878b60c001518a613fd4565b915060006102208b0151600160a060020a031614156143b55761437a8683614011565b600854909650600160a060020a031682156108fc0283604051600060405180830381858888f1935050505015156143b057600080fd5b6143d5565b6143d58a61022001518c60200151600854600160a060020a03168561465f565b614408565b6143f18a602001518b60e001518c60600151614707565b6144088b602001518b60e001518c60800151614707565b61458c565b89608001518b60800151111561442257600080fd5b60018a6101000151600181111561443557fe5b141561455e5760006102208b0151600160a060020a0316141561445757600080fd5b8960c001518b60c00151111561446c57600080fd5b60008b6060015111156144a55761448a6141878c606001518a613fd4565b94506144a58a61022001518c602001518d60e001518861465f565b60008b6080015111156144de576144c36141878c608001518a613fd4565b93506144de8a61022001518b602001518d60e001518761465f565b60008b60a00151111561451e576144fc6141878c60a001518a613fd4565b925061451e8a61022001518c60200151600854600160a060020a03168661465f565b60008b60c0015111156144085761453c6141878c60c001518a613fd4565b91506144088a61022001518b60200151600854600160a060020a03168561465f565b6145758b602001518c60e001518d60600151614707565b61458c8a602001518c60e001518d60800151614707565b60006102208b0151600160a060020a031614156146305734869010156145b157600080fd5b8960200151600160a060020a031687156108fc0288604051600060405180830381858888f1935050505015156145e657600080fd5b6145f03487613fff565b90506000811115614630578a60200151600160a060020a031681156108fc0282604051600060405180830381858888f19350505050151561463057600080fd5b50959998505050505050505050565b60008083600181111561464e57fe5b148061172457505060009011919050565b600081111561470157600354600160a060020a03166315dacbea8585858560006040516020015260405160e060020a63ffffffff8716028152600160a060020a0394851660048201529284166024840152921660448201526064810191909152608401602060405180830381600087803b15156146db57600080fd5b6102c65a03f115156146ec57600080fd5b50505060405180519050151561470157600080fd5b50505050565b60015461471f90600160a060020a031684848461465f565b505050565b60206040519081016040526000815290565b6102e06040519081016040908152600080835260208301819052908201819052606082018190526080820181905260a0820181905260c0820181905260e0820181905261010082018190526101208201819052610140820181905261016082018190526101808201526101a081016147ac614724565b81526020016147b9614724565b8152600060208201526040016147cd614724565b81526020016000600160a060020a03168152602001600081526020016000815260200160008152602001600081526020016000815250905600a165627a7a723058200d125de29b96d15c40816e6a52a9df7700f2b139bedb4fef38e1c1b586588b710029",
  "source": "/*\n  \n  Exchange contract. This is an outer contract with public or convenience functions and includes no state-modifying functions.\n \n*/\n\npragma solidity 0.4.19;\n\nimport \"./ExchangeCore.sol\";\n\n/**\n * @title Exchange\n * @author Project Wyvern Developers\n */\ncontract Exchange is ExchangeCore {\n\n    /**\n     * @dev Call guardedArrayReplace - library function exposed for testing.\n     */\n    function guardedArrayReplace(bytes array, bytes desired, bytes mask)\n        public\n        pure\n        returns (bytes)\n    {\n        ArrayUtils.guardedArrayReplace(array, desired, mask);\n        return array;\n    }\n\n    /**\n     * Test copy byte array\n     *\n     * @param arrToCopy Array to copy\n     * @return byte array\n     */\n    function testCopy(bytes arrToCopy)\n        public\n        pure\n        returns (bytes)\n    {\n        bytes memory arr = new bytes(arrToCopy.length);\n        uint index;\n        assembly {\n            index := add(arr, 0x20)\n        }\n        ArrayUtils.unsafeWriteBytes(index, arrToCopy);\n        return arr;\n    }\n\n    /**\n     * Test write address to bytes\n     *\n     * @param addr Address to write\n     * @return byte array\n     */\n    function testCopyAddress(address addr)\n        public\n        pure\n        returns (bytes)\n    {\n        bytes memory arr = new bytes(0x14);\n        uint index;\n        assembly {\n            index := add(arr, 0x20)\n        }\n        ArrayUtils.unsafeWriteAddress(index, addr);\n        return arr;\n    }\n\n    /**\n     * @dev Call calculateFinalPrice - library function exposed for testing.\n     */\n    function calculateFinalPrice(SaleKindInterface.Side side, SaleKindInterface.SaleKind saleKind, uint basePrice, uint extra, uint listingTime, uint expirationTime)\n        public\n        view\n        returns (uint)\n    {\n        return SaleKindInterface.calculateFinalPrice(side, saleKind, basePrice, extra, listingTime, expirationTime);\n    }\n\n    /**\n     * @dev Call hashOrder - Solidity ABI encoding limitation workaround, hopefully temporary.\n     */\n    function hashOrder_(\n        address[7] addrs,\n        uint[9] uints,\n        FeeMethod feeMethod,\n        SaleKindInterface.Side side,\n        SaleKindInterface.SaleKind saleKind,\n        AuthenticatedProxy.HowToCall howToCall,\n        bytes calldata,\n        bytes replacementPattern,\n        bytes staticExtradata)\n        public\n        pure\n        returns (bytes32)\n    {\n        return hashOrder(\n          Order(addrs[0], addrs[1], addrs[2], uints[0], uints[1], uints[2], uints[3], addrs[3], feeMethod, side, saleKind, addrs[4], howToCall, calldata, replacementPattern, addrs[5], staticExtradata, ERC20(addrs[6]), uints[4], uints[5], uints[6], uints[7], uints[8])\n        );\n    }\n\n    /**\n     * @dev Call hashToSign - Solidity ABI encoding limitation workaround, hopefully temporary.\n     */\n    function hashToSign_(\n        address[7] addrs,\n        uint[9] uints,\n        FeeMethod feeMethod,\n        SaleKindInterface.Side side,\n        SaleKindInterface.SaleKind saleKind,\n        AuthenticatedProxy.HowToCall howToCall,\n        bytes calldata,\n        bytes replacementPattern,\n        bytes staticExtradata)\n        public\n        pure\n        returns (bytes32)\n    { \n        return hashToSign(\n          Order(addrs[0], addrs[1], addrs[2], uints[0], uints[1], uints[2], uints[3], addrs[3], feeMethod, side, saleKind, addrs[4], howToCall, calldata, replacementPattern, addrs[5], staticExtradata, ERC20(addrs[6]), uints[4], uints[5], uints[6], uints[7], uints[8])\n        );\n    }\n\n    /**\n     * @dev Call validateOrderParameters - Solidity ABI encoding limitation workaround, hopefully temporary.\n     */\n    function validateOrderParameters_ (\n        address[7] addrs,\n        uint[9] uints,\n        FeeMethod feeMethod,\n        SaleKindInterface.Side side,\n        SaleKindInterface.SaleKind saleKind,\n        AuthenticatedProxy.HowToCall howToCall,\n        bytes calldata,\n        bytes replacementPattern,\n        bytes staticExtradata)\n        view\n        public\n        returns (bool)\n    {\n        Order memory order = Order(addrs[0], addrs[1], addrs[2], uints[0], uints[1], uints[2], uints[3], addrs[3], feeMethod, side, saleKind, addrs[4], howToCall, calldata, replacementPattern, addrs[5], staticExtradata, ERC20(addrs[6]), uints[4], uints[5], uints[6], uints[7], uints[8]);\n        return validateOrderParameters(\n          order\n        );\n    }\n\n    /**\n     * @dev Call validateOrder - Solidity ABI encoding limitation workaround, hopefully temporary.\n     */\n    function validateOrder_ (\n        address[7] addrs,\n        uint[9] uints,\n        FeeMethod feeMethod,\n        SaleKindInterface.Side side,\n        SaleKindInterface.SaleKind saleKind,\n        AuthenticatedProxy.HowToCall howToCall,\n        bytes calldata,\n        bytes replacementPattern,\n        bytes staticExtradata,\n        uint8 v,\n        bytes32 r,\n        bytes32 s)\n        view\n        public\n        returns (bool)\n    {\n        Order memory order = Order(addrs[0], addrs[1], addrs[2], uints[0], uints[1], uints[2], uints[3], addrs[3], feeMethod, side, saleKind, addrs[4], howToCall, calldata, replacementPattern, addrs[5], staticExtradata, ERC20(addrs[6]), uints[4], uints[5], uints[6], uints[7], uints[8]);\n        return validateOrder(\n          hashToSign(order),\n          order,\n          Sig(v, r, s)\n        );\n    }\n\n    /**\n     * @dev Call approveOrder - Solidity ABI encoding limitation workaround, hopefully temporary.\n     */\n    function approveOrder_ (\n        address[7] addrs,\n        uint[9] uints,\n        FeeMethod feeMethod,\n        SaleKindInterface.Side side,\n        SaleKindInterface.SaleKind saleKind,\n        AuthenticatedProxy.HowToCall howToCall,\n        bytes calldata,\n        bytes replacementPattern,\n        bytes staticExtradata,\n        bool orderbookInclusionDesired) \n        public\n    {\n        Order memory order = Order(addrs[0], addrs[1], addrs[2], uints[0], uints[1], uints[2], uints[3], addrs[3], feeMethod, side, saleKind, addrs[4], howToCall, calldata, replacementPattern, addrs[5], staticExtradata, ERC20(addrs[6]), uints[4], uints[5], uints[6], uints[7], uints[8]);\n        return approveOrder(order, orderbookInclusionDesired);\n    }\n\n    /**\n     * @dev Call cancelOrder - Solidity ABI encoding limitation workaround, hopefully temporary.\n     */\n    function cancelOrder_(\n        address[7] addrs,\n        uint[9] uints,\n        FeeMethod feeMethod,\n        SaleKindInterface.Side side,\n        SaleKindInterface.SaleKind saleKind,\n        AuthenticatedProxy.HowToCall howToCall,\n        bytes calldata,\n        bytes replacementPattern,\n        bytes staticExtradata,\n        uint8 v,\n        bytes32 r,\n        bytes32 s)\n        public\n    {\n\n        return cancelOrder(\n          Order(addrs[0], addrs[1], addrs[2], uints[0], uints[1], uints[2], uints[3], addrs[3], feeMethod, side, saleKind, addrs[4], howToCall, calldata, replacementPattern, addrs[5], staticExtradata, ERC20(addrs[6]), uints[4], uints[5], uints[6], uints[7], uints[8]),\n          Sig(v, r, s)\n        );\n    }\n\n    /**\n     * @dev Call calculateCurrentPrice - Solidity ABI encoding limitation workaround, hopefully temporary.\n     */\n    function calculateCurrentPrice_(\n        address[7] addrs,\n        uint[9] uints,\n        FeeMethod feeMethod,\n        SaleKindInterface.Side side,\n        SaleKindInterface.SaleKind saleKind,\n        AuthenticatedProxy.HowToCall howToCall,\n        bytes calldata,\n        bytes replacementPattern,\n        bytes staticExtradata)\n        public\n        view\n        returns (uint)\n    {\n        return calculateCurrentPrice(\n          Order(addrs[0], addrs[1], addrs[2], uints[0], uints[1], uints[2], uints[3], addrs[3], feeMethod, side, saleKind, addrs[4], howToCall, calldata, replacementPattern, addrs[5], staticExtradata, ERC20(addrs[6]), uints[4], uints[5], uints[6], uints[7], uints[8])\n        );\n    }\n\n    /**\n     * @dev Call ordersCanMatch - Solidity ABI encoding limitation workaround, hopefully temporary.\n     */\n    function ordersCanMatch_(\n        address[14] addrs,\n        uint[18] uints,\n        uint8[8] feeMethodsSidesKindsHowToCalls,\n        bytes calldataBuy,\n        bytes calldataSell,\n        bytes replacementPatternBuy,\n        bytes replacementPatternSell,\n        bytes staticExtradataBuy,\n        bytes staticExtradataSell)\n        public\n        view\n        returns (bool)\n    {\n        Order memory buy = Order(addrs[0], addrs[1], addrs[2], uints[0], uints[1], uints[2], uints[3], addrs[3], FeeMethod(feeMethodsSidesKindsHowToCalls[0]), SaleKindInterface.Side(feeMethodsSidesKindsHowToCalls[1]), SaleKindInterface.SaleKind(feeMethodsSidesKindsHowToCalls[2]), addrs[4], AuthenticatedProxy.HowToCall(feeMethodsSidesKindsHowToCalls[3]), calldataBuy, replacementPatternBuy, addrs[5], staticExtradataBuy, ERC20(addrs[6]), uints[4], uints[5], uints[6], uints[7], uints[8]);\n        Order memory sell = Order(addrs[7], addrs[8], addrs[9], uints[9], uints[10], uints[11], uints[12], addrs[10], FeeMethod(feeMethodsSidesKindsHowToCalls[4]), SaleKindInterface.Side(feeMethodsSidesKindsHowToCalls[5]), SaleKindInterface.SaleKind(feeMethodsSidesKindsHowToCalls[6]), addrs[11], AuthenticatedProxy.HowToCall(feeMethodsSidesKindsHowToCalls[7]), calldataSell, replacementPatternSell, addrs[12], staticExtradataSell, ERC20(addrs[13]), uints[13], uints[14], uints[15], uints[16], uints[17]);\n        return ordersCanMatch(\n          buy,\n          sell\n        );\n    }\n\n    /**\n     * @dev Return whether or not two orders' calldata specifications can match\n     * @param buyCalldata Buy-side order calldata\n     * @param buyReplacementPattern Buy-side order calldata replacement mask\n     * @param sellCalldata Sell-side order calldata\n     * @param sellReplacementPattern Sell-side order calldata replacement mask\n     * @return Whether the orders' calldata can be matched\n     */\n    function orderCalldataCanMatch(bytes buyCalldata, bytes buyReplacementPattern, bytes sellCalldata, bytes sellReplacementPattern)\n        public\n        pure\n        returns (bool)\n    {\n        if (buyReplacementPattern.length > 0) {\n          ArrayUtils.guardedArrayReplace(buyCalldata, sellCalldata, buyReplacementPattern);\n        }\n        if (sellReplacementPattern.length > 0) {\n          ArrayUtils.guardedArrayReplace(sellCalldata, buyCalldata, sellReplacementPattern);\n        }\n        return ArrayUtils.arrayEq(buyCalldata, sellCalldata);\n    }\n\n    /**\n     * @dev Call calculateMatchPrice - Solidity ABI encoding limitation workaround, hopefully temporary.\n     */\n    function calculateMatchPrice_(\n        address[14] addrs,\n        uint[18] uints,\n        uint8[8] feeMethodsSidesKindsHowToCalls,\n        bytes calldataBuy,\n        bytes calldataSell,\n        bytes replacementPatternBuy,\n        bytes replacementPatternSell,\n        bytes staticExtradataBuy,\n        bytes staticExtradataSell)\n        public\n        view\n        returns (uint)\n    {\n        Order memory buy = Order(addrs[0], addrs[1], addrs[2], uints[0], uints[1], uints[2], uints[3], addrs[3], FeeMethod(feeMethodsSidesKindsHowToCalls[0]), SaleKindInterface.Side(feeMethodsSidesKindsHowToCalls[1]), SaleKindInterface.SaleKind(feeMethodsSidesKindsHowToCalls[2]), addrs[4], AuthenticatedProxy.HowToCall(feeMethodsSidesKindsHowToCalls[3]), calldataBuy, replacementPatternBuy, addrs[5], staticExtradataBuy, ERC20(addrs[6]), uints[4], uints[5], uints[6], uints[7], uints[8]);\n        Order memory sell = Order(addrs[7], addrs[8], addrs[9], uints[9], uints[10], uints[11], uints[12], addrs[10], FeeMethod(feeMethodsSidesKindsHowToCalls[4]), SaleKindInterface.Side(feeMethodsSidesKindsHowToCalls[5]), SaleKindInterface.SaleKind(feeMethodsSidesKindsHowToCalls[6]), addrs[11], AuthenticatedProxy.HowToCall(feeMethodsSidesKindsHowToCalls[7]), calldataSell, replacementPatternSell, addrs[12], staticExtradataSell, ERC20(addrs[13]), uints[13], uints[14], uints[15], uints[16], uints[17]);\n        return calculateMatchPrice(\n          buy,\n          sell\n        );\n    }\n\n    /**\n     * @dev Call atomicMatch - Solidity ABI encoding limitation workaround, hopefully temporary.\n     */\n    function atomicMatch_(\n        address[14] addrs,\n        uint[18] uints,\n        uint8[8] feeMethodsSidesKindsHowToCalls,\n        bytes calldataBuy,\n        bytes calldataSell,\n        bytes replacementPatternBuy,\n        bytes replacementPatternSell,\n        bytes staticExtradataBuy,\n        bytes staticExtradataSell,\n        uint8[2] vs,\n        bytes32[5] rssMetadata)\n        public\n        payable\n    {\n\n        return atomicMatch(\n          Order(addrs[0], addrs[1], addrs[2], uints[0], uints[1], uints[2], uints[3], addrs[3], FeeMethod(feeMethodsSidesKindsHowToCalls[0]), SaleKindInterface.Side(feeMethodsSidesKindsHowToCalls[1]), SaleKindInterface.SaleKind(feeMethodsSidesKindsHowToCalls[2]), addrs[4], AuthenticatedProxy.HowToCall(feeMethodsSidesKindsHowToCalls[3]), calldataBuy, replacementPatternBuy, addrs[5], staticExtradataBuy, ERC20(addrs[6]), uints[4], uints[5], uints[6], uints[7], uints[8]),\n          Sig(vs[0], rssMetadata[0], rssMetadata[1]),\n          Order(addrs[7], addrs[8], addrs[9], uints[9], uints[10], uints[11], uints[12], addrs[10], FeeMethod(feeMethodsSidesKindsHowToCalls[4]), SaleKindInterface.Side(feeMethodsSidesKindsHowToCalls[5]), SaleKindInterface.SaleKind(feeMethodsSidesKindsHowToCalls[6]), addrs[11], AuthenticatedProxy.HowToCall(feeMethodsSidesKindsHowToCalls[7]), calldataSell, replacementPatternSell, addrs[12], staticExtradataSell, ERC20(addrs[13]), uints[13], uints[14], uints[15], uints[16], uints[17]),\n          Sig(vs[1], rssMetadata[2], rssMetadata[3]),\n          rssMetadata[4]\n        );\n    }\n\n}\n",
  "sourcePath": "/home/cwgoes/working/crypto/wyvern/wyvern-ethereum/contracts/exchange/Exchange.sol",
  "compiler": {
    "name": "solc",
    "version": "0.4.19+commit.c4cbbb05.Emscripten.clang"
  },
  "schemaVersion": "2.0.0",
  "updatedAt": "2018-04-01T13:25:20.491Z"
}