{
  "contractName": "ExchangeCore",
  "abi": [
    {
      "constant": true,
      "inputs": [
        {
          "name": "target",
          "type": "address"
        },
        {
          "name": "calldata",
          "type": "bytes"
        },
        {
          "name": "extradata",
          "type": "bytes"
        }
      ],
      "name": "staticCall",
      "outputs": [
        {
          "name": "result",
          "type": "bool"
        }
      ],
      "payable": false,
      "stateMutability": "view",
      "type": "function"
    },
    {
      "constant": true,
      "inputs": [],
      "name": "registry",
      "outputs": [
        {
          "name": "",
          "type": "address"
        }
      ],
      "payable": false,
      "stateMutability": "view",
      "type": "function"
    },
    {
      "constant": true,
      "inputs": [
        {
          "name": "",
          "type": "bytes32"
        }
      ],
      "name": "cancelledOrFinalized",
      "outputs": [
        {
          "name": "",
          "type": "bool"
        }
      ],
      "payable": false,
      "stateMutability": "view",
      "type": "function"
    },
    {
      "constant": true,
      "inputs": [],
      "name": "exchangeToken",
      "outputs": [
        {
          "name": "",
          "type": "address"
        }
      ],
      "payable": false,
      "stateMutability": "view",
      "type": "function"
    },
    {
      "constant": true,
      "inputs": [
        {
          "name": "",
          "type": "bytes32"
        }
      ],
      "name": "approvedOrders",
      "outputs": [
        {
          "name": "",
          "type": "bool"
        }
      ],
      "payable": false,
      "stateMutability": "view",
      "type": "function"
    },
    {
      "anonymous": false,
      "inputs": [
        {
          "indexed": true,
          "name": "hash",
          "type": "bytes32"
        },
        {
          "indexed": false,
          "name": "exchange",
          "type": "address"
        },
        {
          "indexed": true,
          "name": "maker",
          "type": "address"
        },
        {
          "indexed": false,
          "name": "taker",
          "type": "address"
        },
        {
          "indexed": false,
          "name": "makerFee",
          "type": "uint256"
        },
        {
          "indexed": false,
          "name": "takerFee",
          "type": "uint256"
        },
        {
          "indexed": true,
          "name": "feeRecipient",
          "type": "address"
        },
        {
          "indexed": false,
          "name": "side",
          "type": "uint8"
        },
        {
          "indexed": false,
          "name": "saleKind",
          "type": "uint8"
        },
        {
          "indexed": false,
          "name": "target",
          "type": "address"
        },
        {
          "indexed": false,
          "name": "howToCall",
          "type": "uint8"
        },
        {
          "indexed": false,
          "name": "calldata",
          "type": "bytes"
        }
      ],
      "name": "OrderApprovedPartOne",
      "type": "event"
    },
    {
      "anonymous": false,
      "inputs": [
        {
          "indexed": true,
          "name": "hash",
          "type": "bytes32"
        },
        {
          "indexed": false,
          "name": "replacementPattern",
          "type": "bytes"
        },
        {
          "indexed": false,
          "name": "staticTarget",
          "type": "address"
        },
        {
          "indexed": false,
          "name": "staticExtradata",
          "type": "bytes"
        },
        {
          "indexed": false,
          "name": "paymentToken",
          "type": "address"
        },
        {
          "indexed": false,
          "name": "basePrice",
          "type": "uint256"
        },
        {
          "indexed": false,
          "name": "extra",
          "type": "uint256"
        },
        {
          "indexed": false,
          "name": "listingTime",
          "type": "uint256"
        },
        {
          "indexed": false,
          "name": "expirationTime",
          "type": "uint256"
        },
        {
          "indexed": false,
          "name": "salt",
          "type": "uint256"
        },
        {
          "indexed": false,
          "name": "orderbookInclusionDesired",
          "type": "bool"
        }
      ],
      "name": "OrderApprovedPartTwo",
      "type": "event"
    },
    {
      "anonymous": false,
      "inputs": [
        {
          "indexed": true,
          "name": "hash",
          "type": "bytes32"
        }
      ],
      "name": "OrderCancelled",
      "type": "event"
    },
    {
      "anonymous": false,
      "inputs": [
        {
          "indexed": true,
          "name": "buyHash",
          "type": "bytes32"
        },
        {
          "indexed": true,
          "name": "sellHash",
          "type": "bytes32"
        }
      ],
      "name": "OrdersMatched",
      "type": "event"
    }
  ],
  "bytecode": "0x60606040526000805460ff19169055341561001957600080fd5b6103a4806100286000396000f30060606040526004361061006c5763ffffffff7c010000000000000000000000000000000000000000000000000000000060003504166310796a4781146100715780637b103999146101335780638076f0051461016f578063a25eb5d914610185578063e57d4adb14610198575b600080fd5b341561007c57600080fd5b61011f6004803573ffffffffffffffffffffffffffffffffffffffff169060446024803590810190830135806020601f8201819004810201604051908101604052818152929190602084018383808284378201915050505050509190803590602001908201803590602001908080601f0160208091040260200160405190810160405281815292919060208401838380828437509496506101ae95505050505050565b604051901515815260200160405180910390f35b341561013e57600080fd5b6101466102e9565b60405173ffffffffffffffffffffffffffffffffffffffff909116815260200160405180910390f35b341561017a57600080fd5b61011f600435610305565b341561019057600080fd5b61014661031a565b34156101a357600080fd5b61011f60043561033b565b60006101b8610366565b6000806101c786518651610350565b6040518059106101d45750595b818152601f19601f830116810160200160405290509250600091505b845182101561025e5784828151811061020557fe5b016020015160f860020a900460f860020a0283838151811061022357fe5b9060200101907effffffffffffffffffffffffffffffffffffffffffffffffffffffffffffff1916908160001a9053506001909101906101f0565b5060005b85518110156102d05785818151811061027757fe5b016020015160f860020a900460f860020a0283865183018151811061029857fe5b9060200101907effffffffffffffffffffffffffffffffffffffffffffffffffffffffffffff1916908160001a905350600101610262565b60006040518451602086018a5afa979650505050505050565b60015473ffffffffffffffffffffffffffffffffffffffff1681565b60026020526000908152604090205460ff1681565b600054610100900473ffffffffffffffffffffffffffffffffffffffff1681565b60036020526000908152604090205460ff1681565b60008282018381101561035f57fe5b9392505050565b602060405190810160405260008152905600a165627a7a72305820049b934e9b8c546a46d39f95dedec56021b56a2440817a53ed59e4efd2d438cd0029",
  "source": "/*\n\n  Decentralized digital asset exchange. Supports any digital asset that can be represented on the Ethereum blockchain (i.e. - transferred in an Ethereum transaction or sequence of transactions).\n\n  Let us suppose two agents interacting with a distributed ledger have utility functions preferencing certain states of that ledger over others.\n  Aiming to maximize their utility, these agents may construct with their utility functions along with the present ledger state a mapping of state transitions (transactions) to marginal utilities.\n  Any composite state transition with positive marginal utility for and enactable by the combined permissions of both agents thus is a mutually desirable trade, and the trustless \n  code execution provided by a distributed ledger renders the requisite atomicity trivial.\n\n  Relative to this model, this instantiation makes two concessions to practicality:\n  - State transition preferences are not matched directly but instead intermediated by a standard of tokenized value.\n  - A small fee can be charged in WYV for order settlement in an amount configurable by the frontend hosting the orderbook.\n\n  Solidity presently possesses neither a first-class functional typesystem nor runtime reflection (ABI encoding in Solidity), so we must be a bit clever in implementation and work at a lower level of abstraction than would be ideal.\n\n  We elect to utilize the following structure for the initial version of the protocol:\n  - Buy-side and sell-side orders each provide calldata (bytes) - for a sell-side order, the state transition for sale, for a buy-side order, the state transition to be bought.\n    Along with the calldata, orders provide `replacementPattern`: a bytemask indicating which bytes of the calldata can be changed (e.g. NFT destination address).\n    When a buy-side and sell-side order are matched, the desired calldatas are unified, masked with the bytemasks, and checked for agreement.\n    This alone is enough to implement common simple state transitions, such as \"transfer my CryptoKitty to any address\" or \"buy any of this kind of nonfungible token\".\n  - Orders (of either side) can optionally specify a static (no state modification) callback function, which receives configurable data along with the actual calldata as a parameter.\n    Although it requires some encoding acrobatics, this allows for arbitrary transaction validation functions.\n    For example, a buy-sider order could express the intent to buy any CryptoKitty with a particular set of characteristics (checked in the static call),\n    or a sell-side order could express the intent to sell any of three ENS names, but not two others.\n    Use of the EVM's STATICCALL opcode, added in Ethereum Metropolis, allows the static calldata to be safely specified separately and thus this kind of matching to happen correctly\n    - that is to say, wherever the two (transaction => bool) functions intersect.\n\n  Future protocol versions may improve upon this structure in capability or usability according to protocol user feedback demand, with upgrades enacted by the Wyvern DAO.\n \n*/\n\npragma solidity 0.4.18;\n\nimport \"zeppelin-solidity/contracts/token/ERC20.sol\";\nimport \"zeppelin-solidity/contracts/math/SafeMath.sol\";\n\nimport \"../registry/ProxyRegistry.sol\";\nimport \"../common/ArrayUtils.sol\";\nimport \"../common/ReentrancyGuarded.sol\";\nimport \"./SaleKindInterface.sol\";\n\n/**\n * @title ExchangeCore\n * @author Project Wyvern Developers\n */\ncontract ExchangeCore is ReentrancyGuarded {\n\n    /* The token used to pay exchange fees. */\n    ERC20 public exchangeToken;\n\n    /* User registry. */\n    ProxyRegistry public registry;\n\n    /* Cancelled / finalized orders, by hash. */\n    mapping(bytes32 => bool) public cancelledOrFinalized;\n\n    /* Orders verified by on-chain approval (alternative to ECDSA signatures so that smart contracts can place orders directly). */\n    mapping(bytes32 => bool) public approvedOrders;\n\n    /* An ECDSA signature. */ \n    struct Sig {\n        /* v parameter */\n        uint8 v;\n        /* r parameter */\n        bytes32 r;\n        /* s parameter */\n        bytes32 s;\n    }\n\n    /* An order on the exchange. */\n    struct Order {\n        /* Exchange address, intended as a versioning mechanism. */\n        address exchange;\n        /* Order maker address. */\n        address maker;\n        /* Order taker address, if specified. */\n        address taker;\n        /* Maker fee of the order (in Exchange fee tokens), unused for taker order. */\n        uint makerFee;\n        /* Taker fee of the order (in Exchange fee tokens), or maximum taker fee for a taker order. */\n        uint takerFee;\n        /* Order fee recipient or zero address for taker order. */\n        address feeRecipient;\n        /* Side (buy/sell). */\n        SaleKindInterface.Side side;\n        /* Kind of sale. */\n        SaleKindInterface.SaleKind saleKind;\n        /* Target. */\n        address target;\n        /* HowToCall. */\n        AuthenticatedProxy.HowToCall howToCall;\n        /* Calldata. */\n        bytes calldata;\n        /* Calldata replacement pattern. */\n        bytes replacementPattern;\n        /* Static call target, zero-address for no static call. */\n        address staticTarget;\n        /* Static call extra data. */\n        bytes staticExtradata;\n        /* Token used to pay for the order. */\n        ERC20 paymentToken;\n        /* Base price of the order (in paymentTokens). */\n        uint basePrice;\n        /* Auction extra parameter - minimum bid increment for English auctions, starting/ending price difference. */\n        uint extra;\n        /* Listing timestamp. */\n        uint listingTime;\n        /* Expiration timestamp - 0 for no expiry. */\n        uint expirationTime;\n        /* Order salt, used to prevent duplicate hashes. */\n        uint salt;\n    }\n    \n    event OrderApprovedPartOne    (bytes32 indexed hash, address exchange, address indexed maker, address taker, uint makerFee, uint takerFee, address indexed feeRecipient, SaleKindInterface.Side side, SaleKindInterface.SaleKind saleKind, address target, AuthenticatedProxy.HowToCall howToCall, bytes calldata);\n    event OrderApprovedPartTwo    (bytes32 indexed hash, bytes replacementPattern, address staticTarget, bytes staticExtradata, ERC20 paymentToken, uint basePrice, uint extra, uint listingTime, uint expirationTime, uint salt, bool orderbookInclusionDesired);\n    event OrderCancelled          (bytes32 indexed hash);\n    event OrdersMatched           (bytes32 indexed buyHash, bytes32 indexed sellHash);\n\n    /**\n     * @dev Charge an address fees in protocol tokens\n     * @param from Address to charge fees\n     * @param to Address to receive fees\n     * @param amount Amount of protocol tokens to charge\n     */\n    function chargeFee(address from, address to, uint amount)\n        internal\n    {\n        if (amount > 0) {\n            require(exchangeToken.transferFrom(from, to, amount));\n        }\n    }\n\n    /**\n     * @dev Execute a STATICCALL (introduced with Ethereum Metropolis, non-state-modifying external call)\n     * @param target Contract to call\n     * @param calldata Calldata (appended to extradata)\n     * @param extradata Base data for STATICCALL (probably function selector and argument encoding)\n     * @return The result of the call (success or failure)\n     */\n    function staticCall(address target, bytes memory calldata, bytes memory extradata)\n        public\n        view\n        returns (bool result)\n    {\n        bytes memory combined = new bytes(SafeMath.add(calldata.length, extradata.length));\n        for (uint i = 0; i < extradata.length; i++) {\n            combined[i] = extradata[i];\n        }\n        for (uint j = 0; j < calldata.length; j++) {\n            combined[j + extradata.length] = calldata[j];\n        }\n        assembly {\n            result := staticcall(gas, target, add(combined, 0x20), mload(combined), mload(0x40), 0)\n        }\n        return result;\n    }\n\n    /**\n     * @dev Keccak256 order hash, part one\n     * @param order Order to hash\n     * @return Part one of the order hash \n     */\n    function hashOrderPartOne(Order memory order)\n        internal\n        pure\n        returns (bytes32)\n    {\n        return keccak256(order.exchange, order.maker, order.taker, order.makerFee, order.takerFee, order.feeRecipient, order.side, order.saleKind, order.target, order.howToCall, order.calldata, order.replacementPattern);\n    }\n\n    /**\n     * @dev Keccak256 order hash, part two\n     * @param order Order to hash\n     * @return Part two of the order hash\n     */\n    function hashOrderPartTwo(Order memory order)\n        internal\n        pure\n        returns (bytes32)\n    {\n        return keccak256(order.staticTarget, order.staticExtradata, order.paymentToken, order.basePrice, order.extra, order.listingTime, order.expirationTime, order.salt);\n    }\n\n    /**\n     * @dev Hash an order, returning the hash that a client must sign, including the standard message prefix\n     * @param order Order to hash\n     * @return Hash of message prefix, order hash part one, and order hash part two concatenated\n     */\n    function hashToSign(Order memory order)\n        internal\n        pure\n        returns (bytes32)\n    {\n        bytes memory prefix = \"\\x19Ethereum Signed Message:\\n32\";\n        bytes32 hash = keccak256(prefix, hashOrderPartOne(order), hashOrderPartTwo(order));\n        return hash;\n    }\n\n    /**\n     * @dev Assert an order is valid and return its hash\n     * @param order Order to validate\n     * @param sig ECDSA signature\n     */\n    function requireValidOrder(Order memory order, Sig memory sig)\n        internal\n        view\n        returns (bytes32)\n    {\n        bytes32 hash = hashToSign(order);\n        require(validateOrder(hash, order, sig));\n        return hash;\n    }\n\n    /**\n     * @dev Validate a provided order, hash, and signature\n     * @param hash Order hash (already calculated, passed to avoid recalculation)\n     * @param order Order to validate\n     * @param sig ECDSA signature\n     */\n    function validateOrder(bytes32 hash, Order memory order, Sig memory sig) \n        internal\n        view\n        returns (bool)\n    {\n        /* Not done in an if-conditional to prevent unnecessary ecrecover evaluation, which seems to happen even though it should short-circuit. */\n\n        /* Order must be targeted at this protocol version (this Exchange contract). */\n        if (order.exchange != address(this)) {\n            return false;\n        }\n\n        /* Order must have not been canceled or already filled. */\n        if (cancelledOrFinalized[hash]) {\n            return false;\n        }\n        \n        /* Order must possess valid sale kind parameter combination. */\n        if (!SaleKindInterface.validateParameters(order.saleKind, order.expirationTime)) {\n            return false;\n        }\n\n        /* Order authentication. Order must be either:\n           (a) sent by maker */\n        if (msg.sender == order.maker) {\n            return true;\n        }\n  \n        /* (b) previously approved */\n        if (approvedOrders[hash]) {\n            return true;\n        }\n\n        /* or (c) ECDSA-signed by maker. */\n        if (ecrecover(hash, sig.v, sig.r, sig.s) == order.maker) {\n            return true;\n        }\n\n        return false;\n    }\n\n    /**\n     * @dev Approve an order and optionally mark it for orderbook inclusion. Must be called by the maker of the order\n     * @param order Order to approve\n     * @param orderbookInclusionDesired Whether orderbook providers should include the order in their orderbooks\n     */\n    function approveOrder(Order memory order, bool orderbookInclusionDesired)\n        internal\n    {\n        /* CHECKS */\n\n        /* Assert sender is authorized to approve order. */\n        require(msg.sender == order.maker);\n\n        /* Calculate order hash. */\n        bytes32 hash = hashToSign(order);\n\n        /* Assert order has not already been approved. */\n        require(!approvedOrders[hash]);\n\n        /* EFFECTS */\n    \n        /* Mark order as approved. */\n        approvedOrders[hash] = true;\n  \n        /* Log approval event. Must be split in two due to Solidity stack size limitations. */\n        {\n            OrderApprovedPartOne(hash, order.exchange, order.maker, order.taker, order.makerFee, order.takerFee, order.feeRecipient, order.side, order.saleKind, order.target, order.howToCall, order.calldata);\n        }\n        {   \n            OrderApprovedPartTwo(hash, order.replacementPattern, order.staticTarget, order.staticExtradata, order.paymentToken, order.basePrice, order.extra, order.listingTime, order.expirationTime, order.salt, orderbookInclusionDesired);\n        }\n    }\n\n    /**\n     * @dev Cancel an order, preventing it from being matched. Must be called by the maker of the order\n     * @param order Order to cancel\n     * @param sig ECDSA signature\n     */\n    function cancelOrder(Order memory order, Sig memory sig) \n        internal\n    {\n        /* CHECKS */\n\n        /* Calculate order hash. */\n        bytes32 hash = requireValidOrder(order, sig);\n\n        /* Assert sender is authorized to cancel order. */\n        require(msg.sender == order.maker);\n  \n        /* EFFECTS */\n      \n        /* Mark order as cancelled, preventing it from being matched. */\n        cancelledOrFinalized[hash] = true;\n\n        /* Log cancel event. */\n        OrderCancelled(hash);\n    }\n\n    /**\n     * @dev Calculate the current price of an order (convenience function)\n     * @param order Order to calculate the price of\n     * @return The current price of the order\n     */\n    function calculateCurrentPrice (Order memory order)\n        internal  \n        view\n        returns (uint)\n    {\n        return SaleKindInterface.calculateFinalPrice(order.side, order.saleKind, order.basePrice, order.extra, order.listingTime, order.expirationTime);\n    }\n\n    /**\n     * @dev Calculate the price two orders would match at, if in fact they would match (otherwise fail)\n     * @param buy Buy-side order\n     * @param sell Sell-side order\n     * @return Match price\n     */\n    function calculateMatchPrice(Order memory buy, Order memory sell)\n        view\n        internal\n        returns (uint)\n    {\n        /* Calculate sell price. */\n        uint sellPrice = SaleKindInterface.calculateFinalPrice(sell.side, sell.saleKind, sell.basePrice, sell.extra, sell.listingTime, sell.expirationTime);\n\n        /* Calculate buy price. */\n        uint buyPrice = SaleKindInterface.calculateFinalPrice(buy.side, buy.saleKind, buy.basePrice, buy.extra, buy.listingTime, buy.expirationTime);\n\n        /* Require price cross. */\n        require(buyPrice >= sellPrice);\n        \n        /* Maker/taker priority. */\n        return sell.feeRecipient != address(0) ? sellPrice : buyPrice;\n    }\n\n    /**\n     * @dev Execute all ERC20 token transfers associated with an order match (fees and buyer => seller transfer)\n     * @param buy Buy-side order\n     * @param sell Sell-side order\n     */\n    function executeFundsTransfer(Order memory buy, Order memory sell)\n        internal\n    {\n        /* Calculate match price. */\n        uint price = calculateMatchPrice(buy, sell);\n\n        /* Determine maker/taker and charge fees accordingly. */\n        if (sell.feeRecipient != address(0)) {\n            /* Sell-side order is maker. */\n      \n            /* Assert taker fee is less than or equal to maximum fee specified by buyer. */\n            require(sell.takerFee <= buy.takerFee);\n            \n            /* Charge maker fee to seller. */\n            chargeFee(sell.maker, sell.feeRecipient, sell.makerFee);\n\n            /* Charge taker fee to buyer. */\n            chargeFee(buy.maker, sell.feeRecipient, sell.takerFee);\n        } else {\n            /* Buy-side order is maker. */\n\n            /* Assert taker fee is less than or equal to maximum fee specified by seller. */\n            require(buy.takerFee <= sell.takerFee);\n\n            /* Charge maker fee to buyer. */\n            chargeFee(buy.maker, buy.feeRecipient, buy.makerFee);\n      \n            /* Charge taker fee to seller. */\n            chargeFee(sell.maker, buy.feeRecipient, buy.takerFee);\n        }\n\n        if (price > 0) {\n            /* Debit buyer and credit seller. */\n            require(sell.paymentToken.transferFrom(buy.maker, sell.maker, price));\n        }\n    }\n\n    /**\n     * @dev Return whether or not two orders can be matched with each other by basic parameters (does not check order signatures / calldata or perform static calls)\n     * @param buy Buy-side order\n     * @param sell Sell-side order\n     * @return Whether or not the two orders can be matched\n     */\n    function ordersCanMatch(Order memory buy, Order memory sell)\n        internal\n        view\n        returns (bool)\n    {\n        return (\n            /* Must be opposite-side. */\n            (buy.side == SaleKindInterface.Side.Buy && sell.side == SaleKindInterface.Side.Sell) &&     \n            /* Must use same payment token. */\n            (buy.paymentToken == sell.paymentToken) &&\n            /* Must match maker/taker addresses. */\n            (sell.taker == address(0) || sell.taker == buy.maker) &&\n            (buy.taker == address(0) || buy.taker == sell.maker) &&\n            /* One must be maker and the other must be taker (no bool XOR in Solidity). */\n            ((sell.feeRecipient == address(0) && buy.feeRecipient != address(0)) || (sell.feeRecipient != address(0) && buy.feeRecipient == address(0))) &&\n            /* Must match target. */\n            (buy.target == sell.target) &&\n            /* Must match howToCall. */\n            (buy.howToCall == sell.howToCall) &&\n            /* Buy-side order must be settleable. */\n            SaleKindInterface.canSettleOrder(buy.listingTime, buy.expirationTime) &&\n            /* Sell-side order must be settleable. */\n            SaleKindInterface.canSettleOrder(sell.listingTime, sell.expirationTime)\n        );\n    }\n\n    /**\n     * @dev Match two orders, ensuring validity of the match, and execute all associated state transitions. Protected against reentrancy by a contract-global lock.\n     * @param buy Buy-side order\n     * @param buySig Buy-side order signature\n     * @param sell Sell-side order\n     * @param sellSig Sell-side order signature\n     */\n    function atomicMatch(Order memory buy, Sig memory buySig, Order memory sell, Sig memory sellSig)\n        internal\n        reentrancyGuard\n    {\n        /* CHECKS */\n      \n        /* Ensure buy order validity and calculate hash. */\n        bytes32 buyHash = requireValidOrder(buy, buySig);\n\n        /* Ensure sell order validity and calculate hash. */\n        bytes32 sellHash = requireValidOrder(sell, sellSig); \n        \n        /* Must be matchable. */\n        require(ordersCanMatch(buy, sell));\n      \n        /* Must match calldata after replacement, if specified. */ \n        if (buy.replacementPattern.length > 0) {\n          ArrayUtils.guardedArrayReplace(buy.calldata, sell.calldata, buy.replacementPattern);\n        }\n        if (sell.replacementPattern.length > 0) {\n          ArrayUtils.guardedArrayReplace(sell.calldata, buy.calldata, sell.replacementPattern);\n        }\n        require(ArrayUtils.arrayEq(buy.calldata, sell.calldata));\n\n        /* Retrieve proxy (the registry contract is trusted). */\n        AuthenticatedProxy proxy = registry.proxies(sell.maker);\n\n        /* Proxy must exist. */\n        require(proxy != address(0));\n\n        /* EFFECTS */\n\n        /* Mark orders as finalized. */\n        cancelledOrFinalized[buyHash] = true;\n        cancelledOrFinalized[sellHash] = true;\n\n        /* INTERACTIONS */\n\n        /* Execute funds transfer and pay fees. */\n        executeFundsTransfer(buy, sell);\n\n        /* Execute specified call through proxy. */\n        require(proxy.proxy(sell.target, sell.howToCall, sell.calldata));\n\n        /* Static calls are intentionally done after the effectful call so they can check resulting state. */\n\n        /* Handle buy-side static call if specified. */\n        if (buy.staticTarget != address(0)) {\n            require(staticCall(buy.staticTarget, sell.calldata, buy.staticExtradata));\n        }\n\n        /* Handle sell-side static call if specified. */\n        if (sell.staticTarget != address(0)) {\n            require(staticCall(sell.staticTarget, sell.calldata, sell.staticExtradata));\n        }\n\n        /* Log match event. */\n        OrdersMatched(buyHash, sellHash);\n    }\n\n}\n",
  "sourcePath": "/home/cwgoes/working/crypto/wyvern/wyvern-ethereum/contracts/exchange/ExchangeCore.sol",
  "compiler": {
    "name": "solc",
    "version": "0.4.18+commit.9cf6e910.Emscripten.clang"
  },
  "schemaVersion": "1.0.1",
  "updatedAt": "2018-02-02T08:02:02.240Z"
}