{
  "contractName": "Exchange",
  "abi": [
    {
      "constant": true,
      "inputs": [],
      "name": "exchangeTokenAddress",
      "outputs": [
        {
          "name": "",
          "type": "address"
        }
      ],
      "payable": false,
      "stateMutability": "view",
      "type": "function"
    },
    {
      "constant": false,
      "inputs": [
        {
          "name": "user",
          "type": "address"
        },
        {
          "name": "token",
          "type": "address"
        },
        {
          "name": "amount",
          "type": "uint256"
        },
        {
          "name": "dest",
          "type": "address"
        }
      ],
      "name": "withdraw",
      "outputs": [],
      "payable": false,
      "stateMutability": "nonpayable",
      "type": "function"
    },
    {
      "constant": true,
      "inputs": [
        {
          "name": "addrs",
          "type": "address[6]"
        },
        {
          "name": "uints",
          "type": "uint256[7]"
        },
        {
          "name": "side",
          "type": "uint8"
        },
        {
          "name": "saleKind",
          "type": "uint8"
        },
        {
          "name": "howToCall",
          "type": "uint8"
        },
        {
          "name": "calldata",
          "type": "bytes"
        },
        {
          "name": "replacementPattern",
          "type": "bytes"
        },
        {
          "name": "metadataHash",
          "type": "bytes"
        },
        {
          "name": "v",
          "type": "uint8"
        },
        {
          "name": "r",
          "type": "bytes32"
        },
        {
          "name": "s",
          "type": "bytes32"
        }
      ],
      "name": "validateOrder_",
      "outputs": [
        {
          "name": "",
          "type": "bool"
        }
      ],
      "payable": false,
      "stateMutability": "view",
      "type": "function"
    },
    {
      "constant": false,
      "inputs": [
        {
          "name": "addrs",
          "type": "address[12]"
        },
        {
          "name": "uints",
          "type": "uint256[14]"
        },
        {
          "name": "sidesKindsHowToCalls",
          "type": "uint8[6]"
        },
        {
          "name": "calldataBuy",
          "type": "bytes"
        },
        {
          "name": "calldataSell",
          "type": "bytes"
        },
        {
          "name": "replacementPatternBuy",
          "type": "bytes"
        },
        {
          "name": "replacementPatternSell",
          "type": "bytes"
        },
        {
          "name": "metadataHashBuy",
          "type": "bytes"
        },
        {
          "name": "metadataHashSell",
          "type": "bytes"
        },
        {
          "name": "vs",
          "type": "uint8[2]"
        },
        {
          "name": "rss",
          "type": "bytes32[4]"
        }
      ],
      "name": "atomicMatch_",
      "outputs": [],
      "payable": false,
      "stateMutability": "nonpayable",
      "type": "function"
    },
    {
      "constant": true,
      "inputs": [
        {
          "name": "user",
          "type": "address"
        },
        {
          "name": "token",
          "type": "address"
        }
      ],
      "name": "lockedFor",
      "outputs": [
        {
          "name": "",
          "type": "uint256"
        }
      ],
      "payable": false,
      "stateMutability": "view",
      "type": "function"
    },
    {
      "constant": true,
      "inputs": [
        {
          "name": "",
          "type": "bytes32"
        }
      ],
      "name": "topBids",
      "outputs": [
        {
          "name": "bidder",
          "type": "address"
        },
        {
          "name": "amount",
          "type": "uint256"
        }
      ],
      "payable": false,
      "stateMutability": "view",
      "type": "function"
    },
    {
      "constant": false,
      "inputs": [
        {
          "name": "addrs",
          "type": "address[6]"
        },
        {
          "name": "uints",
          "type": "uint256[7]"
        },
        {
          "name": "side",
          "type": "uint8"
        },
        {
          "name": "saleKind",
          "type": "uint8"
        },
        {
          "name": "howToCall",
          "type": "uint8"
        },
        {
          "name": "calldata",
          "type": "bytes"
        },
        {
          "name": "replacementPattern",
          "type": "bytes"
        },
        {
          "name": "metadataHash",
          "type": "bytes"
        },
        {
          "name": "v",
          "type": "uint8"
        },
        {
          "name": "r",
          "type": "bytes32"
        },
        {
          "name": "s",
          "type": "bytes32"
        },
        {
          "name": "amount",
          "type": "uint256"
        }
      ],
      "name": "bid_",
      "outputs": [],
      "payable": false,
      "stateMutability": "nonpayable",
      "type": "function"
    },
    {
      "constant": true,
      "inputs": [],
      "name": "registry",
      "outputs": [
        {
          "name": "",
          "type": "address"
        }
      ],
      "payable": false,
      "stateMutability": "view",
      "type": "function"
    },
    {
      "constant": false,
      "inputs": [
        {
          "name": "user",
          "type": "address"
        },
        {
          "name": "token",
          "type": "address"
        },
        {
          "name": "amount",
          "type": "uint256"
        }
      ],
      "name": "deposit",
      "outputs": [],
      "payable": false,
      "stateMutability": "nonpayable",
      "type": "function"
    },
    {
      "constant": true,
      "inputs": [
        {
          "name": "",
          "type": "address"
        },
        {
          "name": "",
          "type": "address"
        }
      ],
      "name": "balances",
      "outputs": [
        {
          "name": "",
          "type": "uint256"
        }
      ],
      "payable": false,
      "stateMutability": "view",
      "type": "function"
    },
    {
      "constant": false,
      "inputs": [
        {
          "name": "addrs",
          "type": "address[6]"
        },
        {
          "name": "uints",
          "type": "uint256[7]"
        },
        {
          "name": "side",
          "type": "uint8"
        },
        {
          "name": "saleKind",
          "type": "uint8"
        },
        {
          "name": "howToCall",
          "type": "uint8"
        },
        {
          "name": "calldata",
          "type": "bytes"
        },
        {
          "name": "replacementPattern",
          "type": "bytes"
        },
        {
          "name": "metadataHash",
          "type": "bytes"
        },
        {
          "name": "orderbookInclusionDesired",
          "type": "bool"
        }
      ],
      "name": "approveOrder_",
      "outputs": [],
      "payable": false,
      "stateMutability": "nonpayable",
      "type": "function"
    },
    {
      "constant": true,
      "inputs": [
        {
          "name": "",
          "type": "address"
        },
        {
          "name": "",
          "type": "address"
        }
      ],
      "name": "locked",
      "outputs": [
        {
          "name": "",
          "type": "uint256"
        }
      ],
      "payable": false,
      "stateMutability": "view",
      "type": "function"
    },
    {
      "constant": true,
      "inputs": [
        {
          "name": "user",
          "type": "address"
        },
        {
          "name": "token",
          "type": "address"
        }
      ],
      "name": "availableFor",
      "outputs": [
        {
          "name": "",
          "type": "uint256"
        }
      ],
      "payable": false,
      "stateMutability": "view",
      "type": "function"
    },
    {
      "constant": true,
      "inputs": [
        {
          "name": "addrs",
          "type": "address[6]"
        },
        {
          "name": "uints",
          "type": "uint256[7]"
        },
        {
          "name": "side",
          "type": "uint8"
        },
        {
          "name": "saleKind",
          "type": "uint8"
        },
        {
          "name": "howToCall",
          "type": "uint8"
        },
        {
          "name": "calldata",
          "type": "bytes"
        },
        {
          "name": "replacementPattern",
          "type": "bytes"
        },
        {
          "name": "metadataHash",
          "type": "bytes"
        }
      ],
      "name": "hashOrder_",
      "outputs": [
        {
          "name": "",
          "type": "bytes32"
        }
      ],
      "payable": false,
      "stateMutability": "pure",
      "type": "function"
    },
    {
      "constant": false,
      "inputs": [
        {
          "name": "addrs",
          "type": "address[6]"
        },
        {
          "name": "uints",
          "type": "uint256[7]"
        },
        {
          "name": "side",
          "type": "uint8"
        },
        {
          "name": "saleKind",
          "type": "uint8"
        },
        {
          "name": "howToCall",
          "type": "uint8"
        },
        {
          "name": "calldata",
          "type": "bytes"
        },
        {
          "name": "replacementPattern",
          "type": "bytes"
        },
        {
          "name": "metadataHash",
          "type": "bytes"
        },
        {
          "name": "v",
          "type": "uint8"
        },
        {
          "name": "r",
          "type": "bytes32"
        },
        {
          "name": "s",
          "type": "bytes32"
        }
      ],
      "name": "cancelOrder_",
      "outputs": [],
      "payable": false,
      "stateMutability": "nonpayable",
      "type": "function"
    },
    {
      "constant": true,
      "inputs": [
        {
          "name": "user",
          "type": "address"
        },
        {
          "name": "token",
          "type": "address"
        }
      ],
      "name": "balanceFor",
      "outputs": [
        {
          "name": "",
          "type": "uint256"
        }
      ],
      "payable": false,
      "stateMutability": "view",
      "type": "function"
    },
    {
      "anonymous": false,
      "inputs": [
        {
          "indexed": false,
          "name": "hash",
          "type": "bytes32"
        },
        {
          "indexed": true,
          "name": "approver",
          "type": "address"
        },
        {
          "components": [
            {
              "name": "exchange",
              "type": "address"
            },
            {
              "name": "maker",
              "type": "address"
            },
            {
              "name": "taker",
              "type": "address"
            },
            {
              "name": "makerFee",
              "type": "uint256"
            },
            {
              "name": "takerFee",
              "type": "uint256"
            },
            {
              "name": "feeRecipient",
              "type": "address"
            },
            {
              "name": "side",
              "type": "uint8"
            },
            {
              "name": "saleKind",
              "type": "uint8"
            },
            {
              "name": "target",
              "type": "address"
            },
            {
              "name": "howToCall",
              "type": "uint8"
            },
            {
              "name": "calldata",
              "type": "bytes"
            },
            {
              "name": "replacementPattern",
              "type": "bytes"
            },
            {
              "name": "metadataHash",
              "type": "bytes"
            },
            {
              "name": "paymentToken",
              "type": "address"
            },
            {
              "name": "basePrice",
              "type": "uint256"
            },
            {
              "name": "extra",
              "type": "uint256"
            },
            {
              "name": "listingTime",
              "type": "uint256"
            },
            {
              "name": "expirationTime",
              "type": "uint256"
            },
            {
              "name": "salt",
              "type": "uint256"
            }
          ],
          "indexed": false,
          "name": "order",
          "type": "tuple"
        },
        {
          "indexed": false,
          "name": "orderbookInclusionDesired",
          "type": "bool"
        }
      ],
      "name": "OrderApproved",
      "type": "event"
    },
    {
      "anonymous": false,
      "inputs": [
        {
          "indexed": false,
          "name": "hash",
          "type": "bytes32"
        }
      ],
      "name": "OrderCancelled",
      "type": "event"
    },
    {
      "anonymous": false,
      "inputs": [
        {
          "indexed": false,
          "name": "hash",
          "type": "bytes32"
        },
        {
          "indexed": true,
          "name": "bidder",
          "type": "address"
        },
        {
          "indexed": false,
          "name": "amount",
          "type": "uint256"
        },
        {
          "indexed": false,
          "name": "timestamp",
          "type": "uint256"
        }
      ],
      "name": "OrderBidOn",
      "type": "event"
    },
    {
      "anonymous": false,
      "inputs": [
        {
          "components": [
            {
              "name": "exchange",
              "type": "address"
            },
            {
              "name": "maker",
              "type": "address"
            },
            {
              "name": "taker",
              "type": "address"
            },
            {
              "name": "makerFee",
              "type": "uint256"
            },
            {
              "name": "takerFee",
              "type": "uint256"
            },
            {
              "name": "feeRecipient",
              "type": "address"
            },
            {
              "name": "side",
              "type": "uint8"
            },
            {
              "name": "saleKind",
              "type": "uint8"
            },
            {
              "name": "target",
              "type": "address"
            },
            {
              "name": "howToCall",
              "type": "uint8"
            },
            {
              "name": "calldata",
              "type": "bytes"
            },
            {
              "name": "replacementPattern",
              "type": "bytes"
            },
            {
              "name": "metadataHash",
              "type": "bytes"
            },
            {
              "name": "paymentToken",
              "type": "address"
            },
            {
              "name": "basePrice",
              "type": "uint256"
            },
            {
              "name": "extra",
              "type": "uint256"
            },
            {
              "name": "listingTime",
              "type": "uint256"
            },
            {
              "name": "expirationTime",
              "type": "uint256"
            },
            {
              "name": "salt",
              "type": "uint256"
            }
          ],
          "indexed": false,
          "name": "buy",
          "type": "tuple"
        },
        {
          "components": [
            {
              "name": "exchange",
              "type": "address"
            },
            {
              "name": "maker",
              "type": "address"
            },
            {
              "name": "taker",
              "type": "address"
            },
            {
              "name": "makerFee",
              "type": "uint256"
            },
            {
              "name": "takerFee",
              "type": "uint256"
            },
            {
              "name": "feeRecipient",
              "type": "address"
            },
            {
              "name": "side",
              "type": "uint8"
            },
            {
              "name": "saleKind",
              "type": "uint8"
            },
            {
              "name": "target",
              "type": "address"
            },
            {
              "name": "howToCall",
              "type": "uint8"
            },
            {
              "name": "calldata",
              "type": "bytes"
            },
            {
              "name": "replacementPattern",
              "type": "bytes"
            },
            {
              "name": "metadataHash",
              "type": "bytes"
            },
            {
              "name": "paymentToken",
              "type": "address"
            },
            {
              "name": "basePrice",
              "type": "uint256"
            },
            {
              "name": "extra",
              "type": "uint256"
            },
            {
              "name": "listingTime",
              "type": "uint256"
            },
            {
              "name": "expirationTime",
              "type": "uint256"
            },
            {
              "name": "salt",
              "type": "uint256"
            }
          ],
          "indexed": false,
          "name": "sell",
          "type": "tuple"
        }
      ],
      "name": "OrdersMatched",
      "type": "event"
    },
    {
      "anonymous": false,
      "inputs": [
        {
          "indexed": true,
          "name": "user",
          "type": "address"
        },
        {
          "indexed": true,
          "name": "token",
          "type": "address"
        },
        {
          "indexed": false,
          "name": "amount",
          "type": "uint256"
        }
      ],
      "name": "Credited",
      "type": "event"
    },
    {
      "anonymous": false,
      "inputs": [
        {
          "indexed": true,
          "name": "user",
          "type": "address"
        },
        {
          "indexed": true,
          "name": "token",
          "type": "address"
        },
        {
          "indexed": false,
          "name": "amount",
          "type": "uint256"
        }
      ],
      "name": "Debited",
      "type": "event"
    },
    {
      "anonymous": false,
      "inputs": [
        {
          "indexed": true,
          "name": "user",
          "type": "address"
        },
        {
          "indexed": true,
          "name": "token",
          "type": "address"
        },
        {
          "indexed": false,
          "name": "amount",
          "type": "uint256"
        }
      ],
      "name": "Locked",
      "type": "event"
    },
    {
      "anonymous": false,
      "inputs": [
        {
          "indexed": true,
          "name": "user",
          "type": "address"
        },
        {
          "indexed": true,
          "name": "token",
          "type": "address"
        },
        {
          "indexed": false,
          "name": "amount",
          "type": "uint256"
        }
      ],
      "name": "Unlocked",
      "type": "event"
    }
  ],
  "bytecode": "0x60606040526002805460ff19169055341561001957600080fd5b612ff9806100286000396000f3006060604052600436106100cc5763ffffffff60e060020a6000350416630e5d2e2181146100d15780630e917f7614610100578063386cc797146101315780633c88e9a8146102945780634e10c95d146104fe578063532aa1c81461053557806370dc70631461056d5780637b103999146106c15780638340f549146106d4578063c23f001f146106fc578063d404a96c14610721578063db20266f14610864578063db2ec6bd14610889578063e22b8478146108ae578063e60a95d7146109ed578063f771e78b14610b3c575b600080fd5b34156100dc57600080fd5b6100e4610b61565b604051600160a060020a03909116815260200160405180910390f35b341561010b57600080fd5b61012f600160a060020a036004358116906024358116906044359060643516610b75565b005b341561013c57600080fd5b610280600460c481600660c06040519081016040529190828260c080828437820191505050505091908060e001906007806020026040519081016040529190828260e08082843750939560ff8635811696602080820135831697506040808301359093169650929450608081019350606001358401808301929035918291601f83018190048102019051908101604052818152929190602084018383808284378201915050505050509190803590602001908201803590602001908080601f01602080910402602001604051908101604052818152929190602084018383808284378201915050505050509190803590602001908201803590602001908080601f0160208091040260200160405190810160405281815292919060208401838380828437509496505060ff8535169460208101359450604001359250610c76915050565b604051901515815260200160405180910390f35b341561029f57600080fd5b61012f600461018481600c610180604051908101604052919082826101808082843782019150505050509190806101c00190600e80602002604051908101604052919082826101c080828437820191505050505091908060c001906006806020026040519081016040529190828260c0808284375093959460208082019550903586018082019450359250829150601f8201819004810201604051908101604052818152929190602084018383808284378201915050505050509190803590602001908201803590602001908080601f01602080910402602001604051908101604052818152929190602084018383808284378201915050505050509190803590602001908201803590602001908080601f01602080910402602001604051908101604052818152929190602084018383808284378201915050505050509190803590602001908201803590602001908080601f01602080910402602001604051908101604052818152929190602084018383808284378201915050505050509190803590602001908201803590602001908080601f01602080910402602001604051908101604052818152929190602084018383808284378201915050505050509190803590602001908201803590602001908080601f01602080910402602001604051908101604052818152929190602084018383808284378201915050505050509190806040019060028060200260405190810160405280929190826002602002808284378201915050505050919080608001906004806020026040519081016040529190828260808082843750939550610dce945050505050565b341561050957600080fd5b610523600160a060020a03600435811690602435166110cc565b60405190815260200160405180910390f35b341561054057600080fd5b61054b6004356110f7565b604051600160a060020a03909216825260208201526040908101905180910390f35b341561057857600080fd5b61012f600460c481600660c06040519081016040529190828260c080828437820191505050505091908060e001906007806020026040519081016040529190828260e08082843750939560ff8635811696602080820135831697506040808301359093169650929450608081019350606001358401808301929035918291601f83018190048102019051908101604052818152929190602084018383808284378201915050505050509190803590602001908201803590602001908080601f01602080910402602001604051908101604052818152929190602084018383808284378201915050505050509190803590602001908201803590602001908080601f0160208091040260200160405190810160405281815292919060208401838380828437509496505050833560ff1693602081013593506040810135925060600135905061111c565b34156106cc57600080fd5b6100e461125c565b34156106df57600080fd5b61012f600160a060020a036004358116906024351660443561126b565b341561070757600080fd5b610523600160a060020a036004358116906024351661132b565b341561072c57600080fd5b61012f600460c481600660c06040519081016040529190828260c080828437820191505050505091908060e001906007806020026040519081016040529190828260e08082843750939560ff8635811696602080820135831697506040808301359093169650929450608081019350606001358401808301929035918291601f83018190048102019051908101604052818152929190602084018383808284378201915050505050509190803590602001908201803590602001908080601f01602080910402602001604051908101604052818152929190602084018383808284378201915050505050509190803590602001908201803590602001908080601f0160208091040260200160405190810160405281815292919060208401838380828437509496505050509135151591506113459050565b341561086f57600080fd5b610523600160a060020a036004358116906024351661146f565b341561089457600080fd5b610523600160a060020a036004358116906024351661148c565b34156108b957600080fd5b610523600460c481600660c06040519081016040529190828260c080828437820191505050505091908060e001906007806020026040519081016040529190828260e08082843750939560ff8635811696602080820135831697506040808301359093169650929450608081019350606001358401808301929035918291601f83018190048102019051908101604052818152929190602084018383808284378201915050505050509190803590602001908201803590602001908080601f01602080910402602001604051908101604052818152929190602084018383808284378201915050505050509190803590602001908201803590602001908080601f0160208091040260200160405190810160405281815292919060208401838380828437509496506114d895505050505050565b34156109f857600080fd5b61012f600460c481600660c06040519081016040529190828260c080828437820191505050505091908060e001906007806020026040519081016040529190828260e08082843750939560ff8635811696602080820135831697506040808301359093169650929450608081019350606001358401808301929035918291601f83018190048102019051908101604052818152929190602084018383808284378201915050505050509190803590602001908201803590602001908080601f01602080910402602001604051908101604052818152929190602084018383808284378201915050505050509190803590602001908201803590602001908080601f0160208091040260200160405190810160405281815292919060208401838380828437509496505060ff85351694602081013594506040013592506115f9915050565b3415610b4757600080fd5b610523600160a060020a036004358116906024351661172a565b6002546101009004600160a060020a031681565b600084600160a060020a031633600160a060020a0316141515610b9757600080fd5b600160a060020a0380861660008181526020818152604080832094891680845294825280832054938352600182528083209483529390529190912054610bdd9190611753565b905080831115610bec57600080fd5b610bf7858585611765565b83600160a060020a031663a9059cbb838560006040516020015260405160e060020a63ffffffff8516028152600160a060020a0390921660048301526024820152604401602060405180830381600087803b1515610c5457600080fd5b6102c65a03f11515610c6557600080fd5b505050604051805150505050505050565b6000610c80612ee1565b610260604051908101604052808e51600160a060020a031681526020018e60016020020151600160a060020a0316815260200160408f0151600160a060020a031681526020018d5181526020018d60016020020151815260200160608f0151600160a060020a031681526020018c6001811115610cf957fe5b81526020018b6002811115610d0a57fe5b815260200160808f0151600160a060020a031681526020018a6003811115610d2e57fe5b8152602081018a9052604081018990526060810188905260800160a08f0151600160a060020a0316815260200160408e0151815260200160608e0151815260200160808e0151815260200160a08e0151815260200160c08e015190529050610dbd610d9882611918565b826060604051908101604090815260ff8a1682526020820189905281018790526119cd565b9d9c50505050505050505050505050565b6110bf610260604051908101604052808d51600160a060020a031681526020018d60016020020151600160a060020a0316815260200160408e0151600160a060020a031681526020018c5181526020018c60016020020151815260200160608e0151600160a060020a031681526020018b5160ff166001811115610e4e57fe5b6001811115610e5957fe5b81526020018b6001602002015160ff166002811115610e7457fe5b6002811115610e7f57fe5b815260200160808e0151600160a060020a0316815260200160408c015160ff166003811115610eaa57fe5b6003811115610eb557fe5b8152602081018b9052604081018990526060810187905260800160a08e0151600160a060020a0316815260200160408d0151815260200160608d0151815260200160808d0151815260200160a08d0151815260200160c08d01519052606060405190810160405280855160ff1681526020018451815260200184600160200201519052610260604051908101604052808f60066020020151600160a060020a031681526020018f60076020020151600160a060020a031681526020018f60086020020151600160a060020a0316815260200160e08f015181526020016101008f015181526020018f60096020020151600160a060020a0316815260200160608e015160ff166001811115610fc557fe5b6001811115610fd057fe5b815260200160808e015160ff166002811115610fe857fe5b6002811115610ff357fe5b81526020018f600a6020020151600160a060020a0316815260200160a08e015160ff16600381111561102157fe5b600381111561102c57fe5b8152602081018c9052604081018a9052606081018890526080018f600b6020020151600160a060020a031681526020016101208f015181526020016101408f015181526020016101608f015181526020016101808f015181526020016101a08f01519052606060405190810160405280602088015160ff1681526020016040870151815260200160608701519052611af6565b5050505050505050505050565b600160a060020a03918216600090815260016020908152604080832093909416825291909152205490565b60046020526000908152604090208054600190910154600160a060020a039091169082565b61124e610260604051908101604052808e51600160a060020a031681526020018e60016020020151600160a060020a0316815260200160408f0151600160a060020a031681526020018d5181526020018d60016020020151815260200160608f0151600160a060020a031681526020018c600181111561119857fe5b81526020018b60028111156111a957fe5b815260200160808f0151600160a060020a031681526020018a60038111156111cd57fe5b8152602081018a9052604081018990526060810188905260800160a08f0151600160a060020a0316815260200160408e0151815260200160608e0151815260200160808e0151815260200160a08e0151815260200160c08e015190526060604051908101604090815260ff8816825260208201879052810185905283611f78565b505050505050505050505050565b600354600160a060020a031681565b82600160a060020a031633600160a060020a031614151561128b57600080fd5b611296838383612112565b81600160a060020a03166323b872dd84308460006040516020015260405160e060020a63ffffffff8616028152600160a060020a0393841660048201529190921660248201526044810191909152606401602060405180830381600087803b151561130057600080fd5b6102c65a03f1151561131157600080fd5b50505060405180519050151561132657600080fd5b505050565b600060208181529281526040808220909352908152205481565b61134d612ee1565b610260604051908101604052808b51600160a060020a031681526020018b60016020020151600160a060020a0316815260200160408c0151600160a060020a031681526020018a5181526020018a60016020020151815260200160608c0151600160a060020a031681526020018960018111156113c657fe5b81526020018860028111156113d757fe5b815260200160808c0151600160a060020a031681526020018760038111156113fb57fe5b815260208101879052604081018690526060810185905260800160a08c0151600160a060020a0316815260200160408b0151815260200160608b0151815260200160808b0151815260200160a08b0151815260200160c08b01519052905061146381836121a6565b50505050505050505050565b600160209081526000928352604080842090915290825290205481565b600160a060020a038083166000818152602081815260408083209486168084529482528083205493835260018252808320948352939052918220546114d19190611753565b9392505050565b60006115ec610260604051908101604052808b51600160a060020a031681526020018b60016020020151600160a060020a0316815260200160408c0151600160a060020a031681526020018a5181526020018a60016020020151815260200160608c0151600160a060020a0316815260200189600181111561155657fe5b815260200188600281111561156757fe5b815260200160808c0151600160a060020a0316815260200187600381111561158b57fe5b815260208101879052604081018690526060810185905260800160a08c0151600160a060020a0316815260200160408b0151815260200160608b0151815260200160808b0151815260200160a08b0151815260200160c08b0151905261226a565b9998505050505050505050565b6110bf610260604051908101604052808d51600160a060020a031681526020018d60016020020151600160a060020a0316815260200160408e0151600160a060020a031681526020018c5181526020018c60016020020151815260200160608e0151600160a060020a031681526020018b600181111561167557fe5b81526020018a600281111561168657fe5b815260200160808e0151600160a060020a031681526020018960038111156116aa57fe5b815260208101899052604081018890526060810187905260800160a08e0151600160a060020a0316815260200160408d0151815260200160608d0151815260200160808d0151815260200160a08d0151815260200160c08d015190526060604051908101604090815260ff8716825260208201869052810184905261229c565b600160a060020a0391821660009081526020818152604080832093909416825291909152205490565b60008282111561175f57fe5b50900390565b600160a060020a0380841660008181526020818152604080832094871680845294825280832054938352600182528083209483529390529182205482916117ab91611753565b915083600160a060020a031685600160a060020a03167f9407bd81f01ad8f5ae4a2487b63d3d1b1947257c2dcdda3ea183dc8e6965cc6e8560405190815260200160405180910390a382821061185257600160a060020a03808616600090815260208181526040808320938816835292905220546118299084611753565b600160a060020a0380871660009081526020818152604080832093891683529290522055611911565b61185c8383611753565b600160a060020a038087166000908152602081815260408083209389168084529390915280822082905592935090916323b872dd91889130918691516020015260405160e060020a63ffffffff8616028152600160a060020a0393841660048201529190921660248201526044810191909152606401602060405180830381600087803b15156118eb57600080fd5b6102c65a03f115156118fc57600080fd5b50505060405180519050151561191157600080fd5b5050505050565b6000611922612f92565b600060408051908101604052601c81527f19457468657265756d205369676e6564204d6573736167653a0a33320000000060208201529150816119648561226a565b6040518083805190602001908083835b602083106119935780518252601f199092019160209182019101611974565b6001836020036101000a03801982511681845116179092525050509190910192835250506020019050604051908190039020949350505050565b6000600160a060020a0330168351600160a060020a0316148015611a00575060008481526005602052604090205460ff16155b8015611acf57508260200151600160a060020a031633600160a060020a03161480611a39575060008481526006602052604090205460ff165b80611acf57508260200151600160a060020a03166001858451856020015186604001516040516000815260200160405260006040516020015260405193845260ff90921660208085019190915260408085019290925260608401929092526080909201915160208103908084039060008661646e5a03f11515611abb57600080fd5b505060206040510351600160a060020a0316145b8015611aee5750611aee8360c001518460e00151856102200151612321565b949350505050565b60025460009081908190819060ff1615611b0f57600080fd5b6002805460ff19166001179055611b268888612370565b9350611b328686612370565b925060008860c001516001811115611b4657fe5b148015611b62575060018660c001516001811115611b6057fe5b145b1515611b6d57600080fd5b856101a00151600160a060020a0316886101a00151600160a060020a031614611b9557600080fd5b8760200151600160a060020a03168660400151600160a060020a03161480611bca575060006040870151600160a060020a0316145b1515611bd557600080fd5b8560200151600160a060020a03168860400151600160a060020a03161480611c0a575060006040890151600160a060020a0316145b1515611c1557600080fd5b60008381526004602052604090209150611c5160e089015187602001518a6102200151604080519081016040526000808252602082015261239f565b1515611c5c57600080fd5b611c978660e00151896020015188610220015185604080519081016040528154600160a060020a03168152600190910154602082015261239f565b1515611ca257600080fd5b856101000151600160a060020a0316886101000151600160a060020a031614611cca57600080fd5b8561012001516003811115611cdb57fe5b8861012001516003811115611cec57fe5b14611cf657600080fd5b611d108861014001518761014001518a61016001516123f0565b50611d2b8661014001518961014001518861016001516123f0565b50611d40886101400151876101400151612625565b1515611d4b57600080fd5b600354600160a060020a031663c4552791602088015160006040516020015260405160e060020a63ffffffff8416028152600160a060020a039091166004820152602401602060405180830381600087803b1515611da857600080fd5b6102c65a03f11515611db957600080fd5b5050506040518051915050600160a060020a0381161515611dd957600080fd5b6000848152600560205260408082208054600160ff1991821681179092558684529190922080549091169091179055611e1288876126b9565b80600160a060020a0316631b0f7ba98761010001518861012001518961014001516000604051602001526040518463ffffffff1660e060020a0281526004018084600160a060020a0316600160a060020a03168152602001836003811115611e7657fe5b60ff16815260200180602001828103825283818151815260200191508051906020019080838360005b83811015611eb7578082015183820152602001611e9f565b50505050905090810190601f168015611ee45780820380516001836020036101000a031916815260200191505b50945050505050602060405180830381600087803b1515611f0457600080fd5b6102c65a03f11515611f1557600080fd5b505050604051805190501515611f2a57600080fd5b7f9ff26dd672a3e8185e401656a709aa9a05045a9043260b8a0a31d2746e396669888760405191825260208201526040908101905180910390a150506002805460ff19169055505050505050565b6002546000908190819060ff1615611f8f57600080fd5b6002805460ff19166001179055611fa68686612370565b6000818152600460205260409020909350915061200060c08701518760e00151886101c00151896101e001518a610220015187604080519081016040528154600160a060020a031681526001909101546020820152612773565b90508084101561200f57600080fd5b604080519081016040908152600160a060020a0333168252602080830187905260008681526004909152208151815473ffffffffffffffffffffffffffffffffffffffff1916600160a060020a03919091161781556020820151600190910155508154600160a060020a03161561209f57815461209f90600160a060020a03166101a088015184600101546127df565b6120af33876101a0015186612891565b33600160a060020a03167f6a75ae33d1548c67bfaaa25fac7ffdd9e545fa843c22b7e883e4ac8edabb37a284864260405192835260208301919091526040808301919091526060909101905180910390a250506002805460ff1916905550505050565b600160a060020a03808416600090815260208181526040808320938616835292905220546121409082612a83565b600160a060020a0380851660008181526020818152604080832094881680845294909152908190209390935590917f4e45da441832cf53bdaa69235704fc0575e68210f459ee1562911024b12967d59084905190815260200160405180910390a3505050565b60008260200151600160a060020a031633600160a060020a03161415156121cc57600080fd5b6121d583611918565b60008181526006602052604090205490915060ff16156121f457600080fd5b60008181526006602052604090819020805460ff19166001179055600160a060020a033316907fc2dbd1050ed906aad01d660eb6004ecefd4b48906b4b93197cd8ea92d869503f9083908690869051928352602083019190915215156040808301919091526060909101905180910390a2505050565b600061227582612a92565b61227e83612c49565b60405191825260208201526040908101905180910390209050919050565b60006122a88383612370565b90508260200151600160a060020a031633600160a060020a03161415156122ce57600080fd5b60008181526005602052604090819020805460ff191660011790557f5152abf959f6564662358c2e52b702259b78bac5ee7842a0f01937e670efcc7d9082905190815260200160405180910390a1505050565b6000600183600281111561233157fe5b1415806123495750600184600181111561234757fe5b145b8015611aee5750600083600281111561235e57fe5b1480611aee5750506000901192915050565b60008061237c84611918565b90506123898185856119cd565b151561239457600080fd5b8091505b5092915050565b600060018560028111156123af57fe5b14156123de578151600160a060020a031684600160a060020a03161480156123d75750824210155b9050611aee565b8215806123d757505050421092915050565b6123f8612f92565b612400612fa4565b60008061010060405190810160409081527f800000000000000000000000000000000000000000000000000000000000000082527f400000000000000000000000000000000000000000000000000000000000000060208301527f2000000000000000000000000000000000000000000000000000000000000000908201527f100000000000000000000000000000000000000000000000000000000000000060608201527f080000000000000000000000000000000000000000000000000000000000000060808201527f040000000000000000000000000000000000000000000000000000000000000060a08201527f020000000000000000000000000000000000000000000000000000000000000060c082015260f860020a60e08201529250855187511461253157600080fd5b6008875181151561253e57fe5b0485511461254b57600080fd5b600091505b865182101561261a5782600883066008811061256857fe5b602002015185600884048151811061257c57fe5b016020015160f860020a900460f860020a0216600160f860020a031916600060f860020a02149050806125cc578582815181106125b557fe5b016020015160f860020a900460f860020a026125eb565b8682815181106125d857fe5b016020015160f860020a900460f860020a025b8783815181106125f757fe5b906020010190600160f860020a031916908160001a905350600190910190612550565b509495945050505050565b600080825184511461263a5760009150612398565b5060005b83518110156126af5782818151811061265357fe5b016020015160f860020a900460f860020a02600160f860020a03191684828151811061267b57fe5b016020015160f860020a900460f860020a02600160f860020a0319161415156126a75760009150612398565b60010161263e565b5060019392505050565b600080600460006126c98561226a565b8152602081019190915260400160002091506126e6848484612d23565b90506126ff84602001518560a001518660600151612df3565b61271683602001518460a001518560600151612df3565b8154600160a060020a03161561274557815461274590600160a060020a03166101a085015184600101546127df565b6127598460200151846101a0015183611765565b61276d8360200151846101a0015183612112565b50505050565b6000600187600181111561278357fe5b14801561279b5750600186600281111561279957fe5b145b80156127a657508242105b15156127b157600080fd5b60008251600160a060020a031614156127cb5750836127d5565b8382602001510190505b9695505050505050565b600160a060020a0380841660009081526001602090815260408083209386168352929052205461280f9082611753565b600160a060020a038481166000908152600160209081526040808320938716835292905290812082905590101561284557600080fd5b81600160a060020a031683600160a060020a03167fe6e0ef9cd056ca98561ca60e347ada61e1ede2f1142a078951b7a52e1e508e608360405190815260200160405180910390a3505050565b600160a060020a0380841660009081526001602090815260408083209386168352929052908120546128c39083612a83565b600160a060020a03858116600081815260016020908152604080832094891680845285835281842087905593835282825280832093835292815291902054919052901115612a3657600160a060020a0380851660008181526001602090815260408083209488168084529482528083205493835282825280832094835293905291909120546129529190611753565b600160a060020a03808616600090815260208181526040808320938816835292905220549091506129839082612a83565b600160a060020a03808616600090815260208181526040808320938816808452939091528082209390935590916323b872dd91879130918691516020015260405160e060020a63ffffffff8616028152600160a060020a0393841660048201529190921660248201526044810191909152606401602060405180830381600087803b1515612a1057600080fd5b6102c65a03f11515612a2157600080fd5b505050604051805190501515612a3657600080fd5b82600160a060020a031684600160a060020a03167f989eaa915cbb416ea3d6f9a63b1a3de51770c7674b11fe21ecdf76b4e1d139108460405190815260200160405180910390a350505050565b60008282018381101561239457fe5b6000815182602001518360400151846060015185608001518660a001518760c001518860e001518961010001518a61012001518b61014001518c61016001516040516c01000000000000000000000000600160a060020a03808f16820283528d8116820260148401528c811682026028840152603c83018c9052605c83018b9052891602607c82015260908101876001811115612b2b57fe5b60ff1660f860020a028152600101866002811115612b4557fe5b60ff1660f860020a02815260010185600160a060020a0316600160a060020a03166c01000000000000000000000000028152601401846003811115612b8657fe5b60ff1660f860020a02815260010183805190602001908083835b60208310612bbf5780518252601f199092019160209182019101612ba0565b6001836020036101000a038019825116818451161790925250505091909101905082805190602001908083835b60208310612c0b5780518252601f199092019160209182019101612bec565b6001836020036101000a0380198251168184511617909252505050919091019d5060409c505050505050505050505050505180910390209050919050565b6000816101800151826101a00151836101c00151846101e001518561020001518661022001518761024001516040518088805190602001908083835b60208310612ca45780518252601f199092019160209182019101612c85565b6001836020036101000a03801982511681845116808217855250505050505090500187600160a060020a0316600160a060020a03166c0100000000000000000000000002815260140186815260200185815260200184815260200183815260200182815260200197505050505050505060405180910390209050919050565b6000806000612d758560c001518660e00151876101c00151886101e001518961020001518a61022001518a604080519081016040528154600160a060020a031681526001909101546020820152612e1d565b9150612dc48660c001518760e00151886101c00151896101e001518a61020001518b61022001518a604080519081016040528154600160a060020a031681526001909101546020820152612e1d565b905081811015612dd357600080fd5b85610200015185610200015110612dea57806127d5565b50949350505050565b6000811115611326576113268383600260019054906101000a9004600160a060020a031684612ecb565b60008080886002811115612e2d57fe5b1415612e3b57869150612ebf565b6001886002811115612e4957fe5b1415612e735760008351600160a060020a03161415612e6757600080fd5b82602001519150612ebf565b6002886002811115612e8157fe5b14156100cc578484038542038702811515612e9857fe5b0490506001896001811115612ea957fe5b1415612eb9578087039150612ebf565b80870191505b50979650505050505050565b612ed6838383612112565b61276d848383611765565b6102606040519081016040908152600080835260208301819052908201819052606082018190526080820181905260a0820181905260c0820181905260e0820181905261010082018190526101208201526101408101612f3f612f92565b8152602001612f4c612f92565b8152602001612f59612f92565b81526020016000600160a060020a0316815260200160008152602001600081526020016000815260200160008152602001600081525090565b60206040519081016040526000815290565b6101006040519081016040526008815b600081526000199091019060200181612fb457905050905600a165627a7a723058204368458ed7e10fb585e0e007e6cdf86d56aa2100b8c720dc5c1b843dc9456f570029",
  "source": "/*\n\n  Decentralized digital item exchange. Supports any digital asset that can be represented on the Ethereum blockchain.\n\n  Let us suppose two agents interacting with a distributed ledger have utility functions preferencing certain states of that ledger over others.\n  Aiming to maximize their utility, these agents may construct with their utility functions along with the present ledger state a mapping of state transitions (transactions) to marginal utilities.\n  Any composite state transition with positive marginal utility for and enactable by the combined permissions of both agents thus is a mutually desirable trade, and the trustless \n  code execution provided by a distributed ledger renders the requisite atomicity trivial.\n\n  Relative to this model, the present Exchange instantiation makes two concessions to practicality:\n  - State transition preferences are not matched directly but instead intermediated by a standard of tokenized value.\n  - A small fee is charged in WYV for order settlement, with an amount configurable by the frontend hosting the orderbook.\n\n  Solidity presently possesses neither a strong functional typesystem nor runtime reflection (ABI encoding in Solidity), so we must be a bit clever in implementation.\n\n  TODO: Clarify maker/taker distinction, require fee agreement, see if we can implement negative fees. Consider implementing frontend order signatures.\n  \n*/\n\npragma solidity 0.4.18;\n\nimport \"zeppelin-solidity/contracts/token/ERC20.sol\";\n\nimport \"../registry/ProxyRegistry.sol\";\nimport \"../common/LazyBank.sol\";\nimport \"../common/ArrayUtils.sol\";\nimport \"../common/ReentrancyGuarded.sol\";\nimport \"./SaleKindInterface.sol\";\n\n/**\n * @title Exchange\n * @author Project Wyvern Developers\n */\ncontract Exchange is LazyBank, ReentrancyGuarded {\n\n    /* The token used to pay exchange fees. */\n    ERC20 public exchangeTokenAddress;\n\n    /* User registry. */\n    ProxyRegistry public registry;\n\n    /* Top bids for all bid-supporting auctions, by hash. */\n    mapping(bytes32 => SaleKindInterface.Bid) public topBids;\n \n    /* Cancelled / finalized orders, by hash. */\n    mapping(bytes32 => bool) cancelledOrFinalized;\n\n    /* Orders verified by on-chain approval (alternative to ECDSA signatures so that smart contracts can place orders directly). */\n    mapping(bytes32 => bool) approvedOrders;\n\n    /* An ECDSA signature. */ \n    struct Sig {\n        /* v parameter */\n        uint8 v;\n        /* r parameter */\n        bytes32 r;\n        /* s parameter */\n        bytes32 s;\n    }\n\n    /* An order on the exchange. */\n    struct Order {\n        /* Exchange address, intended as a versioning mechanism. */\n        address exchange;\n        /* Order maker address. */\n        address maker;\n        /* Order taker address, if specified. */\n        address taker;\n        /* Maker fee of the order (in Exchange fee tokens). */\n        uint makerFee;\n        /* Taker fee of the order (in Exchange fee tokens). */\n        uint takerFee;\n        /* Order fee recipient. */\n        address feeRecipient;\n        /* Side (buy/sell). */\n        SaleKindInterface.Side side;\n        /* Kind of sale. */\n        SaleKindInterface.SaleKind saleKind;\n        /* Target. */\n        address target;\n        /* HowToCall. */\n        AuthenticatedProxy.HowToCall howToCall;\n        /* Calldata. */\n        bytes calldata;\n        /* replacementPattern pattern. */\n        bytes replacementPattern;\n        /* Order metadata IPFS hash. */\n        bytes metadataHash;\n        /* Token used to pay for the order. */\n        ERC20 paymentToken;\n        /* Base price of the order (in paymentTokens). */\n        uint basePrice;\n        /* Auction extra parameter - minimum bid increment for English auctions, decay factor for Dutch auctions. */\n        uint extra;\n        /* Listing timestamp. */\n        uint listingTime;\n        /* Expiration timestamp - 0 for no expiry. */\n        uint expirationTime;\n        /* Order salt, used to prevent duplicate hashes. */\n        uint salt;\n    }\n    \n    event OrderApproved   (bytes32 hash, address indexed approver, Order order, bool orderbookInclusionDesired);\n    event OrderCancelled  (bytes32 hash);\n    event OrderBidOn      (bytes32 hash, address indexed bidder, uint amount, uint timestamp);\n    event OrdersMatched   (Order buy, Order sell);\n\n    function chargeFee(address from, address to, uint amount)\n        internal\n    {\n        if (amount > 0) {\n            transferTo(from, to, exchangeTokenAddress, amount);\n        }\n    }\n\n    function hashOrderPartOne(Order order)\n        internal\n        pure\n        returns (bytes32)\n    {\n        return keccak256(order.exchange, order.maker, order.taker, order.makerFee, order.takerFee, order.feeRecipient, order.side, order.saleKind, order.target, order.howToCall, order.calldata, order.replacementPattern);\n    }\n\n    function hashOrderPartTwo(Order order)\n        internal\n        pure\n        returns (bytes32)\n    {\n        return keccak256(order.metadataHash, order.paymentToken, order.basePrice, order.extra, order.listingTime, order.expirationTime, order.salt);\n    }\n\n    function hashOrder(Order order)\n        internal\n        pure\n        returns (bytes32)\n    {\n        /* This is silly, but necessary due to Solidity compiler stack size constraints. FIXME, waste of gas. */\n        return keccak256(hashOrderPartOne(order), hashOrderPartTwo(order));\n    }\n\n    function hashOrder_(\n        address[6] addrs,\n        uint[7] uints,\n        SaleKindInterface.Side side,\n        SaleKindInterface.SaleKind saleKind,\n        AuthenticatedProxy.HowToCall howToCall,\n        bytes calldata,\n        bytes replacementPattern,\n        bytes metadataHash)\n        public\n        pure\n        returns (bytes32)\n    { \n        return hashOrder(\n          Order(addrs[0], addrs[1], addrs[2], uints[0], uints[1], addrs[3], side, saleKind, addrs[4], howToCall, calldata, replacementPattern, metadataHash, ERC20(addrs[5]), uints[2], uints[3], uints[4], uints[5], uints[6])\n        );\n    }\n\n    function hashToSign(Order order)\n        internal\n        pure\n        returns (bytes32)\n    {\n        bytes memory prefix = \"\\x19Ethereum Signed Message:\\n32\";\n        bytes32 hash = keccak256(prefix, hashOrder(order));\n        return hash;\n    }\n\n    function requireValidOrder(Order order, Sig sig)\n        internal\n        view\n        returns (bytes32)\n    {\n        bytes32 hash = hashToSign(order);\n        require(validateOrder(hash, order, sig));\n        return hash;\n    }\n\n    function validateOrder(bytes32 hash, Order memory order, Sig memory sig) \n        view\n        internal\n        returns (bool)\n    {\n        return(\n            /* Order must be targeted at this protocol version (this Exchange contract). */\n            order.exchange == address(this) &&\n            /* Order must have not been canceled or already filled. */\n            !cancelledOrFinalized[hash] && \n            /* Order authentication. Order must be either (a) sent by maker, (b) previously approved, or (c) ECDSA-signed by maker. */\n            (msg.sender == order.maker || approvedOrders[hash] || ecrecover(hash, sig.v, sig.r, sig.s) == order.maker) &&\n            /* Order must possess valid sale kind parameter combination. */\n            SaleKindInterface.validateParameters(order.side, order.saleKind, order.expirationTime)\n        );\n    }\n\n    /* Solidity ABI encoding limitation workaround, hopefully temporary. */\n    function validateOrder_ (\n        address[6] addrs,\n        uint[7] uints,\n        SaleKindInterface.Side side,\n        SaleKindInterface.SaleKind saleKind,\n        AuthenticatedProxy.HowToCall howToCall,\n        bytes calldata,\n        bytes replacementPattern,\n        bytes metadataHash,\n        uint8 v,\n        bytes32 r,\n        bytes32 s)\n        view\n        public\n        returns (bool)\n    {\n        Order memory order = Order(addrs[0], addrs[1], addrs[2], uints[0], uints[1], addrs[3], side, saleKind, addrs[4], howToCall, calldata, replacementPattern, metadataHash, ERC20(addrs[5]), uints[2], uints[3], uints[4], uints[5], uints[6]);\n        return validateOrder(\n          hashToSign(order),\n          order,\n          Sig(v, r, s)\n        );\n    }\n\n    function approveOrder(Order memory order, bool orderbookInclusionDesired)\n        internal\n    {\n        require(msg.sender == order.maker);\n        bytes32 hash = hashToSign(order);\n        require(!approvedOrders[hash]);\n        approvedOrders[hash] = true;\n        OrderApproved(hash, msg.sender, order, orderbookInclusionDesired);\n    }\n\n    /* Solidity ABI encoding limitation workaround, hopefully temporary. */\n    function approveOrder_ (\n        address[6] addrs,\n        uint[7] uints,\n        SaleKindInterface.Side side,\n        SaleKindInterface.SaleKind saleKind,\n        AuthenticatedProxy.HowToCall howToCall,\n        bytes calldata,\n        bytes replacementPattern,\n        bytes metadataHash,\n        bool orderbookInclusionDesired) \n        public\n    {\n        Order memory order = Order(addrs[0], addrs[1], addrs[2], uints[0], uints[1], addrs[3], side, saleKind, addrs[4], howToCall, calldata, replacementPattern, metadataHash, ERC20(addrs[5]), uints[2], uints[3], uints[4], uints[5], uints[6]);\n        return approveOrder(order, orderbookInclusionDesired);\n    }\n\n    function cancelOrder(Order memory order, Sig memory sig) \n        internal\n    {\n        /* CHECKS */\n        bytes32 hash = requireValidOrder(order, sig);\n        require(msg.sender == order.maker);\n  \n        /* EFFECTS */\n        cancelledOrFinalized[hash] = true;\n\n        OrderCancelled(hash);\n    }\n\n    /* Solidity ABI encoding limitation workaround, hopefully temporary. */\n    function cancelOrder_(\n        address[6] addrs,\n        uint[7] uints,\n        SaleKindInterface.Side side,\n        SaleKindInterface.SaleKind saleKind,\n        AuthenticatedProxy.HowToCall howToCall,\n        bytes calldata,\n        bytes replacementPattern,\n        bytes metadataHash,\n        uint8 v,\n        bytes32 r,\n        bytes32 s)\n        public\n    {\n\n        return cancelOrder(\n          Order(addrs[0], addrs[1], addrs[2], uints[0], uints[1], addrs[3], side, saleKind, addrs[4], howToCall, calldata, replacementPattern, metadataHash, ERC20(addrs[5]), uints[2], uints[3], uints[4], uints[5], uints[6]),\n          Sig(v, r, s)\n        );\n    }\n\n    function bid (Order order, Sig sig, uint amount)\n        internal\n        reentrancyGuard\n    {\n        /* CHECKS */\n  \n        bytes32 hash = requireValidOrder(order, sig);\n\n        SaleKindInterface.Bid storage topBid = topBids[hash];\n        \n        /* Calculated required bid price. */\n        uint requiredBidPrice = SaleKindInterface.requiredBidPrice(order.side, order.saleKind, order.basePrice, order.extra, order.expirationTime, topBid);\n\n        /* Assert bid amount is sufficient. */\n        require(amount >= requiredBidPrice);\n\n        /* EFFECTS */\n\n        /* Store the new high bid. */\n        topBids[hash] = SaleKindInterface.Bid(msg.sender, amount);\n\n        /* Unlock tokens to the previous high bidder, if existent. */\n        if (topBid.bidder != address(0)) {\n            unlock(topBid.bidder, order.paymentToken, topBid.amount);\n        }\n\n        /* Lock tokens for the new high bidder. */\n        lazyLock(msg.sender, order.paymentToken, amount);\n\n        /* Log the bid event. */\n        OrderBidOn(hash, msg.sender, amount, now);\n    }\n\n    /* Solidity ABI encoding limitation workaround, hopefully temporary. */\n    function bid_(\n        address[6] addrs,\n        uint[7] uints,\n        SaleKindInterface.Side side,\n        SaleKindInterface.SaleKind saleKind,\n        AuthenticatedProxy.HowToCall howToCall,\n        bytes calldata,\n        bytes replacementPattern,\n        bytes metadataHash,\n        uint8 v,\n        bytes32 r,\n        bytes32 s,\n        uint amount)\n        public\n    {\n        return bid(\n          Order(addrs[0], addrs[1], addrs[2], uints[0], uints[1], addrs[3], side, saleKind, addrs[4], howToCall, calldata, replacementPattern, metadataHash, ERC20(addrs[5]), uints[2], uints[3], uints[4], uints[5], uints[6]),\n          Sig(v, r, s),\n          amount\n        );\n    }\n\n    function calculateMatchPrice(Order buy, Order sell, SaleKindInterface.Bid storage topBid)\n        view\n        internal\n        returns (uint price)\n    {\n        /* Calculate sell price. */\n        uint sellPrice = SaleKindInterface.calculateFinalPrice(sell.side, sell.saleKind, sell.basePrice, sell.extra, sell.listingTime, sell.expirationTime, topBid);\n\n        /* Calculate buy price. */\n        uint buyPrice = SaleKindInterface.calculateFinalPrice(buy.side, buy.saleKind, buy.basePrice, buy.extra, buy.listingTime, buy.expirationTime, topBid);\n\n        /* Require price cross. */\n        require(buyPrice >= sellPrice);\n        \n        /* Time priority. */\n        price = sell.listingTime < buy.listingTime ? sellPrice : buyPrice;\n\n        return price;\n    }\n\n    function executeFundsTransfer(Order buy, Order sell)\n        internal\n    {\n        /* Fetch top bid, if existent. */\n        SaleKindInterface.Bid storage topBid = topBids[hashOrder(sell)];\n\n        /* Calculate match price. */\n        uint price = calculateMatchPrice(buy, sell, topBid);\n\n        /* TODO: Charge fees. */\n        chargeFee(buy.maker, buy.feeRecipient, buy.makerFee);\n        chargeFee(sell.maker, sell.feeRecipient, sell.makerFee);\n\n        /* Unlock tokens for top bidder, if existent. */\n        if (topBid.bidder != address(0)) {\n            unlock(topBid.bidder, sell.paymentToken, topBid.amount);\n        }\n\n        /* Debit buyer. */\n        lazyDebit(buy.maker, sell.paymentToken, price);\n\n        /* Credit seller. */\n        credit(sell.maker, sell.paymentToken, price);\n    }\n\n    function atomicMatch(Order buy, Sig buySig, Order sell, Sig sellSig)\n        internal\n        reentrancyGuard\n    {\n        /* CHECKS */\n      \n        bytes32 buyHash = requireValidOrder(buy, buySig);\n        bytes32 sellHash = requireValidOrder(sell, sellSig); \n\n        /* Must be opposite-side. */\n        require(buy.side == SaleKindInterface.Side.Buy && sell.side == SaleKindInterface.Side.Sell);\n\n        /* Must use same payment token. */\n        require(buy.paymentToken == sell.paymentToken);\n\n        /* Must match maker/taker. */\n        require(sell.taker == buy.maker || sell.taker == address(0));\n        require(buy.taker == sell.maker || buy.taker == address(0));\n\n        /* Must be settleable. */\n        SaleKindInterface.Bid storage topBid = topBids[sellHash];\n        require(SaleKindInterface.canSettleOrder(buy.saleKind, sell.maker, buy.expirationTime, SaleKindInterface.Bid({ bidder: address(0), amount: 0 })));\n        require(SaleKindInterface.canSettleOrder(sell.saleKind, buy.maker, sell.expirationTime, topBid));\n        \n        /* Must match target. */\n        require(buy.target == sell.target);\n\n        /* Must match howToCall. */\n        require(buy.howToCall == sell.howToCall);\n       \n        /* Must match calldata after replacementPattern. */ \n        ArrayUtils.guardedArrayReplace(buy.calldata, sell.calldata, buy.replacementPattern);\n        ArrayUtils.guardedArrayReplace(sell.calldata, buy.calldata, sell.replacementPattern);\n        require(ArrayUtils.arrayEq(buy.calldata, sell.calldata));\n\n        /* Retrieve proxy (the registry contract is trusted). */\n        AuthenticatedProxy proxy = registry.proxies(sell.maker);\n\n        /* Proxy must exist. */\n        require(proxy != address(0));\n\n        /* EFFECTS */\n\n        /* Mark orders as finalized. */\n        cancelledOrFinalized[buyHash] = true;\n        cancelledOrFinalized[sellHash] = true;\n\n        /* Validate and transfer funds. */ \n        executeFundsTransfer(buy, sell);\n\n        /* INTERACTIONS */\n\n        /* Execute call through proxy. */\n        require(proxy.proxy(sell.target, sell.howToCall, sell.calldata));\n\n        /* Log match event. */\n        OrdersMatched(buy, sell);\n    }\n\n    /* Solidity ABI encoding limitation workaround, hopefully temporary. */\n    function atomicMatch_(\n        address[12] addrs,\n        uint[14] uints,\n        uint8[6] sidesKindsHowToCalls,\n        bytes calldataBuy,\n        bytes calldataSell,\n        bytes replacementPatternBuy,\n        bytes replacementPatternSell,\n        bytes metadataHashBuy,\n        bytes metadataHashSell,\n        uint8[2] vs,\n        bytes32[4] rss)\n        public\n    {\n        return atomicMatch(\n          Order(addrs[0], addrs[1], addrs[2], uints[0], uints[1], addrs[3], SaleKindInterface.Side(sidesKindsHowToCalls[0]), SaleKindInterface.SaleKind(sidesKindsHowToCalls[1]), addrs[4], AuthenticatedProxy.HowToCall(sidesKindsHowToCalls[2]), calldataBuy, replacementPatternBuy, metadataHashBuy, ERC20(addrs[5]), uints[2], uints[3], uints[4], uints[5], uints[6]),\n          Sig(vs[0], rss[0], rss[1]),\n          Order(addrs[6], addrs[7], addrs[8], uints[7], uints[8], addrs[9], SaleKindInterface.Side(sidesKindsHowToCalls[3]), SaleKindInterface.SaleKind(sidesKindsHowToCalls[4]), addrs[10], AuthenticatedProxy.HowToCall(sidesKindsHowToCalls[5]), calldataSell, replacementPatternSell, metadataHashSell, ERC20(addrs[11]), uints[9], uints[10], uints[11], uints[12], uints[13]),\n          Sig(vs[1], rss[2], rss[3])\n        );\n    }\n\n}\n",
  "sourcePath": "/home/cwgoes/working/crypto/wyvern/wyvern-ethereum/contracts/exchange/Exchange.sol",
  "compiler": {
    "name": "solc",
    "version": "0.4.18+commit.9cf6e910.Emscripten.clang"
  },
  "schemaVersion": "1.0.1",
  "updatedAt": "2018-01-18T21:57:26.354Z"
}