{
  "contractName": "Exchange",
  "abi": [
    {
      "constant": true,
      "inputs": [
        {
          "name": "addrs",
          "type": "address[14]"
        },
        {
          "name": "uints",
          "type": "uint256[14]"
        },
        {
          "name": "sidesKindsHowToCalls",
          "type": "uint8[6]"
        },
        {
          "name": "calldataBuy",
          "type": "bytes"
        },
        {
          "name": "calldataSell",
          "type": "bytes"
        },
        {
          "name": "replacementPatternBuy",
          "type": "bytes"
        },
        {
          "name": "replacementPatternSell",
          "type": "bytes"
        },
        {
          "name": "staticExtradataBuy",
          "type": "bytes"
        },
        {
          "name": "staticExtradataSell",
          "type": "bytes"
        }
      ],
      "name": "ordersCanMatch_",
      "outputs": [
        {
          "name": "",
          "type": "bool"
        }
      ],
      "payable": false,
      "stateMutability": "view",
      "type": "function"
    },
    {
      "constant": false,
      "inputs": [
        {
          "name": "addrs",
          "type": "address[7]"
        },
        {
          "name": "uints",
          "type": "uint256[7]"
        },
        {
          "name": "side",
          "type": "uint8"
        },
        {
          "name": "saleKind",
          "type": "uint8"
        },
        {
          "name": "howToCall",
          "type": "uint8"
        },
        {
          "name": "calldata",
          "type": "bytes"
        },
        {
          "name": "replacementPattern",
          "type": "bytes"
        },
        {
          "name": "staticExtradata",
          "type": "bytes"
        },
        {
          "name": "orderbookInclusionDesired",
          "type": "bool"
        }
      ],
      "name": "approveOrder_",
      "outputs": [],
      "payable": false,
      "stateMutability": "nonpayable",
      "type": "function"
    },
    {
      "constant": true,
      "inputs": [
        {
          "name": "array",
          "type": "bytes"
        },
        {
          "name": "desired",
          "type": "bytes"
        },
        {
          "name": "mask",
          "type": "bytes"
        }
      ],
      "name": "guardedArrayReplace",
      "outputs": [
        {
          "name": "",
          "type": "bytes"
        }
      ],
      "payable": false,
      "stateMutability": "pure",
      "type": "function"
    },
    {
      "constant": false,
      "inputs": [
        {
          "name": "addrs",
          "type": "address[7]"
        },
        {
          "name": "uints",
          "type": "uint256[7]"
        },
        {
          "name": "side",
          "type": "uint8"
        },
        {
          "name": "saleKind",
          "type": "uint8"
        },
        {
          "name": "howToCall",
          "type": "uint8"
        },
        {
          "name": "calldata",
          "type": "bytes"
        },
        {
          "name": "replacementPattern",
          "type": "bytes"
        },
        {
          "name": "staticExtradata",
          "type": "bytes"
        },
        {
          "name": "v",
          "type": "uint8"
        },
        {
          "name": "r",
          "type": "bytes32"
        },
        {
          "name": "s",
          "type": "bytes32"
        }
      ],
      "name": "cancelOrder_",
      "outputs": [],
      "payable": false,
      "stateMutability": "nonpayable",
      "type": "function"
    },
    {
      "constant": false,
      "inputs": [
        {
          "name": "token",
          "type": "address"
        },
        {
          "name": "amount",
          "type": "uint256"
        }
      ],
      "name": "deposit",
      "outputs": [],
      "payable": false,
      "stateMutability": "nonpayable",
      "type": "function"
    },
    {
      "constant": true,
      "inputs": [
        {
          "name": "user",
          "type": "address"
        },
        {
          "name": "token",
          "type": "address"
        }
      ],
      "name": "lockedFor",
      "outputs": [
        {
          "name": "",
          "type": "uint256"
        }
      ],
      "payable": false,
      "stateMutability": "view",
      "type": "function"
    },
    {
      "constant": true,
      "inputs": [
        {
          "name": "",
          "type": "bytes32"
        }
      ],
      "name": "topBids",
      "outputs": [
        {
          "name": "bidder",
          "type": "address"
        },
        {
          "name": "amount",
          "type": "uint256"
        }
      ],
      "payable": false,
      "stateMutability": "view",
      "type": "function"
    },
    {
      "constant": true,
      "inputs": [
        {
          "name": "buyCalldata",
          "type": "bytes"
        },
        {
          "name": "buyReplacementPattern",
          "type": "bytes"
        },
        {
          "name": "sellCalldata",
          "type": "bytes"
        },
        {
          "name": "sellReplacementPattern",
          "type": "bytes"
        }
      ],
      "name": "orderCalldataCanMatch",
      "outputs": [
        {
          "name": "",
          "type": "bool"
        }
      ],
      "payable": false,
      "stateMutability": "pure",
      "type": "function"
    },
    {
      "constant": true,
      "inputs": [
        {
          "name": "addrs",
          "type": "address[14]"
        },
        {
          "name": "uints",
          "type": "uint256[14]"
        },
        {
          "name": "sidesKindsHowToCalls",
          "type": "uint8[6]"
        },
        {
          "name": "calldataBuy",
          "type": "bytes"
        },
        {
          "name": "calldataSell",
          "type": "bytes"
        },
        {
          "name": "replacementPatternBuy",
          "type": "bytes"
        },
        {
          "name": "replacementPatternSell",
          "type": "bytes"
        },
        {
          "name": "staticExtradataBuy",
          "type": "bytes"
        },
        {
          "name": "staticExtradataSell",
          "type": "bytes"
        }
      ],
      "name": "calculateMatchPrice_",
      "outputs": [
        {
          "name": "",
          "type": "uint256"
        }
      ],
      "payable": false,
      "stateMutability": "view",
      "type": "function"
    },
    {
      "constant": false,
      "inputs": [
        {
          "name": "token",
          "type": "address"
        },
        {
          "name": "amount",
          "type": "uint256"
        },
        {
          "name": "dest",
          "type": "address"
        }
      ],
      "name": "withdraw",
      "outputs": [],
      "payable": false,
      "stateMutability": "nonpayable",
      "type": "function"
    },
    {
      "constant": true,
      "inputs": [
        {
          "name": "addrs",
          "type": "address[7]"
        },
        {
          "name": "uints",
          "type": "uint256[7]"
        },
        {
          "name": "side",
          "type": "uint8"
        },
        {
          "name": "saleKind",
          "type": "uint8"
        },
        {
          "name": "howToCall",
          "type": "uint8"
        },
        {
          "name": "calldata",
          "type": "bytes"
        },
        {
          "name": "replacementPattern",
          "type": "bytes"
        },
        {
          "name": "staticExtradata",
          "type": "bytes"
        },
        {
          "name": "v",
          "type": "uint8"
        },
        {
          "name": "r",
          "type": "bytes32"
        },
        {
          "name": "s",
          "type": "bytes32"
        }
      ],
      "name": "validateOrder_",
      "outputs": [
        {
          "name": "",
          "type": "bool"
        }
      ],
      "payable": false,
      "stateMutability": "view",
      "type": "function"
    },
    {
      "constant": true,
      "inputs": [],
      "name": "registry",
      "outputs": [
        {
          "name": "",
          "type": "address"
        }
      ],
      "payable": false,
      "stateMutability": "view",
      "type": "function"
    },
    {
      "constant": true,
      "inputs": [
        {
          "name": "",
          "type": "bytes32"
        }
      ],
      "name": "cancelledOrFinalized",
      "outputs": [
        {
          "name": "",
          "type": "bool"
        }
      ],
      "payable": false,
      "stateMutability": "view",
      "type": "function"
    },
    {
      "constant": true,
      "inputs": [],
      "name": "exchangeToken",
      "outputs": [
        {
          "name": "",
          "type": "address"
        }
      ],
      "payable": false,
      "stateMutability": "view",
      "type": "function"
    },
    {
      "constant": true,
      "inputs": [
        {
          "name": "",
          "type": "address"
        },
        {
          "name": "",
          "type": "address"
        }
      ],
      "name": "balances",
      "outputs": [
        {
          "name": "",
          "type": "uint256"
        }
      ],
      "payable": false,
      "stateMutability": "view",
      "type": "function"
    },
    {
      "constant": true,
      "inputs": [
        {
          "name": "",
          "type": "address"
        },
        {
          "name": "",
          "type": "address"
        }
      ],
      "name": "locked",
      "outputs": [
        {
          "name": "",
          "type": "uint256"
        }
      ],
      "payable": false,
      "stateMutability": "view",
      "type": "function"
    },
    {
      "constant": true,
      "inputs": [
        {
          "name": "user",
          "type": "address"
        },
        {
          "name": "token",
          "type": "address"
        }
      ],
      "name": "availableFor",
      "outputs": [
        {
          "name": "",
          "type": "uint256"
        }
      ],
      "payable": false,
      "stateMutability": "view",
      "type": "function"
    },
    {
      "constant": false,
      "inputs": [
        {
          "name": "addrs",
          "type": "address[14]"
        },
        {
          "name": "uints",
          "type": "uint256[14]"
        },
        {
          "name": "sidesKindsHowToCalls",
          "type": "uint8[6]"
        },
        {
          "name": "calldataBuy",
          "type": "bytes"
        },
        {
          "name": "calldataSell",
          "type": "bytes"
        },
        {
          "name": "replacementPatternBuy",
          "type": "bytes"
        },
        {
          "name": "replacementPatternSell",
          "type": "bytes"
        },
        {
          "name": "staticExtradataBuy",
          "type": "bytes"
        },
        {
          "name": "staticExtradataSell",
          "type": "bytes"
        },
        {
          "name": "vs",
          "type": "uint8[2]"
        },
        {
          "name": "rss",
          "type": "bytes32[4]"
        }
      ],
      "name": "atomicMatch_",
      "outputs": [],
      "payable": false,
      "stateMutability": "nonpayable",
      "type": "function"
    },
    {
      "constant": true,
      "inputs": [
        {
          "name": "",
          "type": "bytes32"
        }
      ],
      "name": "approvedOrders",
      "outputs": [
        {
          "name": "",
          "type": "bool"
        }
      ],
      "payable": false,
      "stateMutability": "view",
      "type": "function"
    },
    {
      "constant": false,
      "inputs": [
        {
          "name": "addrs",
          "type": "address[7]"
        },
        {
          "name": "uints",
          "type": "uint256[7]"
        },
        {
          "name": "side",
          "type": "uint8"
        },
        {
          "name": "saleKind",
          "type": "uint8"
        },
        {
          "name": "howToCall",
          "type": "uint8"
        },
        {
          "name": "calldata",
          "type": "bytes"
        },
        {
          "name": "replacementPattern",
          "type": "bytes"
        },
        {
          "name": "staticExtradata",
          "type": "bytes"
        },
        {
          "name": "v",
          "type": "uint8"
        },
        {
          "name": "r",
          "type": "bytes32"
        },
        {
          "name": "s",
          "type": "bytes32"
        },
        {
          "name": "amount",
          "type": "uint256"
        }
      ],
      "name": "bid_",
      "outputs": [],
      "payable": false,
      "stateMutability": "nonpayable",
      "type": "function"
    },
    {
      "constant": true,
      "inputs": [
        {
          "name": "addrs",
          "type": "address[7]"
        },
        {
          "name": "uints",
          "type": "uint256[7]"
        },
        {
          "name": "side",
          "type": "uint8"
        },
        {
          "name": "saleKind",
          "type": "uint8"
        },
        {
          "name": "howToCall",
          "type": "uint8"
        },
        {
          "name": "calldata",
          "type": "bytes"
        },
        {
          "name": "replacementPattern",
          "type": "bytes"
        },
        {
          "name": "staticExtradata",
          "type": "bytes"
        }
      ],
      "name": "calculateCurrentPrice_",
      "outputs": [
        {
          "name": "",
          "type": "uint256"
        }
      ],
      "payable": false,
      "stateMutability": "view",
      "type": "function"
    },
    {
      "constant": true,
      "inputs": [
        {
          "name": "user",
          "type": "address"
        },
        {
          "name": "token",
          "type": "address"
        }
      ],
      "name": "balanceFor",
      "outputs": [
        {
          "name": "",
          "type": "uint256"
        }
      ],
      "payable": false,
      "stateMutability": "view",
      "type": "function"
    },
    {
      "constant": true,
      "inputs": [
        {
          "name": "addrs",
          "type": "address[7]"
        },
        {
          "name": "uints",
          "type": "uint256[7]"
        },
        {
          "name": "side",
          "type": "uint8"
        },
        {
          "name": "saleKind",
          "type": "uint8"
        },
        {
          "name": "howToCall",
          "type": "uint8"
        },
        {
          "name": "calldata",
          "type": "bytes"
        },
        {
          "name": "replacementPattern",
          "type": "bytes"
        },
        {
          "name": "staticExtradata",
          "type": "bytes"
        }
      ],
      "name": "hashOrder_",
      "outputs": [
        {
          "name": "",
          "type": "bytes32"
        }
      ],
      "payable": false,
      "stateMutability": "pure",
      "type": "function"
    },
    {
      "anonymous": false,
      "inputs": [
        {
          "indexed": true,
          "name": "hash",
          "type": "bytes32"
        },
        {
          "indexed": false,
          "name": "exchange",
          "type": "address"
        },
        {
          "indexed": true,
          "name": "maker",
          "type": "address"
        },
        {
          "indexed": false,
          "name": "taker",
          "type": "address"
        },
        {
          "indexed": false,
          "name": "makerFee",
          "type": "uint256"
        },
        {
          "indexed": false,
          "name": "takerFee",
          "type": "uint256"
        },
        {
          "indexed": true,
          "name": "feeRecipient",
          "type": "address"
        },
        {
          "indexed": false,
          "name": "side",
          "type": "uint8"
        },
        {
          "indexed": false,
          "name": "saleKind",
          "type": "uint8"
        },
        {
          "indexed": false,
          "name": "target",
          "type": "address"
        },
        {
          "indexed": false,
          "name": "howToCall",
          "type": "uint8"
        },
        {
          "indexed": false,
          "name": "calldata",
          "type": "bytes"
        }
      ],
      "name": "OrderApprovedPartOne",
      "type": "event"
    },
    {
      "anonymous": false,
      "inputs": [
        {
          "indexed": true,
          "name": "hash",
          "type": "bytes32"
        },
        {
          "indexed": false,
          "name": "replacementPattern",
          "type": "bytes"
        },
        {
          "indexed": false,
          "name": "staticTarget",
          "type": "address"
        },
        {
          "indexed": false,
          "name": "staticExtradata",
          "type": "bytes"
        },
        {
          "indexed": false,
          "name": "paymentToken",
          "type": "address"
        },
        {
          "indexed": false,
          "name": "basePrice",
          "type": "uint256"
        },
        {
          "indexed": false,
          "name": "extra",
          "type": "uint256"
        },
        {
          "indexed": false,
          "name": "listingTime",
          "type": "uint256"
        },
        {
          "indexed": false,
          "name": "expirationTime",
          "type": "uint256"
        },
        {
          "indexed": false,
          "name": "salt",
          "type": "uint256"
        },
        {
          "indexed": false,
          "name": "orderbookInclusionDesired",
          "type": "bool"
        }
      ],
      "name": "OrderApprovedPartTwo",
      "type": "event"
    },
    {
      "anonymous": false,
      "inputs": [
        {
          "indexed": true,
          "name": "hash",
          "type": "bytes32"
        }
      ],
      "name": "OrderCancelled",
      "type": "event"
    },
    {
      "anonymous": false,
      "inputs": [
        {
          "indexed": true,
          "name": "hash",
          "type": "bytes32"
        },
        {
          "indexed": true,
          "name": "bidder",
          "type": "address"
        },
        {
          "indexed": false,
          "name": "amount",
          "type": "uint256"
        }
      ],
      "name": "OrderBidOn",
      "type": "event"
    },
    {
      "anonymous": false,
      "inputs": [
        {
          "indexed": true,
          "name": "buyHash",
          "type": "bytes32"
        },
        {
          "indexed": true,
          "name": "sellHash",
          "type": "bytes32"
        }
      ],
      "name": "OrdersMatched",
      "type": "event"
    },
    {
      "anonymous": false,
      "inputs": [
        {
          "indexed": true,
          "name": "user",
          "type": "address"
        },
        {
          "indexed": true,
          "name": "token",
          "type": "address"
        },
        {
          "indexed": false,
          "name": "amount",
          "type": "uint256"
        }
      ],
      "name": "Credited",
      "type": "event"
    },
    {
      "anonymous": false,
      "inputs": [
        {
          "indexed": true,
          "name": "user",
          "type": "address"
        },
        {
          "indexed": true,
          "name": "token",
          "type": "address"
        },
        {
          "indexed": false,
          "name": "amount",
          "type": "uint256"
        }
      ],
      "name": "Debited",
      "type": "event"
    },
    {
      "anonymous": false,
      "inputs": [
        {
          "indexed": true,
          "name": "user",
          "type": "address"
        },
        {
          "indexed": true,
          "name": "token",
          "type": "address"
        },
        {
          "indexed": false,
          "name": "amount",
          "type": "uint256"
        }
      ],
      "name": "Locked",
      "type": "event"
    },
    {
      "anonymous": false,
      "inputs": [
        {
          "indexed": true,
          "name": "user",
          "type": "address"
        },
        {
          "indexed": true,
          "name": "token",
          "type": "address"
        },
        {
          "indexed": false,
          "name": "amount",
          "type": "uint256"
        }
      ],
      "name": "Unlocked",
      "type": "event"
    }
  ],
  "bytecode": "0x60606040526002805460ff19169055341561001957600080fd5b614593806100286000396000f3006060604052600436106101195763ffffffff60e060020a600035041663136f5b5a811461011e5780631665e6b314610348578063239e83df1461048d57806335d91b85146105d957806347e7ef24146107285780634e10c95d1461074a578063532aa1c814610781578063562b2ebc146107b9578063582420bb146108d057806369328dec14610ae65780637627e94114610b0f5780637b10399914610c5e5780638076f00514610c8d578063a25eb5d914610ca3578063c23f001f14610cb6578063db20266f14610cdb578063db2ec6bd14610d00578063dfc7209f14610d25578063e57d4adb14610f8f578063e6d2bd7b14610fa5578063f4c91807146110f9578063f771e78b14611238578063f9c29e661461125d575b600080fd5b341561012957600080fd5b61033460046101c481600e6101c0604051908101604052919082826101c08082843782019150505050509190806101c00190600e80602002604051908101604052919082826101c080828437820191505050505091908060c001906006806020026040519081016040529190828260c0808284375093959460208082019550903586018082019450359250829150601f8201819004810201604051908101604052818152929190602084018383808284378201915050505050509190803590602001908201803590602001908080601f01602080910402602001604051908101604052818152929190602084018383808284378201915050505050509190803590602001908201803590602001908080601f01602080910402602001604051908101604052818152929190602084018383808284378201915050505050509190803590602001908201803590602001908080601f01602080910402602001604051908101604052818152929190602084018383808284378201915050505050509190803590602001908201803590602001908080601f01602080910402602001604051908101604052818152929190602084018383808284378201915050505050509190803590602001908201803590602001908080601f01602080910402602001604051908101604052818152929190602084018383808284375094965061139c95505050505050565b604051901515815260200160405180910390f35b341561035357600080fd5b61048b600460e481600760e06040519081016040529190828260e080828437820191505050505091908060e001906007806020026040519081016040529190828260e08082843750939560ff8635811696602080820135831697506040808301359093169650929450608081019350606001358401808301929035918291601f83018190048102019051908101604052818152929190602084018383808284378201915050505050509190803590602001908201803590602001908080601f01602080910402602001604051908101604052818152929190602084018383808284378201915050505050509190803590602001908201803590602001908080601f0160208091040260200160405190810160405281815292919060208401838380828437509496505050509135151591506116c99050565b005b341561049857600080fd5b61056260046024813581810190830135806020601f8201819004810201604051908101604052818152929190602084018383808284378201915050505050509190803590602001908201803590602001908080601f01602080910402602001604051908101604052818152929190602084018383808284378201915050505050509190803590602001908201803590602001908080601f01602080910402602001604051908101604052818152929190602084018383808284375094965061180695505050505050565b60405160208082528190810183818151815260200191508051906020019080838360005b8381101561059e578082015183820152602001610586565b50505050905090810190601f1680156105cb5780820380516001836020036101000a031916815260200191505b509250505060405180910390f35b34156105e457600080fd5b61048b600460e481600760e06040519081016040529190828260e080828437820191505050505091908060e001906007806020026040519081016040529190828260e08082843750939560ff8635811696602080820135831697506040808301359093169650929450608081019350606001358401808301929035918291601f83018190048102019051908101604052818152929190602084018383808284378201915050505050509190803590602001908201803590602001908080601f01602080910402602001604051908101604052818152929190602084018383808284378201915050505050509190803590602001908201803590602001908080601f0160208091040260200160405190810160405281815292919060208401838380828437509496505060ff8535169460208101359450604001359250611823915050565b341561073357600080fd5b61048b600160a060020a0360043516602435611974565b341561075557600080fd5b61076f600160a060020a0360043581169060243516611a13565b60405190815260200160405180910390f35b341561078c57600080fd5b610797600435611a3e565b604051600160a060020a03909216825260208201526040908101905180910390f35b34156107c457600080fd5b61033460046024813581810190830135806020601f8201819004810201604051908101604052818152929190602084018383808284378201915050505050509190803590602001908201803590602001908080601f01602080910402602001604051908101604052818152929190602084018383808284378201915050505050509190803590602001908201803590602001908080601f01602080910402602001604051908101604052818152929190602084018383808284378201915050505050509190803590602001908201803590602001908080601f016020809104026020016040519081016040528181529291906020840183838082843750949650611a6395505050505050565b34156108db57600080fd5b61076f60046101c481600e6101c0604051908101604052919082826101c08082843782019150505050509190806101c00190600e80602002604051908101604052919082826101c080828437820191505050505091908060c001906006806020026040519081016040529190828260c0808284375093959460208082019550903586018082019450359250829150601f8201819004810201604051908101604052818152929190602084018383808284378201915050505050509190803590602001908201803590602001908080601f01602080910402602001604051908101604052818152929190602084018383808284378201915050505050509190803590602001908201803590602001908080601f01602080910402602001604051908101604052818152929190602084018383808284378201915050505050509190803590602001908201803590602001908080601f01602080910402602001604051908101604052818152929190602084018383808284378201915050505050509190803590602001908201803590602001908080601f01602080910402602001604051908101604052818152929190602084018383808284378201915050505050509190803590602001908201803590602001908080601f016020809104026020016040519081016040528181529291906020840183838082843750949650611a9095505050505050565b3415610af157600080fd5b61048b600160a060020a036004358116906024359060443516611dac565b3415610b1a57600080fd5b610334600460e481600760e06040519081016040529190828260e080828437820191505050505091908060e001906007806020026040519081016040529190828260e08082843750939560ff8635811696602080820135831697506040808301359093169650929450608081019350606001358401808301929035918291601f83018190048102019051908101604052818152929190602084018383808284378201915050505050509190803590602001908201803590602001908080601f01602080910402602001604051908101604052818152929190602084018383808284378201915050505050509190803590602001908201803590602001908080601f0160208091040260200160405190810160405281815292919060208401838380828437509496505060ff8535169460208101359450604001359250611e89915050565b3415610c6957600080fd5b610c71611fe3565b604051600160a060020a03909116815260200160405180910390f35b3415610c9857600080fd5b610334600435611ff2565b3415610cae57600080fd5b610c71612007565b3415610cc157600080fd5b61076f600160a060020a036004358116906024351661201b565b3415610ce657600080fd5b61076f600160a060020a0360043581169060243516612035565b3415610d0b57600080fd5b61076f600160a060020a0360043581169060243516612052565b3415610d3057600080fd5b61048b60046101c481600e6101c0604051908101604052919082826101c08082843782019150505050509190806101c00190600e80602002604051908101604052919082826101c080828437820191505050505091908060c001906006806020026040519081016040529190828260c0808284375093959460208082019550903586018082019450359250829150601f8201819004810201604051908101604052818152929190602084018383808284378201915050505050509190803590602001908201803590602001908080601f01602080910402602001604051908101604052818152929190602084018383808284378201915050505050509190803590602001908201803590602001908080601f01602080910402602001604051908101604052818152929190602084018383808284378201915050505050509190803590602001908201803590602001908080601f01602080910402602001604051908101604052818152929190602084018383808284378201915050505050509190803590602001908201803590602001908080601f01602080910402602001604051908101604052818152929190602084018383808284378201915050505050509190803590602001908201803590602001908080601f01602080910402602001604051908101604052818152929190602084018383808284378201915050505050509190806040019060028060200260405190810160405280929190826002602002808284378201915050505050919080608001906004806020026040519081016040529190828260808082843750939550612097945050505050565b3415610f9a57600080fd5b6103346004356123b1565b3415610fb057600080fd5b61048b600460e481600760e06040519081016040529190828260e080828437820191505050505091908060e001906007806020026040519081016040529190828260e08082843750939560ff8635811696602080820135831697506040808301359093169650929450608081019350606001358401808301929035918291601f83018190048102019051908101604052818152929190602084018383808284378201915050505050509190803590602001908201803590602001908080601f01602080910402602001604051908101604052818152929190602084018383808284378201915050505050509190803590602001908201803590602001908080601f0160208091040260200160405190810160405281815292919060208401838380828437509496505050833560ff169360208101359350604081013592506060013590506123c6565b341561110457600080fd5b61076f600460e481600760e06040519081016040529190828260e080828437820191505050505091908060e001906007806020026040519081016040529190828260e08082843750939560ff8635811696602080820135831697506040808301359093169650929450608081019350606001358401808301929035918291601f83018190048102019051908101604052818152929190602084018383808284378201915050505050509190803590602001908201803590602001908080601f01602080910402602001604051908101604052818152929190602084018383808284378201915050505050509190803590602001908201803590602001908080601f01602080910402602001604051908101604052818152929190602084018383808284375094965061251995505050505050565b341561124357600080fd5b61076f600160a060020a036004358116906024351661264d565b341561126857600080fd5b61076f600460e481600760e06040519081016040529190828260e080828437820191505050505091908060e001906007806020026040519081016040529190828260e08082843750939560ff8635811696602080820135831697506040808301359093169650929450608081019350606001358401808301929035918291601f83018190048102019051908101604052818152929190602084018383808284378201915050505050509190803590602001908201803590602001908080601f01602080910402602001604051908101604052818152929190602084018383808284378201915050505050509190803590602001908201803590602001908080601f01602080910402602001604051908101604052818152929190602084018383808284375094965061267695505050505050565b60006113a661445d565b6113ae61445d565b6000610280604051908101604052808e51600160a060020a031681526020018e60016020020151600160a060020a0316815260200160408f0151600160a060020a031681526020018d5181526020018d60016020020151815260200160608f0151600160a060020a031681526020018c5160ff16600181111561142d57fe5b600181111561143857fe5b81526020018c6001602002015160ff16600281111561145357fe5b600281111561145e57fe5b815260200160808f0151600160a060020a0316815260200160408d015160ff16600181111561148957fe5b600181111561149457fe5b8152602081018c9052604081018a905260600160a08f0151600160a060020a031681526020810188905260400160c08f0151600160a060020a0316815260200160408e0151815260200160608e0151815260200160808e0151815260200160a08e0151815260200160c08e0151905292506102806040519081016040528060e08f0151600160a060020a031681526020016101008f0151600160a060020a031681526020016101208f0151600160a060020a0316815260200160e08e015181526020016101008e015181526020016101408f0151600160a060020a0316815260200160608d015160ff16600181111561158957fe5b600181111561159457fe5b815260200160808d015160ff1660028111156115ac57fe5b60028111156115b757fe5b81526020016101608f0151600160a060020a0316815260200160a08d015160ff1660018111156115e357fe5b60018111156115ee57fe5b8152602081018b9052604081018990526060016101808f0151600160a060020a03168152602081018790526040016101a08f0151600160a060020a031681526020016101208e015181526020016101408e015181526020016101608e015181526020016101808e015181526020016101a08e0151905291506004600061167384612799565b6000191660001916815260200190815260200160002090506116b8838383604080519081016040528154600160a060020a03168152600190910154602082015261285c565b9d9c50505050505050505050505050565b6116d161445d565b610280604051908101604052808b51600160a060020a031681526020018b60016020020151600160a060020a0316815260200160408c0151600160a060020a031681526020018a5181526020018a60016020020151815260200160608c0151600160a060020a0316815260200189600181111561174a57fe5b815260200188600281111561175b57fe5b815260200160808c0151600160a060020a0316815260200187600181111561177f57fe5b8152602081018790526040810186905260600160a08c0151600160a060020a031681526020810185905260400160c08c0151600160a060020a0316815260200160408b0151815260200160608b0151815260200160808b0151815260200160a08b0151815260200160c08b0151905290506117fa8183612a1f565b50505050505050505050565b61180e614515565b611819848484612d6b565b50825b9392505050565b611967610280604051908101604052808d51600160a060020a031681526020018d60016020020151600160a060020a0316815260200160408e0151600160a060020a031681526020018c5181526020018c60016020020151815260200160608e0151600160a060020a031681526020018b600181111561189f57fe5b81526020018a60028111156118b057fe5b815260200160808e0151600160a060020a031681526020018960018111156118d457fe5b8152602081018990526040810188905260600160a08e0151600160a060020a031681526020810187905260400160c08e0151600160a060020a0316815260200160408d0151815260200160608d0151815260200160808d0151815260200160a08d0151815260200160c08d015190526060604051908101604090815260ff87168252602082018690528101849052612f75565b5050505050505050505050565b61197f338383612ff4565b81600160a060020a03166323b872dd33308460006040516020015260405160e060020a63ffffffff8616028152600160a060020a0393841660048201529190921660248201526044810191909152606401602060405180830381600087803b15156119e957600080fd5b6102c65a03f115156119fa57600080fd5b505050604051805190501515611a0f57600080fd5b5050565b600160a060020a03918216600090815260016020908152604080832093909416825291909152205490565b60046020526000908152604090208054600190910154600160a060020a039091169082565b6000611a70858486612d6b565b611a7b838684612d6b565b611a858584613088565b90505b949350505050565b6000611a9a61445d565b611aa261445d565b6000610280604051908101604052808e51600160a060020a031681526020018e60016020020151600160a060020a0316815260200160408f0151600160a060020a031681526020018d5181526020018d60016020020151815260200160608f0151600160a060020a031681526020018c5160ff166001811115611b2157fe5b6001811115611b2c57fe5b81526020018c6001602002015160ff166002811115611b4757fe5b6002811115611b5257fe5b815260200160808f0151600160a060020a0316815260200160408d015160ff166001811115611b7d57fe5b6001811115611b8857fe5b8152602081018c9052604081018a905260600160a08f0151600160a060020a031681526020810188905260400160c08f0151600160a060020a0316815260200160408e0151815260200160608e0151815260200160808e0151815260200160a08e0151815260200160c08e0151905292506102806040519081016040528060e08f0151600160a060020a031681526020016101008f0151600160a060020a031681526020016101208f0151600160a060020a0316815260200160e08e015181526020016101008e015181526020016101408f0151600160a060020a0316815260200160608d015160ff166001811115611c7d57fe5b6001811115611c8857fe5b815260200160808d015160ff166002811115611ca057fe5b6002811115611cab57fe5b81526020016101608f0151600160a060020a0316815260200160a08d015160ff166001811115611cd757fe5b6001811115611ce257fe5b8152602081018b9052604081018990526060016101808f0151600160a060020a03168152602081018790526040016101a08f0151600160a060020a031681526020016101208e015181526020016101408e015181526020016101608e015181526020016101808e015181526020016101a08e01519052915060046000611d6784612799565b6000191660001916815260200190815260200160002090506116b8838383604080519081016040528154600160a060020a03168152600190910154602082015261311e565b600160a060020a03338116600081815260208181526040808320948816808452948252808320549383526001825280832094835293905291822054611df191906131b2565b905080831115611e0057600080fd5b611e0b3385856131c4565b83600160a060020a031663a9059cbb838560006040516020015260405160e060020a63ffffffff8516028152600160a060020a0390921660048301526024820152604401602060405180830381600087803b1515611e6857600080fd5b6102c65a03f11515611e7957600080fd5b5050506040518051505050505050565b6000611e9361445d565b610280604051908101604052808e51600160a060020a031681526020018e60016020020151600160a060020a0316815260200160408f0151600160a060020a031681526020018d5181526020018d60016020020151815260200160608f0151600160a060020a031681526020018c6001811115611f0c57fe5b81526020018b6002811115611f1d57fe5b815260200160808f0151600160a060020a031681526020018a6001811115611f4157fe5b8152602081018a90526040810189905260600160a08f0151600160a060020a031681526020810188905260400160c08f0151600160a060020a0316815260200160408e0151815260200160608e0151815260200160808e0151815260200160a08e0151815260200160c08e0151905290506116b8611fbe82612799565b826060604051908101604090815260ff8a168252602082018990528101879052613377565b600354600160a060020a031681565b60056020526000908152604090205460ff1681565b6002546101009004600160a060020a031681565b600060208181529281526040808220909352908152205481565b600160209081526000928352604080842090915290825290205481565b600160a060020a0380831660008181526020818152604080832094861680845294825280832054938352600182528083209483529390529182205461181c91906131b2565b611967610280604051908101604052808d51600160a060020a031681526020018d60016020020151600160a060020a0316815260200160408e0151600160a060020a031681526020018c5181526020018c60016020020151815260200160608e0151600160a060020a031681526020018b5160ff16600181111561211757fe5b600181111561212257fe5b81526020018b6001602002015160ff16600281111561213d57fe5b600281111561214857fe5b815260200160808e0151600160a060020a0316815260200160408c015160ff16600181111561217357fe5b600181111561217e57fe5b8152602081018b90526040810189905260600160a08e0151600160a060020a031681526020810187905260400160c08e0151600160a060020a0316815260200160408d0151815260200160608d0151815260200160808d0151815260200160a08d0151815260200160c08d01519052606060405190810160405280855160ff1681526020018451815260200184600160200201519052610280604051908101604052808f60076020020151600160a060020a031681526020018f60086020020151600160a060020a031681526020018f60096020020151600160a060020a0316815260200160e08f015181526020016101008f015181526020018f600a6020020151600160a060020a0316815260200160608e015160ff1660018111156122a157fe5b60018111156122ac57fe5b815260200160808e015160ff1660028111156122c457fe5b60028111156122cf57fe5b81526020018f600b6020020151600160a060020a0316815260200160a08e015160ff1660018111156122fd57fe5b600181111561230857fe5b8152602081018c9052604081018a90526060018f600c6020020151600160a060020a03168152602081018890526040018f600d6020020151600160a060020a031681526020016101208f015181526020016101408f015181526020016101608f015181526020016101808f015181526020016101a08f01519052606060405190810160405280602088015160ff16815260200160408701518152602001606087015190526134cb565b60066020526000908152604090205460ff1681565b61250b610280604051908101604052808e51600160a060020a031681526020018e60016020020151600160a060020a0316815260200160408f0151600160a060020a031681526020018d5181526020018d60016020020151815260200160608f0151600160a060020a031681526020018c600181111561244257fe5b81526020018b600281111561245357fe5b815260200160808f0151600160a060020a031681526020018a600181111561247757fe5b8152602081018a90526040810189905260600160a08f0151600160a060020a031681526020810188905260400160c08f0151600160a060020a0316815260200160408e0151815260200160608e0151815260200160808e0151815260200160a08e0151815260200160c08e015190526060604051908101604090815260ff8816825260208201879052810185905283613879565b505050505050505050505050565b6000612640610280604051908101604052808b51600160a060020a031681526020018b60016020020151600160a060020a0316815260200160408c0151600160a060020a031681526020018a5181526020018a60016020020151815260200160608c0151600160a060020a0316815260200189600181111561259757fe5b81526020018860028111156125a857fe5b815260200160808c0151600160a060020a031681526020018760018111156125cc57fe5b8152602081018790526040810186905260600160a08c0151600160a060020a031681526020810185905260400160c08c0151600160a060020a0316815260200160408b0151815260200160608b0151815260200160808b0151815260200160a08b0151815260200160c08b015190526139d7565b9998505050505050505050565b600160a060020a0391821660009081526020818152604080832093909416825291909152205490565b6000612640610280604051908101604052808b51600160a060020a031681526020018b60016020020151600160a060020a0316815260200160408c0151600160a060020a031681526020018a5181526020018a60016020020151815260200160608c0151600160a060020a031681526020018960018111156126f457fe5b815260200188600281111561270557fe5b815260200160808c0151600160a060020a0316815260200187600181111561272957fe5b8152602081018790526040810186905260600160a08c0151600160a060020a031681526020810185905260400160c08c0151600160a060020a0316815260200160408b0151815260200160608b0151815260200160808b0151815260200160a08b0151815260200160c08b015190525b60006127a3614515565b600060408051908101604052601c81527f19457468657265756d205369676e6564204d6573736167653a0a33320000000060208201529150816127e585613a45565b6127ee86613bfc565b6040518084805190602001908083835b6020831061281d5780518252601f1990920191602091820191016127fe565b6001836020036101000a038019825116818451161790925250505091909101938452505060208201526040908101915051908190039020949350505050565b6000808460c00151600181111561286f57fe5b14801561288b575060018360c00151600181111561288957fe5b145b80156128b25750826101c00151600160a060020a0316846101c00151600160a060020a0316145b80156128ee575060006040840151600160a060020a031614806128ee57508360200151600160a060020a03168360400151600160a060020a0316145b801561292a575060006040850151600160a060020a0316148061292a57508260200151600160a060020a03168460400151600160a060020a0316145b801561298d5750600060a0840151600160a060020a031614801561295c5750600060a0850151600160a060020a031614155b8061298d5750600060a0840151600160a060020a03161415801561298d5750600060a0850151600160a060020a0316145b80156129b45750826101000151600160a060020a0316846101000151600160a060020a0316145b80156129df575082610120015160018111156129cc57fe5b84610120015160018111156129dd57fe5b145b80156129ff57506129ff8460e00151846020015186610240015185613cfb565b8015611a885750611a888360e00151856020015185610240015185613cfb565b60008260200151600160a060020a031633600160a060020a0316141515612a4557600080fd5b612a4e83612799565b60008181526006602052604090205490915060ff1615612a6d57600080fd5b6000818152600660205260409020805460ff1916600117905560a0830151600160a060020a03168360200151600160a060020a0316827faee3673166cb20f9607e8257375d5244a4f82611eb34a8319dd0b527e89460bf86518760400151886060015189608001518a60c001518b60e001518c61010001518d61012001518e6101400151604051600160a060020a03808b16825289166020820152604081018890526060810187905260808101866001811115612b2657fe5b60ff168152602001856002811115612b3a57fe5b60ff168152600160a060020a0385166020820152604001836001811115612b5d57fe5b60ff16815260200180602001828103825283818151815260200191508051906020019080838360005b83811015612b9e578082015183820152602001612b86565b50505050905090810190601f168015612bcb5780820380516001836020036101000a031916815260200191505b509a505050505050505050505060405180910390a4807f6b227a8fe336bb14cfe503246633ca4550cd8065f1933a5ffaf83a955eaa40ed610160850151856101800151866101a00151876101c00151886101e001518961020001518a61022001518b61024001518c61026001518c604051600160a060020a03808b166020830152881660608201526080810187905260a0810186905260c0810185905260e0810184905261010081018390528115156101208201526101408082528190604082019082018d818151815260200191508051906020019080838360005b83811015612cbf578082015183820152602001612ca7565b50505050905090810190601f168015612cec5780820380516001836020036101000a031916815260200191505b5083810382528b818151815260200191508051906020019080838360005b83811015612d22578082015183820152602001612d0a565b50505050905090810190601f168015612d4f5780820380516001836020036101000a031916815260200191505b509c5050505050505050505050505060405180910390a2505050565b612d73614527565b60008061010060405190810160409081527f800000000000000000000000000000000000000000000000000000000000000082527f400000000000000000000000000000000000000000000000000000000000000060208301527f2000000000000000000000000000000000000000000000000000000000000000908201527f100000000000000000000000000000000000000000000000000000000000000060608201527f080000000000000000000000000000000000000000000000000000000000000060808201527f040000000000000000000000000000000000000000000000000000000000000060a08201527f020000000000000000000000000000000000000000000000000000000000000060c082015260f860020a60e082015292508451865114612ea457600080fd5b60088651811515612eb157fe5b0484511015612ebf57600080fd5b600091505b8551821015612f6d57826008830660088110612edc57fe5b6020020151846008840481518110612ef057fe5b016020015160f860020a900460f860020a0216600160f860020a031916600060f860020a02149050801515612f6257848281518110612f2b57fe5b016020015160f860020a900460f860020a02868381518110612f4957fe5b906020010190600160f860020a031916908160001a9053505b600190910190612ec4565b505050505050565b6000612f818383613d4c565b90508260200151600160a060020a031633600160a060020a0316141515612fa757600080fd5b60008181526005602052604090819020805460ff1916600117905581907f5152abf959f6564662358c2e52b702259b78bac5ee7842a0f01937e670efcc7d905160405180910390a2505050565b600160a060020a03808416600090815260208181526040808320938616835292905220546130229082613d70565b600160a060020a0380851660008181526020818152604080832094881680845294909152908190209390935590917f4e45da441832cf53bdaa69235704fc0575e68210f459ee1562911024b12967d59084905190815260200160405180910390a3505050565b600080825184511461309d5760009150613117565b5060005b8351811015613112578281815181106130b657fe5b016020015160f860020a900460f860020a02600160f860020a0319168482815181106130de57fe5b016020015160f860020a900460f860020a02600160f860020a03191614151561310a5760009150613117565b6001016130a1565b600191505b5092915050565b600080600061314e8560c001518660e00151876101e001518861020001518961022001518a61024001518a613d7f565b915061317b8660c001518760e00151886101e001518961020001518a61022001518b61024001518a613d7f565b90508181101561318a57600080fd5b600060a0860151600160a060020a031614156131a657806131a8565b815b9695505050505050565b6000828211156131be57fe5b50900390565b600160a060020a03808416600081815260208181526040808320948716808452948252808320549383526001825280832094835293905291822054829161320a916131b2565b915082821061326a57600160a060020a038086166000908152602081815260408083209388168352929052205461324190846131b2565b600160a060020a0380871660009081526020818152604080832093891683529290522055613329565b61327483836131b2565b600160a060020a038087166000908152602081815260408083209389168084529390915280822082905592935090916323b872dd91889130918691516020015260405160e060020a63ffffffff8616028152600160a060020a0393841660048201529190921660248201526044810191909152606401602060405180830381600087803b151561330357600080fd5b6102c65a03f1151561331457600080fd5b50505060405180519050151561332957600080fd5b83600160a060020a031685600160a060020a03167f9407bd81f01ad8f5ae4a2487b63d3d1b1947257c2dcdda3ea183dc8e6965cc6e8560405190815260200160405180910390a35050505050565b6000600160a060020a0330168351600160a060020a03161461339b5750600061181c565b60008481526005602052604090205460ff16156133ba5750600061181c565b6133d28360c001518460e00151856102400151613e2d565b15156133e05750600061181c565b8260200151600160a060020a031633600160a060020a031614156134065750600161181c565b60008481526006602052604090205460ff16156134255750600161181c565b8260200151600160a060020a03166001858451856020015186604001516040516000815260200160405260006040516020015260405193845260ff90921660208085019190915260408085019290925260608401929092526080909201915160208103908084039060008661646e5a03f115156134a157600080fd5b505060206040510351600160a060020a031614156134c15750600161181c565b5060009392505050565b6000806134d6614550565b60025460009060ff16156134e957600080fd5b6002805460ff191660011790556135008888613d4c565b935061350c8686613d4c565b925060018660e00151600281111561352057fe5b141561355a57600083815260046020526040908190209080519081016040528154600160a060020a03168152600190910154602082015291505b61356588878461285c565b151561357057600080fd5b6000886101600151511115613599576135998861014001518761014001518a6101600151612d6b565b60008661016001515111156135c2576135c2866101400151896101400151886101600151612d6b565b6135d6886101400151876101400151613088565b15156135e157600080fd5b600354600160a060020a031663c4552791602088015160006040516020015260405160e060020a63ffffffff8416028152600160a060020a039091166004820152602401602060405180830381600087803b151561363e57600080fd5b6102c65a03f1151561364f57600080fd5b5050506040518051915050600160a060020a038116151561366f57600080fd5b6000848152600560205260408082208054600160ff19918216811790925586845291909220805490911690911790556136a9888784613e7c565b80600160a060020a0316631b0f7ba98761010001518861012001518961014001516000604051602001526040518463ffffffff1660e060020a0281526004018084600160a060020a0316600160a060020a0316815260200183600181111561370d57fe5b60ff16815260200180602001828103825283818151815260200191508051906020019080838360005b8381101561374e578082015183820152602001613736565b50505050905090810190601f16801561377b5780820380516001836020036101000a031916815260200191505b50945050505050602060405180830381600087803b151561379b57600080fd5b6102c65a03f115156137ac57600080fd5b5050506040518051905015156137c157600080fd5b6000610180890151600160a060020a0316146137fc576137f18861018001518761014001518a6101a00151613ffe565b15156137fc57600080fd5b6000610180870151600160a060020a0316146138375761382c866101800151876101400151886101a00151613ffe565b151561383757600080fd5b82847f0ac43ae443462c4ede260ad38899e594fa78238f3252539851b7b4395f3b043e60405160405180910390a350506002805460ff19169055505050505050565b60008060006138888686613d4c565b600081815260046020526040902090935091506138e260c08701518760e00151886101e001518961020001518a610240015187604080519081016040528154600160a060020a031681526001909101546020820152614103565b9050808410156138f157600080fd5b604080519081016040908152600160a060020a0333168252602080830187905260008681526004909152208151815473ffffffffffffffffffffffffffffffffffffffff1916600160a060020a03919091161781556020820151600190910155508154600160a060020a03161561398157815461398190600160a060020a03166101c0880151846001015461416d565b61399133876101c001518661421f565b600160a060020a033316837fff38b86de5d69f2775369319139dcab1f44807defd694708dd58e5d96ecd7c158660405190815260200160405180910390a3505050505050565b60008060006139e584612799565b60008181526004602052604090209092509050611a8860c08501518560e00151866101e0015187610200015188610220015189610240015187604080519081016040528154600160a060020a031681526001909101546020820152613d7f565b6000815182602001518360400151846060015185608001518660a001518760c001518860e001518961010001518a61012001518b61014001518c61016001516040516c01000000000000000000000000600160a060020a03808f16820283528d8116820260148401528c811682026028840152603c83018c9052605c83018b9052891602607c82015260908101876001811115613ade57fe5b60ff1660f860020a028152600101866002811115613af857fe5b60ff1660f860020a02815260010185600160a060020a0316600160a060020a03166c01000000000000000000000000028152601401846001811115613b3957fe5b60ff1660f860020a02815260010183805190602001908083835b60208310613b725780518252601f199092019160209182019101613b53565b6001836020036101000a038019825116818451161790925250505091909101905082805190602001908083835b60208310613bbe5780518252601f199092019160209182019101613b9f565b6001836020036101000a0380198251168184511617909252505050919091019d5060409c505050505050505050505050505180910390209050919050565b6000816101800151826101a00151836101c00151846101e001518561020001518661022001518761024001518861026001516040516c01000000000000000000000000600160a060020a038a160281526014810188805190602001908083835b60208310613c7b5780518252601f199092019160209182019101613c5c565b6001836020036101000a03801982511681845116808217855250505050505090500187600160a060020a0316600160a060020a03166c010000000000000000000000000281526014018681526020018581526020018481526020018381526020018281526020019850505050505050505060405180910390209050919050565b60006001856002811115613d0b57fe5b1415613d3a578151600160a060020a031684600160a060020a0316148015613d335750824210155b9050611a88565b821580613d3357508242109050611a88565b600080613d5884612799565b9050613d65818585613377565b151561181c57600080fd5b60008282018381101561181c57fe5b60008080886002811115613d8f57fe5b1415613d9d57869150613e21565b6001886002811115613dab57fe5b1415613dd55760008351600160a060020a03161415613dc957600080fd5b82602001519150613e21565b6002886002811115613de357fe5b1415610119578484038542038702811515613dfa57fe5b0490506001896001811115613e0b57fe5b1415613e1b578087039150613e21565b80870191505b50979650505050505050565b60006001836002811115613e3d57fe5b141580613e5557506001846001811115613e5357fe5b145b8015611a8857506000836002811115613e6a57fe5b1480611a885750506000901192915050565b6000613e8984848461311e565b9050600060a0840151600160a060020a031614613ee857836080015183608001511115613eb557600080fd5b613ecc83602001518460a0015185606001516143b8565b613ee384602001518460a0015185608001516143b8565b613f2b565b826080015184608001511115613efd57600080fd5b613f1484602001518560a0015186606001516143b8565b613f2b83602001518560a0015186608001516143b8565b60008251600160a060020a031614613f5257613f528251846101c00151846020015161416d565b6000811115613ff857826101c00151600160a060020a03166323b872dd856020015185602001518460006040516020015260405160e060020a63ffffffff8616028152600160a060020a0393841660048201529190921660248201526044810191909152606401602060405180830381600087803b1515613fd257600080fd5b6102c65a03f11515613fe357600080fd5b505050604051805190501515613ff857600080fd5b50505050565b6000614008614515565b6000806000855187510160405180591061401f5750595b818152601f19601f83011681016020016040529050935083519250600091505b85518210156140955785828151811061405457fe5b016020015160f860020a900460f860020a0284838151811061407257fe5b906020010190600160f860020a031916908160001a90535060019091019061403f565b5060005b86518110156140ef578681815181106140ae57fe5b016020015160f860020a900460f860020a028487518301815181106140cf57fe5b906020010190600160f860020a031916908160001a905350600101614099565b60008484868b5afa98975050505050505050565b6000600187600181111561411357fe5b14801561412b5750600186600281111561412957fe5b145b801561413657508242105b151561414157600080fd5b60008251600160a060020a0316141561415b5750836131a8565b83826020015101979650505050505050565b600160a060020a0380841660009081526001602090815260408083209386168352929052205461419d90826131b2565b600160a060020a03848116600090815260016020908152604080832093871683529290529081208290559010156141d357600080fd5b81600160a060020a031683600160a060020a03167fe6e0ef9cd056ca98561ca60e347ada61e1ede2f1142a078951b7a52e1e508e608360405190815260200160405180910390a3505050565b600160a060020a038084166000908152600160209081526040808320938616835292905290812054819081906142559085613d70565b600160a060020a038088166000818152600160209081526040808320948b1680845294825280832086905592825281815282822093825292909252902054909350915081831115614369576142aa83836131b2565b90506142b68282613d70565b600160a060020a03808816600090815260208181526040808320938a16808452939091528082209390935590916323b872dd91899130918691516020015260405160e060020a63ffffffff8616028152600160a060020a0393841660048201529190921660248201526044810191909152606401602060405180830381600087803b151561434357600080fd5b6102c65a03f1151561435457600080fd5b50505060405180519050151561436957600080fd5b84600160a060020a031686600160a060020a03167f989eaa915cbb416ea3d6f9a63b1a3de51770c7674b11fe21ecdf76b4e1d139108660405190815260200160405180910390a3505050505050565b6000811115614458576002546101009004600160a060020a03166323b872dd84848460006040516020015260405160e060020a63ffffffff8616028152600160a060020a0393841660048201529190921660248201526044810191909152606401602060405180830381600087803b151561443257600080fd5b6102c65a03f1151561444357600080fd5b50505060405180519050151561445857600080fd5b505050565b6102806040519081016040908152600080835260208301819052908201819052606082018190526080820181905260a0820181905260c0820181905260e08201819052610100820181905261012082015261014081016144bb614515565b81526020016144c8614515565b8152600060208201526040016144dc614515565b81526020016000600160a060020a0316815260200160008152602001600081526020016000815260200160008152602001600081525090565b60206040519081016040526000815290565b6101006040519081016040526008815b6000815260001990910190602001816145375790505090565b6040805190810160405260008082526020820152905600a165627a7a723058207c2a5922e1570af60767d92b7d340d152fe237dcf4d894063e3bf08ffdbd0b8d0029",
  "source": "/*\n  \n  Exchange (outer contract with public functions).\n \n*/\n\npragma solidity 0.4.18;\n\nimport \"./ExchangeCore.sol\";\n\n/**\n * @title Exchange\n * @author Project Wyvern Developers\n */\ncontract Exchange is ExchangeCore {\n\n    /* Inline library function exposed for testing. */\n    function guardedArrayReplace(bytes array, bytes desired, bytes mask)\n        public\n        pure\n        returns (bytes)\n    {\n        ArrayUtils.guardedArrayReplace(array, desired, mask);\n        return array;\n    }\n\n    /* Solidity ABI encoding limitation workaround, hopefully temporary. */\n    function hashOrder_(\n        address[7] addrs,\n        uint[7] uints,\n        SaleKindInterface.Side side,\n        SaleKindInterface.SaleKind saleKind,\n        AuthenticatedProxy.HowToCall howToCall,\n        bytes calldata,\n        bytes replacementPattern,\n        bytes staticExtradata)\n        public\n        pure\n        returns (bytes32)\n    { \n        return hashToSign(\n          Order(addrs[0], addrs[1], addrs[2], uints[0], uints[1], addrs[3], side, saleKind, addrs[4], howToCall, calldata, replacementPattern, addrs[5], staticExtradata, ERC20(addrs[6]), uints[2], uints[3], uints[4], uints[5], uints[6])\n        );\n    }\n\n    /* Solidity ABI encoding limitation workaround, hopefully temporary. */\n    function validateOrder_ (\n        address[7] addrs,\n        uint[7] uints,\n        SaleKindInterface.Side side,\n        SaleKindInterface.SaleKind saleKind,\n        AuthenticatedProxy.HowToCall howToCall,\n        bytes calldata,\n        bytes replacementPattern,\n        bytes staticExtradata,\n        uint8 v,\n        bytes32 r,\n        bytes32 s)\n        view\n        public\n        returns (bool)\n    {\n        Order memory order = Order(addrs[0], addrs[1], addrs[2], uints[0], uints[1], addrs[3], side, saleKind, addrs[4], howToCall, calldata, replacementPattern, addrs[5], staticExtradata, ERC20(addrs[6]), uints[2], uints[3], uints[4], uints[5], uints[6]);\n        return validateOrder(\n          hashToSign(order),\n          order,\n          Sig(v, r, s)\n        );\n    }\n\n    /* Solidity ABI encoding limitation workaround, hopefully temporary. */\n    function approveOrder_ (\n        address[7] addrs,\n        uint[7] uints,\n        SaleKindInterface.Side side,\n        SaleKindInterface.SaleKind saleKind,\n        AuthenticatedProxy.HowToCall howToCall,\n        bytes calldata,\n        bytes replacementPattern,\n        bytes staticExtradata,\n        bool orderbookInclusionDesired) \n        public\n    {\n        Order memory order = Order(addrs[0], addrs[1], addrs[2], uints[0], uints[1], addrs[3], side, saleKind, addrs[4], howToCall, calldata, replacementPattern, addrs[5], staticExtradata, ERC20(addrs[6]), uints[2], uints[3], uints[4], uints[5], uints[6]);\n        return approveOrder(order, orderbookInclusionDesired);\n    }\n\n    /* Solidity ABI encoding limitation workaround, hopefully temporary. */\n    function cancelOrder_(\n        address[7] addrs,\n        uint[7] uints,\n        SaleKindInterface.Side side,\n        SaleKindInterface.SaleKind saleKind,\n        AuthenticatedProxy.HowToCall howToCall,\n        bytes calldata,\n        bytes replacementPattern,\n        bytes staticExtradata,\n        uint8 v,\n        bytes32 r,\n        bytes32 s)\n        public\n    {\n\n        return cancelOrder(\n          Order(addrs[0], addrs[1], addrs[2], uints[0], uints[1], addrs[3], side, saleKind, addrs[4], howToCall, calldata, replacementPattern, addrs[5], staticExtradata, ERC20(addrs[6]), uints[2], uints[3], uints[4], uints[5], uints[6]),\n          Sig(v, r, s)\n        );\n    }\n\n    /* Solidity ABI encoding limitation workaround, hopefully temporary. */\n    function bid_(\n        address[7] addrs,\n        uint[7] uints,\n        SaleKindInterface.Side side,\n        SaleKindInterface.SaleKind saleKind,\n        AuthenticatedProxy.HowToCall howToCall,\n        bytes calldata,\n        bytes replacementPattern,\n        bytes staticExtradata,\n        uint8 v,\n        bytes32 r,\n        bytes32 s,\n        uint amount)\n        public\n    {\n        return bid(\n          Order(addrs[0], addrs[1], addrs[2], uints[0], uints[1], addrs[3], side, saleKind, addrs[4], howToCall, calldata, replacementPattern, addrs[5], staticExtradata, ERC20(addrs[6]), uints[2], uints[3], uints[4], uints[5], uints[6]),\n          Sig(v, r, s),\n          amount\n        );\n    }\n\n    /* Solidity ABI encoding limitation workaround, hopefully temporary. */\n    function calculateCurrentPrice_(\n        address[7] addrs,\n        uint[7] uints,\n        SaleKindInterface.Side side,\n        SaleKindInterface.SaleKind saleKind,\n        AuthenticatedProxy.HowToCall howToCall,\n        bytes calldata,\n        bytes replacementPattern,\n        bytes staticExtradata)\n        public\n        view\n        returns (uint)\n    {\n        return calculateCurrentPrice(\n          Order(addrs[0], addrs[1], addrs[2], uints[0], uints[1], addrs[3], side, saleKind, addrs[4], howToCall, calldata, replacementPattern, addrs[5], staticExtradata, ERC20(addrs[6]), uints[2], uints[3], uints[4], uints[5], uints[6])\n        );\n    }\n\n    /* Solidity ABI encoding limitation workaround, hopefully temporary. */\n    function ordersCanMatch_(\n        address[14] addrs,\n        uint[14] uints,\n        uint8[6] sidesKindsHowToCalls,\n        bytes calldataBuy,\n        bytes calldataSell,\n        bytes replacementPatternBuy,\n        bytes replacementPatternSell,\n        bytes staticExtradataBuy,\n        bytes staticExtradataSell)\n        public\n        view\n        returns (bool)\n    {\n        Order memory buy = Order(addrs[0], addrs[1], addrs[2], uints[0], uints[1], addrs[3], SaleKindInterface.Side(sidesKindsHowToCalls[0]), SaleKindInterface.SaleKind(sidesKindsHowToCalls[1]), addrs[4], AuthenticatedProxy.HowToCall(sidesKindsHowToCalls[2]), calldataBuy, replacementPatternBuy, addrs[5], staticExtradataBuy, ERC20(addrs[6]), uints[2], uints[3], uints[4], uints[5], uints[6]);\n        Order memory sell = Order(addrs[7], addrs[8], addrs[9], uints[7], uints[8], addrs[10], SaleKindInterface.Side(sidesKindsHowToCalls[3]), SaleKindInterface.SaleKind(sidesKindsHowToCalls[4]), addrs[11], AuthenticatedProxy.HowToCall(sidesKindsHowToCalls[5]), calldataSell, replacementPatternSell, addrs[12], staticExtradataSell, ERC20(addrs[13]), uints[9], uints[10], uints[11], uints[12], uints[13]);\n        SaleKindInterface.Bid storage topBid = topBids[hashToSign(sell)];\n        return ordersCanMatch(\n          buy,\n          sell,\n          topBid\n        );\n    }\n\n    function orderCalldataCanMatch(bytes buyCalldata, bytes buyReplacementPattern, bytes sellCalldata, bytes sellReplacementPattern)\n        public\n        pure\n        returns (bool)\n    {\n        ArrayUtils.guardedArrayReplace(buyCalldata, sellCalldata, buyReplacementPattern);\n        ArrayUtils.guardedArrayReplace(sellCalldata, buyCalldata, sellReplacementPattern);\n        return ArrayUtils.arrayEq(buyCalldata, sellCalldata);\n    }\n\n    /* Solidity ABI encoding limitation workaround, hopefully temporary. */\n    function calculateMatchPrice_(\n        address[14] addrs,\n        uint[14] uints,\n        uint8[6] sidesKindsHowToCalls,\n        bytes calldataBuy,\n        bytes calldataSell,\n        bytes replacementPatternBuy,\n        bytes replacementPatternSell,\n        bytes staticExtradataBuy,\n        bytes staticExtradataSell)\n        public\n        view\n        returns (uint)\n    {\n        Order memory buy = Order(addrs[0], addrs[1], addrs[2], uints[0], uints[1], addrs[3], SaleKindInterface.Side(sidesKindsHowToCalls[0]), SaleKindInterface.SaleKind(sidesKindsHowToCalls[1]), addrs[4], AuthenticatedProxy.HowToCall(sidesKindsHowToCalls[2]), calldataBuy, replacementPatternBuy, addrs[5], staticExtradataBuy, ERC20(addrs[6]), uints[2], uints[3], uints[4], uints[5], uints[6]);\n        Order memory sell = Order(addrs[7], addrs[8], addrs[9], uints[7], uints[8], addrs[10], SaleKindInterface.Side(sidesKindsHowToCalls[3]), SaleKindInterface.SaleKind(sidesKindsHowToCalls[4]), addrs[11], AuthenticatedProxy.HowToCall(sidesKindsHowToCalls[5]), calldataSell, replacementPatternSell, addrs[12], staticExtradataSell, ERC20(addrs[13]), uints[9], uints[10], uints[11], uints[12], uints[13]);\n        SaleKindInterface.Bid storage topBid = topBids[hashToSign(sell)];\n        return calculateMatchPrice(\n          buy,\n          sell,\n          topBid\n        );\n    }\n\n    /* Solidity ABI encoding limitation workaround, hopefully temporary. */\n    function atomicMatch_(\n        address[14] addrs,\n        uint[14] uints,\n        uint8[6] sidesKindsHowToCalls,\n        bytes calldataBuy,\n        bytes calldataSell,\n        bytes replacementPatternBuy,\n        bytes replacementPatternSell,\n        bytes staticExtradataBuy,\n        bytes staticExtradataSell,\n        uint8[2] vs,\n        bytes32[4] rss)\n        public\n    {\n        return atomicMatch(\n          Order(addrs[0], addrs[1], addrs[2], uints[0], uints[1], addrs[3], SaleKindInterface.Side(sidesKindsHowToCalls[0]), SaleKindInterface.SaleKind(sidesKindsHowToCalls[1]), addrs[4], AuthenticatedProxy.HowToCall(sidesKindsHowToCalls[2]), calldataBuy, replacementPatternBuy, addrs[5], staticExtradataBuy, ERC20(addrs[6]), uints[2], uints[3], uints[4], uints[5], uints[6]),\n          Sig(vs[0], rss[0], rss[1]),\n          Order(addrs[7], addrs[8], addrs[9], uints[7], uints[8], addrs[10], SaleKindInterface.Side(sidesKindsHowToCalls[3]), SaleKindInterface.SaleKind(sidesKindsHowToCalls[4]), addrs[11], AuthenticatedProxy.HowToCall(sidesKindsHowToCalls[5]), calldataSell, replacementPatternSell, addrs[12], staticExtradataSell, ERC20(addrs[13]), uints[9], uints[10], uints[11], uints[12], uints[13]),\n          Sig(vs[1], rss[2], rss[3])\n        );\n    }\n\n}\n",
  "sourcePath": "/home/cwgoes/working/crypto/wyvern/wyvern-ethereum/contracts/exchange/Exchange.sol",
  "compiler": {
    "name": "solc",
    "version": "0.4.18+commit.9cf6e910.Emscripten.clang"
  },
  "schemaVersion": "1.0.1",
  "updatedAt": "2018-01-31T21:47:36.813Z"
}