{
  "contractName": "Exchange",
  "abi": [
    {
      "constant": true,
      "inputs": [
        {
          "name": "",
          "type": "uint256"
        }
      ],
      "name": "topBids",
      "outputs": [
        {
          "name": "bidder",
          "type": "address"
        },
        {
          "name": "amount",
          "type": "uint256"
        }
      ],
      "payable": false,
      "stateMutability": "view",
      "type": "function"
    },
    {
      "constant": false,
      "inputs": [
        {
          "name": "provider",
          "type": "address"
        },
        {
          "name": "value",
          "type": "bool"
        }
      ],
      "name": "modifyEscrowProviderWhitelist",
      "outputs": [],
      "payable": false,
      "stateMutability": "nonpayable",
      "type": "function"
    },
    {
      "constant": true,
      "inputs": [],
      "name": "exchangeTokenAddress",
      "outputs": [
        {
          "name": "",
          "type": "address"
        }
      ],
      "payable": false,
      "stateMutability": "view",
      "type": "function"
    },
    {
      "constant": false,
      "inputs": [
        {
          "name": "id",
          "type": "uint256"
        },
        {
          "name": "amount",
          "type": "uint256"
        }
      ],
      "name": "bidOnItem",
      "outputs": [],
      "payable": false,
      "stateMutability": "nonpayable",
      "type": "function"
    },
    {
      "constant": true,
      "inputs": [],
      "name": "publicBeneficiary",
      "outputs": [
        {
          "name": "",
          "type": "address"
        }
      ],
      "payable": false,
      "stateMutability": "view",
      "type": "function"
    },
    {
      "constant": false,
      "inputs": [],
      "name": "unpause",
      "outputs": [],
      "payable": false,
      "stateMutability": "nonpayable",
      "type": "function"
    },
    {
      "constant": true,
      "inputs": [
        {
          "name": "",
          "type": "address"
        },
        {
          "name": "",
          "type": "address"
        }
      ],
      "name": "collectedFees",
      "outputs": [
        {
          "name": "",
          "type": "uint256"
        }
      ],
      "payable": false,
      "stateMutability": "view",
      "type": "function"
    },
    {
      "constant": true,
      "inputs": [],
      "name": "paused",
      "outputs": [
        {
          "name": "",
          "type": "bool"
        }
      ],
      "payable": false,
      "stateMutability": "view",
      "type": "function"
    },
    {
      "constant": true,
      "inputs": [],
      "name": "feeBid",
      "outputs": [
        {
          "name": "",
          "type": "uint256"
        }
      ],
      "payable": false,
      "stateMutability": "view",
      "type": "function"
    },
    {
      "constant": false,
      "inputs": [
        {
          "name": "token",
          "type": "address"
        },
        {
          "name": "value",
          "type": "bool"
        }
      ],
      "name": "modifyERC20Whitelist",
      "outputs": [],
      "payable": false,
      "stateMutability": "nonpayable",
      "type": "function"
    },
    {
      "constant": true,
      "inputs": [],
      "name": "feeList",
      "outputs": [
        {
          "name": "",
          "type": "uint256"
        }
      ],
      "payable": false,
      "stateMutability": "view",
      "type": "function"
    },
    {
      "constant": false,
      "inputs": [
        {
          "name": "id",
          "type": "uint256"
        }
      ],
      "name": "removeItem",
      "outputs": [],
      "payable": false,
      "stateMutability": "nonpayable",
      "type": "function"
    },
    {
      "constant": true,
      "inputs": [],
      "name": "registry",
      "outputs": [
        {
          "name": "",
          "type": "address"
        }
      ],
      "payable": false,
      "stateMutability": "view",
      "type": "function"
    },
    {
      "constant": false,
      "inputs": [
        {
          "name": "id",
          "type": "uint256"
        },
        {
          "name": "saleMetadataHash",
          "type": "bytes"
        }
      ],
      "name": "finalizeSale",
      "outputs": [],
      "payable": false,
      "stateMutability": "nonpayable",
      "type": "function"
    },
    {
      "constant": true,
      "inputs": [],
      "name": "numberOfItems",
      "outputs": [
        {
          "name": "",
          "type": "uint256"
        }
      ],
      "payable": false,
      "stateMutability": "view",
      "type": "function"
    },
    {
      "constant": false,
      "inputs": [],
      "name": "pause",
      "outputs": [],
      "payable": false,
      "stateMutability": "nonpayable",
      "type": "function"
    },
    {
      "constant": false,
      "inputs": [
        {
          "name": "listFee",
          "type": "uint256"
        },
        {
          "name": "bidFee",
          "type": "uint256"
        },
        {
          "name": "buyFee",
          "type": "uint256"
        },
        {
          "name": "ownerFee",
          "type": "uint256"
        },
        {
          "name": "publicBenefitFee",
          "type": "uint256"
        },
        {
          "name": "frontendFee",
          "type": "uint256"
        }
      ],
      "name": "setFees",
      "outputs": [],
      "payable": false,
      "stateMutability": "nonpayable",
      "type": "function"
    },
    {
      "constant": false,
      "inputs": [
        {
          "name": "newAddress",
          "type": "address"
        }
      ],
      "name": "setPublicBeneficiary",
      "outputs": [],
      "payable": false,
      "stateMutability": "nonpayable",
      "type": "function"
    },
    {
      "constant": true,
      "inputs": [],
      "name": "owner",
      "outputs": [
        {
          "name": "",
          "type": "address"
        }
      ],
      "payable": false,
      "stateMutability": "view",
      "type": "function"
    },
    {
      "constant": true,
      "inputs": [],
      "name": "feePublicBenefit",
      "outputs": [
        {
          "name": "",
          "type": "uint256"
        }
      ],
      "payable": false,
      "stateMutability": "view",
      "type": "function"
    },
    {
      "constant": false,
      "inputs": [
        {
          "name": "id",
          "type": "uint256"
        },
        {
          "name": "frontend",
          "type": "address"
        },
        {
          "name": "calldata",
          "type": "bytes"
        },
        {
          "name": "replace",
          "type": "bytes"
        },
        {
          "name": "start",
          "type": "uint256"
        },
        {
          "name": "length",
          "type": "uint256"
        },
        {
          "name": "v",
          "type": "uint8"
        },
        {
          "name": "r",
          "type": "bytes32"
        },
        {
          "name": "s",
          "type": "bytes32"
        }
      ],
      "name": "purchaseItem",
      "outputs": [],
      "payable": false,
      "stateMutability": "nonpayable",
      "type": "function"
    },
    {
      "constant": true,
      "inputs": [
        {
          "name": "",
          "type": "uint256"
        }
      ],
      "name": "sales",
      "outputs": [
        {
          "name": "buyer",
          "type": "address"
        },
        {
          "name": "metadataHash",
          "type": "bytes"
        }
      ],
      "payable": false,
      "stateMutability": "view",
      "type": "function"
    },
    {
      "constant": true,
      "inputs": [],
      "name": "feeOwner",
      "outputs": [
        {
          "name": "",
          "type": "uint256"
        }
      ],
      "payable": false,
      "stateMutability": "view",
      "type": "function"
    },
    {
      "constant": true,
      "inputs": [
        {
          "name": "",
          "type": "uint256"
        }
      ],
      "name": "items",
      "outputs": [
        {
          "name": "initiator",
          "type": "address"
        },
        {
          "name": "side",
          "type": "uint8"
        },
        {
          "name": "metadataHash",
          "type": "bytes"
        },
        {
          "name": "saleKind",
          "type": "uint8"
        },
        {
          "name": "paymentToken",
          "type": "address"
        },
        {
          "name": "basePrice",
          "type": "uint256"
        },
        {
          "name": "listingTime",
          "type": "uint256"
        },
        {
          "name": "expirationTime",
          "type": "uint256"
        },
        {
          "name": "extra",
          "type": "uint256"
        },
        {
          "name": "target",
          "type": "address"
        },
        {
          "name": "calldata",
          "type": "bytes"
        },
        {
          "name": "escrowProvider",
          "type": "address"
        },
        {
          "name": "removed",
          "type": "bool"
        }
      ],
      "payable": false,
      "stateMutability": "view",
      "type": "function"
    },
    {
      "constant": true,
      "inputs": [
        {
          "name": "",
          "type": "address"
        }
      ],
      "name": "escrowProviderWhitelist",
      "outputs": [
        {
          "name": "",
          "type": "bool"
        }
      ],
      "payable": false,
      "stateMutability": "view",
      "type": "function"
    },
    {
      "constant": true,
      "inputs": [],
      "name": "feeBuy",
      "outputs": [
        {
          "name": "",
          "type": "uint256"
        }
      ],
      "payable": false,
      "stateMutability": "view",
      "type": "function"
    },
    {
      "constant": true,
      "inputs": [],
      "name": "feeFrontend",
      "outputs": [
        {
          "name": "",
          "type": "uint256"
        }
      ],
      "payable": false,
      "stateMutability": "view",
      "type": "function"
    },
    {
      "constant": false,
      "inputs": [
        {
          "name": "side",
          "type": "uint8"
        },
        {
          "name": "metadataHash",
          "type": "bytes"
        },
        {
          "name": "saleKind",
          "type": "uint8"
        },
        {
          "name": "paymentToken",
          "type": "address"
        },
        {
          "name": "price",
          "type": "uint256"
        },
        {
          "name": "expirationTime",
          "type": "uint256"
        },
        {
          "name": "extra",
          "type": "uint256"
        },
        {
          "name": "target",
          "type": "address"
        },
        {
          "name": "calldata",
          "type": "bytes"
        },
        {
          "name": "escrowProvider",
          "type": "address"
        }
      ],
      "name": "listItem",
      "outputs": [
        {
          "name": "id",
          "type": "uint256"
        }
      ],
      "payable": false,
      "stateMutability": "nonpayable",
      "type": "function"
    },
    {
      "constant": true,
      "inputs": [
        {
          "name": "",
          "type": "address"
        }
      ],
      "name": "erc20Whitelist",
      "outputs": [
        {
          "name": "",
          "type": "bool"
        }
      ],
      "payable": false,
      "stateMutability": "view",
      "type": "function"
    },
    {
      "constant": false,
      "inputs": [
        {
          "name": "dest",
          "type": "address"
        },
        {
          "name": "token",
          "type": "address"
        }
      ],
      "name": "withdrawFees",
      "outputs": [],
      "payable": false,
      "stateMutability": "nonpayable",
      "type": "function"
    },
    {
      "constant": false,
      "inputs": [
        {
          "name": "newOwner",
          "type": "address"
        }
      ],
      "name": "transferOwnership",
      "outputs": [],
      "payable": false,
      "stateMutability": "nonpayable",
      "type": "function"
    },
    {
      "anonymous": false,
      "inputs": [
        {
          "indexed": false,
          "name": "id",
          "type": "uint256"
        },
        {
          "indexed": true,
          "name": "initiator",
          "type": "address"
        },
        {
          "indexed": false,
          "name": "side",
          "type": "uint8"
        },
        {
          "indexed": false,
          "name": "metadataHash",
          "type": "bytes"
        },
        {
          "indexed": false,
          "name": "saleKind",
          "type": "uint8"
        },
        {
          "indexed": false,
          "name": "paymentToken",
          "type": "address"
        },
        {
          "indexed": false,
          "name": "price",
          "type": "uint256"
        },
        {
          "indexed": false,
          "name": "timestamp",
          "type": "uint256"
        },
        {
          "indexed": false,
          "name": "expirationTime",
          "type": "uint256"
        },
        {
          "indexed": false,
          "name": "extra",
          "type": "uint256"
        },
        {
          "indexed": true,
          "name": "target",
          "type": "address"
        },
        {
          "indexed": false,
          "name": "calldata",
          "type": "bytes"
        },
        {
          "indexed": false,
          "name": "escrowProvider",
          "type": "address"
        }
      ],
      "name": "ItemListed",
      "type": "event"
    },
    {
      "anonymous": false,
      "inputs": [
        {
          "indexed": false,
          "name": "id",
          "type": "uint256"
        }
      ],
      "name": "ItemRemoved",
      "type": "event"
    },
    {
      "anonymous": false,
      "inputs": [
        {
          "indexed": false,
          "name": "id",
          "type": "uint256"
        },
        {
          "indexed": true,
          "name": "bidder",
          "type": "address"
        },
        {
          "indexed": false,
          "name": "amount",
          "type": "uint256"
        },
        {
          "indexed": false,
          "name": "timestamp",
          "type": "uint256"
        }
      ],
      "name": "ItemBidOn",
      "type": "event"
    },
    {
      "anonymous": false,
      "inputs": [
        {
          "indexed": false,
          "name": "id",
          "type": "uint256"
        },
        {
          "indexed": true,
          "name": "finalizer",
          "type": "address"
        },
        {
          "indexed": false,
          "name": "price",
          "type": "uint256"
        }
      ],
      "name": "ItemFinalized",
      "type": "event"
    },
    {
      "anonymous": false,
      "inputs": [
        {
          "indexed": false,
          "name": "id",
          "type": "uint256"
        },
        {
          "indexed": false,
          "name": "metadataHash",
          "type": "bytes"
        }
      ],
      "name": "SaleFinalized",
      "type": "event"
    },
    {
      "anonymous": false,
      "inputs": [
        {
          "indexed": true,
          "name": "newAddress",
          "type": "address"
        }
      ],
      "name": "PublicBeneficiaryChanged",
      "type": "event"
    },
    {
      "anonymous": false,
      "inputs": [],
      "name": "Pause",
      "type": "event"
    },
    {
      "anonymous": false,
      "inputs": [],
      "name": "Unpause",
      "type": "event"
    },
    {
      "anonymous": false,
      "inputs": [
        {
          "indexed": true,
          "name": "previousOwner",
          "type": "address"
        },
        {
          "indexed": true,
          "name": "newOwner",
          "type": "address"
        }
      ],
      "name": "OwnershipTransferred",
      "type": "event"
    }
  ],
  "bytecode": "0x606060405260008054600b829055600160a060020a033316600160a860020a03199091161790556129e0806100356000396000f3006060604052600436106101715763ffffffff60e060020a600035041663010d98138114610176578063049fd8e5146101ae5780630e5d2e21146101d4578063250d9d03146102035780633c67ce5f1461021c5780633f4ba83a1461022f5780634c97f766146102425780635c975abb146102795780635f1ae8aa146102a057806361a02d1f146102b3578063622ed7df146102d757806371329171146102ea5780637b103999146103005780637c9744c214610313578063842296d4146103695780638456cb591461037c57806386f6c3c11461038f5780638c7d73f0146103b45780638da5cb5b146103d357806394cfdc7c146103e65780639548e457146103f9578063b5f522f7146104bb578063b9818be114610569578063bfb231d21461057c578063c5555bae14610725578063c5b0fe9d14610744578063d216f36314610757578063d85df5181461076a578063f0dded2f14610840578063f25552781461085f578063f2fde38b14610884575b600080fd5b341561018157600080fd5b61018c6004356108a3565b604051600160a060020a03909216825260208201526040908101905180910390f35b34156101b957600080fd5b6101d2600160a060020a036004351660243515156108c8565b005b34156101df57600080fd5b6101e761090e565b604051600160a060020a03909116815260200160405180910390f35b341561020e57600080fd5b6101d260043560243561091d565b341561022757600080fd5b6101e7610d15565b341561023a57600080fd5b6101d2610d24565b341561024d57600080fd5b610267600160a060020a0360043581169060243516610da3565b60405190815260200160405180910390f35b341561028457600080fd5b61028c610dc0565b604051901515815260200160405180910390f35b34156102ab57600080fd5b610267610dd0565b34156102be57600080fd5b6101d2600160a060020a03600435166024351515610dd6565b34156102e257600080fd5b610267610e1c565b34156102f557600080fd5b6101d2600435610e22565b341561030b57600080fd5b6101e7610f56565b341561031e57600080fd5b6101d2600480359060446024803590810190830135806020601f82018190048102016040519081016040528181529291906020840183838082843750949650610f6595505050505050565b341561037457600080fd5b610267611069565b341561038757600080fd5b6101d261106f565b341561039a57600080fd5b6101d260043560243560443560643560843560a4356110f3565b34156103bf57600080fd5b6101d2600160a060020a036004351661112b565b34156103de57600080fd5b6101e7611193565b34156103f157600080fd5b6102676111a2565b341561040457600080fd5b6101d2600480359060248035600160a060020a0316919060649060443590810190830135806020601f8201819004810201604051908101604052818152929190602084018383808284378201915050505050509190803590602001908201803590602001908080601f016020809104026020016040519081016040528181529291906020840183838082843750949650508435946020810135945060ff6040820135169350606081013592506080013590506111a8565b34156104c657600080fd5b6104d1600435611774565b604051600160a060020a0383168152604060208201818152835460026000196101006001841615020190911604918301829052906060830190849080156105595780601f1061052e57610100808354040283529160200191610559565b820191906000526020600020905b81548152906001019060200180831161053c57829003601f168201915b5050935050505060405180910390f35b341561057457600080fd5b610267611794565b341561058757600080fd5b61059260043561179a565b604051600160a060020a038e168152602081018d60018111156105b157fe5b60ff168152602001806020018c60028111156105c957fe5b60ff168152600160a060020a038c81166020830152604082018c9052606082018b9052608082018a905260a0820189905287811660c0830152851661010080830191909152841515610120830152610140848303810184528f546002600182161590930260001901169190910490820181905260e082019161016001908f9080156106955780601f1061066a57610100808354040283529160200191610695565b820191906000526020600020905b81548152906001019060200180831161067857829003601f168201915b50508381038252865460026000196101006001841615020190911604808252602090910190879080156107095780601f106106de57610100808354040283529160200191610709565b820191906000526020600020905b8154815290600101906020018083116106ec57829003601f168201915b50509f5050505050505050505050505050505060405180910390f35b341561073057600080fd5b61028c600160a060020a036004351661181f565b341561074f57600080fd5b610267611834565b341561076257600080fd5b61026761183a565b341561077557600080fd5b6102676004803560ff169060446024803590810190830135806020601f820181900481020160405190810160405281815292919060208401838380828437509496863560ff1696602080820135600160a060020a0390811698506040808401359850606084013597506080840135965060a0840135909116945060e083019260c001358401808301929035918291601f83018190048102019051908101604052818152929190602084018383808284375094965050509235600160a060020a03169250611840915050565b341561084b57600080fd5b61028c600160a060020a0360043516611a06565b341561086a57600080fd5b6101d2600160a060020a0360043581169060243516611a1b565b341561088f57600080fd5b6101d2600160a060020a0360043516611ae2565b600d6020526000908152604090208054600190910154600160a060020a039091169082565b60005433600160a060020a039081169116146108e357600080fd5b600160a060020a03919091166000908152600f60205260409020805460ff1916911515919091179055565b600954600160a060020a031681565b600080548190819060a060020a900460ff161561093957600080fd5b600a805486916000918390811061094c57fe5b60009182526020909120600a9091020154600160a060020a03161480159061099e5750600a80548290811061097d57fe5b90600052602060002090600a020160090160149054906101000a900460ff16155b80156109bf57506000818152600c6020526040902054600160a060020a0316155b15156109ca57600080fd5b6003546000811115610a9957600954600160a060020a03166323b872dd33308460006040516020015260405160e060020a63ffffffff8616028152600160a060020a0393841660048201529190921660248201526044810191909152606401602060405180830381600087803b1515610a4257600080fd5b6102c65a03f11515610a5357600080fd5b505050604051805190501515610a6857600080fd5b60008054600160a060020a039081168252600860209081526040808420600954909316845291905290208054820190555b600a805488908110610aa757fe5b90600052602060002090600a02019450600d60008881526020019081526020016000209350610b188560020160009054906101000a900460ff1686600301548760060154886005015488604080519081016040528154600160a060020a031681526001909101546020820152611b70565b925082861015610b2757600080fd5b604080519081016040908152600160a060020a0333168252602080830189905260008a8152600d9091522081518154600160a060020a031916600160a060020a0391909116178155602082015160019091015550600160a060020a0333167fedbdaf67ea4453fcc482862ccaba0735eec45c5c0ae2757b2419b4676501ee1a88884260405180848152602001838152602001828152602001935050505060405180910390a28354600160a060020a031615610c7357600285015484546001860154600160a060020a0361010090930483169263a9059cbb92169060006040516020015260405160e060020a63ffffffff8516028152600160a060020a0390921660048301526024820152604401602060405180830381600087803b1515610c4d57600080fd5b6102c65a03f11515610c5e57600080fd5b505050604051805190501515610c7357600080fd5b60028501546101009004600160a060020a03166323b872dd33308960006040516020015260405160e060020a63ffffffff8616028152600160a060020a0393841660048201529190921660248201526044810191909152606401602060405180830381600087803b1515610ce657600080fd5b6102c65a03f11515610cf757600080fd5b505050604051805190501515610d0c57600080fd5b50505050505050565b600154600160a060020a031681565b60005433600160a060020a03908116911614610d3f57600080fd5b60005460a060020a900460ff161515610d5757600080fd5b6000805474ff0000000000000000000000000000000000000000191690557f7805862f689e2f13df9f062ff482ad3ad112aca9e0847911ed832e158c525b3360405160405180910390a1565b600860209081526000928352604080842090915290825290205481565b60005460a060020a900460ff1681565b60035481565b60005433600160a060020a03908116911614610df157600080fd5b600160a060020a03919091166000908152600e60205260409020805460ff1916911515919091179055565b60025481565b6000816000600160a060020a0316600a82815481101515610e3f57fe5b60009182526020909120600a9091020154600160a060020a031614801590610e915750600a805482908110610e7057fe5b90600052602060002090600a020160090160149054906101000a900460ff16155b8015610eb257506000818152600c6020526040902054600160a060020a0316155b1515610ebd57600080fd5b600a805484908110610ecb57fe5b60009182526020909120600a90910201805490925033600160a060020a03908116911614610ef857600080fd5b60098201805474ff0000000000000000000000000000000000000000191660a060020a1790557fa54eda4149a0fb9258911733973ecf1f6762357ed371fc6d1e63123bbce23bed8360405190815260200160405180910390a1505050565b601054600160a060020a031681565b33600160a060020a0316600a83815481101515610f7e57fe5b60009182526020909120600a9091020154600160a060020a031614610fa257600080fd5b6000828152600c60205260409020600101818051610fc49291602001906127e6565b507ff8ec7edc9d944cede56133886f7dced07c26ac8cb66297112b01fe0a3d3bb88f828260405182815260406020820181815290820183818151815260200191508051906020019080838360005b8381101561102a578082015183820152602001611012565b50505050905090810190601f1680156110575780820380516001836020036101000a031916815260200191505b50935050505060405180910390a15050565b600b5481565b60005433600160a060020a0390811691161461108a57600080fd5b60005460a060020a900460ff16156110a157600080fd5b6000805474ff0000000000000000000000000000000000000000191660a060020a1790557f6985a02210a168e66602d3235cb6db0e70f92b3ba4d376a33c0f3d9434bff62560405160405180910390a1565b60005433600160a060020a0390811691161461110e57600080fd5b600295909555600393909355600491909155600555600655600755565b60005433600160a060020a0390811691161461114657600080fd5b60018054600160a060020a031916600160a060020a0383169081179091557f75bc54ec05807e503aeca115d3b49191b7b0c03f198054480392bf913cc5033c60405160405180910390a250565b600054600160a060020a031681565b60065481565b60008054819060a060020a900460ff16156111c257600080fd5b600a80548c91600091839081106111d557fe5b60009182526020909120600a9091020154600160a060020a0316148015906112275750600a80548290811061120657fe5b90600052602060002090600a020160090160149054906101000a900460ff16155b801561124857506000818152600c6020526040902054600160a060020a0316155b151561125357600080fd5b600454600081111561132257600954600160a060020a03166323b872dd33308460006040516020015260405160e060020a63ffffffff8616028152600160a060020a0393841660048201529190921660248201526044810191909152606401602060405180830381600087803b15156112cb57600080fd5b6102c65a03f115156112dc57600080fd5b5050506040518051905015156112f157600080fd5b60008054600160a060020a039081168252600860209081526040808420600954909316845291905290208054820190555b600a80548e90811061133057fe5b90600052602060002090600a02019350600d60008e815260200190815260200160002092506115e08d856101a06040519081016040528154600160a060020a0381168252909190602083019060a060020a900460ff16600181111561139157fe5b600181111561139c57fe5b8152602001600182018054600181600116156101000203166002900480601f0160208091040260200160405190810160405280929190818152602001828054600181600116156101000203166002900480156114395780601f1061140e57610100808354040283529160200191611439565b820191906000526020600020905b81548152906001019060200180831161141c57829003601f168201915b505050918352505060028281015460209092019160ff169081111561145a57fe5b600281111561146557fe5b81526020016002820160019054906101000a9004600160a060020a0316600160a060020a0316600160a060020a03168152602001600382015481526020016004820154815260200160058201548152602001600682015481526020016007820160009054906101000a9004600160a060020a0316600160a060020a0316600160a060020a03168152602001600882018054600181600116156101000203166002900480601f0160208091040260200160405190810160405280929190818152602001828054600181600116156101000203166002900480156115885780601f1061155d57610100808354040283529160200191611588565b820191906000526020600020905b81548152906001019060200180831161156b57829003601f168201915b505050918352505060099190910154600160a060020a038116602083015260a060020a900460ff161515604091820152869080519081016040528154600160a060020a0316815260019091015460208201528f611bc4565b60105461176590600160a060020a031663c45527916000875460a060020a900460ff16600181111561160e57fe5b14611623578654600160a060020a0316611625565b335b60006040516020015260405160e060020a63ffffffff8416028152600160a060020a039091166004820152602401602060405180830381600087803b151561166c57600080fd5b6102c65a03f1151561167d57600080fd5b505050604051805160078701549091508f90600160a060020a03166000885460a060020a900460ff1660018111156116b157fe5b146116bc578e61175a565b876008018054600181600116156101000203166002900480601f0160208091040260200160405190810160405280929190818152602001828054600181600116156101000203166002900480156117545780601f1061172957610100808354040283529160200191611754565b820191906000526020600020905b81548152906001019060200180831161173757829003601f168201915b50505050505b8e8e8e8e8e8e612153565b50505050505050505050505050565b600c6020526000908152604090208054600160a060020a03169060010182565b60055481565b600a8054829081106117a857fe5b60009182526020909120600a9091020180546002820154600383015460048401546005850154600686015460078701546009880154600160a060020a038089169a5060ff60a060020a998a900481169a600181019a8a83169a6101009004841699989796958416946008909201938216929104168d565b600f6020526000908152604090205460ff1681565b60045481565b60075481565b6000805460a060020a900460ff161561185857600080fd5b600254600081111561192757600954600160a060020a03166323b872dd33308460006040516020015260405160e060020a63ffffffff8616028152600160a060020a0393841660048201529190921660248201526044810191909152606401602060405180830381600087803b15156118d057600080fd5b6102c65a03f115156118e157600080fd5b5050506040518051905015156118f657600080fd5b60008054600160a060020a039081168252600860209081526040808420600954909316845291905290208054820190555b600160a060020a03831615806119555750600160a060020a0383166000908152600f602052604090205460ff165b151561196057600080fd5b600160a060020a0389166000908152600e602052604090205460ff16151561198757600080fd5b60018a600281111561199557fe5b1415806119ad575060018c60018111156119ab57fe5b145b15156119b857600080fd5b6119c28a886122f0565b15156119cd57600080fd5b8615806119d957504287115b15156119e457600080fd5b6119f68c8c8c8c8c8c8c8c8c8c612314565b9c9b505050505050505050505050565b600e6020526000908152604090205460ff1681565b6000805460a060020a900460ff1615611a3357600080fd5b50600160a060020a03338116600090815260086020908152604080832093851680845293909152808220805490839055929163a9059cbb9186918591516020015260405160e060020a63ffffffff8516028152600160a060020a0390921660048301526024820152604401602060405180830381600087803b1515611ab757600080fd5b6102c65a03f11515611ac857600080fd5b505050604051805190501515611add57600080fd5b505050565b60005433600160a060020a03908116911614611afd57600080fd5b600160a060020a0381161515611b1257600080fd5b600054600160a060020a0380831691167f8be0079c531659141344cd1fd0a4f28419497f9722a3daafe3b4186f6b6457e060405160405180910390a360008054600160a060020a031916600160a060020a0392909216919091179055565b60006001866002811115611b8057fe5b148015611b8c57508242105b1515611b9757600080fd5b60008251600160a060020a03161415611bb1575083611bbb565b8382602001510190505b95945050505050565b6000806000806000806000611be28a606001518b60e001518b61270d565b1515611bed57600080fd5b601054600090600160a060020a031663c4552791828d602001516001811115611c1257fe5b14611c1e578c51611c20565b335b60006040516020015260405160e060020a63ffffffff8416028152600160a060020a039091166004820152602401602060405180830381600087803b1515611c6757600080fd5b6102c65a03f11515611c7857600080fd5b50505060405180519050600160a060020a031614151515611c9857600080fd5b611cbb8a606001518b60a001518c61010001518d60c001518e60e001518e61275d565b965060008a602001516001811115611ccf57fe5b14611cda5733611cdd565b89515b955060008a602001516001811115611cf157fe5b14611cfd578951611cff565b335b60055490955061271090880260008054600160a060020a0316815260086020526040812092909104955085919060808d0151600160a060020a03168152602081019190915260400160002080549091019055600654612710908802600154600160a060020a0316600090815260086020526040812092909104945084919060808d0151600160a060020a03168152602081019190915260400160002080549091019055600754612710908802600160a060020a038a16600090815260086020526040812092909104935083919060808d0151600160a060020a0316600160a060020a031681526020019081526020016000206000828254019250508190555081838589030303905033600160a060020a03167fef00846d5bb661b6bb5990a0981b5dae92fc0b8ed5adc62b116b07b312b4edf88c8960405191825260208201526040908101905180910390a2604080519081016040528033600160a060020a031681526020016000604051805910611e745750595b818152601f19601f83011681016020016040529050905260008c8152600c6020526040902081518154600160a060020a031916600160a060020a0391909116178155602082015181600101908051611ed09291602001906127e6565b50600091508a905051600160a060020a03161415611f7c578960800151600160a060020a03166323b872dd87308a60006040516020015260405160e060020a63ffffffff8616028152600160a060020a0393841660048201529190921660248201526044810191909152606401602060405180830381600087803b1515611f5657600080fd5b6102c65a03f11515611f6757600080fd5b505050604051805190501515611f7c57600080fd5b60006101608b0151600160a060020a0316146120bf578960800151600160a060020a031663095ea7b38b61016001518360006040516020015260405160e060020a63ffffffff8516028152600160a060020a0390921660048301526024820152604401602060405180830381600087803b1515611ff857600080fd5b6102c65a03f1151561200957600080fd5b505050604051805150506101608a0151600160a060020a031663f4be2a088c88888e608001518660006040516020015260405160e060020a63ffffffff88160281526004810195909552600160a060020a03938416602486015291831660448501529091166064830152608482015260a401602060405180830381600087803b151561209457600080fd5b6102c65a03f115156120a557600080fd5b5050506040518051905015156120ba57600080fd5b612146565b8960800151600160a060020a031663a9059cbb868360006040516020015260405160e060020a63ffffffff8516028152600160a060020a0390921660048301526024820152604401602060405180830381600087803b151561212057600080fd5b6102c65a03f1151561213157600080fd5b50505060405180519050151561214657600080fd5b5050505050505050505050565b89600160a060020a03166312711d378a8a8a8a8a8a8a8a8a60006040516020015260405160e060020a63ffffffff8c16028152600481018a8152600160a060020a038a1660248301526084820187905260a4820186905260ff851660c483015260e4820184905261010482018390526101206044830190815290916064810190610124018a818151815260200191508051906020019080838360005b838110156122075780820151838201526020016121ef565b50505050905090810190601f1680156122345780820380516001836020036101000a031916815260200191505b50838103825289818151815260200191508051906020019080838360005b8381101561226a578082015183820152602001612252565b50505050905090810190601f1680156122975780820380516001836020036101000a031916815260200191505b509b505050505050505050505050602060405180830381600087803b15156122be57600080fd5b6102c65a03f115156122cf57600080fd5b5050506040518051905015156122e457600080fd5b50505050505050505050565b6000600183600281111561230057fe5b14158061230d5750600082115b9392505050565b600b80546001808201909255600a8054919290919081016123358382612864565b91600052602060002090600a020160006101a06040519081016040528033600160a060020a031681526020018f600181111561236d57fe5b81526020018e81526020018d600281111561238457fe5b8152600160a060020a03808e166020830152604082018d9052426060830152608082018c905260a082018b905289811660c083015260e08201899052871661010082015260006101209091015291905081518154600160a060020a031916600160a060020a039190911617815560208201518154829074ff0000000000000000000000000000000000000000191660a060020a83600181111561242357fe5b02179055506040820151816001019080516124429291602001906127e6565b5060608201518160020160006101000a81548160ff0219169083600281111561246757fe5b021790555060808201518160020160016101000a815481600160a060020a030219169083600160a060020a0316021790555060a0820151816003015560c0820151816004015560e082015181600501556101008201518160060155610120820151600782018054600160a060020a031916600160a060020a0392909216919091179055610140820151816008019080516125059291602001906127e6565b50610160820151600982018054600160a060020a031916600160a060020a03929092169190911790556101808201516009909101805491151560a060020a0274ff0000000000000000000000000000000000000000199092169190911790555050600160a060020a038085169033167f90f21ef173ec9160d58be658fbddf61d8b998f757a6e462582e7fdad01b3044d838e8e8e8e8e428f8f8e8e604051808c81526020018b60018111156125b657fe5b60ff168152602001806020018a60028111156125ce57fe5b60ff16815260200189600160a060020a0316600160a060020a031681526020018881526020018781526020018681526020018581526020018060200184600160a060020a0316600160a060020a0316815260200183810383528c818151815260200191508051906020019080838360005b8381101561265757808201518382015260200161263f565b50505050905090810190601f1680156126845780820380516001836020036101000a031916815260200191505b50838103825285818151815260200191508051906020019080838360005b838110156126ba5780820151838201526020016126a2565b50505050905090810190601f1680156126e75780820380516001836020036101000a031916815260200191505b509d505050505050505050505050505060405180910390a39a9950505050505050505050565b6000600184600281111561271d57fe5b141561274c578151600160a060020a031633600160a060020a03161480156127455750824210155b905061230d565b821580612745575050504210919050565b60008087600281111561276c57fe5b14156127795750846127dc565b600187600281111561278757fe5b14156127b15760008251600160a060020a031614156127a557600080fd5b816020015190506127dc565b60028760028111156127bf57fe5b14156101715783830384420386028115156127d657fe5b04860390505b9695505050505050565b828054600181600116156101000203166002900490600052602060002090601f016020900481019282601f1061282757805160ff1916838001178555612854565b82800160010185558215612854579182015b82811115612854578251825591602001919060010190612839565b50612860929150612890565b5090565b815481835581811511611add57600a0281600a028360005260206000209182019101611add91906128ad565b6128aa91905b808211156128605760008155600101612896565b90565b6128aa91905b8082111561286057805474ffffffffffffffffffffffffffffffffffffffffff1916815560006128e6600183018261296d565b60028201805474ffffffffffffffffffffffffffffffffffffffffff19169055600060038301819055600483018190556005830181905560068301819055600783018054600160a060020a031916905561294490600884019061296d565b5060098101805474ffffffffffffffffffffffffffffffffffffffffff19169055600a016128b3565b50805460018160011615610100020316600290046000825580601f1061299357506129b1565b601f0160209004906000526020600020908101906129b19190612890565b505600a165627a7a7230582054631c3ee3f00b9b56cd65242d66ce5ecce1bbd5224029e4315e0ce11c35f8870029",
  "source": "/*\n\n  Decentralized digital item exchange.\n\n  Let us suppose two agents interacting with a distributed ledger have utility functions preferencing certain states of that ledger over others.\n  Aiming to maximize their utility, these agents may construct with their utility functions along with the present ledger state a mapping of state transitions (transactions) to marginal utilities.\n  Any composite state transition with positive marginal utility for and enactable by the combined permissions of both agents thus is a mutually desirable trade, and the trustless \n  code execution provided by a distributed ledger renders the requisite atomicity trivial.\n\n  Relative to this model, the present Exchange instantiation makes two concessions to practicality:\n  - State transition preferences are not matched directly but instead intermediated by a standard of tokenized value.\n  - A small fee is charged in the token of payment, split equally between protocol development, frontend compensation, and a chosen public beneficiary.\n\n  Solidity presently possesses neither a strong functional typesystem nor runtime reflection, so we must be a bit clever in implementation.\n\n  Buy intent    :: State transition, from address unspecified\n  Sell intent   :: State transition -> bool (must be true), from address specified\n\n  TODO: \n  - Checks - effects - interactions\n  - Clarify sale kind interface, other auction types\n   \n  (offchain => think about spam prevention, maybe intermediaries keep orderbooks, this *also* solves frontend fee enforcement since intermediary can enforce)\n\n  *Build complete testnet prototype and user test before audit / mainnet deployment.*\n\n*/\n\npragma solidity 0.4.18;\n\nimport \"zeppelin-solidity/contracts/token/ERC20.sol\";\nimport \"zeppelin-solidity/contracts/ownership/Ownable.sol\";\nimport \"zeppelin-solidity/contracts/lifecycle/Pausable.sol\";\n\nimport \"../registry/Registry.sol\";\nimport \"../escrow/EscrowProvider.sol\";\nimport \"./SaleKindInterface.sol\";\n\n/**\n * @title Exchange\n * @author Project Wyvern Developers\n */\ncontract Exchange is Ownable, Pausable {\n\n    /* The owner address of the exchange (a) can withdraw fees periodically and (b) can change the fee amounts, escrow settings, and whitelists. */\n\n    /* Public benefit address. */\n    address public publicBeneficiary; \n\n    /* The fee required to list an item for sale. */\n    uint public feeList;\n  \n    /* The fee required to bid on an item. */\n    uint public feeBid;\n\n    /* The fee required to buy an item. */\n    uint public feeBuy;\n\n    /* Transaction percentage fee paid to contract owner, in basis points. */\n    uint public feeOwner;\n\n    /* Transaction percentage fee paid to public beneficiary, in basis points. */\n    uint public feePublicBenefit;\n\n    /* Transaction percentage fee paid to frontend, in basis points. */\n    uint public feeFrontend;\n\n    /* Current collected fees available for withdrawal, by owner, by token. */\n    mapping(address => mapping(address => uint)) public collectedFees;\n\n    // TODO Genericize this for middle transfer layer, withdraw pattern.\n\n    /* The token used to pay exchange fees. */\n    ERC20 public exchangeTokenAddress;\n\n    /* All items that have ever been listed. */\n    Item[] public items;\n\n    /* Number of items ever listed. */\n    uint public numberOfItems = 0;\n\n    /* All sales that have ever occurred. */\n    mapping(uint => Sale) public sales;\n\n    /* Top bids for all bid-supporting auctions. */\n    mapping(uint => SaleKindInterface.Bid) public topBids;\n\n    /* ERC20 whitelist. */\n    mapping(address => bool) public erc20Whitelist;\n\n    /* Escrow provider whitelist. */\n    mapping(address => bool) public escrowProviderWhitelist;\n\n    /* User registry. */\n    Registry public registry;\n\n    /* Side enum. */\n    enum Side { Buy, Sell }\n\n    /* An item listed for sale on the exchange. */\n    struct Item {\n        /* The address buying/selling the item. */\n        address initiator;\n        /* Side of sell. */\n        Side side;\n        /* Item metadata IPFS hash. */\n        bytes metadataHash;\n        /* The kind of sale. */\n        SaleKindInterface.SaleKind saleKind;\n        /* Token used to pay for the item. */\n        ERC20 paymentToken;\n        /* Base price of the item (tokens). */\n        uint basePrice;\n        /* Listing timestamp. */\n        uint listingTime;\n        /* Expiration timestamp - 0 for no expiry. */\n        uint expirationTime;\n        /* Auction extra parameter - minimum bid increment for English auctions, decay factor for Dutch auctions. */\n        uint extra;\n        /* Target, for buy-side orders. */\n        address target;\n        /* Calldata, for buy-side orders. */\n        bytes calldata;\n        /* The escrow provider contract, which is paid a fee to arbitrage escrow disputes and must provide specific functions. 0 for no escrow. */\n        EscrowProvider escrowProvider;\n        /* Whether or not the listing has been removed. */\n        bool removed;\n\n        /* Note: most of this (all except metadata hash, initiator, and removed?) could be stored on IPFS and validated with ecrecover on-demand. Not sure if the gas costs would be cheaper for the average use case or not. */\n    }\n\n    struct Sale {\n        /* Address of the buyer. */\n        address buyer;\n        /* Sale metadata IPFS hash. */\n        bytes metadataHash;\n    }\n\n    event ItemListed    (uint id, address indexed initiator, Side side, bytes metadataHash, SaleKindInterface.SaleKind saleKind, ERC20 paymentToken, uint price, uint timestamp, uint expirationTime, uint extra, address indexed target, bytes calldata, EscrowProvider escrowProvider);\n    event ItemRemoved   (uint id);\n    event ItemBidOn     (uint id, address indexed bidder, uint amount, uint timestamp);\n    event ItemFinalized (uint id, address indexed finalizer, uint price);\n    event SaleFinalized (uint id, bytes metadataHash);\n    event PublicBeneficiaryChanged (address indexed newAddress);\n\n    modifier requiresActiveItem (uint id) {\n        require((items[id].initiator != address(0)) && (!items[id].removed) && (sales[id].buyer == address(0)));\n        _;\n    }\n\n    modifier costs (uint amount) {\n        if (amount > 0) {\n            require(exchangeTokenAddress.transferFrom(msg.sender, this, amount));\n            collectedFees[owner][exchangeTokenAddress] += amount;\n        }\n        _;\n    }\n\n    function setPublicBeneficiary(address newAddress)\n        public\n        onlyOwner\n    {\n        publicBeneficiary = newAddress;\n        PublicBeneficiaryChanged(newAddress);\n    }\n\n    function modifyERC20Whitelist(address token, bool value)\n        public\n        onlyOwner\n    {\n        erc20Whitelist[token] = value;\n    }\n\n    function modifyEscrowProviderWhitelist(address provider, bool value)\n        public\n        onlyOwner\n    {\n        escrowProviderWhitelist[provider] = value;\n    }\n\n    function withdrawFees(address dest, address token)\n        public\n        whenNotPaused\n    {\n        uint amount = collectedFees[msg.sender][token];\n        collectedFees[msg.sender][token] = 0;\n        require(ERC20(token).transfer(dest, amount));\n    }\n\n    function setFees(uint listFee, uint bidFee, uint buyFee, uint ownerFee, uint publicBenefitFee, uint frontendFee)\n        public\n        onlyOwner\n    {\n        feeList = listFee;\n        feeBid = bidFee;\n        feeBuy = buyFee;\n        feeOwner = ownerFee;\n        feePublicBenefit = publicBenefitFee;\n        feeFrontend = frontendFee;\n    }\n\n    function listItem(Side side, bytes metadataHash, SaleKindInterface.SaleKind saleKind, ERC20 paymentToken, uint price, uint expirationTime, uint extra, address target, bytes calldata, EscrowProvider escrowProvider)\n        public\n        whenNotPaused\n        costs (feeList)\n        returns (uint id)\n    {\n\n        /* Escrow provider must be whitelisted. */\n        require((escrowProvider == address(0)) || escrowProviderWhitelist[escrowProvider]);\n\n        /* Payment token must be whitelisted. */\n        require(erc20Whitelist[paymentToken]);\n\n        /* Buy-side listings cannot be English auctions. */\n        require(saleKind != SaleKindInterface.SaleKind.EnglishAuction || side == Side.Sell);\n\n        /* Parameters must validate. */\n        require(SaleKindInterface.validateParameters(saleKind, expirationTime));\n        \n        /* Expiration time must be zero or past now. */\n        require(expirationTime == 0 || expirationTime > now);\n\n        return writeItem(side, metadataHash, saleKind, paymentToken, price, expirationTime, extra, target, calldata, escrowProvider);\n\n    }\n\n    /**\n  \n      Separated due to Solidity compiler constraints.\n          \n     */\n    function writeItem(Side side, bytes metadataHash, SaleKindInterface.SaleKind saleKind, ERC20 paymentToken, uint price, uint expirationTime, uint extra, address target, bytes calldata, EscrowProvider escrowProvider)\n        internal\n        returns (uint id)\n    {\n\n        id = numberOfItems;\n        numberOfItems += 1;\n        items.push(Item(msg.sender, side, metadataHash, saleKind, paymentToken, price, now, expirationTime, extra, target, calldata, escrowProvider, false));\n        ItemListed(id, msg.sender, side, metadataHash, saleKind, paymentToken, price, now, expirationTime, extra, target, calldata, escrowProvider);\n        return id;\n  \n    }\n\n    function removeItem (uint id)\n        public\n        requiresActiveItem(id)\n    {\n        Item storage item = items[id];\n        require(item.initiator == msg.sender);\n        item.removed = true;\n        ItemRemoved(id);\n    }\n\n    function bidOnItem (uint id, uint amount)\n        public\n        whenNotPaused\n        requiresActiveItem (id)\n        costs (feeBid)\n    {\n        Item storage item = items[id];\n        SaleKindInterface.Bid storage topBid = topBids[id];\n        \n        /* Calculated required bid price. */\n        uint requiredBidPrice = SaleKindInterface.requiredBidPrice(item.saleKind, item.basePrice, item.extra, item.expirationTime, topBid);\n\n        /* Assert bid amount is sufficient. */\n        require(amount >= requiredBidPrice);\n\n        /* Store the new high bid. */\n        topBids[id] = SaleKindInterface.Bid(msg.sender, amount);\n\n        /* Log the bid event. */\n        ItemBidOn(id, msg.sender, amount, now);\n\n        /* Return locked tokens to the previous high bidder, if existent. */\n        if (topBid.bidder != address(0)) {\n            // TODO Swap me to withdraw pattern?\n            // could also allow to fail (tokens locked in that case)\n            require(item.paymentToken.transfer(topBid.bidder, topBid.amount));\n        }\n\n        /* Lock tokens for the new high bidder. */\n        require(item.paymentToken.transferFrom(msg.sender, this, amount));\n \n    }\n\n    function validateTradeAndExecuteFundsTransfer (uint id, Item item, SaleKindInterface.Bid topBid, address frontend)\n        internal\n    {\n        /* Ensure that the item can be purchased. */\n        require(SaleKindInterface.canPurchaseItem(item.saleKind, item.expirationTime, topBid));\n\n        /* Ensure that the proxy exists. */\n        require(registry.proxies(item.side == Side.Buy ? msg.sender : item.initiator) != address(0));\n\n        /* Calculate the purchase price and transfer the tokens from the buyer. */\n        uint price = SaleKindInterface.calculateFinalPrice(item.saleKind, item.basePrice, item.extra, item.listingTime, item.expirationTime, topBid);\n\n        /* Select payer/payee. */\n        address payer = item.side == Side.Buy ? item.initiator : msg.sender;\n        address payee = item.side == Side.Buy ? msg.sender : item.initiator;\n\n        /* Calculate and credit the owner fee. */\n        uint feeToOwner = price * feeOwner / 10000;\n        collectedFees[owner][item.paymentToken] += feeToOwner;\n      \n        /* Calculate and credit the public benefit fee. */\n        uint feeToPublicBenefit = price * feePublicBenefit / 10000;\n        collectedFees[publicBeneficiary][item.paymentToken] += feeToPublicBenefit;\n\n        /* Calculate and credit the frontend fee. */\n        uint feeToFrontend = price * feeFrontend / 10000;\n        collectedFees[frontend][item.paymentToken] += feeToFrontend;\n\n        /* Calculate final price (what the seller will receive). */\n        uint finalPrice = price - feeToOwner - feeToPublicBenefit - feeToFrontend;\n\n        /* Log the purchase event. */\n        ItemFinalized(id, msg.sender, price);\n\n        /* Record the sale. */\n        sales[id] = Sale(msg.sender, new bytes(0));\n\n        /* Withdraw tokens from payer, unless tokens were already sent with the high bid. */\n        if (topBid.bidder == address(0)) {\n            require(item.paymentToken.transferFrom(payer, this, price));\n        }\n\n        /* Send funds to the escrow provider, if one is being used. Else send funds directly to seller. */\n        if (item.escrowProvider != address(0)) {\n            item.paymentToken.approve(item.escrowProvider, finalPrice);\n            require(item.escrowProvider.holdInEscrow(id, payer, payee, item.paymentToken, finalPrice));\n        } else {\n            require(item.paymentToken.transfer(payee, finalPrice));\n        }\n        \n    }\n\n    function proxyCall(AuthenticatedProxy proxy, uint id, address target, bytes calldata, bytes replace, uint start, uint length, uint8 v, bytes32 r, bytes32 s)\n        internal\n    {\n        /* Execute the function. */\n        require(proxy.proxy(id, target, calldata, replace, start, length, v, r, s));\n    }\n\n    /* Called by a buyer to purchase an item or finalize an auction they have won. Frontend address provided by the frontend. */\n    function purchaseItem (uint id, address frontend, bytes calldata, bytes replace, uint start, uint length, uint8 v, bytes32 r, bytes32 s)\n        public\n        whenNotPaused\n        requiresActiveItem(id)\n        costs (feeBuy)\n    {\n      \n        Item storage item = items[id];\n        SaleKindInterface.Bid storage topBid = topBids[id];\n\n        /* Execute funds transfer. */\n        validateTradeAndExecuteFundsTransfer(id, item, topBid, frontend);\n\n        /* Proxy the call. */\n        proxyCall(\n            /* Source proxy: buyer for buy-side, seller for sell-side. */\n            registry.proxies(item.side == Side.Buy ? msg.sender : item.initiator),\n            /* Item ID, used to prevent replay attacks. */\n            id,\n            /* Item-specified target. */\n            item.target,\n            /* Calldata: item calldata for buy-side, specified calldata for sell-side. */\n            item.side == Side.Buy ? item.calldata : calldata,\n            /* Remaining parameters. */\n            replace, start, length, v, r, s);\n\n    }\n\n    /* Called by the seller of an item to finalize sale to the buyer, linking the IPFS metadata. */\n    function finalizeSale (uint id, bytes saleMetadataHash)  \n        public\n    {\n        require(items[id].initiator == msg.sender);\n        sales[id].metadataHash = saleMetadataHash;\n        SaleFinalized(id, saleMetadataHash);\n    }\n\n}\n",
  "sourcePath": "/home/cwgoes/working/crypto/wyvern/wyvern-ethereum/contracts/exchange/Exchange.sol",
  "compiler": {
    "name": "solc",
    "version": "0.4.18+commit.9cf6e910.Emscripten.clang"
  },
  "schemaVersion": "1.0.1",
  "updatedAt": "2018-01-02T21:45:28.850Z"
}