{
  "contractName": "Exchange",
  "abi": [
    {
      "constant": true,
      "inputs": [],
      "name": "tokenTransferProxy",
      "outputs": [
        {
          "name": "",
          "type": "address"
        }
      ],
      "payable": false,
      "stateMutability": "view",
      "type": "function"
    },
    {
      "constant": true,
      "inputs": [
        {
          "name": "target",
          "type": "address"
        },
        {
          "name": "calldata",
          "type": "bytes"
        },
        {
          "name": "extradata",
          "type": "bytes"
        }
      ],
      "name": "staticCall",
      "outputs": [
        {
          "name": "result",
          "type": "bool"
        }
      ],
      "payable": false,
      "stateMutability": "view",
      "type": "function"
    },
    {
      "constant": false,
      "inputs": [
        {
          "name": "newMinimumMakerProtocolFee",
          "type": "uint256"
        }
      ],
      "name": "changeMinimumMakerProtocolFee",
      "outputs": [],
      "payable": false,
      "stateMutability": "nonpayable",
      "type": "function"
    },
    {
      "constant": false,
      "inputs": [
        {
          "name": "newMinimumTakerProtocolFee",
          "type": "uint256"
        }
      ],
      "name": "changeMinimumTakerProtocolFee",
      "outputs": [],
      "payable": false,
      "stateMutability": "nonpayable",
      "type": "function"
    },
    {
      "constant": true,
      "inputs": [
        {
          "name": "array",
          "type": "bytes"
        },
        {
          "name": "desired",
          "type": "bytes"
        },
        {
          "name": "mask",
          "type": "bytes"
        }
      ],
      "name": "guardedArrayReplace",
      "outputs": [
        {
          "name": "",
          "type": "bytes"
        }
      ],
      "payable": false,
      "stateMutability": "pure",
      "type": "function"
    },
    {
      "constant": true,
      "inputs": [],
      "name": "minimumTakerProtocolFee",
      "outputs": [
        {
          "name": "",
          "type": "uint256"
        }
      ],
      "payable": false,
      "stateMutability": "view",
      "type": "function"
    },
    {
      "constant": true,
      "inputs": [
        {
          "name": "addrs",
          "type": "address[7]"
        },
        {
          "name": "uints",
          "type": "uint256[9]"
        },
        {
          "name": "feeMethod",
          "type": "uint8"
        },
        {
          "name": "side",
          "type": "uint8"
        },
        {
          "name": "saleKind",
          "type": "uint8"
        },
        {
          "name": "howToCall",
          "type": "uint8"
        },
        {
          "name": "calldata",
          "type": "bytes"
        },
        {
          "name": "replacementPattern",
          "type": "bytes"
        },
        {
          "name": "staticExtradata",
          "type": "bytes"
        }
      ],
      "name": "calculateCurrentPrice_",
      "outputs": [
        {
          "name": "",
          "type": "uint256"
        }
      ],
      "payable": false,
      "stateMutability": "view",
      "type": "function"
    },
    {
      "constant": false,
      "inputs": [
        {
          "name": "newProtocolFeeRecipient",
          "type": "address"
        }
      ],
      "name": "changeProtocolFeeRecipient",
      "outputs": [],
      "payable": false,
      "stateMutability": "nonpayable",
      "type": "function"
    },
    {
      "constant": true,
      "inputs": [
        {
          "name": "buyCalldata",
          "type": "bytes"
        },
        {
          "name": "buyReplacementPattern",
          "type": "bytes"
        },
        {
          "name": "sellCalldata",
          "type": "bytes"
        },
        {
          "name": "sellReplacementPattern",
          "type": "bytes"
        }
      ],
      "name": "orderCalldataCanMatch",
      "outputs": [
        {
          "name": "",
          "type": "bool"
        }
      ],
      "payable": false,
      "stateMutability": "pure",
      "type": "function"
    },
    {
      "constant": true,
      "inputs": [
        {
          "name": "addrs",
          "type": "address[7]"
        },
        {
          "name": "uints",
          "type": "uint256[9]"
        },
        {
          "name": "feeMethod",
          "type": "uint8"
        },
        {
          "name": "side",
          "type": "uint8"
        },
        {
          "name": "saleKind",
          "type": "uint8"
        },
        {
          "name": "howToCall",
          "type": "uint8"
        },
        {
          "name": "calldata",
          "type": "bytes"
        },
        {
          "name": "replacementPattern",
          "type": "bytes"
        },
        {
          "name": "staticExtradata",
          "type": "bytes"
        },
        {
          "name": "v",
          "type": "uint8"
        },
        {
          "name": "r",
          "type": "bytes32"
        },
        {
          "name": "s",
          "type": "bytes32"
        }
      ],
      "name": "validateOrder_",
      "outputs": [
        {
          "name": "",
          "type": "bool"
        }
      ],
      "payable": false,
      "stateMutability": "view",
      "type": "function"
    },
    {
      "constant": true,
      "inputs": [
        {
          "name": "side",
          "type": "uint8"
        },
        {
          "name": "saleKind",
          "type": "uint8"
        },
        {
          "name": "basePrice",
          "type": "uint256"
        },
        {
          "name": "extra",
          "type": "uint256"
        },
        {
          "name": "listingTime",
          "type": "uint256"
        },
        {
          "name": "expirationTime",
          "type": "uint256"
        }
      ],
      "name": "calculateFinalPrice",
      "outputs": [
        {
          "name": "",
          "type": "uint256"
        }
      ],
      "payable": false,
      "stateMutability": "view",
      "type": "function"
    },
    {
      "constant": true,
      "inputs": [],
      "name": "protocolFeeRecipient",
      "outputs": [
        {
          "name": "",
          "type": "address"
        }
      ],
      "payable": false,
      "stateMutability": "view",
      "type": "function"
    },
    {
      "constant": true,
      "inputs": [
        {
          "name": "addrs",
          "type": "address[7]"
        },
        {
          "name": "uints",
          "type": "uint256[9]"
        },
        {
          "name": "feeMethod",
          "type": "uint8"
        },
        {
          "name": "side",
          "type": "uint8"
        },
        {
          "name": "saleKind",
          "type": "uint8"
        },
        {
          "name": "howToCall",
          "type": "uint8"
        },
        {
          "name": "calldata",
          "type": "bytes"
        },
        {
          "name": "replacementPattern",
          "type": "bytes"
        },
        {
          "name": "staticExtradata",
          "type": "bytes"
        }
      ],
      "name": "hashOrder_",
      "outputs": [
        {
          "name": "",
          "type": "bytes32"
        }
      ],
      "payable": false,
      "stateMutability": "pure",
      "type": "function"
    },
    {
      "constant": true,
      "inputs": [
        {
          "name": "addrs",
          "type": "address[14]"
        },
        {
          "name": "uints",
          "type": "uint256[18]"
        },
        {
          "name": "feeMethodsSidesKindsHowToCalls",
          "type": "uint8[8]"
        },
        {
          "name": "calldataBuy",
          "type": "bytes"
        },
        {
          "name": "calldataSell",
          "type": "bytes"
        },
        {
          "name": "replacementPatternBuy",
          "type": "bytes"
        },
        {
          "name": "replacementPatternSell",
          "type": "bytes"
        },
        {
          "name": "staticExtradataBuy",
          "type": "bytes"
        },
        {
          "name": "staticExtradataSell",
          "type": "bytes"
        }
      ],
      "name": "ordersCanMatch_",
      "outputs": [
        {
          "name": "",
          "type": "bool"
        }
      ],
      "payable": false,
      "stateMutability": "view",
      "type": "function"
    },
    {
      "constant": false,
      "inputs": [
        {
          "name": "addrs",
          "type": "address[7]"
        },
        {
          "name": "uints",
          "type": "uint256[9]"
        },
        {
          "name": "feeMethod",
          "type": "uint8"
        },
        {
          "name": "side",
          "type": "uint8"
        },
        {
          "name": "saleKind",
          "type": "uint8"
        },
        {
          "name": "howToCall",
          "type": "uint8"
        },
        {
          "name": "calldata",
          "type": "bytes"
        },
        {
          "name": "replacementPattern",
          "type": "bytes"
        },
        {
          "name": "staticExtradata",
          "type": "bytes"
        },
        {
          "name": "orderbookInclusionDesired",
          "type": "bool"
        }
      ],
      "name": "approveOrder_",
      "outputs": [],
      "payable": false,
      "stateMutability": "nonpayable",
      "type": "function"
    },
    {
      "constant": true,
      "inputs": [],
      "name": "registry",
      "outputs": [
        {
          "name": "",
          "type": "address"
        }
      ],
      "payable": false,
      "stateMutability": "view",
      "type": "function"
    },
    {
      "constant": true,
      "inputs": [],
      "name": "minimumMakerProtocolFee",
      "outputs": [
        {
          "name": "",
          "type": "uint256"
        }
      ],
      "payable": false,
      "stateMutability": "view",
      "type": "function"
    },
    {
      "constant": true,
      "inputs": [
        {
          "name": "",
          "type": "bytes32"
        }
      ],
      "name": "cancelledOrFinalized",
      "outputs": [
        {
          "name": "",
          "type": "bool"
        }
      ],
      "payable": false,
      "stateMutability": "view",
      "type": "function"
    },
    {
      "constant": true,
      "inputs": [],
      "name": "owner",
      "outputs": [
        {
          "name": "",
          "type": "address"
        }
      ],
      "payable": false,
      "stateMutability": "view",
      "type": "function"
    },
    {
      "constant": true,
      "inputs": [],
      "name": "exchangeToken",
      "outputs": [
        {
          "name": "",
          "type": "address"
        }
      ],
      "payable": false,
      "stateMutability": "view",
      "type": "function"
    },
    {
      "constant": false,
      "inputs": [
        {
          "name": "addrs",
          "type": "address[7]"
        },
        {
          "name": "uints",
          "type": "uint256[9]"
        },
        {
          "name": "feeMethod",
          "type": "uint8"
        },
        {
          "name": "side",
          "type": "uint8"
        },
        {
          "name": "saleKind",
          "type": "uint8"
        },
        {
          "name": "howToCall",
          "type": "uint8"
        },
        {
          "name": "calldata",
          "type": "bytes"
        },
        {
          "name": "replacementPattern",
          "type": "bytes"
        },
        {
          "name": "staticExtradata",
          "type": "bytes"
        },
        {
          "name": "v",
          "type": "uint8"
        },
        {
          "name": "r",
          "type": "bytes32"
        },
        {
          "name": "s",
          "type": "bytes32"
        }
      ],
      "name": "cancelOrder_",
      "outputs": [],
      "payable": false,
      "stateMutability": "nonpayable",
      "type": "function"
    },
    {
      "constant": false,
      "inputs": [
        {
          "name": "addrs",
          "type": "address[14]"
        },
        {
          "name": "uints",
          "type": "uint256[18]"
        },
        {
          "name": "feeMethodsSidesKindsHowToCalls",
          "type": "uint8[8]"
        },
        {
          "name": "calldataBuy",
          "type": "bytes"
        },
        {
          "name": "calldataSell",
          "type": "bytes"
        },
        {
          "name": "replacementPatternBuy",
          "type": "bytes"
        },
        {
          "name": "replacementPatternSell",
          "type": "bytes"
        },
        {
          "name": "staticExtradataBuy",
          "type": "bytes"
        },
        {
          "name": "staticExtradataSell",
          "type": "bytes"
        },
        {
          "name": "vs",
          "type": "uint8[2]"
        },
        {
          "name": "rssMetadata",
          "type": "bytes32[5]"
        }
      ],
      "name": "atomicMatch_",
      "outputs": [],
      "payable": true,
      "stateMutability": "payable",
      "type": "function"
    },
    {
      "constant": true,
      "inputs": [
        {
          "name": "addrs",
          "type": "address[7]"
        },
        {
          "name": "uints",
          "type": "uint256[9]"
        },
        {
          "name": "feeMethod",
          "type": "uint8"
        },
        {
          "name": "side",
          "type": "uint8"
        },
        {
          "name": "saleKind",
          "type": "uint8"
        },
        {
          "name": "howToCall",
          "type": "uint8"
        },
        {
          "name": "calldata",
          "type": "bytes"
        },
        {
          "name": "replacementPattern",
          "type": "bytes"
        },
        {
          "name": "staticExtradata",
          "type": "bytes"
        }
      ],
      "name": "validateOrderParameters_",
      "outputs": [
        {
          "name": "",
          "type": "bool"
        }
      ],
      "payable": false,
      "stateMutability": "view",
      "type": "function"
    },
    {
      "constant": true,
      "inputs": [],
      "name": "INVERSE_BASIS_POINT",
      "outputs": [
        {
          "name": "",
          "type": "uint256"
        }
      ],
      "payable": false,
      "stateMutability": "view",
      "type": "function"
    },
    {
      "constant": true,
      "inputs": [
        {
          "name": "addrs",
          "type": "address[14]"
        },
        {
          "name": "uints",
          "type": "uint256[18]"
        },
        {
          "name": "feeMethodsSidesKindsHowToCalls",
          "type": "uint8[8]"
        },
        {
          "name": "calldataBuy",
          "type": "bytes"
        },
        {
          "name": "calldataSell",
          "type": "bytes"
        },
        {
          "name": "replacementPatternBuy",
          "type": "bytes"
        },
        {
          "name": "replacementPatternSell",
          "type": "bytes"
        },
        {
          "name": "staticExtradataBuy",
          "type": "bytes"
        },
        {
          "name": "staticExtradataSell",
          "type": "bytes"
        }
      ],
      "name": "calculateMatchPrice_",
      "outputs": [
        {
          "name": "",
          "type": "uint256"
        }
      ],
      "payable": false,
      "stateMutability": "view",
      "type": "function"
    },
    {
      "constant": true,
      "inputs": [
        {
          "name": "",
          "type": "bytes32"
        }
      ],
      "name": "approvedOrders",
      "outputs": [
        {
          "name": "",
          "type": "bool"
        }
      ],
      "payable": false,
      "stateMutability": "view",
      "type": "function"
    },
    {
      "constant": false,
      "inputs": [
        {
          "name": "newOwner",
          "type": "address"
        }
      ],
      "name": "transferOwnership",
      "outputs": [],
      "payable": false,
      "stateMutability": "nonpayable",
      "type": "function"
    },
    {
      "anonymous": false,
      "inputs": [
        {
          "indexed": true,
          "name": "hash",
          "type": "bytes32"
        },
        {
          "indexed": false,
          "name": "exchange",
          "type": "address"
        },
        {
          "indexed": true,
          "name": "maker",
          "type": "address"
        },
        {
          "indexed": false,
          "name": "taker",
          "type": "address"
        },
        {
          "indexed": false,
          "name": "makerRelayerFee",
          "type": "uint256"
        },
        {
          "indexed": false,
          "name": "takerRelayerFee",
          "type": "uint256"
        },
        {
          "indexed": false,
          "name": "makerProtocolFee",
          "type": "uint256"
        },
        {
          "indexed": false,
          "name": "takerProtocolFee",
          "type": "uint256"
        },
        {
          "indexed": true,
          "name": "feeRecipient",
          "type": "address"
        },
        {
          "indexed": false,
          "name": "feeMethod",
          "type": "uint8"
        },
        {
          "indexed": false,
          "name": "side",
          "type": "uint8"
        },
        {
          "indexed": false,
          "name": "saleKind",
          "type": "uint8"
        },
        {
          "indexed": false,
          "name": "target",
          "type": "address"
        }
      ],
      "name": "OrderApprovedPartOne",
      "type": "event"
    },
    {
      "anonymous": false,
      "inputs": [
        {
          "indexed": true,
          "name": "hash",
          "type": "bytes32"
        },
        {
          "indexed": false,
          "name": "howToCall",
          "type": "uint8"
        },
        {
          "indexed": false,
          "name": "calldata",
          "type": "bytes"
        },
        {
          "indexed": false,
          "name": "replacementPattern",
          "type": "bytes"
        },
        {
          "indexed": false,
          "name": "staticTarget",
          "type": "address"
        },
        {
          "indexed": false,
          "name": "staticExtradata",
          "type": "bytes"
        },
        {
          "indexed": false,
          "name": "paymentToken",
          "type": "address"
        },
        {
          "indexed": false,
          "name": "basePrice",
          "type": "uint256"
        },
        {
          "indexed": false,
          "name": "extra",
          "type": "uint256"
        },
        {
          "indexed": false,
          "name": "listingTime",
          "type": "uint256"
        },
        {
          "indexed": false,
          "name": "expirationTime",
          "type": "uint256"
        },
        {
          "indexed": false,
          "name": "salt",
          "type": "uint256"
        },
        {
          "indexed": false,
          "name": "orderbookInclusionDesired",
          "type": "bool"
        }
      ],
      "name": "OrderApprovedPartTwo",
      "type": "event"
    },
    {
      "anonymous": false,
      "inputs": [
        {
          "indexed": true,
          "name": "hash",
          "type": "bytes32"
        }
      ],
      "name": "OrderCancelled",
      "type": "event"
    },
    {
      "anonymous": false,
      "inputs": [
        {
          "indexed": false,
          "name": "buyHash",
          "type": "bytes32"
        },
        {
          "indexed": false,
          "name": "sellHash",
          "type": "bytes32"
        },
        {
          "indexed": true,
          "name": "maker",
          "type": "address"
        },
        {
          "indexed": true,
          "name": "taker",
          "type": "address"
        },
        {
          "indexed": false,
          "name": "price",
          "type": "uint256"
        },
        {
          "indexed": true,
          "name": "metadata",
          "type": "bytes32"
        }
      ],
      "name": "OrdersMatched",
      "type": "event"
    },
    {
      "anonymous": false,
      "inputs": [
        {
          "indexed": true,
          "name": "previousOwner",
          "type": "address"
        },
        {
          "indexed": true,
          "name": "newOwner",
          "type": "address"
        }
      ],
      "name": "OwnershipTransferred",
      "type": "event"
    }
  ],
  "bytecode": "0x60606040526000805460068290556007829055600160a060020a03331661010002600160a860020a03199091161790556147358061003e6000396000f3006060604052600436106101455763ffffffff60e060020a6000350416630eefdbad811461014a57806310796a471461017957806314350c241461022e5780631a6b13e214610246578063239e83df1461025c57806328a8ee68146103a85780633f67ee0d146103cd578063514f03301461051a578063562b2ebc1461053957806360bef33a1461065057806363d36c0b146107ad57806364df049e146107d857806371d02b38146107eb57806372593b4c146109385780637966686814610b505780637b10399914610ca15780637ccefc5214610cb45780638076f00514610cc75780638da5cb5b14610cdd578063a25eb5d914610cf0578063a8a41c7014610d03578063ab834bab14610e60578063ca595b9a146110c1578063cae6047f1461120e578063d537e13114611221578063e57d4adb14611439578063f2fde38b1461144f575b600080fd5b341561015557600080fd5b61015d61146e565b604051600160a060020a03909116815260200160405180910390f35b341561018457600080fd5b61021a60048035600160a060020a03169060446024803590810190830135806020601f8201819004810201604051908101604052818152929190602084018383808284378201915050505050509190803590602001908201803590602001908080601f01602080910402602001604051908101604052818152929190602084018383808284375094965061147d95505050505050565b604051901515815260200160405180910390f35b341561023957600080fd5b610244600435611588565b005b341561025157600080fd5b6102446004356115ad565b341561026757600080fd5b61033160046024813581810190830135806020601f8201819004810201604051908101604052818152929190602084018383808284378201915050505050509190803590602001908201803590602001908080601f01602080910402602001604051908101604052818152929190602084018383808284378201915050505050509190803590602001908201803590602001908080601f0160208091040260200160405190810160405281815292919060208401838380828437509496506115d295505050505050565b60405160208082528190810183818151815260200191508051906020019080838360005b8381101561036d578082015183820152602001610355565b50505050905090810190601f16801561039a5780820380516001836020036101000a031916815260200191505b509250505060405180910390f35b34156103b357600080fd5b6103bb6115ef565b60405190815260200160405180910390f35b34156103d857600080fd5b6103bb600460e481600760e06040519081016040529190828260e08082843782019150505050509190806101200190600980602002604051908101604052919082826101208082843750939560ff863581169660208082013583169750604080830135841697506060830135909316955092935060a08101926080909101358401808201929035918291601f830182900482029091019051908101604052818152929190602084018383808284378201915050505050509190803590602001908201803590602001908080601f01602080910402602001604051908101604052818152929190602084018383808284378201915050505050509190803590602001908201803590602001908080601f0160208091040260200160405190810160405281815292919060208401838380828437509496506115f595505050505050565b341561052557600080fd5b610244600160a060020a0360043516611750565b341561054457600080fd5b61021a60046024813581810190830135806020601f8201819004810201604051908101604052818152929190602084018383808284378201915050505050509190803590602001908201803590602001908080601f01602080910402602001604051908101604052818152929190602084018383808284378201915050505050509190803590602001908201803590602001908080601f01602080910402602001604051908101604052818152929190602084018383808284378201915050505050509190803590602001908201803590602001908080601f01602080910402602001604051908101604052818152929190602084018383808284375094965061179f95505050505050565b341561065b57600080fd5b61021a600460e481600760e06040519081016040529190828260e08082843782019150505050509190806101200190600980602002604051908101604052919082826101208082843750939560ff863581169660208082013583169750604080830135841697506060830135909316955092935060a08101926080909101358401808201929035918291601f830182900482029091019051908101604052818152929190602084018383808284378201915050505050509190803590602001908201803590602001908080601f01602080910402602001604051908101604052818152929190602084018383808284378201915050505050509190803590602001908201803590602001908080601f0160208091040260200160405190810160405281815292919060208401838380828437509496505060ff85351694602081013594506040013592506117dd915050565b34156107b857600080fd5b6103bb60ff6004358116906024351660443560643560843560a43561197e565b34156107e357600080fd5b61015d611999565b34156107f657600080fd5b6103bb600460e481600760e06040519081016040529190828260e08082843782019150505050509190806101200190600980602002604051908101604052919082826101208082843750939560ff863581169660208082013583169750604080830135841697506060830135909316955092935060a08101926080909101358401808201929035918291601f830182900482029091019051908101604052818152929190602084018383808284378201915050505050509190803590602001908201803590602001908080601f01602080910402602001604051908101604052818152929190602084018383808284378201915050505050509190803590602001908201803590602001908080601f0160208091040260200160405190810160405281815292919060208401838380828437509496506119a895505050505050565b341561094357600080fd5b61021a60046101c481600e6101c0604051908101604052919082826101c0808284378201915050505050919080610240019060128060200260405190810160405291908282610240808284378201915050505050919080610100019060088060200260405190810160405291908282610100808284375093959460208082019550903586018082019450359250829150601f8201819004810201604051908101604052818152929190602084018383808284378201915050505050509190803590602001908201803590602001908080601f01602080910402602001604051908101604052818152929190602084018383808284378201915050505050509190803590602001908201803590602001908080601f01602080910402602001604051908101604052818152929190602084018383808284378201915050505050509190803590602001908201803590602001908080601f01602080910402602001604051908101604052818152929190602084018383808284378201915050505050509190803590602001908201803590602001908080601f01602080910402602001604051908101604052818152929190602084018383808284378201915050505050509190803590602001908201803590602001908080601f016020809104026020016040519081016040528181529291906020840183838082843750949650611af595505050505050565b3415610b5b57600080fd5b610244600460e481600760e06040519081016040529190828260e08082843782019150505050509190806101200190600980602002604051908101604052919082826101208082843750939560ff863581169660208082013583169750604080830135841697506060830135909316955092935060a08101926080909101358401808201929035918291601f830182900482029091019051908101604052818152929190602084018383808284378201915050505050509190803590602001908201803590602001908080601f01602080910402602001604051908101604052818152929190602084018383808284378201915050505050509190803590602001908201803590602001908080601f016020809104026020016040519081016040528181529291906020840183838082843750949650505050913515159150611e499050565b3415610cac57600080fd5b61015d611fad565b3415610cbf57600080fd5b6103bb611fbc565b3415610cd257600080fd5b61021a600435611fc2565b3415610ce857600080fd5b61015d611fd7565b3415610cfb57600080fd5b61015d611feb565b3415610d0e57600080fd5b610244600460e481600760e06040519081016040529190828260e08082843782019150505050509190806101200190600980602002604051908101604052919082826101208082843750939560ff863581169660208082013583169750604080830135841697506060830135909316955092935060a08101926080909101358401808201929035918291601f830182900482029091019051908101604052818152929190602084018383808284378201915050505050509190803590602001908201803590602001908080601f01602080910402602001604051908101604052818152929190602084018383808284378201915050505050509190803590602001908201803590602001908080601f0160208091040260200160405190810160405281815292919060208401838380828437509496505060ff8535169460208101359450604001359250611ffa915050565b61024460046101c481600e6101c0604051908101604052919082826101c0808284378201915050505050919080610240019060128060200260405190810160405291908282610240808284378201915050505050919080610100019060088060200260405190810160405291908282610100808284375093959460208082019550903586018082019450359250829150601f8201819004810201604051908101604052818152929190602084018383808284378201915050505050509190803590602001908201803590602001908080601f01602080910402602001604051908101604052818152929190602084018383808284378201915050505050509190803590602001908201803590602001908080601f01602080910402602001604051908101604052818152929190602084018383808284378201915050505050509190803590602001908201803590602001908080601f01602080910402602001604051908101604052818152929190602084018383808284378201915050505050509190803590602001908201803590602001908080601f01602080910402602001604051908101604052818152929190602084018383808284378201915050505050509190803590602001908201803590602001908080601f0160208091040260200160405190810160405281815292919060208401838380828437820191505050505050919080604001906002806020026040519081016040528092919082600260200280828437820191505050505091908060a001906005806020026040519081016040529190828260a08082843750939550612172945050505050565b34156110cc57600080fd5b61021a600460e481600760e06040519081016040529190828260e08082843782019150505050509190806101200190600980602002604051908101604052919082826101208082843750939560ff863581169660208082013583169750604080830135841697506060830135909316955092935060a08101926080909101358401808201929035918291601f830182900482029091019051908101604052818152929190602084018383808284378201915050505050509190803590602001908201803590602001908080601f01602080910402602001604051908101604052818152929190602084018383808284378201915050505050509190803590602001908201803590602001908080601f01602080910402602001604051908101604052818152929190602084018383808284375094965061250395505050505050565b341561121957600080fd5b6103bb61266a565b341561122c57600080fd5b6103bb60046101c481600e6101c0604051908101604052919082826101c0808284378201915050505050919080610240019060128060200260405190810160405291908282610240808284378201915050505050919080610100019060088060200260405190810160405291908282610100808284375093959460208082019550903586018082019450359250829150601f8201819004810201604051908101604052818152929190602084018383808284378201915050505050509190803590602001908201803590602001908080601f01602080910402602001604051908101604052818152929190602084018383808284378201915050505050509190803590602001908201803590602001908080601f01602080910402602001604051908101604052818152929190602084018383808284378201915050505050509190803590602001908201803590602001908080601f01602080910402602001604051908101604052818152929190602084018383808284378201915050505050509190803590602001908201803590602001908080601f01602080910402602001604051908101604052818152929190602084018383808284378201915050505050509190803590602001908201803590602001908080601f01602080910402602001604051908101604052818152929190602084018383808284375094965061267095505050505050565b341561144457600080fd5b61021a6004356129b4565b341561145a57600080fd5b610244600160a060020a03600435166129c9565b600354600160a060020a031681565b60006114876145fe565b60008061149686518651612a74565b6040518059106114a35750595b818152601f19601f830116810160200160405290509250600091505b8451821015611515578482815181106114d457fe5b016020015160f860020a900460f860020a028383815181106114f257fe5b906020010190600160f860020a031916908160001a9053506001909101906114bf565b5060005b855181101561156f5785818151811061152e57fe5b016020015160f860020a900460f860020a0283865183018151811061154f57fe5b906020010190600160f860020a031916908160001a905350600101611519565b60006040518451602086018a5afa979650505050505050565b60005433600160a060020a0390811661010090920416146115a857600080fd5b600655565b60005433600160a060020a0390811661010090920416146115cd57600080fd5b600755565b6115da6145fe565b6115e5848484612a8e565b50825b9392505050565b60075481565b60006117426102e0604051908101604052808c51600160a060020a031681526020018c60016020020151600160a060020a0316815260200160408d0151600160a060020a031681526020018b5181526020018b60016020020151815260200160408c0151815260200160608c0151815260200160608d0151600160a060020a031681526020018a600181111561168757fe5b815260200189600181111561169857fe5b81526020018860018111156116a957fe5b815260200160808d0151600160a060020a031681526020018760018111156116cd57fe5b8152602081018790526040810186905260600160a08d0151600160a060020a031681526020810185905260400160c08d0151600160a060020a0316815260200160808c0151815260200160a08c0151815260200160c08c0151815260200160e08c015181526020016101008c01519052612c94565b9a9950505050505050505050565b60005433600160a060020a03908116610100909204161461177057600080fd5b6008805473ffffffffffffffffffffffffffffffffffffffff1916600160a060020a0392909216919091179055565b600080845111156117b5576117b5858486612a8e565b6000825111156117ca576117ca838684612a8e565b6117d48584612cca565b95945050505050565b60006117e7614610565b6102e0604051908101604052808f51600160a060020a031681526020018f60016020020151600160a060020a031681526020018f60026020020151600160a060020a031681526020018e5181526020018e60016020020151815260200160408f0151815260200160608f015181526020018f60036020020151600160a060020a031681526020018d600181111561187a57fe5b81526020018c600181111561188b57fe5b81526020018b600181111561189c57fe5b81526020018f60046020020151600160a060020a031681526020018a60018111156118c357fe5b8152602081018a9052604081018990526060018f60056020020151600160a060020a03168152602081018890526040018f60066020020151600160a060020a0316815260200160808f0151815260200160a08f0151815260200160c08f0151815260200160e08f015181526020016101008f01519052905061196c61194782612d5e565b826060604051908101604090815260ff8a168252602082018990528101879052612e21565b9e9d5050505050505050505050505050565b600061198e878787878787612f1e565b979650505050505050565b600854600160a060020a031681565b60006117426102e0604051908101604052808c51600160a060020a031681526020018c60016020020151600160a060020a0316815260200160408d0151600160a060020a031681526020018b5181526020018b60016020020151815260200160408c0151815260200160608c0151815260200160608d0151600160a060020a031681526020018a6001811115611a3a57fe5b8152602001896001811115611a4b57fe5b8152602001886001811115611a5c57fe5b815260200160808d0151600160a060020a03168152602001876001811115611a8057fe5b8152602081018790526040810186905260600160a08d0151600160a060020a031681526020810185905260400160c08d0151600160a060020a0316815260200160808c0151815260200160a08c0151815260200160c08c0151815260200160e08c015181526020016101008c01519052612d5e565b6000611aff614610565b611b07614610565b6102e0604051908101604052808d51600160a060020a031681526020018d60016020020151600160a060020a0316815260200160408e0151600160a060020a031681526020018c5181526020018c60016020020151815260200160408d0151815260200160608d0151815260200160608e0151600160a060020a031681526020018b5160ff166001811115611b9857fe5b6001811115611ba357fe5b81526020018b6001602002015160ff166001811115611bbe57fe5b6001811115611bc957fe5b815260200160408c015160ff166001811115611be157fe5b6001811115611bec57fe5b815260200160808e0151600160a060020a0316815260200160608c015160ff166001811115611c1757fe5b6001811115611c2257fe5b8152602081018b90526040810189905260600160a08e0151600160a060020a031681526020810187905260400160c08e0151600160a060020a0316815260200160808d0151815260200160a08d0151815260200160c08d0151815260200160e08d015181526020016101008d0151905291506102e06040519081016040528060e08e0151600160a060020a031681526020016101008e0151600160a060020a031681526020016101208e0151600160a060020a031681526020016101208d015181526020016101408d015181526020016101608d015181526020016101808d015181526020016101408e0151600160a060020a0316815260200160808c015160ff166001811115611d2f57fe5b6001811115611d3a57fe5b815260200160a08c015160ff166001811115611d5257fe5b6001811115611d5d57fe5b815260200160c08c015160ff166001811115611d7557fe5b6001811115611d8057fe5b81526020016101608e0151600160a060020a0316815260200160e08c015160ff166001811115611dac57fe5b6001811115611db757fe5b8152602081018a9052604081018890526060016101808e0151600160a060020a03168152602081018690526040016101a08e0151600160a060020a031681526020016101a08d015181526020016101c08d015181526020016101e08d015181526020016102008d015181526020016102208d015190529050611e398282612fb1565b9c9b505050505050505050505050565b611e51614610565b6102e0604051908101604052808c51600160a060020a031681526020018c60016020020151600160a060020a0316815260200160408d0151600160a060020a031681526020018b5181526020018b60016020020151815260200160408c0151815260200160608c0151815260200160608d0151600160a060020a031681526020018a6001811115611ede57fe5b8152602001896001811115611eef57fe5b8152602001886001811115611f0057fe5b815260200160808d0151600160a060020a03168152602001876001811115611f2457fe5b8152602081018790526040810186905260600160a08d0151600160a060020a031681526020810185905260400160c08d0151600160a060020a0316815260200160808c0151815260200160a08c0151815260200160c08c0151815260200160e08c015181526020016101008c015190529050611fa08183613197565b5050505050505050505050565b600254600160a060020a031681565b60065481565b60046020526000908152604090205460ff1681565b6000546101009004600160a060020a031681565b600154600160a060020a031681565b6121646102e0604051908101604052808e51600160a060020a031681526020018e60016020020151600160a060020a0316815260200160408f0151600160a060020a031681526020018d5181526020018d60016020020151815260200160408e0151815260200160608e0151815260200160608f0151600160a060020a031681526020018c600181111561208a57fe5b81526020018b600181111561209b57fe5b81526020018a60018111156120ac57fe5b815260200160808f0151600160a060020a031681526020018960018111156120d057fe5b8152602081018990526040810188905260600160a08f0151600160a060020a031681526020810187905260400160c08f0151600160a060020a0316815260200160808e0151815260200160a08e0151815260200160c08e0151815260200160e08e015181526020016101008e015190526060604051908101604090815260ff8716825260208201869052810184905261354b565b505050505050505050505050565b611fa06102e0604051908101604052808d51600160a060020a031681526020018d60016020020151600160a060020a0316815260200160408e0151600160a060020a031681526020018c5181526020018c60016020020151815260200160408d0151815260200160608d0151815260200160608e0151600160a060020a031681526020018b5160ff16600181111561220657fe5b600181111561221157fe5b81526020018b6001602002015160ff16600181111561222c57fe5b600181111561223757fe5b815260200160408c015160ff16600181111561224f57fe5b600181111561225a57fe5b815260200160808e0151600160a060020a0316815260200160608c015160ff16600181111561228557fe5b600181111561229057fe5b8152602081018b90526040810189905260600160a08e0151600160a060020a031681526020810187905260400160c08e0151600160a060020a0316815260200160808d0151815260200160a08d0151815260200160c08d0151815260200160e08d015181526020016101008d01519052606060405190810160405280855160ff16815260200184518152602001846001602002015190526102e0604051908101604052808f60076020020151600160a060020a031681526020018f60086020020151600160a060020a031681526020018f60096020020151600160a060020a031681526020016101208f015181526020016101408f015181526020016101608f015181526020016101808f015181526020018f600a6020020151600160a060020a0316815260200160808e015160ff1660018111156123cb57fe5b60018111156123d657fe5b815260200160a08e015160ff1660018111156123ee57fe5b60018111156123f957fe5b815260200160c08e015160ff16600181111561241157fe5b600181111561241c57fe5b81526020018f600b6020020151600160a060020a0316815260200160e08e015160ff16600181111561244a57fe5b600181111561245557fe5b8152602081018c9052604081018a90526060018f600c6020020151600160a060020a03168152602081018890526040018f600d6020020151600160a060020a031681526020016101a08f015181526020016101c08f015181526020016101e08f015181526020016102008f015181526020016102208f01519052606060405190810160405280602088015160ff168152602001604087015181526020016060870151905260808601516135ca565b600061250d614610565b6102e0604051908101604052808c51600160a060020a031681526020018c60016020020151600160a060020a0316815260200160408d0151600160a060020a031681526020018b5181526020018b60016020020151815260200160408c0151815260200160608c0151815260200160608d0151600160a060020a031681526020018a600181111561259a57fe5b81526020018960018111156125ab57fe5b81526020018860018111156125bc57fe5b815260200160808d0151600160a060020a031681526020018760018111156125e057fe5b8152602081018790526040810186905260600160a08d0151600160a060020a031681526020810185905260400160c08d0151600160a060020a0316815260200160808c0151815260200160a08c0151815260200160c08c0151815260200160e08c015181526020016101008c01519052905061265b81613a70565b9b9a5050505050505050505050565b61271081565b600061267a614610565b612682614610565b6102e0604051908101604052808d51600160a060020a031681526020018d60016020020151600160a060020a0316815260200160408e0151600160a060020a031681526020018c5181526020018c60016020020151815260200160408d0151815260200160608d0151815260200160608e0151600160a060020a031681526020018b5160ff16600181111561271357fe5b600181111561271e57fe5b81526020018b6001602002015160ff16600181111561273957fe5b600181111561274457fe5b815260200160408c015160ff16600181111561275c57fe5b600181111561276757fe5b815260200160808e0151600160a060020a0316815260200160608c015160ff16600181111561279257fe5b600181111561279d57fe5b8152602081018b90526040810189905260600160a08e0151600160a060020a031681526020810187905260400160c08e0151600160a060020a0316815260200160808d0151815260200160a08d0151815260200160c08d0151815260200160e08d015181526020016101008d0151905291506102e06040519081016040528060e08e0151600160a060020a031681526020016101008e0151600160a060020a031681526020016101208e0151600160a060020a031681526020016101208d015181526020016101408d015181526020016101608d015181526020016101808d015181526020016101408e0151600160a060020a0316815260200160808c015160ff1660018111156128aa57fe5b60018111156128b557fe5b815260200160a08c015160ff1660018111156128cd57fe5b60018111156128d857fe5b815260200160c08c015160ff1660018111156128f057fe5b60018111156128fb57fe5b81526020016101608e0151600160a060020a0316815260200160e08c015160ff16600181111561292757fe5b600181111561293257fe5b8152602081018a9052604081018890526060016101808e0151600160a060020a03168152602081018690526040016101a08e0151600160a060020a031681526020016101a08d015181526020016101c08d015181526020016101e08d015181526020016102008d015181526020016102208d015190529050611e398282613aff565b60056020526000908152604090205460ff1681565b60005433600160a060020a0390811661010090920416146129e957600080fd5b600160a060020a03811615156129fe57600080fd5b600054600160a060020a03808316916101009004167f8be0079c531659141344cd1fd0a4f28419497f9722a3daafe3b4186f6b6457e060405160405180910390a360008054600160a060020a039092166101000274ffffffffffffffffffffffffffffffffffffffff0019909216919091179055565b600082820183811015612a8357fe5b8091505b5092915050565b612a966146e0565b60008061010060405190810160409081527f800000000000000000000000000000000000000000000000000000000000000082527f400000000000000000000000000000000000000000000000000000000000000060208301527f2000000000000000000000000000000000000000000000000000000000000000908201527f100000000000000000000000000000000000000000000000000000000000000060608201527f080000000000000000000000000000000000000000000000000000000000000060808201527f040000000000000000000000000000000000000000000000000000000000000060a08201527f020000000000000000000000000000000000000000000000000000000000000060c082015260f860020a60e082015292508451865114612bc757600080fd5b60088651811515612bd457fe5b0484511015612be257600080fd5b5060005b8551811015612c8c57826008820660088110612bfe57fe5b6020020151846008830481518110612c1257fe5b016020015160f860020a900460f860020a0216600160f860020a031916600060f860020a02149150811515612c8457848181518110612c4d57fe5b016020015160f860020a900460f860020a02868281518110612c6b57fe5b906020010190600160f860020a031916908160001a9053505b600101612be6565b505050505050565b6000612cc2826101200151836101400151846102400151856102600151866102800151876102a00151612f1e565b90505b919050565b6000808251845114612cdf5760009150612a87565b5060005b8351811015612d5457828181518110612cf857fe5b016020015160f860020a900460f860020a02600160f860020a031916848281518110612d2057fe5b016020015160f860020a900460f860020a02600160f860020a031916141515612d4c5760009150612a87565b600101612ce3565b5060019392505050565b6000612d686145fe565b600060408051908101604052601c81527f19457468657265756d205369676e6564204d6573736167653a0a3332000000006020820152915081612daa85613b91565b612db386613d3b565b6040518084805190602001908083835b60208310612de25780518252601f199092019160209182019101612dc3565b6001836020036101000a038019825116818451161790925250505091909101938452505060208201526040908101915051908190039020949350505050565b6000612e2c83613a70565b1515612e3a575060006115e8565b60008481526004602052604090205460ff1615612e59575060006115e8565b60008481526005602052604090205460ff1615612e78575060016115e8565b8260200151600160a060020a03166001858451856020015186604001516040516000815260200160405260006040516020015260405193845260ff90921660208085019190915260408085019290925260608401929092526080909201915160208103908084039060008661646e5a03f11515612ef457600080fd5b505060206040510351600160a060020a03161415612f14575060016115e8565b5060009392505050565b60008080876001811115612f2e57fe5b1415612f3c57859150612fa6565b6001876001811115612f4a57fe5b1415612fa657612f75612f6686612f614288613ede565b613ef0565b612f708587613ede565b613f1b565b90506001886001811115612f8557fe5b1415612f9c57612f958682613ede565b9150612fa6565b612f958682612a74565b509695505050505050565b6000808361012001516001811115612fc557fe5b148015612fe2575060018261012001516001811115612fe057fe5b145b801561300d57508161010001516001811115612ffa57fe5b836101000151600181111561300b57fe5b145b80156130345750816102200151600160a060020a0316836102200151600160a060020a0316145b8015613070575060006040830151600160a060020a0316148061307057508260200151600160a060020a03168260400151600160a060020a0316145b80156130ac575060006040840151600160a060020a031614806130ac57508160200151600160a060020a03168360400151600160a060020a0316145b801561310f5750600060e0830151600160a060020a03161480156130de5750600060e0840151600160a060020a031614155b8061310f5750600060e0830151600160a060020a03161415801561310f5750600060e0840151600160a060020a0316145b80156131365750816101600151600160a060020a0316836101600151600160a060020a0316145b80156131615750816101800151600181111561314e57fe5b836101800151600181111561315f57fe5b145b801561317c575061317c836102800151846102a00151613f32565b80156115e857506115e8826102800151836102a00151613f32565b60008260200151600160a060020a031633600160a060020a03161415156131bd57600080fd5b6131c683612d5e565b60008181526005602052604090205490915060ff16156131e557600080fd5b6000818152600560205260409020805460ff1916600117905560e0830151600160a060020a03168360200151600160a060020a0316827f90c7f9f5b58c15f0f635bfb99f55d3d78fdbef3559e7d8abf5c81052a527662286518760400151886060015189608001518a60a001518b60c001518c61010001518d61012001518e61014001518f6101600151604051808b600160a060020a0316600160a060020a031681526020018a600160a060020a0316600160a060020a031681526020018981526020018881526020018781526020018681526020018560018111156132c757fe5b60ff1681526020018460018111156132db57fe5b60ff1681526020018360018111156132ef57fe5b60ff16815260200182600160a060020a0316600160a060020a031681526020019a505050505050505050505060405180910390a4807fe55393c778364e440d958b39ac1debd99dcfae3775a8a04d1e79124adf6a2d08610180850151856101a00151866101c00151876101e001518861020001518961022001518a61024001518b61026001518c61028001518d6102a001518e6102c001518e604051808d600181111561339857fe5b60ff16815260200180602001806020018c600160a060020a0316600160a060020a03168152602001806020018b600160a060020a0316600160a060020a031681526020018a81526020018981526020018881526020018781526020018681526020018515151515815260200184810384528f818151815260200191508051906020019080838360005b83811015613439578082015183820152602001613421565b50505050905090810190601f1680156134665780820380516001836020036101000a031916815260200191505b5084810383528e818151815260200191508051906020019080838360005b8381101561349c578082015183820152602001613484565b50505050905090810190601f1680156134c95780820380516001836020036101000a031916815260200191505b5084810382528c818151815260200191508051906020019080838360005b838110156134ff5780820151838201526020016134e7565b50505050905090810190601f16801561352c5780820380516001836020036101000a031916815260200191505b509f5050505050505050505050505050505060405180910390a2505050565b60006135578383613f4e565b90508260200151600160a060020a031633600160a060020a031614151561357d57600080fd5b60008181526004602052604090819020805460ff1916600117905581907f5152abf959f6564662358c2e52b702259b78bac5ee7842a0f01937e670efcc7d905160405180910390a2505050565b600080548190819081908190819060ff16156135e557600080fd5b6000805460ff19166001179055600160a060020a03331660208c0151600160a060020a03161415613629576136198b613a70565b151561362457600080fd5b613636565b6136338b8b613f4e565b95505b33600160a060020a03168960200151600160a060020a0316141561366d5761365d89613a70565b151561366857600080fd5b61367a565b6136778989613f4e565b94505b6136848b8a612fb1565b151561368f57600080fd5b886101600151803b94509250600084116136a857600080fd5b60008b6101c001515111156136d1576136d18b6101a001518a6101a001518d6101c00151612a8e565b6000896101c001515111156136fa576136fa896101a001518c6101a001518b6101c00151612a8e565b61370e8b6101a001518a6101a00151612cca565b151561371957600080fd5b600254600160a060020a031663c455279160208b015160006040516020015260405160e060020a63ffffffff8416028152600160a060020a039091166004820152602401602060405180830381600087803b151561377657600080fd5b6102c65a03f1151561378757600080fd5b5050506040518051925050600160a060020a03821615156137a757600080fd5b8a60200151600160a060020a031633600160a060020a03161415156137e0576000868152600460205260409020805460ff191660011790555b8860200151600160a060020a031633600160a060020a0316141515613819576000858152600460205260409020805460ff191660011790555b6138238b8a613f72565b905081600160a060020a0316631b0f7ba98a61016001518b61018001518c6101a001516000604051602001526040518463ffffffff1660e060020a0281526004018084600160a060020a0316600160a060020a0316815260200183600181111561388957fe5b60ff16815260200180602001828103825283818151815260200191508051906020019080838360005b838110156138ca5780820151838201526020016138b2565b50505050905090810190601f1680156138f75780820380516001836020036101000a031916815260200191505b50945050505050602060405180830381600087803b151561391757600080fd5b6102c65a03f1151561392857600080fd5b50505060405180519050151561393d57600080fd5b60006101e08c0151600160a060020a0316146139785761396d8b6101e001518a6101a001518d610200015161147d565b151561397857600080fd5b60006101e08a0151600160a060020a0316146139b3576139a8896101e001518a6101a001518b610200015161147d565b15156139b357600080fd5b86600060e08b0151600160a060020a031614156139d45789602001516139da565b8b602001515b600160a060020a0316600060e08c0151600160a060020a03161415613a03578c60200151613a09565b8a602001515b600160a060020a03167fc4109843e0b7d514e4c093114b863f8e7d8d9a458c372cd51bfe526b588006c989898660405192835260208301919091526040808301919091526060909101905180910390a450506000805460ff19169055505050505050505050565b6000600160a060020a0330168251600160a060020a031614613a9457506000612cc5565b613aa8826101400151836102a00151614519565b1515613ab657506000612cc5565b60018261010001516001811115613ac957fe5b148015613aea57506006548260a001511080613aea57506007548260c00151105b15613af757506000612cc5565b506001919050565b6000806000613b30846101200151856101400151866102400151876102600151886102800151896102a00151612f1e565b9150613b5e8561012001518661014001518761024001518861026001518961028001518a6102a00151612f1e565b905081811015613b6d57600080fd5b600060e0850151600160a060020a03161415613b8957806117d4565b509392505050565b6000815182602001518360400151846060015185608001518660a001518760c001518860e001518961010001518a61012001518b61014001518c61016001518d6101800151604051808e600160a060020a0316600160a060020a03166c010000000000000000000000000281526014018d600160a060020a0316600160a060020a03166c010000000000000000000000000281526014018c600160a060020a0316600160a060020a03166c010000000000000000000000000281526014018b81526020018a815260200189815260200188815260200187600160a060020a0316600160a060020a03166c01000000000000000000000000028152601401866001811115613c9a57fe5b60ff1660f860020a028152600101856001811115613cb457fe5b60ff1660f860020a028152600101846001811115613cce57fe5b60ff1660f860020a02815260010183600160a060020a0316600160a060020a03166c01000000000000000000000000028152601401826001811115613d0f57fe5b60ff1660f860020a0281526001019d505050505050505050505050505060405180910390209050919050565b6000816101a00151826101c00151836101e00151846102000151856102200151866102400151876102600151886102800151896102a001518a6102c00151604051808b805190602001908083835b60208310613da85780518252601f199092019160209182019101613d89565b6001836020036101000a03801982511681845116179092525050509190910190508a805190602001908083835b60208310613df45780518252601f199092019160209182019101613dd5565b6001836020036101000a03801982511681845116179092525050506c01000000000000000000000000600160a060020a038d160292019182525060140188805190602001908083835b60208310613e5c5780518252601f199092019160209182019101613e3d565b6001836020036101000a03801982511681845116808217855250505050505090500187600160a060020a0316600160a060020a03166c010000000000000000000000000281526014018681526020018581526020018481526020018381526020018281526020019a505050505050505050505060405180910390209050919050565b600082821115613eea57fe5b50900390565b600080831515613f035760009150612a87565b50828202828482811515613f1357fe5b0414612a8357fe5b6000808284811515613f2957fe5b04949350505050565b600042831080156115e857508115806115e85750504210919050565b600080613f5a84612d5e565b9050613f67818585612e21565b1515612a8357600080fd5b60008080808080808080806102208b0151600160a060020a031614613f9c573415613f9c57600080fd5b613fa68b8b613aff565b9750600088118015613fc7575060006102208b0151600160a060020a031614155b15613fe557613fe58a61022001518c602001518c602001518b614539565b879650869550600060e08b0151600160a060020a0316146142e7578a608001518a60800151111561401557600080fd5b60018a6101000151600181111561402857fe5b14156142b4578a60c001518a60c00151111561404357600080fd5b60008a6060015111156140e1576140696140618b606001518a613ef0565b612710613f1b565b945060006102208b0151600160a060020a031614156140c85761408c8786613ede565b96508960e00151600160a060020a031685156108fc0286604051600060405180830381858888f1935050505015156140c357600080fd5b6140e1565b6140e18a61022001518b602001518c60e0015188614539565b60008a608001511115614177576140ff6140618b608001518a613ef0565b935060006102208b0151600160a060020a0316141561415e576141228685612a74565b95508960e00151600160a060020a031684156108fc0285604051600060405180830381858888f19350505050151561415957600080fd5b614177565b6141778a61022001518c602001518c60e0015187614539565b60008a60a001511115614213576141956140618b60a001518a613ef0565b925060006102208b0151600160a060020a031614156141f3576141b88784613ede565b600854909750600160a060020a031683156108fc0284604051600060405180830381858888f1935050505015156141ee57600080fd5b614213565b6142138a61022001518b60200151600854600160a060020a031686614539565b60008a60c0015111156142af576142316140618b60c001518a613ef0565b915060006102208b0151600160a060020a0316141561428f576142548683612a74565b600854909650600160a060020a031682156108fc0283604051600060405180830381858888f19350505050151561428a57600080fd5b6142af565b6142af8a61022001518c60200151600854600160a060020a031685614539565b6142e2565b6142cb8a602001518b60e001518c606001516145e1565b6142e28b602001518b60e001518c608001516145e1565b614466565b89608001518b6080015111156142fc57600080fd5b60018a6101000151600181111561430f57fe5b14156144385760006102208b0151600160a060020a0316141561433157600080fd5b8960c001518b60c00151111561434657600080fd5b60008b60600151111561437f576143646140618c606001518a613ef0565b945061437f8a61022001518c602001518d60e0015188614539565b60008b6080015111156143b85761439d6140618c608001518a613ef0565b93506143b88a61022001518b602001518d60e0015187614539565b60008b60a0015111156143f8576143d66140618c60a001518a613ef0565b92506143f88a61022001518c60200151600854600160a060020a031686614539565b60008b60c0015111156142e2576144166140618c60c001518a613ef0565b91506142e28a61022001518b60200151600854600160a060020a031685614539565b61444f8b602001518c60e001518d606001516145e1565b6144668a602001518c60e001518d608001516145e1565b60006102208b0151600160a060020a0316141561450a57348690101561448b57600080fd5b8960200151600160a060020a031687156108fc0288604051600060405180830381858888f1935050505015156144c057600080fd5b6144ca3487613ede565b9050600081111561450a578a60200151600160a060020a031681156108fc0282604051600060405180830381858888f19350505050151561450a57600080fd5b50959998505050505050505050565b60008083600181111561452857fe5b14806115e857505060009011919050565b60008111156145db57600354600160a060020a03166315dacbea8585858560006040516020015260405160e060020a63ffffffff8716028152600160a060020a0394851660048201529284166024840152921660448201526064810191909152608401602060405180830381600087803b15156145b557600080fd5b6102c65a03f115156145c657600080fd5b5050506040518051905015156145db57600080fd5b50505050565b6001546145f990600160a060020a0316848484614539565b505050565b60206040519081016040526000815290565b6102e06040519081016040908152600080835260208301819052908201819052606082018190526080820181905260a0820181905260c0820181905260e0820181905261010082018190526101208201819052610140820181905261016082018190526101808201526101a081016146866145fe565b81526020016146936145fe565b8152600060208201526040016146a76145fe565b81526020016000600160a060020a0316815260200160008152602001600081526020016000815260200160008152602001600081525090565b6101006040519081016040526008815b6000815260001990910190602001816146f057905050905600a165627a7a7230582072c1bd52fb53438358703bf4aace484803b03863ccb3a0fde630a769e2dc515e0029",
  "source": "/*\n  \n  Exchange contract. This is an outer contract with public or convenience functions and includes no state-modifying functions.\n \n*/\n\npragma solidity 0.4.18;\n\nimport \"./ExchangeCore.sol\";\n\n/**\n * @title Exchange\n * @author Project Wyvern Developers\n */\ncontract Exchange is ExchangeCore {\n\n    /**\n     * @dev Call guardedArrayReplace - library function exposed for testing.\n     */\n    function guardedArrayReplace(bytes array, bytes desired, bytes mask)\n        public\n        pure\n        returns (bytes)\n    {\n        ArrayUtils.guardedArrayReplace(array, desired, mask);\n        return array;\n    }\n\n    /**\n     * @dev Call calculateFinalPrice - library function exposed for testing.\n     */\n    function calculateFinalPrice(SaleKindInterface.Side side, SaleKindInterface.SaleKind saleKind, uint basePrice, uint extra, uint listingTime, uint expirationTime)\n        public\n        view\n        returns (uint)\n    {\n        return SaleKindInterface.calculateFinalPrice(side, saleKind, basePrice, extra, listingTime, expirationTime);\n    }\n\n    /**\n     * @dev Call hashOrder - Solidity ABI encoding limitation workaround, hopefully temporary.\n     */\n    function hashOrder_(\n        address[7] addrs,\n        uint[9] uints,\n        FeeMethod feeMethod,\n        SaleKindInterface.Side side,\n        SaleKindInterface.SaleKind saleKind,\n        AuthenticatedProxy.HowToCall howToCall,\n        bytes calldata,\n        bytes replacementPattern,\n        bytes staticExtradata)\n        public\n        pure\n        returns (bytes32)\n    { \n        return hashToSign(\n          Order(addrs[0], addrs[1], addrs[2], uints[0], uints[1], uints[2], uints[3], addrs[3], feeMethod, side, saleKind, addrs[4], howToCall, calldata, replacementPattern, addrs[5], staticExtradata, ERC20(addrs[6]), uints[4], uints[5], uints[6], uints[7], uints[8])\n        );\n    }\n\n    /**\n     * @dev Call validateOrderParameters - Solidity ABI encoding limitation workaround, hopefully temporary.\n     */\n    function validateOrderParameters_ (\n        address[7] addrs,\n        uint[9] uints,\n        FeeMethod feeMethod,\n        SaleKindInterface.Side side,\n        SaleKindInterface.SaleKind saleKind,\n        AuthenticatedProxy.HowToCall howToCall,\n        bytes calldata,\n        bytes replacementPattern,\n        bytes staticExtradata)\n        view\n        public\n        returns (bool)\n    {\n        Order memory order = Order(addrs[0], addrs[1], addrs[2], uints[0], uints[1], uints[2], uints[3], addrs[3], feeMethod, side, saleKind, addrs[4], howToCall, calldata, replacementPattern, addrs[5], staticExtradata, ERC20(addrs[6]), uints[4], uints[5], uints[6], uints[7], uints[8]);\n        return validateOrderParameters(\n          order\n        );\n    }\n\n    /**\n     * @dev Call validateOrder - Solidity ABI encoding limitation workaround, hopefully temporary.\n     */\n    function validateOrder_ (\n        address[7] addrs,\n        uint[9] uints,\n        FeeMethod feeMethod,\n        SaleKindInterface.Side side,\n        SaleKindInterface.SaleKind saleKind,\n        AuthenticatedProxy.HowToCall howToCall,\n        bytes calldata,\n        bytes replacementPattern,\n        bytes staticExtradata,\n        uint8 v,\n        bytes32 r,\n        bytes32 s)\n        view\n        public\n        returns (bool)\n    {\n        Order memory order = Order(addrs[0], addrs[1], addrs[2], uints[0], uints[1], uints[2], uints[3], addrs[3], feeMethod, side, saleKind, addrs[4], howToCall, calldata, replacementPattern, addrs[5], staticExtradata, ERC20(addrs[6]), uints[4], uints[5], uints[6], uints[7], uints[8]);\n        return validateOrder(\n          hashToSign(order),\n          order,\n          Sig(v, r, s)\n        );\n    }\n\n    /**\n     * @dev Call approveOrder - Solidity ABI encoding limitation workaround, hopefully temporary.\n     */\n    function approveOrder_ (\n        address[7] addrs,\n        uint[9] uints,\n        FeeMethod feeMethod,\n        SaleKindInterface.Side side,\n        SaleKindInterface.SaleKind saleKind,\n        AuthenticatedProxy.HowToCall howToCall,\n        bytes calldata,\n        bytes replacementPattern,\n        bytes staticExtradata,\n        bool orderbookInclusionDesired) \n        public\n    {\n        Order memory order = Order(addrs[0], addrs[1], addrs[2], uints[0], uints[1], uints[2], uints[3], addrs[3], feeMethod, side, saleKind, addrs[4], howToCall, calldata, replacementPattern, addrs[5], staticExtradata, ERC20(addrs[6]), uints[4], uints[5], uints[6], uints[7], uints[8]);\n        return approveOrder(order, orderbookInclusionDesired);\n    }\n\n    /**\n     * @dev Call cancelOrder - Solidity ABI encoding limitation workaround, hopefully temporary.\n     */\n    function cancelOrder_(\n        address[7] addrs,\n        uint[9] uints,\n        FeeMethod feeMethod,\n        SaleKindInterface.Side side,\n        SaleKindInterface.SaleKind saleKind,\n        AuthenticatedProxy.HowToCall howToCall,\n        bytes calldata,\n        bytes replacementPattern,\n        bytes staticExtradata,\n        uint8 v,\n        bytes32 r,\n        bytes32 s)\n        public\n    {\n\n        return cancelOrder(\n          Order(addrs[0], addrs[1], addrs[2], uints[0], uints[1], uints[2], uints[3], addrs[3], feeMethod, side, saleKind, addrs[4], howToCall, calldata, replacementPattern, addrs[5], staticExtradata, ERC20(addrs[6]), uints[4], uints[5], uints[6], uints[7], uints[8]),\n          Sig(v, r, s)\n        );\n    }\n\n    /**\n     * @dev Call calculateCurrentPrice - Solidity ABI encoding limitation workaround, hopefully temporary.\n     */\n    function calculateCurrentPrice_(\n        address[7] addrs,\n        uint[9] uints,\n        FeeMethod feeMethod,\n        SaleKindInterface.Side side,\n        SaleKindInterface.SaleKind saleKind,\n        AuthenticatedProxy.HowToCall howToCall,\n        bytes calldata,\n        bytes replacementPattern,\n        bytes staticExtradata)\n        public\n        view\n        returns (uint)\n    {\n        return calculateCurrentPrice(\n          Order(addrs[0], addrs[1], addrs[2], uints[0], uints[1], uints[2], uints[3], addrs[3], feeMethod, side, saleKind, addrs[4], howToCall, calldata, replacementPattern, addrs[5], staticExtradata, ERC20(addrs[6]), uints[4], uints[5], uints[6], uints[7], uints[8])\n        );\n    }\n\n    /**\n     * @dev Call ordersCanMatch - Solidity ABI encoding limitation workaround, hopefully temporary.\n     */\n    function ordersCanMatch_(\n        address[14] addrs,\n        uint[18] uints,\n        uint8[8] feeMethodsSidesKindsHowToCalls,\n        bytes calldataBuy,\n        bytes calldataSell,\n        bytes replacementPatternBuy,\n        bytes replacementPatternSell,\n        bytes staticExtradataBuy,\n        bytes staticExtradataSell)\n        public\n        view\n        returns (bool)\n    {\n        Order memory buy = Order(addrs[0], addrs[1], addrs[2], uints[0], uints[1], uints[2], uints[3], addrs[3], FeeMethod(feeMethodsSidesKindsHowToCalls[0]), SaleKindInterface.Side(feeMethodsSidesKindsHowToCalls[1]), SaleKindInterface.SaleKind(feeMethodsSidesKindsHowToCalls[2]), addrs[4], AuthenticatedProxy.HowToCall(feeMethodsSidesKindsHowToCalls[3]), calldataBuy, replacementPatternBuy, addrs[5], staticExtradataBuy, ERC20(addrs[6]), uints[4], uints[5], uints[6], uints[7], uints[8]);\n        Order memory sell = Order(addrs[7], addrs[8], addrs[9], uints[9], uints[10], uints[11], uints[12], addrs[10], FeeMethod(feeMethodsSidesKindsHowToCalls[4]), SaleKindInterface.Side(feeMethodsSidesKindsHowToCalls[5]), SaleKindInterface.SaleKind(feeMethodsSidesKindsHowToCalls[6]), addrs[11], AuthenticatedProxy.HowToCall(feeMethodsSidesKindsHowToCalls[7]), calldataSell, replacementPatternSell, addrs[12], staticExtradataSell, ERC20(addrs[13]), uints[13], uints[14], uints[15], uints[16], uints[17]);\n        return ordersCanMatch(\n          buy,\n          sell\n        );\n    }\n\n    /**\n     * @dev Return whether or not two orders' calldata specifications can match\n     * @param buyCalldata Buy-side order calldata\n     * @param buyReplacementPattern Buy-side order calldata replacement mask\n     * @param sellCalldata Sell-side order calldata\n     * @param sellReplacementPattern Sell-side order calldata replacement mask\n     * @return Whether the orders' calldata can be matched\n     */\n    function orderCalldataCanMatch(bytes buyCalldata, bytes buyReplacementPattern, bytes sellCalldata, bytes sellReplacementPattern)\n        public\n        pure\n        returns (bool)\n    {\n        if (buyReplacementPattern.length > 0) {\n          ArrayUtils.guardedArrayReplace(buyCalldata, sellCalldata, buyReplacementPattern);\n        }\n        if (sellReplacementPattern.length > 0) {\n          ArrayUtils.guardedArrayReplace(sellCalldata, buyCalldata, sellReplacementPattern);\n        }\n        return ArrayUtils.arrayEq(buyCalldata, sellCalldata);\n    }\n\n    /**\n     * @dev Call calculateMatchPrice - Solidity ABI encoding limitation workaround, hopefully temporary.\n     */\n    function calculateMatchPrice_(\n        address[14] addrs,\n        uint[18] uints,\n        uint8[8] feeMethodsSidesKindsHowToCalls,\n        bytes calldataBuy,\n        bytes calldataSell,\n        bytes replacementPatternBuy,\n        bytes replacementPatternSell,\n        bytes staticExtradataBuy,\n        bytes staticExtradataSell)\n        public\n        view\n        returns (uint)\n    {\n        Order memory buy = Order(addrs[0], addrs[1], addrs[2], uints[0], uints[1], uints[2], uints[3], addrs[3], FeeMethod(feeMethodsSidesKindsHowToCalls[0]), SaleKindInterface.Side(feeMethodsSidesKindsHowToCalls[1]), SaleKindInterface.SaleKind(feeMethodsSidesKindsHowToCalls[2]), addrs[4], AuthenticatedProxy.HowToCall(feeMethodsSidesKindsHowToCalls[3]), calldataBuy, replacementPatternBuy, addrs[5], staticExtradataBuy, ERC20(addrs[6]), uints[4], uints[5], uints[6], uints[7], uints[8]);\n        Order memory sell = Order(addrs[7], addrs[8], addrs[9], uints[9], uints[10], uints[11], uints[12], addrs[10], FeeMethod(feeMethodsSidesKindsHowToCalls[4]), SaleKindInterface.Side(feeMethodsSidesKindsHowToCalls[5]), SaleKindInterface.SaleKind(feeMethodsSidesKindsHowToCalls[6]), addrs[11], AuthenticatedProxy.HowToCall(feeMethodsSidesKindsHowToCalls[7]), calldataSell, replacementPatternSell, addrs[12], staticExtradataSell, ERC20(addrs[13]), uints[13], uints[14], uints[15], uints[16], uints[17]);\n        return calculateMatchPrice(\n          buy,\n          sell\n        );\n    }\n\n    /**\n     * @dev Call atomicMatch - Solidity ABI encoding limitation workaround, hopefully temporary.\n     */\n    function atomicMatch_(\n        address[14] addrs,\n        uint[18] uints,\n        uint8[8] feeMethodsSidesKindsHowToCalls,\n        bytes calldataBuy,\n        bytes calldataSell,\n        bytes replacementPatternBuy,\n        bytes replacementPatternSell,\n        bytes staticExtradataBuy,\n        bytes staticExtradataSell,\n        uint8[2] vs,\n        bytes32[5] rssMetadata)\n        public\n        payable\n    {\n\n        return atomicMatch(\n          Order(addrs[0], addrs[1], addrs[2], uints[0], uints[1], uints[2], uints[3], addrs[3], FeeMethod(feeMethodsSidesKindsHowToCalls[0]), SaleKindInterface.Side(feeMethodsSidesKindsHowToCalls[1]), SaleKindInterface.SaleKind(feeMethodsSidesKindsHowToCalls[2]), addrs[4], AuthenticatedProxy.HowToCall(feeMethodsSidesKindsHowToCalls[3]), calldataBuy, replacementPatternBuy, addrs[5], staticExtradataBuy, ERC20(addrs[6]), uints[4], uints[5], uints[6], uints[7], uints[8]),\n          Sig(vs[0], rssMetadata[0], rssMetadata[1]),\n          Order(addrs[7], addrs[8], addrs[9], uints[9], uints[10], uints[11], uints[12], addrs[10], FeeMethod(feeMethodsSidesKindsHowToCalls[4]), SaleKindInterface.Side(feeMethodsSidesKindsHowToCalls[5]), SaleKindInterface.SaleKind(feeMethodsSidesKindsHowToCalls[6]), addrs[11], AuthenticatedProxy.HowToCall(feeMethodsSidesKindsHowToCalls[7]), calldataSell, replacementPatternSell, addrs[12], staticExtradataSell, ERC20(addrs[13]), uints[13], uints[14], uints[15], uints[16], uints[17]),\n          Sig(vs[1], rssMetadata[2], rssMetadata[3]),\n          rssMetadata[4]\n        );\n    }\n\n}\n",
  "sourcePath": "/home/cwgoes/working/crypto/wyvern/wyvern-ethereum/contracts/exchange/Exchange.sol",
  "compiler": {
    "name": "solc",
    "version": "0.4.18+commit.9cf6e910.Emscripten.clang"
  },
  "schemaVersion": "1.0.1",
  "updatedAt": "2018-03-06T22:28:03.367Z"
}