{
  "contractName": "Exchange",
  "abi": [
    {
      "constant": true,
      "inputs": [],
      "name": "exchangeTokenAddress",
      "outputs": [
        {
          "name": "",
          "type": "address"
        }
      ],
      "payable": false,
      "stateMutability": "view",
      "type": "function"
    },
    {
      "constant": true,
      "inputs": [
        {
          "name": "addrs",
          "type": "address[14]"
        },
        {
          "name": "uints",
          "type": "uint256[14]"
        },
        {
          "name": "sidesKindsHowToCalls",
          "type": "uint8[6]"
        },
        {
          "name": "calldataBuy",
          "type": "bytes"
        },
        {
          "name": "calldataSell",
          "type": "bytes"
        },
        {
          "name": "replacementPatternBuy",
          "type": "bytes"
        },
        {
          "name": "replacementPatternSell",
          "type": "bytes"
        },
        {
          "name": "staticExtradataBuy",
          "type": "bytes"
        },
        {
          "name": "staticExtradataSell",
          "type": "bytes"
        }
      ],
      "name": "ordersCanMatch_",
      "outputs": [
        {
          "name": "",
          "type": "bool"
        }
      ],
      "payable": false,
      "stateMutability": "view",
      "type": "function"
    },
    {
      "constant": false,
      "inputs": [
        {
          "name": "addrs",
          "type": "address[7]"
        },
        {
          "name": "uints",
          "type": "uint256[7]"
        },
        {
          "name": "side",
          "type": "uint8"
        },
        {
          "name": "saleKind",
          "type": "uint8"
        },
        {
          "name": "howToCall",
          "type": "uint8"
        },
        {
          "name": "calldata",
          "type": "bytes"
        },
        {
          "name": "replacementPattern",
          "type": "bytes"
        },
        {
          "name": "staticExtradata",
          "type": "bytes"
        },
        {
          "name": "orderbookInclusionDesired",
          "type": "bool"
        }
      ],
      "name": "approveOrder_",
      "outputs": [],
      "payable": false,
      "stateMutability": "nonpayable",
      "type": "function"
    },
    {
      "constant": true,
      "inputs": [
        {
          "name": "array",
          "type": "bytes"
        },
        {
          "name": "desired",
          "type": "bytes"
        },
        {
          "name": "mask",
          "type": "bytes"
        }
      ],
      "name": "guardedArrayReplace",
      "outputs": [
        {
          "name": "",
          "type": "bytes"
        }
      ],
      "payable": false,
      "stateMutability": "pure",
      "type": "function"
    },
    {
      "constant": false,
      "inputs": [
        {
          "name": "addrs",
          "type": "address[7]"
        },
        {
          "name": "uints",
          "type": "uint256[7]"
        },
        {
          "name": "side",
          "type": "uint8"
        },
        {
          "name": "saleKind",
          "type": "uint8"
        },
        {
          "name": "howToCall",
          "type": "uint8"
        },
        {
          "name": "calldata",
          "type": "bytes"
        },
        {
          "name": "replacementPattern",
          "type": "bytes"
        },
        {
          "name": "staticExtradata",
          "type": "bytes"
        },
        {
          "name": "v",
          "type": "uint8"
        },
        {
          "name": "r",
          "type": "bytes32"
        },
        {
          "name": "s",
          "type": "bytes32"
        }
      ],
      "name": "cancelOrder_",
      "outputs": [],
      "payable": false,
      "stateMutability": "nonpayable",
      "type": "function"
    },
    {
      "constant": true,
      "inputs": [
        {
          "name": "",
          "type": "bytes32"
        }
      ],
      "name": "topBids",
      "outputs": [
        {
          "name": "bidder",
          "type": "address"
        },
        {
          "name": "amount",
          "type": "uint256"
        }
      ],
      "payable": false,
      "stateMutability": "view",
      "type": "function"
    },
    {
      "constant": true,
      "inputs": [
        {
          "name": "buyCalldata",
          "type": "bytes"
        },
        {
          "name": "buyReplacementPattern",
          "type": "bytes"
        },
        {
          "name": "sellCalldata",
          "type": "bytes"
        },
        {
          "name": "sellReplacementPattern",
          "type": "bytes"
        }
      ],
      "name": "orderCalldataCanMatch",
      "outputs": [
        {
          "name": "",
          "type": "bool"
        }
      ],
      "payable": false,
      "stateMutability": "pure",
      "type": "function"
    },
    {
      "constant": true,
      "inputs": [
        {
          "name": "addrs",
          "type": "address[14]"
        },
        {
          "name": "uints",
          "type": "uint256[14]"
        },
        {
          "name": "sidesKindsHowToCalls",
          "type": "uint8[6]"
        },
        {
          "name": "calldataBuy",
          "type": "bytes"
        },
        {
          "name": "calldataSell",
          "type": "bytes"
        },
        {
          "name": "replacementPatternBuy",
          "type": "bytes"
        },
        {
          "name": "replacementPatternSell",
          "type": "bytes"
        },
        {
          "name": "staticExtradataBuy",
          "type": "bytes"
        },
        {
          "name": "staticExtradataSell",
          "type": "bytes"
        }
      ],
      "name": "calculateMatchPrice_",
      "outputs": [
        {
          "name": "",
          "type": "uint256"
        }
      ],
      "payable": false,
      "stateMutability": "view",
      "type": "function"
    },
    {
      "constant": true,
      "inputs": [
        {
          "name": "addrs",
          "type": "address[7]"
        },
        {
          "name": "uints",
          "type": "uint256[7]"
        },
        {
          "name": "side",
          "type": "uint8"
        },
        {
          "name": "saleKind",
          "type": "uint8"
        },
        {
          "name": "howToCall",
          "type": "uint8"
        },
        {
          "name": "calldata",
          "type": "bytes"
        },
        {
          "name": "replacementPattern",
          "type": "bytes"
        },
        {
          "name": "staticExtradata",
          "type": "bytes"
        },
        {
          "name": "v",
          "type": "uint8"
        },
        {
          "name": "r",
          "type": "bytes32"
        },
        {
          "name": "s",
          "type": "bytes32"
        }
      ],
      "name": "validateOrder_",
      "outputs": [
        {
          "name": "",
          "type": "bool"
        }
      ],
      "payable": false,
      "stateMutability": "view",
      "type": "function"
    },
    {
      "constant": true,
      "inputs": [],
      "name": "bank",
      "outputs": [
        {
          "name": "",
          "type": "address"
        }
      ],
      "payable": false,
      "stateMutability": "view",
      "type": "function"
    },
    {
      "constant": true,
      "inputs": [],
      "name": "registry",
      "outputs": [
        {
          "name": "",
          "type": "address"
        }
      ],
      "payable": false,
      "stateMutability": "view",
      "type": "function"
    },
    {
      "constant": true,
      "inputs": [
        {
          "name": "",
          "type": "bytes32"
        }
      ],
      "name": "cancelledOrFinalized",
      "outputs": [
        {
          "name": "",
          "type": "bool"
        }
      ],
      "payable": false,
      "stateMutability": "view",
      "type": "function"
    },
    {
      "constant": false,
      "inputs": [
        {
          "name": "addrs",
          "type": "address[14]"
        },
        {
          "name": "uints",
          "type": "uint256[14]"
        },
        {
          "name": "sidesKindsHowToCalls",
          "type": "uint8[6]"
        },
        {
          "name": "calldataBuy",
          "type": "bytes"
        },
        {
          "name": "calldataSell",
          "type": "bytes"
        },
        {
          "name": "replacementPatternBuy",
          "type": "bytes"
        },
        {
          "name": "replacementPatternSell",
          "type": "bytes"
        },
        {
          "name": "staticExtradataBuy",
          "type": "bytes"
        },
        {
          "name": "staticExtradataSell",
          "type": "bytes"
        },
        {
          "name": "vs",
          "type": "uint8[2]"
        },
        {
          "name": "rss",
          "type": "bytes32[4]"
        }
      ],
      "name": "atomicMatch_",
      "outputs": [],
      "payable": false,
      "stateMutability": "nonpayable",
      "type": "function"
    },
    {
      "constant": true,
      "inputs": [
        {
          "name": "",
          "type": "bytes32"
        }
      ],
      "name": "approvedOrders",
      "outputs": [
        {
          "name": "",
          "type": "bool"
        }
      ],
      "payable": false,
      "stateMutability": "view",
      "type": "function"
    },
    {
      "constant": false,
      "inputs": [
        {
          "name": "addrs",
          "type": "address[7]"
        },
        {
          "name": "uints",
          "type": "uint256[7]"
        },
        {
          "name": "side",
          "type": "uint8"
        },
        {
          "name": "saleKind",
          "type": "uint8"
        },
        {
          "name": "howToCall",
          "type": "uint8"
        },
        {
          "name": "calldata",
          "type": "bytes"
        },
        {
          "name": "replacementPattern",
          "type": "bytes"
        },
        {
          "name": "staticExtradata",
          "type": "bytes"
        },
        {
          "name": "v",
          "type": "uint8"
        },
        {
          "name": "r",
          "type": "bytes32"
        },
        {
          "name": "s",
          "type": "bytes32"
        },
        {
          "name": "amount",
          "type": "uint256"
        }
      ],
      "name": "bid_",
      "outputs": [],
      "payable": false,
      "stateMutability": "nonpayable",
      "type": "function"
    },
    {
      "constant": true,
      "inputs": [
        {
          "name": "addrs",
          "type": "address[7]"
        },
        {
          "name": "uints",
          "type": "uint256[7]"
        },
        {
          "name": "side",
          "type": "uint8"
        },
        {
          "name": "saleKind",
          "type": "uint8"
        },
        {
          "name": "howToCall",
          "type": "uint8"
        },
        {
          "name": "calldata",
          "type": "bytes"
        },
        {
          "name": "replacementPattern",
          "type": "bytes"
        },
        {
          "name": "staticExtradata",
          "type": "bytes"
        }
      ],
      "name": "hashOrder_",
      "outputs": [
        {
          "name": "",
          "type": "bytes32"
        }
      ],
      "payable": false,
      "stateMutability": "pure",
      "type": "function"
    },
    {
      "anonymous": false,
      "inputs": [
        {
          "indexed": true,
          "name": "hash",
          "type": "bytes32"
        },
        {
          "indexed": false,
          "name": "exchange",
          "type": "address"
        },
        {
          "indexed": true,
          "name": "maker",
          "type": "address"
        },
        {
          "indexed": false,
          "name": "taker",
          "type": "address"
        },
        {
          "indexed": false,
          "name": "makerFee",
          "type": "uint256"
        },
        {
          "indexed": false,
          "name": "takerFee",
          "type": "uint256"
        },
        {
          "indexed": true,
          "name": "feeRecipient",
          "type": "address"
        },
        {
          "indexed": false,
          "name": "side",
          "type": "uint8"
        },
        {
          "indexed": false,
          "name": "saleKind",
          "type": "uint8"
        },
        {
          "indexed": false,
          "name": "target",
          "type": "address"
        },
        {
          "indexed": false,
          "name": "howToCall",
          "type": "uint8"
        },
        {
          "indexed": false,
          "name": "calldata",
          "type": "bytes"
        }
      ],
      "name": "OrderApprovedPartOne",
      "type": "event"
    },
    {
      "anonymous": false,
      "inputs": [
        {
          "indexed": true,
          "name": "hash",
          "type": "bytes32"
        },
        {
          "indexed": false,
          "name": "replacementPattern",
          "type": "bytes"
        },
        {
          "indexed": false,
          "name": "staticTarget",
          "type": "address"
        },
        {
          "indexed": false,
          "name": "staticExtradata",
          "type": "bytes"
        },
        {
          "indexed": false,
          "name": "paymentToken",
          "type": "address"
        },
        {
          "indexed": false,
          "name": "basePrice",
          "type": "uint256"
        },
        {
          "indexed": false,
          "name": "extra",
          "type": "uint256"
        },
        {
          "indexed": false,
          "name": "listingTime",
          "type": "uint256"
        },
        {
          "indexed": false,
          "name": "expirationTime",
          "type": "uint256"
        },
        {
          "indexed": false,
          "name": "salt",
          "type": "uint256"
        },
        {
          "indexed": false,
          "name": "orderbookInclusionDesired",
          "type": "bool"
        }
      ],
      "name": "OrderApprovedPartTwo",
      "type": "event"
    },
    {
      "anonymous": false,
      "inputs": [
        {
          "indexed": true,
          "name": "hash",
          "type": "bytes32"
        }
      ],
      "name": "OrderCancelled",
      "type": "event"
    },
    {
      "anonymous": false,
      "inputs": [
        {
          "indexed": true,
          "name": "hash",
          "type": "bytes32"
        },
        {
          "indexed": true,
          "name": "bidder",
          "type": "address"
        },
        {
          "indexed": false,
          "name": "amount",
          "type": "uint256"
        }
      ],
      "name": "OrderBidOn",
      "type": "event"
    },
    {
      "anonymous": false,
      "inputs": [
        {
          "indexed": true,
          "name": "buyHash",
          "type": "bytes32"
        },
        {
          "indexed": true,
          "name": "sellHash",
          "type": "bytes32"
        }
      ],
      "name": "OrdersMatched",
      "type": "event"
    }
  ],
  "bytecode": "0x60606040526000805460ff19169055341561001957600080fd5b613c07806100286000396000f3006060604052600436106100cc5763ffffffff60e060020a6000350416630e5d2e2181146100d1578063136f5b5a146101005780631665e6b31461032a578063239e83df1461046f57806335d91b85146105bb578063532aa1c81461070a578063562b2ebc14610742578063582420bb146108595780637627e94114610a8157806376cdb03b14610bd05780637b10399914610be35780638076f00514610bf6578063dfc7209f14610c0c578063e57d4adb14610e76578063e6d2bd7b14610e8c578063f9c29e6614610fe0575b600080fd5b34156100dc57600080fd5b6100e461111f565b604051600160a060020a03909116815260200160405180910390f35b341561010b57600080fd5b61031660046101c481600e6101c0604051908101604052919082826101c08082843782019150505050509190806101c00190600e80602002604051908101604052919082826101c080828437820191505050505091908060c001906006806020026040519081016040529190828260c0808284375093959460208082019550903586018082019450359250829150601f8201819004810201604051908101604052818152929190602084018383808284378201915050505050509190803590602001908201803590602001908080601f01602080910402602001604051908101604052818152929190602084018383808284378201915050505050509190803590602001908201803590602001908080601f01602080910402602001604051908101604052818152929190602084018383808284378201915050505050509190803590602001908201803590602001908080601f01602080910402602001604051908101604052818152929190602084018383808284378201915050505050509190803590602001908201803590602001908080601f01602080910402602001604051908101604052818152929190602084018383808284378201915050505050509190803590602001908201803590602001908080601f01602080910402602001604051908101604052818152929190602084018383808284375094965061113395505050505050565b604051901515815260200160405180910390f35b341561033557600080fd5b61046d600460e481600760e06040519081016040529190828260e080828437820191505050505091908060e001906007806020026040519081016040529190828260e08082843750939560ff8635811696602080820135831697506040808301359093169650929450608081019350606001358401808301929035918291601f83018190048102019051908101604052818152929190602084018383808284378201915050505050509190803590602001908201803590602001908080601f01602080910402602001604051908101604052818152929190602084018383808284378201915050505050509190803590602001908201803590602001908080601f0160208091040260200160405190810160405281815292919060208401838380828437509496505050509135151591506114389050565b005b341561047a57600080fd5b61054460046024813581810190830135806020601f8201819004810201604051908101604052818152929190602084018383808284378201915050505050509190803590602001908201803590602001908080601f01602080910402602001604051908101604052818152929190602084018383808284378201915050505050509190803590602001908201803590602001908080601f01602080910402602001604051908101604052818152929190602084018383808284375094965061157595505050505050565b60405160208082528190810183818151815260200191508051906020019080838360005b83811015610580578082015183820152602001610568565b50505050905090810190601f1680156105ad5780820380516001836020036101000a031916815260200191505b509250505060405180910390f35b34156105c657600080fd5b61046d600460e481600760e06040519081016040529190828260e080828437820191505050505091908060e001906007806020026040519081016040529190828260e08082843750939560ff8635811696602080820135831697506040808301359093169650929450608081019350606001358401808301929035918291601f83018190048102019051908101604052818152929190602084018383808284378201915050505050509190803590602001908201803590602001908080601f01602080910402602001604051908101604052818152929190602084018383808284378201915050505050509190803590602001908201803590602001908080601f0160208091040260200160405190810160405281815292919060208401838380828437509496505060ff8535169460208101359450604001359250611592915050565b341561071557600080fd5b6107206004356116e3565b604051600160a060020a03909216825260208201526040908101905180910390f35b341561074d57600080fd5b61031660046024813581810190830135806020601f8201819004810201604051908101604052818152929190602084018383808284378201915050505050509190803590602001908201803590602001908080601f01602080910402602001604051908101604052818152929190602084018383808284378201915050505050509190803590602001908201803590602001908080601f01602080910402602001604051908101604052818152929190602084018383808284378201915050505050509190803590602001908201803590602001908080601f01602080910402602001604051908101604052818152929190602084018383808284375094965061170895505050505050565b341561086457600080fd5b610a6f60046101c481600e6101c0604051908101604052919082826101c08082843782019150505050509190806101c00190600e80602002604051908101604052919082826101c080828437820191505050505091908060c001906006806020026040519081016040529190828260c0808284375093959460208082019550903586018082019450359250829150601f8201819004810201604051908101604052818152929190602084018383808284378201915050505050509190803590602001908201803590602001908080601f01602080910402602001604051908101604052818152929190602084018383808284378201915050505050509190803590602001908201803590602001908080601f01602080910402602001604051908101604052818152929190602084018383808284378201915050505050509190803590602001908201803590602001908080601f01602080910402602001604051908101604052818152929190602084018383808284378201915050505050509190803590602001908201803590602001908080601f01602080910402602001604051908101604052818152929190602084018383808284378201915050505050509190803590602001908201803590602001908080601f01602080910402602001604051908101604052818152929190602084018383808284375094965061173595505050505050565b60405190815260200160405180910390f35b3415610a8c57600080fd5b610316600460e481600760e06040519081016040529190828260e080828437820191505050505091908060e001906007806020026040519081016040529190828260e08082843750939560ff8635811696602080820135831697506040808301359093169650929450608081019350606001358401808301929035918291601f83018190048102019051908101604052818152929190602084018383808284378201915050505050509190803590602001908201803590602001908080601f01602080910402602001604051908101604052818152929190602084018383808284378201915050505050509190803590602001908201803590602001908080601f0160208091040260200160405190810160405281815292919060208401838380828437509496505060ff8535169460208101359450604001359250611a29915050565b3415610bdb57600080fd5b6100e4611b83565b3415610bee57600080fd5b6100e4611b92565b3415610c0157600080fd5b610316600435611ba1565b3415610c1757600080fd5b61046d60046101c481600e6101c0604051908101604052919082826101c08082843782019150505050509190806101c00190600e80602002604051908101604052919082826101c080828437820191505050505091908060c001906006806020026040519081016040529190828260c0808284375093959460208082019550903586018082019450359250829150601f8201819004810201604051908101604052818152929190602084018383808284378201915050505050509190803590602001908201803590602001908080601f01602080910402602001604051908101604052818152929190602084018383808284378201915050505050509190803590602001908201803590602001908080601f01602080910402602001604051908101604052818152929190602084018383808284378201915050505050509190803590602001908201803590602001908080601f01602080910402602001604051908101604052818152929190602084018383808284378201915050505050509190803590602001908201803590602001908080601f01602080910402602001604051908101604052818152929190602084018383808284378201915050505050509190803590602001908201803590602001908080601f01602080910402602001604051908101604052818152929190602084018383808284378201915050505050509190806040019060028060200260405190810160405280929190826002602002808284378201915050505050919080608001906004806020026040519081016040529190828260808082843750939550611bb6945050505050565b3415610e8157600080fd5b610316600435611ee6565b3415610e9757600080fd5b61046d600460e481600760e06040519081016040529190828260e080828437820191505050505091908060e001906007806020026040519081016040529190828260e08082843750939560ff8635811696602080820135831697506040808301359093169650929450608081019350606001358401808301929035918291601f83018190048102019051908101604052818152929190602084018383808284378201915050505050509190803590602001908201803590602001908080601f01602080910402602001604051908101604052818152929190602084018383808284378201915050505050509190803590602001908201803590602001908080601f0160208091040260200160405190810160405281815292919060208401838380828437509496505050833560ff16936020810135935060408101359250606001359050611efb565b3415610feb57600080fd5b610a6f600460e481600760e06040519081016040529190828260e080828437820191505050505091908060e001906007806020026040519081016040529190828260e08082843750939560ff8635811696602080820135831697506040808301359093169650929450608081019350606001358401808301929035918291601f83018190048102019051908101604052818152929190602084018383808284378201915050505050509190803590602001908201803590602001908080601f01602080910402602001604051908101604052818152929190602084018383808284378201915050505050509190803590602001908201803590602001908080601f01602080910402602001604051908101604052818152929190602084018383808284375094965061204e95505050505050565b6000546101009004600160a060020a031681565b600061113d613ae8565b611145613ae8565b6000610280604051908101604052808e51600160a060020a031681526020018e60016020020151600160a060020a0316815260200160408f0151600160a060020a031681526020018d5181526020018d60016020020151815260200160608f0151600160a060020a031681526020018c5160ff1660018111156111c457fe5b60018111156111cf57fe5b81526020018c6001602002015160ff1660028111156111ea57fe5b60028111156111f557fe5b815260200160808f0151600160a060020a0316815260200160408d015160ff16600181111561122057fe5b600181111561122b57fe5b8152602081018c9052604081018a905260600160a08f0151600160a060020a031681526020810188905260400160c08f0151600160a060020a0316815260200160408e0151815260200160608e0151815260200160808e0151815260200160a08e0151815260200160c08e0151905292506102806040519081016040528060e08f0151600160a060020a031681526020016101008f0151600160a060020a031681526020016101208f0151600160a060020a0316815260200160e08e015181526020016101008e015181526020016101408f0151600160a060020a0316815260200160608d015160ff16600181111561132057fe5b600181111561132b57fe5b815260200160808d015160ff16600281111561134357fe5b600281111561134e57fe5b81526020016101608f0151600160a060020a0316815260200160a08d015160ff16600181111561137a57fe5b600181111561138557fe5b8152602081018b9052604081018990526060016101808f0151600160a060020a03168152602081018790526040016101a08f0151600160a060020a031681526020016101208e015181526020016101408e015181526020016101608e015181526020016101808e015181526020016101a08e0151905291506003600061140a84612182565b8152602081019190915260400160002090506114278383836121b4565b9d9c50505050505050505050505050565b611440613ae8565b610280604051908101604052808b51600160a060020a031681526020018b60016020020151600160a060020a0316815260200160408c0151600160a060020a031681526020018a5181526020018a60016020020151815260200160608c0151600160a060020a031681526020018960018111156114b957fe5b81526020018860028111156114ca57fe5b815260200160808c0151600160a060020a031681526020018760018111156114ee57fe5b8152602081018790526040810186905260600160a08c0151600160a060020a031681526020810185905260400160c08c0151600160a060020a0316815260200160408b0151815260200160608b0151815260200160808b0151815260200160a08b0151815260200160c08b01519052905061156981836123ac565b50505050505050505050565b61157d613ba0565b6115888484846126f8565b50825b9392505050565b6116d6610280604051908101604052808d51600160a060020a031681526020018d60016020020151600160a060020a0316815260200160408e0151600160a060020a031681526020018c5181526020018c60016020020151815260200160608e0151600160a060020a031681526020018b600181111561160e57fe5b81526020018a600281111561161f57fe5b815260200160808e0151600160a060020a0316815260200189600181111561164357fe5b8152602081018990526040810188905260600160a08e0151600160a060020a031681526020810187905260400160c08e0151600160a060020a0316815260200160408d0151815260200160608d0151815260200160808d0151815260200160a08d0151815260200160c08d015190526060604051908101604090815260ff87168252602082018690528101849052612923565b5050505050505050505050565b60036020526000908152604090208054600190910154600160a060020a039091169082565b60006117158584866126f8565b6117208386846126f8565b61172a85846129a2565b90505b949350505050565b600061173f613ae8565b611747613ae8565b6000610280604051908101604052808e51600160a060020a031681526020018e60016020020151600160a060020a0316815260200160408f0151600160a060020a031681526020018d5181526020018d60016020020151815260200160608f0151600160a060020a031681526020018c5160ff1660018111156117c657fe5b60018111156117d157fe5b81526020018c6001602002015160ff1660028111156117ec57fe5b60028111156117f757fe5b815260200160808f0151600160a060020a0316815260200160408d015160ff16600181111561182257fe5b600181111561182d57fe5b8152602081018c9052604081018a905260600160a08f0151600160a060020a031681526020810188905260400160c08f0151600160a060020a0316815260200160408e0151815260200160608e0151815260200160808e0151815260200160a08e0151815260200160c08e0151905292506102806040519081016040528060e08f0151600160a060020a031681526020016101008f0151600160a060020a031681526020016101208f0151600160a060020a0316815260200160e08e015181526020016101008e015181526020016101408f0151600160a060020a0316815260200160608d015160ff16600181111561192257fe5b600181111561192d57fe5b815260200160808d015160ff16600281111561194557fe5b600281111561195057fe5b81526020016101608f0151600160a060020a0316815260200160a08d015160ff16600181111561197c57fe5b600181111561198757fe5b8152602081018b9052604081018990526060016101808f0151600160a060020a03168152602081018790526040016101a08f0151600160a060020a031681526020016101208e015181526020016101408e015181526020016101608e015181526020016101808e015181526020016101a08e01519052915060036000611a0c84612182565b815260208101919091526040016000209050611427838383612a38565b6000611a33613ae8565b610280604051908101604052808e51600160a060020a031681526020018e60016020020151600160a060020a0316815260200160408f0151600160a060020a031681526020018d5181526020018d60016020020151815260200160608f0151600160a060020a031681526020018c6001811115611aac57fe5b81526020018b6002811115611abd57fe5b815260200160808f0151600160a060020a031681526020018a6001811115611ae157fe5b8152602081018a90526040810189905260600160a08f0151600160a060020a031681526020810188905260400160c08f0151600160a060020a0316815260200160408e0151815260200160608e0151815260200160808e0151815260200160a08e0151815260200160c08e015190529050611427611b5e82612b0b565b826060604051908101604090815260ff8a168252602082018990528101879052612bc0565b600254600160a060020a031681565b600154600160a060020a031681565b60046020526000908152604090205460ff1681565b611bbe613ae8565b611bc6613ae8565b610280604051908101604052808e51600160a060020a031681526020018e60016020020151600160a060020a0316815260200160408f0151600160a060020a031681526020018d5181526020018d60016020020151815260200160608f0151600160a060020a031681526020018c5160ff166001811115611c4357fe5b6001811115611c4e57fe5b81526020018c6001602002015160ff166002811115611c6957fe5b6002811115611c7457fe5b815260200160808f0151600160a060020a0316815260200160408d015160ff166001811115611c9f57fe5b6001811115611caa57fe5b8152602081018c9052604081018a905260600160a08f0151600160a060020a031681526020810188905260400160c08f0151600160a060020a0316815260200160408e0151815260200160608e0151815260200160808e0151815260200160a08e0151815260200160c08e0151905291506102806040519081016040528060e08f0151600160a060020a031681526020016101008f0151600160a060020a031681526020016101208f0151600160a060020a0316815260200160e08e015181526020016101008e015181526020016101408f0151600160a060020a0316815260200160608d015160ff166001811115611d9f57fe5b6001811115611daa57fe5b815260200160808d015160ff166002811115611dc257fe5b6002811115611dcd57fe5b81526020016101608f0151600160a060020a0316815260200160a08d015160ff166001811115611df957fe5b6001811115611e0457fe5b8152602081018b9052604081018990526060016101808f0151600160a060020a03168152602081018790526040016101a08f0151600160a060020a031681526020016101208e015181526020016101408e015181526020016101608e015181526020016101808e015181526020016101a08e015190529050611ed782606060405190810160405280875160ff16815260200186518152602001866001602002015190528360606040519081016040528060208a015160ff1681526020016040890151815260200160608901519052612d14565b50505050505050505050505050565b60056020526000908152604090205460ff1681565b612040610280604051908101604052808e51600160a060020a031681526020018e60016020020151600160a060020a0316815260200160408f0151600160a060020a031681526020018d5181526020018d60016020020151815260200160608f0151600160a060020a031681526020018c6001811115611f7757fe5b81526020018b6002811115611f8857fe5b815260200160808f0151600160a060020a031681526020018a6001811115611fac57fe5b8152602081018a90526040810189905260600160a08f0151600160a060020a031681526020810188905260400160c08f0151600160a060020a0316815260200160408e0151815260200160608e0151815260200160808e0151815260200160a08e0151815260200160c08e015190526060604051908101604090815260ff881682526020820187905281018590528361303a565b505050505050505050505050565b6000612175610280604051908101604052808b51600160a060020a031681526020018b60016020020151600160a060020a0316815260200160408c0151600160a060020a031681526020018a5181526020018a60016020020151815260200160608c0151600160a060020a031681526020018960018111156120cc57fe5b81526020018860028111156120dd57fe5b815260200160808c0151600160a060020a0316815260200187600181111561210157fe5b8152602081018790526040810186905260600160a08c0151600160a060020a031681526020810185905260400160c08c0151600160a060020a0316815260200160408b0151815260200160608b0151815260200160808b0151815260200160a08b0151815260200160c08b01519052612182565b9998505050505050505050565b600061218d8261326d565b61219683613424565b60405191825260208201526040908101905180910390209050919050565b6000808460c0015160018111156121c757fe5b1480156121e3575060018360c0015160018111156121e157fe5b145b801561220a5750826101c00151600160a060020a0316846101c00151600160a060020a0316145b8015612246575060006040840151600160a060020a0316148061224657508360200151600160a060020a03168360400151600160a060020a0316145b8015612282575060006040850151600160a060020a0316148061228257508260200151600160a060020a03168460400151600160a060020a0316145b80156122e55750600060a0840151600160a060020a03161480156122b45750600060a0850151600160a060020a031614155b806122e55750600060a0840151600160a060020a0316141580156122e55750600060a0850151600160a060020a0316145b801561230c5750826101000151600160a060020a0316846101000151600160a060020a0316145b80156123375750826101200151600181111561232457fe5b846101200151600181111561233557fe5b145b801561236a575061236a8460e0015184602001518661024001516040805190810160405260008082526020820152613523565b801561172d575061172d8360e00151856020015185610240015185604080519081016040528154600160a060020a031681526001909101546020820152613523565b60008260200151600160a060020a031633600160a060020a03161415156123d257600080fd5b6123db83612b0b565b60008181526005602052604090205490915060ff16156123fa57600080fd5b6000818152600560205260409020805460ff1916600117905560a0830151600160a060020a03168360200151600160a060020a0316827faee3673166cb20f9607e8257375d5244a4f82611eb34a8319dd0b527e89460bf86518760400151886060015189608001518a60c001518b60e001518c61010001518d61012001518e6101400151604051600160a060020a03808b168252891660208201526040810188905260608101879052608081018660018111156124b357fe5b60ff1681526020018560028111156124c757fe5b60ff168152600160a060020a03851660208201526040018360018111156124ea57fe5b60ff16815260200180602001828103825283818151815260200191508051906020019080838360005b8381101561252b578082015183820152602001612513565b50505050905090810190601f1680156125585780820380516001836020036101000a031916815260200191505b509a505050505050505050505060405180910390a4807f6b227a8fe336bb14cfe503246633ca4550cd8065f1933a5ffaf83a955eaa40ed610160850151856101800151866101a00151876101c00151886101e001518961020001518a61022001518b61024001518c61026001518c604051600160a060020a03808b166020830152881660608201526080810187905260a0810186905260c0810185905260e0810184905261010081018390528115156101208201526101408082528190604082019082018d818151815260200191508051906020019080838360005b8381101561264c578082015183820152602001612634565b50505050905090810190601f1680156126795780820380516001836020036101000a031916815260200191505b5083810382528b818151815260200191508051906020019080838360005b838110156126af578082015183820152602001612697565b50505050905090810190601f1680156126dc5780820380516001836020036101000a031916815260200191505b509c5050505050505050505050505060405180910390a2505050565b612700613bb2565b60008061010060405190810160409081527f800000000000000000000000000000000000000000000000000000000000000082527f400000000000000000000000000000000000000000000000000000000000000060208301527f2000000000000000000000000000000000000000000000000000000000000000908201527f100000000000000000000000000000000000000000000000000000000000000060608201527f080000000000000000000000000000000000000000000000000000000000000060808201527f040000000000000000000000000000000000000000000000000000000000000060a08201527f020000000000000000000000000000000000000000000000000000000000000060c082015260f860020a60e08201529250845186511461283157600080fd5b6008865181151561283e57fe5b048451101561284c57600080fd5b600091505b855182101561291b5782600883066008811061286957fe5b602002015184600884048151811061287d57fe5b016020015160f860020a900460f860020a0216600160f860020a031916600060f860020a02149050806128cd578482815181106128b657fe5b016020015160f860020a900460f860020a026128ec565b8582815181106128d957fe5b016020015160f860020a900460f860020a025b8683815181106128f857fe5b906020010190600160f860020a031916908160001a905350600190910190612851565b505050505050565b600061292f8383613574565b90508260200151600160a060020a031633600160a060020a031614151561295557600080fd5b60008181526004602052604090819020805460ff1916600117905581907f5152abf959f6564662358c2e52b702259b78bac5ee7842a0f01937e670efcc7d905160405180910390a2505050565b60008082518451146129b75760009150612a31565b5060005b8351811015612a2c578281815181106129d057fe5b016020015160f860020a900460f860020a02600160f860020a0319168482815181106129f857fe5b016020015160f860020a900460f860020a02600160f860020a031916141515612a245760009150612a31565b6001016129bb565b600191505b5092915050565b6000806000612a8a8560c001518660e00151876101e001518861020001518961022001518a61024001518a604080519081016040528154600160a060020a031681526001909101546020820152613598565b9150612ad98660c001518760e00151886101e001518961020001518a61022001518b61024001518a604080519081016040528154600160a060020a031681526001909101546020820152613598565b905081811015612ae857600080fd5b85610220015185610220015110612aff5780612b01565b815b9695505050505050565b6000612b15613ba0565b600060408051908101604052601c81527f19457468657265756d205369676e6564204d6573736167653a0a3332000000006020820152915081612b5785612182565b6040518083805190602001908083835b60208310612b865780518252601f199092019160209182019101612b67565b6001836020036101000a03801982511681845116179092525050509190910192835250506020019050604051908190039020949350505050565b6000600160a060020a0330168351600160a060020a031614612be45750600061158b565b60008481526004602052604090205460ff1615612c035750600061158b565b612c1b8360c001518460e00151856102400151613646565b1515612c295750600061158b565b8260200151600160a060020a031633600160a060020a03161415612c4f5750600161158b565b60008481526005602052604090205460ff1615612c6e5750600161158b565b8260200151600160a060020a03166001858451856020015186604001516040516000815260200160405260006040516020015260405193845260ff90921660208085019190915260408085019290925260608401929092526080909201915160208103908084039060008661646e5a03f11515612cea57600080fd5b505060206040510351600160a060020a03161415612d0a5750600161158b565b5060009392505050565b600080600080612d248888613574565b9350612d308686613574565b60008181526003602052604090209093509150612d4e8887846121b4565b1515612d5957600080fd5b612d738861014001518761014001518a61016001516126f8565b612d8d8661014001518961014001518861016001516126f8565b612da18861014001518761014001516129a2565b1515612dac57600080fd5b600154600160a060020a031663c4552791602088015160006040516020015260405160e060020a63ffffffff8416028152600160a060020a039091166004820152602401602060405180830381600087803b1515612e0957600080fd5b6102c65a03f11515612e1a57600080fd5b5050506040518051915050600160a060020a0381161515612e3a57600080fd5b6000848152600460205260408082208054600160ff1991821681179092558684529190922080549091169091179055612e74888784613695565b80600160a060020a0316631b0f7ba98761010001518861012001518961014001516000604051602001526040518463ffffffff1660e060020a0281526004018084600160a060020a0316600160a060020a03168152602001836001811115612ed857fe5b60ff16815260200180602001828103825283818151815260200191508051906020019080838360005b83811015612f19578082015183820152602001612f01565b50505050905090810190601f168015612f465780820380516001836020036101000a031916815260200191505b50945050505050602060405180830381600087803b1515612f6657600080fd5b6102c65a03f11515612f7757600080fd5b505050604051805190501515612f8c57600080fd5b6000610180890151600160a060020a031614612fc757612fbc8861018001518761014001518a6101a001516138e2565b1515612fc757600080fd5b6000610180870151600160a060020a03161461300257612ff7866101800151876101400151886101a001516138e2565b151561300257600080fd5b82847f0ac43ae443462c4ede260ad38899e594fa78238f3252539851b7b4395f3b043e60405160405180910390a35050505050505050565b60008060006130498686613574565b600081815260036020526040902090935091506130a360c08701518760e00151886101e001518961020001518a610240015187604080519081016040528154600160a060020a0316815260019091015460208201526139e7565b9050808410156130b257600080fd5b604080519081016040908152600160a060020a0333168252602080830187905260008681526003909152208151815473ffffffffffffffffffffffffffffffffffffffff1916600160a060020a03919091161781556020820151600190910155508154600160a060020a0316156131aa576002548254600160a060020a0391821691639577bffa91166101c0890151856001015460405160e060020a63ffffffff8616028152600160a060020a0393841660048201529190921660248201526044810191909152606401600060405180830381600087803b151561319557600080fd5b6102c65a03f115156131a657600080fd5b5050505b600254600160a060020a0316635a8158e2336101c08901518760405160e060020a63ffffffff8616028152600160a060020a0393841660048201529190921660248201526044810191909152606401600060405180830381600087803b151561321257600080fd5b6102c65a03f1151561322357600080fd5b5050600160a060020a0333169050837fff38b86de5d69f2775369319139dcab1f44807defd694708dd58e5d96ecd7c158660405190815260200160405180910390a3505050505050565b6000815182602001518360400151846060015185608001518660a001518760c001518860e001518961010001518a61012001518b61014001518c61016001516040516c01000000000000000000000000600160a060020a03808f16820283528d8116820260148401528c811682026028840152603c83018c9052605c83018b9052891602607c8201526090810187600181111561330657fe5b60ff1660f860020a02815260010186600281111561332057fe5b60ff1660f860020a02815260010185600160a060020a0316600160a060020a03166c0100000000000000000000000002815260140184600181111561336157fe5b60ff1660f860020a02815260010183805190602001908083835b6020831061339a5780518252601f19909201916020918201910161337b565b6001836020036101000a038019825116818451161790925250505091909101905082805190602001908083835b602083106133e65780518252601f1990920191602091820191016133c7565b6001836020036101000a0380198251168184511617909252505050919091019d5060409c505050505050505050505050505180910390209050919050565b6000816101800151826101a00151836101c00151846101e001518561020001518661022001518761024001518861026001516040516c01000000000000000000000000600160a060020a038a160281526014810188805190602001908083835b602083106134a35780518252601f199092019160209182019101613484565b6001836020036101000a03801982511681845116808217855250505050505090500187600160a060020a0316600160a060020a03166c010000000000000000000000000281526014018681526020018581526020018481526020018381526020018281526020019850505050505050505060405180910390209050919050565b6000600185600281111561353357fe5b1415613562578151600160a060020a031684600160a060020a031614801561355b5750824210155b905061172d565b82158061355b5750824210905061172d565b60008061358084612b0b565b905061358d818585612bc0565b151561158b57600080fd5b600080808860028111156135a857fe5b14156135b65786915061363a565b60018860028111156135c457fe5b14156135ee5760008351600160a060020a031614156135e257600080fd5b8260200151915061363a565b60028860028111156135fc57fe5b14156100cc57848403854203870281151561361357fe5b049050600189600181111561362457fe5b141561363457808703915061363a565b80870191505b50979650505050505050565b6000600183600281111561365657fe5b14158061366e5750600184600181111561366c57fe5b145b801561172d5750600083600281111561368357fe5b148061172d5750506000901192915050565b60006136a2848484612a38565b9050600060a0840151600160a060020a031614613701578360800151836080015111156136ce57600080fd5b6136e583602001518460a001518560600151613a51565b6136fc84602001518460a001518560800151613a51565b613744565b82608001518460800151111561371657600080fd5b61372d84602001518560a001518660600151613a51565b61374483602001518560a001518660800151613a51565b8154600160a060020a0316156137db576002548254600160a060020a0391821691639577bffa91166101c0860151856001015460405160e060020a63ffffffff8616028152600160a060020a0393841660048201529190921660248201526044810191909152606401600060405180830381600087803b15156137c657600080fd5b6102c65a03f115156137d757600080fd5b5050505b600254600160a060020a031663cb5f26436020860151856101c001518460405160e060020a63ffffffff8616028152600160a060020a0393841660048201529190921660248201526044810191909152606401600060405180830381600087803b151561384757600080fd5b6102c65a03f1151561385857600080fd5b5050600254600160a060020a0316905063034422ef6020850151856101c001518460405160e060020a63ffffffff8616028152600160a060020a0393841660048201529190921660248201526044810191909152606401600060405180830381600087803b15156138c857600080fd5b6102c65a03f115156138d957600080fd5b50505050505050565b60006138ec613ba0565b600080600085518751016040518059106139035750595b818152601f19601f83011681016020016040529050935083519250600091505b86518210156139795786828151811061393857fe5b016020015160f860020a900460f860020a0284838151811061395657fe5b906020010190600160f860020a031916908160001a905350600190910190613923565b5060005b85518110156139d35785818151811061399257fe5b016020015160f860020a900460f860020a028488518301815181106139b357fe5b906020010190600160f860020a031916908160001a90535060010161397d565b60008484868b5afa98975050505050505050565b600060018760018111156139f757fe5b148015613a0f57506001866002811115613a0d57fe5b145b8015613a1a57508242105b1515613a2557600080fd5b60008251600160a060020a03161415613a3f575083612b01565b83826020015101979650505050505050565b6000811115613ae357600254600054600160a060020a039182169163f49ec96191869186916101009004168560405160e060020a63ffffffff8716028152600160a060020a0394851660048201529284166024840152921660448201526064810191909152608401600060405180830381600087803b1515613ad257600080fd5b6102c65a03f1151561291b57600080fd5b505050565b6102806040519081016040908152600080835260208301819052908201819052606082018190526080820181905260a0820181905260c0820181905260e0820181905261010082018190526101208201526101408101613b46613ba0565b8152602001613b53613ba0565b815260006020820152604001613b67613ba0565b81526020016000600160a060020a0316815260200160008152602001600081526020016000815260200160008152602001600081525090565b60206040519081016040526000815290565b6101006040519081016040526008815b600081526000199091019060200181613bc257905050905600a165627a7a7230582032306afdb82d4a68aceaccd97e692bbdf50dc906112b77d5181e68dd7c2a11fa0029",
  "source": "/*\n  \n  Exchange (outer contract with public functions).\n \n*/\n\npragma solidity 0.4.18;\n\nimport \"./ExchangeCore.sol\";\n\n/**\n * @title Exchange\n * @author Project Wyvern Developers\n */\ncontract Exchange is ExchangeCore {\n\n    /* Inline library function exposed for testing. */\n    function guardedArrayReplace(bytes array, bytes desired, bytes mask)\n        public\n        pure\n        returns (bytes)\n    {\n        ArrayUtils.guardedArrayReplace(array, desired, mask);\n        return array;\n    }\n\n    /* Solidity ABI encoding limitation workaround, hopefully temporary. */\n    function hashOrder_(\n        address[7] addrs,\n        uint[7] uints,\n        SaleKindInterface.Side side,\n        SaleKindInterface.SaleKind saleKind,\n        AuthenticatedProxy.HowToCall howToCall,\n        bytes calldata,\n        bytes replacementPattern,\n        bytes staticExtradata)\n        public\n        pure\n        returns (bytes32)\n    { \n        return hashOrder(\n          Order(addrs[0], addrs[1], addrs[2], uints[0], uints[1], addrs[3], side, saleKind, addrs[4], howToCall, calldata, replacementPattern, addrs[5], staticExtradata, ERC20(addrs[6]), uints[2], uints[3], uints[4], uints[5], uints[6])\n        );\n    }\n\n    /* Solidity ABI encoding limitation workaround, hopefully temporary. */\n    function validateOrder_ (\n        address[7] addrs,\n        uint[7] uints,\n        SaleKindInterface.Side side,\n        SaleKindInterface.SaleKind saleKind,\n        AuthenticatedProxy.HowToCall howToCall,\n        bytes calldata,\n        bytes replacementPattern,\n        bytes staticExtradata,\n        uint8 v,\n        bytes32 r,\n        bytes32 s)\n        view\n        public\n        returns (bool)\n    {\n        Order memory order = Order(addrs[0], addrs[1], addrs[2], uints[0], uints[1], addrs[3], side, saleKind, addrs[4], howToCall, calldata, replacementPattern, addrs[5], staticExtradata, ERC20(addrs[6]), uints[2], uints[3], uints[4], uints[5], uints[6]);\n        return validateOrder(\n          hashToSign(order),\n          order,\n          Sig(v, r, s)\n        );\n    }\n\n    /* Solidity ABI encoding limitation workaround, hopefully temporary. */\n    function approveOrder_ (\n        address[7] addrs,\n        uint[7] uints,\n        SaleKindInterface.Side side,\n        SaleKindInterface.SaleKind saleKind,\n        AuthenticatedProxy.HowToCall howToCall,\n        bytes calldata,\n        bytes replacementPattern,\n        bytes staticExtradata,\n        bool orderbookInclusionDesired) \n        public\n    {\n        Order memory order = Order(addrs[0], addrs[1], addrs[2], uints[0], uints[1], addrs[3], side, saleKind, addrs[4], howToCall, calldata, replacementPattern, addrs[5], staticExtradata, ERC20(addrs[6]), uints[2], uints[3], uints[4], uints[5], uints[6]);\n        return approveOrder(order, orderbookInclusionDesired);\n    }\n\n    /* Solidity ABI encoding limitation workaround, hopefully temporary. */\n    function cancelOrder_(\n        address[7] addrs,\n        uint[7] uints,\n        SaleKindInterface.Side side,\n        SaleKindInterface.SaleKind saleKind,\n        AuthenticatedProxy.HowToCall howToCall,\n        bytes calldata,\n        bytes replacementPattern,\n        bytes staticExtradata,\n        uint8 v,\n        bytes32 r,\n        bytes32 s)\n        public\n    {\n\n        return cancelOrder(\n          Order(addrs[0], addrs[1], addrs[2], uints[0], uints[1], addrs[3], side, saleKind, addrs[4], howToCall, calldata, replacementPattern, addrs[5], staticExtradata, ERC20(addrs[6]), uints[2], uints[3], uints[4], uints[5], uints[6]),\n          Sig(v, r, s)\n        );\n    }\n\n    /* Solidity ABI encoding limitation workaround, hopefully temporary. */\n    function bid_(\n        address[7] addrs,\n        uint[7] uints,\n        SaleKindInterface.Side side,\n        SaleKindInterface.SaleKind saleKind,\n        AuthenticatedProxy.HowToCall howToCall,\n        bytes calldata,\n        bytes replacementPattern,\n        bytes staticExtradata,\n        uint8 v,\n        bytes32 r,\n        bytes32 s,\n        uint amount)\n        public\n    {\n        return bid(\n          Order(addrs[0], addrs[1], addrs[2], uints[0], uints[1], addrs[3], side, saleKind, addrs[4], howToCall, calldata, replacementPattern, addrs[5], staticExtradata, ERC20(addrs[6]), uints[2], uints[3], uints[4], uints[5], uints[6]),\n          Sig(v, r, s),\n          amount\n        );\n    }\n\n    /* Solidity ABI encoding limitation workaround, hopefully temporary. */\n    function ordersCanMatch_(\n        address[14] addrs,\n        uint[14] uints,\n        uint8[6] sidesKindsHowToCalls,\n        bytes calldataBuy,\n        bytes calldataSell,\n        bytes replacementPatternBuy,\n        bytes replacementPatternSell,\n        bytes staticExtradataBuy,\n        bytes staticExtradataSell)\n        public\n        view\n        returns (bool)\n    {\n        Order memory buy = Order(addrs[0], addrs[1], addrs[2], uints[0], uints[1], addrs[3], SaleKindInterface.Side(sidesKindsHowToCalls[0]), SaleKindInterface.SaleKind(sidesKindsHowToCalls[1]), addrs[4], AuthenticatedProxy.HowToCall(sidesKindsHowToCalls[2]), calldataBuy, replacementPatternBuy, addrs[5], staticExtradataBuy, ERC20(addrs[6]), uints[2], uints[3], uints[4], uints[5], uints[6]);\n        Order memory sell = Order(addrs[7], addrs[8], addrs[9], uints[7], uints[8], addrs[10], SaleKindInterface.Side(sidesKindsHowToCalls[3]), SaleKindInterface.SaleKind(sidesKindsHowToCalls[4]), addrs[11], AuthenticatedProxy.HowToCall(sidesKindsHowToCalls[5]), calldataSell, replacementPatternSell, addrs[12], staticExtradataSell, ERC20(addrs[13]), uints[9], uints[10], uints[11], uints[12], uints[13]);\n        SaleKindInterface.Bid storage topBid = topBids[hashOrder(sell)];\n        return ordersCanMatch(\n          buy,\n          sell,\n          topBid\n        );\n    }\n\n    function orderCalldataCanMatch(bytes buyCalldata, bytes buyReplacementPattern, bytes sellCalldata, bytes sellReplacementPattern)\n        public\n        pure\n        returns (bool)\n    {\n        ArrayUtils.guardedArrayReplace(buyCalldata, sellCalldata, buyReplacementPattern);\n        ArrayUtils.guardedArrayReplace(sellCalldata, buyCalldata, sellReplacementPattern);\n        return ArrayUtils.arrayEq(buyCalldata, sellCalldata);\n    }\n\n    /* Solidity ABI encoding limitation workaround, hopefully temporary. */\n    function calculateMatchPrice_(\n        address[14] addrs,\n        uint[14] uints,\n        uint8[6] sidesKindsHowToCalls,\n        bytes calldataBuy,\n        bytes calldataSell,\n        bytes replacementPatternBuy,\n        bytes replacementPatternSell,\n        bytes staticExtradataBuy,\n        bytes staticExtradataSell)\n        public\n        view\n        returns (uint)\n    {\n        Order memory buy = Order(addrs[0], addrs[1], addrs[2], uints[0], uints[1], addrs[3], SaleKindInterface.Side(sidesKindsHowToCalls[0]), SaleKindInterface.SaleKind(sidesKindsHowToCalls[1]), addrs[4], AuthenticatedProxy.HowToCall(sidesKindsHowToCalls[2]), calldataBuy, replacementPatternBuy, addrs[5], staticExtradataBuy, ERC20(addrs[6]), uints[2], uints[3], uints[4], uints[5], uints[6]);\n        Order memory sell = Order(addrs[7], addrs[8], addrs[9], uints[7], uints[8], addrs[10], SaleKindInterface.Side(sidesKindsHowToCalls[3]), SaleKindInterface.SaleKind(sidesKindsHowToCalls[4]), addrs[11], AuthenticatedProxy.HowToCall(sidesKindsHowToCalls[5]), calldataSell, replacementPatternSell, addrs[12], staticExtradataSell, ERC20(addrs[13]), uints[9], uints[10], uints[11], uints[12], uints[13]);\n        SaleKindInterface.Bid storage topBid = topBids[hashOrder(sell)];\n        return calculateMatchPrice(\n          buy,\n          sell,\n          topBid\n        );\n    }\n\n    /* Solidity ABI encoding limitation workaround, hopefully temporary. */\n    function atomicMatch_(\n        address[14] addrs,\n        uint[14] uints,\n        uint8[6] sidesKindsHowToCalls,\n        bytes calldataBuy,\n        bytes calldataSell,\n        bytes replacementPatternBuy,\n        bytes replacementPatternSell,\n        bytes staticExtradataBuy,\n        bytes staticExtradataSell,\n        uint8[2] vs,\n        bytes32[4] rss)\n        public\n    {\n        Order memory buy = Order(addrs[0], addrs[1], addrs[2], uints[0], uints[1], addrs[3], SaleKindInterface.Side(sidesKindsHowToCalls[0]), SaleKindInterface.SaleKind(sidesKindsHowToCalls[1]), addrs[4], AuthenticatedProxy.HowToCall(sidesKindsHowToCalls[2]), calldataBuy, replacementPatternBuy, addrs[5], staticExtradataBuy, ERC20(addrs[6]), uints[2], uints[3], uints[4], uints[5], uints[6]);\n        Order memory sell = Order(addrs[7], addrs[8], addrs[9], uints[7], uints[8], addrs[10], SaleKindInterface.Side(sidesKindsHowToCalls[3]), SaleKindInterface.SaleKind(sidesKindsHowToCalls[4]), addrs[11], AuthenticatedProxy.HowToCall(sidesKindsHowToCalls[5]), calldataSell, replacementPatternSell, addrs[12], staticExtradataSell, ERC20(addrs[13]), uints[9], uints[10], uints[11], uints[12], uints[13]);\n        return atomicMatch(\n          buy,\n          Sig(vs[0], rss[0], rss[1]),\n          sell,\n          Sig(vs[1], rss[2], rss[3])\n        );\n    }\n\n}\n",
  "sourcePath": "/home/cwgoes/working/crypto/wyvern/wyvern-ethereum/contracts/exchange/Exchange.sol",
  "compiler": {
    "name": "solc",
    "version": "0.4.18+commit.9cf6e910.Emscripten.clang"
  },
  "schemaVersion": "1.0.1",
  "updatedAt": "2018-01-30T21:34:03.171Z"
}