{
  "contractName": "LazyBank",
  "abi": [
    {
      "constant": false,
      "inputs": [
        {
          "name": "token",
          "type": "address"
        },
        {
          "name": "amount",
          "type": "uint256"
        }
      ],
      "name": "deposit",
      "outputs": [],
      "payable": false,
      "stateMutability": "nonpayable",
      "type": "function"
    },
    {
      "constant": true,
      "inputs": [
        {
          "name": "user",
          "type": "address"
        },
        {
          "name": "token",
          "type": "address"
        }
      ],
      "name": "lockedFor",
      "outputs": [
        {
          "name": "",
          "type": "uint256"
        }
      ],
      "payable": false,
      "stateMutability": "view",
      "type": "function"
    },
    {
      "constant": false,
      "inputs": [
        {
          "name": "token",
          "type": "address"
        },
        {
          "name": "amount",
          "type": "uint256"
        },
        {
          "name": "dest",
          "type": "address"
        }
      ],
      "name": "withdraw",
      "outputs": [],
      "payable": false,
      "stateMutability": "nonpayable",
      "type": "function"
    },
    {
      "constant": true,
      "inputs": [
        {
          "name": "",
          "type": "address"
        },
        {
          "name": "",
          "type": "address"
        }
      ],
      "name": "balances",
      "outputs": [
        {
          "name": "",
          "type": "uint256"
        }
      ],
      "payable": false,
      "stateMutability": "view",
      "type": "function"
    },
    {
      "constant": true,
      "inputs": [
        {
          "name": "",
          "type": "address"
        },
        {
          "name": "",
          "type": "address"
        }
      ],
      "name": "locked",
      "outputs": [
        {
          "name": "",
          "type": "uint256"
        }
      ],
      "payable": false,
      "stateMutability": "view",
      "type": "function"
    },
    {
      "constant": true,
      "inputs": [
        {
          "name": "user",
          "type": "address"
        },
        {
          "name": "token",
          "type": "address"
        }
      ],
      "name": "availableFor",
      "outputs": [
        {
          "name": "",
          "type": "uint256"
        }
      ],
      "payable": false,
      "stateMutability": "view",
      "type": "function"
    },
    {
      "constant": true,
      "inputs": [
        {
          "name": "user",
          "type": "address"
        },
        {
          "name": "token",
          "type": "address"
        }
      ],
      "name": "balanceFor",
      "outputs": [
        {
          "name": "",
          "type": "uint256"
        }
      ],
      "payable": false,
      "stateMutability": "view",
      "type": "function"
    },
    {
      "anonymous": false,
      "inputs": [
        {
          "indexed": true,
          "name": "user",
          "type": "address"
        },
        {
          "indexed": true,
          "name": "token",
          "type": "address"
        },
        {
          "indexed": false,
          "name": "amount",
          "type": "uint256"
        }
      ],
      "name": "Credited",
      "type": "event"
    },
    {
      "anonymous": false,
      "inputs": [
        {
          "indexed": true,
          "name": "user",
          "type": "address"
        },
        {
          "indexed": true,
          "name": "token",
          "type": "address"
        },
        {
          "indexed": false,
          "name": "amount",
          "type": "uint256"
        }
      ],
      "name": "Debited",
      "type": "event"
    },
    {
      "anonymous": false,
      "inputs": [
        {
          "indexed": true,
          "name": "user",
          "type": "address"
        },
        {
          "indexed": true,
          "name": "token",
          "type": "address"
        },
        {
          "indexed": false,
          "name": "amount",
          "type": "uint256"
        }
      ],
      "name": "Locked",
      "type": "event"
    },
    {
      "anonymous": false,
      "inputs": [
        {
          "indexed": true,
          "name": "user",
          "type": "address"
        },
        {
          "indexed": true,
          "name": "token",
          "type": "address"
        },
        {
          "indexed": false,
          "name": "amount",
          "type": "uint256"
        }
      ],
      "name": "Unlocked",
      "type": "event"
    }
  ],
  "bytecode": "0x6060604052341561000f57600080fd5b61066d8061001e6000396000f3006060604052600436106100695763ffffffff60e060020a60003504166347e7ef24811461006e5780634e10c95d1461009257806369328dec146100c9578063c23f001f146100f2578063db20266f14610117578063db2ec6bd1461013c578063f771e78b14610161575b600080fd5b341561007957600080fd5b610090600160a060020a0360043516602435610186565b005b341561009d57600080fd5b6100b7600160a060020a0360043581169060243516610225565b60405190815260200160405180910390f35b34156100d457600080fd5b610090600160a060020a036004358116906024359060443516610250565b34156100fd57600080fd5b6100b7600160a060020a036004358116906024351661032d565b341561012257600080fd5b6100b7600160a060020a0360043581169060243516610347565b341561014757600080fd5b6100b7600160a060020a0360043581169060243516610364565b341561016c57600080fd5b6100b7600160a060020a03600435811690602435166103b0565b6101913383836103d9565b81600160a060020a03166323b872dd33308460006040516020015260405160e060020a63ffffffff8616028152600160a060020a0393841660048201529190921660248201526044810191909152606401602060405180830381600087803b15156101fb57600080fd5b6102c65a03f1151561020c57600080fd5b50505060405180519050151561022157600080fd5b5050565b600160a060020a03918216600090815260016020908152604080832093909416825291909152205490565b600160a060020a03338116600081815260208181526040808320948816808452948252808320549383526001825280832094835293905291822054610295919061046d565b9050808311156102a457600080fd5b6102af33858561047f565b83600160a060020a031663a9059cbb838560006040516020015260405160e060020a63ffffffff8516028152600160a060020a0390921660048301526024820152604401602060405180830381600087803b151561030c57600080fd5b6102c65a03f1151561031d57600080fd5b5050506040518051505050505050565b600060208181529281526040808220909352908152205481565b600160209081526000928352604080842090915290825290205481565b600160a060020a038083166000818152602081815260408083209486168084529482528083205493835260018252808320948352939052918220546103a9919061046d565b9392505050565b600160a060020a0391821660009081526020818152604080832093909416825291909152205490565b600160a060020a03808416600090815260208181526040808320938616835292905220546104079082610632565b600160a060020a0380851660008181526020818152604080832094881680845294909152908190209390935590917f4e45da441832cf53bdaa69235704fc0575e68210f459ee1562911024b12967d59084905190815260200160405180910390a3505050565b60008282111561047957fe5b50900390565b600160a060020a0380841660008181526020818152604080832094871680845294825280832054938352600182528083209483529390529182205482916104c59161046d565b915083600160a060020a031685600160a060020a03167f9407bd81f01ad8f5ae4a2487b63d3d1b1947257c2dcdda3ea183dc8e6965cc6e8560405190815260200160405180910390a382821061056c57600160a060020a0380861660009081526020818152604080832093881683529290522054610543908461046d565b600160a060020a038087166000908152602081815260408083209389168352929052205561062b565b610576838361046d565b600160a060020a038087166000908152602081815260408083209389168084529390915280822082905592935090916323b872dd91889130918691516020015260405160e060020a63ffffffff8616028152600160a060020a0393841660048201529190921660248201526044810191909152606401602060405180830381600087803b151561060557600080fd5b6102c65a03f1151561061657600080fd5b50505060405180519050151561062b57600080fd5b5050505050565b6000828201838110156103a957fe00a165627a7a72305820285ab755b9be72be88e75e4a1ebe614430c5054e6f6353118909a3e98ce8c6110029",
  "source": "/*\n\n  LazyBank - keep user balances, support credit, debit, and locking, and minimize requisite token transfers whilst doing so.\n\n*/\n\npragma solidity 0.4.18;\n\nimport \"zeppelin-solidity/contracts/token/ERC20.sol\";\nimport \"zeppelin-solidity/contracts/math/SafeMath.sol\";\n\n/**\n * @title LazyBank\n * @author Project Wyvern Developers\n */\ncontract LazyBank {\n\n    /* Token balances, by owner, by token. */\n    mapping(address => mapping(address => uint)) public balances;\n\n    /* Locked tokens, by owner, by token. */\n    mapping(address => mapping(address => uint)) public locked;\n\n    event Credited(address indexed user, address indexed token, uint amount);\n    event Debited(address indexed user, address indexed token, uint amount);\n    event Locked(address indexed user, address indexed token, uint amount);\n    event Unlocked(address indexed user, address indexed token, uint amount);\n\n    /**\n     * Return the balance a user has of a token\n     * \n     * @param user User address to query\n     * @param token Token address to query\n     * @return Balance of the user\n     */\n    function balanceFor(address user, ERC20 token)\n        public\n        view\n        returns (uint)\n    {\n        return balances[user][token];\n    }\n\n    /**\n     * Return the locked amount a user has of a token\n     *\n     * @param user User address to query\n     * @param token Token address to query\n     * @return Amount of tokens locked for the user\n     */\n    function lockedFor(address user, ERC20 token)\n        public\n        view\n        returns (uint)\n    {\n        return locked[user][token];\n    }\n\n    /**\n     * Returns the amount of a token a user could withdraw immediately\n     * \n     * @param user User address to query\n     * @param token Token address to query\n     * @return Amount of tokens available for withdrawal\n     */\n    function availableFor(address user, ERC20 token)\n        public\n        view\n        returns (uint)\n    {\n        return SafeMath.sub(balances[user][token], locked[user][token]);\n    }\n\n    /**\n     * Deposit a specified amount of tokens for the sender\n     *\n     * @param token ERC20 token to deposit\n     * @param amount Amount of tokens to deposit\n     */\n    function deposit(ERC20 token, uint amount)\n        public\n    {\n        credit(msg.sender, token, amount);\n        require(token.transferFrom(msg.sender, this, amount));\n    }\n\n    /**\n     * Withdraw a specified amount of tokens belonging to the sender to a specified address\n     *\n     * @param token ERC20 token to withdraw\n     * @param amount Amount of tokens to withdraw\n     * @param dest Address to which to send the tokens\n    */\n    function withdraw(ERC20 token, uint amount, address dest)\n        public\n    {\n        uint available = SafeMath.sub(balances[msg.sender][token], locked[msg.sender][token]);\n        require(amount <= available);\n        lazyDebit(msg.sender, token, amount);\n        token.transfer(dest, amount); \n    }\n\n    /**\n     * Credit a user with a specified amount of a token\n     *\n     * @dev Internal only\n     * @param user User address to credit\n     * @param token ERC20 address to credit\n     * @param amount Amount of tokens to credit\n     */\n    function credit(address user, ERC20 token, uint amount)\n        internal\n    {\n        balances[user][token] = SafeMath.add(balances[user][token], amount);        \n        Credited(user, token, amount);\n    }\n\n    /**\n     * Lazy-debit a user a specified amount of a token\n     * Uses internal balance if available, executes ERC20 transferFrom otherwise\n     * \n     * @dev Internal only\n     * @param user User address to debit\n     * @param token ERC20 address to debit\n     * @param amount Amount to debit\n     */\n    function lazyDebit(address user, ERC20 token, uint amount) \n        internal\n    {\n        uint available = SafeMath.sub(balances[user][token], locked[user][token]);\n        Debited(user, token, amount);\n        if (available >= amount) {\n            balances[user][token] = SafeMath.sub(balances[user][token], amount);\n        } else {\n            uint diff = SafeMath.sub(amount, available);\n            balances[user][token] = 0;\n            require(token.transferFrom(user, this, diff));\n        }\n    }\n\n    /**\n     * Transfer balance of a token from one user to another\n     *\n     * @dev Internal only\n     * @param from Address to debit\n     * @param to Address to credit\n     * @param token Token to transfer\n     * @param amount Amount of tokens\n     */\n    function transferTo(address from, address to, ERC20 token, uint amount)\n        internal\n    {\n        credit(to, token, amount);\n        lazyDebit(from, token, amount);\n    }\n\n    /**\n     * Lazy-lock an amount of a token for a user\n     * Uses internal balance if available, executes ERC20 transferFrom otherwise\n     *\n     * @dev Internal only\n     * @param user User address to lock for\n     * @param token ERC20 address to lock\n     * @param amount Amount of tokens to lock\n     */\n    function lazyLock(address user, ERC20 token, uint amount)\n        internal\n    {\n        locked[user][token] = SafeMath.add(locked[user][token], amount);\n        if (locked[user][token] > balances[user][token]) {\n            uint diff = SafeMath.sub(locked[user][token], balances[user][token]);\n            balances[user][token] = SafeMath.add(balances[user][token], diff);\n            require(token.transferFrom(user, this, diff));\n        }\n        Locked(user, token, amount);\n    }\n\n    /**\n     * Unlock an amount of a token for a user\n     *\n     * @dev Internal only\n     * @param user User address to unlock tokens for\n     * @param token ERC20 address\n     * @param amount Amount of tokens to unlock\n     */\n    function unlock(address user, ERC20 token, uint amount)\n        internal\n    {\n        locked[user][token] = SafeMath.sub(locked[user][token], amount);\n        require(locked[user][token] >= 0);\n        Unlocked(user, token, amount);\n    }\n\n}\n",
  "sourcePath": "/home/cwgoes/working/crypto/wyvern/wyvern-ethereum/contracts/common/LazyBank.sol",
  "compiler": {
    "name": "solc",
    "version": "0.4.18+commit.9cf6e910.Emscripten.clang"
  },
  "schemaVersion": "1.0.1",
  "updatedAt": "2018-01-30T22:10:25.327Z"
}