{
  "contractName": "MerkleProof",
  "abi": [
    {
      "constant": true,
      "inputs": [
        {
          "name": "_proof",
          "type": "bytes"
        },
        {
          "name": "_root",
          "type": "bytes32"
        },
        {
          "name": "_leaf",
          "type": "bytes32"
        }
      ],
      "name": "verifyProof",
      "outputs": [
        {
          "name": "",
          "type": "bool"
        }
      ],
      "payable": false,
      "stateMutability": "pure",
      "type": "function"
    }
  ],
  "bytecode": "0x6060604052341561000f57600080fd5b6101658061001e6000396000f3006060604052600436106100405763ffffffff7c0100000000000000000000000000000000000000000000000000000000600035041663101f13e28114610045575b600080fd5b61009260046024813581810190830135806020601f82018190048102016040519081016040528181529291906020840183838082843750949650508435946020013593506100a692505050565b604051901515815260200160405180910390f35b600080600080602087518115156100b957fe5b06156100c8576000935061012f565b5083905060205b86518111610129578087015192508282101561010557818360405191825260208201526040908101905180910390209150610121565b8282604051918252602082015260409081019051809103902091505b6020016100cf565b81861493505b50505093925050505600a165627a7a723058205110b9ec39ad7a8def38e1ead95e7e4654acb2bff150bce00ae07511a1522ab80029",
  "source": "pragma solidity ^0.4.18;\n\n/*\n * @title MerkleProof\n * @dev Merkle proof verification\n * @note Based on https://github.com/ameensol/merkle-tree-solidity/blob/master/src/MerkleProof.sol\n */\nlibrary MerkleProof {\n  /*\n   * @dev Verifies a Merkle proof proving the existence of a leaf in a Merkle tree. Assumes that each pair of leaves\n   * and each pair of pre-images is sorted.\n   * @param _proof Merkle proof containing sibling hashes on the branch from the leaf to the root of the Merkle tree\n   * @param _root Merkle root\n   * @param _leaf Leaf of Merkle tree\n   */\n  function verifyProof(bytes _proof, bytes32 _root, bytes32 _leaf) public pure returns (bool) {\n    // Check if proof length is a multiple of 32\n    if (_proof.length % 32 != 0) return false;\n\n    bytes32 proofElement;\n    bytes32 computedHash = _leaf;\n\n    for (uint256 i = 32; i <= _proof.length; i += 32) {\n      assembly {\n        // Load the current element of the proof\n        proofElement := mload(add(_proof, i))\n      }\n\n      if (computedHash < proofElement) {\n        // Hash(current computed hash + current element of the proof)\n        computedHash = keccak256(computedHash, proofElement);\n      } else {\n        // Hash(current element of the proof + current computed hash)\n        computedHash = keccak256(proofElement, computedHash);\n      }\n    }\n\n    // Check if the computed hash (root) is equal to the provided root\n    return computedHash == _root;\n  }\n}\n",
  "sourcePath": "zeppelin-solidity/contracts/MerkleProof.sol",
  "compiler": {
    "name": "solc",
    "version": "0.4.18+commit.9cf6e910.Emscripten.clang"
  },
  "schemaVersion": "1.0.1",
  "updatedAt": "2018-01-02T21:50:05.153Z"
}