{
  "contractName": "NonFungibleAssetInterface",
  "abi": [
    {
      "constant": false,
      "inputs": [
        {
          "name": "kind",
          "type": "NonFungibleAssetInterface.NonFungibleAssetKind"
        },
        {
          "name": "asset",
          "type": "address"
        },
        {
          "name": "assetExtra",
          "type": "uint256"
        }
      ],
      "name": "claimOwnership",
      "outputs": [],
      "payable": false,
      "stateMutability": "nonpayable",
      "type": "function"
    },
    {
      "constant": true,
      "inputs": [
        {
          "name": "kind",
          "type": "NonFungibleAssetInterface.NonFungibleAssetKind"
        },
        {
          "name": "asset",
          "type": "address"
        },
        {
          "name": "assetExtra",
          "type": "uint256"
        }
      ],
      "name": "currentOwner",
      "outputs": [
        {
          "name": "",
          "type": "address"
        }
      ],
      "payable": false,
      "stateMutability": "view",
      "type": "function"
    },
    {
      "constant": false,
      "inputs": [
        {
          "name": "kind",
          "type": "NonFungibleAssetInterface.NonFungibleAssetKind"
        },
        {
          "name": "asset",
          "type": "address"
        },
        {
          "name": "newOwner",
          "type": "address"
        },
        {
          "name": "assetExtra",
          "type": "uint256"
        }
      ],
      "name": "transferOwnership",
      "outputs": [],
      "payable": false,
      "stateMutability": "nonpayable",
      "type": "function"
    }
  ],
  "bytecode": "0x6060604052341561000f57600080fd5b6103cd8061001e6000396000f30060606040526004361061003d5763ffffffff60e060020a6000350416639f78d8428114610042578063c7c7060814610061578063ebab00251461009a575b600080fd5b61005f60ff60043516600160a060020a03602435166044356100bd565b005b61007e60ff60043516600160a060020a036024351660443561019f565b604051600160a060020a03909116815260200160405180910390f35b61005f60ff60043516600160a060020a036024358116906044351660643561029f565b60008360028111156100cb57fe5b14156100d65761019a565b60018360028111156100e457fe5b14156101405781600160a060020a0316634e71e0c86040518163ffffffff1660e060020a028152600401600060405180830381600087803b151561012757600080fd5b6102c65a03f1151561013857600080fd5b50505061019a565b600283600281111561014e57fe5b141561003d5781600160a060020a031663b2e6ceeb8260405160e060020a63ffffffff84160281526004810191909152602401600060405180830381600087803b151561012757600080fd5b505050565b6000808460028111156101ae57fe5b14156101b957600080fd5b60018460028111156101c757fe5b14156102355782600160a060020a0316638da5cb5b6000604051602001526040518163ffffffff1660e060020a028152600401602060405180830381600087803b151561021357600080fd5b6102c65a03f1151561022457600080fd5b505050604051805190509050610298565b600284600281111561024357fe5b141561003d5782600160a060020a0316636352211e8360006040516020015260405160e060020a63ffffffff84160281526004810191909152602401602060405180830381600087803b151561021357600080fd5b9392505050565b60008460028111156102ad57fe5b14156102b85761039b565b60018460028111156102c657fe5b14156103335782600160a060020a031663f2fde38b8360405160e060020a63ffffffff8416028152600160a060020a039091166004820152602401600060405180830381600087803b151561031a57600080fd5b6102c65a03f1151561032b57600080fd5b50505061039b565b600284600281111561034157fe5b141561003d5782600160a060020a031663a9059cbb838360405160e060020a63ffffffff8516028152600160a060020a0390921660048301526024820152604401600060405180830381600087803b151561031a57600080fd5b505050505600a165627a7a72305820fe6daa33dcc2a86578e891aafc49c62c6e2b8c22a1bea8cf73a4a9a51008dcb90029",
  "source": "/*\n\n  Do we need this anymore?\n\n*/\n\npragma solidity 0.4.18;\n\nimport \"zeppelin-solidity/contracts/ownership/Claimable.sol\";\n\nimport \"../common/ERC721.sol\";\n\n/**\n * @title NonFungibleAssetInterface\n * @author Project Wyvern Developers\n */\nlibrary NonFungibleAssetInterface {\n\n    enum NonFungibleAssetKind { None, Claimable, ERC721 }\n\n    function currentOwner(NonFungibleAssetKind kind, address asset, uint assetExtra) public view returns (address) {\n        if (kind == NonFungibleAssetKind.None) {\n            revert();\n        } else if (kind == NonFungibleAssetKind.Claimable) {\n            return Claimable(asset).owner();\n        } else if (kind == NonFungibleAssetKind.ERC721) {\n            return ERC721(asset).ownerOf(assetExtra);\n        } else {\n            revert();\n        }  \n    }\n\n    function transferOwnership (NonFungibleAssetKind kind, address asset, address newOwner, uint assetExtra) public {\n        if (kind == NonFungibleAssetKind.None) {\n            return;\n        } else if (kind == NonFungibleAssetKind.Claimable) {\n            Claimable(asset).transferOwnership(newOwner);\n        } else if (kind == NonFungibleAssetKind.ERC721) {\n            ERC721(asset).transfer(newOwner, assetExtra);\n        } else {\n            revert();\n        }\n    }\n\n    function claimOwnership (NonFungibleAssetKind kind, address asset, uint assetExtra) public {\n        if (kind == NonFungibleAssetKind.None) {\n            return;\n        } else if (kind == NonFungibleAssetKind.Claimable) {\n            Claimable(asset).claimOwnership();\n        } else if (kind == NonFungibleAssetKind.ERC721) {\n            ERC721(asset).takeOwnership(assetExtra);\n        } else {\n            revert();\n        }\n    }\n\n}\n",
  "sourcePath": "/home/cwgoes/working/crypto/wyvern/wyvern-ethereum/contracts/exchange/NonFungibleAssetInterface.sol",
  "compiler": {
    "name": "solc",
    "version": "0.4.18+commit.9cf6e910.Emscripten.clang"
  },
  "schemaVersion": "1.0.1",
  "updatedAt": "2018-01-01T20:53:20.048Z"
}