{
  "contractName": "ProxyRegistry",
  "abi": [
    {
      "constant": true,
      "inputs": [
        {
          "name": "",
          "type": "address"
        }
      ],
      "name": "pending",
      "outputs": [
        {
          "name": "",
          "type": "uint256"
        }
      ],
      "payable": false,
      "stateMutability": "view",
      "type": "function"
    },
    {
      "constant": true,
      "inputs": [
        {
          "name": "",
          "type": "address"
        }
      ],
      "name": "contracts",
      "outputs": [
        {
          "name": "",
          "type": "bool"
        }
      ],
      "payable": false,
      "stateMutability": "view",
      "type": "function"
    },
    {
      "constant": false,
      "inputs": [],
      "name": "renounceOwnership",
      "outputs": [],
      "payable": false,
      "stateMutability": "nonpayable",
      "type": "function"
    },
    {
      "constant": true,
      "inputs": [],
      "name": "owner",
      "outputs": [
        {
          "name": "",
          "type": "address"
        }
      ],
      "payable": false,
      "stateMutability": "view",
      "type": "function"
    },
    {
      "constant": true,
      "inputs": [
        {
          "name": "",
          "type": "address"
        }
      ],
      "name": "proxies",
      "outputs": [
        {
          "name": "",
          "type": "address"
        }
      ],
      "payable": false,
      "stateMutability": "view",
      "type": "function"
    },
    {
      "constant": true,
      "inputs": [],
      "name": "DELAY_PERIOD",
      "outputs": [
        {
          "name": "",
          "type": "uint256"
        }
      ],
      "payable": false,
      "stateMutability": "view",
      "type": "function"
    },
    {
      "constant": false,
      "inputs": [
        {
          "name": "newOwner",
          "type": "address"
        }
      ],
      "name": "transferOwnership",
      "outputs": [],
      "payable": false,
      "stateMutability": "nonpayable",
      "type": "function"
    },
    {
      "anonymous": false,
      "inputs": [
        {
          "indexed": true,
          "name": "previousOwner",
          "type": "address"
        }
      ],
      "name": "OwnershipRenounced",
      "type": "event"
    },
    {
      "anonymous": false,
      "inputs": [
        {
          "indexed": true,
          "name": "previousOwner",
          "type": "address"
        },
        {
          "indexed": true,
          "name": "newOwner",
          "type": "address"
        }
      ],
      "name": "OwnershipTransferred",
      "type": "event"
    },
    {
      "constant": false,
      "inputs": [
        {
          "name": "addr",
          "type": "address"
        }
      ],
      "name": "startGrantAuthentication",
      "outputs": [],
      "payable": false,
      "stateMutability": "nonpayable",
      "type": "function"
    },
    {
      "constant": false,
      "inputs": [
        {
          "name": "addr",
          "type": "address"
        }
      ],
      "name": "endGrantAuthentication",
      "outputs": [],
      "payable": false,
      "stateMutability": "nonpayable",
      "type": "function"
    },
    {
      "constant": false,
      "inputs": [
        {
          "name": "addr",
          "type": "address"
        }
      ],
      "name": "revokeAuthentication",
      "outputs": [],
      "payable": false,
      "stateMutability": "nonpayable",
      "type": "function"
    },
    {
      "constant": false,
      "inputs": [],
      "name": "registerProxy",
      "outputs": [
        {
          "name": "proxy",
          "type": "address"
        }
      ],
      "payable": false,
      "stateMutability": "nonpayable",
      "type": "function"
    }
  ],
  "bytecode": "0x60806040526212750060045560008054600160a060020a033316600160a060020a0319909116179055610d6c806100376000396000f3006080604052600436106100ae5763ffffffff7c010000000000000000000000000000000000000000000000000000000060003504166338b6e40781146100b357806353376d1f146100d65780635eebea20146100f757806369dc9ff31461012a578063715018a61461015f5780638da5cb5b14610174578063c4552791146101a5578063d4e8e063146101c6578063ddd81f82146101e7578063e71a02e1146101fc578063f2fde38b14610211575b600080fd5b3480156100bf57600080fd5b506100d4600160a060020a0360043516610232565b005b3480156100e257600080fd5b506100d4600160a060020a03600435166102f1565b34801561010357600080fd5b50610118600160a060020a036004351661032d565b60408051918252519081900360200190f35b34801561013657600080fd5b5061014b600160a060020a036004351661033f565b604080519115158252519081900360200190f35b34801561016b57600080fd5b506100d4610354565b34801561018057600080fd5b506101896103c4565b60408051600160a060020a039092168252519081900360200190f35b3480156101b157600080fd5b50610189600160a060020a03600435166103d3565b3480156101d257600080fd5b506100d4600160a060020a03600435166103ee565b3480156101f357600080fd5b5061018961046f565b34801561020857600080fd5b50610118610515565b34801561021d57600080fd5b506100d4600160a060020a036004351661051b565b60005433600160a060020a0390811691161461024d57600080fd5b600160a060020a03811660009081526003602052604090205460ff1615801561028d5750600160a060020a03811660009081526002602052604090205415155b80156102b55750600454600160a060020a038216600090815260026020526040902054429101105b15156102c057600080fd5b600160a060020a0316600090815260026020908152604080832083905560039091529020805460ff19166001179055565b60005433600160a060020a0390811691161461030c57600080fd5b600160a060020a03166000908152600360205260409020805460ff19169055565b60026020526000908152604090205481565b60036020526000908152604090205460ff1681565b60005433600160a060020a0390811691161461036f57600080fd5b60008054604051600160a060020a03909116917ff8df31144d9c2f0f6b59d69b8b98abd5459d07f2742c4df920b25aae33c6482091a26000805473ffffffffffffffffffffffffffffffffffffffff19169055565b600054600160a060020a031681565b600160205260009081526040902054600160a060020a031681565b60005433600160a060020a0390811691161461040957600080fd5b600160a060020a03811660009081526003602052604090205460ff161580156104485750600160a060020a038116600090815260026020526040902054155b151561045357600080fd5b600160a060020a03166000908152600260205260409020429055565b600160a060020a033381166000908152600160205260408120549091161561049657600080fd5b33306104a06105b3565b600160a060020a03928316815291166020820152604080519182900301906000f0801580156104d3573d6000803e3d6000fd5b5033600160a060020a039081166000908152600160205260409020805473ffffffffffffffffffffffffffffffffffffffff1916918316919091179055919050565b60045481565b60005433600160a060020a0390811691161461053657600080fd5b600160a060020a038116151561054b57600080fd5b60008054604051600160a060020a03808516939216917f8be0079c531659141344cd1fd0a4f28419497f9722a3daafe3b4186f6b6457e091a36000805473ffffffffffffffffffffffffffffffffffffffff1916600160a060020a0392909216919091179055565b60405161077d806105c4833901905600608060405234801561001057600080fd5b5060405160408061077d83398101604052805160209091015160008054600160a060020a03938416600160a060020a03199182161790915560018054939092169216919091179055610716806100676000396000f3006080604052600436106100825763ffffffff7c01000000000000000000000000000000000000000000000000000000006000350416631b0f7ba981146100c35780633f801f91146101435780634c93505f146101b15780634f8632ba146101cb57806363d256ce146101fc5780637b103999146102115780638f4ffcb114610226575b604080513481529051600160a060020a033316917fa419615bc8fda4c87663805ee2a3597a6d71c1d476911d9892f340d965bc7bf1919081900360200190a2005b3480156100cf57600080fd5b50604080516020600460443581810135601f810184900484028501840190955284845261012f948235600160a060020a0316946024803560ff16953695946064949201919081908401838280828437509497506102969650505050505050565b604080519115158252519081900360200190f35b34801561014f57600080fd5b50604080516020600460443581810135601f81018490048402850184019095528484526101af948235600160a060020a0316946024803560ff16953695946064949201919081908401838280828437509497506104999650505050505050565b005b3480156101bd57600080fd5b506101af60043515156104b4565b3480156101d757600080fd5b506101e0610544565b60408051600160a060020a039092168252519081900360200190f35b34801561020857600080fd5b5061012f610553565b34801561021d57600080fd5b506101e0610574565b34801561023257600080fd5b50604080516020601f6064356004818101359283018490048402850184019095528184526101af94600160a060020a038135811695602480359660443590931695369560849492019181908401838280828437509497506105839650505050505050565b6000805433600160a060020a039081169116148061036a575060015474010000000000000000000000000000000000000000900460ff1615801561036a5750600154604080517f69dc9ff3000000000000000000000000000000000000000000000000000000008152600160a060020a033381166004830152915191909216916369dc9ff39160248083019260209291908290030181600087803b15801561033d57600080fd5b505af1158015610351573d6000803e3d6000fd5b505050506040513d602081101561036757600080fd5b50515b151561037557600080fd5b600083600181111561038357fe5b14156104075783600160a060020a03168260405180828051906020019080838360005b838110156103be5781810151838201526020016103a6565b50505050905090810190601f1680156103eb5780820380516001836020036101000a031916815260200191505b509150506000604051808303816000865af19150509050610492565b600183600181111561041557fe5b14156104925783600160a060020a03168260405180828051906020019080838360005b83811015610450578181015183820152602001610438565b50505050905090810190601f16801561047d5780820380516001836020036101000a031916815260200191505b50915050600060405180830381855af4925050505b9392505050565b6104a4838383610296565b15156104af57600080fd5b505050565b60005433600160a060020a039081169116146104cf57600080fd5b6001805482151574010000000000000000000000000000000000000000810274ff0000000000000000000000000000000000000000199092169190911790915560408051918252517f2165014523a6f4135deffed62d70149aad59b64de5aac51e3abbcbe2a83e2f7e9181900360200190a150565b600054600160a060020a031681565b60015474010000000000000000000000000000000000000000900460ff1681565b600154600160a060020a031681565b604080517f23b872dd000000000000000000000000000000000000000000000000000000008152600160a060020a038681166004830152308116602483015260448201869052915184928316916323b872dd9160648083019260209291908290030181600087803b1580156105f757600080fd5b505af115801561060b573d6000803e3d6000fd5b505050506040513d602081101561062157600080fd5b5051151561062e57600080fd5b82600160a060020a031685600160a060020a03167fd65b48fd35864b3528d38e44760be5553248f89bf3ff6b06cca57817cc2650bf86856040518083815260200180602001828103825283818151815260200191508051906020019080838360005b838110156106a8578181015183820152602001610690565b50505050905090810190601f1680156106d55780820380516001836020036101000a031916815260200191505b50935050505060405180910390a350505050505600a165627a7a723058209fb1cb5b6fa9790e82e55d99b23d4f72ac0670b43a03349d1ab0f3f2c2f6b8f30029a165627a7a72305820e1e9d05b3e662e95504dad6d9b343ebc826970d66b73e6b2fbac67d1537846f90029",
  "source": "/*\n\n  Proxy registry; keeps a mapping of AuthenticatedProxy contracts and mapping of contracts authorized to access them.  \n  \n  Abstracted away from the Exchange (a) to reduce Exchange attack surface and (b) so that the Exchange contract can be upgraded without users needing to transfer assets to new proxies.\n\n*/\n\npragma solidity 0.4.23;\n\nimport \"openzeppelin-solidity/contracts/ownership/Ownable.sol\";\n\nimport \"./AuthenticatedProxy.sol\";\n\ncontract ProxyRegistry is Ownable {\n\n    /* Authenticated proxies by user. */\n    mapping(address => AuthenticatedProxy) public proxies;\n\n    /* Contracts pending access. */\n    mapping(address => uint) public pending;\n\n    /* Contracts allowed to call those proxies. */\n    mapping(address => bool) public contracts;\n\n    /* Delay period for adding an authenticated contract.\n       This mitigates a particular class of potential attack on the Wyvern DAO (which owns this registry) - if at any point the value of assets held by proxy contracts exceeded the value of half the WYV supply (votes in the DAO),\n       a malicious but rational attacker could buy half the Wyvern and grant themselves access to all the proxy contracts. A delay period renders this attack nonthreatening - given two weeks, if that happened, users would have\n       plenty of time to notice and transfer their assets.\n    */\n    uint public DELAY_PERIOD = 2 weeks;\n\n    /**\n     * Start the process to enable access for specified contract. Subject to delay period.\n     *\n     * @dev ProxyRegistry owner only\n     * @param addr Address to which to grant permissions\n     */\n    function startGrantAuthentication (address addr)\n        public\n        onlyOwner\n    {\n        require(!contracts[addr] && pending[addr] == 0);\n        pending[addr] = now;\n    }\n\n    /**\n     * End the process to nable access for specified contract after delay period has passed.\n     *\n     * @dev ProxyRegistry owner only\n     * @param addr Address to which to grant permissions\n     */\n    function endGrantAuthentication (address addr)\n        public\n        onlyOwner\n    {\n        require(!contracts[addr] && pending[addr] != 0 && ((pending[addr] + DELAY_PERIOD) < now));\n        pending[addr] = 0;\n        contracts[addr] = true;\n    }\n\n    /**\n     * Revoke access for specified contract. Can be done instantly.\n     *\n     * @dev ProxyRegistry owner only\n     * @param addr Address of which to revoke permissions\n     */    \n    function revokeAuthentication (address addr)\n        public\n        onlyOwner\n    {\n        contracts[addr] = false;\n    }\n\n    /**\n     * Register a proxy contract with this registry\n     *\n     * @dev Must be called by the user which the proxy is for, creates a new AuthenticatedProxy\n     * @return New AuthenticatedProxy contract\n     */\n    function registerProxy()\n        public\n        returns (AuthenticatedProxy proxy)\n    {\n        require(proxies[msg.sender] == address(0));\n        proxy = new AuthenticatedProxy(msg.sender, this);\n        proxies[msg.sender] = proxy;\n        return proxy;\n    }\n\n}\n",
  "sourcePath": "/home/cwgoes/working/crypto/wyvern/wyvern-ethereum/contracts/registry/ProxyRegistry.sol",
  "compiler": {
    "name": "solc",
    "version": "0.4.23+commit.124ca40d.Emscripten.clang"
  },
  "schemaVersion": "2.0.0",
  "updatedAt": "2018-05-19T14:31:29.405Z"
}