{
  "contractName": "ProxyRegistry",
  "abi": [
    {
      "constant": false,
      "inputs": [
        {
          "name": "addr",
          "type": "address"
        }
      ],
      "name": "endGrantAuthentication",
      "outputs": [],
      "payable": false,
      "stateMutability": "nonpayable",
      "type": "function"
    },
    {
      "constant": false,
      "inputs": [
        {
          "name": "addr",
          "type": "address"
        }
      ],
      "name": "revokeAuthentication",
      "outputs": [],
      "payable": false,
      "stateMutability": "nonpayable",
      "type": "function"
    },
    {
      "constant": true,
      "inputs": [
        {
          "name": "",
          "type": "address"
        }
      ],
      "name": "pending",
      "outputs": [
        {
          "name": "",
          "type": "uint256"
        }
      ],
      "payable": false,
      "stateMutability": "view",
      "type": "function"
    },
    {
      "constant": true,
      "inputs": [
        {
          "name": "",
          "type": "address"
        }
      ],
      "name": "contracts",
      "outputs": [
        {
          "name": "",
          "type": "bool"
        }
      ],
      "payable": false,
      "stateMutability": "view",
      "type": "function"
    },
    {
      "constant": true,
      "inputs": [],
      "name": "owner",
      "outputs": [
        {
          "name": "",
          "type": "address"
        }
      ],
      "payable": false,
      "stateMutability": "view",
      "type": "function"
    },
    {
      "constant": true,
      "inputs": [
        {
          "name": "",
          "type": "address"
        }
      ],
      "name": "proxies",
      "outputs": [
        {
          "name": "",
          "type": "address"
        }
      ],
      "payable": false,
      "stateMutability": "view",
      "type": "function"
    },
    {
      "constant": false,
      "inputs": [
        {
          "name": "addr",
          "type": "address"
        }
      ],
      "name": "startGrantAuthentication",
      "outputs": [],
      "payable": false,
      "stateMutability": "nonpayable",
      "type": "function"
    },
    {
      "constant": false,
      "inputs": [],
      "name": "registerProxy",
      "outputs": [
        {
          "name": "proxy",
          "type": "address"
        }
      ],
      "payable": false,
      "stateMutability": "nonpayable",
      "type": "function"
    },
    {
      "constant": true,
      "inputs": [],
      "name": "DELAY_PERIOD",
      "outputs": [
        {
          "name": "",
          "type": "uint256"
        }
      ],
      "payable": false,
      "stateMutability": "view",
      "type": "function"
    },
    {
      "constant": false,
      "inputs": [
        {
          "name": "newOwner",
          "type": "address"
        }
      ],
      "name": "transferOwnership",
      "outputs": [],
      "payable": false,
      "stateMutability": "nonpayable",
      "type": "function"
    },
    {
      "anonymous": false,
      "inputs": [
        {
          "indexed": true,
          "name": "previousOwner",
          "type": "address"
        },
        {
          "indexed": true,
          "name": "newOwner",
          "type": "address"
        }
      ],
      "name": "OwnershipTransferred",
      "type": "event"
    }
  ],
  "bytecode": "0x60606040526212750060045560008054600160a060020a033316600160a060020a0319909116179055610c6e806100376000396000f3006060604052600436106100a35763ffffffff7c010000000000000000000000000000000000000000000000000000000060003504166338b6e40781146100a857806353376d1f146100c95780635eebea20146100e857806369dc9ff3146101195780638da5cb5b1461014c578063c45527911461017b578063d4e8e0631461019a578063ddd81f82146101b9578063e71a02e1146101cc578063f2fde38b146101df575b600080fd5b34156100b357600080fd5b6100c7600160a060020a03600435166101fe565b005b34156100d457600080fd5b6100c7600160a060020a03600435166102bf565b34156100f357600080fd5b610107600160a060020a03600435166102fb565b60405190815260200160405180910390f35b341561012457600080fd5b610138600160a060020a036004351661030d565b604051901515815260200160405180910390f35b341561015757600080fd5b61015f610322565b604051600160a060020a03909116815260200160405180910390f35b341561018657600080fd5b61015f600160a060020a0360043516610331565b34156101a557600080fd5b6100c7600160a060020a036004351661034c565b34156101c457600080fd5b61015f6103cd565b34156101d757600080fd5b61010761046d565b34156101ea57600080fd5b6100c7600160a060020a0360043516610473565b60005433600160a060020a0390811691161461021957600080fd5b600160a060020a03811660009081526003602052604090205460ff161580156102595750600160a060020a03811660009081526002602052604090205415155b80156102835750600454600160a060020a0382166000908152600260205260409020544290910190105b151561028e57600080fd5b600160a060020a0316600090815260026020908152604080832083905560039091529020805460ff19166001179055565b60005433600160a060020a039081169116146102da57600080fd5b600160a060020a03166000908152600360205260409020805460ff19169055565b60026020526000908152604090205481565b60036020526000908152604090205460ff1681565b600054600160a060020a031681565b600160205260009081526040902054600160a060020a031681565b60005433600160a060020a0390811691161461036757600080fd5b600160a060020a03811660009081526003602052604090205460ff161580156103a65750600160a060020a038116600090815260026020526040902054155b15156103b157600080fd5b600160a060020a03166000908152600260205260409020429055565b600160a060020a03338116600090815260016020526040812054909116156103f457600080fd5b33306103fe61050e565b600160a060020a0392831681529116602082015260409081019051809103906000f080151561042c57600080fd5b33600160a060020a039081166000908152600160205260409020805473ffffffffffffffffffffffffffffffffffffffff1916918316919091179055919050565b60045481565b60005433600160a060020a0390811691161461048e57600080fd5b600160a060020a03811615156104a357600080fd5b600054600160a060020a0380831691167f8be0079c531659141344cd1fd0a4f28419497f9722a3daafe3b4186f6b6457e060405160405180910390a36000805473ffffffffffffffffffffffffffffffffffffffff1916600160a060020a0392909216919091179055565b6040516107248061051f8339019056006060604052341561000f57600080fd5b604051604080610724833981016040528080519190602001805160008054600160a060020a03958616600160a060020a031991821617909155600180549590921694169390931790925550506106ba8061006a6000396000f3006060604052600436106100695763ffffffff60e060020a6000350416631b0f7ba981146100a85780633f801f91146101245780634c93505f1461018e5780634f8632ba146101a657806363d256ce146101d55780637b103999146101e85780638f4ffcb1146101fb575b33600160a060020a03167fa419615bc8fda4c87663805ee2a3597a6d71c1d476911d9892f340d965bc7bf13460405190815260200160405180910390a2005b34156100b357600080fd5b61011060048035600160a060020a0316906024803560ff16919060649060443590810190830135806020601f8201819004810201604051908101604052818152929190602084018383808284375094965061026795505050505050565b604051901515815260200160405180910390f35b341561012f57600080fd5b61018c60048035600160a060020a0316906024803560ff16919060649060443590810190830135806020601f8201819004810201604051908101604052818152929190602084018383808284375094965061045c95505050505050565b005b341561019957600080fd5b61018c6004351515610477565b34156101b157600080fd5b6101b9610503565b604051600160a060020a03909116815260200160405180910390f35b34156101e057600080fd5b610110610512565b34156101f357600080fd5b6101b9610533565b341561020657600080fd5b61018c60048035600160a060020a0390811691602480359260443516919060849060643590810190830135806020601f8201819004810201604051908101604052818152929190602084018383808284375094965061054295505050505050565b6000805433600160a060020a039081169116148061031b575060015474010000000000000000000000000000000000000000900460ff1615801561031b5750600154600160a060020a03166369dc9ff33360006040516020015260405160e060020a63ffffffff8416028152600160a060020a039091166004820152602401602060405180830381600087803b15156102ff57600080fd5b6102c65a03f1151561031057600080fd5b505050604051805190505b151561032657600080fd5b600083600181111561033457fe5b14156103bc5783600160a060020a03168260405180828051906020019080838360005b8381101561036f578082015183820152602001610357565b50505050905090810190601f16801561039c5780820380516001836020036101000a031916815260200191505b5091505060006040518083038160008661646e5a03f19150509050610455565b60018360018111156103ca57fe5b14156104505783600160a060020a03168260405180828051906020019080838360005b838110156104055780820151838201526020016103ed565b50505050905090810190601f1680156104325780820380516001836020036101000a031916815260200191505b509150506000604051808303818561646e5a03f49150509050610455565b600080fd5b9392505050565b610467838383610267565b151561047257600080fd5b505050565b60005433600160a060020a0390811691161461049257600080fd5b6001805474ff0000000000000000000000000000000000000000191674010000000000000000000000000000000000000000831515021790557f2165014523a6f4135deffed62d70149aad59b64de5aac51e3abbcbe2a83e2f7e81604051901515815260200160405180910390a150565b600054600160a060020a031681565b60015474010000000000000000000000000000000000000000900460ff1681565b600154600160a060020a031681565b81600160a060020a0381166323b872dd86308760006040516020015260405160e060020a63ffffffff8616028152600160a060020a0393841660048201529190921660248201526044810191909152606401602060405180830381600087803b15156105ad57600080fd5b6102c65a03f115156105be57600080fd5b5050506040518051905015156105d357600080fd5b82600160a060020a031685600160a060020a03167fd65b48fd35864b3528d38e44760be5553248f89bf3ff6b06cca57817cc2650bf868560405182815260406020820181815290820183818151815260200191508051906020019080838360005b8381101561064c578082015183820152602001610634565b50505050905090810190601f1680156106795780820380516001836020036101000a031916815260200191505b50935050505060405180910390a350505050505600a165627a7a7230582074afa32953bb7626edb7a5121842edf82e94f039f7783cad907ac6e799c56e130029a165627a7a72305820c6e1e775bd76f9b4f3e01ac5ba3c1b3c3b6b83884787d20c0930d7d33fe4169c0029",
  "source": "/*\n\n  Proxy registry; keeps a mapping of AuthenticatedProxy contracts and a single AuthenticatedLazyBank instance. \n  \n  Abstracted away from the Exchange so that other contracts (and future versions of the Exchange) can utilize the same Registry contract.\n\n*/\n\npragma solidity 0.4.18;\n\nimport \"zeppelin-solidity/contracts/ownership/Ownable.sol\";\n\nimport \"./AuthenticatedProxy.sol\";\n\ncontract ProxyRegistry is Ownable {\n\n    /* Authenticated proxies by user. */\n    mapping(address => AuthenticatedProxy) public proxies;\n\n    /* Contracts pending access. */\n    mapping(address => uint) public pending;\n\n    /* Contracts allowed to call those proxies. */\n    mapping(address => bool) public contracts;\n\n    /* Delay period. */\n    uint public DELAY_PERIOD = 2 weeks;\n\n    /**\n     * Start the process to enable access for specified contract. Subject to delay period.\n     *\n     * @dev ProxyRegistry owner only\n     * @param addr Address to which to grant permissions\n     */\n    function startGrantAuthentication (address addr)\n        public\n        onlyOwner\n    {\n        require(!contracts[addr] && pending[addr] == 0);\n        pending[addr] = now;\n    }\n\n    /**\n     * End the process to nable access for specified contract after delay period has passed.\n     *\n     * @dev ProxyRegistry owner only\n     * @param addr Address to which to grant permissions\n     */\n    function endGrantAuthentication (address addr)\n        public\n        onlyOwner\n    {\n        require(!contracts[addr] && pending[addr] != 0 && pending[addr] < (now + DELAY_PERIOD));\n        pending[addr] = 0;\n        contracts[addr] = true;\n    }\n\n    /**\n     * Revoke access for specified contract. Can be done instantly.\n     *\n     * @dev ProxyRegistry owner only\n     * @param addr Address of which to revoke permissions\n     */    \n    function revokeAuthentication (address addr)\n        public\n        onlyOwner\n    {\n        contracts[addr] = false;\n    }\n\n    /**\n     * Register a proxy contract with this registry\n     *\n     * @dev Must be called by the user which the proxy is for, creates a new AuthenticatedProxy\n     * @return New AuthenticatedProxy contract\n     */\n    function registerProxy()\n        public\n        returns (AuthenticatedProxy proxy)\n    {\n        require(proxies[msg.sender] == address(0));\n        proxy = new AuthenticatedProxy(msg.sender, this);\n        proxies[msg.sender] = proxy;\n        return proxy;\n    }\n\n}\n",
  "sourcePath": "/home/cwgoes/working/crypto/wyvern/wyvern-ethereum/contracts/registry/ProxyRegistry.sol",
  "compiler": {
    "name": "solc",
    "version": "0.4.18+commit.9cf6e910.Emscripten.clang"
  },
  "schemaVersion": "1.0.1",
  "updatedAt": "2018-01-31T21:47:36.820Z"
}