{
  "contractName": "ProxyRegistry",
  "abi": [
    {
      "constant": true,
      "inputs": [
        {
          "name": "",
          "type": "address"
        }
      ],
      "name": "contracts",
      "outputs": [
        {
          "name": "",
          "type": "bool"
        }
      ],
      "payable": false,
      "stateMutability": "view",
      "type": "function"
    },
    {
      "constant": true,
      "inputs": [],
      "name": "owner",
      "outputs": [
        {
          "name": "",
          "type": "address"
        }
      ],
      "payable": false,
      "stateMutability": "view",
      "type": "function"
    },
    {
      "constant": false,
      "inputs": [
        {
          "name": "addr",
          "type": "address"
        },
        {
          "name": "allowed",
          "type": "bool"
        }
      ],
      "name": "updateContract",
      "outputs": [],
      "payable": false,
      "stateMutability": "nonpayable",
      "type": "function"
    },
    {
      "constant": true,
      "inputs": [
        {
          "name": "",
          "type": "address"
        }
      ],
      "name": "proxies",
      "outputs": [
        {
          "name": "",
          "type": "address"
        }
      ],
      "payable": false,
      "stateMutability": "view",
      "type": "function"
    },
    {
      "constant": false,
      "inputs": [],
      "name": "registerProxy",
      "outputs": [
        {
          "name": "proxy",
          "type": "address"
        }
      ],
      "payable": false,
      "stateMutability": "nonpayable",
      "type": "function"
    },
    {
      "constant": false,
      "inputs": [
        {
          "name": "newOwner",
          "type": "address"
        }
      ],
      "name": "transferOwnership",
      "outputs": [],
      "payable": false,
      "stateMutability": "nonpayable",
      "type": "function"
    },
    {
      "anonymous": false,
      "inputs": [
        {
          "indexed": true,
          "name": "previousOwner",
          "type": "address"
        },
        {
          "indexed": true,
          "name": "newOwner",
          "type": "address"
        }
      ],
      "name": "OwnershipTransferred",
      "type": "event"
    }
  ],
  "bytecode": "0x606060405260008054600160a060020a033316600160a060020a0319909116179055610ab4806100306000396000f3006060604052600436106100775763ffffffff7c010000000000000000000000000000000000000000000000000000000060003504166369dc9ff3811461007c5780638da5cb5b146100af578063a971ea06146100de578063c455279114610104578063ddd81f8214610123578063f2fde38b14610136575b600080fd5b341561008757600080fd5b61009b600160a060020a0360043516610155565b604051901515815260200160405180910390f35b34156100ba57600080fd5b6100c261016a565b604051600160a060020a03909116815260200160405180910390f35b34156100e957600080fd5b610102600160a060020a03600435166024351515610179565b005b341561010f57600080fd5b6100c2600160a060020a03600435166101bf565b341561012e57600080fd5b6100c26101da565b341561014157600080fd5b610102600160a060020a036004351661027a565b60026020526000908152604090205460ff1681565b600054600160a060020a031681565b60005433600160a060020a0390811691161461019457600080fd5b600160a060020a03919091166000908152600260205260409020805460ff1916911515919091179055565b600160205260009081526040902054600160a060020a031681565b600160a060020a033381166000908152600160205260408120549091161561020157600080fd5b333061020b610315565b600160a060020a0392831681529116602082015260409081019051809103906000f080151561023957600080fd5b33600160a060020a039081166000908152600160205260409020805473ffffffffffffffffffffffffffffffffffffffff1916918316919091179055919050565b60005433600160a060020a0390811691161461029557600080fd5b600160a060020a03811615156102aa57600080fd5b600054600160a060020a0380831691167f8be0079c531659141344cd1fd0a4f28419497f9722a3daafe3b4186f6b6457e060405160405180910390a36000805473ffffffffffffffffffffffffffffffffffffffff1916600160a060020a0392909216919091179055565b6040516107638061032683390190560060606040526001805460a060020a60ff0219169055341561001f57600080fd5b604051604080610763833981016040528080519190602001805160008054600160a060020a03958616600160a060020a031991821617909155600180549590921694169390931790925550506106e98061007a6000396000f3006060604052600436106100535763ffffffff60e060020a6000350416631b0f7ba981146100925780634c93505f1461010e5780634f8632ba146101285780637b103999146101575780638f4ffcb11461016a575b33600160a060020a03167fa419615bc8fda4c87663805ee2a3597a6d71c1d476911d9892f340d965bc7bf13460405190815260200160405180910390a2005b341561009d57600080fd5b6100fa60048035600160a060020a0316906024803560ff16919060649060443590810190830135806020601f820181900481020160405190810160405281815292919060208401838380828437509496506101d695505050505050565b604051901515815260200160405180910390f35b341561011957600080fd5b61012660043515156104f8565b005b341561013357600080fd5b61013b610553565b604051600160a060020a03909116815260200160405180910390f35b341561016257600080fd5b61013b610562565b341561017557600080fd5b61012660048035600160a060020a0390811691602480359260443516919060849060643590810190830135806020601f8201819004810201604051908101604052818152929190602084018383808284375094965061057195505050505050565b600080548190819033600160a060020a039081169116148061028e575060015474010000000000000000000000000000000000000000900460ff1615801561028e5750600154600160a060020a03166369dc9ff33360006040516020015260405160e060020a63ffffffff8416028152600160a060020a039091166004820152602401602060405180830381600087803b151561027257600080fd5b6102c65a03f1151561028357600080fd5b505050604051805190505b151561029957600080fd5b60008560038111156102a757fe5b141561032f5785600160a060020a03168460405180828051906020019080838360005b838110156102e25780820151838201526020016102ca565b50505050905090810190601f16801561030f5780820380516001836020036101000a031916815260200191505b5091505060006040518083038160008661646e5a03f19150509250610420565b600185600381111561033d57fe5b14156103c35785600160a060020a03168460405180828051906020019080838360005b83811015610378578082015183820152602001610360565b50505050905090810190601f1680156103a55780820380516001836020036101000a031916815260200191505b509150506000604051808303818561646e5a03f49150509250610420565b60028560038111156103d157fe5b14156103ea57835190506000848286895afa9250610420565b60038560038111156103f857fe5b141561041b578351602085016000f0600160a060020a0381161593509150610420565b600080fd5b81600160a060020a031686600160a060020a03167fbcec2b82fac852ebad97fbb7cca734b00bb63e535049c3818557773d8a7ec0238787876040518084600381111561046857fe5b60ff1681526020018060200183151515158152602001828103825284818151815260200191508051906020019080838360005b838110156104b357808201518382015260200161049b565b50505050905090810190601f1680156104e05780820380516001836020036101000a031916815260200191505b5094505050505060405180910390a350509392505050565b60005433600160a060020a0390811691161461051357600080fd5b60018054911515740100000000000000000000000000000000000000000274ff000000000000000000000000000000000000000019909216919091179055565b600054600160a060020a031681565b600154600160a060020a031681565b81600160a060020a0381166323b872dd86308760006040516020015260405160e060020a63ffffffff8616028152600160a060020a0393841660048201529190921660248201526044810191909152606401602060405180830381600087803b15156105dc57600080fd5b6102c65a03f115156105ed57600080fd5b50505060405180519050151561060257600080fd5b82600160a060020a031685600160a060020a03167fd65b48fd35864b3528d38e44760be5553248f89bf3ff6b06cca57817cc2650bf868560405182815260406020820181815290820183818151815260200191508051906020019080838360005b8381101561067b578082015183820152602001610663565b50505050905090810190601f1680156106a85780820380516001836020036101000a031916815260200191505b50935050505060405180910390a350505050505600a165627a7a723058208fb7bd5534b88856e645c3eaaf3bfeba90978ced5657a344c4232637c3404c830029a165627a7a7230582097b3dff344bc8b9c3c00ac6108ace6edf7b9085c8dd5e3e288e3227abac0d0f50029",
  "source": "/*\n\n  Proxy registry; keeps a mapping of AuthenticatedProxy contracts. \n  \n  Abstracted away from the Exchange so that other contracts (and future versions of the Exchange) can utilize the same Registry contract.\n\n  TODO: Add delay in adding contract to auth to prevent class of economic attacks on Wyvern DAO.\n\n*/\n\npragma solidity 0.4.18;\n\nimport \"zeppelin-solidity/contracts/ownership/Ownable.sol\";\n\nimport \"./AuthenticatedProxy.sol\";\n\ncontract ProxyRegistry is Ownable {\n\n    /* Authenticated proxies by user. */\n    mapping(address => AuthenticatedProxy) public proxies;\n\n    /* Contracts allowed to call those proxies. */\n    mapping(address => bool) public contracts;\n\n    /**\n     * Change whether or not a given contract is allowed to access proxies registered with this Registry\n     *\n     * @dev Registry owner only\n     * @param addr Address to set permissions for\n     * @param allowed Whether or not that address will be allowed to access proxies\n     */    \n    function updateContract(address addr, bool allowed)\n        public\n        onlyOwner\n    {\n        contracts[addr] = allowed;\n    }\n\n    /**\n     * Register a proxy contract with this registry\n     *\n     * @dev Must be called by the user which the proxy is for, creates a new AuthenticatedProxy\n     * @return New AuthenticatedProxy contract\n     */\n    function registerProxy()\n        public\n        returns (AuthenticatedProxy proxy)\n    {\n        require(proxies[msg.sender] == address(0));\n        proxy = new AuthenticatedProxy(msg.sender, this);\n        proxies[msg.sender] = proxy;\n        return proxy;\n    }\n\n}\n",
  "sourcePath": "/home/cwgoes/working/crypto/wyvern/wyvern-ethereum/contracts/registry/ProxyRegistry.sol",
  "compiler": {
    "name": "solc",
    "version": "0.4.18+commit.9cf6e910.Emscripten.clang"
  },
  "schemaVersion": "1.0.1",
  "updatedAt": "2018-01-21T05:02:46.011Z"
}