{
  "contractName": "Registry",
  "abi": [
    {
      "constant": false,
      "inputs": [
        {
          "name": "newUsername",
          "type": "string"
        }
      ],
      "name": "changeUsername",
      "outputs": [],
      "payable": false,
      "stateMutability": "nonpayable",
      "type": "function"
    },
    {
      "constant": true,
      "inputs": [
        {
          "name": "",
          "type": "address"
        }
      ],
      "name": "proxies",
      "outputs": [
        {
          "name": "",
          "type": "address"
        }
      ],
      "payable": false,
      "stateMutability": "view",
      "type": "function"
    },
    {
      "constant": true,
      "inputs": [
        {
          "name": "username",
          "type": "string"
        }
      ],
      "name": "reverseUsername",
      "outputs": [
        {
          "name": "",
          "type": "address"
        }
      ],
      "payable": false,
      "stateMutability": "view",
      "type": "function"
    },
    {
      "constant": true,
      "inputs": [
        {
          "name": "",
          "type": "address"
        }
      ],
      "name": "usernames",
      "outputs": [
        {
          "name": "",
          "type": "string"
        }
      ],
      "payable": false,
      "stateMutability": "view",
      "type": "function"
    },
    {
      "constant": false,
      "inputs": [
        {
          "name": "username",
          "type": "string"
        }
      ],
      "name": "register",
      "outputs": [
        {
          "name": "proxy",
          "type": "address"
        }
      ],
      "payable": false,
      "stateMutability": "nonpayable",
      "type": "function"
    }
  ],
  "bytecode": "0x6060604052341561000f57600080fd5b6112058061001e6000396000f30060606040526004361061006c5763ffffffff7c010000000000000000000000000000000000000000000000000000000060003504166377c846af8114610071578063c4552791146100c4578063ce450527146100ff578063ee91877c14610150578063f2c298be146101e6575b600080fd5b341561007c57600080fd5b6100c260046024813581810190830135806020601f8201819004810201604051908101604052818152929190602084018383808284375094965061023795505050505050565b005b34156100cf57600080fd5b6100e3600160a060020a03600435166104e2565b604051600160a060020a03909116815260200160405180910390f35b341561010a57600080fd5b6100e360046024813581810190830135806020601f820181900481020160405190810160405281815292919060208401838380828437509496506104fd95505050505050565b341561015b57600080fd5b61016f600160a060020a0360043516610575565b60405160208082528190810183818151815260200191508051906020019080838360005b838110156101ab578082015183820152602001610193565b50505050905090810190601f1680156101d85780820380516001836020036101000a031916815260200191505b509250505060405180910390f35b34156101f157600080fd5b6100e360046024813581810190830135806020601f8201819004810201604051908101604052818152929190602084018383808284375094965061062595505050505050565b61023f6107f5565b600160a060020a0333811660009081526020819052604090205416151561026557600080fd5b60006002836040518082805190602001908083835b602083106102995780518252601f19909201916020918201910161027a565b6001836020036101000a03801982511681845116808217855250505050505090500191505090815260200160405190819003902054600160a060020a0316146102e157600080fd5b6001600033600160a060020a0316600160a060020a031681526020019081526020016000208054600181600116156101000203166002900480601f01602080910402602001604051908101604052809291908181526020018280546001816001161561010002031660029004801561039a5780601f1061036f5761010080835404028352916020019161039a565b820191906000526020600020905b81548152906001019060200180831161037d57829003601f168201915b505050505090506002816040518082805190602001908083835b602083106103d35780518252601f1990920191602091820191016103b4565b6001836020036101000a038019825116818451168082178552505050505050905001915050908152602001604051908190039020805473ffffffffffffffffffffffffffffffffffffffff1916905533600160a060020a0316600090815260016020526040902082805161044b929160200190610807565b50336002836040518082805190602001908083835b6020831061047f5780518252601f199092019160209182019101610460565b6001836020036101000a038019825116818451168082178552505050505050905001915050908152602001604051908190039020805473ffffffffffffffffffffffffffffffffffffffff1916600160a060020a03929092169190911790555050565b600060208190529081526040902054600160a060020a031681565b60006002826040518082805190602001908083835b602083106105315780518252601f199092019160209182019101610512565b6001836020036101000a03801982511681845116808217855250505050505090500191505090815260200160405190819003902054600160a060020a031692915050565b60016020528060005260406000206000915090508054600181600116156101000203166002900480601f01602080910402602001604051908101604052809291908181526020018280546001816001161561010002031660029004801561061d5780601f106105f25761010080835404028352916020019161061d565b820191906000526020600020905b81548152906001019060200180831161060057829003601f168201915b505050505081565b600160a060020a033381166000908152602081905260408120549091161561064c57600080fd5b60006002836040518082805190602001908083835b602083106106805780518252601f199092019160209182019101610661565b6001836020036101000a03801982511681845116808217855250505050505090500191505090815260200160405190819003902054600160a060020a0316146106c857600080fd5b600160a060020a03331660009081526001602052604090208280516106f1929160200190610807565b50336002836040518082805190602001908083835b602083106107255780518252601f199092019160209182019101610706565b6001836020036101000a038019825116818451168082178552505050505050905001915050908152602001604051908190039020805473ffffffffffffffffffffffffffffffffffffffff1916600160a060020a03929092169190911790553361078d610885565b600160a060020a039091168152602001604051809103906000f08015156107b357600080fd5b33600160a060020a039081166000908152602081905260409020805473ffffffffffffffffffffffffffffffffffffffff191691831691909117905592915050565b60206040519081016040526000815290565b828054600181600116156101000203166002900490600052602060002090601f016020900481019282601f1061084857805160ff1916838001178555610875565b82800160010185558215610875579182015b8281111561087557825182559160200191906001019061085a565b50610881929150610895565b5090565b604051610927806108b383390190565b6108af91905b80821115610881576000815560010161089b565b9056006060604052341561000f57600080fd5b6040516020806109278339810160405280805160008054600160a060020a03909216600160a060020a031990921691909117905550506108d3806100546000396000f3006060604052600436106100615763ffffffff7c010000000000000000000000000000000000000000000000000000000060003504166312711d3781146100a057806346a8ade8146101765780638f4ffcb1146101eb578063a277051f14610259575b33600160a060020a03167fa419615bc8fda4c87663805ee2a3597a6d71c1d476911d9892f340d965bc7bf13460405190815260200160405180910390a2005b34156100ab57600080fd5b610162600480359060248035600160a060020a0316919060649060443590810190830135806020601f8201819004810201604051908101604052818152929190602084018383808284378201915050505050509190803590602001908201803590602001908080601f016020809104026020016040519081016040528181529291906020840183838082843750949650508435946020810135945060ff604082013516935060608101359250608001359050610288565b604051901515815260200160405180910390f35b341561018157600080fd5b610162600480359060248035600160a060020a0316919060649060443590810190830135806020601f820181900481020160405190810160405281815292919060208401838380828437509496505060ff853516946020810135945060400135925061042e915050565b34156101f657600080fd5b61025760048035600160a060020a0390811691602480359260443516919060849060643590810190830135806020601f8201819004810201604051908101604052818152929190602084018383808284375094965061047095505050505050565b005b341561026457600080fd5b61026c6105d5565b604051600160a060020a03909116815260200160405180910390f35b6000610292610895565b61029a610895565b6000878a51146102a957600080fd5b6102b48b8b8b6105e4565b92506040805190810160405280601c81526020017f19457468657265756d205369676e6564204d6573736167653a0a3332000000008152509150818d8d8d8c8c336040518681526c01000000000000000000000000600160a060020a0387160260208201526034810185805190602001908083835b602083106103485780518252601f199092019160209182019101610329565b6001836020036101000a03801982511681845116808217855250505050505090500184815260200183815260200182600160a060020a0316600160a060020a03166c01000000000000000000000000028152601401965050505050505060405180910390206040518083805190602001908083835b602083106103dc5780518252601f1990920191602091820191016103bd565b6001836020036101000a038019825116818451161790925250505091909101928352505060200190506040518091039020905061041d8c84838a8a8a61069d565b9d9c50505050505050505050505050565b600061046587878760006040518059106104455750595b818152601f19601f830116810160200160405290506000808a8a8a610288565b979650505050505050565b81600160a060020a0381166323b872dd8630876000604051602001526040517c010000000000000000000000000000000000000000000000000000000063ffffffff8616028152600160a060020a0393841660048201529190921660248201526044810191909152606401602060405180830381600087803b15156104f457600080fd5b6102c65a03f1151561050557600080fd5b50505060405180519050151561051a57600080fd5b82600160a060020a031685600160a060020a03167fd65b48fd35864b3528d38e44760be5553248f89bf3ff6b06cca57817cc2650bf868560405182815260406020820181815290820183818151815260200191508051906020019080838360005b8381101561059357808201518382015260200161057b565b50505050905090810190601f1680156105c05780820380516001836020036101000a031916815260200191505b50935050505060405180910390a35050505050565b600054600160a060020a031681565b6105ec610895565b60005b83518110156106945783818151811061060457fe5b01602001517f010000000000000000000000000000000000000000000000000000000000000090047f010000000000000000000000000000000000000000000000000000000000000002858483018151811061065c57fe5b9060200101907effffffffffffffffffffffffffffffffffffffffffffffffffffffffffffff1916908160001a9053506001016105ef565b50929392505050565b60008481526001602052604081205460ff16156106b957600080fd5b600054600160a060020a03166001868686866040516000815260200160405260006040516020015260405193845260ff90921660208085019190915260408085019290925260608401929092526080909201915160208103908084039060008661646e5a03f1151561072a57600080fd5b505060206040510351600160a060020a03161461074657600080fd5b600085815260016020819052604091829020805460ff19169091179055600160a060020a038816907fbd82c19cddd168b2c99a313024f4bdac7a5e1e3c389f2abef8a934685ea4f3d89088908890516020810182905260408082528190810184818151815260200191508051906020019080838360005b838110156107d55780820151838201526020016107bd565b50505050905090810190601f1680156108025780820380516001836020036101000a031916815260200191505b50935050505060405180910390a286600160a060020a03168660405180828051906020019080838360005b8381101561084557808201518382015260200161082d565b50505050905090810190601f1680156108725780820380516001836020036101000a031916815260200191505b5091505060006040518083038160008661646e5a03f19998505050505050505050565b602060405190810160405260008152905600a165627a7a723058206e4ba233a975bd41fb75f48d7e8d5416ae7d64c7b79f8b1820be0fd3d8f9a62d0029a165627a7a7230582048450d54d8e60d086239a214a1581560ab003e7fdbbee297ea1374547db7c2540029",
  "source": "/*\n\n  User registry. Keeps mutable usernames and a mapping of AuthenticatedProxy contracts. \n  \n  Abstracted away from the Exchange so that other contracts can utilize the same username mappings and authenticated proxies.\n\n*/\n\npragma solidity 0.4.18;\n\nimport \"./AuthenticatedProxy.sol\";\n\ncontract Registry {\n\n    /* Authenticated proxies. */\n    mapping(address => AuthenticatedProxy) public proxies;\n\n    /* Usernames. */\n    mapping(address => string) public usernames;\n\n    /* Reverse usernames. */\n    mapping(string => address) reverseUsernames;\n\n    function reverseUsername(string username) public view returns (address) {\n        return reverseUsernames[username];\n    }\n\n    function changeUsername(string newUsername) public {\n        require(proxies[msg.sender] != address(0));\n        require(reverseUsernames[newUsername] == address(0));\n        string memory oldUsername = usernames[msg.sender];\n        delete reverseUsernames[oldUsername];\n        usernames[msg.sender] = newUsername;\n        reverseUsernames[newUsername] = msg.sender;\n    }\n\n    function register(string username) public returns (AuthenticatedProxy proxy) {\n        require(proxies[msg.sender] == address(0));\n        require(reverseUsernames[username] == address(0));\n        usernames[msg.sender] = username;\n        reverseUsernames[username] = msg.sender;\n        proxy = new AuthenticatedProxy(msg.sender);\n        proxies[msg.sender] = proxy;\n        return proxy;\n    }\n\n}\n",
  "sourcePath": "/home/cwgoes/working/crypto/wyvern/wyvern-ethereum/contracts/registry/Registry.sol",
  "compiler": {
    "name": "solc",
    "version": "0.4.18+commit.9cf6e910.Emscripten.clang"
  },
  "schemaVersion": "1.0.1",
  "updatedAt": "2018-01-07T20:03:38.537Z"
}