{
  "contractName": "TestToken",
  "abi": [
    {
      "constant": true,
      "inputs": [],
      "name": "name",
      "outputs": [
        {
          "name": "",
          "type": "string"
        }
      ],
      "payable": false,
      "stateMutability": "view",
      "type": "function"
    },
    {
      "constant": false,
      "inputs": [
        {
          "name": "_spender",
          "type": "address"
        },
        {
          "name": "_value",
          "type": "uint256"
        }
      ],
      "name": "approve",
      "outputs": [
        {
          "name": "",
          "type": "bool"
        }
      ],
      "payable": false,
      "stateMutability": "nonpayable",
      "type": "function"
    },
    {
      "constant": true,
      "inputs": [],
      "name": "totalSupply",
      "outputs": [
        {
          "name": "",
          "type": "uint256"
        }
      ],
      "payable": false,
      "stateMutability": "view",
      "type": "function"
    },
    {
      "constant": false,
      "inputs": [
        {
          "name": "_from",
          "type": "address"
        },
        {
          "name": "_to",
          "type": "address"
        },
        {
          "name": "_value",
          "type": "uint256"
        }
      ],
      "name": "transferFrom",
      "outputs": [
        {
          "name": "",
          "type": "bool"
        }
      ],
      "payable": false,
      "stateMutability": "nonpayable",
      "type": "function"
    },
    {
      "constant": true,
      "inputs": [],
      "name": "decimals",
      "outputs": [
        {
          "name": "",
          "type": "uint256"
        }
      ],
      "payable": false,
      "stateMutability": "view",
      "type": "function"
    },
    {
      "constant": true,
      "inputs": [],
      "name": "MINT_AMOUNT",
      "outputs": [
        {
          "name": "",
          "type": "uint256"
        }
      ],
      "payable": false,
      "stateMutability": "view",
      "type": "function"
    },
    {
      "constant": false,
      "inputs": [
        {
          "name": "_spender",
          "type": "address"
        },
        {
          "name": "_subtractedValue",
          "type": "uint256"
        }
      ],
      "name": "decreaseApproval",
      "outputs": [
        {
          "name": "",
          "type": "bool"
        }
      ],
      "payable": false,
      "stateMutability": "nonpayable",
      "type": "function"
    },
    {
      "constant": true,
      "inputs": [
        {
          "name": "_owner",
          "type": "address"
        }
      ],
      "name": "balanceOf",
      "outputs": [
        {
          "name": "balance",
          "type": "uint256"
        }
      ],
      "payable": false,
      "stateMutability": "view",
      "type": "function"
    },
    {
      "constant": true,
      "inputs": [],
      "name": "symbol",
      "outputs": [
        {
          "name": "",
          "type": "string"
        }
      ],
      "payable": false,
      "stateMutability": "view",
      "type": "function"
    },
    {
      "constant": false,
      "inputs": [
        {
          "name": "_to",
          "type": "address"
        },
        {
          "name": "_value",
          "type": "uint256"
        }
      ],
      "name": "transfer",
      "outputs": [
        {
          "name": "",
          "type": "bool"
        }
      ],
      "payable": false,
      "stateMutability": "nonpayable",
      "type": "function"
    },
    {
      "constant": false,
      "inputs": [
        {
          "name": "_spender",
          "type": "address"
        },
        {
          "name": "_addedValue",
          "type": "uint256"
        }
      ],
      "name": "increaseApproval",
      "outputs": [
        {
          "name": "",
          "type": "bool"
        }
      ],
      "payable": false,
      "stateMutability": "nonpayable",
      "type": "function"
    },
    {
      "constant": true,
      "inputs": [
        {
          "name": "_owner",
          "type": "address"
        },
        {
          "name": "_spender",
          "type": "address"
        }
      ],
      "name": "allowance",
      "outputs": [
        {
          "name": "",
          "type": "uint256"
        }
      ],
      "payable": false,
      "stateMutability": "view",
      "type": "function"
    },
    {
      "inputs": [],
      "payable": false,
      "stateMutability": "nonpayable",
      "type": "constructor"
    },
    {
      "anonymous": false,
      "inputs": [
        {
          "indexed": true,
          "name": "owner",
          "type": "address"
        },
        {
          "indexed": true,
          "name": "spender",
          "type": "address"
        },
        {
          "indexed": false,
          "name": "value",
          "type": "uint256"
        }
      ],
      "name": "Approval",
      "type": "event"
    },
    {
      "anonymous": false,
      "inputs": [
        {
          "indexed": true,
          "name": "from",
          "type": "address"
        },
        {
          "indexed": true,
          "name": "to",
          "type": "address"
        },
        {
          "indexed": false,
          "name": "value",
          "type": "uint256"
        }
      ],
      "name": "Transfer",
      "type": "event"
    }
  ],
  "bytecode": "0x6060604052341561000f57600080fd5b600160a060020a03331660009081526001602052604081206a108b2a2c28029094000000908190559055610857806100486000396000f3006060604052600436106100b95763ffffffff7c010000000000000000000000000000000000000000000000000000000060003504166306fdde0381146100be578063095ea7b31461014857806318160ddd1461017e57806323b872dd146101a3578063313ce567146101cb5780635427789c146101de57806366188463146101f157806370a082311461021357806395d89b4114610232578063a9059cbb14610245578063d73dd62314610267578063dd62ed3e14610289575b600080fd5b34156100c957600080fd5b6100d16102ae565b60405160208082528190810183818151815260200191508051906020019080838360005b8381101561010d5780820151838201526020016100f5565b50505050905090810190601f16801561013a5780820380516001836020036101000a031916815260200191505b509250505060405180910390f35b341561015357600080fd5b61016a600160a060020a03600435166024356102e5565b604051901515815260200160405180910390f35b341561018957600080fd5b610191610351565b60405190815260200160405180910390f35b34156101ae57600080fd5b61016a600160a060020a0360043581169060243516604435610357565b34156101d657600080fd5b6101916104d9565b34156101e957600080fd5b6101916104de565b34156101fc57600080fd5b61016a600160a060020a03600435166024356104ed565b341561021e57600080fd5b610191600160a060020a03600435166105e7565b341561023d57600080fd5b6100d1610602565b341561025057600080fd5b61016a600160a060020a0360043516602435610639565b341561027257600080fd5b61016a600160a060020a0360043516602435610734565b341561029457600080fd5b610191600160a060020a03600435811690602435166107d8565b60408051908101604052600a81527f5465737420546f6b656e00000000000000000000000000000000000000000000602082015281565b600160a060020a03338116600081815260026020908152604080832094871680845294909152808220859055909291907f8c5be1e5ebec7d5bd14f71427d1e84f3dd0314c0f7b2291e5b200ac8c7c3b9259085905190815260200160405180910390a350600192915050565b60005481565b6000600160a060020a038316151561036e57600080fd5b600160a060020a03841660009081526001602052604090205482111561039357600080fd5b600160a060020a03808516600090815260026020908152604080832033909416835292905220548211156103c657600080fd5b600160a060020a0384166000908152600160205260409020546103ef908363ffffffff61080316565b600160a060020a038086166000908152600160205260408082209390935590851681522054610424908363ffffffff61081516565b600160a060020a0380851660009081526001602090815260408083209490945587831682526002815283822033909316825291909152205461046c908363ffffffff61080316565b600160a060020a03808616600081815260026020908152604080832033861684529091529081902093909355908516917fddf252ad1be2c89b69c2b068fc378daa952ba7f163c4a11628f55a4df523b3ef9085905190815260200160405180910390a35060019392505050565b601281565b6a108b2a2c2802909400000081565b600160a060020a0333811660009081526002602090815260408083209386168352929052908120548083111561054a57600160a060020a033381166000908152600260209081526040808320938816835292905290812055610581565b61055a818463ffffffff61080316565b600160a060020a033381166000908152600260209081526040808320938916835292905220555b600160a060020a0333811660008181526002602090815260408083209489168084529490915290819020547f8c5be1e5ebec7d5bd14f71427d1e84f3dd0314c0f7b2291e5b200ac8c7c3b925915190815260200160405180910390a35060019392505050565b600160a060020a031660009081526001602052604090205490565b60408051908101604052600381527f5453540000000000000000000000000000000000000000000000000000000000602082015281565b6000600160a060020a038316151561065057600080fd5b600160a060020a03331660009081526001602052604090205482111561067557600080fd5b600160a060020a03331660009081526001602052604090205461069e908363ffffffff61080316565b600160a060020a0333811660009081526001602052604080822093909355908516815220546106d3908363ffffffff61081516565b600160a060020a0380851660008181526001602052604090819020939093559133909116907fddf252ad1be2c89b69c2b068fc378daa952ba7f163c4a11628f55a4df523b3ef9085905190815260200160405180910390a350600192915050565b600160a060020a03338116600090815260026020908152604080832093861683529290529081205461076c908363ffffffff61081516565b600160a060020a0333811660008181526002602090815260408083209489168084529490915290819020849055919290917f8c5be1e5ebec7d5bd14f71427d1e84f3dd0314c0f7b2291e5b200ac8c7c3b92591905190815260200160405180910390a350600192915050565b600160a060020a03918216600090815260026020908152604080832093909416825291909152205490565b60008282111561080f57fe5b50900390565b60008282018381101561082457fe5b93925050505600a165627a7a72305820343579e42676c8337a0b20f5ea77a7565efce0b2f9f72643f545990f2182b30e0029",
  "source": "/*\n\n  << Test Token (for use with the Test DAO) >>\n\n*/\n\npragma solidity 0.4.18;\n\nimport \"zeppelin-solidity/contracts/token/StandardToken.sol\";\n\n/**\n  * @title TestToken\n  * @author Project Wyvern Developers\n  */\ncontract TestToken is StandardToken {\n\n    uint constant public decimals     = 18;\n    string constant public name       = \"Test Token\";\n    string constant public symbol     = \"TST\";\n\n    uint constant public MINT_AMOUNT  = 20000000 * (10 ** decimals);\n\n    /**\n      * @dev Initialize the test token\n      */\n    function TestToken () public {\n        balances[msg.sender] = MINT_AMOUNT;\n        totalSupply = MINT_AMOUNT;\n    }\n\n}\n",
  "sourcePath": "/home/cwgoes/working/crypto/wyvern/wyvern-ethereum/contracts/TestToken.sol",
  "compiler": {
    "name": "solc",
    "version": "0.4.18+commit.9cf6e910.Emscripten.clang"
  },
  "schemaVersion": "1.0.1",
  "updatedAt": "2018-02-02T08:10:38.425Z"
}