{
  "contractName": "TestBank",
  "abi": [
    {
      "constant": false,
      "inputs": [
        {
          "name": "user",
          "type": "address"
        },
        {
          "name": "token",
          "type": "address"
        },
        {
          "name": "amount",
          "type": "uint256"
        }
      ],
      "name": "_credit",
      "outputs": [],
      "payable": false,
      "stateMutability": "nonpayable",
      "type": "function"
    },
    {
      "constant": true,
      "inputs": [],
      "name": "name",
      "outputs": [
        {
          "name": "",
          "type": "string"
        }
      ],
      "payable": false,
      "stateMutability": "view",
      "type": "function"
    },
    {
      "constant": false,
      "inputs": [
        {
          "name": "user",
          "type": "address"
        },
        {
          "name": "token",
          "type": "address"
        },
        {
          "name": "amount",
          "type": "uint256"
        },
        {
          "name": "dest",
          "type": "address"
        }
      ],
      "name": "withdraw",
      "outputs": [],
      "payable": false,
      "stateMutability": "nonpayable",
      "type": "function"
    },
    {
      "constant": true,
      "inputs": [
        {
          "name": "user",
          "type": "address"
        },
        {
          "name": "token",
          "type": "address"
        }
      ],
      "name": "lockedFor",
      "outputs": [
        {
          "name": "",
          "type": "uint256"
        }
      ],
      "payable": false,
      "stateMutability": "view",
      "type": "function"
    },
    {
      "constant": false,
      "inputs": [
        {
          "name": "user",
          "type": "address"
        },
        {
          "name": "token",
          "type": "address"
        },
        {
          "name": "amount",
          "type": "uint256"
        }
      ],
      "name": "_lazyLock",
      "outputs": [],
      "payable": false,
      "stateMutability": "nonpayable",
      "type": "function"
    },
    {
      "constant": false,
      "inputs": [
        {
          "name": "user",
          "type": "address"
        },
        {
          "name": "token",
          "type": "address"
        },
        {
          "name": "amount",
          "type": "uint256"
        }
      ],
      "name": "deposit",
      "outputs": [],
      "payable": false,
      "stateMutability": "nonpayable",
      "type": "function"
    },
    {
      "constant": false,
      "inputs": [
        {
          "name": "user",
          "type": "address"
        },
        {
          "name": "token",
          "type": "address"
        },
        {
          "name": "amount",
          "type": "uint256"
        }
      ],
      "name": "_unlock",
      "outputs": [],
      "payable": false,
      "stateMutability": "nonpayable",
      "type": "function"
    },
    {
      "constant": true,
      "inputs": [
        {
          "name": "",
          "type": "address"
        },
        {
          "name": "",
          "type": "address"
        }
      ],
      "name": "balances",
      "outputs": [
        {
          "name": "",
          "type": "uint256"
        }
      ],
      "payable": false,
      "stateMutability": "view",
      "type": "function"
    },
    {
      "constant": false,
      "inputs": [
        {
          "name": "user",
          "type": "address"
        },
        {
          "name": "token",
          "type": "address"
        },
        {
          "name": "amount",
          "type": "uint256"
        }
      ],
      "name": "_lazyDebit",
      "outputs": [],
      "payable": false,
      "stateMutability": "nonpayable",
      "type": "function"
    },
    {
      "constant": true,
      "inputs": [
        {
          "name": "",
          "type": "address"
        },
        {
          "name": "",
          "type": "address"
        }
      ],
      "name": "locked",
      "outputs": [
        {
          "name": "",
          "type": "uint256"
        }
      ],
      "payable": false,
      "stateMutability": "view",
      "type": "function"
    },
    {
      "constant": true,
      "inputs": [
        {
          "name": "user",
          "type": "address"
        },
        {
          "name": "token",
          "type": "address"
        }
      ],
      "name": "availableFor",
      "outputs": [
        {
          "name": "",
          "type": "uint256"
        }
      ],
      "payable": false,
      "stateMutability": "view",
      "type": "function"
    },
    {
      "constant": false,
      "inputs": [
        {
          "name": "from",
          "type": "address"
        },
        {
          "name": "to",
          "type": "address"
        },
        {
          "name": "token",
          "type": "address"
        },
        {
          "name": "amount",
          "type": "uint256"
        }
      ],
      "name": "_transferTo",
      "outputs": [],
      "payable": false,
      "stateMutability": "nonpayable",
      "type": "function"
    },
    {
      "constant": true,
      "inputs": [
        {
          "name": "user",
          "type": "address"
        },
        {
          "name": "token",
          "type": "address"
        }
      ],
      "name": "balanceFor",
      "outputs": [
        {
          "name": "",
          "type": "uint256"
        }
      ],
      "payable": false,
      "stateMutability": "view",
      "type": "function"
    },
    {
      "inputs": [],
      "payable": false,
      "stateMutability": "nonpayable",
      "type": "constructor"
    },
    {
      "anonymous": false,
      "inputs": [
        {
          "indexed": true,
          "name": "user",
          "type": "address"
        },
        {
          "indexed": true,
          "name": "token",
          "type": "address"
        },
        {
          "indexed": false,
          "name": "amount",
          "type": "uint256"
        }
      ],
      "name": "Credited",
      "type": "event"
    },
    {
      "anonymous": false,
      "inputs": [
        {
          "indexed": true,
          "name": "user",
          "type": "address"
        },
        {
          "indexed": true,
          "name": "token",
          "type": "address"
        },
        {
          "indexed": false,
          "name": "amount",
          "type": "uint256"
        }
      ],
      "name": "Debited",
      "type": "event"
    },
    {
      "anonymous": false,
      "inputs": [
        {
          "indexed": true,
          "name": "user",
          "type": "address"
        },
        {
          "indexed": true,
          "name": "token",
          "type": "address"
        },
        {
          "indexed": false,
          "name": "amount",
          "type": "uint256"
        }
      ],
      "name": "Locked",
      "type": "event"
    },
    {
      "anonymous": false,
      "inputs": [
        {
          "indexed": true,
          "name": "user",
          "type": "address"
        },
        {
          "indexed": true,
          "name": "token",
          "type": "address"
        },
        {
          "indexed": false,
          "name": "amount",
          "type": "uint256"
        }
      ],
      "name": "Unlocked",
      "type": "event"
    }
  ],
  "bytecode": "0x6060604052341561000f57600080fd5b610b878061001e6000396000f3006060604052600436106100ab5763ffffffff60e060020a600035041663034422ef81146100b057806306fdde03146100da5780630e917f76146101645780634e10c95d146101935780635a8158e2146101ca5780638340f549146101f25780639577bffa1461021a578063c23f001f14610242578063cb5f264314610267578063db20266f1461028f578063db2ec6bd146102b4578063f49ec961146102d9578063f771e78b14610307575b600080fd5b34156100bb57600080fd5b6100d8600160a060020a036004358116906024351660443561032c565b005b34156100e557600080fd5b6100ed61033c565b60405160208082528190810183818151815260200191508051906020019080838360005b83811015610129578082015183820152602001610111565b50505050905090810190601f1680156101565780820380516001836020036101000a031916815260200191505b509250505060405180910390f35b341561016f57600080fd5b6100d8600160a060020a036004358116906024358116906044359060643516610373565b341561019e57600080fd5b6101b8600160a060020a0360043581169060243516610474565b60405190815260200160405180910390f35b34156101d557600080fd5b6100d8600160a060020a036004358116906024351660443561049f565b34156101fd57600080fd5b6100d8600160a060020a03600435811690602435166044356104aa565b341561022557600080fd5b6100d8600160a060020a0360043581169060243516604435610565565b341561024d57600080fd5b6101b8600160a060020a0360043581169060243516610570565b341561027257600080fd5b6100d8600160a060020a036004358116906024351660443561058a565b341561029a57600080fd5b6101b8600160a060020a0360043581169060243516610595565b34156102bf57600080fd5b6101b8600160a060020a03600435811690602435166105b2565b34156102e457600080fd5b6100d8600160a060020a03600435811690602435811690604435166064356105fe565b341561031257600080fd5b6101b8600160a060020a0360043581169060243516610610565b610337838383610639565b505050565b60408051908101604052600981527f546573742042616e6b0000000000000000000000000000000000000000000000602082015281565b600084600160a060020a031633600160a060020a031614151561039557600080fd5b600160a060020a03808616600081815260208181526040808320948916808452948252808320549383526001825280832094835293905291909120546103db91906106cd565b9050808311156103ea57600080fd5b6103f58585856106df565b83600160a060020a031663a9059cbb838560006040516020015260405160e060020a63ffffffff8516028152600160a060020a0390921660048301526024820152604401602060405180830381600087803b151561045257600080fd5b6102c65a03f1151561046357600080fd5b505050604051805150505050505050565b600160a060020a03918216600090815260016020908152604080832093909416825291909152205490565b610337838383610892565b82600160a060020a031633600160a060020a03161415156104ca57600080fd5b6104d5838383610639565b81600160a060020a03166323b872dd84308460006040516020015260405160e060020a63ffffffff8616028152600160a060020a0393841660048201529190921660248201526044810191909152606401602060405180830381600087803b151561053f57600080fd5b6102c65a03f1151561055057600080fd5b50505060405180519050151561033757600080fd5b610337838383610a84565b600060208181529281526040808220909352908152205481565b6103378383836106df565b600160209081526000928352604080842090915290825290205481565b600160a060020a038083166000818152602081815260408083209486168084529482528083205493835260018252808320948352939052918220546105f791906106cd565b9392505050565b61060a84848484610b36565b50505050565b600160a060020a0391821660009081526020818152604080832093909416825291909152205490565b600160a060020a03808416600090815260208181526040808320938616835292905220546106679082610b4c565b600160a060020a0380851660008181526020818152604080832094881680845294909152908190209390935590917f4e45da441832cf53bdaa69235704fc0575e68210f459ee1562911024b12967d59084905190815260200160405180910390a3505050565b6000828211156106d957fe5b50900390565b600160a060020a038084166000818152602081815260408083209487168084529482528083205493835260018252808320948352939052918220548291610725916106cd565b915083600160a060020a031685600160a060020a03167f9407bd81f01ad8f5ae4a2487b63d3d1b1947257c2dcdda3ea183dc8e6965cc6e8560405190815260200160405180910390a38282106107cc57600160a060020a03808616600090815260208181526040808320938816835292905220546107a390846106cd565b600160a060020a038087166000908152602081815260408083209389168352929052205561088b565b6107d683836106cd565b600160a060020a038087166000908152602081815260408083209389168084529390915280822082905592935090916323b872dd91889130918691516020015260405160e060020a63ffffffff8616028152600160a060020a0393841660048201529190921660248201526044810191909152606401602060405180830381600087803b151561086557600080fd5b6102c65a03f1151561087657600080fd5b50505060405180519050151561088b57600080fd5b5050505050565b600160a060020a0380841660009081526001602090815260408083209386168352929052908120546108c49083610b4c565b600160a060020a03858116600081815260016020908152604080832094891680845285835281842087905593835282825280832093835292815291902054919052901115610a3757600160a060020a03808516600081815260016020908152604080832094881680845294825280832054938352828252808320948352939052919091205461095391906106cd565b600160a060020a03808616600090815260208181526040808320938816835292905220549091506109849082610b4c565b600160a060020a03808616600090815260208181526040808320938816808452939091528082209390935590916323b872dd91879130918691516020015260405160e060020a63ffffffff8616028152600160a060020a0393841660048201529190921660248201526044810191909152606401602060405180830381600087803b1515610a1157600080fd5b6102c65a03f11515610a2257600080fd5b505050604051805190501515610a3757600080fd5b82600160a060020a031684600160a060020a03167f989eaa915cbb416ea3d6f9a63b1a3de51770c7674b11fe21ecdf76b4e1d139108460405190815260200160405180910390a350505050565b600160a060020a03808416600090815260016020908152604080832093861683529290522054610ab490826106cd565b600160a060020a0384811660009081526001602090815260408083209387168352929052908120829055901015610aea57600080fd5b81600160a060020a031683600160a060020a03167fe6e0ef9cd056ca98561ca60e347ada61e1ede2f1142a078951b7a52e1e508e608360405190815260200160405180910390a3505050565b610b41838383610639565b61060a8483836106df565b6000828201838110156105f757fe00a165627a7a72305820d9124ed45735228e1f5f663c084cff3f46872a484b8f8a86a54851508c08ab040029",
  "source": "/*\n\n  << Test Lazy Bank >>\n\n*/\n\npragma solidity 0.4.18;\n\nimport \"./common/LazyBank.sol\";\n\nimport \"zeppelin-solidity/contracts/token/ERC20.sol\";\n\n/**\n * @title TestBank\n * @author Project Wyvern Developers\n */\ncontract TestBank is LazyBank {\n\n    string public constant name = \"Test Bank\";\n\n    function TestBank () public {\n    }\n\n    function _credit(address user, ERC20 token, uint amount)\n        public\n    {\n        credit(user, token, amount);\n    }\n\n    function _lazyDebit(address user, ERC20 token, uint amount)\n    {\n        lazyDebit(user, token, amount);\n    }\n\n    function _transferTo(address from, address to, ERC20 token, uint amount)\n    {\n        transferTo(from, to, token, amount);\n    }\n    \n    function _lazyLock(address user, ERC20 token, uint amount)\n    {\n        lazyLock(user, token, amount);\n    }\n    \n    function _unlock(address user, ERC20 token, uint amount)\n    {\n        unlock(user, token, amount);\n    }\n\n}\n",
  "sourcePath": "/home/cwgoes/working/crypto/wyvern/wyvern-ethereum/contracts/TestBank.sol",
  "compiler": {
    "name": "solc",
    "version": "0.4.18+commit.9cf6e910.Emscripten.clang"
  },
  "schemaVersion": "1.0.1",
  "updatedAt": "2018-01-23T17:52:06.269Z"
}