{
  "contractName": "TestBank",
  "abi": [
    {
      "constant": true,
      "inputs": [],
      "name": "name",
      "outputs": [
        {
          "name": "",
          "type": "string"
        }
      ],
      "payable": false,
      "stateMutability": "view",
      "type": "function"
    },
    {
      "constant": false,
      "inputs": [
        {
          "name": "user",
          "type": "address"
        },
        {
          "name": "token",
          "type": "address"
        },
        {
          "name": "amount",
          "type": "uint256"
        },
        {
          "name": "dest",
          "type": "address"
        }
      ],
      "name": "withdraw",
      "outputs": [],
      "payable": false,
      "stateMutability": "nonpayable",
      "type": "function"
    },
    {
      "constant": true,
      "inputs": [
        {
          "name": "user",
          "type": "address"
        },
        {
          "name": "token",
          "type": "address"
        }
      ],
      "name": "lockedFor",
      "outputs": [
        {
          "name": "",
          "type": "uint256"
        }
      ],
      "payable": false,
      "stateMutability": "view",
      "type": "function"
    },
    {
      "constant": false,
      "inputs": [
        {
          "name": "user",
          "type": "address"
        },
        {
          "name": "token",
          "type": "address"
        },
        {
          "name": "amount",
          "type": "uint256"
        }
      ],
      "name": "deposit",
      "outputs": [],
      "payable": false,
      "stateMutability": "nonpayable",
      "type": "function"
    },
    {
      "constant": true,
      "inputs": [
        {
          "name": "",
          "type": "address"
        },
        {
          "name": "",
          "type": "address"
        }
      ],
      "name": "balances",
      "outputs": [
        {
          "name": "",
          "type": "uint256"
        }
      ],
      "payable": false,
      "stateMutability": "view",
      "type": "function"
    },
    {
      "constant": true,
      "inputs": [
        {
          "name": "",
          "type": "address"
        },
        {
          "name": "",
          "type": "address"
        }
      ],
      "name": "locked",
      "outputs": [
        {
          "name": "",
          "type": "uint256"
        }
      ],
      "payable": false,
      "stateMutability": "view",
      "type": "function"
    },
    {
      "constant": true,
      "inputs": [
        {
          "name": "user",
          "type": "address"
        },
        {
          "name": "token",
          "type": "address"
        }
      ],
      "name": "availableFor",
      "outputs": [
        {
          "name": "",
          "type": "uint256"
        }
      ],
      "payable": false,
      "stateMutability": "view",
      "type": "function"
    },
    {
      "constant": true,
      "inputs": [
        {
          "name": "user",
          "type": "address"
        },
        {
          "name": "token",
          "type": "address"
        }
      ],
      "name": "balanceFor",
      "outputs": [
        {
          "name": "",
          "type": "uint256"
        }
      ],
      "payable": false,
      "stateMutability": "view",
      "type": "function"
    },
    {
      "inputs": [],
      "payable": false,
      "stateMutability": "nonpayable",
      "type": "constructor"
    },
    {
      "anonymous": false,
      "inputs": [
        {
          "indexed": true,
          "name": "user",
          "type": "address"
        },
        {
          "indexed": true,
          "name": "token",
          "type": "address"
        },
        {
          "indexed": false,
          "name": "amount",
          "type": "uint256"
        }
      ],
      "name": "Credited",
      "type": "event"
    },
    {
      "anonymous": false,
      "inputs": [
        {
          "indexed": true,
          "name": "user",
          "type": "address"
        },
        {
          "indexed": true,
          "name": "token",
          "type": "address"
        },
        {
          "indexed": false,
          "name": "amount",
          "type": "uint256"
        }
      ],
      "name": "Debited",
      "type": "event"
    },
    {
      "anonymous": false,
      "inputs": [
        {
          "indexed": true,
          "name": "user",
          "type": "address"
        },
        {
          "indexed": true,
          "name": "token",
          "type": "address"
        },
        {
          "indexed": false,
          "name": "amount",
          "type": "uint256"
        }
      ],
      "name": "Locked",
      "type": "event"
    },
    {
      "anonymous": false,
      "inputs": [
        {
          "indexed": true,
          "name": "user",
          "type": "address"
        },
        {
          "indexed": true,
          "name": "token",
          "type": "address"
        },
        {
          "indexed": false,
          "name": "amount",
          "type": "uint256"
        }
      ],
      "name": "Unlocked",
      "type": "event"
    }
  ],
  "bytecode": "0x6060604052341561000f57600080fd5b61078a8061001e6000396000f3006060604052600436106100745763ffffffff60e060020a60003504166306fdde0381146100795780630e917f76146101035780634e10c95d146101345780638340f5491461016b578063c23f001f14610193578063db20266f146101b8578063db2ec6bd146101dd578063f771e78b14610202575b600080fd5b341561008457600080fd5b61008c610227565b60405160208082528190810183818151815260200191508051906020019080838360005b838110156100c85780820151838201526020016100b0565b50505050905090810190601f1680156100f55780820380516001836020036101000a031916815260200191505b509250505060405180910390f35b341561010e57600080fd5b610132600160a060020a03600435811690602435811690604435906064351661025e565b005b341561013f57600080fd5b610159600160a060020a036004358116906024351661035f565b60405190815260200160405180910390f35b341561017657600080fd5b610132600160a060020a036004358116906024351660443561038a565b341561019e57600080fd5b610159600160a060020a036004358116906024351661044a565b34156101c357600080fd5b610159600160a060020a0360043581169060243516610464565b34156101e857600080fd5b610159600160a060020a0360043581169060243516610481565b341561020d57600080fd5b610159600160a060020a03600435811690602435166104cd565b60408051908101604052600981527f546573742042616e6b0000000000000000000000000000000000000000000000602082015281565b600084600160a060020a031633600160a060020a031614151561028057600080fd5b600160a060020a03808616600081815260208181526040808320948916808452948252808320549383526001825280832094835293905291909120546102c691906104f6565b9050808311156102d557600080fd5b6102e0858585610508565b83600160a060020a031663a9059cbb838560006040516020015260405160e060020a63ffffffff8516028152600160a060020a0390921660048301526024820152604401602060405180830381600087803b151561033d57600080fd5b6102c65a03f1151561034e57600080fd5b505050604051805150505050505050565b600160a060020a03918216600090815260016020908152604080832093909416825291909152205490565b82600160a060020a031633600160a060020a03161415156103aa57600080fd5b6103b58383836106bb565b81600160a060020a03166323b872dd84308460006040516020015260405160e060020a63ffffffff8616028152600160a060020a0393841660048201529190921660248201526044810191909152606401602060405180830381600087803b151561041f57600080fd5b6102c65a03f1151561043057600080fd5b50505060405180519050151561044557600080fd5b505050565b600060208181529281526040808220909352908152205481565b600160209081526000928352604080842090915290825290205481565b600160a060020a038083166000818152602081815260408083209486168084529482528083205493835260018252808320948352939052918220546104c691906104f6565b9392505050565b600160a060020a0391821660009081526020818152604080832093909416825291909152205490565b60008282111561050257fe5b50900390565b600160a060020a03808416600081815260208181526040808320948716808452948252808320549383526001825280832094835293905291822054829161054e916104f6565b915083600160a060020a031685600160a060020a03167f9407bd81f01ad8f5ae4a2487b63d3d1b1947257c2dcdda3ea183dc8e6965cc6e8560405190815260200160405180910390a38282106105f557600160a060020a03808616600090815260208181526040808320938816835292905220546105cc90846104f6565b600160a060020a03808716600090815260208181526040808320938916835292905220556106b4565b6105ff83836104f6565b600160a060020a038087166000908152602081815260408083209389168084529390915280822082905592935090916323b872dd91889130918691516020015260405160e060020a63ffffffff8616028152600160a060020a0393841660048201529190921660248201526044810191909152606401602060405180830381600087803b151561068e57600080fd5b6102c65a03f1151561069f57600080fd5b5050506040518051905015156106b457600080fd5b5050505050565b600160a060020a03808416600090815260208181526040808320938616835292905220546106e9908261074f565b600160a060020a0380851660008181526020818152604080832094881680845294909152908190209390935590917f4e45da441832cf53bdaa69235704fc0575e68210f459ee1562911024b12967d59084905190815260200160405180910390a3505050565b6000828201838110156104c657fe00a165627a7a72305820016f052c356606cf6f313bc882e830d09850681f37f3b8e2bf1499a7e871299e0029",
  "source": "/*\n\n  << Test Lazy Bank >>\n\n*/\n\npragma solidity 0.4.18;\n\nimport \"./common/LazyBank.sol\";\n\n/**\n * @title TestBank\n * @author Project Wyvern Developers\n */\ncontract TestBank is LazyBank {\n\n    string public constant name = \"Test Bank\";\n\n    function TestBank () public {\n    }\n\n}\n",
  "sourcePath": "/home/cwgoes/working/crypto/wyvern/wyvern-ethereum/contracts/TestBank.sol",
  "compiler": {
    "name": "solc",
    "version": "0.4.18+commit.9cf6e910.Emscripten.clang"
  },
  "schemaVersion": "1.0.1",
  "updatedAt": "2018-01-23T06:30:03.658Z"
}