{
  "contractName": "TestStatic",
  "abi": [
    {
      "inputs": [],
      "payable": false,
      "stateMutability": "nonpayable",
      "type": "constructor"
    },
    {
      "constant": true,
      "inputs": [],
      "name": "alwaysSucceed",
      "outputs": [],
      "payable": false,
      "stateMutability": "pure",
      "type": "function"
    },
    {
      "constant": true,
      "inputs": [],
      "name": "alwaysFail",
      "outputs": [],
      "payable": false,
      "stateMutability": "pure",
      "type": "function"
    },
    {
      "constant": true,
      "inputs": [
        {
          "name": "calldata",
          "type": "bytes"
        }
      ],
      "name": "requireMinimumLength",
      "outputs": [],
      "payable": false,
      "stateMutability": "pure",
      "type": "function"
    }
  ],
  "bytecode": "0x608060405234801561001057600080fd5b50610115806100206000396000f30060806040526004361060525763ffffffff7c01000000000000000000000000000000000000000000000000000000006000350416631a352851811460575780638727937914606b5780639e0199d814607d575b600080fd5b348015606257600080fd5b5060696052565b005b348015607657600080fd5b50606960d5565b348015608857600080fd5b506040805160206004803580820135601f8101849004840285018401909552848452606994369492936024939284019190819084018382808284375094975060d99650505050505050565b565b60d3565b805160021060e657600080fd5b505600a165627a7a72305820d014f846da7380b6ea57f3cbd8b33bd708e5263fa3dba41a24cd7e19bde896b70029",
  "source": "/*\n\n  << Test Static Calls >>\n\n*/\n\npragma solidity 0.4.23;\n\n/**\n  * @title TestStatic\n  * @author Project Wyvern Developers\n  */\ncontract TestStatic {\n\n    /**\n      * @dev Initialize contract\n      */\n    constructor () public {\n    }\n\n    function alwaysSucceed()\n        public\n        pure\n    {\n        require(true);\n    }\n\n    function alwaysFail()\n        public\n        pure\n    {\n        require(false);\n    }\n\n    function requireMinimumLength(bytes calldata)\n        public\n        pure\n    {\n        require(calldata.length > 2);\n    }\n\n}\n",
  "sourcePath": "/home/cwgoes/working/crypto/wyvern/wyvern-ethereum/contracts/TestStatic.sol",
  "compiler": {
    "name": "solc",
    "version": "0.4.23+commit.124ca40d.Emscripten.clang"
  },
  "schemaVersion": "2.0.0",
  "updatedAt": "2018-06-12T06:49:46.729Z"
}