{
  "contractName": "TestDAO",
  "abi": [
    {
      "constant": true,
      "inputs": [
        {
          "name": "",
          "type": "uint256"
        }
      ],
      "name": "proposals",
      "outputs": [
        {
          "name": "recipient",
          "type": "address"
        },
        {
          "name": "amount",
          "type": "uint256"
        },
        {
          "name": "metadataHash",
          "type": "bytes"
        },
        {
          "name": "votingDeadline",
          "type": "uint256"
        },
        {
          "name": "executed",
          "type": "bool"
        },
        {
          "name": "proposalPassed",
          "type": "bool"
        },
        {
          "name": "numberOfVotes",
          "type": "uint256"
        },
        {
          "name": "proposalHash",
          "type": "bytes32"
        }
      ],
      "payable": false,
      "stateMutability": "view",
      "type": "function"
    },
    {
      "constant": true,
      "inputs": [
        {
          "name": "",
          "type": "address"
        }
      ],
      "name": "delegatesByDelegator",
      "outputs": [
        {
          "name": "",
          "type": "address"
        }
      ],
      "payable": false,
      "stateMutability": "view",
      "type": "function"
    },
    {
      "constant": true,
      "inputs": [],
      "name": "name",
      "outputs": [
        {
          "name": "",
          "type": "string"
        }
      ],
      "payable": false,
      "stateMutability": "view",
      "type": "function"
    },
    {
      "constant": true,
      "inputs": [],
      "name": "REQUIRED_SHARES_TO_BE_BOARD_MEMBER",
      "outputs": [
        {
          "name": "",
          "type": "uint256"
        }
      ],
      "payable": false,
      "stateMutability": "view",
      "type": "function"
    },
    {
      "constant": true,
      "inputs": [
        {
          "name": "",
          "type": "address"
        }
      ],
      "name": "lockedDelegatingTokens",
      "outputs": [
        {
          "name": "",
          "type": "uint256"
        }
      ],
      "payable": false,
      "stateMutability": "view",
      "type": "function"
    },
    {
      "constant": false,
      "inputs": [
        {
          "name": "minimumSharesToPassAVote",
          "type": "uint256"
        },
        {
          "name": "minutesForDebate",
          "type": "uint256"
        }
      ],
      "name": "changeVotingRules",
      "outputs": [],
      "payable": false,
      "stateMutability": "nonpayable",
      "type": "function"
    },
    {
      "constant": false,
      "inputs": [
        {
          "name": "proposalNumber",
          "type": "uint256"
        },
        {
          "name": "transactionBytecode",
          "type": "bytes"
        }
      ],
      "name": "executeProposal",
      "outputs": [],
      "payable": false,
      "stateMutability": "nonpayable",
      "type": "function"
    },
    {
      "constant": true,
      "inputs": [],
      "name": "sharesTokenAddress",
      "outputs": [
        {
          "name": "",
          "type": "address"
        }
      ],
      "payable": false,
      "stateMutability": "view",
      "type": "function"
    },
    {
      "constant": false,
      "inputs": [
        {
          "name": "beneficiary",
          "type": "address"
        },
        {
          "name": "etherAmount",
          "type": "uint256"
        },
        {
          "name": "jobMetadataHash",
          "type": "bytes"
        },
        {
          "name": "transactionBytecode",
          "type": "bytes"
        }
      ],
      "name": "newProposalInEther",
      "outputs": [
        {
          "name": "proposalID",
          "type": "uint256"
        }
      ],
      "payable": false,
      "stateMutability": "nonpayable",
      "type": "function"
    },
    {
      "constant": true,
      "inputs": [
        {
          "name": "",
          "type": "address"
        }
      ],
      "name": "delegatedAmountsByDelegate",
      "outputs": [
        {
          "name": "",
          "type": "uint256"
        }
      ],
      "payable": false,
      "stateMutability": "view",
      "type": "function"
    },
    {
      "constant": true,
      "inputs": [],
      "name": "numProposals",
      "outputs": [
        {
          "name": "",
          "type": "uint256"
        }
      ],
      "payable": false,
      "stateMutability": "view",
      "type": "function"
    },
    {
      "constant": true,
      "inputs": [],
      "name": "TOKEN_DECIMALS",
      "outputs": [
        {
          "name": "",
          "type": "uint256"
        }
      ],
      "payable": false,
      "stateMutability": "view",
      "type": "function"
    },
    {
      "constant": false,
      "inputs": [
        {
          "name": "tokensToLock",
          "type": "uint256"
        },
        {
          "name": "delegate",
          "type": "address"
        }
      ],
      "name": "setDelegateAndLockTokens",
      "outputs": [],
      "payable": false,
      "stateMutability": "nonpayable",
      "type": "function"
    },
    {
      "constant": false,
      "inputs": [],
      "name": "clearDelegateAndUnlockTokens",
      "outputs": [
        {
          "name": "lockedTokens",
          "type": "uint256"
        }
      ],
      "payable": false,
      "stateMutability": "nonpayable",
      "type": "function"
    },
    {
      "constant": true,
      "inputs": [],
      "name": "debatingPeriodInMinutes",
      "outputs": [
        {
          "name": "",
          "type": "uint256"
        }
      ],
      "payable": false,
      "stateMutability": "view",
      "type": "function"
    },
    {
      "constant": true,
      "inputs": [],
      "name": "minimumQuorum",
      "outputs": [
        {
          "name": "",
          "type": "uint256"
        }
      ],
      "payable": false,
      "stateMutability": "view",
      "type": "function"
    },
    {
      "constant": false,
      "inputs": [
        {
          "name": "_from",
          "type": "address"
        },
        {
          "name": "_value",
          "type": "uint256"
        },
        {
          "name": "_token",
          "type": "address"
        },
        {
          "name": "_extraData",
          "type": "bytes"
        }
      ],
      "name": "receiveApproval",
      "outputs": [],
      "payable": false,
      "stateMutability": "nonpayable",
      "type": "function"
    },
    {
      "constant": true,
      "inputs": [],
      "name": "requiredSharesToBeBoardMember",
      "outputs": [
        {
          "name": "",
          "type": "uint256"
        }
      ],
      "payable": false,
      "stateMutability": "view",
      "type": "function"
    },
    {
      "constant": false,
      "inputs": [
        {
          "name": "proposalNumber",
          "type": "uint256"
        },
        {
          "name": "supportsProposal",
          "type": "bool"
        }
      ],
      "name": "vote",
      "outputs": [
        {
          "name": "voteID",
          "type": "uint256"
        }
      ],
      "payable": false,
      "stateMutability": "nonpayable",
      "type": "function"
    },
    {
      "constant": false,
      "inputs": [
        {
          "name": "beneficiary",
          "type": "address"
        },
        {
          "name": "weiAmount",
          "type": "uint256"
        },
        {
          "name": "jobMetadataHash",
          "type": "bytes"
        },
        {
          "name": "transactionBytecode",
          "type": "bytes"
        }
      ],
      "name": "newProposal",
      "outputs": [
        {
          "name": "proposalID",
          "type": "uint256"
        }
      ],
      "payable": false,
      "stateMutability": "nonpayable",
      "type": "function"
    },
    {
      "constant": true,
      "inputs": [
        {
          "name": "proposalNumber",
          "type": "uint256"
        },
        {
          "name": "beneficiary",
          "type": "address"
        },
        {
          "name": "weiAmount",
          "type": "uint256"
        },
        {
          "name": "transactionBytecode",
          "type": "bytes"
        }
      ],
      "name": "checkProposalCode",
      "outputs": [
        {
          "name": "codeChecksOut",
          "type": "bool"
        }
      ],
      "payable": false,
      "stateMutability": "view",
      "type": "function"
    },
    {
      "constant": true,
      "inputs": [],
      "name": "totalLockedTokens",
      "outputs": [
        {
          "name": "",
          "type": "uint256"
        }
      ],
      "payable": false,
      "stateMutability": "view",
      "type": "function"
    },
    {
      "inputs": [
        {
          "name": "sharesAddress",
          "type": "address"
        },
        {
          "name": "minimumSharesToPassAVote",
          "type": "uint256"
        },
        {
          "name": "minutesForDebate",
          "type": "uint256"
        }
      ],
      "payable": false,
      "stateMutability": "nonpayable",
      "type": "constructor"
    },
    {
      "payable": true,
      "stateMutability": "payable",
      "type": "fallback"
    },
    {
      "anonymous": false,
      "inputs": [
        {
          "indexed": false,
          "name": "proposalID",
          "type": "uint256"
        },
        {
          "indexed": false,
          "name": "recipient",
          "type": "address"
        },
        {
          "indexed": false,
          "name": "amount",
          "type": "uint256"
        },
        {
          "indexed": false,
          "name": "metadataHash",
          "type": "bytes"
        }
      ],
      "name": "ProposalAdded",
      "type": "event"
    },
    {
      "anonymous": false,
      "inputs": [
        {
          "indexed": false,
          "name": "proposalID",
          "type": "uint256"
        },
        {
          "indexed": false,
          "name": "position",
          "type": "bool"
        },
        {
          "indexed": false,
          "name": "voter",
          "type": "address"
        }
      ],
      "name": "Voted",
      "type": "event"
    },
    {
      "anonymous": false,
      "inputs": [
        {
          "indexed": false,
          "name": "proposalID",
          "type": "uint256"
        },
        {
          "indexed": false,
          "name": "result",
          "type": "uint256"
        },
        {
          "indexed": false,
          "name": "quorum",
          "type": "uint256"
        },
        {
          "indexed": false,
          "name": "active",
          "type": "bool"
        }
      ],
      "name": "ProposalTallied",
      "type": "event"
    },
    {
      "anonymous": false,
      "inputs": [
        {
          "indexed": false,
          "name": "newMinimumQuorum",
          "type": "uint256"
        },
        {
          "indexed": false,
          "name": "newDebatingPeriodInMinutes",
          "type": "uint256"
        },
        {
          "indexed": false,
          "name": "newSharesTokenAddress",
          "type": "address"
        }
      ],
      "name": "ChangeOfRules",
      "type": "event"
    },
    {
      "anonymous": false,
      "inputs": [
        {
          "indexed": true,
          "name": "delegator",
          "type": "address"
        },
        {
          "indexed": false,
          "name": "numberOfTokens",
          "type": "uint256"
        },
        {
          "indexed": true,
          "name": "delegate",
          "type": "address"
        }
      ],
      "name": "TokensDelegated",
      "type": "event"
    },
    {
      "anonymous": false,
      "inputs": [
        {
          "indexed": true,
          "name": "delegator",
          "type": "address"
        },
        {
          "indexed": false,
          "name": "numberOfTokens",
          "type": "uint256"
        },
        {
          "indexed": true,
          "name": "delegate",
          "type": "address"
        }
      ],
      "name": "TokensUndelegated",
      "type": "event"
    },
    {
      "anonymous": false,
      "inputs": [
        {
          "indexed": false,
          "name": "sender",
          "type": "address"
        },
        {
          "indexed": false,
          "name": "amount",
          "type": "uint256"
        }
      ],
      "name": "ReceivedEther",
      "type": "event"
    },
    {
      "anonymous": false,
      "inputs": [
        {
          "indexed": false,
          "name": "_from",
          "type": "address"
        },
        {
          "indexed": false,
          "name": "_value",
          "type": "uint256"
        },
        {
          "indexed": false,
          "name": "_token",
          "type": "address"
        },
        {
          "indexed": false,
          "name": "_extraData",
          "type": "bytes"
        }
      ],
      "name": "ReceivedTokens",
      "type": "event"
    }
  ],
  "bytecode": "0x6060604052341561000f57600080fd5b604051606080611a2d83398101604052808051919060200180519190602001805160048054600160a060020a03909616600160a060020a0319909616959095179094555050686c6b935b8bbd4000006009556000556001556119b7806100766000396000f3006060604052600436106101275763ffffffff7c0100000000000000000000000000000000000000000000000000000000600035041663013cf08b811461016d578063064cc7a71461024d57806306fdde031461028857806306fde1691461031257806313f47f2414610337578063158059e214610356578063237e94921461037157806327ebcf0e146103c75780632decd4c7146103da5780633fb3ec2814610481578063400e3949146104a05780635b7f415c146104b35780635fa7df6b146104c6578063645bd436146104e857806369bd3436146104fb5780638160f0b51461050e5780638f4ffcb114610521578063b94fa03f1461058d578063c9d27afe146105a0578063dbc45228146105bb578063eceb294514610662578063f5c476f9146106de575b7fa419615bc8fda4c87663805ee2a3597a6d71c1d476911d9892f340d965bc7bf13334604051600160a060020a03909216825260208201526040908101905180910390a1005b341561017857600080fd5b6101836004356106f1565b604051600160a060020a03891681526020810188905260608101869052841515608082015283151560a082015260c0810183905260e08101829052610100604082018181528854600260018216158402600019019091160491830182905290610120830190899080156102375780601f1061020c57610100808354040283529160200191610237565b820191906000526020600020905b81548152906001019060200180831161021a57829003601f168201915b5050995050505050505050505060405180910390f35b341561025857600080fd5b61026c600160a060020a0360043516610750565b604051600160a060020a03909116815260200160405180910390f35b341561029357600080fd5b61029b61076b565b60405160208082528190810183818151815260200191508051906020019080838360005b838110156102d75780820151838201526020016102bf565b50505050905090810190601f1680156103045780820380516001836020036101000a031916815260200191505b509250505060405180910390f35b341561031d57600080fd5b6103256107a2565b60405190815260200160405180910390f35b341561034257600080fd5b610325600160a060020a03600435166107af565b341561036157600080fd5b61036f6004356024356107c1565b005b341561037c57600080fd5b61036f600480359060446024803590810190830135806020601f8201819004810201604051908101604052818152929190602084018383808284375094965061085995505050505050565b34156103d257600080fd5b61026c610c40565b34156103e557600080fd5b61032560048035600160a060020a03169060248035919060649060443590810190830135806020601f8201819004810201604051908101604052818152929190602084018383808284378201915050505050509190803590602001908201803590602001908080601f016020809104026020016040519081016040528181529291906020840183838082843750949650610c4f95505050505050565b341561048c57600080fd5b610325600160a060020a0360043516610d0e565b34156104ab57600080fd5b610325610d20565b34156104be57600080fd5b610325610d26565b34156104d157600080fd5b61036f600435600160a060020a0360243516610d2b565b34156104f357600080fd5b610325610f31565b341561050657600080fd5b6103256110b0565b341561051957600080fd5b6103256110b6565b341561052c57600080fd5b61036f60048035600160a060020a0390811691602480359260443516919060849060643590810190830135806020601f820181900481020160405190810160405281815292919060208401838380828437509496506110bc95505050505050565b341561059857600080fd5b610325611229565b34156105ab57600080fd5b610325600435602435151561122f565b34156105c657600080fd5b61032560048035600160a060020a03169060248035919060649060443590810190830135806020601f8201819004810201604051908101604052818152929190602084018383808284378201915050505050509190803590602001908201803590602001908080601f01602080910402602001604051908101604052818152929190602084018383808284375094965061143695505050505050565b341561066d57600080fd5b6106ca600480359060248035600160a060020a0316916044359160849060643590810190830135806020601f820181900481020160405190810160405281815292919060208401838380828437509496506116c595505050505050565b604051901515815260200160405180910390f35b34156106e957600080fd5b61032561177e565b60028054829081106106ff57fe5b60009182526020909120600990910201805460018201546003830154600484015460058501546006860154600160a060020a039095169650929460020193919260ff80831693610100909304169188565b600560205260009081526040902054600160a060020a031681565b60408051908101604052600881527f546573742044414f000000000000000000000000000000000000000000000000602082015281565b686c6b935b8bbd40000081565b60066020526000908152604090205481565b30600160a060020a031633600160a060020a03161415156107e157600080fd5b8115156107ed57600191505b600082905560018190556004547f68259880819f96f54b67d672fefc666565de06099c91b57a689a42073ba090c99083908390600160a060020a03166040519283526020830191909152600160a060020a03166040808301919091526060909101905180910390a15050565b600080600080600080600060028981548110151561087357fe5b9060005260206000209060090201965086600301544211801561089b5750600487015460ff16155b8015610940575086546001880154600160a060020a0390911690896040516c01000000000000000000000000600160a060020a038516028152601481018390526034810182805190602001908083835b6020831061090a5780518252601f1990920191602091820191016108eb565b6001836020036101000a038019825116818451161790925250505091909101945060409350505050519081900390206006880154145b151561094b57600080fd5b600095506000945060009350600092505b6007870154831015610a5a576007870180548490811061097857fe5b600091825260208083209091018054600160a060020a03610100909104811680855260079093526040808520546004549397509492909116926370a0823192909151602001526040517c010000000000000000000000000000000000000000000000000000000063ffffffff8416028152600160a060020a039091166004820152602401602060405180830381600087803b1515610a1557600080fd5b6102c65a03f11515610a2657600080fd5b5050506040518051845492019788019792505060ff1615610a4a5793840193610a4f565b928301925b82600101925061095c565b600054861015610a6957600080fd5b83851115610bc45760048701805460ff19166001908117909155875490880154600160a060020a03909116908960405180828051906020019080838360005b83811015610ac0578082015183820152602001610aa8565b50505050905090810190601f168015610aed5780820380516001836020036101000a031916815260200191505b5091505060006040518083038185876187965a03f1925050501515610b1157600080fd5b600854600454600160a060020a03166370a08231306000604051602001526040517c010000000000000000000000000000000000000000000000000000000063ffffffff8416028152600160a060020a039091166004820152602401602060405180830381600087803b1515610b8657600080fd5b6102c65a03f11515610b9757600080fd5b5050506040518051905010151515610bae57600080fd5b60048701805461ff001916610100179055610bd2565b60048701805461ff00191690555b7f4bdc4ffee1d0e901f1c0270e9917651a82a81a109b5736b546a1b26668c55c0e89858703888a60040160019054906101000a900460ff16604051938452602084019290925260408084019190915290151560608301526080909101905180910390a1505050505050505050565b600454600160a060020a031681565b60095460045460009190600160a060020a03166370a082313384604051602001526040517c010000000000000000000000000000000000000000000000000000000063ffffffff8416028152600160a060020a039091166004820152602401602060405180830381600087803b1515610cc757600080fd5b6102c65a03f11515610cd857600080fd5b5050506040518051905010151515610cef57600080fd5b610d058585670de0b6b3a7640000028585611436565b95945050505050565b60076020526000908152604090205481565b60035481565b601281565b600454600090600160a060020a03166370a082313383604051602001526040517c010000000000000000000000000000000000000000000000000000000063ffffffff8416028152600160a060020a039091166004820152602401602060405180830381600087803b1515610d9f57600080fd5b6102c65a03f11515610db057600080fd5b50505060405180519050111515610dc657600080fd5b600160a060020a033381166000908152600560205260409020541615610deb57600080fd5b600454600160a060020a03166323b872dd3330856000604051602001526040517c010000000000000000000000000000000000000000000000000000000063ffffffff8616028152600160a060020a0393841660048201529190921660248201526044810191909152606401602060405180830381600087803b1515610e7057600080fd5b6102c65a03f11515610e8157600080fd5b505050604051805190501515610e9657600080fd5b600160a060020a033381166000818152600660209081526040808320879055938516808352600782528483208054880190556008805488019055838352600590915290839020805473ffffffffffffffffffffffffffffffffffffffff191682179055917f57593c23286b632d1ba413b24ecae252f34f6b81fdff1022dc7ac0d78cde56b79085905190815260200160405180910390a35050565b600160a060020a0333811660009081526005602052604081205490918291161515610f5b57600080fd5b5050600160a060020a03338181166000818152600560208181526040808420805460068452828620805490879055908916808752600785528387208054839003905560088054839003905596865293909252815473ffffffffffffffffffffffffffffffffffffffff191690915560045491959394919093169263a9059cbb92869151602001526040517c010000000000000000000000000000000000000000000000000000000063ffffffff8516028152600160a060020a0390921660048301526024820152604401602060405180830381600087803b151561103e57600080fd5b6102c65a03f1151561104f57600080fd5b50505060405180519050151561106457600080fd5b80600160a060020a031633600160a060020a03167fccc924ef18d5fcabbf624302b6a02f9014c9b3371994eacc0cec2c107f2503e48460405190815260200160405180910390a35b5090565b60015481565b60005481565b81600160a060020a0381166323b872dd8630876000604051602001526040517c010000000000000000000000000000000000000000000000000000000063ffffffff8616028152600160a060020a0393841660048201529190921660248201526044810191909152606401602060405180830381600087803b151561114057600080fd5b6102c65a03f1151561115157600080fd5b50505060405180519050151561116657600080fd5b7fd65b48fd35864b3528d38e44760be5553248f89bf3ff6b06cca57817cc2650bf85858585604051600160a060020a038086168252602082018590528316604082015260806060820181815290820183818151815260200191508051906020019080838360005b838110156111e55780820151838201526020016111cd565b50505050905090810190601f1680156112125780820380516001836020036101000a031916815260200191505b509550505050505060405180910390a15050505050565b60095481565b60045460009081908190600160a060020a03166370a082313383604051602001526040517c010000000000000000000000000000000000000000000000000000000063ffffffff8416028152600160a060020a039091166004820152602401602060405180830381600087803b15156112a757600080fd5b6102c65a03f115156112b857600080fd5b505050604051805190501115156112ce57600080fd5b60028054859081106112dc57fe5b60009182526020808320600160a060020a03331684526008600990930201918201905260409091205490915060ff1615156001141561131a57600080fd5b6007810180549061132e9060018301611784565b9150604080519081016040528315158152600160a060020a03331660208201526007820180548490811061135e57fe5b60009182526020909120018151815460ff1916901515178155602082015181547fffffffffffffffffffffff0000000000000000000000000000000000000000ff16610100600160a060020a03928316021790915533908116600090815260088401602052604090819020805460ff19166001908117909155850160058501557f86abfce99b7dd908bec0169288797f85049ec73cbe046ed9de818fab3a497ae0925086918691519283529015156020830152600160a060020a03166040808301919091526060909101905180910390a15092915050565b6009546004546000918291600160a060020a03166370a082313384604051602001526040517c010000000000000000000000000000000000000000000000000000000063ffffffff8416028152600160a060020a039091166004820152602401602060405180830381600087803b15156114af57600080fd5b6102c65a03f115156114c057600080fd5b50505060405180519050101515156114d757600080fd5b60028054906114e990600183016117ad565b91506002828154811015156114fa57fe5b60009182526020909120600990910201805473ffffffffffffffffffffffffffffffffffffffff1916600160a060020a0388161781556001810186905590506002810184805161154e9291602001906117d9565b508585846040516c01000000000000000000000000600160a060020a038516028152601481018390526034810182805190602001908083835b602083106115a65780518252601f199092019160209182019101611587565b6001836020036101000a038019825116818451161790925250505091909101945060409350505050519081900390206006820155600154603c024201600382015560048101805461ffff19169055600060058201557f06d6b095e85f5218421975622a7aee84a98b32aa7d174b90088357014003b43382878787604051848152600160a060020a03841660208201526040810183905260806060820181815290820183818151815260200191508051906020019080838360005b83811015611678578082015183820152602001611660565b50505050905090810190601f1680156116a55780820380516001836020036101000a031916815260200191505b509550505050505060405180910390a16001820160035550949350505050565b6000806002868154811015156116d757fe5b906000526020600020906009020190508484846040516c01000000000000000000000000600160a060020a038516028152601481018390526034810182805190602001908083835b6020831061173e5780518252601f19909201916020918201910161171f565b6001836020036101000a03801982511681845116179092525050509190910194506040935050505051908190039020600682015414915050949350505050565b60085481565b8154818355818115116117a8576000838152602090206117a8918101908301611853565b505050565b8154818355818115116117a8576009028160090283600052602060002091820191016117a89190611892565b828054600181600116156101000203166002900490600052602060002090601f016020900481019282601f1061181a57805160ff1916838001178555611847565b82800160010185558215611847579182015b8281111561184757825182559160200191906001019061182c565b506110ac92915061190c565b61188f91905b808211156110ac5780547fffffffffffffffffffffff000000000000000000000000000000000000000000168155600101611859565b90565b61188f91905b808211156110ac57805473ffffffffffffffffffffffffffffffffffffffff191681556000600182018190556118d16002830182611926565b60006003830181905560048301805461ffff19169055600583018190556006830181905561190390600784019061196d565b50600901611898565b61188f91905b808211156110ac5760008155600101611912565b50805460018160011615610100020316600290046000825580601f1061194c575061196a565b601f01602090049060005260206000209081019061196a919061190c565b50565b508054600082559060005260206000209081019061196a91906118535600a165627a7a72305820d4d5778829100264a71351034d779cd2281d39e17195240f15982132cafc86e30029",
  "source": "/*\n\n  << Test DAO (since we need a token that we can send around in tests) >>\n\n*/\n\npragma solidity ^0.4.18;\n\nimport \"./dao/DelegatedShareholderAssociation.sol\";\n\n/**\n * @title TestDAO\n * @author Project Wyvern Developers\n *\n *\n */\ncontract TestDAO is DelegatedShareholderAssociation {\n\n    string public constant name = \"Test DAO\";\n\n    uint public constant TOKEN_DECIMALS                     = 18;\n    uint public constant REQUIRED_SHARES_TO_BE_BOARD_MEMBER = 2000 * (10 ** 18); // set to ~ 0.1% of supply\n\n    function TestDAO (ERC20 sharesAddress, uint minimumSharesToPassAVote, uint minutesForDebate) public {\n        sharesTokenAddress = sharesAddress;\n        requiredSharesToBeBoardMember = REQUIRED_SHARES_TO_BE_BOARD_MEMBER;\n        minimumQuorum = minimumSharesToPassAVote;\n        debatingPeriodInMinutes = minutesForDebate;\n    }\n\n}\n",
  "sourcePath": "/home/cwgoes/working/crypto/wyvern/wyvern-ethereum/contracts/TestDAO.sol",
  "compiler": {
    "name": "solc",
    "version": "0.4.18+commit.9cf6e910.Emscripten.clang"
  },
  "schemaVersion": "1.0.1",
  "updatedAt": "2017-12-11T01:13:56.277Z"
}