{
  "contractName": "TestStatic",
  "abi": [
    {
      "constant": true,
      "inputs": [],
      "name": "alwaysFail",
      "outputs": [],
      "payable": false,
      "stateMutability": "pure",
      "type": "function"
    },
    {
      "constant": true,
      "inputs": [],
      "name": "alwaysSucceed",
      "outputs": [],
      "payable": false,
      "stateMutability": "pure",
      "type": "function"
    },
    {
      "constant": true,
      "inputs": [
        {
          "name": "calldata",
          "type": "bytes"
        }
      ],
      "name": "requireMinimumLength",
      "outputs": [],
      "payable": false,
      "stateMutability": "pure",
      "type": "function"
    },
    {
      "inputs": [],
      "payable": false,
      "stateMutability": "nonpayable",
      "type": "constructor"
    }
  ],
  "bytecode": "0x6060604052341561000f57600080fd5b6101098061001e6000396000f30060606040526004361060525763ffffffff7c01000000000000000000000000000000000000000000000000000000006000350416631a35285181146057578063872793791460695780639e0199d8146079575b600080fd5b3415606157600080fd5b60676052565b005b3415607357600080fd5b606760c9565b3415608357600080fd5b606760046024813581810190830135806020601f8201819004810201604051908101604052818152929190602084018383808284375094965060cd95505050505050565b565b60c7565b600281511160da57600080fd5b505600a165627a7a723058207070346b23a83585baf9b3526951d61a40e740013515ef55586277b89c8916230029",
  "source": "/*\n\n  << Test Static Calls >>\n\n*/\n\npragma solidity 0.4.18;\n\n/**\n  * @title TestStatic\n  * @author Project Wyvern Developers\n  */\ncontract TestStatic {\n\n    /**\n      * @dev Initialize contract\n      */\n    function TestStatic () public {\n    }\n\n    function alwaysSucceed()\n        public\n        pure\n    {\n        require(true);\n    }\n\n    function alwaysFail()\n        public\n        pure\n    {\n        require(false);\n    }\n\n    function requireMinimumLength(bytes calldata)\n        public\n        pure\n    {\n        require(calldata.length > 2);\n    }\n\n}\n",
  "sourcePath": "/home/cwgoes/working/crypto/wyvern/wyvern-ethereum/contracts/TestStatic.sol",
  "compiler": {
    "name": "solc",
    "version": "0.4.18+commit.9cf6e910.Emscripten.clang"
  },
  "schemaVersion": "1.0.1",
  "updatedAt": "2018-03-06T22:48:07.113Z"
}