{
  "contractName": "TestDAO",
  "abi": [
    {
      "constant": true,
      "inputs": [
        {
          "name": "",
          "type": "uint256"
        }
      ],
      "name": "proposals",
      "outputs": [
        {
          "name": "recipient",
          "type": "address"
        },
        {
          "name": "amount",
          "type": "uint256"
        },
        {
          "name": "metadataHash",
          "type": "bytes"
        },
        {
          "name": "timeCreated",
          "type": "uint256"
        },
        {
          "name": "votingDeadline",
          "type": "uint256"
        },
        {
          "name": "finalized",
          "type": "bool"
        },
        {
          "name": "proposalPassed",
          "type": "bool"
        },
        {
          "name": "numberOfVotes",
          "type": "uint256"
        },
        {
          "name": "proposalHash",
          "type": "bytes32"
        }
      ],
      "payable": false,
      "stateMutability": "view",
      "type": "function"
    },
    {
      "constant": true,
      "inputs": [
        {
          "name": "",
          "type": "address"
        }
      ],
      "name": "delegatesByDelegator",
      "outputs": [
        {
          "name": "",
          "type": "address"
        }
      ],
      "payable": false,
      "stateMutability": "view",
      "type": "function"
    },
    {
      "constant": true,
      "inputs": [],
      "name": "name",
      "outputs": [
        {
          "name": "",
          "type": "string"
        }
      ],
      "payable": false,
      "stateMutability": "view",
      "type": "function"
    },
    {
      "constant": true,
      "inputs": [],
      "name": "REQUIRED_SHARES_TO_BE_BOARD_MEMBER",
      "outputs": [
        {
          "name": "",
          "type": "uint256"
        }
      ],
      "payable": false,
      "stateMutability": "view",
      "type": "function"
    },
    {
      "constant": true,
      "inputs": [
        {
          "name": "",
          "type": "address"
        }
      ],
      "name": "lockedDelegatingTokens",
      "outputs": [
        {
          "name": "",
          "type": "uint256"
        }
      ],
      "payable": false,
      "stateMutability": "view",
      "type": "function"
    },
    {
      "constant": true,
      "inputs": [
        {
          "name": "proposalNumber",
          "type": "uint256"
        }
      ],
      "name": "countVotes",
      "outputs": [
        {
          "name": "yea",
          "type": "uint256"
        },
        {
          "name": "nay",
          "type": "uint256"
        },
        {
          "name": "quorum",
          "type": "uint256"
        }
      ],
      "payable": false,
      "stateMutability": "view",
      "type": "function"
    },
    {
      "constant": false,
      "inputs": [
        {
          "name": "proposalNumber",
          "type": "uint256"
        },
        {
          "name": "transactionBytecode",
          "type": "bytes"
        }
      ],
      "name": "executeProposal",
      "outputs": [],
      "payable": false,
      "stateMutability": "nonpayable",
      "type": "function"
    },
    {
      "constant": true,
      "inputs": [],
      "name": "sharesTokenAddress",
      "outputs": [
        {
          "name": "",
          "type": "address"
        }
      ],
      "payable": false,
      "stateMutability": "view",
      "type": "function"
    },
    {
      "constant": true,
      "inputs": [
        {
          "name": "",
          "type": "address"
        }
      ],
      "name": "delegatedAmountsByDelegate",
      "outputs": [
        {
          "name": "",
          "type": "uint256"
        }
      ],
      "payable": false,
      "stateMutability": "view",
      "type": "function"
    },
    {
      "constant": true,
      "inputs": [],
      "name": "numProposals",
      "outputs": [
        {
          "name": "",
          "type": "uint256"
        }
      ],
      "payable": false,
      "stateMutability": "view",
      "type": "function"
    },
    {
      "constant": true,
      "inputs": [
        {
          "name": "proposalNumber",
          "type": "uint256"
        },
        {
          "name": "shareholder",
          "type": "address"
        }
      ],
      "name": "hasVoted",
      "outputs": [
        {
          "name": "",
          "type": "bool"
        }
      ],
      "payable": false,
      "stateMutability": "view",
      "type": "function"
    },
    {
      "constant": true,
      "inputs": [],
      "name": "TOKEN_DECIMALS",
      "outputs": [
        {
          "name": "",
          "type": "uint256"
        }
      ],
      "payable": false,
      "stateMutability": "view",
      "type": "function"
    },
    {
      "constant": false,
      "inputs": [
        {
          "name": "tokensToLock",
          "type": "uint256"
        },
        {
          "name": "delegate",
          "type": "address"
        }
      ],
      "name": "setDelegateAndLockTokens",
      "outputs": [],
      "payable": false,
      "stateMutability": "nonpayable",
      "type": "function"
    },
    {
      "constant": false,
      "inputs": [],
      "name": "clearDelegateAndUnlockTokens",
      "outputs": [
        {
          "name": "lockedTokens",
          "type": "uint256"
        }
      ],
      "payable": false,
      "stateMutability": "nonpayable",
      "type": "function"
    },
    {
      "constant": true,
      "inputs": [],
      "name": "debatingPeriodInMinutes",
      "outputs": [
        {
          "name": "",
          "type": "uint256"
        }
      ],
      "payable": false,
      "stateMutability": "view",
      "type": "function"
    },
    {
      "constant": false,
      "inputs": [
        {
          "name": "minimumSharesToPassAVote",
          "type": "uint256"
        },
        {
          "name": "minutesForDebate",
          "type": "uint256"
        },
        {
          "name": "sharesToBeBoardMember",
          "type": "uint256"
        }
      ],
      "name": "changeVotingRules",
      "outputs": [],
      "payable": false,
      "stateMutability": "nonpayable",
      "type": "function"
    },
    {
      "constant": true,
      "inputs": [],
      "name": "minimumQuorum",
      "outputs": [
        {
          "name": "",
          "type": "uint256"
        }
      ],
      "payable": false,
      "stateMutability": "view",
      "type": "function"
    },
    {
      "constant": false,
      "inputs": [
        {
          "name": "from",
          "type": "address"
        },
        {
          "name": "value",
          "type": "uint256"
        },
        {
          "name": "token",
          "type": "address"
        },
        {
          "name": "extraData",
          "type": "bytes"
        }
      ],
      "name": "receiveApproval",
      "outputs": [],
      "payable": false,
      "stateMutability": "nonpayable",
      "type": "function"
    },
    {
      "constant": true,
      "inputs": [],
      "name": "requiredSharesToBeBoardMember",
      "outputs": [
        {
          "name": "",
          "type": "uint256"
        }
      ],
      "payable": false,
      "stateMutability": "view",
      "type": "function"
    },
    {
      "constant": false,
      "inputs": [
        {
          "name": "proposalNumber",
          "type": "uint256"
        },
        {
          "name": "supportsProposal",
          "type": "bool"
        }
      ],
      "name": "vote",
      "outputs": [
        {
          "name": "voteID",
          "type": "uint256"
        }
      ],
      "payable": false,
      "stateMutability": "nonpayable",
      "type": "function"
    },
    {
      "constant": false,
      "inputs": [
        {
          "name": "beneficiary",
          "type": "address"
        },
        {
          "name": "weiAmount",
          "type": "uint256"
        },
        {
          "name": "jobMetadataHash",
          "type": "bytes"
        },
        {
          "name": "transactionBytecode",
          "type": "bytes"
        }
      ],
      "name": "newProposal",
      "outputs": [
        {
          "name": "proposalID",
          "type": "uint256"
        }
      ],
      "payable": false,
      "stateMutability": "nonpayable",
      "type": "function"
    },
    {
      "constant": true,
      "inputs": [
        {
          "name": "proposalNumber",
          "type": "uint256"
        },
        {
          "name": "beneficiary",
          "type": "address"
        },
        {
          "name": "weiAmount",
          "type": "uint256"
        },
        {
          "name": "transactionBytecode",
          "type": "bytes"
        }
      ],
      "name": "checkProposalCode",
      "outputs": [
        {
          "name": "codeChecksOut",
          "type": "bool"
        }
      ],
      "payable": false,
      "stateMutability": "view",
      "type": "function"
    },
    {
      "constant": true,
      "inputs": [],
      "name": "totalLockedTokens",
      "outputs": [
        {
          "name": "",
          "type": "uint256"
        }
      ],
      "payable": false,
      "stateMutability": "view",
      "type": "function"
    },
    {
      "inputs": [
        {
          "name": "sharesAddress",
          "type": "address"
        }
      ],
      "payable": false,
      "stateMutability": "nonpayable",
      "type": "constructor"
    },
    {
      "payable": true,
      "stateMutability": "payable",
      "type": "fallback"
    },
    {
      "anonymous": false,
      "inputs": [
        {
          "indexed": false,
          "name": "proposalID",
          "type": "uint256"
        },
        {
          "indexed": false,
          "name": "recipient",
          "type": "address"
        },
        {
          "indexed": false,
          "name": "amount",
          "type": "uint256"
        },
        {
          "indexed": false,
          "name": "metadataHash",
          "type": "bytes"
        }
      ],
      "name": "ProposalAdded",
      "type": "event"
    },
    {
      "anonymous": false,
      "inputs": [
        {
          "indexed": false,
          "name": "proposalID",
          "type": "uint256"
        },
        {
          "indexed": false,
          "name": "position",
          "type": "bool"
        },
        {
          "indexed": false,
          "name": "voter",
          "type": "address"
        }
      ],
      "name": "Voted",
      "type": "event"
    },
    {
      "anonymous": false,
      "inputs": [
        {
          "indexed": false,
          "name": "proposalID",
          "type": "uint256"
        },
        {
          "indexed": false,
          "name": "yea",
          "type": "uint256"
        },
        {
          "indexed": false,
          "name": "nay",
          "type": "uint256"
        },
        {
          "indexed": false,
          "name": "quorum",
          "type": "uint256"
        },
        {
          "indexed": false,
          "name": "active",
          "type": "bool"
        }
      ],
      "name": "ProposalTallied",
      "type": "event"
    },
    {
      "anonymous": false,
      "inputs": [
        {
          "indexed": false,
          "name": "newMinimumQuorum",
          "type": "uint256"
        },
        {
          "indexed": false,
          "name": "newDebatingPeriodInMinutes",
          "type": "uint256"
        },
        {
          "indexed": false,
          "name": "newSharesTokenAddress",
          "type": "address"
        }
      ],
      "name": "ChangeOfRules",
      "type": "event"
    },
    {
      "anonymous": false,
      "inputs": [
        {
          "indexed": true,
          "name": "delegator",
          "type": "address"
        },
        {
          "indexed": false,
          "name": "numberOfTokens",
          "type": "uint256"
        },
        {
          "indexed": true,
          "name": "delegate",
          "type": "address"
        }
      ],
      "name": "TokensDelegated",
      "type": "event"
    },
    {
      "anonymous": false,
      "inputs": [
        {
          "indexed": true,
          "name": "delegator",
          "type": "address"
        },
        {
          "indexed": false,
          "name": "numberOfTokens",
          "type": "uint256"
        },
        {
          "indexed": true,
          "name": "delegate",
          "type": "address"
        }
      ],
      "name": "TokensUndelegated",
      "type": "event"
    },
    {
      "anonymous": false,
      "inputs": [
        {
          "indexed": true,
          "name": "sender",
          "type": "address"
        },
        {
          "indexed": false,
          "name": "amount",
          "type": "uint256"
        }
      ],
      "name": "ReceivedEther",
      "type": "event"
    },
    {
      "anonymous": false,
      "inputs": [
        {
          "indexed": true,
          "name": "from",
          "type": "address"
        },
        {
          "indexed": false,
          "name": "value",
          "type": "uint256"
        },
        {
          "indexed": true,
          "name": "token",
          "type": "address"
        },
        {
          "indexed": false,
          "name": "extraData",
          "type": "bytes"
        }
      ],
      "name": "ReceivedTokens",
      "type": "event"
    }
  ],
  "bytecode": "0x6060604052341561000f57600080fd5b6040516020806118e98339810160405280805160048054600160a060020a03909216600160a060020a03199092169190911790555050686c6b935b8bbd400000600955683635c9adc5dea000006000908155600155611876806100736000396000f3006060604052600436106101195763ffffffff60e060020a600035041663013cf08b8114610158578063064cc7a71461024357806306fdde031461027e57806306fde1691461030857806313f47f241461032d5780631840f0ca1461034c578063237e94921461038657806327ebcf0e146103de5780633fb3ec28146103f1578063400e39491461041057806343859632146104235780635b7f415c146104595780635fa7df6b1461046c578063645bd4361461048e57806369bd3436146104a15780636e676b69146104b45780638160f0b5146104d05780638f4ffcb1146104e3578063b94fa03f1461054f578063c9d27afe14610562578063dbc452281461057d578063eceb294514610624578063f5c476f91461068c575b33600160a060020a03167fa419615bc8fda4c87663805ee2a3597a6d71c1d476911d9892f340d965bc7bf13460405190815260200160405180910390a2005b341561016357600080fd5b61016e60043561069f565b604051600160a060020a038a16815260208101899052606081018790526080810186905284151560a082015283151560c082015260e08101839052610100808201839052610120604083018181528a54600260018216159094026000190116929092049083018190526101408301908a90801561022c5780601f106102015761010080835404028352916020019161022c565b820191906000526020600020905b81548152906001019060200180831161020f57829003601f168201915b50509a505050505050505050505060405180910390f35b341561024e57600080fd5b610262600160a060020a0360043516610706565b604051600160a060020a03909116815260200160405180910390f35b341561028957600080fd5b610291610721565b60405160208082528190810183818151815260200191508051906020019080838360005b838110156102cd5780820151838201526020016102b5565b50505050905090810190601f1680156102fa5780820380516001836020036101000a031916815260200191505b509250505060405180910390f35b341561031357600080fd5b61031b610758565b60405190815260200160405180910390f35b341561033857600080fd5b61031b600160a060020a0360043516610765565b341561035757600080fd5b610362600435610777565b60405180848152602001838152602001828152602001935050505060405180910390f35b341561039157600080fd5b6103dc600480359060446024803590810190830135806020601f820181900481020160405190810160405281815292919060208401838380828437509496506108a295505050505050565b005b34156103e957600080fd5b610262610b6d565b34156103fc57600080fd5b61031b600160a060020a0360043516610b7c565b341561041b57600080fd5b61031b610b8e565b341561042e57600080fd5b610445600435600160a060020a0360243516610b94565b604051901515815260200160405180910390f35b341561046457600080fd5b61031b610bdc565b341561047757600080fd5b6103dc600435600160a060020a0360243516610be1565b341561049957600080fd5b61031b610dc4565b34156104ac57600080fd5b61031b610f2a565b34156104bf57600080fd5b6103dc600435602435604435610f30565b34156104db57600080fd5b61031b610fce565b34156104ee57600080fd5b6103dc60048035600160a060020a0390811691602480359260443516919060849060643590810190830135806020601f82018190048102016040519081016040528181529291906020840183838082843750949650610fd495505050505050565b341561055a57600080fd5b61031b611120565b341561056d57600080fd5b61031b6004356024351515611126565b341561058857600080fd5b61031b60048035600160a060020a03169060248035919060649060443590810190830135806020601f8201819004810201604051908101604052818152929190602084018383808284378201915050505050509190803590602001908201803590602001908080601f01602080910402602001604051908101604052818152929190602084018383808284375094965061130a95505050505050565b341561062f57600080fd5b610445600480359060248035600160a060020a0316916044359160849060643590810190830135806020601f8201819004810201604051908101604052818152929190602084018383808284375094965061158795505050505050565b341561069757600080fd5b61031b611640565b60028054829081106106ad57fe5b60009182526020909120600a909102018054600182015460038301546004840154600585015460068601546007870154600160a060020a0390961697509395600201949293919260ff8083169361010090930416919089565b600560205260009081526040902054600160a060020a031681565b60408051908101604052600881527f546573742044414f000000000000000000000000000000000000000000000000602082015281565b686c6b935b8bbd40000081565b60066020526000908152604090205481565b600080600080600080600060028881548110151561079157fe5b90600052602060002090600a02019350600096506000955060009450600092505b600884015483101561089757600884018054849081106107ce57fe5b600091825260208083209091018054600160a060020a03610100909104811680855260079093526040808520546004549397509492909116926370a08231929091516020015260405160e060020a63ffffffff8416028152600160a060020a039091166004820152602401602060405180830381600087803b151561085257600080fd5b6102c65a03f1151561086357600080fd5b5050506040518051845492019687019692505060ff1615610887579586019561088c565b948501945b8260010192506107b2565b505050509193909250565b6000806000806002868154811015156108b757fe5b90600052602060002090600a02019350836004015442101580156108e05750600584015460ff16155b8015610985575083546001850154600160a060020a0390911690866040516c01000000000000000000000000600160a060020a038516028152601481018390526034810182805190602001908083835b6020831061094f5780518252601f199092019160209182019101610930565b6001836020036101000a038019825116818451161790925250505091909101945060409350505050519081900390206007850154145b151561099057600080fd5b61099986610777565b92509250925060005481101515156109b057600080fd5b60058401805460ff1916600117905581831115610af05760058401805461ff00191661010017905583546001850154600160a060020a03909116908660405180828051906020019080838360005b83811015610a165780820151838201526020016109fe565b50505050905090810190601f168015610a435780820380516001836020036101000a031916815260200191505b5091505060006040518083038185876187965a03f1925050501515610a6757600080fd5b600854600454600160a060020a03166370a082313060006040516020015260405160e060020a63ffffffff8416028152600160a060020a039091166004820152602401602060405180830381600087803b1515610ac357600080fd5b6102c65a03f11515610ad457600080fd5b5050506040518051905010151515610aeb57600080fd5b610afe565b60058401805461ff00191690555b7f748f0810c68633063bb13f3c71e10cd1889925b3721d6e567114d0632574a396868484848860050160019054906101000a900460ff1660405194855260208501939093526040808501929092526060840152901515608083015260a0909101905180910390a1505050505050565b600454600160a060020a031681565b60076020526000908152604090205481565b60035481565b600080600284815481101515610ba657fe5b60009182526020808320600160a060020a03969096168352600a919091029094016009019093525050604090205460ff16919050565b601281565b600454600090600160a060020a03166370a0823133836040516020015260405160e060020a63ffffffff8416028152600160a060020a039091166004820152602401602060405180830381600087803b1515610c3c57600080fd5b6102c65a03f11515610c4d57600080fd5b50505060405180519050111515610c6357600080fd5b600160a060020a033381166000908152600560205260409020541615610c8857600080fd5b600160a060020a033381811660008181526006602090815260408083208890558686168084526007835281842080548a019055600880548a0190559383526005909152808220805473ffffffffffffffffffffffffffffffffffffffff1916909317909255600454909316926323b872dd929130918791516020015260405160e060020a63ffffffff8616028152600160a060020a0393841660048201529190921660248201526044810191909152606401602060405180830381600087803b1515610d5357600080fd5b6102c65a03f11515610d6457600080fd5b505050604051805190501515610d7957600080fd5b80600160a060020a031633600160a060020a03167f57593c23286b632d1ba413b24ecae252f34f6b81fdff1022dc7ac0d78cde56b78460405190815260200160405180910390a35050565b600160a060020a0333811660009081526005602052604081205490918291161515610dee57600080fd5b5050600160a060020a03338181166000818152600560208181526040808420805460068452828620805490879055908916808752600785528387208054839003905560088054839003905596865293909252815473ffffffffffffffffffffffffffffffffffffffff191690915560045491959394919093169263a9059cbb928691516020015260405160e060020a63ffffffff8516028152600160a060020a0390921660048301526024820152604401602060405180830381600087803b1515610eb857600080fd5b6102c65a03f11515610ec957600080fd5b505050604051805190501515610ede57600080fd5b80600160a060020a031633600160a060020a03167fccc924ef18d5fcabbf624302b6a02f9014c9b3371994eacc0cec2c107f2503e48460405190815260200160405180910390a35b5090565b60015481565b30600160a060020a031633600160a060020a0316141515610f5057600080fd5b821515610f5c57600192505b6000839055600182905560098190556004547f68259880819f96f54b67d672fefc666565de06099c91b57a689a42073ba090c99084908490600160a060020a03166040519283526020830191909152600160a060020a03166040808301919091526060909101905180910390a1505050565b60005481565b81600160a060020a0381166323b872dd86308760006040516020015260405160e060020a63ffffffff8616028152600160a060020a0393841660048201529190921660248201526044810191909152606401602060405180830381600087803b151561103f57600080fd5b6102c65a03f1151561105057600080fd5b50505060405180519050151561106557600080fd5b82600160a060020a031685600160a060020a03167fd65b48fd35864b3528d38e44760be5553248f89bf3ff6b06cca57817cc2650bf868560405182815260406020820181815290820183818151815260200191508051906020019080838360005b838110156110de5780820151838201526020016110c6565b50505050905090810190601f16801561110b5780820380516001836020036101000a031916815260200191505b50935050505060405180910390a35050505050565b60095481565b60045460009081908190600160a060020a03166370a0823133836040516020015260405160e060020a63ffffffff8416028152600160a060020a039091166004820152602401602060405180830381600087803b151561118557600080fd5b6102c65a03f1151561119657600080fd5b505050604051805190501115156111ac57600080fd5b60028054859081106111ba57fe5b60009182526020808320600160a060020a03331684526009600a90930201918201905260409091205490915060ff161515600114156111f857600080fd5b6008810180549061120c9060018301611646565b9150604080519081016040528315158152600160a060020a03331660208201526008820180548490811061123c57fe5b60009182526020909120018151815460ff19169015151781556020820151815474ffffffffffffffffffffffffffffffffffffffff001916610100600160a060020a03928316021790915533908116600090815260098401602052604090819020805460ff19166001908117909155850160068501557f86abfce99b7dd908bec0169288797f85049ec73cbe046ed9de818fab3a497ae0925086918691519283529015156020830152600160a060020a03166040808301919091526060909101905180910390a15092915050565b6009546004546000918291600160a060020a03166370a0823133846040516020015260405160e060020a63ffffffff8416028152600160a060020a039091166004820152602401602060405180830381600087803b151561136a57600080fd5b6102c65a03f1151561137b57600080fd5b505050604051805190501015151561139257600080fd5b60028054906113a4906001830161166f565b91506002828154811015156113b557fe5b60009182526020909120600a90910201805473ffffffffffffffffffffffffffffffffffffffff1916600160a060020a0388161781556001810186905590506002810184805161140992916020019061169b565b508585846040516c01000000000000000000000000600160a060020a038516028152601481018390526034810182805190602001908083835b602083106114615780518252601f199092019160209182019101611442565b6001836020036101000a0380198251168184511617909252505050919091019450604093505050505190819003902060078201554260038201819055600154603c0201600482015560058101805461ffff19169055600060068201557f06d6b095e85f5218421975622a7aee84a98b32aa7d174b90088357014003b43382878787604051848152600160a060020a03841660208201526040810183905260806060820181815290820183818151815260200191508051906020019080838360005b8381101561153a578082015183820152602001611522565b50505050905090810190601f1680156115675780820380516001836020036101000a031916815260200191505b509550505050505060405180910390a16001820160035550949350505050565b60008060028681548110151561159957fe5b90600052602060002090600a020190508484846040516c01000000000000000000000000600160a060020a038516028152601481018390526034810182805190602001908083835b602083106116005780518252601f1990920191602091820191016115e1565b6001836020036101000a03801982511681845116179092525050509190910194506040935050505051908190039020600782015414915050949350505050565b60085481565b81548183558181151161166a5760008381526020902061166a918101908301611715565b505050565b81548183558181151161166a57600a0281600a02836000526020600020918201910161166a919061174a565b828054600181600116156101000203166002900490600052602060002090601f016020900481019282601f106116dc57805160ff1916838001178555611709565b82800160010185558215611709579182015b828111156117095782518255916020019190600101906116ee565b50610f269291506117cb565b61174791905b80821115610f2657805474ffffffffffffffffffffffffffffffffffffffffff1916815560010161171b565b90565b61174791905b80821115610f2657805473ffffffffffffffffffffffffffffffffffffffff1916815560006001820181905561178960028301826117e5565b6000600383018190556004830181905560058301805461ffff1916905560068301819055600783018190556117c290600884019061182c565b50600a01611750565b61174791905b80821115610f2657600081556001016117d1565b50805460018160011615610100020316600290046000825580601f1061180b5750611829565b601f01602090049060005260206000209081019061182991906117cb565b50565b508054600082559060005260206000209081019061182991906117155600a165627a7a72305820f13e71558f3740ed7b038d94268b2dce5c7f019ca5328329cda75bc27aa9ebc30029",
  "source": "/*\n\n  << Test DAO (since we need a DAO controlled by a token that we can send around in tests) >>\n\n*/\n\npragma solidity 0.4.18;\n\nimport \"./dao/DelegatedShareholderAssociation.sol\";\n\n/**\n * @title TestDAO\n * @author Project Wyvern Developers\n */\ncontract TestDAO is DelegatedShareholderAssociation {\n\n    string public constant name = \"Test DAO\";\n\n    uint public constant TOKEN_DECIMALS                     = 18;\n    uint public constant REQUIRED_SHARES_TO_BE_BOARD_MEMBER = 2000 * (10 ** 18); // set to ~ 0.1% of supply\n\n    function TestDAO (ERC20 sharesAddress) public {\n        sharesTokenAddress = sharesAddress;\n        requiredSharesToBeBoardMember = REQUIRED_SHARES_TO_BE_BOARD_MEMBER;\n        minimumQuorum = 1000 * (10 ** TOKEN_DECIMALS);\n        debatingPeriodInMinutes = 0;\n    }\n\n}\n",
  "sourcePath": "/home/cwgoes/working/crypto/wyvern/wyvern-ethereum/contracts/TestDAO.sol",
  "compiler": {
    "name": "solc",
    "version": "0.4.18+commit.9cf6e910.Emscripten.clang"
  },
  "schemaVersion": "1.0.1",
  "updatedAt": "2018-01-02T21:48:02.303Z"
}