{
  "contractName": "TestDAO",
  "abi": [
    {
      "constant": true,
      "inputs": [
        {
          "name": "",
          "type": "uint256"
        }
      ],
      "name": "proposals",
      "outputs": [
        {
          "name": "recipient",
          "type": "address"
        },
        {
          "name": "amount",
          "type": "uint256"
        },
        {
          "name": "metadataHash",
          "type": "bytes"
        },
        {
          "name": "timeCreated",
          "type": "uint256"
        },
        {
          "name": "votingDeadline",
          "type": "uint256"
        },
        {
          "name": "finalized",
          "type": "bool"
        },
        {
          "name": "proposalPassed",
          "type": "bool"
        },
        {
          "name": "numberOfVotes",
          "type": "uint256"
        },
        {
          "name": "proposalHash",
          "type": "bytes32"
        }
      ],
      "payable": false,
      "stateMutability": "view",
      "type": "function"
    },
    {
      "constant": true,
      "inputs": [
        {
          "name": "",
          "type": "address"
        }
      ],
      "name": "delegatesByDelegator",
      "outputs": [
        {
          "name": "",
          "type": "address"
        }
      ],
      "payable": false,
      "stateMutability": "view",
      "type": "function"
    },
    {
      "constant": true,
      "inputs": [],
      "name": "name",
      "outputs": [
        {
          "name": "",
          "type": "string"
        }
      ],
      "payable": false,
      "stateMutability": "view",
      "type": "function"
    },
    {
      "constant": true,
      "inputs": [],
      "name": "REQUIRED_SHARES_TO_BE_BOARD_MEMBER",
      "outputs": [
        {
          "name": "",
          "type": "uint256"
        }
      ],
      "payable": false,
      "stateMutability": "view",
      "type": "function"
    },
    {
      "constant": true,
      "inputs": [
        {
          "name": "",
          "type": "address"
        }
      ],
      "name": "lockedDelegatingTokens",
      "outputs": [
        {
          "name": "",
          "type": "uint256"
        }
      ],
      "payable": false,
      "stateMutability": "view",
      "type": "function"
    },
    {
      "constant": true,
      "inputs": [
        {
          "name": "proposalNumber",
          "type": "uint256"
        }
      ],
      "name": "countVotes",
      "outputs": [
        {
          "name": "yea",
          "type": "uint256"
        },
        {
          "name": "nay",
          "type": "uint256"
        },
        {
          "name": "quorum",
          "type": "uint256"
        }
      ],
      "payable": false,
      "stateMutability": "view",
      "type": "function"
    },
    {
      "constant": false,
      "inputs": [
        {
          "name": "proposalNumber",
          "type": "uint256"
        },
        {
          "name": "transactionBytecode",
          "type": "bytes"
        }
      ],
      "name": "executeProposal",
      "outputs": [],
      "payable": false,
      "stateMutability": "nonpayable",
      "type": "function"
    },
    {
      "constant": true,
      "inputs": [],
      "name": "sharesTokenAddress",
      "outputs": [
        {
          "name": "",
          "type": "address"
        }
      ],
      "payable": false,
      "stateMutability": "view",
      "type": "function"
    },
    {
      "constant": true,
      "inputs": [
        {
          "name": "",
          "type": "address"
        }
      ],
      "name": "delegatedAmountsByDelegate",
      "outputs": [
        {
          "name": "",
          "type": "uint256"
        }
      ],
      "payable": false,
      "stateMutability": "view",
      "type": "function"
    },
    {
      "constant": true,
      "inputs": [],
      "name": "numProposals",
      "outputs": [
        {
          "name": "",
          "type": "uint256"
        }
      ],
      "payable": false,
      "stateMutability": "view",
      "type": "function"
    },
    {
      "constant": true,
      "inputs": [
        {
          "name": "proposalNumber",
          "type": "uint256"
        },
        {
          "name": "shareholder",
          "type": "address"
        }
      ],
      "name": "hasVoted",
      "outputs": [
        {
          "name": "",
          "type": "bool"
        }
      ],
      "payable": false,
      "stateMutability": "view",
      "type": "function"
    },
    {
      "constant": true,
      "inputs": [],
      "name": "TOKEN_DECIMALS",
      "outputs": [
        {
          "name": "",
          "type": "uint256"
        }
      ],
      "payable": false,
      "stateMutability": "view",
      "type": "function"
    },
    {
      "constant": false,
      "inputs": [
        {
          "name": "tokensToLock",
          "type": "uint256"
        },
        {
          "name": "delegate",
          "type": "address"
        }
      ],
      "name": "setDelegateAndLockTokens",
      "outputs": [],
      "payable": false,
      "stateMutability": "nonpayable",
      "type": "function"
    },
    {
      "constant": false,
      "inputs": [],
      "name": "clearDelegateAndUnlockTokens",
      "outputs": [
        {
          "name": "lockedTokens",
          "type": "uint256"
        }
      ],
      "payable": false,
      "stateMutability": "nonpayable",
      "type": "function"
    },
    {
      "constant": true,
      "inputs": [],
      "name": "debatingPeriodInMinutes",
      "outputs": [
        {
          "name": "",
          "type": "uint256"
        }
      ],
      "payable": false,
      "stateMutability": "view",
      "type": "function"
    },
    {
      "constant": false,
      "inputs": [
        {
          "name": "minimumSharesToPassAVote",
          "type": "uint256"
        },
        {
          "name": "minutesForDebate",
          "type": "uint256"
        },
        {
          "name": "sharesToBeBoardMember",
          "type": "uint256"
        }
      ],
      "name": "changeVotingRules",
      "outputs": [],
      "payable": false,
      "stateMutability": "nonpayable",
      "type": "function"
    },
    {
      "constant": true,
      "inputs": [],
      "name": "minimumQuorum",
      "outputs": [
        {
          "name": "",
          "type": "uint256"
        }
      ],
      "payable": false,
      "stateMutability": "view",
      "type": "function"
    },
    {
      "constant": false,
      "inputs": [
        {
          "name": "from",
          "type": "address"
        },
        {
          "name": "value",
          "type": "uint256"
        },
        {
          "name": "token",
          "type": "address"
        },
        {
          "name": "extraData",
          "type": "bytes"
        }
      ],
      "name": "receiveApproval",
      "outputs": [],
      "payable": false,
      "stateMutability": "nonpayable",
      "type": "function"
    },
    {
      "constant": true,
      "inputs": [],
      "name": "tokenLocker",
      "outputs": [
        {
          "name": "",
          "type": "address"
        }
      ],
      "payable": false,
      "stateMutability": "view",
      "type": "function"
    },
    {
      "constant": true,
      "inputs": [],
      "name": "requiredSharesToBeBoardMember",
      "outputs": [
        {
          "name": "",
          "type": "uint256"
        }
      ],
      "payable": false,
      "stateMutability": "view",
      "type": "function"
    },
    {
      "constant": false,
      "inputs": [
        {
          "name": "proposalNumber",
          "type": "uint256"
        },
        {
          "name": "supportsProposal",
          "type": "bool"
        }
      ],
      "name": "vote",
      "outputs": [
        {
          "name": "voteID",
          "type": "uint256"
        }
      ],
      "payable": false,
      "stateMutability": "nonpayable",
      "type": "function"
    },
    {
      "constant": false,
      "inputs": [
        {
          "name": "beneficiary",
          "type": "address"
        },
        {
          "name": "weiAmount",
          "type": "uint256"
        },
        {
          "name": "jobMetadataHash",
          "type": "bytes"
        },
        {
          "name": "transactionBytecode",
          "type": "bytes"
        }
      ],
      "name": "newProposal",
      "outputs": [
        {
          "name": "proposalID",
          "type": "uint256"
        }
      ],
      "payable": false,
      "stateMutability": "nonpayable",
      "type": "function"
    },
    {
      "constant": true,
      "inputs": [
        {
          "name": "proposalNumber",
          "type": "uint256"
        },
        {
          "name": "beneficiary",
          "type": "address"
        },
        {
          "name": "weiAmount",
          "type": "uint256"
        },
        {
          "name": "transactionBytecode",
          "type": "bytes"
        }
      ],
      "name": "checkProposalCode",
      "outputs": [
        {
          "name": "codeChecksOut",
          "type": "bool"
        }
      ],
      "payable": false,
      "stateMutability": "view",
      "type": "function"
    },
    {
      "constant": true,
      "inputs": [],
      "name": "totalLockedTokens",
      "outputs": [
        {
          "name": "",
          "type": "uint256"
        }
      ],
      "payable": false,
      "stateMutability": "view",
      "type": "function"
    },
    {
      "inputs": [
        {
          "name": "sharesAddress",
          "type": "address"
        }
      ],
      "payable": false,
      "stateMutability": "nonpayable",
      "type": "constructor"
    },
    {
      "payable": true,
      "stateMutability": "payable",
      "type": "fallback"
    },
    {
      "anonymous": false,
      "inputs": [
        {
          "indexed": false,
          "name": "proposalID",
          "type": "uint256"
        },
        {
          "indexed": false,
          "name": "recipient",
          "type": "address"
        },
        {
          "indexed": false,
          "name": "amount",
          "type": "uint256"
        },
        {
          "indexed": false,
          "name": "metadataHash",
          "type": "bytes"
        }
      ],
      "name": "ProposalAdded",
      "type": "event"
    },
    {
      "anonymous": false,
      "inputs": [
        {
          "indexed": false,
          "name": "proposalID",
          "type": "uint256"
        },
        {
          "indexed": false,
          "name": "position",
          "type": "bool"
        },
        {
          "indexed": false,
          "name": "voter",
          "type": "address"
        }
      ],
      "name": "Voted",
      "type": "event"
    },
    {
      "anonymous": false,
      "inputs": [
        {
          "indexed": false,
          "name": "proposalID",
          "type": "uint256"
        },
        {
          "indexed": false,
          "name": "yea",
          "type": "uint256"
        },
        {
          "indexed": false,
          "name": "nay",
          "type": "uint256"
        },
        {
          "indexed": false,
          "name": "quorum",
          "type": "uint256"
        },
        {
          "indexed": false,
          "name": "active",
          "type": "bool"
        }
      ],
      "name": "ProposalTallied",
      "type": "event"
    },
    {
      "anonymous": false,
      "inputs": [
        {
          "indexed": false,
          "name": "newMinimumQuorum",
          "type": "uint256"
        },
        {
          "indexed": false,
          "name": "newDebatingPeriodInMinutes",
          "type": "uint256"
        },
        {
          "indexed": false,
          "name": "newSharesTokenAddress",
          "type": "address"
        }
      ],
      "name": "ChangeOfRules",
      "type": "event"
    },
    {
      "anonymous": false,
      "inputs": [
        {
          "indexed": true,
          "name": "delegator",
          "type": "address"
        },
        {
          "indexed": false,
          "name": "numberOfTokens",
          "type": "uint256"
        },
        {
          "indexed": true,
          "name": "delegate",
          "type": "address"
        }
      ],
      "name": "TokensDelegated",
      "type": "event"
    },
    {
      "anonymous": false,
      "inputs": [
        {
          "indexed": true,
          "name": "delegator",
          "type": "address"
        },
        {
          "indexed": false,
          "name": "numberOfTokens",
          "type": "uint256"
        },
        {
          "indexed": true,
          "name": "delegate",
          "type": "address"
        }
      ],
      "name": "TokensUndelegated",
      "type": "event"
    },
    {
      "anonymous": false,
      "inputs": [
        {
          "indexed": true,
          "name": "sender",
          "type": "address"
        },
        {
          "indexed": false,
          "name": "amount",
          "type": "uint256"
        }
      ],
      "name": "ReceivedEther",
      "type": "event"
    },
    {
      "anonymous": false,
      "inputs": [
        {
          "indexed": true,
          "name": "from",
          "type": "address"
        },
        {
          "indexed": false,
          "name": "value",
          "type": "uint256"
        },
        {
          "indexed": true,
          "name": "token",
          "type": "address"
        },
        {
          "indexed": false,
          "name": "extraData",
          "type": "bytes"
        }
      ],
      "name": "ReceivedTokens",
      "type": "event"
    }
  ],
  "bytecode": "0x6060604052341561000f57600080fd5b604051602080611db68339810160405280805160048054600160a060020a031916600160a060020a038316179055686c6b935b8bbd400000600955683635c9adc5dea00000600090815560015591508190506100696100b5565b600160a060020a039091168152602001604051809103906000f080151561008f57600080fd5b600a8054600160a060020a031916600160a060020a0392909216919091179055506100c5565b60405161023180611b8583390190565b611ab1806100d46000396000f3006060604052600436106101245763ffffffff60e060020a600035041663013cf08b8114610163578063064cc7a71461024e57806306fdde031461028957806306fde1691461031357806313f47f24146103385780631840f0ca14610357578063237e94921461039157806327ebcf0e146103e95780633fb3ec28146103fc578063400e39491461041b578063438596321461042e5780635b7f415c146104645780635fa7df6b14610477578063645bd4361461049957806369bd3436146104ac5780636e676b69146104bf5780638160f0b5146104db5780638f4ffcb1146104ee578063a80bf3e61461055a578063b94fa03f1461056d578063c9d27afe14610580578063dbc452281461059b578063eceb294514610642578063f5c476f9146106aa575b33600160a060020a03167fa419615bc8fda4c87663805ee2a3597a6d71c1d476911d9892f340d965bc7bf13460405190815260200160405180910390a2005b341561016e57600080fd5b6101796004356106bd565b604051600160a060020a038a16815260208101899052606081018790526080810186905284151560a082015283151560c082015260e08101839052610100808201839052610120604083018181528a54600260018216159094026000190116929092049083018190526101408301908a9080156102375780601f1061020c57610100808354040283529160200191610237565b820191906000526020600020905b81548152906001019060200180831161021a57829003601f168201915b50509a505050505050505050505060405180910390f35b341561025957600080fd5b61026d600160a060020a0360043516610724565b604051600160a060020a03909116815260200160405180910390f35b341561029457600080fd5b61029c61073f565b60405160208082528190810183818151815260200191508051906020019080838360005b838110156102d85780820151838201526020016102c0565b50505050905090810190601f1680156103055780820380516001836020036101000a031916815260200191505b509250505060405180910390f35b341561031e57600080fd5b610326610776565b60405190815260200160405180910390f35b341561034357600080fd5b610326600160a060020a0360043516610783565b341561036257600080fd5b61036d600435610795565b60405180848152602001838152602001828152602001935050505060405180910390f35b341561039c57600080fd5b6103e7600480359060446024803590810190830135806020601f820181900481020160405190810160405281815292919060208401838380828437509496506108ee95505050505050565b005b34156103f457600080fd5b61026d610b55565b341561040757600080fd5b610326600160a060020a0360043516610b64565b341561042657600080fd5b610326610b76565b341561043957600080fd5b610450600435600160a060020a0360243516610b7c565b604051901515815260200160405180910390f35b341561046f57600080fd5b610326610bc4565b341561048257600080fd5b6103e7600435600160a060020a0360243516610bc9565b34156104a457600080fd5b610326610e8f565b34156104b757600080fd5b6103266110d1565b34156104ca57600080fd5b6103e76004356024356044356110d7565b34156104e657600080fd5b610326611175565b34156104f957600080fd5b6103e760048035600160a060020a0390811691602480359260443516919060849060643590810190830135806020601f8201819004810201604051908101604052818152929190602084018383808284375094965061117b95505050505050565b341561056557600080fd5b61026d6112c7565b341561057857600080fd5b6103266112d6565b341561058b57600080fd5b61032660043560243515156112dc565b34156105a657600080fd5b61032660048035600160a060020a03169060248035919060649060443590810190830135806020601f8201819004810201604051908101604052818152929190602084018383808284378201915050505050509190803590602001908201803590602001908080601f0160208091040260200160405190810160405281815292919060208401838380828437509496506114e195505050505050565b341561064d57600080fd5b610450600480359060248035600160a060020a0316916044359160849060643590810190830135806020601f8201819004810201604051908101604052818152929190602084018383808284375094965061179a95505050505050565b34156106b557600080fd5b610326611853565b60028054829081106106cb57fe5b60009182526020909120600a909102018054600182015460038301546004840154600585015460068601546007870154600160a060020a0390961697509395600201949293919260ff8083169361010090930416919089565b600560205260009081526040902054600160a060020a031681565b60408051908101604052600881527f546573742044414f000000000000000000000000000000000000000000000000602082015281565b686c6b935b8bbd40000081565b60066020526000908152604090205481565b60008060008060008060006002888154811015156107af57fe5b90600052602060002090600a02019350600096506000955060009450600092505b60088401548310156108e357600884018054849081106107ec57fe5b600091825260208220600454910180549094506108a192600160a060020a03928316926370a0823192610100900416906040516020015260405160e060020a63ffffffff8416028152600160a060020a039091166004820152602401602060405180830381600087803b151561086157600080fd5b6102c65a03f1151561087257600080fd5b505050604051805184546101009004600160a060020a0316600090815260076020526040902054909150611859565b90506108ad8582611859565b825490955060ff16156108cb576108c48782611859565b96506108d8565b6108d58682611859565b95505b8260010192506107d0565b505050509193909250565b60008060008030600160a060020a031633600160a060020a03161415151561091557600080fd5b600280548790811061092357fe5b90600052602060002090600a020193508360040154421015801561094c5750600584015460ff16155b80156109f1575083546001850154600160a060020a0390911690866040516c01000000000000000000000000600160a060020a038516028152601481018390526034810182805190602001908083835b602083106109bb5780518252601f19909201916020918201910161099c565b6001836020036101000a038019825116818451161790925250505091909101945060409350505050519081900390206007850154145b15156109fc57600080fd5b610a0586610795565b9250925092506000548110151515610a1c57600080fd5b60058401805460ff1916600117905581831115610ad85760058401805461ff00191661010017905583546001850154600160a060020a03909116908660405180828051906020019080838360005b83811015610a82578082015183820152602001610a6a565b50505050905090810190601f168015610aaf5780820380516001836020036101000a031916815260200191505b5091505060006040518083038185876187965a03f1925050501515610ad357600080fd5b610ae6565b60058401805461ff00191690555b7f748f0810c68633063bb13f3c71e10cd1889925b3721d6e567114d0632574a396868484848860050160019054906101000a900460ff1660405194855260208501939093526040808501929092526060840152901515608083015260a0909101905180910390a1505050505050565b600454600160a060020a031681565b60076020526000908152604090205481565b60035481565b600080600284815481101515610b8e57fe5b60009182526020808320600160a060020a03969096168352600a919091029094016009019093525050604090205460ff16919050565b601281565b600454600090600160a060020a03166370a0823133836040516020015260405160e060020a63ffffffff8416028152600160a060020a039091166004820152602401602060405180830381600087803b1515610c2457600080fd5b6102c65a03f11515610c3557600080fd5b50505060405180519050111515610c4b57600080fd5b600160a060020a033381166000908152600560205260409020541615610c7057600080fd5b30600160a060020a031633600160a060020a031614151515610c9157600080fd5b600160a060020a0333811660009081526006602090815260408083208690559284168252600790522054610cc59083611859565b600160a060020a038216600090815260076020526040902055600854610ceb9083611859565b60085533600160a060020a03818116600090815260056020526040808220805473ffffffffffffffffffffffffffffffffffffffff1916868516179055600454600a54908416946323b872dd949093911691879190516020015260405160e060020a63ffffffff8616028152600160a060020a0393841660048201529190921660248201526044810191909152606401602060405180830381600087803b1515610d9457600080fd5b6102c65a03f11515610da557600080fd5b505050604051805190501515610dba57600080fd5b600854600454600a54600160a060020a03918216916370a08231911660006040516020015260405160e060020a63ffffffff8416028152600160a060020a039091166004820152602401602060405180830381600087803b1515610e1d57600080fd5b6102c65a03f11515610e2e57600080fd5b50505060405180519050141515610e4457600080fd5b80600160a060020a031633600160a060020a03167f57593c23286b632d1ba413b24ecae252f34f6b81fdff1022dc7ac0d78cde56b78460405190815260200160405180910390a35050565b600160a060020a0333811660009081526005602052604081205490918291161515610eb957600080fd5b30600160a060020a031633600160a060020a031614151515610eda57600080fd5b5050600160a060020a03338116600090815260056020908152604080832054600683528184208054908590559416808452600790925290912054610f1e908361186f565b600160a060020a038216600090815260076020526040902055600854610f44908361186f565b600855600160a060020a0333818116600090815260056020526040808220805473ffffffffffffffffffffffffffffffffffffffff19169055600a549093169263a9059cbb92918691516020015260405160e060020a63ffffffff8516028152600160a060020a0390921660048301526024820152604401602060405180830381600087803b1515610fd557600080fd5b6102c65a03f11515610fe657600080fd5b505050604051805190501515610ffb57600080fd5b600854600454600a54600160a060020a03918216916370a08231911660006040516020015260405160e060020a63ffffffff8416028152600160a060020a039091166004820152602401602060405180830381600087803b151561105e57600080fd5b6102c65a03f1151561106f57600080fd5b5050506040518051905014151561108557600080fd5b80600160a060020a031633600160a060020a03167fccc924ef18d5fcabbf624302b6a02f9014c9b3371994eacc0cec2c107f2503e48460405190815260200160405180910390a35b5090565b60015481565b30600160a060020a031633600160a060020a03161415156110f757600080fd5b82151561110357600192505b6000839055600182905560098190556004547f68259880819f96f54b67d672fefc666565de06099c91b57a689a42073ba090c99084908490600160a060020a03166040519283526020830191909152600160a060020a03166040808301919091526060909101905180910390a1505050565b60005481565b81600160a060020a0381166323b872dd86308760006040516020015260405160e060020a63ffffffff8616028152600160a060020a0393841660048201529190921660248201526044810191909152606401602060405180830381600087803b15156111e657600080fd5b6102c65a03f115156111f757600080fd5b50505060405180519050151561120c57600080fd5b82600160a060020a031685600160a060020a03167fd65b48fd35864b3528d38e44760be5553248f89bf3ff6b06cca57817cc2650bf868560405182815260406020820181815290820183818151815260200191508051906020019080838360005b8381101561128557808201518382015260200161126d565b50505050905090810190601f1680156112b25780820380516001836020036101000a031916815260200191505b50935050505060405180910390a35050505050565b600a54600160a060020a031681565b60095481565b60045460009081908190600160a060020a03166370a0823133836040516020015260405160e060020a63ffffffff8416028152600160a060020a039091166004820152602401602060405180830381600087803b151561133b57600080fd5b6102c65a03f1151561134c57600080fd5b5050506040518051905011151561136257600080fd5b30600160a060020a031633600160a060020a03161415151561138357600080fd5b600280548590811061139157fe5b60009182526020808320600160a060020a03331684526009600a90930201918201905260409091205490915060ff161515600114156113cf57600080fd5b600881018054906113e39060018301611881565b9150604080519081016040528315158152600160a060020a03331660208201526008820180548490811061141357fe5b60009182526020909120018151815460ff19169015151781556020820151815474ffffffffffffffffffffffffffffffffffffffff001916610100600160a060020a03928316021790915533908116600090815260098401602052604090819020805460ff19166001908117909155850160068501557f86abfce99b7dd908bec0169288797f85049ec73cbe046ed9de818fab3a497ae0925086918691519283529015156020830152600160a060020a03166040808301919091526060909101905180910390a15092915050565b6009546004546000918291600160a060020a03166370a0823133846040516020015260405160e060020a63ffffffff8416028152600160a060020a039091166004820152602401602060405180830381600087803b151561154157600080fd5b6102c65a03f1151561155257600080fd5b505050604051805190501015151561156957600080fd5b30600160a060020a031633600160a060020a03161415151561158a57600080fd5b600a54600160a060020a03878116911614156115a557600080fd5b60028054906115b790600183016118aa565b91506002828154811015156115c857fe5b60009182526020909120600a90910201805473ffffffffffffffffffffffffffffffffffffffff1916600160a060020a0388161781556001810186905590506002810184805161161c9291602001906118d6565b508585846040516c01000000000000000000000000600160a060020a038516028152601481018390526034810182805190602001908083835b602083106116745780518252601f199092019160209182019101611655565b6001836020036101000a0380198251168184511617909252505050919091019450604093505050505190819003902060078201554260038201819055600154603c0201600482015560058101805461ffff19169055600060068201557f06d6b095e85f5218421975622a7aee84a98b32aa7d174b90088357014003b43382878787604051848152600160a060020a03841660208201526040810183905260806060820181815290820183818151815260200191508051906020019080838360005b8381101561174d578082015183820152602001611735565b50505050905090810190601f16801561177a5780820380516001836020036101000a031916815260200191505b509550505050505060405180910390a16001820160035550949350505050565b6000806002868154811015156117ac57fe5b90600052602060002090600a020190508484846040516c01000000000000000000000000600160a060020a038516028152601481018390526034810182805190602001908083835b602083106118135780518252601f1990920191602091820191016117f4565b6001836020036101000a03801982511681845116179092525050509190910194506040935050505051908190039020600782015414915050949350505050565b60085481565b60008282018381101561186857fe5b9392505050565b60008282111561187b57fe5b50900390565b8154818355818115116118a5576000838152602090206118a5918101908301611950565b505050565b8154818355818115116118a557600a0281600a0283600052602060002091820191016118a59190611985565b828054600181600116156101000203166002900490600052602060002090601f016020900481019282601f1061191757805160ff1916838001178555611944565b82800160010185558215611944579182015b82811115611944578251825591602001919060010190611929565b506110cd929150611a06565b61198291905b808211156110cd57805474ffffffffffffffffffffffffffffffffffffffffff19168155600101611956565b90565b61198291905b808211156110cd57805473ffffffffffffffffffffffffffffffffffffffff191681556000600182018190556119c46002830182611a20565b6000600383018190556004830181905560058301805461ffff1916905560068301819055600783018190556119fd906008840190611a67565b50600a0161198b565b61198291905b808211156110cd5760008155600101611a0c565b50805460018160011615610100020316600290046000825580601f10611a465750611a64565b601f016020900490600052602060002090810190611a649190611a06565b50565b5080546000825590600052602060002090810190611a6491906119505600a165627a7a723058207cc05f3dc21ce7e7f151dadca933587d73dea40b8c672b11d9e2e27e17a2572600296060604052341561000f57600080fd5b6040516020806102318339810160405280805160008054600160a060020a03338116600160a060020a0319928316179092556001805492909316911617905550506101d28061005f6000396000f3006060604052600436106100565763ffffffff7c01000000000000000000000000000000000000000000000000000000006000350416638da5cb5b811461005b578063a9059cbb1461008a578063fc0c546a146100c0575b600080fd5b341561006657600080fd5b61006e6100d3565b604051600160a060020a03909116815260200160405180910390f35b341561009557600080fd5b6100ac600160a060020a03600435166024356100e2565b604051901515815260200160405180910390f35b34156100cb57600080fd5b61006e610197565b600054600160a060020a031681565b6000805433600160a060020a039081169116146100fe57600080fd5b600154600160a060020a031663a9059cbb84846000604051602001526040517c010000000000000000000000000000000000000000000000000000000063ffffffff8516028152600160a060020a0390921660048301526024820152604401602060405180830381600087803b151561017657600080fd5b6102c65a03f1151561018757600080fd5b5050506040518051949350505050565b600154600160a060020a0316815600a165627a7a7230582034158e5a36fc5387904c1787514cf155ef2efdc048aa6b6d5798c9627f37e1a00029",
  "source": "/*\n\n  << Test DAO (since we need a DAO controlled by a token that we can send around in tests) >>\n\n*/\n\npragma solidity 0.4.19;\n\nimport \"./dao/DelegatedShareholderAssociation.sol\";\n\n/**\n * @title TestDAO\n * @author Project Wyvern Developers\n */\ncontract TestDAO is DelegatedShareholderAssociation {\n\n    string public constant name = \"Test DAO\";\n\n    uint public constant TOKEN_DECIMALS                     = 18;\n    uint public constant REQUIRED_SHARES_TO_BE_BOARD_MEMBER = 2000 * (10 ** 18); // set to ~ 0.1% of supply\n\n    function TestDAO (ERC20 sharesAddress) public {\n        sharesTokenAddress = sharesAddress;\n        requiredSharesToBeBoardMember = REQUIRED_SHARES_TO_BE_BOARD_MEMBER;\n        minimumQuorum = 1000 * (10 ** TOKEN_DECIMALS);\n        debatingPeriodInMinutes = 0;\n        tokenLocker = new TokenLocker(sharesAddress);\n    }\n\n}\n",
  "sourcePath": "/home/cwgoes/working/crypto/wyvern/wyvern-ethereum/contracts/TestDAO.sol",
  "compiler": {
    "name": "solc",
    "version": "0.4.19+commit.c4cbbb05.Emscripten.clang"
  },
  "schemaVersion": "2.0.0",
  "updatedAt": "2018-04-01T13:28:18.473Z"
}