{
  "contractName": "TestBank",
  "abi": [
    {
      "constant": false,
      "inputs": [
        {
          "name": "user",
          "type": "address"
        },
        {
          "name": "token",
          "type": "address"
        },
        {
          "name": "amount",
          "type": "uint256"
        }
      ],
      "name": "_credit",
      "outputs": [],
      "payable": false,
      "stateMutability": "nonpayable",
      "type": "function"
    },
    {
      "constant": true,
      "inputs": [],
      "name": "name",
      "outputs": [
        {
          "name": "",
          "type": "string"
        }
      ],
      "payable": false,
      "stateMutability": "view",
      "type": "function"
    },
    {
      "constant": false,
      "inputs": [
        {
          "name": "token",
          "type": "address"
        },
        {
          "name": "amount",
          "type": "uint256"
        }
      ],
      "name": "deposit",
      "outputs": [],
      "payable": false,
      "stateMutability": "nonpayable",
      "type": "function"
    },
    {
      "constant": true,
      "inputs": [
        {
          "name": "user",
          "type": "address"
        },
        {
          "name": "token",
          "type": "address"
        }
      ],
      "name": "lockedFor",
      "outputs": [
        {
          "name": "",
          "type": "uint256"
        }
      ],
      "payable": false,
      "stateMutability": "view",
      "type": "function"
    },
    {
      "constant": false,
      "inputs": [
        {
          "name": "user",
          "type": "address"
        },
        {
          "name": "token",
          "type": "address"
        },
        {
          "name": "amount",
          "type": "uint256"
        }
      ],
      "name": "_lazyLock",
      "outputs": [],
      "payable": false,
      "stateMutability": "nonpayable",
      "type": "function"
    },
    {
      "constant": false,
      "inputs": [
        {
          "name": "token",
          "type": "address"
        },
        {
          "name": "amount",
          "type": "uint256"
        },
        {
          "name": "dest",
          "type": "address"
        }
      ],
      "name": "withdraw",
      "outputs": [],
      "payable": false,
      "stateMutability": "nonpayable",
      "type": "function"
    },
    {
      "constant": false,
      "inputs": [
        {
          "name": "user",
          "type": "address"
        },
        {
          "name": "token",
          "type": "address"
        },
        {
          "name": "amount",
          "type": "uint256"
        }
      ],
      "name": "_unlock",
      "outputs": [],
      "payable": false,
      "stateMutability": "nonpayable",
      "type": "function"
    },
    {
      "constant": true,
      "inputs": [
        {
          "name": "",
          "type": "address"
        },
        {
          "name": "",
          "type": "address"
        }
      ],
      "name": "balances",
      "outputs": [
        {
          "name": "",
          "type": "uint256"
        }
      ],
      "payable": false,
      "stateMutability": "view",
      "type": "function"
    },
    {
      "constant": false,
      "inputs": [
        {
          "name": "user",
          "type": "address"
        },
        {
          "name": "token",
          "type": "address"
        },
        {
          "name": "amount",
          "type": "uint256"
        }
      ],
      "name": "_lazyDebit",
      "outputs": [],
      "payable": false,
      "stateMutability": "nonpayable",
      "type": "function"
    },
    {
      "constant": true,
      "inputs": [
        {
          "name": "",
          "type": "address"
        },
        {
          "name": "",
          "type": "address"
        }
      ],
      "name": "locked",
      "outputs": [
        {
          "name": "",
          "type": "uint256"
        }
      ],
      "payable": false,
      "stateMutability": "view",
      "type": "function"
    },
    {
      "constant": true,
      "inputs": [
        {
          "name": "user",
          "type": "address"
        },
        {
          "name": "token",
          "type": "address"
        }
      ],
      "name": "availableFor",
      "outputs": [
        {
          "name": "",
          "type": "uint256"
        }
      ],
      "payable": false,
      "stateMutability": "view",
      "type": "function"
    },
    {
      "constant": false,
      "inputs": [
        {
          "name": "from",
          "type": "address"
        },
        {
          "name": "to",
          "type": "address"
        },
        {
          "name": "token",
          "type": "address"
        },
        {
          "name": "amount",
          "type": "uint256"
        }
      ],
      "name": "_transferTo",
      "outputs": [],
      "payable": false,
      "stateMutability": "nonpayable",
      "type": "function"
    },
    {
      "constant": true,
      "inputs": [
        {
          "name": "user",
          "type": "address"
        },
        {
          "name": "token",
          "type": "address"
        }
      ],
      "name": "balanceFor",
      "outputs": [
        {
          "name": "",
          "type": "uint256"
        }
      ],
      "payable": false,
      "stateMutability": "view",
      "type": "function"
    },
    {
      "inputs": [],
      "payable": false,
      "stateMutability": "nonpayable",
      "type": "constructor"
    },
    {
      "anonymous": false,
      "inputs": [
        {
          "indexed": true,
          "name": "user",
          "type": "address"
        },
        {
          "indexed": true,
          "name": "token",
          "type": "address"
        },
        {
          "indexed": false,
          "name": "amount",
          "type": "uint256"
        }
      ],
      "name": "Credited",
      "type": "event"
    },
    {
      "anonymous": false,
      "inputs": [
        {
          "indexed": true,
          "name": "user",
          "type": "address"
        },
        {
          "indexed": true,
          "name": "token",
          "type": "address"
        },
        {
          "indexed": false,
          "name": "amount",
          "type": "uint256"
        }
      ],
      "name": "Debited",
      "type": "event"
    },
    {
      "anonymous": false,
      "inputs": [
        {
          "indexed": true,
          "name": "user",
          "type": "address"
        },
        {
          "indexed": true,
          "name": "token",
          "type": "address"
        },
        {
          "indexed": false,
          "name": "amount",
          "type": "uint256"
        }
      ],
      "name": "Locked",
      "type": "event"
    },
    {
      "anonymous": false,
      "inputs": [
        {
          "indexed": true,
          "name": "user",
          "type": "address"
        },
        {
          "indexed": true,
          "name": "token",
          "type": "address"
        },
        {
          "indexed": false,
          "name": "amount",
          "type": "uint256"
        }
      ],
      "name": "Unlocked",
      "type": "event"
    }
  ],
  "bytecode": "0x6060604052341561000f57600080fd5b610ae28061001e6000396000f3006060604052600436106100ab5763ffffffff60e060020a600035041663034422ef81146100b057806306fdde03146100da57806347e7ef24146101645780634e10c95d146101865780635a8158e2146101bd57806369328dec146101e55780639577bffa1461020e578063c23f001f14610236578063cb5f26431461025b578063db20266f14610283578063db2ec6bd146102a8578063f49ec961146102cd578063f771e78b146102fb575b600080fd5b34156100bb57600080fd5b6100d8600160a060020a0360043581169060243516604435610320565b005b34156100e557600080fd5b6100ed610330565b60405160208082528190810183818151815260200191508051906020019080838360005b83811015610129578082015183820152602001610111565b50505050905090810190601f1680156101565780820380516001836020036101000a031916815260200191505b509250505060405180910390f35b341561016f57600080fd5b6100d8600160a060020a0360043516602435610367565b341561019157600080fd5b6101ab600160a060020a0360043581169060243516610406565b60405190815260200160405180910390f35b34156101c857600080fd5b6100d8600160a060020a0360043581169060243516604435610431565b34156101f057600080fd5b6100d8600160a060020a03600435811690602435906044351661043c565b341561021957600080fd5b6100d8600160a060020a0360043581169060243516604435610519565b341561024157600080fd5b6101ab600160a060020a0360043581169060243516610524565b341561026657600080fd5b6100d8600160a060020a036004358116906024351660443561053e565b341561028e57600080fd5b6101ab600160a060020a0360043581169060243516610549565b34156102b357600080fd5b6101ab600160a060020a0360043581169060243516610566565b34156102d857600080fd5b6100d8600160a060020a03600435811690602435811690604435166064356105b2565b341561030657600080fd5b6101ab600160a060020a03600435811690602435166105c4565b61032b8383836105ed565b505050565b60408051908101604052600981527f546573742042616e6b0000000000000000000000000000000000000000000000602082015281565b6103723383836105ed565b81600160a060020a03166323b872dd33308460006040516020015260405160e060020a63ffffffff8616028152600160a060020a0393841660048201529190921660248201526044810191909152606401602060405180830381600087803b15156103dc57600080fd5b6102c65a03f115156103ed57600080fd5b50505060405180519050151561040257600080fd5b5050565b600160a060020a03918216600090815260016020908152604080832093909416825291909152205490565b61032b838383610681565b600160a060020a03338116600081815260208181526040808320948816808452948252808320549383526001825280832094835293905291822054610481919061081a565b90508083111561049057600080fd5b61049b33858561082c565b83600160a060020a031663a9059cbb838560006040516020015260405160e060020a63ffffffff8516028152600160a060020a0390921660048301526024820152604401602060405180830381600087803b15156104f857600080fd5b6102c65a03f1151561050957600080fd5b5050506040518051505050505050565b61032b8383836109df565b600060208181529281526040808220909352908152205481565b61032b83838361082c565b600160209081526000928352604080842090915290825290205481565b600160a060020a038083166000818152602081815260408083209486168084529482528083205493835260018252808320948352939052918220546105ab919061081a565b9392505050565b6105be84848484610a91565b50505050565b600160a060020a0391821660009081526020818152604080832093909416825291909152205490565b600160a060020a038084166000908152602081815260408083209386168352929052205461061b9082610aa7565b600160a060020a0380851660008181526020818152604080832094881680845294909152908190209390935590917f4e45da441832cf53bdaa69235704fc0575e68210f459ee1562911024b12967d59084905190815260200160405180910390a3505050565b600160a060020a038084166000908152600160209081526040808320938616835292905290812054819081906106b79085610aa7565b600160a060020a038088166000818152600160209081526040808320948b16808452948252808320869055928252818152828220938252929092529020549093509150818311156107cb5761070c838361081a565b90506107188282610aa7565b600160a060020a03808816600090815260208181526040808320938a16808452939091528082209390935590916323b872dd91899130918691516020015260405160e060020a63ffffffff8616028152600160a060020a0393841660048201529190921660248201526044810191909152606401602060405180830381600087803b15156107a557600080fd5b6102c65a03f115156107b657600080fd5b5050506040518051905015156107cb57600080fd5b84600160a060020a031686600160a060020a03167f989eaa915cbb416ea3d6f9a63b1a3de51770c7674b11fe21ecdf76b4e1d139108660405190815260200160405180910390a3505050505050565b60008282111561082657fe5b50900390565b600160a060020a0380841660008181526020818152604080832094871680845294825280832054938352600182528083209483529390529182205482916108729161081a565b91508282106108d257600160a060020a03808616600090815260208181526040808320938816835292905220546108a9908461081a565b600160a060020a0380871660009081526020818152604080832093891683529290522055610991565b6108dc838361081a565b600160a060020a038087166000908152602081815260408083209389168084529390915280822082905592935090916323b872dd91889130918691516020015260405160e060020a63ffffffff8616028152600160a060020a0393841660048201529190921660248201526044810191909152606401602060405180830381600087803b151561096b57600080fd5b6102c65a03f1151561097c57600080fd5b50505060405180519050151561099157600080fd5b83600160a060020a031685600160a060020a03167f9407bd81f01ad8f5ae4a2487b63d3d1b1947257c2dcdda3ea183dc8e6965cc6e8560405190815260200160405180910390a35050505050565b600160a060020a03808416600090815260016020908152604080832093861683529290522054610a0f908261081a565b600160a060020a0384811660009081526001602090815260408083209387168352929052908120829055901015610a4557600080fd5b81600160a060020a031683600160a060020a03167fe6e0ef9cd056ca98561ca60e347ada61e1ede2f1142a078951b7a52e1e508e608360405190815260200160405180910390a3505050565b610a9c8383836105ed565b6105be84838361082c565b6000828201838110156105ab57fe00a165627a7a7230582045bea6c88b13c3364c8e5a1d2338bb885f81d8310103d19a1ab25ba89139df690029",
  "source": "/*\n\n  << Test Lazy Bank >>\n\n*/\n\npragma solidity 0.4.18;\n\nimport \"./common/LazyBank.sol\";\n\nimport \"zeppelin-solidity/contracts/token/ERC20.sol\";\n\n/**\n * @title TestBank\n * @author Project Wyvern Developers\n */\ncontract TestBank is LazyBank {\n\n    string public constant name = \"Test Bank\";\n\n    function TestBank () public {\n    }\n\n    function _credit(address user, ERC20 token, uint amount)\n        public\n    {\n        credit(user, token, amount);\n    }\n\n    function _lazyDebit(address user, ERC20 token, uint amount)\n        public\n    {\n        lazyDebit(user, token, amount);\n    }\n\n    function _transferTo(address from, address to, ERC20 token, uint amount)\n        public\n    {\n        transferTo(from, to, token, amount);\n    }\n    \n    function _lazyLock(address user, ERC20 token, uint amount)\n        public\n    {\n        lazyLock(user, token, amount);\n    }\n    \n    function _unlock(address user, ERC20 token, uint amount)\n        public\n    {\n        unlock(user, token, amount);\n    }\n\n}\n",
  "sourcePath": "/home/cwgoes/working/crypto/wyvern/wyvern-ethereum/contracts/TestBank.sol",
  "compiler": {
    "name": "solc",
    "version": "0.4.18+commit.9cf6e910.Emscripten.clang"
  },
  "schemaVersion": "1.0.1",
  "updatedAt": "2018-01-31T21:51:47.238Z"
}