{
  "contractName": "TokenRecipient",
  "abi": [
    {
      "constant": false,
      "inputs": [
        {
          "name": "_from",
          "type": "address"
        },
        {
          "name": "_value",
          "type": "uint256"
        },
        {
          "name": "_token",
          "type": "address"
        },
        {
          "name": "_extraData",
          "type": "bytes"
        }
      ],
      "name": "receiveApproval",
      "outputs": [],
      "payable": false,
      "stateMutability": "nonpayable",
      "type": "function"
    },
    {
      "payable": true,
      "stateMutability": "payable",
      "type": "fallback"
    },
    {
      "anonymous": false,
      "inputs": [
        {
          "indexed": false,
          "name": "sender",
          "type": "address"
        },
        {
          "indexed": false,
          "name": "amount",
          "type": "uint256"
        }
      ],
      "name": "ReceivedEther",
      "type": "event"
    },
    {
      "anonymous": false,
      "inputs": [
        {
          "indexed": true,
          "name": "_from",
          "type": "address"
        },
        {
          "indexed": false,
          "name": "_value",
          "type": "uint256"
        },
        {
          "indexed": false,
          "name": "_token",
          "type": "address"
        },
        {
          "indexed": false,
          "name": "_extraData",
          "type": "bytes"
        }
      ],
      "name": "ReceivedTokens",
      "type": "event"
    }
  ],
  "bytecode": "0x6060604052341561000f57600080fd5b61028c8061001e6000396000f3006060604052600436106100405763ffffffff7c01000000000000000000000000000000000000000000000000000000006000350416638f4ffcb18114610086575b7fa419615bc8fda4c87663805ee2a3597a6d71c1d476911d9892f340d965bc7bf13334604051600160a060020a03909216825260208201526040908101905180910390a1005b341561009157600080fd5b6100f260048035600160a060020a0390811691602480359260443516919060849060643590810190830135806020601f820181900481020160405190810160405281815292919060208401838380828437509496506100f495505050505050565b005b81600160a060020a0381166323b872dd8630876000604051602001526040517c010000000000000000000000000000000000000000000000000000000063ffffffff8616028152600160a060020a0393841660048201529190921660248201526044810191909152606401602060405180830381600087803b151561017857600080fd5b6102c65a03f1151561018957600080fd5b50505060405180519050151561019e57600080fd5b84600160a060020a03167fd65b48fd35864b3528d38e44760be5553248f89bf3ff6b06cca57817cc2650bf858585604051838152600160a060020a038316602082015260606040820181815290820183818151815260200191508051906020019080838360005b8381101561021d578082015183820152602001610205565b50505050905090810190601f16801561024a5780820380516001836020036101000a031916815260200191505b5094505050505060405180910390a250505050505600a165627a7a7230582023717bb37def813428af7e61834a0caee9c2aded2808cab7c7c904f8d6b5d4c90029",
  "source": "pragma solidity ^0.4.18;\n\nimport \"zeppelin-solidity/contracts/token/ERC20.sol\";\n\n/**\n * @title TokenRecipient\n * @author Project Wyvern Developers\n *\n *\n */\ncontract TokenRecipient {\n    event ReceivedEther(address sender, uint amount);\n    event ReceivedTokens(address indexed _from, uint256 _value, address _token, bytes _extraData);\n\n    /**\n     * @dev Receive tokens and generate a log event\n     * @param _from Address from which to transfer tokens\n     * @param _value Amount of tokens to transfer\n     * @param _token Address of token\n     * @param _extraData Additional data to log\n     */\n    function receiveApproval(address _from, uint256 _value, address _token, bytes _extraData) public {\n        ERC20 t = ERC20(_token);\n        require(t.transferFrom(_from, this, _value));\n        ReceivedTokens(_from, _value, _token, _extraData);\n    }\n\n    /**\n     * @dev Receive Ether and generate a log event\n     */\n    function () payable public {\n        ReceivedEther(msg.sender, msg.value);\n    }\n}\n",
  "sourcePath": "/home/cwgoes/working/crypto/wyvern/wyvern-ethereum/contracts/common/TokenRecipient.sol",
  "compiler": {
    "name": "solc",
    "version": "0.4.18+commit.9cf6e910.Emscripten.clang"
  },
  "schemaVersion": "1.0.1",
  "updatedAt": "2017-12-11T20:47:30.319Z"
}