{
  "contractName": "TokenRecipient",
  "abi": [
    {
      "constant": false,
      "inputs": [
        {
          "name": "from",
          "type": "address"
        },
        {
          "name": "value",
          "type": "uint256"
        },
        {
          "name": "token",
          "type": "address"
        },
        {
          "name": "extraData",
          "type": "bytes"
        }
      ],
      "name": "receiveApproval",
      "outputs": [],
      "payable": false,
      "stateMutability": "nonpayable",
      "type": "function"
    },
    {
      "payable": true,
      "stateMutability": "payable",
      "type": "fallback"
    },
    {
      "anonymous": false,
      "inputs": [
        {
          "indexed": true,
          "name": "sender",
          "type": "address"
        },
        {
          "indexed": false,
          "name": "amount",
          "type": "uint256"
        }
      ],
      "name": "ReceivedEther",
      "type": "event"
    },
    {
      "anonymous": false,
      "inputs": [
        {
          "indexed": true,
          "name": "from",
          "type": "address"
        },
        {
          "indexed": false,
          "name": "value",
          "type": "uint256"
        },
        {
          "indexed": true,
          "name": "token",
          "type": "address"
        },
        {
          "indexed": false,
          "name": "extraData",
          "type": "bytes"
        }
      ],
      "name": "ReceivedTokens",
      "type": "event"
    }
  ],
  "bytecode": "0x6060604052341561000f57600080fd5b61027e8061001e6000396000f3006060604052600436106100405763ffffffff7c01000000000000000000000000000000000000000000000000000000006000350416638f4ffcb1811461007f575b33600160a060020a03167fa419615bc8fda4c87663805ee2a3597a6d71c1d476911d9892f340d965bc7bf13460405190815260200160405180910390a2005b341561008a57600080fd5b6100eb60048035600160a060020a0390811691602480359260443516919060849060643590810190830135806020601f820181900481020160405190810160405281815292919060208401838380828437509496506100ed95505050505050565b005b81600160a060020a0381166323b872dd8630876000604051602001526040517c010000000000000000000000000000000000000000000000000000000063ffffffff8616028152600160a060020a0393841660048201529190921660248201526044810191909152606401602060405180830381600087803b151561017157600080fd5b6102c65a03f1151561018257600080fd5b50505060405180519050151561019757600080fd5b82600160a060020a031685600160a060020a03167fd65b48fd35864b3528d38e44760be5553248f89bf3ff6b06cca57817cc2650bf868560405182815260406020820181815290820183818151815260200191508051906020019080838360005b838110156102105780820151838201526020016101f8565b50505050905090810190601f16801561023d5780820380516001836020036101000a031916815260200191505b50935050505060405180910390a350505050505600a165627a7a72305820b096f50b3bbf1a8afec0fd7af6a5d31f0a61c9a19efc706d07744c44f28f812f0029",
  "source": "/*\n\n  Token recipient. Modified very slightly from the example on http://ethereum.org/dao (just to index log parameters).\n\n*/\n\npragma solidity 0.4.18;\n\nimport \"zeppelin-solidity/contracts/token/ERC20.sol\";\n\n/**\n * @title TokenRecipient\n * @author Project Wyvern Developers\n */\ncontract TokenRecipient {\n    event ReceivedEther(address indexed sender, uint amount);\n    event ReceivedTokens(address indexed from, uint256 value, address indexed token, bytes extraData);\n\n    /**\n     * @dev Receive tokens and generate a log event\n     * @param from Address from which to transfer tokens\n     * @param value Amount of tokens to transfer\n     * @param token Address of token\n     * @param extraData Additional data to log\n     */\n    function receiveApproval(address from, uint256 value, address token, bytes extraData) public {\n        ERC20 t = ERC20(token);\n        require(t.transferFrom(from, this, value));\n        ReceivedTokens(from, value, token, extraData);\n    }\n\n    /**\n     * @dev Receive Ether and generate a log event\n     */\n    function () payable public {\n        ReceivedEther(msg.sender, msg.value);\n    }\n}\n",
  "sourcePath": "/home/cwgoes/working/crypto/wyvern/wyvern-ethereum/contracts/common/TokenRecipient.sol",
  "compiler": {
    "name": "solc",
    "version": "0.4.18+commit.9cf6e910.Emscripten.clang"
  },
  "schemaVersion": "1.0.1",
  "updatedAt": "2018-03-08T20:08:22.636Z"
}