{
  "contractName": "TokenLocker",
  "abi": [
    {
      "constant": true,
      "inputs": [],
      "name": "owner",
      "outputs": [
        {
          "name": "",
          "type": "address"
        }
      ],
      "payable": false,
      "stateMutability": "view",
      "type": "function"
    },
    {
      "constant": false,
      "inputs": [
        {
          "name": "dest",
          "type": "address"
        },
        {
          "name": "amount",
          "type": "uint256"
        }
      ],
      "name": "transfer",
      "outputs": [
        {
          "name": "",
          "type": "bool"
        }
      ],
      "payable": false,
      "stateMutability": "nonpayable",
      "type": "function"
    },
    {
      "constant": true,
      "inputs": [],
      "name": "token",
      "outputs": [
        {
          "name": "",
          "type": "address"
        }
      ],
      "payable": false,
      "stateMutability": "view",
      "type": "function"
    },
    {
      "inputs": [
        {
          "name": "tokenAddr",
          "type": "address"
        }
      ],
      "payable": false,
      "stateMutability": "nonpayable",
      "type": "constructor"
    }
  ],
  "bytecode": "0x6060604052341561000f57600080fd5b6040516020806102318339810160405280805160008054600160a060020a03338116600160a060020a0319928316179092556001805492909316911617905550506101d28061005f6000396000f3006060604052600436106100565763ffffffff7c01000000000000000000000000000000000000000000000000000000006000350416638da5cb5b811461005b578063a9059cbb1461008a578063fc0c546a146100c0575b600080fd5b341561006657600080fd5b61006e6100d3565b604051600160a060020a03909116815260200160405180910390f35b341561009557600080fd5b6100ac600160a060020a03600435166024356100e2565b604051901515815260200160405180910390f35b34156100cb57600080fd5b61006e610197565b600054600160a060020a031681565b6000805433600160a060020a039081169116146100fe57600080fd5b600154600160a060020a031663a9059cbb84846000604051602001526040517c010000000000000000000000000000000000000000000000000000000063ffffffff8516028152600160a060020a0390921660048301526024820152604401602060405180830381600087803b151561017657600080fd5b6102c65a03f1151561018757600080fd5b5050506040518051949350505050565b600154600160a060020a0316815600a165627a7a72305820034deef1551c458c17f29dd97009e6cb31537e228033774d62944011d6ea30b00029",
  "source": "/*\n\n  Contract to allow an owning contract to receive tokens (ERC20, not ERC223), transfer them at will, and do absolutely nothing else.\n  \n  Used to allow DAO shareholders to lock tokens for vote delegation but prevent the DAO from doing anything with the locked tokens.\n\n  Much thanks to @adamkolar on Github - https://github.com/ProjectWyvern/wyvern-ethereum/issues/4\n\n*/\n\npragma solidity 0.4.18;\n\nimport \"zeppelin-solidity/contracts/token/ERC20.sol\";\n\n/**\n * @title TokenLocker\n * @author Project Wyvern Developers\n */\ncontract TokenLocker {\n    \n    address public owner;\n\n    ERC20 public token;\n\n    /**\n     * @dev Create a new TokenLocker contract\n     * @param tokenAddr ERC20 token this contract will be used to lock\n     */\n    function TokenLocker (ERC20 tokenAddr) public {\n        owner = msg.sender;\n        token = tokenAddr;\n    }\n\n    /** \n     *  @dev Call the ERC20 `transfer` function on the underlying token contract\n     *  @param dest Token destination\n     *  @param amount Amount of tokens to be transferred\n     */\n    function transfer(address dest, uint amount) public returns (bool) {\n        require(msg.sender == owner);\n        return token.transfer(dest, amount);\n    }\n\n}\n",
  "sourcePath": "/home/cwgoes/working/crypto/wyvern/wyvern-ethereum/contracts/common/TokenLocker.sol",
  "compiler": {
    "name": "solc",
    "version": "0.4.18+commit.9cf6e910.Emscripten.clang"
  },
  "schemaVersion": "1.0.1",
  "updatedAt": "2018-01-13T04:20:21.509Z"
}