{
  "contractName": "TokenTransferProxy",
  "abi": [
    {
      "constant": false,
      "inputs": [
        {
          "name": "token",
          "type": "address"
        },
        {
          "name": "from",
          "type": "address"
        },
        {
          "name": "to",
          "type": "address"
        },
        {
          "name": "amount",
          "type": "uint256"
        }
      ],
      "name": "transferFrom",
      "outputs": [
        {
          "name": "",
          "type": "bool"
        }
      ],
      "payable": false,
      "stateMutability": "nonpayable",
      "type": "function"
    },
    {
      "constant": true,
      "inputs": [],
      "name": "registry",
      "outputs": [
        {
          "name": "",
          "type": "address"
        }
      ],
      "payable": false,
      "stateMutability": "view",
      "type": "function"
    }
  ],
  "bytecode": "0x6060604052341561000f57600080fd5b6101ef8061001e6000396000f3006060604052600436106100325763ffffffff60e060020a60003504166315dacbea81146100375780637b10399914610079575b600080fd5b341561004257600080fd5b610065600160a060020a03600435811690602435811690604435166064356100a8565b604051901515815260200160405180910390f35b341561008457600080fd5b61008c6101b4565b604051600160a060020a03909116815260200160405180910390f35b60008054600160a060020a03166369dc9ff333836040516020015260405160e060020a63ffffffff8416028152600160a060020a039091166004820152602401602060405180830381600087803b151561010157600080fd5b6102c65a03f1151561011257600080fd5b50505060405180519050151561012757600080fd5b84600160a060020a03166323b872dd85858560006040516020015260405160e060020a63ffffffff8616028152600160a060020a0393841660048201529190921660248201526044810191909152606401602060405180830381600087803b151561019157600080fd5b6102c65a03f115156101a257600080fd5b50505060405180519695505050505050565b600054600160a060020a0316815600a165627a7a72305820d6ba6374b19d1fea8b14712801a11aafd526f558edfb71fcc274d7f62099fb0a0029",
  "source": "/*\n\n  Token transfer proxy. Uses the authentication table of a ProxyRegistry contract to grant ERC20 `transferFrom` access.\n  This means that users only need to authorize the proxy contract once for all future protocol versions.\n\n*/\n\npragma solidity 0.4.18;\n\nimport \"zeppelin-solidity/contracts/token/ERC20.sol\";\n\nimport \"./ProxyRegistry.sol\";\n\ncontract TokenTransferProxy {\n\n    /* Authentication registry. */\n    ProxyRegistry public registry;\n\n    /**\n     * Call ERC20 `transferFrom`\n     *\n     * @dev Authenticated contract only\n     * @param token ERC20 token address\n     * @param from From address\n     * @param to To address\n     * @param amount Transfer amount\n     */\n    function transferFrom(address token, address from, address to, uint amount)\n        public\n        returns (bool)\n    {\n        require(registry.contracts(msg.sender));\n        return ERC20(token).transferFrom(from, to, amount);\n    }\n\n}\n",
  "sourcePath": "/home/cwgoes/working/crypto/wyvern/wyvern-ethereum/contracts/registry/TokenTransferProxy.sol",
  "compiler": {
    "name": "solc",
    "version": "0.4.18+commit.9cf6e910.Emscripten.clang"
  },
  "schemaVersion": "1.0.1",
  "updatedAt": "2018-03-03T21:21:28.201Z"
}