{
  "contractName": "UTXORedeemableToken",
  "abi": [
    {
      "constant": true,
      "inputs": [],
      "name": "maximumRedeemable",
      "outputs": [
        {
          "name": "",
          "type": "uint256"
        }
      ],
      "payable": false,
      "stateMutability": "view",
      "type": "function"
    },
    {
      "constant": false,
      "inputs": [
        {
          "name": "_spender",
          "type": "address"
        },
        {
          "name": "_value",
          "type": "uint256"
        }
      ],
      "name": "approve",
      "outputs": [
        {
          "name": "",
          "type": "bool"
        }
      ],
      "payable": false,
      "stateMutability": "nonpayable",
      "type": "function"
    },
    {
      "constant": true,
      "inputs": [],
      "name": "totalSupply",
      "outputs": [
        {
          "name": "",
          "type": "uint256"
        }
      ],
      "payable": false,
      "stateMutability": "view",
      "type": "function"
    },
    {
      "constant": true,
      "inputs": [
        {
          "name": "proof",
          "type": "bytes"
        },
        {
          "name": "merkleLeafHash",
          "type": "bytes32"
        }
      ],
      "name": "verifyProof",
      "outputs": [
        {
          "name": "",
          "type": "bool"
        }
      ],
      "payable": false,
      "stateMutability": "view",
      "type": "function"
    },
    {
      "constant": true,
      "inputs": [],
      "name": "multiplier",
      "outputs": [
        {
          "name": "",
          "type": "uint256"
        }
      ],
      "payable": false,
      "stateMutability": "view",
      "type": "function"
    },
    {
      "constant": false,
      "inputs": [
        {
          "name": "_from",
          "type": "address"
        },
        {
          "name": "_to",
          "type": "address"
        },
        {
          "name": "_value",
          "type": "uint256"
        }
      ],
      "name": "transferFrom",
      "outputs": [
        {
          "name": "",
          "type": "bool"
        }
      ],
      "payable": false,
      "stateMutability": "nonpayable",
      "type": "function"
    },
    {
      "constant": true,
      "inputs": [
        {
          "name": "txid",
          "type": "bytes32"
        },
        {
          "name": "originalAddress",
          "type": "bytes20"
        },
        {
          "name": "outputIndex",
          "type": "uint8"
        },
        {
          "name": "satoshis",
          "type": "uint256"
        },
        {
          "name": "proof",
          "type": "bytes"
        }
      ],
      "name": "verifyUTXO",
      "outputs": [
        {
          "name": "",
          "type": "bool"
        }
      ],
      "payable": false,
      "stateMutability": "view",
      "type": "function"
    },
    {
      "constant": true,
      "inputs": [
        {
          "name": "pubKey",
          "type": "bytes"
        }
      ],
      "name": "pubKeyToEthereumAddress",
      "outputs": [
        {
          "name": "",
          "type": "address"
        }
      ],
      "payable": false,
      "stateMutability": "pure",
      "type": "function"
    },
    {
      "constant": false,
      "inputs": [
        {
          "name": "_spender",
          "type": "address"
        },
        {
          "name": "_subtractedValue",
          "type": "uint256"
        }
      ],
      "name": "decreaseApproval",
      "outputs": [
        {
          "name": "",
          "type": "bool"
        }
      ],
      "payable": false,
      "stateMutability": "nonpayable",
      "type": "function"
    },
    {
      "constant": true,
      "inputs": [
        {
          "name": "_owner",
          "type": "address"
        }
      ],
      "name": "balanceOf",
      "outputs": [
        {
          "name": "balance",
          "type": "uint256"
        }
      ],
      "payable": false,
      "stateMutability": "view",
      "type": "function"
    },
    {
      "constant": true,
      "inputs": [
        {
          "name": "merkleLeafHash",
          "type": "bytes32"
        },
        {
          "name": "proof",
          "type": "bytes"
        }
      ],
      "name": "verifyUTXOHash",
      "outputs": [
        {
          "name": "",
          "type": "bool"
        }
      ],
      "payable": false,
      "stateMutability": "view",
      "type": "function"
    },
    {
      "constant": false,
      "inputs": [
        {
          "name": "_to",
          "type": "address"
        },
        {
          "name": "_value",
          "type": "uint256"
        }
      ],
      "name": "transfer",
      "outputs": [
        {
          "name": "",
          "type": "bool"
        }
      ],
      "payable": false,
      "stateMutability": "nonpayable",
      "type": "function"
    },
    {
      "constant": true,
      "inputs": [
        {
          "name": "hash",
          "type": "bytes32"
        },
        {
          "name": "v",
          "type": "uint8"
        },
        {
          "name": "r",
          "type": "bytes32"
        },
        {
          "name": "s",
          "type": "bytes32"
        },
        {
          "name": "expected",
          "type": "address"
        }
      ],
      "name": "validateSignature",
      "outputs": [
        {
          "name": "",
          "type": "bool"
        }
      ],
      "payable": false,
      "stateMutability": "pure",
      "type": "function"
    },
    {
      "constant": false,
      "inputs": [
        {
          "name": "txid",
          "type": "bytes32"
        },
        {
          "name": "outputIndex",
          "type": "uint8"
        },
        {
          "name": "satoshis",
          "type": "uint256"
        },
        {
          "name": "proof",
          "type": "bytes"
        },
        {
          "name": "pubKey",
          "type": "bytes"
        },
        {
          "name": "isCompressed",
          "type": "bool"
        },
        {
          "name": "v",
          "type": "uint8"
        },
        {
          "name": "r",
          "type": "bytes32"
        },
        {
          "name": "s",
          "type": "bytes32"
        }
      ],
      "name": "redeemUTXO",
      "outputs": [
        {
          "name": "tokensRedeemed",
          "type": "uint256"
        }
      ],
      "payable": false,
      "stateMutability": "nonpayable",
      "type": "function"
    },
    {
      "constant": true,
      "inputs": [
        {
          "name": "addr",
          "type": "address"
        },
        {
          "name": "pubKey",
          "type": "bytes"
        },
        {
          "name": "v",
          "type": "uint8"
        },
        {
          "name": "r",
          "type": "bytes32"
        },
        {
          "name": "s",
          "type": "bytes32"
        }
      ],
      "name": "ecdsaVerify",
      "outputs": [
        {
          "name": "",
          "type": "bool"
        }
      ],
      "payable": false,
      "stateMutability": "pure",
      "type": "function"
    },
    {
      "constant": false,
      "inputs": [
        {
          "name": "_spender",
          "type": "address"
        },
        {
          "name": "_addedValue",
          "type": "uint256"
        }
      ],
      "name": "increaseApproval",
      "outputs": [
        {
          "name": "",
          "type": "bool"
        }
      ],
      "payable": false,
      "stateMutability": "nonpayable",
      "type": "function"
    },
    {
      "constant": true,
      "inputs": [
        {
          "name": "_owner",
          "type": "address"
        },
        {
          "name": "_spender",
          "type": "address"
        }
      ],
      "name": "allowance",
      "outputs": [
        {
          "name": "",
          "type": "uint256"
        }
      ],
      "payable": false,
      "stateMutability": "view",
      "type": "function"
    },
    {
      "constant": true,
      "inputs": [
        {
          "name": "pubKey",
          "type": "bytes"
        },
        {
          "name": "isCompressed",
          "type": "bool"
        }
      ],
      "name": "pubKeyToBitcoinAddress",
      "outputs": [
        {
          "name": "",
          "type": "bytes20"
        }
      ],
      "payable": false,
      "stateMutability": "pure",
      "type": "function"
    },
    {
      "constant": true,
      "inputs": [],
      "name": "rootUTXOMerkleTreeHash",
      "outputs": [
        {
          "name": "",
          "type": "bytes32"
        }
      ],
      "payable": false,
      "stateMutability": "view",
      "type": "function"
    },
    {
      "constant": true,
      "inputs": [],
      "name": "totalRedeemed",
      "outputs": [
        {
          "name": "",
          "type": "uint256"
        }
      ],
      "payable": false,
      "stateMutability": "view",
      "type": "function"
    },
    {
      "anonymous": false,
      "inputs": [
        {
          "indexed": false,
          "name": "txid",
          "type": "bytes32"
        },
        {
          "indexed": false,
          "name": "outputIndex",
          "type": "uint8"
        },
        {
          "indexed": false,
          "name": "satoshis",
          "type": "uint256"
        },
        {
          "indexed": false,
          "name": "proof",
          "type": "bytes"
        },
        {
          "indexed": false,
          "name": "pubKey",
          "type": "bytes"
        },
        {
          "indexed": false,
          "name": "v",
          "type": "uint8"
        },
        {
          "indexed": false,
          "name": "r",
          "type": "bytes32"
        },
        {
          "indexed": false,
          "name": "s",
          "type": "bytes32"
        },
        {
          "indexed": true,
          "name": "redeemer",
          "type": "address"
        },
        {
          "indexed": false,
          "name": "numberOfTokens",
          "type": "uint256"
        }
      ],
      "name": "UTXORedeemed",
      "type": "event"
    },
    {
      "anonymous": false,
      "inputs": [
        {
          "indexed": true,
          "name": "owner",
          "type": "address"
        },
        {
          "indexed": true,
          "name": "spender",
          "type": "address"
        },
        {
          "indexed": false,
          "name": "value",
          "type": "uint256"
        }
      ],
      "name": "Approval",
      "type": "event"
    },
    {
      "anonymous": false,
      "inputs": [
        {
          "indexed": true,
          "name": "from",
          "type": "address"
        },
        {
          "indexed": true,
          "name": "to",
          "type": "address"
        },
        {
          "indexed": false,
          "name": "value",
          "type": "uint256"
        }
      ],
      "name": "Transfer",
      "type": "event"
    }
  ],
  "bytecode": "0x60606040526000600655341561001457600080fd5b6111f7806100236000396000f3006060604052600436106101115763ffffffff7c010000000000000000000000000000000000000000000000000000000060003504166308b4312b8114610116578063095ea7b31461013b57806318160ddd146101715780631858cb5b146101845780631b3ed722146101d757806323b872dd146101ea5780633764c188146102125780635418796c1461028857806366188463146102f557806370a08231146103175780638ef11cd814610336578063a9059cbb1461038c578063af1d06e8146103ae578063cce2771e146103dc578063ce267b5514610496578063d73dd62314610505578063dd62ed3e14610527578063e073ef691461054c578063e6997f6d146105c3578063f35dad40146105d6575b600080fd5b341561012157600080fd5b6101296105e9565b60405190815260200160405180910390f35b341561014657600080fd5b61015d600160a060020a03600435166024356105ef565b604051901515815260200160405180910390f35b341561017c57600080fd5b61012961065b565b341561018f57600080fd5b61015d60046024813581810190830135806020601f82018190048102016040519081016040528181529291906020840183838082843750949650509335935061066192505050565b34156101e257600080fd5b61012961076f565b34156101f557600080fd5b61015d600160a060020a0360043581169060243516604435610775565b341561021d57600080fd5b61015d6004803590602480356bffffffffffffffffffffffff19169160443560ff1691606435919060a49060843590810190830135806020601f820181900481020160405190810160405281815292919060208401838380828437509496506108f795505050505050565b341561029357600080fd5b6102d960046024813581810190830135806020601f8201819004810201604051908101604052818152929190602084018383808284375094965061095095505050505050565b604051600160a060020a03909116815260200160405180910390f35b341561030057600080fd5b61015d600160a060020a03600435166024356109be565b341561032257600080fd5b610129600160a060020a0360043516610ab8565b341561034157600080fd5b61015d600480359060446024803590810190830135806020601f82018190048102016040519081016040528181529291906020840183838082843750949650610ad395505050505050565b341561039757600080fd5b61015d600160a060020a0360043516602435610afe565b34156103b957600080fd5b61015d60043560ff60243516604435606435600160a060020a0360843516610bf9565b34156103e757600080fd5b61012960048035906024803560ff16916044359160849060643590810190830135806020601f8201819004810201604051908101604052818152929190602084018383808284378201915050505050509190803590602001908201803590602001908080601f016020809104026020016040519081016040528181529291906020840183838082843750949650505050823515159260ff60208201351692506040810135915060600135610c87565b34156104a157600080fd5b61015d60048035600160a060020a03169060446024803590810190830135806020601f820181900481020160405190810160405281815292919060208401838380828437509496505060ff8535169460208101359450604001359250610ebe915050565b341561051057600080fd5b61015d600160a060020a0360043516602435610f33565b341561053257600080fd5b610129600160a060020a0360043581169060243516610fd7565b341561055757600080fd5b6105a160046024813581810190830135806020601f820181900481020160405190810160405281815292919060208401838380828437509496505050509135151591506110029050565b6040516bffffffffffffffffffffffff19909116815260200160405180910390f35b34156105ce57600080fd5b610129611131565b34156105e157600080fd5b610129611137565b60075481565b600160a060020a03338116600081815260026020908152604080832094871680845294909152808220859055909291907f8c5be1e5ebec7d5bd14f71427d1e84f3dd0314c0f7b2291e5b200ac8c7c3b9259085905190815260200160405180910390a350600192915050565b60005481565b600073__MerkleProof___________________________63101f13e284600354856000604051602001526040517c010000000000000000000000000000000000000000000000000000000063ffffffff8616028152602481018390526044810182905260606004820190815290819060640185818151815260200191508051906020019080838360005b838110156107035780820151838201526020016106eb565b50505050905090810190601f1680156107305780820380516001836020036101000a031916815260200191505b5094505050505060206040518083038186803b151561074e57600080fd5b6102c65a03f4151561075f57600080fd5b5050506040518051949350505050565b60055481565b6000600160a060020a038316151561078c57600080fd5b600160a060020a0384166000908152600160205260409020548211156107b157600080fd5b600160a060020a03808516600090815260026020908152604080832033909416835292905220548211156107e457600080fd5b600160a060020a03841660009081526001602052604090205461080d908363ffffffff61113d16565b600160a060020a038086166000908152600160205260408082209390935590851681522054610842908363ffffffff61114f16565b600160a060020a0380851660009081526001602090815260408083209490945587831682526002815283822033909316825291909152205461088a908363ffffffff61113d16565b600160a060020a03808616600081815260026020908152604080832033861684529091529081902093909355908516917fddf252ad1be2c89b69c2b068fc378daa952ba7f163c4a11628f55a4df523b3ef9085905190815260200160405180910390a35060019392505050565b600080868686866040519384526bffffffffffffffffffffffff1992909216602084015260ff1660f860020a0260348301526035820152605501604051809103902090506109458184610ad3565b979650505050505050565b6000816040518082805190602001908083835b602083106109825780518252601f199092019160209182019101610963565b6001836020036101000a0380198251168184511617909252505050919091019250604091505051908190039020600160a060020a031692915050565b600160a060020a03338116600090815260026020908152604080832093861683529290529081205480831115610a1b57600160a060020a033381166000908152600260209081526040808320938816835292905290812055610a52565b610a2b818463ffffffff61113d16565b600160a060020a033381166000908152600260209081526040808320938916835292905220555b600160a060020a0333811660008181526002602090815260408083209489168084529490915290819020547f8c5be1e5ebec7d5bd14f71427d1e84f3dd0314c0f7b2291e5b200ac8c7c3b925915190815260200160405180910390a35060019392505050565b600160a060020a031660009081526001602052604090205490565b60008281526004602052604081205460ff16158015610af75750610af78284610661565b9392505050565b6000600160a060020a0383161515610b1557600080fd5b600160a060020a033316600090815260016020526040902054821115610b3a57600080fd5b600160a060020a033316600090815260016020526040902054610b63908363ffffffff61113d16565b600160a060020a033381166000908152600160205260408082209390935590851681522054610b98908363ffffffff61114f16565b600160a060020a0380851660008181526001602052604090819020939093559133909116907fddf252ad1be2c89b69c2b068fc378daa952ba7f163c4a11628f55a4df523b3ef9085905190815260200160405180910390a350600192915050565b600081600160a060020a03166001878787876040516000815260200160405260006040516020015260405193845260ff90921660208085019190915260408085019290925260608401929092526080909201915160208103908084039060008661646e5a03f11515610c6a57600080fd5b505060206040510351600160a060020a0316149695505050505050565b6000806000610c968888611002565b91508b828c8c6040519384526bffffffffffffffffffffffff1992909216602084015260ff1660f860020a026034830152603582015260550160405180910390209050610ce3818a610ad3565b1515610cee57600080fd5b610cfb3389888888610ebe565b1515610d0657600080fd5b6000818152600460205260409020805460ff1916600117905560055460068054918c02918201908190556007549194501115610d4157600080fd5b600160a060020a033316600081815260016020526040908190208054860190557f2475a9b35191bf17196c6ddaa1be205f8dccc85ac213ff80131ca6906c34423b908e908e908e908e908e908d908d908d908d905189815260ff808a16602083015260408201899052851660a082015260c0810184905260e08101839052610100810182905261012060608201818152906080830190830189818151815260200191508051906020019080838360005b83811015610e09578082015183820152602001610df1565b50505050905090810190601f168015610e365780820380516001836020036101000a031916815260200191505b50838103825288818151815260200191508051906020019080838360005b83811015610e6c578082015183820152602001610e54565b50505050905090810190601f168015610e995780820380516001836020036101000a031916815260200191505b509b50505050505050505050505060405180910390a250509998505050505050505050565b6000610f29600287600060405160200152604051600160a060020a03919091166c0100000000000000000000000002815260140160206040518083038160008661646e5a03f11515610f0f57600080fd5b505060405180519050858585610f248a610950565b610bf9565b9695505050505050565b600160a060020a033381166000908152600260209081526040808320938616835292905290812054610f6b908363ffffffff61114f16565b600160a060020a0333811660008181526002602090815260408083209489168084529490915290819020849055919290917f8c5be1e5ebec7d5bd14f71427d1e84f3dd0314c0f7b2291e5b200ac8c7c3b92591905190815260200160405180910390a350600192915050565b600160a060020a03918216600090815260026020908152604080832093909416825291909152205490565b60008060008061101386600061115e565b925061102086602061115e565b915084156110d757600282061561103857600361103b565b60025b905060036002828560006040516020015260405160ff9290921660f860020a028252600182015260210160206040518083038160008661646e5a03f1151561108257600080fd5b5050604051805190506000604051602001526040519081526020908101906040518083038160008661646e5a03f115156110bb57600080fd5b5050604051516c01000000000000000000000000029350611128565b5060046003600282858560006040516020015260405160ff9390931660f860020a0283526001830191909152602182015260410160206040518083038160008661646e5a03f1151561108257600080fd5b50505092915050565b60035481565b60065481565b60008282111561114957fe5b50900390565b600082820183811015610af757fe5b6000805b60208110156111c45780600802848483018151811061117d57fe5b016020015160029190910a60f860020a918290049091027fff0000000000000000000000000000000000000000000000000000000000000016049190911890600101611162565b50929150505600a165627a7a72305820064127d782db8cfd7a21fd534d78b93ff80348858526c53a327df35592e527390029",
  "source": "/*\n\n  UTXO redeemable token - a token extension to allow porting a Bitcoin or Bitcoin-fork sourced UTXO set to an ERC20 token through redemption of individual UTXOs in the token contract.\n\n*/\n\npragma solidity ^0.4.18;\n\nimport \"zeppelin-solidity/contracts/token/StandardToken.sol\";\nimport \"zeppelin-solidity/contracts/MerkleProof.sol\";\n\ncontract UTXORedeemableToken is StandardToken {\n\n    /* Root hash of the UTXO Merkle tree, must be initialized by token constructor. */\n    bytes32 public rootUTXOMerkleTreeHash;\n\n    /* Redeemed UTXOs. */\n    mapping(bytes32 => bool) redeemedUTXOs;\n\n    /* Multiplier - tokens per Satoshi, must be initialized by token constructor. */\n    uint public multiplier;\n\n    /* Total tokens redeemed so far. */\n    uint public totalRedeemed = 0;\n\n    /* Maximum redeemable tokens, must be initialized by token constructor. */\n    uint public maximumRedeemable;\n\n    /* Redemption event, containing all relevant data for later analysis if desired. */\n    event UTXORedeemed(bytes32 txid, uint8 outputIndex, uint satoshis, bytes proof, bytes pubKey, uint8 v, bytes32 r, bytes32 s, address indexed redeemer, uint numberOfTokens);\n\n    /**\n     * @dev Extract a bytes32 subarray from an arbitrary length bytes array.\n     * @param data Bytes array from which to extract the subarray\n     * @param pos Starting position from which to copy\n     * @return Extracted length 32 byte array\n     */\n    function extract(bytes data, uint pos) private pure returns (bytes32 result) { \n        for (uint i = 0; i < 32; i++) {\n            result ^= (bytes32(0xff00000000000000000000000000000000000000000000000000000000000000) & data[i + pos]) >> (i * 8);\n        }\n        return result;\n    }\n    \n    /**\n     * @dev Validate that a provided ECSDA signature was signed by the specified address\n     * @param hash Hash of signed data\n     * @param v v parameter of ECDSA signature\n     * @param r r parameter of ECDSA signature\n     * @param s s parameter of ECDSA signature\n     * @param expected Address claiming to have created this signature\n     * @return Whether or not the signature was valid\n     */\n    function validateSignature (bytes32 hash, uint8 v, bytes32 r, bytes32 s, address expected) public pure returns (bool) {\n        return ecrecover(hash, v, r, s) == expected;\n    }\n\n    /**\n     * @dev Validate that the hash of a provided address was signed by the ECDSA public key associated with the specified Ethereum address\n     * @param addr Address signed\n     * @param pubKey Uncompressed ECDSA public key claiming to have created this signature\n     * @param v v parameter of ECDSA signature\n     * @param r r parameter of ECDSA signature\n     * @param s s parameter of ECDSA signature\n     * @return Whether or not the signature was valid\n     */\n    function ecdsaVerify (address addr, bytes pubKey, uint8 v, bytes32 r, bytes32 s) public pure returns (bool) {\n        return validateSignature(sha256(addr), v, r, s, pubKeyToEthereumAddress(pubKey));\n    }\n\n    /**\n     * @dev Convert an uncompressed ECDSA public key into an Ethereum address\n     * @param pubKey Uncompressed ECDSA public key to convert\n     * @return Ethereum address generated from the ECDSA public key\n     */\n    function pubKeyToEthereumAddress (bytes pubKey) public pure returns (address) {\n        // ??\n        return address(uint(keccak256(pubKey)) & 0x000FFFFFFFFFFFFFFFFFFFFFFFFFFFFFFFFFFFFFFFF);\n    }\n\n    /**\n     * @dev Calculate the Bitcoin-style address associated with an uncompressed ECDSA public key\n     * @param pubKey Compressed ECDSA public key to convert\n     * @param isCompressed Whether or not the *Bitcoin* address was generated from a compressed key\n     * @return Raw Bitcoin address (no base58-check encoding)\n     */\n    function pubKeyToBitcoinAddress(bytes pubKey, bool isCompressed) public pure returns (bytes20) {\n        uint x = uint(extract(pubKey, 0));\n        uint y = uint(extract(pubKey, 32)); \n        uint8 startingByte;\n        if (isCompressed) {\n            /* The address is encoded from a compressed public key, so we need to compress the public key. */\n            startingByte = y % 2 == 0 ? 0x02 : 0x03;\n            return ripemd160(sha256(startingByte, x));\n        } else {\n            /* The address is encoded from an uncompressed public key, so 0x04 is used as the starting byte. */\n            startingByte = 0x04;\n            return ripemd160(sha256(startingByte, x, y));\n        }\n    }\n\n    /**\n     * @dev Verify a Merkle proof using the UTXO Merkle tree\n     * @param proof Generated Merkle tree proof\n     * @param merkleLeafHash Hash asserted to be present in the Merkle tree\n     * @return Whether or not the proof is valid\n     */\n    function verifyProof(bytes proof, bytes32 merkleLeafHash) public constant returns (bool) {\n        return MerkleProof.verifyProof(proof, rootUTXOMerkleTreeHash, merkleLeafHash);\n    }\n\n    /**\n     * @dev Convenience helper function to check if a UTXO can be redeemed\n     * @param txid Transaction hash\n     * @param originalAddress Raw Bitcoin address (no base58-check encoding)\n     * @param outputIndex Output index of UTXO\n     * @param satoshis Amount of UTXO in satoshis\n     * @param proof Merkle tree proof\n     * @return Whether or not the UTXO can be redeemed\n     */\n    function verifyUTXO(bytes32 txid, bytes20 originalAddress, uint8 outputIndex, uint satoshis, bytes proof) public constant returns (bool) {\n        /* Calculate the hash of the Merkle leaf associated with this UTXO. */\n        bytes32 merkleLeafHash = keccak256(txid, originalAddress, outputIndex, satoshis);\n    \n        /* Verify the proof. */\n        return verifyUTXOHash(merkleLeafHash, proof);\n    }\n      \n    /**\n     * @dev Verify that a UTXO with the specified Merkle leaf hash can be redeemed\n     * @param merkleLeafHash Merkle tree hash of the UTXO to be checked\n     * @param proof Merkle tree proof\n     * @return Whether or not the UTXO with the specified hash can be redeemed\n     */\n    function verifyUTXOHash(bytes32 merkleLeafHash, bytes proof) public constant returns (bool) {\n        /* Check that the UTXO has not yet been redeemed and that it exists in the Merkle tree. */\n        return((redeemedUTXOs[merkleLeafHash] == false) && verifyProof(proof, merkleLeafHash));\n    }\n\n    /**\n     * @dev Redeem a UTXO, crediting a proportional amount of tokens (if valid) to the sending address\n     * @param txid Transaction hash\n     * @param outputIndex Output index of the UTXO\n     * @param satoshis Amount of UTXO in satoshis\n     * @param proof Merkle tree proof\n     * @param pubKey Uncompressed ECDSA public key to which the UTXO was sent\n     * @param isCompressed Whether the Bitcoin address was generated from a compressed public key\n     * @param v v parameter of ECDSA signature\n     * @param r r parameter of ECDSA signature\n     * @param s s parameter of ECDSA signature\n     * @return The number of tokens redeemed, if successful\n     */\n    function redeemUTXO (bytes32 txid, uint8 outputIndex, uint satoshis, bytes proof, bytes pubKey, bool isCompressed, uint8 v, bytes32 r, bytes32 s) public returns (uint tokensRedeemed) {\n\n        /* Calculate original Bitcoin-style address associated with the provided public key. */\n        bytes20 originalAddress = pubKeyToBitcoinAddress(pubKey, isCompressed);\n\n        /* Calculate the UTXO Merkle leaf hash. */\n        bytes32 merkleLeafHash = keccak256(txid, originalAddress, outputIndex, satoshis);\n\n        /* Verify that the UTXO can be redeemed. */\n        require(verifyUTXOHash(merkleLeafHash, proof));\n\n        /* Claimant must sign the Ethereum address to which they wish to remit the redeemed tokens. */\n        require(ecdsaVerify(msg.sender, pubKey, v, r, s));\n\n        /* Mark the UTXO as redeemed. */\n        redeemedUTXOs[merkleLeafHash] = true;\n\n        /* Calculate the redeemed tokens. */\n        tokensRedeemed = satoshis * multiplier;\n\n        /* Track total redeemed tokens. */\n        totalRedeemed += tokensRedeemed;\n\n        /* Sanity check. */\n        require(totalRedeemed <= maximumRedeemable);\n\n        /* Credit the redeemer. */ \n        balances[msg.sender] += tokensRedeemed;   \n\n        /* Mark the event. */\n        UTXORedeemed(txid, outputIndex, satoshis, proof, pubKey, v, r, s, msg.sender, tokensRedeemed);\n        \n        /* Return the number of tokens redeemed. */\n        return tokensRedeemed;\n\n    }\n\n}\n",
  "sourcePath": "/home/cwgoes/working/crypto/wyvern/wyvern-ethereum/contracts/token/UTXORedeemableToken.sol",
  "compiler": {
    "name": "solc",
    "version": "0.4.18+commit.9cf6e910.Emscripten.clang"
  },
  "schemaVersion": "1.0.1",
  "updatedAt": "2017-12-11T20:47:30.323Z"
}