{
  "contractName": "WyvernExchange",
  "abi": [
    {
      "constant": true,
      "inputs": [],
      "name": "name",
      "outputs": [
        {
          "name": "",
          "type": "string"
        }
      ],
      "payable": false,
      "stateMutability": "view",
      "type": "function"
    },
    {
      "constant": true,
      "inputs": [],
      "name": "exchangeTokenAddress",
      "outputs": [
        {
          "name": "",
          "type": "address"
        }
      ],
      "payable": false,
      "stateMutability": "view",
      "type": "function"
    },
    {
      "constant": false,
      "inputs": [
        {
          "name": "user",
          "type": "address"
        },
        {
          "name": "token",
          "type": "address"
        },
        {
          "name": "amount",
          "type": "uint256"
        },
        {
          "name": "dest",
          "type": "address"
        }
      ],
      "name": "withdraw",
      "outputs": [],
      "payable": false,
      "stateMutability": "nonpayable",
      "type": "function"
    },
    {
      "constant": true,
      "inputs": [
        {
          "name": "array",
          "type": "bytes"
        },
        {
          "name": "desired",
          "type": "bytes"
        },
        {
          "name": "mask",
          "type": "bytes"
        }
      ],
      "name": "guardedArrayReplace",
      "outputs": [
        {
          "name": "",
          "type": "bytes"
        }
      ],
      "payable": false,
      "stateMutability": "pure",
      "type": "function"
    },
    {
      "constant": true,
      "inputs": [
        {
          "name": "addrs",
          "type": "address[6]"
        },
        {
          "name": "uints",
          "type": "uint256[7]"
        },
        {
          "name": "side",
          "type": "uint8"
        },
        {
          "name": "saleKind",
          "type": "uint8"
        },
        {
          "name": "howToCall",
          "type": "uint8"
        },
        {
          "name": "calldata",
          "type": "bytes"
        },
        {
          "name": "replacementPattern",
          "type": "bytes"
        },
        {
          "name": "metadataHash",
          "type": "bytes"
        },
        {
          "name": "v",
          "type": "uint8"
        },
        {
          "name": "r",
          "type": "bytes32"
        },
        {
          "name": "s",
          "type": "bytes32"
        }
      ],
      "name": "validateOrder_",
      "outputs": [
        {
          "name": "",
          "type": "bool"
        }
      ],
      "payable": false,
      "stateMutability": "view",
      "type": "function"
    },
    {
      "constant": false,
      "inputs": [
        {
          "name": "addrs",
          "type": "address[12]"
        },
        {
          "name": "uints",
          "type": "uint256[14]"
        },
        {
          "name": "sidesKindsHowToCalls",
          "type": "uint8[6]"
        },
        {
          "name": "calldataBuy",
          "type": "bytes"
        },
        {
          "name": "calldataSell",
          "type": "bytes"
        },
        {
          "name": "replacementPatternBuy",
          "type": "bytes"
        },
        {
          "name": "replacementPatternSell",
          "type": "bytes"
        },
        {
          "name": "metadataHashBuy",
          "type": "bytes"
        },
        {
          "name": "metadataHashSell",
          "type": "bytes"
        },
        {
          "name": "vs",
          "type": "uint8[2]"
        },
        {
          "name": "rss",
          "type": "bytes32[4]"
        }
      ],
      "name": "atomicMatch_",
      "outputs": [],
      "payable": false,
      "stateMutability": "nonpayable",
      "type": "function"
    },
    {
      "constant": true,
      "inputs": [
        {
          "name": "user",
          "type": "address"
        },
        {
          "name": "token",
          "type": "address"
        }
      ],
      "name": "lockedFor",
      "outputs": [
        {
          "name": "",
          "type": "uint256"
        }
      ],
      "payable": false,
      "stateMutability": "view",
      "type": "function"
    },
    {
      "constant": true,
      "inputs": [
        {
          "name": "",
          "type": "bytes32"
        }
      ],
      "name": "topBids",
      "outputs": [
        {
          "name": "bidder",
          "type": "address"
        },
        {
          "name": "amount",
          "type": "uint256"
        }
      ],
      "payable": false,
      "stateMutability": "view",
      "type": "function"
    },
    {
      "constant": true,
      "inputs": [
        {
          "name": "buyCalldata",
          "type": "bytes"
        },
        {
          "name": "buyReplacementPattern",
          "type": "bytes"
        },
        {
          "name": "sellCalldata",
          "type": "bytes"
        },
        {
          "name": "sellReplacementPattern",
          "type": "bytes"
        }
      ],
      "name": "orderCalldataCanMatch",
      "outputs": [
        {
          "name": "",
          "type": "bool"
        }
      ],
      "payable": false,
      "stateMutability": "pure",
      "type": "function"
    },
    {
      "constant": false,
      "inputs": [
        {
          "name": "addrs",
          "type": "address[6]"
        },
        {
          "name": "uints",
          "type": "uint256[7]"
        },
        {
          "name": "side",
          "type": "uint8"
        },
        {
          "name": "saleKind",
          "type": "uint8"
        },
        {
          "name": "howToCall",
          "type": "uint8"
        },
        {
          "name": "calldata",
          "type": "bytes"
        },
        {
          "name": "replacementPattern",
          "type": "bytes"
        },
        {
          "name": "metadataHash",
          "type": "bytes"
        },
        {
          "name": "v",
          "type": "uint8"
        },
        {
          "name": "r",
          "type": "bytes32"
        },
        {
          "name": "s",
          "type": "bytes32"
        },
        {
          "name": "amount",
          "type": "uint256"
        }
      ],
      "name": "bid_",
      "outputs": [],
      "payable": false,
      "stateMutability": "nonpayable",
      "type": "function"
    },
    {
      "constant": true,
      "inputs": [],
      "name": "registry",
      "outputs": [
        {
          "name": "",
          "type": "address"
        }
      ],
      "payable": false,
      "stateMutability": "view",
      "type": "function"
    },
    {
      "constant": false,
      "inputs": [
        {
          "name": "user",
          "type": "address"
        },
        {
          "name": "token",
          "type": "address"
        },
        {
          "name": "amount",
          "type": "uint256"
        }
      ],
      "name": "deposit",
      "outputs": [],
      "payable": false,
      "stateMutability": "nonpayable",
      "type": "function"
    },
    {
      "constant": true,
      "inputs": [
        {
          "name": "addrs",
          "type": "address[12]"
        },
        {
          "name": "uints",
          "type": "uint256[14]"
        },
        {
          "name": "sidesKindsHowToCalls",
          "type": "uint8[6]"
        },
        {
          "name": "calldataBuy",
          "type": "bytes"
        },
        {
          "name": "calldataSell",
          "type": "bytes"
        },
        {
          "name": "replacementPatternBuy",
          "type": "bytes"
        },
        {
          "name": "replacementPatternSell",
          "type": "bytes"
        },
        {
          "name": "metadataHashBuy",
          "type": "bytes"
        },
        {
          "name": "metadataHashSell",
          "type": "bytes"
        }
      ],
      "name": "ordersCanMatch_",
      "outputs": [
        {
          "name": "",
          "type": "bool"
        }
      ],
      "payable": false,
      "stateMutability": "pure",
      "type": "function"
    },
    {
      "constant": true,
      "inputs": [
        {
          "name": "",
          "type": "address"
        },
        {
          "name": "",
          "type": "address"
        }
      ],
      "name": "balances",
      "outputs": [
        {
          "name": "",
          "type": "uint256"
        }
      ],
      "payable": false,
      "stateMutability": "view",
      "type": "function"
    },
    {
      "constant": false,
      "inputs": [
        {
          "name": "addrs",
          "type": "address[6]"
        },
        {
          "name": "uints",
          "type": "uint256[7]"
        },
        {
          "name": "side",
          "type": "uint8"
        },
        {
          "name": "saleKind",
          "type": "uint8"
        },
        {
          "name": "howToCall",
          "type": "uint8"
        },
        {
          "name": "calldata",
          "type": "bytes"
        },
        {
          "name": "replacementPattern",
          "type": "bytes"
        },
        {
          "name": "metadataHash",
          "type": "bytes"
        },
        {
          "name": "orderbookInclusionDesired",
          "type": "bool"
        }
      ],
      "name": "approveOrder_",
      "outputs": [],
      "payable": false,
      "stateMutability": "nonpayable",
      "type": "function"
    },
    {
      "constant": true,
      "inputs": [
        {
          "name": "",
          "type": "address"
        },
        {
          "name": "",
          "type": "address"
        }
      ],
      "name": "locked",
      "outputs": [
        {
          "name": "",
          "type": "uint256"
        }
      ],
      "payable": false,
      "stateMutability": "view",
      "type": "function"
    },
    {
      "constant": true,
      "inputs": [
        {
          "name": "user",
          "type": "address"
        },
        {
          "name": "token",
          "type": "address"
        }
      ],
      "name": "availableFor",
      "outputs": [
        {
          "name": "",
          "type": "uint256"
        }
      ],
      "payable": false,
      "stateMutability": "view",
      "type": "function"
    },
    {
      "constant": true,
      "inputs": [
        {
          "name": "addrs",
          "type": "address[6]"
        },
        {
          "name": "uints",
          "type": "uint256[7]"
        },
        {
          "name": "side",
          "type": "uint8"
        },
        {
          "name": "saleKind",
          "type": "uint8"
        },
        {
          "name": "howToCall",
          "type": "uint8"
        },
        {
          "name": "calldata",
          "type": "bytes"
        },
        {
          "name": "replacementPattern",
          "type": "bytes"
        },
        {
          "name": "metadataHash",
          "type": "bytes"
        }
      ],
      "name": "hashOrder_",
      "outputs": [
        {
          "name": "",
          "type": "bytes32"
        }
      ],
      "payable": false,
      "stateMutability": "pure",
      "type": "function"
    },
    {
      "constant": false,
      "inputs": [
        {
          "name": "addrs",
          "type": "address[6]"
        },
        {
          "name": "uints",
          "type": "uint256[7]"
        },
        {
          "name": "side",
          "type": "uint8"
        },
        {
          "name": "saleKind",
          "type": "uint8"
        },
        {
          "name": "howToCall",
          "type": "uint8"
        },
        {
          "name": "calldata",
          "type": "bytes"
        },
        {
          "name": "replacementPattern",
          "type": "bytes"
        },
        {
          "name": "metadataHash",
          "type": "bytes"
        },
        {
          "name": "v",
          "type": "uint8"
        },
        {
          "name": "r",
          "type": "bytes32"
        },
        {
          "name": "s",
          "type": "bytes32"
        }
      ],
      "name": "cancelOrder_",
      "outputs": [],
      "payable": false,
      "stateMutability": "nonpayable",
      "type": "function"
    },
    {
      "constant": true,
      "inputs": [
        {
          "name": "user",
          "type": "address"
        },
        {
          "name": "token",
          "type": "address"
        }
      ],
      "name": "balanceFor",
      "outputs": [
        {
          "name": "",
          "type": "uint256"
        }
      ],
      "payable": false,
      "stateMutability": "view",
      "type": "function"
    },
    {
      "inputs": [
        {
          "name": "registryAddress",
          "type": "address"
        },
        {
          "name": "tokenAddress",
          "type": "address"
        }
      ],
      "payable": false,
      "stateMutability": "nonpayable",
      "type": "constructor"
    },
    {
      "anonymous": false,
      "inputs": [
        {
          "indexed": false,
          "name": "hash",
          "type": "bytes32"
        },
        {
          "indexed": true,
          "name": "approver",
          "type": "address"
        },
        {
          "components": [
            {
              "name": "exchange",
              "type": "address"
            },
            {
              "name": "maker",
              "type": "address"
            },
            {
              "name": "taker",
              "type": "address"
            },
            {
              "name": "makerFee",
              "type": "uint256"
            },
            {
              "name": "takerFee",
              "type": "uint256"
            },
            {
              "name": "feeRecipient",
              "type": "address"
            },
            {
              "name": "side",
              "type": "uint8"
            },
            {
              "name": "saleKind",
              "type": "uint8"
            },
            {
              "name": "target",
              "type": "address"
            },
            {
              "name": "howToCall",
              "type": "uint8"
            },
            {
              "name": "calldata",
              "type": "bytes"
            },
            {
              "name": "replacementPattern",
              "type": "bytes"
            },
            {
              "name": "metadataHash",
              "type": "bytes"
            },
            {
              "name": "paymentToken",
              "type": "address"
            },
            {
              "name": "basePrice",
              "type": "uint256"
            },
            {
              "name": "extra",
              "type": "uint256"
            },
            {
              "name": "listingTime",
              "type": "uint256"
            },
            {
              "name": "expirationTime",
              "type": "uint256"
            },
            {
              "name": "salt",
              "type": "uint256"
            }
          ],
          "indexed": false,
          "name": "order",
          "type": "tuple"
        },
        {
          "indexed": false,
          "name": "orderbookInclusionDesired",
          "type": "bool"
        }
      ],
      "name": "OrderApproved",
      "type": "event"
    },
    {
      "anonymous": false,
      "inputs": [
        {
          "indexed": false,
          "name": "hash",
          "type": "bytes32"
        }
      ],
      "name": "OrderCancelled",
      "type": "event"
    },
    {
      "anonymous": false,
      "inputs": [
        {
          "indexed": false,
          "name": "hash",
          "type": "bytes32"
        },
        {
          "indexed": true,
          "name": "bidder",
          "type": "address"
        },
        {
          "indexed": false,
          "name": "amount",
          "type": "uint256"
        },
        {
          "indexed": false,
          "name": "timestamp",
          "type": "uint256"
        }
      ],
      "name": "OrderBidOn",
      "type": "event"
    },
    {
      "anonymous": false,
      "inputs": [
        {
          "components": [
            {
              "name": "exchange",
              "type": "address"
            },
            {
              "name": "maker",
              "type": "address"
            },
            {
              "name": "taker",
              "type": "address"
            },
            {
              "name": "makerFee",
              "type": "uint256"
            },
            {
              "name": "takerFee",
              "type": "uint256"
            },
            {
              "name": "feeRecipient",
              "type": "address"
            },
            {
              "name": "side",
              "type": "uint8"
            },
            {
              "name": "saleKind",
              "type": "uint8"
            },
            {
              "name": "target",
              "type": "address"
            },
            {
              "name": "howToCall",
              "type": "uint8"
            },
            {
              "name": "calldata",
              "type": "bytes"
            },
            {
              "name": "replacementPattern",
              "type": "bytes"
            },
            {
              "name": "metadataHash",
              "type": "bytes"
            },
            {
              "name": "paymentToken",
              "type": "address"
            },
            {
              "name": "basePrice",
              "type": "uint256"
            },
            {
              "name": "extra",
              "type": "uint256"
            },
            {
              "name": "listingTime",
              "type": "uint256"
            },
            {
              "name": "expirationTime",
              "type": "uint256"
            },
            {
              "name": "salt",
              "type": "uint256"
            }
          ],
          "indexed": false,
          "name": "buy",
          "type": "tuple"
        },
        {
          "components": [
            {
              "name": "exchange",
              "type": "address"
            },
            {
              "name": "maker",
              "type": "address"
            },
            {
              "name": "taker",
              "type": "address"
            },
            {
              "name": "makerFee",
              "type": "uint256"
            },
            {
              "name": "takerFee",
              "type": "uint256"
            },
            {
              "name": "feeRecipient",
              "type": "address"
            },
            {
              "name": "side",
              "type": "uint8"
            },
            {
              "name": "saleKind",
              "type": "uint8"
            },
            {
              "name": "target",
              "type": "address"
            },
            {
              "name": "howToCall",
              "type": "uint8"
            },
            {
              "name": "calldata",
              "type": "bytes"
            },
            {
              "name": "replacementPattern",
              "type": "bytes"
            },
            {
              "name": "metadataHash",
              "type": "bytes"
            },
            {
              "name": "paymentToken",
              "type": "address"
            },
            {
              "name": "basePrice",
              "type": "uint256"
            },
            {
              "name": "extra",
              "type": "uint256"
            },
            {
              "name": "listingTime",
              "type": "uint256"
            },
            {
              "name": "expirationTime",
              "type": "uint256"
            },
            {
              "name": "salt",
              "type": "uint256"
            }
          ],
          "indexed": false,
          "name": "sell",
          "type": "tuple"
        }
      ],
      "name": "OrdersMatched",
      "type": "event"
    },
    {
      "anonymous": false,
      "inputs": [
        {
          "indexed": true,
          "name": "user",
          "type": "address"
        },
        {
          "indexed": true,
          "name": "token",
          "type": "address"
        },
        {
          "indexed": false,
          "name": "amount",
          "type": "uint256"
        }
      ],
      "name": "Credited",
      "type": "event"
    },
    {
      "anonymous": false,
      "inputs": [
        {
          "indexed": true,
          "name": "user",
          "type": "address"
        },
        {
          "indexed": true,
          "name": "token",
          "type": "address"
        },
        {
          "indexed": false,
          "name": "amount",
          "type": "uint256"
        }
      ],
      "name": "Debited",
      "type": "event"
    },
    {
      "anonymous": false,
      "inputs": [
        {
          "indexed": true,
          "name": "user",
          "type": "address"
        },
        {
          "indexed": true,
          "name": "token",
          "type": "address"
        },
        {
          "indexed": false,
          "name": "amount",
          "type": "uint256"
        }
      ],
      "name": "Locked",
      "type": "event"
    },
    {
      "anonymous": false,
      "inputs": [
        {
          "indexed": true,
          "name": "user",
          "type": "address"
        },
        {
          "indexed": true,
          "name": "token",
          "type": "address"
        },
        {
          "indexed": false,
          "name": "amount",
          "type": "uint256"
        }
      ],
      "name": "Unlocked",
      "type": "event"
    }
  ],
  "bytecode": "0x60606040526002805460ff19169055341561001957600080fd5b60405160408061384783398101604052808051919060200180516002805461010060a860020a031916610100600160a060020a039384160217905560038054600160a060020a0319169490911693909317909255506137c890508061007f6000396000f3006060604052600436106100f85763ffffffff60e060020a60003504166306fdde0381146100fd5780630e5d2e21146101875780630e917f76146101b6578063239e83df146101e7578063386cc797146102bc5780633c88e9a81461041f5780634e10c95d14610689578063532aa1c8146106c0578063562b2ebc146106f857806370dc70631461080f5780637b103999146109635780638340f5491461097657806390a636591461099e578063c23f001f14610bb4578063d404a96c14610bd9578063db20266f14610d1c578063db2ec6bd14610d41578063e22b847814610d66578063e60a95d714610ea5578063f771e78b14610ff4575b600080fd5b341561010857600080fd5b610110611019565b60405160208082528190810183818151815260200191508051906020019080838360005b8381101561014c578082015183820152602001610134565b50505050905090810190601f1680156101795780820380516001836020036101000a031916815260200191505b509250505060405180910390f35b341561019257600080fd5b61019a611050565b604051600160a060020a03909116815260200160405180910390f35b34156101c157600080fd5b6101e5600160a060020a036004358116906024358116906044359060643516611064565b005b34156101f257600080fd5b61011060046024813581810190830135806020601f8201819004810201604051908101604052818152929190602084018383808284378201915050505050509190803590602001908201803590602001908080601f01602080910402602001604051908101604052818152929190602084018383808284378201915050505050509190803590602001908201803590602001908080601f01602080910402602001604051908101604052818152929190602084018383808284375094965061116595505050505050565b34156102c757600080fd5b61040b600460c481600660c06040519081016040529190828260c080828437820191505050505091908060e001906007806020026040519081016040529190828260e08082843750939560ff8635811696602080820135831697506040808301359093169650929450608081019350606001358401808301929035918291601f83018190048102019051908101604052818152929190602084018383808284378201915050505050509190803590602001908201803590602001908080601f01602080910402602001604051908101604052818152929190602084018383808284378201915050505050509190803590602001908201803590602001908080601f0160208091040260200160405190810160405281815292919060208401838380828437509496505060ff8535169460208101359450604001359250611180915050565b604051901515815260200160405180910390f35b341561042a57600080fd5b6101e5600461018481600c610180604051908101604052919082826101808082843782019150505050509190806101c00190600e80602002604051908101604052919082826101c080828437820191505050505091908060c001906006806020026040519081016040529190828260c0808284375093959460208082019550903586018082019450359250829150601f8201819004810201604051908101604052818152929190602084018383808284378201915050505050509190803590602001908201803590602001908080601f01602080910402602001604051908101604052818152929190602084018383808284378201915050505050509190803590602001908201803590602001908080601f01602080910402602001604051908101604052818152929190602084018383808284378201915050505050509190803590602001908201803590602001908080601f01602080910402602001604051908101604052818152929190602084018383808284378201915050505050509190803590602001908201803590602001908080601f01602080910402602001604051908101604052818152929190602084018383808284378201915050505050509190803590602001908201803590602001908080601f016020809104026020016040519081016040528181529291906020840183838082843782019150505050505091908060400190600280602002604051908101604052809291908260026020028082843782019150505050509190806080019060048060200260405190810160405291908282608080828437509395506112d8945050505050565b341561069457600080fd5b6106ae600160a060020a03600435811690602435166115d6565b60405190815260200160405180910390f35b34156106cb57600080fd5b6106d6600435611601565b604051600160a060020a03909216825260208201526040908101905180910390f35b341561070357600080fd5b61040b60046024813581810190830135806020601f8201819004810201604051908101604052818152929190602084018383808284378201915050505050509190803590602001908201803590602001908080601f01602080910402602001604051908101604052818152929190602084018383808284378201915050505050509190803590602001908201803590602001908080601f01602080910402602001604051908101604052818152929190602084018383808284378201915050505050509190803590602001908201803590602001908080601f01602080910402602001604051908101604052818152929190602084018383808284375094965061162695505050505050565b341561081a57600080fd5b6101e5600460c481600660c06040519081016040529190828260c080828437820191505050505091908060e001906007806020026040519081016040529190828260e08082843750939560ff8635811696602080820135831697506040808301359093169650929450608081019350606001358401808301929035918291601f83018190048102019051908101604052818152929190602084018383808284378201915050505050509190803590602001908201803590602001908080601f01602080910402602001604051908101604052818152929190602084018383808284378201915050505050509190803590602001908201803590602001908080601f0160208091040260200160405190810160405281815292919060208401838380828437509496505050833560ff16936020810135935060408101359250606001359050611653565b341561096e57600080fd5b61019a611793565b341561098157600080fd5b6101e5600160a060020a03600435811690602435166044356117a2565b34156109a957600080fd5b61040b600461018481600c610180604051908101604052919082826101808082843782019150505050509190806101c00190600e80602002604051908101604052919082826101c080828437820191505050505091908060c001906006806020026040519081016040529190828260c0808284375093959460208082019550903586018082019450359250829150601f8201819004810201604051908101604052818152929190602084018383808284378201915050505050509190803590602001908201803590602001908080601f01602080910402602001604051908101604052818152929190602084018383808284378201915050505050509190803590602001908201803590602001908080601f01602080910402602001604051908101604052818152929190602084018383808284378201915050505050509190803590602001908201803590602001908080601f01602080910402602001604051908101604052818152929190602084018383808284378201915050505050509190803590602001908201803590602001908080601f01602080910402602001604051908101604052818152929190602084018383808284378201915050505050509190803590602001908201803590602001908080601f01602080910402602001604051908101604052818152929190602084018383808284375094965061186295505050505050565b3415610bbf57600080fd5b6106ae600160a060020a0360043581169060243516611b04565b3415610be457600080fd5b6101e5600460c481600660c06040519081016040529190828260c080828437820191505050505091908060e001906007806020026040519081016040529190828260e08082843750939560ff8635811696602080820135831697506040808301359093169650929450608081019350606001358401808301929035918291601f83018190048102019051908101604052818152929190602084018383808284378201915050505050509190803590602001908201803590602001908080601f01602080910402602001604051908101604052818152929190602084018383808284378201915050505050509190803590602001908201803590602001908080601f016020809104026020016040519081016040528181529291906020840183838082843750949650505050913515159150611b1e9050565b3415610d2757600080fd5b6106ae600160a060020a0360043581169060243516611c48565b3415610d4c57600080fd5b6106ae600160a060020a0360043581169060243516611c65565b3415610d7157600080fd5b6106ae600460c481600660c06040519081016040529190828260c080828437820191505050505091908060e001906007806020026040519081016040529190828260e08082843750939560ff8635811696602080820135831697506040808301359093169650929450608081019350606001358401808301929035918291601f83018190048102019051908101604052818152929190602084018383808284378201915050505050509190803590602001908201803590602001908080601f01602080910402602001604051908101604052818152929190602084018383808284378201915050505050509190803590602001908201803590602001908080601f016020809104026020016040519081016040528181529291906020840183838082843750949650611cb195505050505050565b3415610eb057600080fd5b6101e5600460c481600660c06040519081016040529190828260c080828437820191505050505091908060e001906007806020026040519081016040529190828260e08082843750939560ff8635811696602080820135831697506040808301359093169650929450608081019350606001358401808301929035918291601f83018190048102019051908101604052818152929190602084018383808284378201915050505050509190803590602001908201803590602001908080601f01602080910402602001604051908101604052818152929190602084018383808284378201915050505050509190803590602001908201803590602001908080601f0160208091040260200160405190810160405281815292919060208401838380828437509496505060ff8535169460208101359450604001359250611dd2915050565b3415610fff57600080fd5b6106ae600160a060020a0360043581169060243516611f03565b60408051908101604052601781527f50726f6a6563742057797665726e2045786368616e6765000000000000000000602082015281565b6002546101009004600160a060020a031681565b600084600160a060020a031633600160a060020a031614151561108657600080fd5b600160a060020a03808616600081815260208181526040808320948916808452948252808320549383526001825280832094835293905291909120546110cc9190611f2c565b9050808311156110db57600080fd5b6110e6858585611f3e565b83600160a060020a031663a9059cbb838560006040516020015260405160e060020a63ffffffff8516028152600160a060020a0390921660048301526024820152604401602060405180830381600087803b151561114357600080fd5b6102c65a03f1151561115457600080fd5b505050604051805150505050505050565b61116d6136b0565b6111788484846120f1565b949350505050565b600061118a6136c2565b610260604051908101604052808e51600160a060020a031681526020018e60016020020151600160a060020a0316815260200160408f0151600160a060020a031681526020018d5181526020018d60016020020151815260200160608f0151600160a060020a031681526020018c600181111561120357fe5b81526020018b600281111561121457fe5b815260200160808f0151600160a060020a031681526020018a600381111561123857fe5b8152602081018a9052604081018990526060810188905260800160a08f0151600160a060020a0316815260200160408e0151815260200160608e0151815260200160808e0151815260200160a08e0151815260200160c08e0151905290506112c76112a282612327565b826060604051908101604090815260ff8a1682526020820189905281018790526123dc565b9d9c50505050505050505050505050565b6115c9610260604051908101604052808d51600160a060020a031681526020018d60016020020151600160a060020a0316815260200160408e0151600160a060020a031681526020018c5181526020018c60016020020151815260200160608e0151600160a060020a031681526020018b5160ff16600181111561135857fe5b600181111561136357fe5b81526020018b6001602002015160ff16600281111561137e57fe5b600281111561138957fe5b815260200160808e0151600160a060020a0316815260200160408c015160ff1660038111156113b457fe5b60038111156113bf57fe5b8152602081018b9052604081018990526060810187905260800160a08e0151600160a060020a0316815260200160408d0151815260200160608d0151815260200160808d0151815260200160a08d0151815260200160c08d01519052606060405190810160405280855160ff1681526020018451815260200184600160200201519052610260604051908101604052808f60066020020151600160a060020a031681526020018f60076020020151600160a060020a031681526020018f60086020020151600160a060020a0316815260200160e08f015181526020016101008f015181526020018f60096020020151600160a060020a0316815260200160608e015160ff1660018111156114cf57fe5b60018111156114da57fe5b815260200160808e015160ff1660028111156114f257fe5b60028111156114fd57fe5b81526020018f600a6020020151600160a060020a0316815260200160a08e015160ff16600381111561152b57fe5b600381111561153657fe5b8152602081018c9052604081018a9052606081018890526080018f600b6020020151600160a060020a031681526020016101208f015181526020016101408f015181526020016101608f015181526020016101808f015181526020016101a08f01519052606060405190810160405280602088015160ff16815260200160408701518152602001606087015190526124fd565b5050505050505050505050565b600160a060020a03918216600090815260016020908152604080832093909416825291909152205490565b60046020526000908152604090208054600190910154600160a060020a039091169082565b60006116338584866120f1565b5061163f8386846120f1565b5061164a858461285f565b95945050505050565b611785610260604051908101604052808e51600160a060020a031681526020018e60016020020151600160a060020a0316815260200160408f0151600160a060020a031681526020018d5181526020018d60016020020151815260200160608f0151600160a060020a031681526020018c60018111156116cf57fe5b81526020018b60028111156116e057fe5b815260200160808f0151600160a060020a031681526020018a600381111561170457fe5b8152602081018a9052604081018990526060810188905260800160a08f0151600160a060020a0316815260200160408e0151815260200160608e0151815260200160808e0151815260200160a08e0151815260200160c08e015190526060604051908101604090815260ff88168252602082018790528101859052836128f5565b505050505050505050505050565b600354600160a060020a031681565b82600160a060020a031633600160a060020a03161415156117c257600080fd5b6117cd838383612a8f565b81600160a060020a03166323b872dd84308460006040516020015260405160e060020a63ffffffff8616028152600160a060020a0393841660048201529190921660248201526044810191909152606401602060405180830381600087803b151561183757600080fd5b6102c65a03f1151561184857600080fd5b50505060405180519050151561185d57600080fd5b505050565b6000611af6610260604051908101604052808c51600160a060020a031681526020018c60016020020151600160a060020a0316815260200160408d0151600160a060020a031681526020018b5181526020018b60016020020151815260200160608d0151600160a060020a031681526020018a5160ff1660018111156118e457fe5b60018111156118ef57fe5b81526020018a6001602002015160ff16600281111561190a57fe5b600281111561191557fe5b815260200160808d0151600160a060020a0316815260200160408b015160ff16600381111561194057fe5b600381111561194b57fe5b8152602081018a9052604081018890526060810186905260800160a08d0151600160a060020a0316815260200160408c0151815260200160608c0151815260200160808c0151815260200160a08c0151815260200160c08c015190526102606040519081016040528060c08e0151600160a060020a0316815260200160e08e0151600160a060020a031681526020016101008e0151600160a060020a0316815260200160e08d015181526020016101008d015181526020016101208e0151600160a060020a0316815260200160608c015160ff166001811115611a2a57fe5b6001811115611a3557fe5b815260200160808c015160ff166002811115611a4d57fe5b6002811115611a5857fe5b81526020016101408e0151600160a060020a0316815260200160a08c015160ff166003811115611a8457fe5b6003811115611a8f57fe5b8152602081018a905260408101889052606081018690526080016101608e0151600160a060020a031681526020016101208d015181526020016101408d015181526020016101608d015181526020016101808d015181526020016101a08d01519052612b23565b9a9950505050505050505050565b600060208181529281526040808220909352908152205481565b611b266136c2565b610260604051908101604052808b51600160a060020a031681526020018b60016020020151600160a060020a0316815260200160408c0151600160a060020a031681526020018a5181526020018a60016020020151815260200160608c0151600160a060020a03168152602001896001811115611b9f57fe5b8152602001886002811115611bb057fe5b815260200160808c0151600160a060020a03168152602001876003811115611bd457fe5b815260208101879052604081018690526060810185905260800160a08c0151600160a060020a0316815260200160408b0151815260200160608b0151815260200160808b0151815260200160a08b0151815260200160c08b015190529050611c3c8183612c49565b50505050505050505050565b600160209081526000928352604080842090915290825290205481565b600160a060020a03808316600081815260208181526040808320948616808452948252808320549383526001825280832094835293905291822054611caa9190611f2c565b9392505050565b6000611dc5610260604051908101604052808b51600160a060020a031681526020018b60016020020151600160a060020a0316815260200160408c0151600160a060020a031681526020018a5181526020018a60016020020151815260200160608c0151600160a060020a03168152602001896001811115611d2f57fe5b8152602001886002811115611d4057fe5b815260200160808c0151600160a060020a03168152602001876003811115611d6457fe5b815260208101879052604081018690526060810185905260800160a08c0151600160a060020a0316815260200160408b0151815260200160608b0151815260200160808b0151815260200160a08b0151815260200160c08b01519052612d0d565b9998505050505050505050565b6115c9610260604051908101604052808d51600160a060020a031681526020018d60016020020151600160a060020a0316815260200160408e0151600160a060020a031681526020018c5181526020018c60016020020151815260200160608e0151600160a060020a031681526020018b6001811115611e4e57fe5b81526020018a6002811115611e5f57fe5b815260200160808e0151600160a060020a03168152602001896003811115611e8357fe5b815260208101899052604081018890526060810187905260800160a08e0151600160a060020a0316815260200160408d0151815260200160608d0151815260200160808d0151815260200160a08d0151815260200160c08d015190526060604051908101604090815260ff87168252602082018690528101849052612d3f565b600160a060020a0391821660009081526020818152604080832093909416825291909152205490565b600082821115611f3857fe5b50900390565b600160a060020a038084166000818152602081815260408083209487168084529482528083205493835260018252808320948352939052918220548291611f8491611f2c565b915083600160a060020a031685600160a060020a03167f9407bd81f01ad8f5ae4a2487b63d3d1b1947257c2dcdda3ea183dc8e6965cc6e8560405190815260200160405180910390a382821061202b57600160a060020a03808616600090815260208181526040808320938816835292905220546120029084611f2c565b600160a060020a03808716600090815260208181526040808320938916835292905220556120ea565b6120358383611f2c565b600160a060020a038087166000908152602081815260408083209389168084529390915280822082905592935090916323b872dd91889130918691516020015260405160e060020a63ffffffff8616028152600160a060020a0393841660048201529190921660248201526044810191909152606401602060405180830381600087803b15156120c457600080fd5b6102c65a03f115156120d557600080fd5b5050506040518051905015156120ea57600080fd5b5050505050565b6120f96136b0565b612101613773565b60008061010060405190810160409081527f800000000000000000000000000000000000000000000000000000000000000082527f400000000000000000000000000000000000000000000000000000000000000060208301527f2000000000000000000000000000000000000000000000000000000000000000908201527f100000000000000000000000000000000000000000000000000000000000000060608201527f080000000000000000000000000000000000000000000000000000000000000060808201527f040000000000000000000000000000000000000000000000000000000000000060a08201527f020000000000000000000000000000000000000000000000000000000000000060c082015260f860020a60e08201529250855187511461223257600080fd5b6008875181151561223f57fe5b048551101561224d57600080fd5b600091505b865182101561231c5782600883066008811061226a57fe5b602002015185600884048151811061227e57fe5b016020015160f860020a900460f860020a0216600160f860020a031916600060f860020a02149050806122ce578582815181106122b757fe5b016020015160f860020a900460f860020a026122ed565b8682815181106122da57fe5b016020015160f860020a900460f860020a025b8783815181106122f957fe5b906020010190600160f860020a031916908160001a905350600190910190612252565b509495945050505050565b60006123316136b0565b600060408051908101604052601c81527f19457468657265756d205369676e6564204d6573736167653a0a333200000000602082015291508161237385612d0d565b6040518083805190602001908083835b602083106123a25780518252601f199092019160209182019101612383565b6001836020036101000a03801982511681845116179092525050509190910192835250506020019050604051908190039020949350505050565b6000600160a060020a0330168351600160a060020a031614801561240f575060008481526005602052604090205460ff16155b80156124de57508260200151600160a060020a031633600160a060020a03161480612448575060008481526006602052604090205460ff165b806124de57508260200151600160a060020a03166001858451856020015186604001516040516000815260200160405260006040516020015260405193845260ff90921660208085019190915260408085019290925260608401929092526080909201915160208103908084039060008661646e5a03f115156124ca57600080fd5b505060206040510351600160a060020a0316145b801561117857506111788360c001518460e00151856102200151612dc4565b60025460009081908190819060ff161561251657600080fd5b6002805460ff1916600117905561252d8888612e13565b93506125398686612e13565b92506125458887612b23565b151561255057600080fd5b6000838152600460205260409020915061258c60e089015187602001518a61022001516040805190810160405260008082526020820152612e37565b151561259757600080fd5b6125d28660e00151896020015188610220015185604080519081016040528154600160a060020a031681526001909101546020820152612e37565b15156125dd57600080fd5b6125f78861014001518761014001518a61016001516120f1565b506126128661014001518961014001518861016001516120f1565b5061262788610140015187610140015161285f565b151561263257600080fd5b600354600160a060020a031663c4552791602088015160006040516020015260405160e060020a63ffffffff8416028152600160a060020a039091166004820152602401602060405180830381600087803b151561268f57600080fd5b6102c65a03f115156126a057600080fd5b5050506040518051915050600160a060020a03811615156126c057600080fd5b6000848152600560205260408082208054600160ff19918216811790925586845291909220805490911690911790556126f98887612e88565b80600160a060020a0316631b0f7ba98761010001518861012001518961014001516000604051602001526040518463ffffffff1660e060020a0281526004018084600160a060020a0316600160a060020a0316815260200183600381111561275d57fe5b60ff16815260200180602001828103825283818151815260200191508051906020019080838360005b8381101561279e578082015183820152602001612786565b50505050905090810190601f1680156127cb5780820380516001836020036101000a031916815260200191505b50945050505050602060405180830381600087803b15156127eb57600080fd5b6102c65a03f115156127fc57600080fd5b50505060405180519050151561281157600080fd5b7f9ff26dd672a3e8185e401656a709aa9a05045a9043260b8a0a31d2746e396669888760405191825260208201526040908101905180910390a150506002805460ff19169055505050505050565b600080825184511461287457600091506128ee565b5060005b83518110156128e95782818151811061288d57fe5b016020015160f860020a900460f860020a02600160f860020a0319168482815181106128b557fe5b016020015160f860020a900460f860020a02600160f860020a0319161415156128e157600091506128ee565b600101612878565b600191505b5092915050565b6002546000908190819060ff161561290c57600080fd5b6002805460ff191660011790556129238686612e13565b6000818152600460205260409020909350915061297d60c08701518760e00151886101c00151896101e001518a610220015187604080519081016040528154600160a060020a031681526001909101546020820152612f42565b90508084101561298c57600080fd5b604080519081016040908152600160a060020a0333168252602080830187905260008681526004909152208151815473ffffffffffffffffffffffffffffffffffffffff1916600160a060020a03919091161781556020820151600190910155508154600160a060020a031615612a1c578154612a1c90600160a060020a03166101a08801518460010154612fae565b612a2c33876101a0015186613060565b33600160a060020a03167f6a75ae33d1548c67bfaaa25fac7ffdd9e545fa843c22b7e883e4ac8edabb37a284864260405192835260208301919091526040808301919091526060909101905180910390a250506002805460ff1916905550505050565b600160a060020a0380841660009081526020818152604080832093861683529290522054612abd9082613252565b600160a060020a0380851660008181526020818152604080832094881680845294909152908190209390935590917f4e45da441832cf53bdaa69235704fc0575e68210f459ee1562911024b12967d59084905190815260200160405180910390a3505050565b6000808360c001516001811115612b3657fe5b148015612b52575060018260c001516001811115612b5057fe5b145b8015612b795750816101a00151600160a060020a0316836101a00151600160a060020a0316145b8015612bb5575060006040830151600160a060020a03161480612bb557508260200151600160a060020a03168260400151600160a060020a0316145b8015612bf1575060006040840151600160a060020a03161480612bf157508160200151600160a060020a03168360400151600160a060020a0316145b8015612c185750816101000151600160a060020a0316836101000151600160a060020a0316145b8015611caa57508161012001516003811115612c3057fe5b8361012001516003811115612c4157fe5b149392505050565b60008260200151600160a060020a031633600160a060020a0316141515612c6f57600080fd5b612c7883612327565b60008181526006602052604090205490915060ff1615612c9757600080fd5b60008181526006602052604090819020805460ff19166001179055600160a060020a033316907fc2dbd1050ed906aad01d660eb6004ecefd4b48906b4b93197cd8ea92d869503f9083908690869051928352602083019190915215156040808301919091526060909101905180910390a2505050565b6000612d1882613261565b612d2183613418565b60405191825260208201526040908101905180910390209050919050565b6000612d4b8383612e13565b90508260200151600160a060020a031633600160a060020a0316141515612d7157600080fd5b60008181526005602052604090819020805460ff191660011790557f5152abf959f6564662358c2e52b702259b78bac5ee7842a0f01937e670efcc7d9082905190815260200160405180910390a1505050565b60006001836002811115612dd457fe5b141580612dec57506001846001811115612dea57fe5b145b801561117857506000836002811115612e0157fe5b14806111785750506000901192915050565b600080612e1f84612327565b9050612e2c8185856123dc565b1515611caa57600080fd5b60006001856002811115612e4757fe5b1415612e76578151600160a060020a031684600160a060020a0316148015612e6f5750824210155b9050611178565b821580612e6f57508242109050611178565b60008060046000612e9885612d0d565b815260208101919091526040016000209150612eb58484846134f2565b9050612ece84602001518560a0015186606001516135c2565b612ee583602001518460a0015185606001516135c2565b8154600160a060020a031615612f14578154612f1490600160a060020a03166101a08501518460010154612fae565b612f288460200151846101a0015183611f3e565b612f3c8360200151846101a0015183612a8f565b50505050565b60006001876001811115612f5257fe5b148015612f6a57506001866002811115612f6857fe5b145b8015612f7557508242105b1515612f8057600080fd5b60008251600160a060020a03161415612f9a575083612fa4565b8382602001510190505b9695505050505050565b600160a060020a03808416600090815260016020908152604080832093861683529290522054612fde9082611f2c565b600160a060020a038481166000908152600160209081526040808320938716835292905290812082905590101561301457600080fd5b81600160a060020a031683600160a060020a03167fe6e0ef9cd056ca98561ca60e347ada61e1ede2f1142a078951b7a52e1e508e608360405190815260200160405180910390a3505050565b600160a060020a0380841660009081526001602090815260408083209386168352929052908120546130929083613252565b600160a060020a0385811660008181526001602090815260408083209489168084528583528184208790559383528282528083209383529281529190205491905290111561320557600160a060020a0380851660008181526001602090815260408083209488168084529482528083205493835282825280832094835293905291909120546131219190611f2c565b600160a060020a03808616600090815260208181526040808320938816835292905220549091506131529082613252565b600160a060020a03808616600090815260208181526040808320938816808452939091528082209390935590916323b872dd91879130918691516020015260405160e060020a63ffffffff8616028152600160a060020a0393841660048201529190921660248201526044810191909152606401602060405180830381600087803b15156131df57600080fd5b6102c65a03f115156131f057600080fd5b50505060405180519050151561320557600080fd5b82600160a060020a031684600160a060020a03167f989eaa915cbb416ea3d6f9a63b1a3de51770c7674b11fe21ecdf76b4e1d139108460405190815260200160405180910390a350505050565b600082820183811015611caa57fe5b6000815182602001518360400151846060015185608001518660a001518760c001518860e001518961010001518a61012001518b61014001518c61016001516040516c01000000000000000000000000600160a060020a03808f16820283528d8116820260148401528c811682026028840152603c83018c9052605c83018b9052891602607c820152609081018760018111156132fa57fe5b60ff1660f860020a02815260010186600281111561331457fe5b60ff1660f860020a02815260010185600160a060020a0316600160a060020a03166c0100000000000000000000000002815260140184600381111561335557fe5b60ff1660f860020a02815260010183805190602001908083835b6020831061338e5780518252601f19909201916020918201910161336f565b6001836020036101000a038019825116818451161790925250505091909101905082805190602001908083835b602083106133da5780518252601f1990920191602091820191016133bb565b6001836020036101000a0380198251168184511617909252505050919091019d5060409c505050505050505050505050505180910390209050919050565b6000816101800151826101a00151836101c00151846101e001518561020001518661022001518761024001516040518088805190602001908083835b602083106134735780518252601f199092019160209182019101613454565b6001836020036101000a03801982511681845116808217855250505050505090500187600160a060020a0316600160a060020a03166c0100000000000000000000000002815260140186815260200185815260200184815260200183815260200182815260200197505050505050505060405180910390209050919050565b60008060006135448560c001518660e00151876101c00151886101e001518961020001518a61022001518a604080519081016040528154600160a060020a0316815260019091015460208201526135ec565b91506135938660c001518760e00151886101c00151896101e001518a61020001518b61022001518a604080519081016040528154600160a060020a0316815260019091015460208201526135ec565b9050818110156135a257600080fd5b856102000151856102000151106135b95780612fa4565b50949350505050565b600081111561185d5761185d8383600260019054906101000a9004600160a060020a03168461369a565b600080808860028111156135fc57fe5b141561360a5786915061368e565b600188600281111561361857fe5b14156136425760008351600160a060020a0316141561363657600080fd5b8260200151915061368e565b600288600281111561365057fe5b14156100f857848403854203870281151561366757fe5b049050600189600181111561367857fe5b141561368857808703915061368e565b80870191505b50979650505050505050565b6136a5838383612a8f565b612f3c848383611f3e565b60206040519081016040526000815290565b6102606040519081016040908152600080835260208301819052908201819052606082018190526080820181905260a0820181905260c0820181905260e08201819052610100820181905261012082015261014081016137206136b0565b815260200161372d6136b0565b815260200161373a6136b0565b81526020016000600160a060020a0316815260200160008152602001600081526020016000815260200160008152602001600081525090565b6101006040519081016040526008815b60008152600019909101906020018161378357905050905600a165627a7a72305820c3f7a716aa3f7f56949da0c20b7598d7137b4c9c49bdc1a19e4dc1ef92044a380029",
  "source": "/*\n\n  << Project Wyvern Exchange >>\n\n*/\n\npragma solidity 0.4.18;\n\nimport \"./exchange/Exchange.sol\";\n\n/**\n * @title WyvernExchange\n * @author Project Wyvern Developers\n */\ncontract WyvernExchange is Exchange {\n\n    string public constant name = \"Project Wyvern Exchange\";\n\n    function WyvernExchange (ProxyRegistry registryAddress, ERC20 tokenAddress) public {\n        exchangeTokenAddress = tokenAddress;\n        registry = registryAddress;\n    }\n\n}\n",
  "sourcePath": "/home/cwgoes/working/crypto/wyvern/wyvern-ethereum/contracts/WyvernExchange.sol",
  "compiler": {
    "name": "solc",
    "version": "0.4.18+commit.9cf6e910.Emscripten.clang"
  },
  "schemaVersion": "1.0.1",
  "updatedAt": "2018-01-23T06:30:03.659Z"
}