{
  "contractName": "WyvernToken",
  "abi": [
    {
      "constant": true,
      "inputs": [],
      "name": "MULTIPLIER",
      "outputs": [
        {
          "name": "",
          "type": "uint256"
        }
      ],
      "payable": false,
      "stateMutability": "view",
      "type": "function"
    },
    {
      "constant": true,
      "inputs": [],
      "name": "name",
      "outputs": [
        {
          "name": "",
          "type": "string"
        }
      ],
      "payable": false,
      "stateMutability": "view",
      "type": "function"
    },
    {
      "constant": true,
      "inputs": [],
      "name": "maximumRedeemable",
      "outputs": [
        {
          "name": "",
          "type": "uint256"
        }
      ],
      "payable": false,
      "stateMutability": "view",
      "type": "function"
    },
    {
      "constant": false,
      "inputs": [
        {
          "name": "_spender",
          "type": "address"
        },
        {
          "name": "_value",
          "type": "uint256"
        }
      ],
      "name": "approve",
      "outputs": [
        {
          "name": "",
          "type": "bool"
        }
      ],
      "payable": false,
      "stateMutability": "nonpayable",
      "type": "function"
    },
    {
      "constant": true,
      "inputs": [],
      "name": "totalSupply",
      "outputs": [
        {
          "name": "",
          "type": "uint256"
        }
      ],
      "payable": false,
      "stateMutability": "view",
      "type": "function"
    },
    {
      "constant": true,
      "inputs": [
        {
          "name": "proof",
          "type": "bytes"
        },
        {
          "name": "merkleLeafHash",
          "type": "bytes32"
        }
      ],
      "name": "verifyProof",
      "outputs": [
        {
          "name": "",
          "type": "bool"
        }
      ],
      "payable": false,
      "stateMutability": "view",
      "type": "function"
    },
    {
      "constant": true,
      "inputs": [],
      "name": "multiplier",
      "outputs": [
        {
          "name": "",
          "type": "uint256"
        }
      ],
      "payable": false,
      "stateMutability": "view",
      "type": "function"
    },
    {
      "constant": false,
      "inputs": [
        {
          "name": "_from",
          "type": "address"
        },
        {
          "name": "_to",
          "type": "address"
        },
        {
          "name": "_value",
          "type": "uint256"
        }
      ],
      "name": "transferFrom",
      "outputs": [
        {
          "name": "",
          "type": "bool"
        }
      ],
      "payable": false,
      "stateMutability": "nonpayable",
      "type": "function"
    },
    {
      "constant": true,
      "inputs": [],
      "name": "decimals",
      "outputs": [
        {
          "name": "",
          "type": "uint256"
        }
      ],
      "payable": false,
      "stateMutability": "view",
      "type": "function"
    },
    {
      "constant": true,
      "inputs": [
        {
          "name": "txid",
          "type": "bytes32"
        },
        {
          "name": "originalAddress",
          "type": "bytes20"
        },
        {
          "name": "outputIndex",
          "type": "uint8"
        },
        {
          "name": "satoshis",
          "type": "uint256"
        },
        {
          "name": "proof",
          "type": "bytes"
        }
      ],
      "name": "verifyUTXO",
      "outputs": [
        {
          "name": "",
          "type": "bool"
        }
      ],
      "payable": false,
      "stateMutability": "view",
      "type": "function"
    },
    {
      "constant": false,
      "inputs": [
        {
          "name": "_value",
          "type": "uint256"
        }
      ],
      "name": "burn",
      "outputs": [],
      "payable": false,
      "stateMutability": "nonpayable",
      "type": "function"
    },
    {
      "constant": true,
      "inputs": [
        {
          "name": "pubKey",
          "type": "bytes"
        }
      ],
      "name": "pubKeyToEthereumAddress",
      "outputs": [
        {
          "name": "",
          "type": "address"
        }
      ],
      "payable": false,
      "stateMutability": "pure",
      "type": "function"
    },
    {
      "constant": true,
      "inputs": [],
      "name": "MINT_AMOUNT",
      "outputs": [
        {
          "name": "",
          "type": "uint256"
        }
      ],
      "payable": false,
      "stateMutability": "view",
      "type": "function"
    },
    {
      "constant": false,
      "inputs": [
        {
          "name": "_spender",
          "type": "address"
        },
        {
          "name": "_subtractedValue",
          "type": "uint256"
        }
      ],
      "name": "decreaseApproval",
      "outputs": [
        {
          "name": "",
          "type": "bool"
        }
      ],
      "payable": false,
      "stateMutability": "nonpayable",
      "type": "function"
    },
    {
      "constant": true,
      "inputs": [
        {
          "name": "_owner",
          "type": "address"
        }
      ],
      "name": "balanceOf",
      "outputs": [
        {
          "name": "balance",
          "type": "uint256"
        }
      ],
      "payable": false,
      "stateMutability": "view",
      "type": "function"
    },
    {
      "constant": false,
      "inputs": [
        {
          "name": "destination",
          "type": "address"
        }
      ],
      "name": "releaseTokens",
      "outputs": [],
      "payable": false,
      "stateMutability": "nonpayable",
      "type": "function"
    },
    {
      "constant": true,
      "inputs": [
        {
          "name": "merkleLeafHash",
          "type": "bytes32"
        },
        {
          "name": "proof",
          "type": "bytes"
        }
      ],
      "name": "verifyUTXOHash",
      "outputs": [
        {
          "name": "",
          "type": "bool"
        }
      ],
      "payable": false,
      "stateMutability": "view",
      "type": "function"
    },
    {
      "constant": true,
      "inputs": [],
      "name": "symbol",
      "outputs": [
        {
          "name": "",
          "type": "string"
        }
      ],
      "payable": false,
      "stateMutability": "view",
      "type": "function"
    },
    {
      "constant": false,
      "inputs": [
        {
          "name": "_to",
          "type": "address"
        },
        {
          "name": "_value",
          "type": "uint256"
        }
      ],
      "name": "transfer",
      "outputs": [
        {
          "name": "",
          "type": "bool"
        }
      ],
      "payable": false,
      "stateMutability": "nonpayable",
      "type": "function"
    },
    {
      "constant": true,
      "inputs": [
        {
          "name": "hash",
          "type": "bytes32"
        },
        {
          "name": "v",
          "type": "uint8"
        },
        {
          "name": "r",
          "type": "bytes32"
        },
        {
          "name": "s",
          "type": "bytes32"
        },
        {
          "name": "expected",
          "type": "address"
        }
      ],
      "name": "validateSignature",
      "outputs": [
        {
          "name": "",
          "type": "bool"
        }
      ],
      "payable": false,
      "stateMutability": "pure",
      "type": "function"
    },
    {
      "constant": false,
      "inputs": [
        {
          "name": "txid",
          "type": "bytes32"
        },
        {
          "name": "outputIndex",
          "type": "uint8"
        },
        {
          "name": "satoshis",
          "type": "uint256"
        },
        {
          "name": "proof",
          "type": "bytes"
        },
        {
          "name": "pubKey",
          "type": "bytes"
        },
        {
          "name": "isCompressed",
          "type": "bool"
        },
        {
          "name": "v",
          "type": "uint8"
        },
        {
          "name": "r",
          "type": "bytes32"
        },
        {
          "name": "s",
          "type": "bytes32"
        }
      ],
      "name": "redeemUTXO",
      "outputs": [
        {
          "name": "tokensRedeemed",
          "type": "uint256"
        }
      ],
      "payable": false,
      "stateMutability": "nonpayable",
      "type": "function"
    },
    {
      "constant": true,
      "inputs": [
        {
          "name": "addr",
          "type": "address"
        },
        {
          "name": "pubKey",
          "type": "bytes"
        },
        {
          "name": "v",
          "type": "uint8"
        },
        {
          "name": "r",
          "type": "bytes32"
        },
        {
          "name": "s",
          "type": "bytes32"
        }
      ],
      "name": "ecdsaVerify",
      "outputs": [
        {
          "name": "",
          "type": "bool"
        }
      ],
      "payable": false,
      "stateMutability": "pure",
      "type": "function"
    },
    {
      "constant": false,
      "inputs": [
        {
          "name": "_spender",
          "type": "address"
        },
        {
          "name": "_addedValue",
          "type": "uint256"
        }
      ],
      "name": "increaseApproval",
      "outputs": [
        {
          "name": "",
          "type": "bool"
        }
      ],
      "payable": false,
      "stateMutability": "nonpayable",
      "type": "function"
    },
    {
      "constant": true,
      "inputs": [
        {
          "name": "_owner",
          "type": "address"
        },
        {
          "name": "_spender",
          "type": "address"
        }
      ],
      "name": "allowance",
      "outputs": [
        {
          "name": "",
          "type": "uint256"
        }
      ],
      "payable": false,
      "stateMutability": "view",
      "type": "function"
    },
    {
      "constant": true,
      "inputs": [
        {
          "name": "pubKey",
          "type": "bytes"
        },
        {
          "name": "isCompressed",
          "type": "bool"
        }
      ],
      "name": "pubKeyToBitcoinAddress",
      "outputs": [
        {
          "name": "",
          "type": "bytes20"
        }
      ],
      "payable": false,
      "stateMutability": "pure",
      "type": "function"
    },
    {
      "constant": true,
      "inputs": [],
      "name": "rootUTXOMerkleTreeHash",
      "outputs": [
        {
          "name": "",
          "type": "bytes32"
        }
      ],
      "payable": false,
      "stateMutability": "view",
      "type": "function"
    },
    {
      "constant": true,
      "inputs": [],
      "name": "totalRedeemed",
      "outputs": [
        {
          "name": "",
          "type": "uint256"
        }
      ],
      "payable": false,
      "stateMutability": "view",
      "type": "function"
    },
    {
      "constant": true,
      "inputs": [],
      "name": "SATS_TO_TOKENS",
      "outputs": [
        {
          "name": "",
          "type": "uint256"
        }
      ],
      "payable": false,
      "stateMutability": "view",
      "type": "function"
    },
    {
      "inputs": [
        {
          "name": "merkleRoot",
          "type": "bytes32"
        },
        {
          "name": "totalUtxoAmount",
          "type": "uint256"
        }
      ],
      "payable": false,
      "stateMutability": "nonpayable",
      "type": "constructor"
    },
    {
      "anonymous": false,
      "inputs": [
        {
          "indexed": true,
          "name": "burner",
          "type": "address"
        },
        {
          "indexed": false,
          "name": "value",
          "type": "uint256"
        }
      ],
      "name": "Burn",
      "type": "event"
    },
    {
      "anonymous": false,
      "inputs": [
        {
          "indexed": false,
          "name": "txid",
          "type": "bytes32"
        },
        {
          "indexed": false,
          "name": "outputIndex",
          "type": "uint8"
        },
        {
          "indexed": false,
          "name": "satoshis",
          "type": "uint256"
        },
        {
          "indexed": false,
          "name": "proof",
          "type": "bytes"
        },
        {
          "indexed": false,
          "name": "pubKey",
          "type": "bytes"
        },
        {
          "indexed": false,
          "name": "v",
          "type": "uint8"
        },
        {
          "indexed": false,
          "name": "r",
          "type": "bytes32"
        },
        {
          "indexed": false,
          "name": "s",
          "type": "bytes32"
        },
        {
          "indexed": true,
          "name": "redeemer",
          "type": "address"
        },
        {
          "indexed": false,
          "name": "numberOfTokens",
          "type": "uint256"
        }
      ],
      "name": "UTXORedeemed",
      "type": "event"
    },
    {
      "anonymous": false,
      "inputs": [
        {
          "indexed": false,
          "name": "destination",
          "type": "address"
        },
        {
          "indexed": false,
          "name": "numberOfTokens",
          "type": "uint256"
        }
      ],
      "name": "TokensReleased",
      "type": "event"
    },
    {
      "anonymous": false,
      "inputs": [
        {
          "indexed": true,
          "name": "owner",
          "type": "address"
        },
        {
          "indexed": true,
          "name": "spender",
          "type": "address"
        },
        {
          "indexed": false,
          "name": "value",
          "type": "uint256"
        }
      ],
      "name": "Approval",
      "type": "event"
    },
    {
      "anonymous": false,
      "inputs": [
        {
          "indexed": true,
          "name": "from",
          "type": "address"
        },
        {
          "indexed": true,
          "name": "to",
          "type": "address"
        },
        {
          "indexed": false,
          "name": "value",
          "type": "uint256"
        }
      ],
      "name": "Transfer",
      "type": "event"
    }
  ],
  "bytecode": "0x60606040526003805460a060020a60ff02191690556000600855341561002457600080fd5b6040516040806116d4833981016040528080519190602001805160038054600160a060020a03191633600160a060020a031617905564174876e8009081026a108b2a2c2802909400000081810360045560059590955560009485556009556007555061163d9182915061009790396000f3006060604052600436106101695763ffffffff7c0100000000000000000000000000000000000000000000000000000000600035041663059f8b16811461016e57806306fdde031461019357806308b4312b1461021d578063095ea7b31461023057806318160ddd146102665780631858cb5b146102795780631b3ed722146102cc57806323b872dd146102df578063313ce567146103075780633764c1881461031a57806342966c68146103905780635418796c146103a85780635427789c14610415578063661884631461042857806370a082311461044a57806387b0be48146104695780638ef11cd81461048857806395d89b41146104de578063a9059cbb146104f1578063af1d06e814610513578063cce2771e14610541578063ce267b55146105fb578063d73dd6231461066a578063dd62ed3e1461068c578063e073ef69146106b1578063e6997f6d14610728578063f35dad401461073b578063fa2dedec1461074e575b600080fd5b341561017957600080fd5b610181610761565b60405190815260200160405180910390f35b341561019e57600080fd5b6101a6610766565b60405160208082528190810183818151815260200191508051906020019080838360005b838110156101e25780820151838201526020016101ca565b50505050905090810190601f16801561020f5780820380516001836020036101000a031916815260200191505b509250505060405180910390f35b341561022857600080fd5b61018161079d565b341561023b57600080fd5b610252600160a060020a03600435166024356107a3565b604051901515815260200160405180910390f35b341561027157600080fd5b61018161080f565b341561028457600080fd5b61025260046024813581810190830135806020601f82018190048102016040519081016040528181529291906020840183838082843750949650509335935061081592505050565b34156102d757600080fd5b610181610923565b34156102ea57600080fd5b610252600160a060020a0360043581169060243516604435610929565b341561031257600080fd5b610181610aab565b341561032557600080fd5b6102526004803590602480356bffffffffffffffffffffffff19169160443560ff1691606435919060a49060843590810190830135806020601f82018190048102016040519081016040528181529291906020840183838082843750949650610ab095505050505050565b341561039b57600080fd5b6103a6600435610b25565b005b34156103b357600080fd5b6103f960046024813581810190830135806020601f82018190048102016040519081016040528181529291906020840183838082843750949650610bee95505050505050565b604051600160a060020a03909116815260200160405180910390f35b341561042057600080fd5b610181610c5c565b341561043357600080fd5b610252600160a060020a0360043516602435610c6b565b341561045557600080fd5b610181600160a060020a0360043516610d65565b341561047457600080fd5b6103a6600160a060020a0360043516610d80565b341561049357600080fd5b610252600480359060446024803590810190830135806020601f82018190048102016040519081016040528181529291906020840183838082843750949650610e6995505050505050565b34156104e957600080fd5b6101a6610e94565b34156104fc57600080fd5b610252600160a060020a0360043516602435610ecb565b341561051e57600080fd5b61025260043560ff60243516604435606435600160a060020a0360843516610fc6565b341561054c57600080fd5b61018160048035906024803560ff16916044359160849060643590810190830135806020601f8201819004810201604051908101604052818152929190602084018383808284378201915050505050509190803590602001908201803590602001908080601f016020809104026020016040519081016040528181529291906020840183838082843750949650505050823515159260ff60208201351692506040810135915060600135611054565b341561060657600080fd5b61025260048035600160a060020a03169060446024803590810190830135806020601f820181900481020160405190810160405281815292919060208401838380828437509496505060ff85351694602081013594506040013592506112a7915050565b341561067557600080fd5b610252600160a060020a036004351660243561131c565b341561069757600080fd5b610181600160a060020a03600435811690602435166113c0565b34156106bc57600080fd5b61070660046024813581810190830135806020601f820181900481020160405190810160405281815292919060208401838380828437509496505050509135151591506113eb9050565b6040516bffffffffffffffffffffffff19909116815260200160405180910390f35b341561073357600080fd5b610181611552565b341561074657600080fd5b610181611558565b341561075957600080fd5b61018161155e565b600a81565b60408051908101604052601481527f50726f6a6563742057797665726e20546f6b656e000000000000000000000000602082015281565b60095481565b600160a060020a03338116600081815260026020908152604080832094871680845294909152808220859055909291907f8c5be1e5ebec7d5bd14f71427d1e84f3dd0314c0f7b2291e5b200ac8c7c3b9259085905190815260200160405180910390a350600192915050565b60005481565b600073__MerkleProof___________________________63101f13e284600554856000604051602001526040517c010000000000000000000000000000000000000000000000000000000063ffffffff8616028152602481018390526044810182905260606004820190815290819060640185818151815260200191508051906020019080838360005b838110156108b757808201518382015260200161089f565b50505050905090810190601f1680156108e45780820380516001836020036101000a031916815260200191505b5094505050505060206040518083038186803b151561090257600080fd5b6102c65a03f4151561091357600080fd5b5050506040518051949350505050565b60075481565b6000600160a060020a038316151561094057600080fd5b600160a060020a03841660009081526001602052604090205482111561096557600080fd5b600160a060020a038085166000908152600260209081526040808320339094168352929052205482111561099857600080fd5b600160a060020a0384166000908152600160205260409020546109c1908363ffffffff61156716565b600160a060020a0380861660009081526001602052604080822093909355908516815220546109f6908363ffffffff61157916565b600160a060020a03808516600090815260016020908152604080832094909455878316825260028152838220339093168252919091522054610a3e908363ffffffff61156716565b600160a060020a03808616600081815260026020908152604080832033861684529091529081902093909355908516917fddf252ad1be2c89b69c2b068fc378daa952ba7f163c4a11628f55a4df523b3ef9085905190815260200160405180910390a35060019392505050565b601281565b600080868686866040519384526bffffffffffffffffffffffff1992909216602084015260ff167f0100000000000000000000000000000000000000000000000000000000000000026034830152603582015260550160405180910390209050610b1a8184610e69565b979650505050505050565b6000808211610b3357600080fd5b600160a060020a033316600090815260016020526040902054821115610b5857600080fd5b5033600160a060020a038116600090815260016020526040902054610b7d9083611567565b600160a060020a03821660009081526001602052604081209190915554610baa908363ffffffff61156716565b600055600160a060020a0381167fcc16f5dbb4873280815c1ee09dbd06736cffcc184412cf7a71a0fdb75d397ca58360405190815260200160405180910390a25050565b6000816040518082805190602001908083835b60208310610c205780518252601f199092019160209182019101610c01565b6001836020036101000a0380198251168184511617909252505050919091019250604091505051908190039020600160a060020a031692915050565b6a108b2a2c2802909400000081565b600160a060020a03338116600090815260026020908152604080832093861683529290529081205480831115610cc857600160a060020a033381166000908152600260209081526040808320938816835292905290812055610cff565b610cd8818463ffffffff61156716565b600160a060020a033381166000908152600260209081526040808320938916835292905220555b600160a060020a0333811660008181526002602090815260408083209489168084529490915290819020547f8c5be1e5ebec7d5bd14f71427d1e84f3dd0314c0f7b2291e5b200ac8c7c3b925915190815260200160405180910390a35060019392505050565b600160a060020a031660009081526001602052604090205490565b60035433600160a060020a039081169116148015610db9575060035474010000000000000000000000000000000000000000900460ff16155b1515610dc457600080fd5b600380547fffffffffffffffffffffff00ffffffffffffffffffffffffffffffffffffffff1674010000000000000000000000000000000000000000179055600454600160a060020a038216600090815260016020526040908190208290557fc7798891864187665ac6dd119286e44ec13f014527aeeb2b8eb3fd413df9317991839151600160a060020a03909216825260208201526040908101905180910390a150565b60008281526006602052604081205460ff16158015610e8d5750610e8d8284610815565b9392505050565b60408051908101604052600381527f5759560000000000000000000000000000000000000000000000000000000000602082015281565b6000600160a060020a0383161515610ee257600080fd5b600160a060020a033316600090815260016020526040902054821115610f0757600080fd5b600160a060020a033316600090815260016020526040902054610f30908363ffffffff61156716565b600160a060020a033381166000908152600160205260408082209390935590851681522054610f65908363ffffffff61157916565b600160a060020a0380851660008181526001602052604090819020939093559133909116907fddf252ad1be2c89b69c2b068fc378daa952ba7f163c4a11628f55a4df523b3ef9085905190815260200160405180910390a350600192915050565b600081600160a060020a03166001878787876040516000815260200160405260006040516020015260405193845260ff90921660208085019190915260408085019290925260608401929092526080909201915160208103908084039060008661646e5a03f1151561103757600080fd5b505060206040510351600160a060020a0316149695505050505050565b600080600061106388886113eb565b91508b828c8c6040519384526bffffffffffffffffffffffff1992909216602084015260ff167f01000000000000000000000000000000000000000000000000000000000000000260348301526035820152605501604051809103902090506110cc818a610e69565b15156110d757600080fd5b6110e433898888886112a7565b15156110ef57600080fd5b6000818152600660205260409020805460ff1916600117905560075460088054918c0291820190819055600954919450111561112a57600080fd5b600160a060020a033316600081815260016020526040908190208054860190557f2475a9b35191bf17196c6ddaa1be205f8dccc85ac213ff80131ca6906c34423b908e908e908e908e908e908d908d908d908d905189815260ff808a16602083015260408201899052851660a082015260c0810184905260e08101839052610100810182905261012060608201818152906080830190830189818151815260200191508051906020019080838360005b838110156111f25780820151838201526020016111da565b50505050905090810190601f16801561121f5780820380516001836020036101000a031916815260200191505b50838103825288818151815260200191508051906020019080838360005b8381101561125557808201518382015260200161123d565b50505050905090810190601f1680156112825780820380516001836020036101000a031916815260200191505b509b50505050505050505050505060405180910390a250509998505050505050505050565b6000611312600287600060405160200152604051600160a060020a03919091166c0100000000000000000000000002815260140160206040518083038160008661646e5a03f115156112f857600080fd5b50506040518051905085858561130d8a610bee565b610fc6565b9695505050505050565b600160a060020a033381166000908152600260209081526040808320938616835292905290812054611354908363ffffffff61157916565b600160a060020a0333811660008181526002602090815260408083209489168084529490915290819020849055919290917f8c5be1e5ebec7d5bd14f71427d1e84f3dd0314c0f7b2291e5b200ac8c7c3b92591905190815260200160405180910390a350600192915050565b600160a060020a03918216600090815260026020908152604080832093909416825291909152205490565b6000806000806113fc866000611588565b9250611409866020611588565b915084156114dc576002820615611421576003611424565b60025b905060036002828560006040516020015260405160ff929092167f0100000000000000000000000000000000000000000000000000000000000000028252600182015260210160206040518083038160008661646e5a03f1151561148757600080fd5b5050604051805190506000604051602001526040519081526020908101906040518083038160008661646e5a03f115156114c057600080fd5b5050604051516c01000000000000000000000000029350611549565b5060046003600282858560006040516020015260405160ff939093167f01000000000000000000000000000000000000000000000000000000000000000283526001830191909152602182015260410160206040518083038160008661646e5a03f1151561148757600080fd5b50505092915050565b60055481565b60085481565b64174876e80081565b60008282111561157357fe5b50900390565b600082820183811015610e8d57fe5b6000805b602081101561160a578060080284848301815181106115a757fe5b016020015160029190910a7f0100000000000000000000000000000000000000000000000000000000000000918290049091027fff000000000000000000000000000000000000000000000000000000000000001604919091189060010161158c565b50929150505600a165627a7a723058208c313e40e1a85abe0d6aab8861fc51db7dd1e3a859919da7f6326abb0a6e96a50029",
  "source": "/*\n\n  << Project Wyvern Token (WYV) >>\n\n*/\n\npragma solidity ^0.4.18;\n\nimport \"zeppelin-solidity/contracts/token/BurnableToken.sol\";\n\nimport \"./token/UTXORedeemableToken.sol\";\nimport \"./token/DelayedReleaseToken.sol\";\n\n/**\n  * @title WyvernToken\n  * @author Project Wyvern Developers\n  *\n  *\n  */\ncontract WyvernToken is DelayedReleaseToken, UTXORedeemableToken, BurnableToken {\n\n    uint constant public decimals     = 18;\n    string constant public name       = \"Project Wyvern Token\";\n    string constant public symbol     = \"WYV\";\n\n    /* Amount of tokens per Wyvern, . */\n    uint constant public MULTIPLIER       = 10;\n\n    /* Constant for conversion from satoshis to tokens. */\n    uint constant public SATS_TO_TOKENS   = MULTIPLIER * (10 ** decimals) / (10 ** 8);\n\n    /* Total mint amount, in tokens (will be reached when all UTXOs are redeemed). */\n    uint constant public MINT_AMOUNT      = 2000000 * MULTIPLIER * (10 ** decimals);\n\n    /**\n      * @dev Initialize the Wyvern token\n      * @param merkleRoot Merkle tree root of the UTXO set\n      * @param totalUtxoAmount Total satoshis of the UTXO set\n      */\n    function WyvernToken (bytes32 merkleRoot, uint totalUtxoAmount) public {\n        /* Total number of tokens that can be redeemed from UTXOs. */\n        uint utxoTokens = SATS_TO_TOKENS * totalUtxoAmount;\n\n        /* Configure DelayedReleaseToken. */\n        temporaryAdmin = msg.sender;\n        numberOfDelayedTokens = MINT_AMOUNT - utxoTokens;\n\n        /* Configure UTXORedeemableToken. */\n        rootUTXOMerkleTreeHash = merkleRoot;\n        totalSupply = MINT_AMOUNT;\n        maximumRedeemable = utxoTokens;\n        multiplier = SATS_TO_TOKENS;\n    }\n\n}\n",
  "sourcePath": "/home/cwgoes/working/crypto/wyvern/wyvern-ethereum/contracts/WyvernToken.sol",
  "compiler": {
    "name": "solc",
    "version": "0.4.18+commit.9cf6e910.Emscripten.clang"
  },
  "schemaVersion": "1.0.1",
  "updatedAt": "2017-12-11T01:15:08.605Z"
}