{
  "contractName": "WyvernExchange",
  "abi": [
    {
      "constant": true,
      "inputs": [],
      "name": "name",
      "outputs": [
        {
          "name": "",
          "type": "string"
        }
      ],
      "payable": false,
      "stateMutability": "view",
      "type": "function"
    },
    {
      "constant": true,
      "inputs": [],
      "name": "tokenTransferProxy",
      "outputs": [
        {
          "name": "",
          "type": "address"
        }
      ],
      "payable": false,
      "stateMutability": "view",
      "type": "function"
    },
    {
      "constant": true,
      "inputs": [
        {
          "name": "target",
          "type": "address"
        },
        {
          "name": "calldata",
          "type": "bytes"
        },
        {
          "name": "extradata",
          "type": "bytes"
        }
      ],
      "name": "staticCall",
      "outputs": [
        {
          "name": "result",
          "type": "bool"
        }
      ],
      "payable": false,
      "stateMutability": "view",
      "type": "function"
    },
    {
      "constant": false,
      "inputs": [
        {
          "name": "newMinimumMakerProtocolFee",
          "type": "uint256"
        }
      ],
      "name": "changeMinimumMakerProtocolFee",
      "outputs": [],
      "payable": false,
      "stateMutability": "nonpayable",
      "type": "function"
    },
    {
      "constant": false,
      "inputs": [
        {
          "name": "newMinimumTakerProtocolFee",
          "type": "uint256"
        }
      ],
      "name": "changeMinimumTakerProtocolFee",
      "outputs": [],
      "payable": false,
      "stateMutability": "nonpayable",
      "type": "function"
    },
    {
      "constant": true,
      "inputs": [
        {
          "name": "array",
          "type": "bytes"
        },
        {
          "name": "desired",
          "type": "bytes"
        },
        {
          "name": "mask",
          "type": "bytes"
        }
      ],
      "name": "guardedArrayReplace",
      "outputs": [
        {
          "name": "",
          "type": "bytes"
        }
      ],
      "payable": false,
      "stateMutability": "pure",
      "type": "function"
    },
    {
      "constant": true,
      "inputs": [],
      "name": "minimumTakerProtocolFee",
      "outputs": [
        {
          "name": "",
          "type": "uint256"
        }
      ],
      "payable": false,
      "stateMutability": "view",
      "type": "function"
    },
    {
      "constant": true,
      "inputs": [],
      "name": "codename",
      "outputs": [
        {
          "name": "",
          "type": "string"
        }
      ],
      "payable": false,
      "stateMutability": "view",
      "type": "function"
    },
    {
      "constant": true,
      "inputs": [
        {
          "name": "addr",
          "type": "address"
        }
      ],
      "name": "testCopyAddress",
      "outputs": [
        {
          "name": "",
          "type": "bytes"
        }
      ],
      "payable": false,
      "stateMutability": "pure",
      "type": "function"
    },
    {
      "constant": true,
      "inputs": [
        {
          "name": "arrToCopy",
          "type": "bytes"
        }
      ],
      "name": "testCopy",
      "outputs": [
        {
          "name": "",
          "type": "bytes"
        }
      ],
      "payable": false,
      "stateMutability": "pure",
      "type": "function"
    },
    {
      "constant": true,
      "inputs": [
        {
          "name": "addrs",
          "type": "address[7]"
        },
        {
          "name": "uints",
          "type": "uint256[9]"
        },
        {
          "name": "feeMethod",
          "type": "uint8"
        },
        {
          "name": "side",
          "type": "uint8"
        },
        {
          "name": "saleKind",
          "type": "uint8"
        },
        {
          "name": "howToCall",
          "type": "uint8"
        },
        {
          "name": "calldata",
          "type": "bytes"
        },
        {
          "name": "replacementPattern",
          "type": "bytes"
        },
        {
          "name": "staticExtradata",
          "type": "bytes"
        }
      ],
      "name": "calculateCurrentPrice_",
      "outputs": [
        {
          "name": "",
          "type": "uint256"
        }
      ],
      "payable": false,
      "stateMutability": "view",
      "type": "function"
    },
    {
      "constant": false,
      "inputs": [
        {
          "name": "newProtocolFeeRecipient",
          "type": "address"
        }
      ],
      "name": "changeProtocolFeeRecipient",
      "outputs": [],
      "payable": false,
      "stateMutability": "nonpayable",
      "type": "function"
    },
    {
      "constant": true,
      "inputs": [],
      "name": "version",
      "outputs": [
        {
          "name": "",
          "type": "string"
        }
      ],
      "payable": false,
      "stateMutability": "view",
      "type": "function"
    },
    {
      "constant": true,
      "inputs": [
        {
          "name": "buyCalldata",
          "type": "bytes"
        },
        {
          "name": "buyReplacementPattern",
          "type": "bytes"
        },
        {
          "name": "sellCalldata",
          "type": "bytes"
        },
        {
          "name": "sellReplacementPattern",
          "type": "bytes"
        }
      ],
      "name": "orderCalldataCanMatch",
      "outputs": [
        {
          "name": "",
          "type": "bool"
        }
      ],
      "payable": false,
      "stateMutability": "pure",
      "type": "function"
    },
    {
      "constant": true,
      "inputs": [
        {
          "name": "addrs",
          "type": "address[7]"
        },
        {
          "name": "uints",
          "type": "uint256[9]"
        },
        {
          "name": "feeMethod",
          "type": "uint8"
        },
        {
          "name": "side",
          "type": "uint8"
        },
        {
          "name": "saleKind",
          "type": "uint8"
        },
        {
          "name": "howToCall",
          "type": "uint8"
        },
        {
          "name": "calldata",
          "type": "bytes"
        },
        {
          "name": "replacementPattern",
          "type": "bytes"
        },
        {
          "name": "staticExtradata",
          "type": "bytes"
        },
        {
          "name": "v",
          "type": "uint8"
        },
        {
          "name": "r",
          "type": "bytes32"
        },
        {
          "name": "s",
          "type": "bytes32"
        }
      ],
      "name": "validateOrder_",
      "outputs": [
        {
          "name": "",
          "type": "bool"
        }
      ],
      "payable": false,
      "stateMutability": "view",
      "type": "function"
    },
    {
      "constant": true,
      "inputs": [
        {
          "name": "side",
          "type": "uint8"
        },
        {
          "name": "saleKind",
          "type": "uint8"
        },
        {
          "name": "basePrice",
          "type": "uint256"
        },
        {
          "name": "extra",
          "type": "uint256"
        },
        {
          "name": "listingTime",
          "type": "uint256"
        },
        {
          "name": "expirationTime",
          "type": "uint256"
        }
      ],
      "name": "calculateFinalPrice",
      "outputs": [
        {
          "name": "",
          "type": "uint256"
        }
      ],
      "payable": false,
      "stateMutability": "view",
      "type": "function"
    },
    {
      "constant": true,
      "inputs": [],
      "name": "protocolFeeRecipient",
      "outputs": [
        {
          "name": "",
          "type": "address"
        }
      ],
      "payable": false,
      "stateMutability": "view",
      "type": "function"
    },
    {
      "constant": false,
      "inputs": [],
      "name": "renounceOwnership",
      "outputs": [],
      "payable": false,
      "stateMutability": "nonpayable",
      "type": "function"
    },
    {
      "constant": true,
      "inputs": [
        {
          "name": "addrs",
          "type": "address[7]"
        },
        {
          "name": "uints",
          "type": "uint256[9]"
        },
        {
          "name": "feeMethod",
          "type": "uint8"
        },
        {
          "name": "side",
          "type": "uint8"
        },
        {
          "name": "saleKind",
          "type": "uint8"
        },
        {
          "name": "howToCall",
          "type": "uint8"
        },
        {
          "name": "calldata",
          "type": "bytes"
        },
        {
          "name": "replacementPattern",
          "type": "bytes"
        },
        {
          "name": "staticExtradata",
          "type": "bytes"
        }
      ],
      "name": "hashOrder_",
      "outputs": [
        {
          "name": "",
          "type": "bytes32"
        }
      ],
      "payable": false,
      "stateMutability": "pure",
      "type": "function"
    },
    {
      "constant": true,
      "inputs": [
        {
          "name": "addrs",
          "type": "address[14]"
        },
        {
          "name": "uints",
          "type": "uint256[18]"
        },
        {
          "name": "feeMethodsSidesKindsHowToCalls",
          "type": "uint8[8]"
        },
        {
          "name": "calldataBuy",
          "type": "bytes"
        },
        {
          "name": "calldataSell",
          "type": "bytes"
        },
        {
          "name": "replacementPatternBuy",
          "type": "bytes"
        },
        {
          "name": "replacementPatternSell",
          "type": "bytes"
        },
        {
          "name": "staticExtradataBuy",
          "type": "bytes"
        },
        {
          "name": "staticExtradataSell",
          "type": "bytes"
        }
      ],
      "name": "ordersCanMatch_",
      "outputs": [
        {
          "name": "",
          "type": "bool"
        }
      ],
      "payable": false,
      "stateMutability": "view",
      "type": "function"
    },
    {
      "constant": false,
      "inputs": [
        {
          "name": "addrs",
          "type": "address[7]"
        },
        {
          "name": "uints",
          "type": "uint256[9]"
        },
        {
          "name": "feeMethod",
          "type": "uint8"
        },
        {
          "name": "side",
          "type": "uint8"
        },
        {
          "name": "saleKind",
          "type": "uint8"
        },
        {
          "name": "howToCall",
          "type": "uint8"
        },
        {
          "name": "calldata",
          "type": "bytes"
        },
        {
          "name": "replacementPattern",
          "type": "bytes"
        },
        {
          "name": "staticExtradata",
          "type": "bytes"
        },
        {
          "name": "orderbookInclusionDesired",
          "type": "bool"
        }
      ],
      "name": "approveOrder_",
      "outputs": [],
      "payable": false,
      "stateMutability": "nonpayable",
      "type": "function"
    },
    {
      "constant": true,
      "inputs": [],
      "name": "registry",
      "outputs": [
        {
          "name": "",
          "type": "address"
        }
      ],
      "payable": false,
      "stateMutability": "view",
      "type": "function"
    },
    {
      "constant": true,
      "inputs": [],
      "name": "minimumMakerProtocolFee",
      "outputs": [
        {
          "name": "",
          "type": "uint256"
        }
      ],
      "payable": false,
      "stateMutability": "view",
      "type": "function"
    },
    {
      "constant": true,
      "inputs": [
        {
          "name": "addrs",
          "type": "address[7]"
        },
        {
          "name": "uints",
          "type": "uint256[9]"
        },
        {
          "name": "feeMethod",
          "type": "uint8"
        },
        {
          "name": "side",
          "type": "uint8"
        },
        {
          "name": "saleKind",
          "type": "uint8"
        },
        {
          "name": "howToCall",
          "type": "uint8"
        },
        {
          "name": "calldata",
          "type": "bytes"
        },
        {
          "name": "replacementPattern",
          "type": "bytes"
        },
        {
          "name": "staticExtradata",
          "type": "bytes"
        }
      ],
      "name": "hashToSign_",
      "outputs": [
        {
          "name": "",
          "type": "bytes32"
        }
      ],
      "payable": false,
      "stateMutability": "pure",
      "type": "function"
    },
    {
      "constant": true,
      "inputs": [
        {
          "name": "",
          "type": "bytes32"
        }
      ],
      "name": "cancelledOrFinalized",
      "outputs": [
        {
          "name": "",
          "type": "bool"
        }
      ],
      "payable": false,
      "stateMutability": "view",
      "type": "function"
    },
    {
      "constant": true,
      "inputs": [],
      "name": "owner",
      "outputs": [
        {
          "name": "",
          "type": "address"
        }
      ],
      "payable": false,
      "stateMutability": "view",
      "type": "function"
    },
    {
      "constant": true,
      "inputs": [],
      "name": "exchangeToken",
      "outputs": [
        {
          "name": "",
          "type": "address"
        }
      ],
      "payable": false,
      "stateMutability": "view",
      "type": "function"
    },
    {
      "constant": false,
      "inputs": [
        {
          "name": "addrs",
          "type": "address[7]"
        },
        {
          "name": "uints",
          "type": "uint256[9]"
        },
        {
          "name": "feeMethod",
          "type": "uint8"
        },
        {
          "name": "side",
          "type": "uint8"
        },
        {
          "name": "saleKind",
          "type": "uint8"
        },
        {
          "name": "howToCall",
          "type": "uint8"
        },
        {
          "name": "calldata",
          "type": "bytes"
        },
        {
          "name": "replacementPattern",
          "type": "bytes"
        },
        {
          "name": "staticExtradata",
          "type": "bytes"
        },
        {
          "name": "v",
          "type": "uint8"
        },
        {
          "name": "r",
          "type": "bytes32"
        },
        {
          "name": "s",
          "type": "bytes32"
        }
      ],
      "name": "cancelOrder_",
      "outputs": [],
      "payable": false,
      "stateMutability": "nonpayable",
      "type": "function"
    },
    {
      "constant": false,
      "inputs": [
        {
          "name": "addrs",
          "type": "address[14]"
        },
        {
          "name": "uints",
          "type": "uint256[18]"
        },
        {
          "name": "feeMethodsSidesKindsHowToCalls",
          "type": "uint8[8]"
        },
        {
          "name": "calldataBuy",
          "type": "bytes"
        },
        {
          "name": "calldataSell",
          "type": "bytes"
        },
        {
          "name": "replacementPatternBuy",
          "type": "bytes"
        },
        {
          "name": "replacementPatternSell",
          "type": "bytes"
        },
        {
          "name": "staticExtradataBuy",
          "type": "bytes"
        },
        {
          "name": "staticExtradataSell",
          "type": "bytes"
        },
        {
          "name": "vs",
          "type": "uint8[2]"
        },
        {
          "name": "rssMetadata",
          "type": "bytes32[5]"
        }
      ],
      "name": "atomicMatch_",
      "outputs": [],
      "payable": true,
      "stateMutability": "payable",
      "type": "function"
    },
    {
      "constant": true,
      "inputs": [
        {
          "name": "addrs",
          "type": "address[7]"
        },
        {
          "name": "uints",
          "type": "uint256[9]"
        },
        {
          "name": "feeMethod",
          "type": "uint8"
        },
        {
          "name": "side",
          "type": "uint8"
        },
        {
          "name": "saleKind",
          "type": "uint8"
        },
        {
          "name": "howToCall",
          "type": "uint8"
        },
        {
          "name": "calldata",
          "type": "bytes"
        },
        {
          "name": "replacementPattern",
          "type": "bytes"
        },
        {
          "name": "staticExtradata",
          "type": "bytes"
        }
      ],
      "name": "validateOrderParameters_",
      "outputs": [
        {
          "name": "",
          "type": "bool"
        }
      ],
      "payable": false,
      "stateMutability": "view",
      "type": "function"
    },
    {
      "constant": true,
      "inputs": [],
      "name": "INVERSE_BASIS_POINT",
      "outputs": [
        {
          "name": "",
          "type": "uint256"
        }
      ],
      "payable": false,
      "stateMutability": "view",
      "type": "function"
    },
    {
      "constant": true,
      "inputs": [
        {
          "name": "addrs",
          "type": "address[14]"
        },
        {
          "name": "uints",
          "type": "uint256[18]"
        },
        {
          "name": "feeMethodsSidesKindsHowToCalls",
          "type": "uint8[8]"
        },
        {
          "name": "calldataBuy",
          "type": "bytes"
        },
        {
          "name": "calldataSell",
          "type": "bytes"
        },
        {
          "name": "replacementPatternBuy",
          "type": "bytes"
        },
        {
          "name": "replacementPatternSell",
          "type": "bytes"
        },
        {
          "name": "staticExtradataBuy",
          "type": "bytes"
        },
        {
          "name": "staticExtradataSell",
          "type": "bytes"
        }
      ],
      "name": "calculateMatchPrice_",
      "outputs": [
        {
          "name": "",
          "type": "uint256"
        }
      ],
      "payable": false,
      "stateMutability": "view",
      "type": "function"
    },
    {
      "constant": true,
      "inputs": [
        {
          "name": "",
          "type": "bytes32"
        }
      ],
      "name": "approvedOrders",
      "outputs": [
        {
          "name": "",
          "type": "bool"
        }
      ],
      "payable": false,
      "stateMutability": "view",
      "type": "function"
    },
    {
      "constant": false,
      "inputs": [
        {
          "name": "newOwner",
          "type": "address"
        }
      ],
      "name": "transferOwnership",
      "outputs": [],
      "payable": false,
      "stateMutability": "nonpayable",
      "type": "function"
    },
    {
      "inputs": [
        {
          "name": "registryAddress",
          "type": "address"
        },
        {
          "name": "tokenTransferProxyAddress",
          "type": "address"
        },
        {
          "name": "tokenAddress",
          "type": "address"
        },
        {
          "name": "protocolFeeAddress",
          "type": "address"
        }
      ],
      "payable": false,
      "stateMutability": "nonpayable",
      "type": "constructor"
    },
    {
      "anonymous": false,
      "inputs": [
        {
          "indexed": true,
          "name": "hash",
          "type": "bytes32"
        },
        {
          "indexed": false,
          "name": "exchange",
          "type": "address"
        },
        {
          "indexed": true,
          "name": "maker",
          "type": "address"
        },
        {
          "indexed": false,
          "name": "taker",
          "type": "address"
        },
        {
          "indexed": false,
          "name": "makerRelayerFee",
          "type": "uint256"
        },
        {
          "indexed": false,
          "name": "takerRelayerFee",
          "type": "uint256"
        },
        {
          "indexed": false,
          "name": "makerProtocolFee",
          "type": "uint256"
        },
        {
          "indexed": false,
          "name": "takerProtocolFee",
          "type": "uint256"
        },
        {
          "indexed": true,
          "name": "feeRecipient",
          "type": "address"
        },
        {
          "indexed": false,
          "name": "feeMethod",
          "type": "uint8"
        },
        {
          "indexed": false,
          "name": "side",
          "type": "uint8"
        },
        {
          "indexed": false,
          "name": "saleKind",
          "type": "uint8"
        },
        {
          "indexed": false,
          "name": "target",
          "type": "address"
        }
      ],
      "name": "OrderApprovedPartOne",
      "type": "event"
    },
    {
      "anonymous": false,
      "inputs": [
        {
          "indexed": true,
          "name": "hash",
          "type": "bytes32"
        },
        {
          "indexed": false,
          "name": "howToCall",
          "type": "uint8"
        },
        {
          "indexed": false,
          "name": "calldata",
          "type": "bytes"
        },
        {
          "indexed": false,
          "name": "replacementPattern",
          "type": "bytes"
        },
        {
          "indexed": false,
          "name": "staticTarget",
          "type": "address"
        },
        {
          "indexed": false,
          "name": "staticExtradata",
          "type": "bytes"
        },
        {
          "indexed": false,
          "name": "paymentToken",
          "type": "address"
        },
        {
          "indexed": false,
          "name": "basePrice",
          "type": "uint256"
        },
        {
          "indexed": false,
          "name": "extra",
          "type": "uint256"
        },
        {
          "indexed": false,
          "name": "listingTime",
          "type": "uint256"
        },
        {
          "indexed": false,
          "name": "expirationTime",
          "type": "uint256"
        },
        {
          "indexed": false,
          "name": "salt",
          "type": "uint256"
        },
        {
          "indexed": false,
          "name": "orderbookInclusionDesired",
          "type": "bool"
        }
      ],
      "name": "OrderApprovedPartTwo",
      "type": "event"
    },
    {
      "anonymous": false,
      "inputs": [
        {
          "indexed": true,
          "name": "hash",
          "type": "bytes32"
        }
      ],
      "name": "OrderCancelled",
      "type": "event"
    },
    {
      "anonymous": false,
      "inputs": [
        {
          "indexed": false,
          "name": "buyHash",
          "type": "bytes32"
        },
        {
          "indexed": false,
          "name": "sellHash",
          "type": "bytes32"
        },
        {
          "indexed": true,
          "name": "maker",
          "type": "address"
        },
        {
          "indexed": true,
          "name": "taker",
          "type": "address"
        },
        {
          "indexed": false,
          "name": "price",
          "type": "uint256"
        },
        {
          "indexed": true,
          "name": "metadata",
          "type": "bytes32"
        }
      ],
      "name": "OrdersMatched",
      "type": "event"
    },
    {
      "anonymous": false,
      "inputs": [
        {
          "indexed": true,
          "name": "previousOwner",
          "type": "address"
        }
      ],
      "name": "OwnershipRenounced",
      "type": "event"
    },
    {
      "anonymous": false,
      "inputs": [
        {
          "indexed": true,
          "name": "previousOwner",
          "type": "address"
        },
        {
          "indexed": true,
          "name": "newOwner",
          "type": "address"
        }
      ],
      "name": "OwnershipTransferred",
      "type": "event"
    }
  ],
  "bytecode": "0x60806040526000805460ff19168155600681905560075534801561002257600080fd5b50604051608080614cc583398101604090815281516020830151918301516060909301516000805460028054600160a060020a03958616600160a060020a0319918216179091556003805496861696821696909617909555600180549685169686169690961790955560088054928416929094169190911790925533166101000261010060a860020a031992831681179092169091179055614bfc806100c96000396000f3006080604052600436106101ab5763ffffffff7c010000000000000000000000000000000000000000000000000000000060003504166306fdde0381146101b05780630eefdbad1461023a57806310796a471461026b57806314350c24146103245780631a6b13e21461033e578063239e83df1461035657806328a8ee681461042b57806331e63199146104525780633464af6a146104675780633e1e292a146104885780633f67ee0d146104e1578063514f03301461062657806354fd4d5014610647578063562b2ebc1461065c57806360bef33a1461076f57806363d36c0b146108c357806364df049e146108f0578063715018a61461090557806371d02b381461091a57806372593b4c14610a5f5780637966686814610c665780637b10399914610daf5780637ccefc5214610dc45780637d76698114610dd95780638076f00514610f1e5780638da5cb5b14610f36578063a25eb5d914610f4b578063a8a41c7014610f60578063ab834bab146110b4578063ca595b9a146112f7578063cae6047f1461143c578063d537e13114611451578063e57d4adb14611658578063f2fde38b14611670575b600080fd5b3480156101bc57600080fd5b506101c5611691565b6040805160208082528351818301528351919283929083019185019080838360005b838110156101ff5781810151838201526020016101e7565b50505050905090810190601f16801561022c5780820380516001836020036101000a031916815260200191505b509250505060405180910390f35b34801561024657600080fd5b5061024f6116c8565b60408051600160a060020a039092168252519081900360200190f35b34801561027757600080fd5b5060408051602060046024803582810135601f8101859004850286018501909652858552610310958335600160a060020a031695369560449491939091019190819084018382808284375050604080516020601f89358b018035918201839004830284018301909452808352979a9998810197919650918201945092508291508401838280828437509497506116d79650505050505050565b604080519115158252519081900360200190f35b34801561033057600080fd5b5061033c600435611746565b005b34801561034a57600080fd5b5061033c60043561176b565b34801561036257600080fd5b506040805160206004803580820135601f81018490048402850184019095528484526101c594369492936024939284019190819084018382808284375050604080516020601f89358b018035918201839004830284018301909452808352979a99988101979196509182019450925082915084018382808284375050604080516020601f89358b018035918201839004830284018301909452808352979a9998810197919650918201945092508291508401838280828437509497506117909650505050505050565b34801561043757600080fd5b506104406117a7565b60408051918252519081900360200190f35b34801561045e57600080fd5b506101c56117ad565b34801561047357600080fd5b506101c5600160a060020a03600435166117e4565b34801561049457600080fd5b506040805160206004803580820135601f81018490048402850184019095528484526101c59436949293602493928401919081908401838280828437509497506118249650505050505050565b3480156104ed57600080fd5b506040805160e081810190925261044091369160049160e49190839060079083908390808284375050604080516101208181019092529497969581810195945092506009915083908390808284375050604080516020601f60808901358a0180359182018390048302840183018552818452979a60ff8a3581169b848c013582169b9687013582169a6060880135909216995091975090955060a090940193820191819084018382808284375050604080516020601f89358b018035918201839004830284018301909452808352979a99988101979196509182019450925082915084018382808284375050604080516020601f89358b018035918201839004830284018301909452808352979a99988101979196509182019450925082915084018382808284375094975061186a9650505050505050565b34801561063257600080fd5b5061033c600160a060020a03600435166119b8565b34801561065357600080fd5b506101c5611a07565b34801561066857600080fd5b506040805160206004803580820135601f810184900484028501840190955284845261031094369492936024939284019190819084018382808284375050604080516020601f89358b018035918201839004830284018301909452808352979a99988101979196509182019450925082915084018382808284375050604080516020601f89358b018035918201839004830284018301909452808352979a99988101979196509182019450925082915084018382808284375050604080516020601f89358b018035918201839004830284018301909452808352979a999881019791965091820194509250829150840183828082843750949750611a3e9650505050505050565b34801561077b57600080fd5b506040805160e081810190925261031091369160049160e49190839060079083908390808284375050604080516101208181019092529497969581810195945092506009915083908390808284375050604080516020601f60808901358a0180359182018390048302840183018552818452979a60ff8a3581169b848c013582169b9687013582169a6060880135909216995091975090955060a090940193820191819084018382808284375050604080516020601f89358b018035918201839004830284018301909452808352979a99988101979196509182019450925082915084018382808284375050604080516020601f89358b018035918201839004830284018301909452808352979a9998810197919650918201945092508291508401838280828437509497505050833560ff1694505050602082013591604001359050611a7c565b3480156108cf57600080fd5b5061044060ff6004358116906024351660443560643560843560a435611c6b565b3480156108fc57600080fd5b5061024f611c86565b34801561091157600080fd5b5061033c611c95565b34801561092657600080fd5b506040805160e081810190925261044091369160049160e49190839060079083908390808284375050604080516101208181019092529497969581810195945092506009915083908390808284375050604080516020601f60808901358a0180359182018390048302840183018552818452979a60ff8a3581169b848c013582169b9687013582169a6060880135909216995091975090955060a090940193820191819084018382808284375050604080516020601f89358b018035918201839004830284018301909452808352979a99988101979196509182019450925082915084018382808284375050604080516020601f89358b018035918201839004830284018301909452808352979a999881019791965091820194509250829150840183828082843750949750611d0f9650505050505050565b348015610a6b57600080fd5b50604080516101c08181019092526103109136916004916101c491908390600e9083908390808284375050604080516102408181019092529497969581810195945092506012915083908390808284375050604080516101008181019092529497969581810195945092506008915083908390808284375050604080516020601f88358a0180359182018390048302840183019094528083529699989781019691955091820193509150819084018382808284375050604080516020601f89358b018035918201839004830284018301909452808352979a99988101979196509182019450925082915084018382808284375050604080516020601f89358b018035918201839004830284018301909452808352979a99988101979196509182019450925082915084018382808284375050604080516020601f89358b018035918201839004830284018301909452808352979a99988101979196509182019450925082915084018382808284375050604080516020601f89358b018035918201839004830284018301909452808352979a99988101979196509182019450925082915084018382808284375050604080516020601f89358b018035918201839004830284018301909452808352979a999881019791965091820194509250829150840183828082843750949750611e4f9650505050505050565b348015610c7257600080fd5b506040805160e081810190925261033c91369160049160e49190839060079083908390808284375050604080516101208181019092529497969581810195945092506009915083908390808284375050604080516020601f60808901358a0180359182018390048302840183018552818452979a60ff8a3581169b848c013582169b9687013582169a6060880135909216995091975090955060a090940193820191819084018382808284375050604080516020601f89358b018035918201839004830284018301909452808352979a99988101979196509182019450925082915084018382808284375050604080516020601f89358b018035918201839004830284018301909452808352979a99988101979196509182019450925082915084018382808284375094975050505091351515925061223b915050565b348015610dbb57600080fd5b5061024f612390565b348015610dd057600080fd5b5061044061239f565b348015610de557600080fd5b506040805160e081810190925261044091369160049160e49190839060079083908390808284375050604080516101208181019092529497969581810195945092506009915083908390808284375050604080516020601f60808901358a0180359182018390048302840183018552818452979a60ff8a3581169b848c013582169b9687013582169a6060880135909216995091975090955060a090940193820191819084018382808284375050604080516020601f89358b018035918201839004830284018301909452808352979a99988101979196509182019450925082915084018382808284375050604080516020601f89358b018035918201839004830284018301909452808352979a9998810197919650918201945092508291508401838280828437509497506123a59650505050505050565b348015610f2a57600080fd5b506103106004356124e5565b348015610f4257600080fd5b5061024f6124fa565b348015610f5757600080fd5b5061024f61250e565b348015610f6c57600080fd5b506040805160e081810190925261033c91369160049160e49190839060079083908390808284375050604080516101208181019092529497969581810195945092506009915083908390808284375050604080516020601f60808901358a0180359182018390048302840183018552818452979a60ff8a3581169b848c013582169b9687013582169a6060880135909216995091975090955060a090940193820191819084018382808284375050604080516020601f89358b018035918201839004830284018301909452808352979a99988101979196509182019450925082915084018382808284375050604080516020601f89358b018035918201839004830284018301909452808352979a9998810197919650918201945092508291508401838280828437509497505050833560ff169450505060208201359160400135905061251d565b604080516101c081810190925261033c9136916004916101c491908390600e9083908390808284375050604080516102408181019092529497969581810195945092506012915083908390808284375050604080516101008181019092529497969581810195945092506008915083908390808284375050604080516020601f88358a0180359182018390048302840183019094528083529699989781019691955091820193509150819084018382808284375050604080516020601f89358b018035918201839004830284018301909452808352979a99988101979196509182019450925082915084018382808284375050604080516020601f89358b018035918201839004830284018301909452808352979a99988101979196509182019450925082915084018382808284375050604080516020601f89358b018035918201839004830284018301909452808352979a99988101979196509182019450925082915084018382808284375050604080516020601f89358b018035918201839004830284018301909452808352979a99988101979196509182019450925082915084018382808284375050604080516020601f89358b018035918201839004830284018301909452808352979a999881019791965091820194509250829150840183828082843750506040805180820182529598979681810196955093506002925084915083908082843750506040805160a0818101909252949796958181019594509250600591508390839080828437509396506126f395505050505050565b34801561130357600080fd5b506040805160e081810190925261031091369160049160e49190839060079083908390808284375050604080516101208181019092529497969581810195945092506009915083908390808284375050604080516020601f60808901358a0180359182018390048302840183018552818452979a60ff8a3581169b848c013582169b9687013582169a6060880135909216995091975090955060a090940193820191819084018382808284375050604080516020601f89358b018035918201839004830284018301909452808352979a99988101979196509182019450925082915084018382808284375050604080516020601f89358b018035918201839004830284018301909452808352979a999881019791965091820194509250829150840183828082843750949750612b099650505050505050565b34801561144857600080fd5b50610440612c61565b34801561145d57600080fd5b50604080516101c08181019092526104409136916004916101c491908390600e9083908390808284375050604080516102408181019092529497969581810195945092506012915083908390808284375050604080516101008181019092529497969581810195945092506008915083908390808284375050604080516020601f88358a0180359182018390048302840183019094528083529699989781019691955091820193509150819084018382808284375050604080516020601f89358b018035918201839004830284018301909452808352979a99988101979196509182019450925082915084018382808284375050604080516020601f89358b018035918201839004830284018301909452808352979a99988101979196509182019450925082915084018382808284375050604080516020601f89358b018035918201839004830284018301909452808352979a99988101979196509182019450925082915084018382808284375050604080516020601f89358b018035918201839004830284018301909452808352979a99988101979196509182019450925082915084018382808284375050604080516020601f89358b018035918201839004830284018301909452808352979a999881019791965091820194509250829150840183828082843750949750612c679650505050505050565b34801561166457600080fd5b50610310600435613043565b34801561167c57600080fd5b5061033c600160a060020a0360043516613058565b60408051808201909152601781527f50726f6a6563742057797665726e2045786368616e6765000000000000000000602082015281565b600354600160a060020a031681565b60006060600083518551016040519080825280601f01601f19166020018201604052801561170f578160200160208202803883390190505b50915050602081016117218185613100565b905061172d8186613100565b506000604051835160208501895afa9695505050505050565b60005433600160a060020a03908116610100909204161461176657600080fd5b600655565b60005433600160a060020a03908116610100909204161461178b57600080fd5b600755565b606061179d848484613146565b50825b9392505050565b60075481565b60408051808201909152600881527f42616b756e617761000000000000000000000000000000000000000000000000602082015281565b60408051601480825281830190925260609182916000916020820161028080388339019050509150506020810161181b81856132c4565b50909392505050565b606080600083516040519080825280601f01601f191660200182016040528015611858578160200160208202803883390190505b509150506020810161181b8185613100565b604080516102e0810182528a51600160a060020a0390811682526020808d01518216818401528c8401518216838501528b51606080850191909152908c01516080840152928b015160a08301528a83015160c0830152918b015190911660e08201526000906119aa9061010081018a60018111156118e457fe5b81526020018960018111156118f557fe5b815260200188600181111561190657fe5b815260808d0151600160a060020a0316602082015260400187600181111561192a57fe5b8152602081018790526040810186905260a0808e0151600160a060020a0316606083015260808201869052018c600660209081029190910151600160a060020a031682526080808e01519183019190915260a0808e0151604084015260c08e0151606084015260e08e0151918301919091526101008d01519101526132e4565b9a9950505050505050505050565b60005433600160a060020a0390811661010090920416146119d857600080fd5b6008805473ffffffffffffffffffffffffffffffffffffffff1916600160a060020a0392909216919091179055565b60408051808201909152600181527f3200000000000000000000000000000000000000000000000000000000000000602082015281565b60008084511115611a5457611a54858486613146565b600082511115611a6957611a69838684613146565b611a73858461331a565b95945050505050565b6000611a86614b0c565b604080516102e08101909152808f600060209081029190910151600160a060020a03168252018f600160209081029190910151600160a060020a03168252018f600260209081029190910151600160a060020a03168252018e6000602090810291909101518252018e6001602090810291909101518252018e6002602090810291909101518252018e6003602090810291909101518252018f60036020020151600160a060020a031681526020018d6001811115611b4057fe5b81526020018c6001811115611b5157fe5b81526020018b6001811115611b6257fe5b81526020018f60046020020151600160a060020a031681526020018a6001811115611b8957fe5b8152602081018a9052604081018990526060018f60056020020151600160a060020a031681526020018781526020018f6006600781101515611bc757fe5b60209081029190910151600160a060020a03168252018e6004602090810291909101518252018e6005602090810291909101518252018e6006602090810291909101518252018e6007602090810291909101518252018e6008602002015190529050611c59611c358261337e565b6040805160608101825260ff891681526020810188905290810186905283906133c9565b9e9d5050505050505050505050505050565b6000611c7b8787878787876134be565b979650505050505050565b600854600160a060020a031681565b60005433600160a060020a039081166101009092041614611cb557600080fd5b60008054604051610100909104600160a060020a0316917ff8df31144d9c2f0f6b59d69b8b98abd5459d07f2742c4df920b25aae33c6482091a26000805474ffffffffffffffffffffffffffffffffffffffff0019169055565b604080516102e0810182528a51600160a060020a0390811682526020808d01518216818401528c8401518216838501528b51606080850191909152908c01516080840152928b015160a08301528a83015160c0830152918b015190911660e08201526000906119aa9061010081018a6001811115611d8957fe5b8152602001896001811115611d9a57fe5b8152602001886001811115611dab57fe5b815260808d0151600160a060020a03166020820152604001876001811115611dcf57fe5b8152602081018790526040810186905260a0808e0151600160a060020a0316606083015260808201869052018c600660209081029190910151600160a060020a031682526080808e01519183019190915260a0808e0151604084015260c08e0151606084015260e08e0151918301919091526101008d0151910152613551565b6000611e59614b0c565b611e61614b0c565b604080516102e08101909152808d600060209081029190910151600160a060020a03168252018d600160209081029190910151600160a060020a03168252018d600260209081029190910151600160a060020a03168252018c6000602090810291909101518252018c6001602090810291909101518252018c6002602090810291909101518252018c6003602090810291909101518252018d600360209081029190910151600160a060020a03168252018b6000602002015160ff166001811115611f2857fe5b6001811115611f3357fe5b81526020018b6001602002015160ff166001811115611f4e57fe5b6001811115611f5957fe5b81526020018b6002602002015160ff166001811115611f7457fe5b6001811115611f7f57fe5b815260808e0151600160a060020a0316602082015260608c015160409091019060ff166001811115611fad57fe5b6001811115611fb857fe5b8152602081018b90526040810189905260a0808f0151600160a060020a0316606083015260808201889052018d600660209081029190910151600160a060020a03168252018c6004602090810291909101518252018c6005602090810291909101518252018c6006602090810291909101518252018c6007602090810291909101518252018c600860200201519052604080516102e08101909152909250808d600760209081029190910151600160a060020a03168252018d600860209081029190910151600160a060020a03168252018d600960209081029190910151600160a060020a03168252018c6009602090810291909101518252018c600a602090810291909101518252018c600b602090810291909101518252018c600c602090810291909101518252018d600a60209081029190910151600160a060020a03168252018b6004602002015160ff16600181111561211157fe5b600181111561211c57fe5b81526020018b6005602002015160ff16600181111561213757fe5b600181111561214257fe5b81526020018b6006602002015160ff16600181111561215d57fe5b600181111561216857fe5b81526101608e0151600160a060020a0316602082015260e08c015160409091019060ff16600181111561219757fe5b60018111156121a257fe5b8152602081018a9052604081018890526101808e0151600160a060020a031660608201526080810186905260a0018d600d60209081029190910151600160a060020a031682526101a08e0151908201526101c08d015160408201526101e08d015160608201526102008d015160808201526102208d015160a090910152905061222b8282613740565b9c9b505050505050505050505050565b612243614b0c565b604080516102e0810182528c51600160a060020a0390811682526020808f01518216818401528e8401518216838501528d51606080850191909152908e01516080840152928d015160a08301528c83015160c0830152918d015190911660e082015261010081018a60018111156122b657fe5b81526020018960018111156122c757fe5b81526020018860018111156122d857fe5b815260808d0151600160a060020a031660208201526040018760018111156122fc57fe5b8152602081018790526040810186905260a0808e0151600160a060020a0316606083015260808201869052018c600660209081029190910151600160a060020a031682526080808e01519183019190915260a0808e0151604084015260c08e0151606084015260e08e0151918301919091526101008d01519101529050612383818361391a565b5050505050505050505050565b600254600160a060020a031681565b60065481565b604080516102e0810182528a51600160a060020a0390811682526020808d01518216818401528c8401518216838501528b51606080850191909152908c01516080840152928b015160a08301528a83015160c0830152918b015190911660e08201526000906119aa9061010081018a600181111561241f57fe5b815260200189600181111561243057fe5b815260200188600181111561244157fe5b815260808d0151600160a060020a0316602082015260400187600181111561246557fe5b8152602081018790526040810186905260a0808e0151600160a060020a0316606083015260808201869052018c600660209081029190910151600160a060020a031682526080808e01519183019190915260a0808e0151604084015260c08e0151606084015260e08e0151918301919091526101008d015191015261337e565b60046020526000908152604090205460ff1681565b6000546101009004600160a060020a031681565b600154600160a060020a031681565b604080516102e081019091526126e590808e600060209081029190910151600160a060020a03168252018e600160209081029190910151600160a060020a03168252018e600260209081029190910151600160a060020a03168252018d6000602090810291909101518252018d6001602090810291909101518252018d6002602090810291909101518252018d6003602090810291909101518252018e60036020020151600160a060020a031681526020018c60018111156125db57fe5b81526020018b60018111156125ec57fe5b81526020018a60018111156125fd57fe5b815260808f0151600160a060020a0316602082015260400189600181111561262157fe5b815260208101899052604081018890526060018e60056020020151600160a060020a031681526020018681526020018e600660078110151561265f57fe5b60209081029190910151600160a060020a03168252018d6004602090810291909101518252018d6005602090810291909101518252018d6006602090810291909101518252018d6007602090810291909101518252018d6008602090810291909101519091526040805160608101825260ff881681529182018690528101849052613ce8565b505050505050505050505050565b604080516102e0810182528c51600160a060020a0390811682526020808f01518216818401528e8401518216838501528d51606080850191909152908e01516080840152928d015160a08301528c83015160c0830152918d015190911660e08201528951612383919061010082019060ff16600181111561277057fe5b600181111561277b57fe5b81526020018b6001602002015160ff16600181111561279657fe5b60018111156127a157fe5b81526020018b6002602002015160ff1660018111156127bc57fe5b60018111156127c757fe5b815260808e0151600160a060020a0316602082015260608c015160409091019060ff1660018111156127f557fe5b600181111561280057fe5b8152602081018b90526040810189905260a0808f0151600160a060020a0316606083015260808201889052018d600660209081029190910151600160a060020a03168252018c6004602090810291909101518252018c6005602090810291909101518252018c6006602090810291909101518252018c6007602090810291909101518252018c6008602002015190526040805160608101909152808560006020908102919091015160ff168252018460006020908102919091015182520184600160200201519052604080516102e08101909152808f600760209081029190910151600160a060020a03168252018f600860209081029190910151600160a060020a03168252018f600960209081029190910151600160a060020a03168252018e6009602090810291909101518252018e600a602090810291909101518252018e600b602090810291909101518252018e600c602090810291909101518252018f600a60209081029190910151600160a060020a03168252018d6004602002015160ff16600181111561298f57fe5b600181111561299a57fe5b81526020018d6005602002015160ff1660018111156129b557fe5b60018111156129c057fe5b81526020018d6006602002015160ff1660018111156129db57fe5b60018111156129e657fe5b81526020018f600b60209081029190910151600160a060020a03168252018d6007602002015160ff166001811115612a1a57fe5b6001811115612a2557fe5b8152602081018c9052604081018a90526060018f600c6020020151600160a060020a031681526020018781526020018f600d600e81101515612a6357fe5b60209081029190910151600160a060020a03168252018e600d602090810291909101518252018e600e602090810291909101518252018e600f602090810291909101518252018e6010602090810291909101518252018e6011602002015190526040805160608101909152808760016020908102919091015160ff1682520186600260209081029190910151825201866003602002015190528560046020020151613d5f565b6000612b13614b0c565b604080516102e0810182528c51600160a060020a0390811682526020808f01518216818401528e8401518216838501528d51606080850191909152908e01516080840152928d015160a08301528c83015160c0830152918d015190911660e082015261010081018a6001811115612b8657fe5b8152602001896001811115612b9757fe5b8152602001886001811115612ba857fe5b815260808d0151600160a060020a03166020820152604001876001811115612bcc57fe5b8152602081018790526040810186905260a0808e0151600160a060020a0316606083015260808201869052018c600660209081029190910151600160a060020a031682526080808e01519183019190915260a0808e0151604084015260c08e0151606084015260e08e0151918301919091526101008d01519101529050612c5281614235565b9b9a5050505050505050505050565b61271081565b6000612c71614b0c565b612c79614b0c565b604080516102e08101909152808d600060209081029190910151600160a060020a03168252018d600160209081029190910151600160a060020a03168252018d600260209081029190910151600160a060020a03168252018c6000602090810291909101518252018c6001602090810291909101518252018c6002602090810291909101518252018c6003602090810291909101518252018d600360209081029190910151600160a060020a03168252018b6000602002015160ff166001811115612d4057fe5b6001811115612d4b57fe5b81526020018b6001602002015160ff166001811115612d6657fe5b6001811115612d7157fe5b81526020018b6002602002015160ff166001811115612d8c57fe5b6001811115612d9757fe5b815260808e0151600160a060020a0316602082015260608c015160409091019060ff166001811115612dc557fe5b6001811115612dd057fe5b8152602081018b90526040810189905260a0808f0151600160a060020a0316606083015260808201889052018d600660209081029190910151600160a060020a03168252018c6004602090810291909101518252018c6005602090810291909101518252018c6006602090810291909101518252018c6007602090810291909101518252018c600860200201519052604080516102e08101909152909250808d600760209081029190910151600160a060020a03168252018d600860209081029190910151600160a060020a03168252018d600960209081029190910151600160a060020a03168252018c6009602090810291909101518252018c600a602090810291909101518252018c600b602090810291909101518252018c600c602090810291909101518252018d600a60209081029190910151600160a060020a03168252018b6004602002015160ff166001811115612f2957fe5b6001811115612f3457fe5b81526020018b6005602002015160ff166001811115612f4f57fe5b6001811115612f5a57fe5b81526020018b6006602002015160ff166001811115612f7557fe5b6001811115612f8057fe5b81526101608e0151600160a060020a0316602082015260e08c015160409091019060ff166001811115612faf57fe5b6001811115612fba57fe5b8152602081018a9052604081018890526101808e0151600160a060020a031660608201526080810186905260a0018d600d60209081029190910151600160a060020a031682526101a08e0151908201526101c08d015160408201526101e08d015160608201526102008d015160808201526102208d015160a090910152905061222b82826142c9565b60056020526000908152604090205460ff1681565b60005433600160a060020a03908116610100909204161461307857600080fd5b600160a060020a038116151561308d57600080fd5b60008054604051600160a060020a038085169361010090930416917f8be0079c531659141344cd1fd0a4f28419497f9722a3daafe3b4186f6b6457e091a360008054600160a060020a039092166101000274ffffffffffffffffffffffffffffffffffffffff0019909216919091179055565b6000808251111561313d57815180602001830160208401855b60018383101415613134578151815260209182019101613119565b50505092909201915b50815b92915050565b60008060008451865114151561315b57600080fd5b835186511461316957600080fd5b855160209004925060208084029250839083041461318357fe5b5060005b828110156131ac57600101602081028481015190870180518219169091179052613187565b60008311156131da57508451601e1981016020028481015190870180518219169091179052601f19016132bc565b50805b85518110156132bc5784818151811015156131f457fe5b90602001015160f860020a900460f860020a02848281518110151561321557fe5b90602001015160f860020a900460f860020a0216868281518110151561323757fe5b90602001015160f860020a900460f860020a02858381518110151561325857fe5b90602001015160f860020a900460f860020a0260ff60f860020a02181617868281518110151561328457fe5b9060200101907effffffffffffffffffffffffffffffffffffffffffffffffffffffffffffff1916908160001a9053506001016131dd565b505050505050565b600160a060020a03166c0100000000000000000000000002815260140190565b6000613312826101200151836101400151846102400151856102600151866102800151876102a001516134be565b90505b919050565b8151815160009160019181148083146133365760009250613374565b600160208701838101602088015b60028483851001141561336f5780518351146133635760009650600093505b60209283019201613344565b505050505b5090949350505050565b600061338982613551565b604080517f19457468657265756d205369676e6564204d6573736167653a0a3332000000008152601c8101929092525190819003603c0190209050919050565b60006133d483614235565b15156133e2575060006117a0565b60008481526004602052604090205460ff1615613401575060006117a0565b60008481526005602052604090205460ff1615613420575060016117a0565b602080840151835184830151604080870151815160008082528188018085528c905260ff909516818401526060810193909352608083015251600160a060020a039093169360019360a0808401949293601f19830193908390039091019190865af1158015613493573d6000803e3d6000fd5b50505060206040510351600160a060020a031614156134b4575060016117a0565b5060009392505050565b600080808760018111156134ce57fe5b14156134dc57859150613546565b60018760018111156134ea57fe5b141561354657613515613506866135014288614359565b61436b565b6135108587614359565b614394565b9050600188600181111561352557fe5b141561353c576135358682614359565b9150613546565b61353586826143a9565b509695505050505050565b60008060606000613561856143b6565b9250826040519080825280601f01601f191660200182016040528015613591578160200160208202803883390190505b5091506020820190506135a88186600001516132c4565b90506135b88186602001516132c4565b90506135c88186604001516132c4565b90506135d88186606001516143d6565b90506135e88186608001516143d6565b90506135f8818660a001516143d6565b9050613608818660c001516143d6565b9050613618818660e001516132c4565b905061363481866101000151600181111561362f57fe5b6143de565b905061364b81866101200151600181111561362f57fe5b905061366281866101400151600181111561362f57fe5b9050613673818661016001516132c4565b905061368a81866101800151600181111561362f57fe5b905061369b81866101a00151613100565b90506136ac81866101c00151613100565b90506136bd81866101e001516132c4565b90506136ce81866102000151613100565b90506136df818661022001516132c4565b90506136f0818661024001516143d6565b9050613701818661026001516143d6565b9050613712818661028001516143d6565b905061372381866102a001516143d6565b905061373481866102c001516143d6565b50506020012092915050565b600080836101200151600181111561375457fe5b14801561377157506001826101200151600181111561376f57fe5b145b801561379c5750816101000151600181111561378957fe5b836101000151600181111561379a57fe5b145b80156137c35750816102200151600160a060020a0316836102200151600160a060020a0316145b80156137fd57506040820151600160a060020a031615806137fd57508260200151600160a060020a03168260400151600160a060020a0316145b801561383757506040830151600160a060020a0316158061383757508160200151600160a060020a03168360400151600160a060020a0316145b8015613892575060e0820151600160a060020a0316158015613865575060e0830151600160a060020a031615155b80613892575060e0820151600160a060020a031615801590613892575060e0830151600160a060020a0316155b80156138b95750816101600151600160a060020a0316836101600151600160a060020a0316145b80156138e4575081610180015160018111156138d157fe5b83610180015160018111156138e257fe5b145b80156138ff57506138ff836102800151846102a001516143eb565b80156117a057506117a0826102800151836102a001516143eb565b60008260200151600160a060020a031633600160a060020a031614151561394057600080fd5b6139498361337e565b60008181526005602052604090205490915060ff161561396857600080fd5b600160056000836000191660001916815260200190815260200160002060006101000a81548160ff0219169083151502179055508260e00151600160a060020a03168360200151600160a060020a031682600019167f90c7f9f5b58c15f0f635bfb99f55d3d78fdbef3559e7d8abf5c81052a527662286600001518760400151886060015189608001518a60a001518b60c001518c61010001518d61012001518e61014001518f6101600151604051808b600160a060020a0316600160a060020a031681526020018a600160a060020a0316600160a060020a03168152602001898152602001888152602001878152602001868152602001856001811115613a6c57fe5b60ff168152602001846001811115613a8057fe5b60ff168152602001836001811115613a9457fe5b60ff168152600160a060020a039092166020830152506040805191829003019950975050505050505050a480600019167fe55393c778364e440d958b39ac1debd99dcfae3775a8a04d1e79124adf6a2d08846101800151856101a00151866101c00151876101e001518861020001518961022001518a61024001518b61026001518c61028001518d6102a001518e6102c001518e604051808d6001811115613b3857fe5b60ff16815260200180602001806020018c600160a060020a0316600160a060020a03168152602001806020018b600160a060020a0316600160a060020a031681526020018a81526020018981526020018881526020018781526020018681526020018515151515815260200184810384528f818151815260200191508051906020019080838360005b83811015613bd9578181015183820152602001613bc1565b50505050905090810190601f168015613c065780820380516001836020036101000a031916815260200191505b5084810383528e818151815260200191508051906020019080838360005b83811015613c3c578181015183820152602001613c24565b50505050905090810190601f168015613c695780820380516001836020036101000a031916815260200191505b5084810382528c5181528c516020918201918e019080838360005b83811015613c9c578181015183820152602001613c84565b50505050905090810190601f168015613cc95780820380516001836020036101000a031916815260200191505b509f5050505050505050505050505050505060405180910390a2505050565b6000613cf48383614407565b90508260200151600160a060020a031633600160a060020a0316141515613d1a57600080fd5b600081815260046020526040808220805460ff191660011790555182917f5152abf959f6564662358c2e52b702259b78bac5ee7842a0f01937e670efcc7d91a2505050565b600080548190819081908190819060ff1615613d7a57600080fd5b6000805460ff1916600117905560208b0151600160a060020a0390811633919091161415613dbb57613dab8b614235565b1515613db657600080fd5b613dc8565b613dc58b8b614407565b95505b33600160a060020a03168960200151600160a060020a03161415613dff57613def89614235565b1515613dfa57600080fd5b613e0c565b613e098989614407565b94505b613e168b8a613740565b1515613e2157600080fd5b610160890151803b9450925060008411613e3a57600080fd5b60008b6101c00151511115613e6357613e638b6101a001518a6101a001518d6101c00151613146565b6000896101c00151511115613e8c57613e8c896101a001518c6101a001518b6101c00151613146565b613ea08b6101a001518a6101a0015161331a565b1515613eab57600080fd5b6002546020808b0151604080517fc4552791000000000000000000000000000000000000000000000000000000008152600160a060020a0392831660048201529051919093169263c45527919260248083019391928290030181600087803b158015613f1657600080fd5b505af1158015613f2a573d6000803e3d6000fd5b505050506040513d6020811015613f4057600080fd5b50519150600160a060020a0382161515613f5957600080fd5b8a60200151600160a060020a031633600160a060020a0316141515613f92576000868152600460205260409020805460ff191660011790555b8860200151600160a060020a031633600160a060020a0316141515613fcb576000858152600460205260409020805460ff191660011790555b613fd58b8a61442b565b905081600160a060020a0316631b0f7ba98a61016001518b61018001518c6101a001516040518463ffffffff167c01000000000000000000000000000000000000000000000000000000000281526004018084600160a060020a0316600160a060020a0316815260200183600181111561404b57fe5b60ff16815260200180602001828103825283818151815260200191508051906020019080838360005b8381101561408c578181015183820152602001614074565b50505050905090810190601f1680156140b95780820380516001836020036101000a031916815260200191505b50945050505050602060405180830381600087803b1580156140da57600080fd5b505af11580156140ee573d6000803e3d6000fd5b505050506040513d602081101561410457600080fd5b5051151561411157600080fd5b6101e08b0151600160a060020a03161561414a5761413f8b6101e001518a6101a001518d61020001516116d7565b151561414a57600080fd5b6101e0890151600160a060020a03161561418357614178896101e001518a6101a001518b61020001516116d7565b151561418357600080fd5b60e08901518790600160a060020a031615156141a35789602001516141a9565b8b602001515b60e08b0151600160a060020a03918216911615156141cb578c602001516141d1565b8a602001515b604080518a8152602081018a90528082018690529051600160a060020a0392909216917fc4109843e0b7d514e4c093114b863f8e7d8d9a458c372cd51bfe526b588006c99181900360600190a450506000805460ff19169055505050505050505050565b600030600160a060020a03168260000151600160a060020a031614151561425e57506000613315565b614272826101400151836102a00151614a0b565b151561428057506000613315565b6001826101000151600181111561429357fe5b1480156142b457506006548260a0015110806142b457506007548260c00151105b156142c157506000613315565b506001919050565b60008060006142fa846101200151856101400151866102400151876102600151886102800151896102a001516134be565b91506143288561012001518661014001518761024001518861026001518961028001518a6102a001516134be565b90508181101561433757600080fd5b60e0840151600160a060020a031615156143515780611a73565b509392505050565b60008282111561436557fe5b50900390565b600082151561437c57506000613140565b5081810281838281151561438c57fe5b041461314057fe5b600081838115156143a157fe5b049392505050565b8181018281101561314057fe5b610200810151516101c0820151516101a08301515101016101b001919050565b815260200190565b6000818353505060010190565b600042831080156117a057508115806117a05750504210919050565b6000806144138461337e565b90506144208185856133c9565b15156117a057600080fd5b600080600080600080600080600080600160a060020a03168a6102200151600160a060020a031614151561446457341561446457600080fd5b61446e8b8b6142c9565b975060008811801561448d57506102208a0151600160a060020a031615155b156144ab576144ab8a61022001518c602001518c602001518b614a2a565b60e08a0151889750879650600160a060020a0316156147c7576080808c0151908b015111156144d957600080fd5b60018a610100015160018111156144ec57fe5b14156147945760c0808c0151908b0151111561450757600080fd5b60008a6060015111156145ab5761452d6145258b606001518a61436b565b612710614394565b6102208b0151909550600160a060020a031615156145925761454f8786614359565b60e08b0151604051919850600160a060020a03169086156108fc029087906000818181858888f1935050505015801561458c573d6000803e3d6000fd5b506145ab565b6145ab8a61022001518b602001518c60e0015188614a2a565b60008a608001511115614647576145c96145258b608001518a61436b565b6102208b0151909450600160a060020a0316151561462e576145eb86856143a9565b60e08b0151604051919750600160a060020a03169085156108fc029086906000818181858888f19350505050158015614628573d6000803e3d6000fd5b50614647565b6146478a61022001518c602001518c60e0015187614a2a565b60008a60a0015111156146eb576146656145258b60a001518a61436b565b6102208b0151909350600160a060020a031615156146c8576146878784614359565b600854604051919850600160a060020a03169084156108fc029085906000818181858888f193505050501580156146c2573d6000803e3d6000fd5b506146eb565b6102208a015160208b01516008546146eb929190600160a060020a031686614a2a565b60008a60c00151111561478f576147096145258b60c001518a61436b565b6102208b0151909250600160a060020a0316151561476c5761472b86836143a9565b600854604051919750600160a060020a03169083156108fc029084906000818181858888f19350505050158015614766573d6000803e3d6000fd5b5061478f565b6102208a015160208c015160085461478f929190600160a060020a031685614a2a565b6147c2565b6147ab8a602001518b60e001518c60600151614aef565b6147c28b602001518b60e001518c60800151614aef565b614948565b6080808b0151908c015111156147dc57600080fd5b60018a610100015160018111156147ef57fe5b141561491a576102208a0151600160a060020a0316151561480f57600080fd5b60c0808b0151908c0151111561482457600080fd5b60008b60600151111561485d576148426145258c606001518a61436b565b945061485d8a61022001518c602001518d60e0015188614a2a565b60008b6080015111156148965761487b6145258c608001518a61436b565b93506148968a61022001518b602001518d60e0015187614a2a565b60008b60a0015111156148d8576148b46145258c60a001518a61436b565b6102208b015160208d01516008549295506148d892600160a060020a031686614a2a565b60008b60c0015111156147c2576148f66145258c60c001518a61436b565b6102208b015160208c01516008549294506147c292600160a060020a031685614a2a565b6149318b602001518c60e001518d60600151614aef565b6149488a602001518c60e001518d60800151614aef565b6102208a0151600160a060020a031615156149fc573486111561496a57600080fd5b8960200151600160a060020a03166108fc889081150290604051600060405180830381858888f193505050501580156149a7573d6000803e3d6000fd5b506149b23487614359565b905060008111156149fc578a60200151600160a060020a03166108fc829081150290604051600060405180830381858888f193505050501580156149fa573d6000803e3d6000fd5b505b50959998505050505050505050565b600080836001811115614a1a57fe5b14806117a0575050600010919050565b6000811115614ae957600354604080517f15dacbea000000000000000000000000000000000000000000000000000000008152600160a060020a0387811660048301528681166024830152858116604483015260648201859052915191909216916315dacbea9160848083019260209291908290030181600087803b158015614ab257600080fd5b505af1158015614ac6573d6000803e3d6000fd5b505050506040513d6020811015614adc57600080fd5b50511515614ae957600080fd5b50505050565b600154614b0790600160a060020a0316848484614a2a565b505050565b604080516102e081018252600080825260208201819052918101829052606081018290526080810182905260a0810182905260c0810182905260e081018290529061010082019081526020016000815260200160008152600060208201819052604090910190815260200160608152602001606081526020016000600160a060020a03168152602001606081526020016000600160a060020a03168152602001600081526020016000815260200160008152602001600081526020016000815250905600a165627a7a723058204f4ae808624a3e7cddd9cfd50ce5d580499b60a79335a578fd293e71351ad1ff0029",
  "source": "/*\n\n  << Project Wyvern Exchange >>\n\n*/\n\npragma solidity 0.4.23;\n\nimport \"./exchange/Exchange.sol\";\n\n/**\n * @title WyvernExchange\n * @author Project Wyvern Developers\n */\ncontract WyvernExchange is Exchange {\n\n    string public constant name = \"Project Wyvern Exchange\";\n\n    string public constant version = \"2\";\n\n    string public constant codename = \"Bakunawa\";\n\n    /**\n     * @dev Initialize a WyvernExchange instance\n     * @param registryAddress Address of the registry instance which this Exchange instance will use\n     * @param tokenAddress Address of the token used for protocol fees\n     */\n    constructor (ProxyRegistry registryAddress, TokenTransferProxy tokenTransferProxyAddress, ERC20 tokenAddress, address protocolFeeAddress) public {\n        registry = registryAddress;\n        tokenTransferProxy = tokenTransferProxyAddress;\n        exchangeToken = tokenAddress;\n        protocolFeeRecipient = protocolFeeAddress;\n        owner = msg.sender;\n    }\n\n}\n",
  "sourcePath": "/home/cwgoes/working/crypto/wyvern/wyvern-ethereum/contracts/WyvernExchange.sol",
  "compiler": {
    "name": "solc",
    "version": "0.4.23+commit.124ca40d.Emscripten.clang"
  },
  "schemaVersion": "2.0.0",
  "updatedAt": "2018-06-02T20:25:31.372Z"
}