{
  "contractName": "WyvernRegistry",
  "abi": [
    {
      "constant": true,
      "inputs": [],
      "name": "name",
      "outputs": [
        {
          "name": "",
          "type": "string"
        }
      ],
      "payable": false,
      "stateMutability": "view",
      "type": "function"
    },
    {
      "constant": false,
      "inputs": [
        {
          "name": "newUsername",
          "type": "string"
        }
      ],
      "name": "changeUsername",
      "outputs": [],
      "payable": false,
      "stateMutability": "nonpayable",
      "type": "function"
    },
    {
      "constant": true,
      "inputs": [
        {
          "name": "",
          "type": "address"
        }
      ],
      "name": "proxies",
      "outputs": [
        {
          "name": "",
          "type": "address"
        }
      ],
      "payable": false,
      "stateMutability": "view",
      "type": "function"
    },
    {
      "constant": true,
      "inputs": [
        {
          "name": "username",
          "type": "string"
        }
      ],
      "name": "reverseUsername",
      "outputs": [
        {
          "name": "",
          "type": "address"
        }
      ],
      "payable": false,
      "stateMutability": "view",
      "type": "function"
    },
    {
      "constant": true,
      "inputs": [
        {
          "name": "",
          "type": "address"
        }
      ],
      "name": "usernames",
      "outputs": [
        {
          "name": "",
          "type": "string"
        }
      ],
      "payable": false,
      "stateMutability": "view",
      "type": "function"
    },
    {
      "constant": false,
      "inputs": [
        {
          "name": "username",
          "type": "string"
        }
      ],
      "name": "register",
      "outputs": [
        {
          "name": "proxy",
          "type": "address"
        }
      ],
      "payable": false,
      "stateMutability": "nonpayable",
      "type": "function"
    },
    {
      "inputs": [],
      "payable": false,
      "stateMutability": "nonpayable",
      "type": "constructor"
    }
  ],
  "bytecode": "0x6060604052341561000f57600080fd5b610ef38061001e6000396000f3006060604052600436106100775763ffffffff7c010000000000000000000000000000000000000000000000000000000060003504166306fdde03811461007c57806377c846af14610106578063c455279114610159578063ce45052714610194578063ee91877c146101e5578063f2c298be14610204575b600080fd5b341561008757600080fd5b61008f610255565b60405160208082528190810183818151815260200191508051906020019080838360005b838110156100cb5780820151838201526020016100b3565b50505050905090810190601f1680156100f85780820380516001836020036101000a031916815260200191505b509250505060405180910390f35b341561011157600080fd5b61015760046024813581810190830135806020601f8201819004810201604051908101604052818152929190602084018383808284375094965061028c95505050505050565b005b341561016457600080fd5b610178600160a060020a0360043516610537565b604051600160a060020a03909116815260200160405180910390f35b341561019f57600080fd5b61017860046024813581810190830135806020601f8201819004810201604051908101604052818152929190602084018383808284375094965061055295505050505050565b34156101f057600080fd5b61008f600160a060020a03600435166105ca565b341561020f57600080fd5b61017860046024813581810190830135806020601f8201819004810201604051908101604052818152929190602084018383808284375094965061067a95505050505050565b60408051908101604052601781527f50726f6a6563742057797665726e205265676973747279000000000000000000602082015281565b61029461084a565b600160a060020a033381166000908152602081905260409020541615156102ba57600080fd5b60006002836040518082805190602001908083835b602083106102ee5780518252601f1990920191602091820191016102cf565b6001836020036101000a03801982511681845116808217855250505050505090500191505090815260200160405190819003902054600160a060020a03161461033657600080fd5b6001600033600160a060020a0316600160a060020a031681526020019081526020016000208054600181600116156101000203166002900480601f0160208091040260200160405190810160405280929190818152602001828054600181600116156101000203166002900480156103ef5780601f106103c4576101008083540402835291602001916103ef565b820191906000526020600020905b8154815290600101906020018083116103d257829003601f168201915b505050505090506002816040518082805190602001908083835b602083106104285780518252601f199092019160209182019101610409565b6001836020036101000a038019825116818451168082178552505050505050905001915050908152602001604051908190039020805473ffffffffffffffffffffffffffffffffffffffff1916905533600160a060020a031660009081526001602052604090208280516104a092916020019061085c565b50336002836040518082805190602001908083835b602083106104d45780518252601f1990920191602091820191016104b5565b6001836020036101000a038019825116818451168082178552505050505050905001915050908152602001604051908190039020805473ffffffffffffffffffffffffffffffffffffffff1916600160a060020a03929092169190911790555050565b600060208190529081526040902054600160a060020a031681565b60006002826040518082805190602001908083835b602083106105865780518252601f199092019160209182019101610567565b6001836020036101000a03801982511681845116808217855250505050505090500191505090815260200160405190819003902054600160a060020a031692915050565b60016020528060005260406000206000915090508054600181600116156101000203166002900480601f0160208091040260200160405190810160405280929190818152602001828054600181600116156101000203166002900480156106725780601f1061064757610100808354040283529160200191610672565b820191906000526020600020905b81548152906001019060200180831161065557829003601f168201915b505050505081565b600160a060020a03338116600090815260208190526040812054909116156106a157600080fd5b60006002836040518082805190602001908083835b602083106106d55780518252601f1990920191602091820191016106b6565b6001836020036101000a03801982511681845116808217855250505050505090500191505090815260200160405190819003902054600160a060020a03161461071d57600080fd5b600160a060020a033316600090815260016020526040902082805161074692916020019061085c565b50336002836040518082805190602001908083835b6020831061077a5780518252601f19909201916020918201910161075b565b6001836020036101000a038019825116818451168082178552505050505050905001915050908152602001604051908190039020805473ffffffffffffffffffffffffffffffffffffffff1916600160a060020a0392909216919091179055336107e26108da565b600160a060020a039091168152602001604051809103906000f080151561080857600080fd5b33600160a060020a039081166000908152602081905260409020805473ffffffffffffffffffffffffffffffffffffffff191691831691909117905592915050565b60206040519081016040526000815290565b828054600181600116156101000203166002900490600052602060002090601f016020900481019282601f1061089d57805160ff19168380011785556108ca565b828001600101855582156108ca579182015b828111156108ca5782518255916020019190600101906108af565b506108d69291506108ea565b5090565b6040516105c08061090883390190565b61090491905b808211156108d657600081556001016108f0565b9056006060604052341561000f57600080fd5b6040516020806105c08339810160405280805160008054600160a060020a03909216600160a060020a0319909216919091179055505061056c806100546000396000f3006060604052600436106100565763ffffffff7c010000000000000000000000000000000000000000000000000000000060003504166312711d37811461005b57806346a8ade814610131578063a277051f146101a6575b600080fd5b341561006657600080fd5b61011d600480359060248035600160a060020a0316919060649060443590810190830135806020601f8201819004810201604051908101604052818152929190602084018383808284378201915050505050509190803590602001908201803590602001908080601f016020809104026020016040519081016040528181529291906020840183838082843750949650508435946020810135945060ff6040820135169350606081013592506080013590506101d5565b604051901515815260200160405180910390f35b341561013c57600080fd5b61011d600480359060248035600160a060020a0316919060649060443590810190830135806020601f820181900481020160405190810160405281815292919060208401838380828437509496505060ff85351694602081013594506040013592506102d9915050565b34156101b157600080fd5b6101b961031b565b604051600160a060020a03909116815260200160405180910390f35b60006101df61052e565b6000868951146101ee57600080fd5b6101f98a8a8a61032a565b91508b8b8b8a8a336040518681526c01000000000000000000000000600160a060020a0387160260208201526034810185805190602001908083835b602083106102545780518252601f199092019160209182019101610235565b6001836020036101000a03801982511681845116808217855250505050505090500184815260200183815260200182600160a060020a0316600160a060020a03166c010000000000000000000000000281526014019650505050505050604051809103902090506102c98b83838989896103e3565b9c9b505050505050505050505050565b600061031087878760006040518059106102f05750595b818152601f19601f830116810160200160405290506000808a8a8a6101d5565b979650505050505050565b600054600160a060020a031681565b61033261052e565b60005b83518110156103da5783818151811061034a57fe5b01602001517f010000000000000000000000000000000000000000000000000000000000000090047f01000000000000000000000000000000000000000000000000000000000000000285848301815181106103a257fe5b9060200101907effffffffffffffffffffffffffffffffffffffffffffffffffffffffffffff1916908160001a905350600101610335565b50929392505050565b60008481526001602052604081205460ff16156103ff57600080fd5b600054600160a060020a03166001868686866040516000815260200160405260006040516020015260405193845260ff90921660208085019190915260408085019290925260608401929092526080909201915160208103908084039060008661646e5a03f1151561047057600080fd5b505060206040510351600160a060020a03161461048c57600080fd5b600085815260016020819052604091829020805460ff19169091179055600160a060020a0388169087905180828051906020019080838360005b838110156104de5780820151838201526020016104c6565b50505050905090810190601f16801561050b5780820380516001836020036101000a031916815260200191505b5091505060006040518083038160008661646e5a03f19998505050505050505050565b602060405190810160405260008152905600a165627a7a72305820e43b3e5378d08495f09f90ed046ec027e8a9e7ed820f759d125ed78b82d4bc8b0029a165627a7a72305820cb2f78e5386b50dd7bb59ee080b390875601617c2fda7045780c980e8b3d2fba0029",
  "source": "/*\n\n  << Project Wyvern Registry >>\n\n*/\n\npragma solidity 0.4.18;\n\nimport \"./registry/Registry.sol\";\n\n/**\n * @title WyvernRegistry\n * @author Project Wyvern Developers\n */\ncontract WyvernRegistry is Registry {\n\n    string public constant name = \"Project Wyvern Registry\";\n\n    function WyvernRegistry ()\n        public\n    {\n    }     \n\n}\n",
  "sourcePath": "/home/cwgoes/working/crypto/wyvern/wyvern-ethereum/contracts/WyvernRegistry.sol",
  "compiler": {
    "name": "solc",
    "version": "0.4.18+commit.9cf6e910.Emscripten.clang"
  },
  "schemaVersion": "1.0.1",
  "updatedAt": "2018-01-01T03:03:04.499Z"
}