{
  "contractName": "WyvernExchange",
  "abi": [
    {
      "constant": true,
      "inputs": [
        {
          "name": "",
          "type": "uint256"
        }
      ],
      "name": "topBids",
      "outputs": [
        {
          "name": "bidder",
          "type": "address"
        },
        {
          "name": "amount",
          "type": "uint256"
        }
      ],
      "payable": false,
      "stateMutability": "view",
      "type": "function"
    },
    {
      "constant": false,
      "inputs": [
        {
          "name": "provider",
          "type": "address"
        },
        {
          "name": "value",
          "type": "bool"
        }
      ],
      "name": "modifyEscrowProviderWhitelist",
      "outputs": [],
      "payable": false,
      "stateMutability": "nonpayable",
      "type": "function"
    },
    {
      "constant": true,
      "inputs": [],
      "name": "name",
      "outputs": [
        {
          "name": "",
          "type": "string"
        }
      ],
      "payable": false,
      "stateMutability": "view",
      "type": "function"
    },
    {
      "constant": true,
      "inputs": [],
      "name": "exchangeTokenAddress",
      "outputs": [
        {
          "name": "",
          "type": "address"
        }
      ],
      "payable": false,
      "stateMutability": "view",
      "type": "function"
    },
    {
      "constant": false,
      "inputs": [
        {
          "name": "id",
          "type": "uint256"
        },
        {
          "name": "amount",
          "type": "uint256"
        }
      ],
      "name": "bidOnItem",
      "outputs": [],
      "payable": false,
      "stateMutability": "nonpayable",
      "type": "function"
    },
    {
      "constant": true,
      "inputs": [],
      "name": "publicBeneficiary",
      "outputs": [
        {
          "name": "",
          "type": "address"
        }
      ],
      "payable": false,
      "stateMutability": "view",
      "type": "function"
    },
    {
      "constant": false,
      "inputs": [],
      "name": "unpause",
      "outputs": [],
      "payable": false,
      "stateMutability": "nonpayable",
      "type": "function"
    },
    {
      "constant": true,
      "inputs": [
        {
          "name": "",
          "type": "address"
        },
        {
          "name": "",
          "type": "address"
        }
      ],
      "name": "collectedFees",
      "outputs": [
        {
          "name": "",
          "type": "uint256"
        }
      ],
      "payable": false,
      "stateMutability": "view",
      "type": "function"
    },
    {
      "constant": true,
      "inputs": [],
      "name": "paused",
      "outputs": [
        {
          "name": "",
          "type": "bool"
        }
      ],
      "payable": false,
      "stateMutability": "view",
      "type": "function"
    },
    {
      "constant": true,
      "inputs": [],
      "name": "feeBid",
      "outputs": [
        {
          "name": "",
          "type": "uint256"
        }
      ],
      "payable": false,
      "stateMutability": "view",
      "type": "function"
    },
    {
      "constant": false,
      "inputs": [
        {
          "name": "token",
          "type": "address"
        },
        {
          "name": "value",
          "type": "bool"
        }
      ],
      "name": "modifyERC20Whitelist",
      "outputs": [],
      "payable": false,
      "stateMutability": "nonpayable",
      "type": "function"
    },
    {
      "constant": true,
      "inputs": [],
      "name": "feeList",
      "outputs": [
        {
          "name": "",
          "type": "uint256"
        }
      ],
      "payable": false,
      "stateMutability": "view",
      "type": "function"
    },
    {
      "constant": false,
      "inputs": [
        {
          "name": "id",
          "type": "uint256"
        }
      ],
      "name": "removeItem",
      "outputs": [],
      "payable": false,
      "stateMutability": "nonpayable",
      "type": "function"
    },
    {
      "constant": true,
      "inputs": [],
      "name": "registry",
      "outputs": [
        {
          "name": "",
          "type": "address"
        }
      ],
      "payable": false,
      "stateMutability": "view",
      "type": "function"
    },
    {
      "constant": false,
      "inputs": [
        {
          "name": "id",
          "type": "uint256"
        },
        {
          "name": "saleMetadataHash",
          "type": "bytes"
        }
      ],
      "name": "finalizeSale",
      "outputs": [],
      "payable": false,
      "stateMutability": "nonpayable",
      "type": "function"
    },
    {
      "constant": true,
      "inputs": [],
      "name": "numberOfItems",
      "outputs": [
        {
          "name": "",
          "type": "uint256"
        }
      ],
      "payable": false,
      "stateMutability": "view",
      "type": "function"
    },
    {
      "constant": false,
      "inputs": [],
      "name": "pause",
      "outputs": [],
      "payable": false,
      "stateMutability": "nonpayable",
      "type": "function"
    },
    {
      "constant": false,
      "inputs": [
        {
          "name": "listFee",
          "type": "uint256"
        },
        {
          "name": "bidFee",
          "type": "uint256"
        },
        {
          "name": "buyFee",
          "type": "uint256"
        },
        {
          "name": "ownerFee",
          "type": "uint256"
        },
        {
          "name": "publicBenefitFee",
          "type": "uint256"
        },
        {
          "name": "frontendFee",
          "type": "uint256"
        }
      ],
      "name": "setFees",
      "outputs": [],
      "payable": false,
      "stateMutability": "nonpayable",
      "type": "function"
    },
    {
      "constant": false,
      "inputs": [
        {
          "name": "newAddress",
          "type": "address"
        }
      ],
      "name": "setPublicBeneficiary",
      "outputs": [],
      "payable": false,
      "stateMutability": "nonpayable",
      "type": "function"
    },
    {
      "constant": true,
      "inputs": [],
      "name": "owner",
      "outputs": [
        {
          "name": "",
          "type": "address"
        }
      ],
      "payable": false,
      "stateMutability": "view",
      "type": "function"
    },
    {
      "constant": true,
      "inputs": [],
      "name": "feePublicBenefit",
      "outputs": [
        {
          "name": "",
          "type": "uint256"
        }
      ],
      "payable": false,
      "stateMutability": "view",
      "type": "function"
    },
    {
      "constant": false,
      "inputs": [
        {
          "name": "id",
          "type": "uint256"
        },
        {
          "name": "frontend",
          "type": "address"
        },
        {
          "name": "calldata",
          "type": "bytes"
        },
        {
          "name": "replace",
          "type": "bytes"
        },
        {
          "name": "start",
          "type": "uint256"
        },
        {
          "name": "length",
          "type": "uint256"
        },
        {
          "name": "v",
          "type": "uint8"
        },
        {
          "name": "r",
          "type": "bytes32"
        },
        {
          "name": "s",
          "type": "bytes32"
        }
      ],
      "name": "purchaseItem",
      "outputs": [],
      "payable": false,
      "stateMutability": "nonpayable",
      "type": "function"
    },
    {
      "constant": true,
      "inputs": [
        {
          "name": "",
          "type": "uint256"
        }
      ],
      "name": "sales",
      "outputs": [
        {
          "name": "buyer",
          "type": "address"
        },
        {
          "name": "metadataHash",
          "type": "bytes"
        }
      ],
      "payable": false,
      "stateMutability": "view",
      "type": "function"
    },
    {
      "constant": true,
      "inputs": [],
      "name": "feeOwner",
      "outputs": [
        {
          "name": "",
          "type": "uint256"
        }
      ],
      "payable": false,
      "stateMutability": "view",
      "type": "function"
    },
    {
      "constant": true,
      "inputs": [
        {
          "name": "",
          "type": "uint256"
        }
      ],
      "name": "items",
      "outputs": [
        {
          "name": "initiator",
          "type": "address"
        },
        {
          "name": "side",
          "type": "uint8"
        },
        {
          "name": "metadataHash",
          "type": "bytes"
        },
        {
          "name": "saleKind",
          "type": "uint8"
        },
        {
          "name": "paymentToken",
          "type": "address"
        },
        {
          "name": "basePrice",
          "type": "uint256"
        },
        {
          "name": "listingTime",
          "type": "uint256"
        },
        {
          "name": "expirationTime",
          "type": "uint256"
        },
        {
          "name": "extra",
          "type": "uint256"
        },
        {
          "name": "target",
          "type": "address"
        },
        {
          "name": "calldata",
          "type": "bytes"
        },
        {
          "name": "escrowProvider",
          "type": "address"
        },
        {
          "name": "removed",
          "type": "bool"
        }
      ],
      "payable": false,
      "stateMutability": "view",
      "type": "function"
    },
    {
      "constant": true,
      "inputs": [
        {
          "name": "",
          "type": "address"
        }
      ],
      "name": "escrowProviderWhitelist",
      "outputs": [
        {
          "name": "",
          "type": "bool"
        }
      ],
      "payable": false,
      "stateMutability": "view",
      "type": "function"
    },
    {
      "constant": true,
      "inputs": [],
      "name": "feeBuy",
      "outputs": [
        {
          "name": "",
          "type": "uint256"
        }
      ],
      "payable": false,
      "stateMutability": "view",
      "type": "function"
    },
    {
      "constant": true,
      "inputs": [],
      "name": "feeFrontend",
      "outputs": [
        {
          "name": "",
          "type": "uint256"
        }
      ],
      "payable": false,
      "stateMutability": "view",
      "type": "function"
    },
    {
      "constant": false,
      "inputs": [
        {
          "name": "side",
          "type": "uint8"
        },
        {
          "name": "metadataHash",
          "type": "bytes"
        },
        {
          "name": "saleKind",
          "type": "uint8"
        },
        {
          "name": "paymentToken",
          "type": "address"
        },
        {
          "name": "price",
          "type": "uint256"
        },
        {
          "name": "expirationTime",
          "type": "uint256"
        },
        {
          "name": "extra",
          "type": "uint256"
        },
        {
          "name": "target",
          "type": "address"
        },
        {
          "name": "calldata",
          "type": "bytes"
        },
        {
          "name": "escrowProvider",
          "type": "address"
        }
      ],
      "name": "listItem",
      "outputs": [
        {
          "name": "id",
          "type": "uint256"
        }
      ],
      "payable": false,
      "stateMutability": "nonpayable",
      "type": "function"
    },
    {
      "constant": true,
      "inputs": [
        {
          "name": "",
          "type": "address"
        }
      ],
      "name": "erc20Whitelist",
      "outputs": [
        {
          "name": "",
          "type": "bool"
        }
      ],
      "payable": false,
      "stateMutability": "view",
      "type": "function"
    },
    {
      "constant": false,
      "inputs": [
        {
          "name": "dest",
          "type": "address"
        },
        {
          "name": "token",
          "type": "address"
        }
      ],
      "name": "withdrawFees",
      "outputs": [],
      "payable": false,
      "stateMutability": "nonpayable",
      "type": "function"
    },
    {
      "constant": false,
      "inputs": [
        {
          "name": "newOwner",
          "type": "address"
        }
      ],
      "name": "transferOwnership",
      "outputs": [],
      "payable": false,
      "stateMutability": "nonpayable",
      "type": "function"
    },
    {
      "inputs": [
        {
          "name": "registryAddress",
          "type": "address"
        },
        {
          "name": "tokenAddress",
          "type": "address"
        },
        {
          "name": "listFee",
          "type": "uint256"
        },
        {
          "name": "bidFee",
          "type": "uint256"
        },
        {
          "name": "buyFee",
          "type": "uint256"
        }
      ],
      "payable": false,
      "stateMutability": "nonpayable",
      "type": "constructor"
    },
    {
      "anonymous": false,
      "inputs": [
        {
          "indexed": false,
          "name": "id",
          "type": "uint256"
        },
        {
          "indexed": true,
          "name": "initiator",
          "type": "address"
        },
        {
          "indexed": false,
          "name": "side",
          "type": "uint8"
        },
        {
          "indexed": false,
          "name": "metadataHash",
          "type": "bytes"
        },
        {
          "indexed": false,
          "name": "saleKind",
          "type": "uint8"
        },
        {
          "indexed": false,
          "name": "paymentToken",
          "type": "address"
        },
        {
          "indexed": false,
          "name": "price",
          "type": "uint256"
        },
        {
          "indexed": false,
          "name": "timestamp",
          "type": "uint256"
        },
        {
          "indexed": false,
          "name": "expirationTime",
          "type": "uint256"
        },
        {
          "indexed": false,
          "name": "extra",
          "type": "uint256"
        },
        {
          "indexed": true,
          "name": "target",
          "type": "address"
        },
        {
          "indexed": false,
          "name": "calldata",
          "type": "bytes"
        },
        {
          "indexed": false,
          "name": "escrowProvider",
          "type": "address"
        }
      ],
      "name": "ItemListed",
      "type": "event"
    },
    {
      "anonymous": false,
      "inputs": [
        {
          "indexed": false,
          "name": "id",
          "type": "uint256"
        }
      ],
      "name": "ItemRemoved",
      "type": "event"
    },
    {
      "anonymous": false,
      "inputs": [
        {
          "indexed": false,
          "name": "id",
          "type": "uint256"
        },
        {
          "indexed": true,
          "name": "bidder",
          "type": "address"
        },
        {
          "indexed": false,
          "name": "amount",
          "type": "uint256"
        },
        {
          "indexed": false,
          "name": "timestamp",
          "type": "uint256"
        }
      ],
      "name": "ItemBidOn",
      "type": "event"
    },
    {
      "anonymous": false,
      "inputs": [
        {
          "indexed": false,
          "name": "id",
          "type": "uint256"
        },
        {
          "indexed": true,
          "name": "finalizer",
          "type": "address"
        },
        {
          "indexed": false,
          "name": "price",
          "type": "uint256"
        }
      ],
      "name": "ItemFinalized",
      "type": "event"
    },
    {
      "anonymous": false,
      "inputs": [
        {
          "indexed": false,
          "name": "id",
          "type": "uint256"
        },
        {
          "indexed": false,
          "name": "metadataHash",
          "type": "bytes"
        }
      ],
      "name": "SaleFinalized",
      "type": "event"
    },
    {
      "anonymous": false,
      "inputs": [
        {
          "indexed": true,
          "name": "newAddress",
          "type": "address"
        }
      ],
      "name": "PublicBeneficiaryChanged",
      "type": "event"
    },
    {
      "anonymous": false,
      "inputs": [],
      "name": "Pause",
      "type": "event"
    },
    {
      "anonymous": false,
      "inputs": [],
      "name": "Unpause",
      "type": "event"
    },
    {
      "anonymous": false,
      "inputs": [
        {
          "indexed": true,
          "name": "previousOwner",
          "type": "address"
        },
        {
          "indexed": true,
          "name": "newOwner",
          "type": "address"
        }
      ],
      "name": "OwnershipTransferred",
      "type": "event"
    }
  ],
  "bytecode": "0x60606040526000805460a060020a60ff0219168155600b55341561002257600080fd5b60405160a080612b7d833981016040528080519190602001805191906020018051919060200180519190602001805160008054600160a060020a03338116600160a060020a03199283168117831681179093556001805483169093179092556009805498831698821698909817909755601080549890911697909616969096179094555060029190915560035550600455600a60058190556006819055600755612aac806100d16000396000f30060606040526004361061017c5763ffffffff60e060020a600035041663010d98138114610181578063049fd8e5146101b957806306fdde03146101df5780630e5d2e2114610269578063250d9d03146102985780633c67ce5f146102b15780633f4ba83a146102c45780634c97f766146102d75780635c975abb1461030e5780635f1ae8aa1461033557806361a02d1f14610348578063622ed7df1461036c578063713291711461037f5780637b103999146103955780637c9744c2146103a8578063842296d4146103fe5780638456cb591461041157806386f6c3c1146104245780638c7d73f0146104495780638da5cb5b1461046857806394cfdc7c1461047b5780639548e4571461048e578063b5f522f714610550578063b9818be1146105fe578063bfb231d214610611578063c5555bae146107ba578063c5b0fe9d146107d9578063d216f363146107ec578063d85df518146107ff578063f0dded2f146108d5578063f2555278146108f4578063f2fde38b14610919575b600080fd5b341561018c57600080fd5b610197600435610938565b604051600160a060020a03909216825260208201526040908101905180910390f35b34156101c457600080fd5b6101dd600160a060020a0360043516602435151561095d565b005b34156101ea57600080fd5b6101f26109a3565b60405160208082528190810183818151815260200191508051906020019080838360005b8381101561022e578082015183820152602001610216565b50505050905090810190601f16801561025b5780820380516001836020036101000a031916815260200191505b509250505060405180910390f35b341561027457600080fd5b61027c6109da565b604051600160a060020a03909116815260200160405180910390f35b34156102a357600080fd5b6101dd6004356024356109e9565b34156102bc57600080fd5b61027c610de1565b34156102cf57600080fd5b6101dd610df0565b34156102e257600080fd5b6102fc600160a060020a0360043581169060243516610e6f565b60405190815260200160405180910390f35b341561031957600080fd5b610321610e8c565b604051901515815260200160405180910390f35b341561034057600080fd5b6102fc610e9c565b341561035357600080fd5b6101dd600160a060020a03600435166024351515610ea2565b341561037757600080fd5b6102fc610ee8565b341561038a57600080fd5b6101dd600435610eee565b34156103a057600080fd5b61027c611022565b34156103b357600080fd5b6101dd600480359060446024803590810190830135806020601f8201819004810201604051908101604052818152929190602084018383808284375094965061103195505050505050565b341561040957600080fd5b6102fc611135565b341561041c57600080fd5b6101dd61113b565b341561042f57600080fd5b6101dd60043560243560443560643560843560a4356111bf565b341561045457600080fd5b6101dd600160a060020a03600435166111f7565b341561047357600080fd5b61027c61125f565b341561048657600080fd5b6102fc61126e565b341561049957600080fd5b6101dd600480359060248035600160a060020a0316919060649060443590810190830135806020601f8201819004810201604051908101604052818152929190602084018383808284378201915050505050509190803590602001908201803590602001908080601f016020809104026020016040519081016040528181529291906020840183838082843750949650508435946020810135945060ff604082013516935060608101359250608001359050611274565b341561055b57600080fd5b610566600435611840565b604051600160a060020a0383168152604060208201818152835460026000196101006001841615020190911604918301829052906060830190849080156105ee5780601f106105c3576101008083540402835291602001916105ee565b820191906000526020600020905b8154815290600101906020018083116105d157829003601f168201915b5050935050505060405180910390f35b341561060957600080fd5b6102fc611860565b341561061c57600080fd5b610627600435611866565b604051600160a060020a038e168152602081018d600181111561064657fe5b60ff168152602001806020018c600281111561065e57fe5b60ff168152600160a060020a038c81166020830152604082018c9052606082018b9052608082018a905260a0820189905287811660c0830152851661010080830191909152841515610120830152610140848303810184528f546002600182161590930260001901169190910490820181905260e082019161016001908f90801561072a5780601f106106ff5761010080835404028352916020019161072a565b820191906000526020600020905b81548152906001019060200180831161070d57829003601f168201915b505083810382528654600260001961010060018416150201909116048082526020909101908790801561079e5780601f106107735761010080835404028352916020019161079e565b820191906000526020600020905b81548152906001019060200180831161078157829003601f168201915b50509f5050505050505050505050505050505060405180910390f35b34156107c557600080fd5b610321600160a060020a03600435166118eb565b34156107e457600080fd5b6102fc611900565b34156107f757600080fd5b6102fc611906565b341561080a57600080fd5b6102fc6004803560ff169060446024803590810190830135806020601f820181900481020160405190810160405281815292919060208401838380828437509496863560ff1696602080820135600160a060020a0390811698506040808401359850606084013597506080840135965060a0840135909116945060e083019260c001358401808301929035918291601f83018190048102019051908101604052818152929190602084018383808284375094965050509235600160a060020a0316925061190c915050565b34156108e057600080fd5b610321600160a060020a0360043516611ad2565b34156108ff57600080fd5b6101dd600160a060020a0360043581169060243516611ae7565b341561092457600080fd5b6101dd600160a060020a0360043516611bae565b600d6020526000908152604090208054600190910154600160a060020a039091169082565b60005433600160a060020a0390811691161461097857600080fd5b600160a060020a03919091166000908152600f60205260409020805460ff1916911515919091179055565b60408051908101604052601781527f50726f6a6563742057797665726e2045786368616e6765000000000000000000602082015281565b600954600160a060020a031681565b600080548190819060a060020a900460ff1615610a0557600080fd5b600a8054869160009183908110610a1857fe5b60009182526020909120600a9091020154600160a060020a031614801590610a6a5750600a805482908110610a4957fe5b90600052602060002090600a020160090160149054906101000a900460ff16155b8015610a8b57506000818152600c6020526040902054600160a060020a0316155b1515610a9657600080fd5b6003546000811115610b6557600954600160a060020a03166323b872dd33308460006040516020015260405160e060020a63ffffffff8616028152600160a060020a0393841660048201529190921660248201526044810191909152606401602060405180830381600087803b1515610b0e57600080fd5b6102c65a03f11515610b1f57600080fd5b505050604051805190501515610b3457600080fd5b60008054600160a060020a039081168252600860209081526040808420600954909316845291905290208054820190555b600a805488908110610b7357fe5b90600052602060002090600a02019450600d60008881526020019081526020016000209350610be48560020160009054906101000a900460ff1686600301548760060154886005015488604080519081016040528154600160a060020a031681526001909101546020820152611c3c565b925082861015610bf357600080fd5b604080519081016040908152600160a060020a0333168252602080830189905260008a8152600d9091522081518154600160a060020a031916600160a060020a0391909116178155602082015160019091015550600160a060020a0333167fedbdaf67ea4453fcc482862ccaba0735eec45c5c0ae2757b2419b4676501ee1a88884260405180848152602001838152602001828152602001935050505060405180910390a28354600160a060020a031615610d3f57600285015484546001860154600160a060020a0361010090930483169263a9059cbb92169060006040516020015260405160e060020a63ffffffff8516028152600160a060020a0390921660048301526024820152604401602060405180830381600087803b1515610d1957600080fd5b6102c65a03f11515610d2a57600080fd5b505050604051805190501515610d3f57600080fd5b60028501546101009004600160a060020a03166323b872dd33308960006040516020015260405160e060020a63ffffffff8616028152600160a060020a0393841660048201529190921660248201526044810191909152606401602060405180830381600087803b1515610db257600080fd5b6102c65a03f11515610dc357600080fd5b505050604051805190501515610dd857600080fd5b50505050505050565b600154600160a060020a031681565b60005433600160a060020a03908116911614610e0b57600080fd5b60005460a060020a900460ff161515610e2357600080fd5b6000805474ff0000000000000000000000000000000000000000191690557f7805862f689e2f13df9f062ff482ad3ad112aca9e0847911ed832e158c525b3360405160405180910390a1565b600860209081526000928352604080842090915290825290205481565b60005460a060020a900460ff1681565b60035481565b60005433600160a060020a03908116911614610ebd57600080fd5b600160a060020a03919091166000908152600e60205260409020805460ff1916911515919091179055565b60025481565b6000816000600160a060020a0316600a82815481101515610f0b57fe5b60009182526020909120600a9091020154600160a060020a031614801590610f5d5750600a805482908110610f3c57fe5b90600052602060002090600a020160090160149054906101000a900460ff16155b8015610f7e57506000818152600c6020526040902054600160a060020a0316155b1515610f8957600080fd5b600a805484908110610f9757fe5b60009182526020909120600a90910201805490925033600160a060020a03908116911614610fc457600080fd5b60098201805474ff0000000000000000000000000000000000000000191660a060020a1790557fa54eda4149a0fb9258911733973ecf1f6762357ed371fc6d1e63123bbce23bed8360405190815260200160405180910390a1505050565b601054600160a060020a031681565b33600160a060020a0316600a8381548110151561104a57fe5b60009182526020909120600a9091020154600160a060020a03161461106e57600080fd5b6000828152600c602052604090206001018180516110909291602001906128b2565b507ff8ec7edc9d944cede56133886f7dced07c26ac8cb66297112b01fe0a3d3bb88f828260405182815260406020820181815290820183818151815260200191508051906020019080838360005b838110156110f65780820151838201526020016110de565b50505050905090810190601f1680156111235780820380516001836020036101000a031916815260200191505b50935050505060405180910390a15050565b600b5481565b60005433600160a060020a0390811691161461115657600080fd5b60005460a060020a900460ff161561116d57600080fd5b6000805474ff0000000000000000000000000000000000000000191660a060020a1790557f6985a02210a168e66602d3235cb6db0e70f92b3ba4d376a33c0f3d9434bff62560405160405180910390a1565b60005433600160a060020a039081169116146111da57600080fd5b600295909555600393909355600491909155600555600655600755565b60005433600160a060020a0390811691161461121257600080fd5b60018054600160a060020a031916600160a060020a0383169081179091557f75bc54ec05807e503aeca115d3b49191b7b0c03f198054480392bf913cc5033c60405160405180910390a250565b600054600160a060020a031681565b60065481565b60008054819060a060020a900460ff161561128e57600080fd5b600a80548c91600091839081106112a157fe5b60009182526020909120600a9091020154600160a060020a0316148015906112f35750600a8054829081106112d257fe5b90600052602060002090600a020160090160149054906101000a900460ff16155b801561131457506000818152600c6020526040902054600160a060020a0316155b151561131f57600080fd5b60045460008111156113ee57600954600160a060020a03166323b872dd33308460006040516020015260405160e060020a63ffffffff8616028152600160a060020a0393841660048201529190921660248201526044810191909152606401602060405180830381600087803b151561139757600080fd5b6102c65a03f115156113a857600080fd5b5050506040518051905015156113bd57600080fd5b60008054600160a060020a039081168252600860209081526040808420600954909316845291905290208054820190555b600a80548e9081106113fc57fe5b90600052602060002090600a02019350600d60008e815260200190815260200160002092506116ac8d856101a06040519081016040528154600160a060020a0381168252909190602083019060a060020a900460ff16600181111561145d57fe5b600181111561146857fe5b8152602001600182018054600181600116156101000203166002900480601f0160208091040260200160405190810160405280929190818152602001828054600181600116156101000203166002900480156115055780601f106114da57610100808354040283529160200191611505565b820191906000526020600020905b8154815290600101906020018083116114e857829003601f168201915b505050918352505060028281015460209092019160ff169081111561152657fe5b600281111561153157fe5b81526020016002820160019054906101000a9004600160a060020a0316600160a060020a0316600160a060020a03168152602001600382015481526020016004820154815260200160058201548152602001600682015481526020016007820160009054906101000a9004600160a060020a0316600160a060020a0316600160a060020a03168152602001600882018054600181600116156101000203166002900480601f0160208091040260200160405190810160405280929190818152602001828054600181600116156101000203166002900480156116545780601f1061162957610100808354040283529160200191611654565b820191906000526020600020905b81548152906001019060200180831161163757829003601f168201915b505050918352505060099190910154600160a060020a038116602083015260a060020a900460ff161515604091820152869080519081016040528154600160a060020a0316815260019091015460208201528f611c90565b60105461183190600160a060020a031663c45527916000875460a060020a900460ff1660018111156116da57fe5b146116ef578654600160a060020a03166116f1565b335b60006040516020015260405160e060020a63ffffffff8416028152600160a060020a039091166004820152602401602060405180830381600087803b151561173857600080fd5b6102c65a03f1151561174957600080fd5b505050604051805160078701549091508f90600160a060020a03166000885460a060020a900460ff16600181111561177d57fe5b14611788578e611826565b876008018054600181600116156101000203166002900480601f0160208091040260200160405190810160405280929190818152602001828054600181600116156101000203166002900480156118205780601f106117f557610100808354040283529160200191611820565b820191906000526020600020905b81548152906001019060200180831161180357829003601f168201915b50505050505b8e8e8e8e8e8e61221f565b50505050505050505050505050565b600c6020526000908152604090208054600160a060020a03169060010182565b60055481565b600a80548290811061187457fe5b60009182526020909120600a9091020180546002820154600383015460048401546005850154600686015460078701546009880154600160a060020a038089169a5060ff60a060020a998a900481169a600181019a8a83169a6101009004841699989796958416946008909201938216929104168d565b600f6020526000908152604090205460ff1681565b60045481565b60075481565b6000805460a060020a900460ff161561192457600080fd5b60025460008111156119f357600954600160a060020a03166323b872dd33308460006040516020015260405160e060020a63ffffffff8616028152600160a060020a0393841660048201529190921660248201526044810191909152606401602060405180830381600087803b151561199c57600080fd5b6102c65a03f115156119ad57600080fd5b5050506040518051905015156119c257600080fd5b60008054600160a060020a039081168252600860209081526040808420600954909316845291905290208054820190555b600160a060020a0383161580611a215750600160a060020a0383166000908152600f602052604090205460ff165b1515611a2c57600080fd5b600160a060020a0389166000908152600e602052604090205460ff161515611a5357600080fd5b60018a6002811115611a6157fe5b141580611a79575060018c6001811115611a7757fe5b145b1515611a8457600080fd5b611a8e8a886123bc565b1515611a9957600080fd5b861580611aa557504287115b1515611ab057600080fd5b611ac28c8c8c8c8c8c8c8c8c8c6123e0565b9c9b505050505050505050505050565b600e6020526000908152604090205460ff1681565b6000805460a060020a900460ff1615611aff57600080fd5b50600160a060020a03338116600090815260086020908152604080832093851680845293909152808220805490839055929163a9059cbb9186918591516020015260405160e060020a63ffffffff8516028152600160a060020a0390921660048301526024820152604401602060405180830381600087803b1515611b8357600080fd5b6102c65a03f11515611b9457600080fd5b505050604051805190501515611ba957600080fd5b505050565b60005433600160a060020a03908116911614611bc957600080fd5b600160a060020a0381161515611bde57600080fd5b600054600160a060020a0380831691167f8be0079c531659141344cd1fd0a4f28419497f9722a3daafe3b4186f6b6457e060405160405180910390a360008054600160a060020a031916600160a060020a0392909216919091179055565b60006001866002811115611c4c57fe5b148015611c5857508242105b1515611c6357600080fd5b60008251600160a060020a03161415611c7d575083611c87565b8382602001510190505b95945050505050565b6000806000806000806000611cae8a606001518b60e001518b6127d9565b1515611cb957600080fd5b601054600090600160a060020a031663c4552791828d602001516001811115611cde57fe5b14611cea578c51611cec565b335b60006040516020015260405160e060020a63ffffffff8416028152600160a060020a039091166004820152602401602060405180830381600087803b1515611d3357600080fd5b6102c65a03f11515611d4457600080fd5b50505060405180519050600160a060020a031614151515611d6457600080fd5b611d878a606001518b60a001518c61010001518d60c001518e60e001518e612829565b965060008a602001516001811115611d9b57fe5b14611da65733611da9565b89515b955060008a602001516001811115611dbd57fe5b14611dc9578951611dcb565b335b60055490955061271090880260008054600160a060020a0316815260086020526040812092909104955085919060808d0151600160a060020a03168152602081019190915260400160002080549091019055600654612710908802600154600160a060020a0316600090815260086020526040812092909104945084919060808d0151600160a060020a03168152602081019190915260400160002080549091019055600754612710908802600160a060020a038a16600090815260086020526040812092909104935083919060808d0151600160a060020a0316600160a060020a031681526020019081526020016000206000828254019250508190555081838589030303905033600160a060020a03167fef00846d5bb661b6bb5990a0981b5dae92fc0b8ed5adc62b116b07b312b4edf88c8960405191825260208201526040908101905180910390a2604080519081016040528033600160a060020a031681526020016000604051805910611f405750595b818152601f19601f83011681016020016040529050905260008c8152600c6020526040902081518154600160a060020a031916600160a060020a0391909116178155602082015181600101908051611f9c9291602001906128b2565b50600091508a905051600160a060020a03161415612048578960800151600160a060020a03166323b872dd87308a60006040516020015260405160e060020a63ffffffff8616028152600160a060020a0393841660048201529190921660248201526044810191909152606401602060405180830381600087803b151561202257600080fd5b6102c65a03f1151561203357600080fd5b50505060405180519050151561204857600080fd5b60006101608b0151600160a060020a03161461218b578960800151600160a060020a031663095ea7b38b61016001518360006040516020015260405160e060020a63ffffffff8516028152600160a060020a0390921660048301526024820152604401602060405180830381600087803b15156120c457600080fd5b6102c65a03f115156120d557600080fd5b505050604051805150506101608a0151600160a060020a031663f4be2a088c88888e608001518660006040516020015260405160e060020a63ffffffff88160281526004810195909552600160a060020a03938416602486015291831660448501529091166064830152608482015260a401602060405180830381600087803b151561216057600080fd5b6102c65a03f1151561217157600080fd5b50505060405180519050151561218657600080fd5b612212565b8960800151600160a060020a031663a9059cbb868360006040516020015260405160e060020a63ffffffff8516028152600160a060020a0390921660048301526024820152604401602060405180830381600087803b15156121ec57600080fd5b6102c65a03f115156121fd57600080fd5b50505060405180519050151561221257600080fd5b5050505050505050505050565b89600160a060020a03166312711d378a8a8a8a8a8a8a8a8a60006040516020015260405160e060020a63ffffffff8c16028152600481018a8152600160a060020a038a1660248301526084820187905260a4820186905260ff851660c483015260e4820184905261010482018390526101206044830190815290916064810190610124018a818151815260200191508051906020019080838360005b838110156122d35780820151838201526020016122bb565b50505050905090810190601f1680156123005780820380516001836020036101000a031916815260200191505b50838103825289818151815260200191508051906020019080838360005b8381101561233657808201518382015260200161231e565b50505050905090810190601f1680156123635780820380516001836020036101000a031916815260200191505b509b505050505050505050505050602060405180830381600087803b151561238a57600080fd5b6102c65a03f1151561239b57600080fd5b5050506040518051905015156123b057600080fd5b50505050505050505050565b600060018360028111156123cc57fe5b1415806123d95750600082115b9392505050565b600b80546001808201909255600a8054919290919081016124018382612930565b91600052602060002090600a020160006101a06040519081016040528033600160a060020a031681526020018f600181111561243957fe5b81526020018e81526020018d600281111561245057fe5b8152600160a060020a03808e166020830152604082018d9052426060830152608082018c905260a082018b905289811660c083015260e08201899052871661010082015260006101209091015291905081518154600160a060020a031916600160a060020a039190911617815560208201518154829074ff0000000000000000000000000000000000000000191660a060020a8360018111156124ef57fe5b021790555060408201518160010190805161250e9291602001906128b2565b5060608201518160020160006101000a81548160ff0219169083600281111561253357fe5b021790555060808201518160020160016101000a815481600160a060020a030219169083600160a060020a0316021790555060a0820151816003015560c0820151816004015560e082015181600501556101008201518160060155610120820151600782018054600160a060020a031916600160a060020a0392909216919091179055610140820151816008019080516125d19291602001906128b2565b50610160820151600982018054600160a060020a031916600160a060020a03929092169190911790556101808201516009909101805491151560a060020a0274ff0000000000000000000000000000000000000000199092169190911790555050600160a060020a038085169033167f90f21ef173ec9160d58be658fbddf61d8b998f757a6e462582e7fdad01b3044d838e8e8e8e8e428f8f8e8e604051808c81526020018b600181111561268257fe5b60ff168152602001806020018a600281111561269a57fe5b60ff16815260200189600160a060020a0316600160a060020a031681526020018881526020018781526020018681526020018581526020018060200184600160a060020a0316600160a060020a0316815260200183810383528c818151815260200191508051906020019080838360005b8381101561272357808201518382015260200161270b565b50505050905090810190601f1680156127505780820380516001836020036101000a031916815260200191505b50838103825285818151815260200191508051906020019080838360005b8381101561278657808201518382015260200161276e565b50505050905090810190601f1680156127b35780820380516001836020036101000a031916815260200191505b509d505050505050505050505050505060405180910390a39a9950505050505050505050565b600060018460028111156127e957fe5b1415612818578151600160a060020a031633600160a060020a03161480156128115750824210155b90506123d9565b821580612811575050504210919050565b60008087600281111561283857fe5b14156128455750846128a8565b600187600281111561285357fe5b141561287d5760008251600160a060020a0316141561287157600080fd5b816020015190506128a8565b600287600281111561288b57fe5b141561017c5783830384420386028115156128a257fe5b04860390505b9695505050505050565b828054600181600116156101000203166002900490600052602060002090601f016020900481019282601f106128f357805160ff1916838001178555612920565b82800160010185558215612920579182015b82811115612920578251825591602001919060010190612905565b5061292c92915061295c565b5090565b815481835581811511611ba957600a0281600a028360005260206000209182019101611ba99190612979565b61297691905b8082111561292c5760008155600101612962565b90565b61297691905b8082111561292c57805474ffffffffffffffffffffffffffffffffffffffffff1916815560006129b26001830182612a39565b60028201805474ffffffffffffffffffffffffffffffffffffffffff19169055600060038301819055600483018190556005830181905560068301819055600783018054600160a060020a0319169055612a10906008840190612a39565b5060098101805474ffffffffffffffffffffffffffffffffffffffffff19169055600a0161297f565b50805460018160011615610100020316600290046000825580601f10612a5f5750612a7d565b601f016020900490600052602060002090810190612a7d919061295c565b505600a165627a7a7230582041abf905733539239e9c236a13a23bff5d1518f9d825aa90f8d309b5199de2850029",
  "source": "/*\n\n  << Project Wyvern Exchange >>\n\n*/\n\npragma solidity 0.4.18;\n\nimport \"./exchange/Exchange.sol\";\n\n/**\n * @title WyvernExchange\n * @author Project Wyvern Developers\n */\ncontract WyvernExchange is Exchange {\n\n    string public constant name = \"Project Wyvern Exchange\";\n\n    function WyvernExchange (Registry registryAddress, ERC20 tokenAddress, uint listFee, uint bidFee, uint buyFee) public {\n        owner = msg.sender;\n        publicBeneficiary = msg.sender;\n        exchangeTokenAddress = tokenAddress;\n        registry = registryAddress;\n        feeList = listFee;\n        feeBid = bidFee;\n        feeBuy = buyFee;\n        feeOwner = 10;\n        feePublicBenefit = 10;\n        feeFrontend = 10;\n    }\n\n}\n",
  "sourcePath": "/home/cwgoes/working/crypto/wyvern/wyvern-ethereum/contracts/WyvernExchange.sol",
  "compiler": {
    "name": "solc",
    "version": "0.4.18+commit.9cf6e910.Emscripten.clang"
  },
  "schemaVersion": "1.0.1",
  "updatedAt": "2018-01-02T21:52:03.149Z"
}