{
  "contractName": "WyvernTokenTransferProxy",
  "abi": [
    {
      "constant": false,
      "inputs": [
        {
          "name": "token",
          "type": "address"
        },
        {
          "name": "from",
          "type": "address"
        },
        {
          "name": "to",
          "type": "address"
        },
        {
          "name": "amount",
          "type": "uint256"
        }
      ],
      "name": "transferFrom",
      "outputs": [
        {
          "name": "",
          "type": "bool"
        }
      ],
      "payable": false,
      "stateMutability": "nonpayable",
      "type": "function"
    },
    {
      "constant": true,
      "inputs": [],
      "name": "registry",
      "outputs": [
        {
          "name": "",
          "type": "address"
        }
      ],
      "payable": false,
      "stateMutability": "view",
      "type": "function"
    },
    {
      "inputs": [
        {
          "name": "registryAddr",
          "type": "address"
        }
      ],
      "payable": false,
      "stateMutability": "nonpayable",
      "type": "constructor"
    }
  ],
  "bytecode": "0x6060604052341561000f57600080fd5b6040516020806102438339810160405280805160008054600160a060020a03909216600160a060020a031990921691909117905550506101ef806100546000396000f3006060604052600436106100325763ffffffff60e060020a60003504166315dacbea81146100375780637b10399914610079575b600080fd5b341561004257600080fd5b610065600160a060020a03600435811690602435811690604435166064356100a8565b604051901515815260200160405180910390f35b341561008457600080fd5b61008c6101b4565b604051600160a060020a03909116815260200160405180910390f35b60008054600160a060020a03166369dc9ff333836040516020015260405160e060020a63ffffffff8416028152600160a060020a039091166004820152602401602060405180830381600087803b151561010157600080fd5b6102c65a03f1151561011257600080fd5b50505060405180519050151561012757600080fd5b84600160a060020a03166323b872dd85858560006040516020015260405160e060020a63ffffffff8616028152600160a060020a0393841660048201529190921660248201526044810191909152606401602060405180830381600087803b151561019157600080fd5b6102c65a03f115156101a257600080fd5b50505060405180519695505050505050565b600054600160a060020a0316815600a165627a7a723058205cdf24de1f26bdc2bef861e0d5510daa40f7af1c140ca4cc97da29c2aebf1e2d0029",
  "source": "/*\n\n  << Project Wyvern Token Transfer Proxy >.\n\n*/\n\npragma solidity 0.4.18;\n\nimport \"./registry/TokenTransferProxy.sol\";\n\ncontract WyvernTokenTransferProxy is TokenTransferProxy {\n\n    function WyvernTokenTransferProxy (ProxyRegistry registryAddr)\n        public\n    {\n        registry = registryAddr;\n    }\n\n}\n",
  "sourcePath": "/home/cwgoes/working/crypto/wyvern/wyvern-ethereum/contracts/WyvernTokenTransferProxy.sol",
  "compiler": {
    "name": "solc",
    "version": "0.4.18+commit.9cf6e910.Emscripten.clang"
  },
  "schemaVersion": "1.0.1",
  "updatedAt": "2018-03-08T20:08:22.625Z"
}