{
  "contractName": "WyvernExchange",
  "abi": [
    {
      "constant": true,
      "inputs": [],
      "name": "name",
      "outputs": [
        {
          "name": "",
          "type": "string"
        }
      ],
      "payable": false,
      "stateMutability": "view",
      "type": "function"
    },
    {
      "constant": true,
      "inputs": [],
      "name": "tokenTransferProxy",
      "outputs": [
        {
          "name": "",
          "type": "address"
        }
      ],
      "payable": false,
      "stateMutability": "view",
      "type": "function"
    },
    {
      "constant": true,
      "inputs": [
        {
          "name": "target",
          "type": "address"
        },
        {
          "name": "calldata",
          "type": "bytes"
        },
        {
          "name": "extradata",
          "type": "bytes"
        }
      ],
      "name": "staticCall",
      "outputs": [
        {
          "name": "result",
          "type": "bool"
        }
      ],
      "payable": false,
      "stateMutability": "view",
      "type": "function"
    },
    {
      "constant": false,
      "inputs": [
        {
          "name": "newMinimumMakerProtocolFee",
          "type": "uint256"
        }
      ],
      "name": "changeMinimumMakerProtocolFee",
      "outputs": [],
      "payable": false,
      "stateMutability": "nonpayable",
      "type": "function"
    },
    {
      "constant": false,
      "inputs": [
        {
          "name": "newMinimumTakerProtocolFee",
          "type": "uint256"
        }
      ],
      "name": "changeMinimumTakerProtocolFee",
      "outputs": [],
      "payable": false,
      "stateMutability": "nonpayable",
      "type": "function"
    },
    {
      "constant": true,
      "inputs": [
        {
          "name": "array",
          "type": "bytes"
        },
        {
          "name": "desired",
          "type": "bytes"
        },
        {
          "name": "mask",
          "type": "bytes"
        }
      ],
      "name": "guardedArrayReplace",
      "outputs": [
        {
          "name": "",
          "type": "bytes"
        }
      ],
      "payable": false,
      "stateMutability": "pure",
      "type": "function"
    },
    {
      "constant": true,
      "inputs": [],
      "name": "minimumTakerProtocolFee",
      "outputs": [
        {
          "name": "",
          "type": "uint256"
        }
      ],
      "payable": false,
      "stateMutability": "view",
      "type": "function"
    },
    {
      "constant": true,
      "inputs": [],
      "name": "codename",
      "outputs": [
        {
          "name": "",
          "type": "string"
        }
      ],
      "payable": false,
      "stateMutability": "view",
      "type": "function"
    },
    {
      "constant": true,
      "inputs": [
        {
          "name": "addrs",
          "type": "address[7]"
        },
        {
          "name": "uints",
          "type": "uint256[9]"
        },
        {
          "name": "feeMethod",
          "type": "uint8"
        },
        {
          "name": "side",
          "type": "uint8"
        },
        {
          "name": "saleKind",
          "type": "uint8"
        },
        {
          "name": "howToCall",
          "type": "uint8"
        },
        {
          "name": "calldata",
          "type": "bytes"
        },
        {
          "name": "replacementPattern",
          "type": "bytes"
        },
        {
          "name": "staticExtradata",
          "type": "bytes"
        }
      ],
      "name": "calculateCurrentPrice_",
      "outputs": [
        {
          "name": "",
          "type": "uint256"
        }
      ],
      "payable": false,
      "stateMutability": "view",
      "type": "function"
    },
    {
      "constant": false,
      "inputs": [
        {
          "name": "newProtocolFeeRecipient",
          "type": "address"
        }
      ],
      "name": "changeProtocolFeeRecipient",
      "outputs": [],
      "payable": false,
      "stateMutability": "nonpayable",
      "type": "function"
    },
    {
      "constant": true,
      "inputs": [],
      "name": "version",
      "outputs": [
        {
          "name": "",
          "type": "string"
        }
      ],
      "payable": false,
      "stateMutability": "view",
      "type": "function"
    },
    {
      "constant": true,
      "inputs": [
        {
          "name": "buyCalldata",
          "type": "bytes"
        },
        {
          "name": "buyReplacementPattern",
          "type": "bytes"
        },
        {
          "name": "sellCalldata",
          "type": "bytes"
        },
        {
          "name": "sellReplacementPattern",
          "type": "bytes"
        }
      ],
      "name": "orderCalldataCanMatch",
      "outputs": [
        {
          "name": "",
          "type": "bool"
        }
      ],
      "payable": false,
      "stateMutability": "pure",
      "type": "function"
    },
    {
      "constant": true,
      "inputs": [
        {
          "name": "addrs",
          "type": "address[7]"
        },
        {
          "name": "uints",
          "type": "uint256[9]"
        },
        {
          "name": "feeMethod",
          "type": "uint8"
        },
        {
          "name": "side",
          "type": "uint8"
        },
        {
          "name": "saleKind",
          "type": "uint8"
        },
        {
          "name": "howToCall",
          "type": "uint8"
        },
        {
          "name": "calldata",
          "type": "bytes"
        },
        {
          "name": "replacementPattern",
          "type": "bytes"
        },
        {
          "name": "staticExtradata",
          "type": "bytes"
        },
        {
          "name": "v",
          "type": "uint8"
        },
        {
          "name": "r",
          "type": "bytes32"
        },
        {
          "name": "s",
          "type": "bytes32"
        }
      ],
      "name": "validateOrder_",
      "outputs": [
        {
          "name": "",
          "type": "bool"
        }
      ],
      "payable": false,
      "stateMutability": "view",
      "type": "function"
    },
    {
      "constant": true,
      "inputs": [
        {
          "name": "side",
          "type": "uint8"
        },
        {
          "name": "saleKind",
          "type": "uint8"
        },
        {
          "name": "basePrice",
          "type": "uint256"
        },
        {
          "name": "extra",
          "type": "uint256"
        },
        {
          "name": "listingTime",
          "type": "uint256"
        },
        {
          "name": "expirationTime",
          "type": "uint256"
        }
      ],
      "name": "calculateFinalPrice",
      "outputs": [
        {
          "name": "",
          "type": "uint256"
        }
      ],
      "payable": false,
      "stateMutability": "view",
      "type": "function"
    },
    {
      "constant": true,
      "inputs": [],
      "name": "protocolFeeRecipient",
      "outputs": [
        {
          "name": "",
          "type": "address"
        }
      ],
      "payable": false,
      "stateMutability": "view",
      "type": "function"
    },
    {
      "constant": true,
      "inputs": [
        {
          "name": "addrs",
          "type": "address[7]"
        },
        {
          "name": "uints",
          "type": "uint256[9]"
        },
        {
          "name": "feeMethod",
          "type": "uint8"
        },
        {
          "name": "side",
          "type": "uint8"
        },
        {
          "name": "saleKind",
          "type": "uint8"
        },
        {
          "name": "howToCall",
          "type": "uint8"
        },
        {
          "name": "calldata",
          "type": "bytes"
        },
        {
          "name": "replacementPattern",
          "type": "bytes"
        },
        {
          "name": "staticExtradata",
          "type": "bytes"
        }
      ],
      "name": "hashOrder_",
      "outputs": [
        {
          "name": "",
          "type": "bytes32"
        }
      ],
      "payable": false,
      "stateMutability": "pure",
      "type": "function"
    },
    {
      "constant": true,
      "inputs": [
        {
          "name": "addrs",
          "type": "address[14]"
        },
        {
          "name": "uints",
          "type": "uint256[18]"
        },
        {
          "name": "feeMethodsSidesKindsHowToCalls",
          "type": "uint8[8]"
        },
        {
          "name": "calldataBuy",
          "type": "bytes"
        },
        {
          "name": "calldataSell",
          "type": "bytes"
        },
        {
          "name": "replacementPatternBuy",
          "type": "bytes"
        },
        {
          "name": "replacementPatternSell",
          "type": "bytes"
        },
        {
          "name": "staticExtradataBuy",
          "type": "bytes"
        },
        {
          "name": "staticExtradataSell",
          "type": "bytes"
        }
      ],
      "name": "ordersCanMatch_",
      "outputs": [
        {
          "name": "",
          "type": "bool"
        }
      ],
      "payable": false,
      "stateMutability": "view",
      "type": "function"
    },
    {
      "constant": false,
      "inputs": [
        {
          "name": "addrs",
          "type": "address[7]"
        },
        {
          "name": "uints",
          "type": "uint256[9]"
        },
        {
          "name": "feeMethod",
          "type": "uint8"
        },
        {
          "name": "side",
          "type": "uint8"
        },
        {
          "name": "saleKind",
          "type": "uint8"
        },
        {
          "name": "howToCall",
          "type": "uint8"
        },
        {
          "name": "calldata",
          "type": "bytes"
        },
        {
          "name": "replacementPattern",
          "type": "bytes"
        },
        {
          "name": "staticExtradata",
          "type": "bytes"
        },
        {
          "name": "orderbookInclusionDesired",
          "type": "bool"
        }
      ],
      "name": "approveOrder_",
      "outputs": [],
      "payable": false,
      "stateMutability": "nonpayable",
      "type": "function"
    },
    {
      "constant": true,
      "inputs": [],
      "name": "registry",
      "outputs": [
        {
          "name": "",
          "type": "address"
        }
      ],
      "payable": false,
      "stateMutability": "view",
      "type": "function"
    },
    {
      "constant": true,
      "inputs": [],
      "name": "minimumMakerProtocolFee",
      "outputs": [
        {
          "name": "",
          "type": "uint256"
        }
      ],
      "payable": false,
      "stateMutability": "view",
      "type": "function"
    },
    {
      "constant": true,
      "inputs": [
        {
          "name": "",
          "type": "bytes32"
        }
      ],
      "name": "cancelledOrFinalized",
      "outputs": [
        {
          "name": "",
          "type": "bool"
        }
      ],
      "payable": false,
      "stateMutability": "view",
      "type": "function"
    },
    {
      "constant": true,
      "inputs": [],
      "name": "owner",
      "outputs": [
        {
          "name": "",
          "type": "address"
        }
      ],
      "payable": false,
      "stateMutability": "view",
      "type": "function"
    },
    {
      "constant": true,
      "inputs": [],
      "name": "exchangeToken",
      "outputs": [
        {
          "name": "",
          "type": "address"
        }
      ],
      "payable": false,
      "stateMutability": "view",
      "type": "function"
    },
    {
      "constant": false,
      "inputs": [
        {
          "name": "addrs",
          "type": "address[7]"
        },
        {
          "name": "uints",
          "type": "uint256[9]"
        },
        {
          "name": "feeMethod",
          "type": "uint8"
        },
        {
          "name": "side",
          "type": "uint8"
        },
        {
          "name": "saleKind",
          "type": "uint8"
        },
        {
          "name": "howToCall",
          "type": "uint8"
        },
        {
          "name": "calldata",
          "type": "bytes"
        },
        {
          "name": "replacementPattern",
          "type": "bytes"
        },
        {
          "name": "staticExtradata",
          "type": "bytes"
        },
        {
          "name": "v",
          "type": "uint8"
        },
        {
          "name": "r",
          "type": "bytes32"
        },
        {
          "name": "s",
          "type": "bytes32"
        }
      ],
      "name": "cancelOrder_",
      "outputs": [],
      "payable": false,
      "stateMutability": "nonpayable",
      "type": "function"
    },
    {
      "constant": false,
      "inputs": [
        {
          "name": "addrs",
          "type": "address[14]"
        },
        {
          "name": "uints",
          "type": "uint256[18]"
        },
        {
          "name": "feeMethodsSidesKindsHowToCalls",
          "type": "uint8[8]"
        },
        {
          "name": "calldataBuy",
          "type": "bytes"
        },
        {
          "name": "calldataSell",
          "type": "bytes"
        },
        {
          "name": "replacementPatternBuy",
          "type": "bytes"
        },
        {
          "name": "replacementPatternSell",
          "type": "bytes"
        },
        {
          "name": "staticExtradataBuy",
          "type": "bytes"
        },
        {
          "name": "staticExtradataSell",
          "type": "bytes"
        },
        {
          "name": "vs",
          "type": "uint8[2]"
        },
        {
          "name": "rssMetadata",
          "type": "bytes32[5]"
        }
      ],
      "name": "atomicMatch_",
      "outputs": [],
      "payable": true,
      "stateMutability": "payable",
      "type": "function"
    },
    {
      "constant": true,
      "inputs": [
        {
          "name": "addrs",
          "type": "address[7]"
        },
        {
          "name": "uints",
          "type": "uint256[9]"
        },
        {
          "name": "feeMethod",
          "type": "uint8"
        },
        {
          "name": "side",
          "type": "uint8"
        },
        {
          "name": "saleKind",
          "type": "uint8"
        },
        {
          "name": "howToCall",
          "type": "uint8"
        },
        {
          "name": "calldata",
          "type": "bytes"
        },
        {
          "name": "replacementPattern",
          "type": "bytes"
        },
        {
          "name": "staticExtradata",
          "type": "bytes"
        }
      ],
      "name": "validateOrderParameters_",
      "outputs": [
        {
          "name": "",
          "type": "bool"
        }
      ],
      "payable": false,
      "stateMutability": "view",
      "type": "function"
    },
    {
      "constant": true,
      "inputs": [],
      "name": "INVERSE_BASIS_POINT",
      "outputs": [
        {
          "name": "",
          "type": "uint256"
        }
      ],
      "payable": false,
      "stateMutability": "view",
      "type": "function"
    },
    {
      "constant": true,
      "inputs": [
        {
          "name": "addrs",
          "type": "address[14]"
        },
        {
          "name": "uints",
          "type": "uint256[18]"
        },
        {
          "name": "feeMethodsSidesKindsHowToCalls",
          "type": "uint8[8]"
        },
        {
          "name": "calldataBuy",
          "type": "bytes"
        },
        {
          "name": "calldataSell",
          "type": "bytes"
        },
        {
          "name": "replacementPatternBuy",
          "type": "bytes"
        },
        {
          "name": "replacementPatternSell",
          "type": "bytes"
        },
        {
          "name": "staticExtradataBuy",
          "type": "bytes"
        },
        {
          "name": "staticExtradataSell",
          "type": "bytes"
        }
      ],
      "name": "calculateMatchPrice_",
      "outputs": [
        {
          "name": "",
          "type": "uint256"
        }
      ],
      "payable": false,
      "stateMutability": "view",
      "type": "function"
    },
    {
      "constant": true,
      "inputs": [
        {
          "name": "",
          "type": "bytes32"
        }
      ],
      "name": "approvedOrders",
      "outputs": [
        {
          "name": "",
          "type": "bool"
        }
      ],
      "payable": false,
      "stateMutability": "view",
      "type": "function"
    },
    {
      "constant": false,
      "inputs": [
        {
          "name": "newOwner",
          "type": "address"
        }
      ],
      "name": "transferOwnership",
      "outputs": [],
      "payable": false,
      "stateMutability": "nonpayable",
      "type": "function"
    },
    {
      "inputs": [
        {
          "name": "registryAddress",
          "type": "address"
        },
        {
          "name": "tokenTransferProxyAddress",
          "type": "address"
        },
        {
          "name": "tokenAddress",
          "type": "address"
        },
        {
          "name": "protocolFeeAddress",
          "type": "address"
        }
      ],
      "payable": false,
      "stateMutability": "nonpayable",
      "type": "constructor"
    },
    {
      "anonymous": false,
      "inputs": [
        {
          "indexed": true,
          "name": "hash",
          "type": "bytes32"
        },
        {
          "indexed": false,
          "name": "exchange",
          "type": "address"
        },
        {
          "indexed": true,
          "name": "maker",
          "type": "address"
        },
        {
          "indexed": false,
          "name": "taker",
          "type": "address"
        },
        {
          "indexed": false,
          "name": "makerRelayerFee",
          "type": "uint256"
        },
        {
          "indexed": false,
          "name": "takerRelayerFee",
          "type": "uint256"
        },
        {
          "indexed": false,
          "name": "makerProtocolFee",
          "type": "uint256"
        },
        {
          "indexed": false,
          "name": "takerProtocolFee",
          "type": "uint256"
        },
        {
          "indexed": true,
          "name": "feeRecipient",
          "type": "address"
        },
        {
          "indexed": false,
          "name": "feeMethod",
          "type": "uint8"
        },
        {
          "indexed": false,
          "name": "side",
          "type": "uint8"
        },
        {
          "indexed": false,
          "name": "saleKind",
          "type": "uint8"
        },
        {
          "indexed": false,
          "name": "target",
          "type": "address"
        }
      ],
      "name": "OrderApprovedPartOne",
      "type": "event"
    },
    {
      "anonymous": false,
      "inputs": [
        {
          "indexed": true,
          "name": "hash",
          "type": "bytes32"
        },
        {
          "indexed": false,
          "name": "howToCall",
          "type": "uint8"
        },
        {
          "indexed": false,
          "name": "calldata",
          "type": "bytes"
        },
        {
          "indexed": false,
          "name": "replacementPattern",
          "type": "bytes"
        },
        {
          "indexed": false,
          "name": "staticTarget",
          "type": "address"
        },
        {
          "indexed": false,
          "name": "staticExtradata",
          "type": "bytes"
        },
        {
          "indexed": false,
          "name": "paymentToken",
          "type": "address"
        },
        {
          "indexed": false,
          "name": "basePrice",
          "type": "uint256"
        },
        {
          "indexed": false,
          "name": "extra",
          "type": "uint256"
        },
        {
          "indexed": false,
          "name": "listingTime",
          "type": "uint256"
        },
        {
          "indexed": false,
          "name": "expirationTime",
          "type": "uint256"
        },
        {
          "indexed": false,
          "name": "salt",
          "type": "uint256"
        },
        {
          "indexed": false,
          "name": "orderbookInclusionDesired",
          "type": "bool"
        }
      ],
      "name": "OrderApprovedPartTwo",
      "type": "event"
    },
    {
      "anonymous": false,
      "inputs": [
        {
          "indexed": true,
          "name": "hash",
          "type": "bytes32"
        }
      ],
      "name": "OrderCancelled",
      "type": "event"
    },
    {
      "anonymous": false,
      "inputs": [
        {
          "indexed": false,
          "name": "buyHash",
          "type": "bytes32"
        },
        {
          "indexed": false,
          "name": "sellHash",
          "type": "bytes32"
        },
        {
          "indexed": true,
          "name": "maker",
          "type": "address"
        },
        {
          "indexed": true,
          "name": "taker",
          "type": "address"
        },
        {
          "indexed": false,
          "name": "price",
          "type": "uint256"
        },
        {
          "indexed": true,
          "name": "metadata",
          "type": "bytes32"
        }
      ],
      "name": "OrdersMatched",
      "type": "event"
    },
    {
      "anonymous": false,
      "inputs": [
        {
          "indexed": true,
          "name": "previousOwner",
          "type": "address"
        },
        {
          "indexed": true,
          "name": "newOwner",
          "type": "address"
        }
      ],
      "name": "OwnershipTransferred",
      "type": "event"
    }
  ],
  "bytecode": "0x60606040526000805460ff191681556006819055600755341561002157600080fd5b604051608080614905833981016040528080519190602001805191906020018051919060200180516000805460028054600160a060020a03998a16600160a060020a03199182161790915560038054988a16988216989098179097556001805496891696881696909617909555600880549288169290961691909117909455505033929092166101000261010060a860020a031992831681179092169091179055614834806100d16000396000f3006060604052600436106101665763ffffffff60e060020a60003504166306fdde03811461016b5780630eefdbad146101f557806310796a471461022457806314350c24146102d95780631a6b13e2146102f1578063239e83df1461030757806328a8ee68146103dc57806331e63199146104015780633f67ee0d14610414578063514f03301461056157806354fd4d5014610580578063562b2ebc1461059357806360bef33a146106aa57806363d36c0b1461080757806364df049e1461083257806371d02b381461084557806372593b4c146109925780637966686814610baa5780637b10399914610cfb5780637ccefc5214610d0e5780638076f00514610d215780638da5cb5b14610d37578063a25eb5d914610d4a578063a8a41c7014610d5d578063ab834bab14610eba578063ca595b9a1461111b578063cae6047f14611268578063d537e1311461127b578063e57d4adb14611493578063f2fde38b146114a9575b600080fd5b341561017657600080fd5b61017e6114c8565b60405160208082528190810183818151815260200191508051906020019080838360005b838110156101ba5780820151838201526020016101a2565b50505050905090810190601f1680156101e75780820380516001836020036101000a031916815260200191505b509250505060405180910390f35b341561020057600080fd5b6102086114ff565b604051600160a060020a03909116815260200160405180910390f35b341561022f57600080fd5b6102c560048035600160a060020a03169060446024803590810190830135806020601f8201819004810201604051908101604052818152929190602084018383808284378201915050505050509190803590602001908201803590602001908080601f01602080910402602001604051908101604052818152929190602084018383808284375094965061150e95505050505050565b604051901515815260200160405180910390f35b34156102e457600080fd5b6102ef600435611619565b005b34156102fc57600080fd5b6102ef60043561163e565b341561031257600080fd5b61017e60046024813581810190830135806020601f8201819004810201604051908101604052818152929190602084018383808284378201915050505050509190803590602001908201803590602001908080601f01602080910402602001604051908101604052818152929190602084018383808284378201915050505050509190803590602001908201803590602001908080601f01602080910402602001604051908101604052818152929190602084018383808284375094965061166395505050505050565b34156103e757600080fd5b6103ef611680565b60405190815260200160405180910390f35b341561040c57600080fd5b61017e611686565b341561041f57600080fd5b6103ef600460e481600760e06040519081016040529190828260e08082843782019150505050509190806101200190600980602002604051908101604052919082826101208082843750939560ff863581169660208082013583169750604080830135841697506060830135909316955092935060a08101926080909101358401808201929035918291601f830182900482029091019051908101604052818152929190602084018383808284378201915050505050509190803590602001908201803590602001908080601f01602080910402602001604051908101604052818152929190602084018383808284378201915050505050509190803590602001908201803590602001908080601f0160208091040260200160405190810160405281815292919060208401838380828437509496506116bd95505050505050565b341561056c57600080fd5b6102ef600160a060020a0360043516611818565b341561058b57600080fd5b61017e611867565b341561059e57600080fd5b6102c560046024813581810190830135806020601f8201819004810201604051908101604052818152929190602084018383808284378201915050505050509190803590602001908201803590602001908080601f01602080910402602001604051908101604052818152929190602084018383808284378201915050505050509190803590602001908201803590602001908080601f01602080910402602001604051908101604052818152929190602084018383808284378201915050505050509190803590602001908201803590602001908080601f01602080910402602001604051908101604052818152929190602084018383808284375094965061189e95505050505050565b34156106b557600080fd5b6102c5600460e481600760e06040519081016040529190828260e08082843782019150505050509190806101200190600980602002604051908101604052919082826101208082843750939560ff863581169660208082013583169750604080830135841697506060830135909316955092935060a08101926080909101358401808201929035918291601f830182900482029091019051908101604052818152929190602084018383808284378201915050505050509190803590602001908201803590602001908080601f01602080910402602001604051908101604052818152929190602084018383808284378201915050505050509190803590602001908201803590602001908080601f0160208091040260200160405190810160405281815292919060208401838380828437509496505060ff85351694602081013594506040013592506118dc915050565b341561081257600080fd5b6103ef60ff6004358116906024351660443560643560843560a435611a7d565b341561083d57600080fd5b610208611a98565b341561085057600080fd5b6103ef600460e481600760e06040519081016040529190828260e08082843782019150505050509190806101200190600980602002604051908101604052919082826101208082843750939560ff863581169660208082013583169750604080830135841697506060830135909316955092935060a08101926080909101358401808201929035918291601f830182900482029091019051908101604052818152929190602084018383808284378201915050505050509190803590602001908201803590602001908080601f01602080910402602001604051908101604052818152929190602084018383808284378201915050505050509190803590602001908201803590602001908080601f016020809104026020016040519081016040528181529291906020840183838082843750949650611aa795505050505050565b341561099d57600080fd5b6102c560046101c481600e6101c0604051908101604052919082826101c0808284378201915050505050919080610240019060128060200260405190810160405291908282610240808284378201915050505050919080610100019060088060200260405190810160405291908282610100808284375093959460208082019550903586018082019450359250829150601f8201819004810201604051908101604052818152929190602084018383808284378201915050505050509190803590602001908201803590602001908080601f01602080910402602001604051908101604052818152929190602084018383808284378201915050505050509190803590602001908201803590602001908080601f01602080910402602001604051908101604052818152929190602084018383808284378201915050505050509190803590602001908201803590602001908080601f01602080910402602001604051908101604052818152929190602084018383808284378201915050505050509190803590602001908201803590602001908080601f01602080910402602001604051908101604052818152929190602084018383808284378201915050505050509190803590602001908201803590602001908080601f016020809104026020016040519081016040528181529291906020840183838082843750949650611bf495505050505050565b3415610bb557600080fd5b6102ef600460e481600760e06040519081016040529190828260e08082843782019150505050509190806101200190600980602002604051908101604052919082826101208082843750939560ff863581169660208082013583169750604080830135841697506060830135909316955092935060a08101926080909101358401808201929035918291601f830182900482029091019051908101604052818152929190602084018383808284378201915050505050509190803590602001908201803590602001908080601f01602080910402602001604051908101604052818152929190602084018383808284378201915050505050509190803590602001908201803590602001908080601f016020809104026020016040519081016040528181529291906020840183838082843750949650505050913515159150611f489050565b3415610d0657600080fd5b6102086120ac565b3415610d1957600080fd5b6103ef6120bb565b3415610d2c57600080fd5b6102c56004356120c1565b3415610d4257600080fd5b6102086120d6565b3415610d5557600080fd5b6102086120ea565b3415610d6857600080fd5b6102ef600460e481600760e06040519081016040529190828260e08082843782019150505050509190806101200190600980602002604051908101604052919082826101208082843750939560ff863581169660208082013583169750604080830135841697506060830135909316955092935060a08101926080909101358401808201929035918291601f830182900482029091019051908101604052818152929190602084018383808284378201915050505050509190803590602001908201803590602001908080601f01602080910402602001604051908101604052818152929190602084018383808284378201915050505050509190803590602001908201803590602001908080601f0160208091040260200160405190810160405281815292919060208401838380828437509496505060ff85351694602081013594506040013592506120f9915050565b6102ef60046101c481600e6101c0604051908101604052919082826101c0808284378201915050505050919080610240019060128060200260405190810160405291908282610240808284378201915050505050919080610100019060088060200260405190810160405291908282610100808284375093959460208082019550903586018082019450359250829150601f8201819004810201604051908101604052818152929190602084018383808284378201915050505050509190803590602001908201803590602001908080601f01602080910402602001604051908101604052818152929190602084018383808284378201915050505050509190803590602001908201803590602001908080601f01602080910402602001604051908101604052818152929190602084018383808284378201915050505050509190803590602001908201803590602001908080601f01602080910402602001604051908101604052818152929190602084018383808284378201915050505050509190803590602001908201803590602001908080601f01602080910402602001604051908101604052818152929190602084018383808284378201915050505050509190803590602001908201803590602001908080601f0160208091040260200160405190810160405281815292919060208401838380828437820191505050505050919080604001906002806020026040519081016040528092919082600260200280828437820191505050505091908060a001906005806020026040519081016040529190828260a08082843750939550612271945050505050565b341561112657600080fd5b6102c5600460e481600760e06040519081016040529190828260e08082843782019150505050509190806101200190600980602002604051908101604052919082826101208082843750939560ff863581169660208082013583169750604080830135841697506060830135909316955092935060a08101926080909101358401808201929035918291601f830182900482029091019051908101604052818152929190602084018383808284378201915050505050509190803590602001908201803590602001908080601f01602080910402602001604051908101604052818152929190602084018383808284378201915050505050509190803590602001908201803590602001908080601f01602080910402602001604051908101604052818152929190602084018383808284375094965061260295505050505050565b341561127357600080fd5b6103ef612769565b341561128657600080fd5b6103ef60046101c481600e6101c0604051908101604052919082826101c0808284378201915050505050919080610240019060128060200260405190810160405291908282610240808284378201915050505050919080610100019060088060200260405190810160405291908282610100808284375093959460208082019550903586018082019450359250829150601f8201819004810201604051908101604052818152929190602084018383808284378201915050505050509190803590602001908201803590602001908080601f01602080910402602001604051908101604052818152929190602084018383808284378201915050505050509190803590602001908201803590602001908080601f01602080910402602001604051908101604052818152929190602084018383808284378201915050505050509190803590602001908201803590602001908080601f01602080910402602001604051908101604052818152929190602084018383808284378201915050505050509190803590602001908201803590602001908080601f01602080910402602001604051908101604052818152929190602084018383808284378201915050505050509190803590602001908201803590602001908080601f01602080910402602001604051908101604052818152929190602084018383808284375094965061276f95505050505050565b341561149e57600080fd5b6102c5600435612ab3565b34156114b457600080fd5b6102ef600160a060020a0360043516612ac8565b60408051908101604052601781527f50726f6a6563742057797665726e2045786368616e6765000000000000000000602082015281565b600354600160a060020a031681565b60006115186146fd565b60008061152786518651612b73565b6040518059106115345750595b818152601f19601f830116810160200160405290509250600091505b84518210156115a65784828151811061156557fe5b016020015160f860020a900460f860020a0283838151811061158357fe5b906020010190600160f860020a031916908160001a905350600190910190611550565b5060005b8551811015611600578581815181106115bf57fe5b016020015160f860020a900460f860020a028386518301815181106115e057fe5b906020010190600160f860020a031916908160001a9053506001016115aa565b60006040518451602086018a5afa979650505050505050565b60005433600160a060020a03908116610100909204161461163957600080fd5b600655565b60005433600160a060020a03908116610100909204161461165e57600080fd5b600755565b61166b6146fd565b611676848484612b8d565b50825b9392505050565b60075481565b60408051908101604052600881527f42616b756e617761000000000000000000000000000000000000000000000000602082015281565b600061180a6102e0604051908101604052808c51600160a060020a031681526020018c60016020020151600160a060020a0316815260200160408d0151600160a060020a031681526020018b5181526020018b60016020020151815260200160408c0151815260200160608c0151815260200160608d0151600160a060020a031681526020018a600181111561174f57fe5b815260200189600181111561176057fe5b815260200188600181111561177157fe5b815260200160808d0151600160a060020a0316815260200187600181111561179557fe5b8152602081018790526040810186905260600160a08d0151600160a060020a031681526020810185905260400160c08d0151600160a060020a0316815260200160808c0151815260200160a08c0151815260200160c08c0151815260200160e08c015181526020016101008c01519052612d93565b9a9950505050505050505050565b60005433600160a060020a03908116610100909204161461183857600080fd5b6008805473ffffffffffffffffffffffffffffffffffffffff1916600160a060020a0392909216919091179055565b60408051908101604052600181527f3200000000000000000000000000000000000000000000000000000000000000602082015281565b600080845111156118b4576118b4858486612b8d565b6000825111156118c9576118c9838684612b8d565b6118d38584612dc9565b95945050505050565b60006118e661470f565b6102e0604051908101604052808f51600160a060020a031681526020018f60016020020151600160a060020a031681526020018f60026020020151600160a060020a031681526020018e5181526020018e60016020020151815260200160408f0151815260200160608f015181526020018f60036020020151600160a060020a031681526020018d600181111561197957fe5b81526020018c600181111561198a57fe5b81526020018b600181111561199b57fe5b81526020018f60046020020151600160a060020a031681526020018a60018111156119c257fe5b8152602081018a9052604081018990526060018f60056020020151600160a060020a03168152602081018890526040018f60066020020151600160a060020a0316815260200160808f0151815260200160a08f0151815260200160c08f0151815260200160e08f015181526020016101008f015190529050611a6b611a4682612e5d565b826060604051908101604090815260ff8a168252602082018990528101879052612f20565b9e9d5050505050505050505050505050565b6000611a8d87878787878761301d565b979650505050505050565b600854600160a060020a031681565b600061180a6102e0604051908101604052808c51600160a060020a031681526020018c60016020020151600160a060020a0316815260200160408d0151600160a060020a031681526020018b5181526020018b60016020020151815260200160408c0151815260200160608c0151815260200160608d0151600160a060020a031681526020018a6001811115611b3957fe5b8152602001896001811115611b4a57fe5b8152602001886001811115611b5b57fe5b815260200160808d0151600160a060020a03168152602001876001811115611b7f57fe5b8152602081018790526040810186905260600160a08d0151600160a060020a031681526020810185905260400160c08d0151600160a060020a0316815260200160808c0151815260200160a08c0151815260200160c08c0151815260200160e08c015181526020016101008c01519052612e5d565b6000611bfe61470f565b611c0661470f565b6102e0604051908101604052808d51600160a060020a031681526020018d60016020020151600160a060020a0316815260200160408e0151600160a060020a031681526020018c5181526020018c60016020020151815260200160408d0151815260200160608d0151815260200160608e0151600160a060020a031681526020018b5160ff166001811115611c9757fe5b6001811115611ca257fe5b81526020018b6001602002015160ff166001811115611cbd57fe5b6001811115611cc857fe5b815260200160408c015160ff166001811115611ce057fe5b6001811115611ceb57fe5b815260200160808e0151600160a060020a0316815260200160608c015160ff166001811115611d1657fe5b6001811115611d2157fe5b8152602081018b90526040810189905260600160a08e0151600160a060020a031681526020810187905260400160c08e0151600160a060020a0316815260200160808d0151815260200160a08d0151815260200160c08d0151815260200160e08d015181526020016101008d0151905291506102e06040519081016040528060e08e0151600160a060020a031681526020016101008e0151600160a060020a031681526020016101208e0151600160a060020a031681526020016101208d015181526020016101408d015181526020016101608d015181526020016101808d015181526020016101408e0151600160a060020a0316815260200160808c015160ff166001811115611e2e57fe5b6001811115611e3957fe5b815260200160a08c015160ff166001811115611e5157fe5b6001811115611e5c57fe5b815260200160c08c015160ff166001811115611e7457fe5b6001811115611e7f57fe5b81526020016101608e0151600160a060020a0316815260200160e08c015160ff166001811115611eab57fe5b6001811115611eb657fe5b8152602081018a9052604081018890526060016101808e0151600160a060020a03168152602081018690526040016101a08e0151600160a060020a031681526020016101a08d015181526020016101c08d015181526020016101e08d015181526020016102008d015181526020016102208d015190529050611f3882826130b0565b9c9b505050505050505050505050565b611f5061470f565b6102e0604051908101604052808c51600160a060020a031681526020018c60016020020151600160a060020a0316815260200160408d0151600160a060020a031681526020018b5181526020018b60016020020151815260200160408c0151815260200160608c0151815260200160608d0151600160a060020a031681526020018a6001811115611fdd57fe5b8152602001896001811115611fee57fe5b8152602001886001811115611fff57fe5b815260200160808d0151600160a060020a0316815260200187600181111561202357fe5b8152602081018790526040810186905260600160a08d0151600160a060020a031681526020810185905260400160c08d0151600160a060020a0316815260200160808c0151815260200160a08c0151815260200160c08c0151815260200160e08c015181526020016101008c01519052905061209f8183613296565b5050505050505050505050565b600254600160a060020a031681565b60065481565b60046020526000908152604090205460ff1681565b6000546101009004600160a060020a031681565b600154600160a060020a031681565b6122636102e0604051908101604052808e51600160a060020a031681526020018e60016020020151600160a060020a0316815260200160408f0151600160a060020a031681526020018d5181526020018d60016020020151815260200160408e0151815260200160608e0151815260200160608f0151600160a060020a031681526020018c600181111561218957fe5b81526020018b600181111561219a57fe5b81526020018a60018111156121ab57fe5b815260200160808f0151600160a060020a031681526020018960018111156121cf57fe5b8152602081018990526040810188905260600160a08f0151600160a060020a031681526020810187905260400160c08f0151600160a060020a0316815260200160808e0151815260200160a08e0151815260200160c08e0151815260200160e08e015181526020016101008e015190526060604051908101604090815260ff8716825260208201869052810184905261364a565b505050505050505050505050565b61209f6102e0604051908101604052808d51600160a060020a031681526020018d60016020020151600160a060020a0316815260200160408e0151600160a060020a031681526020018c5181526020018c60016020020151815260200160408d0151815260200160608d0151815260200160608e0151600160a060020a031681526020018b5160ff16600181111561230557fe5b600181111561231057fe5b81526020018b6001602002015160ff16600181111561232b57fe5b600181111561233657fe5b815260200160408c015160ff16600181111561234e57fe5b600181111561235957fe5b815260200160808e0151600160a060020a0316815260200160608c015160ff16600181111561238457fe5b600181111561238f57fe5b8152602081018b90526040810189905260600160a08e0151600160a060020a031681526020810187905260400160c08e0151600160a060020a0316815260200160808d0151815260200160a08d0151815260200160c08d0151815260200160e08d015181526020016101008d01519052606060405190810160405280855160ff16815260200184518152602001846001602002015190526102e0604051908101604052808f60076020020151600160a060020a031681526020018f60086020020151600160a060020a031681526020018f60096020020151600160a060020a031681526020016101208f015181526020016101408f015181526020016101608f015181526020016101808f015181526020018f600a6020020151600160a060020a0316815260200160808e015160ff1660018111156124ca57fe5b60018111156124d557fe5b815260200160a08e015160ff1660018111156124ed57fe5b60018111156124f857fe5b815260200160c08e015160ff16600181111561251057fe5b600181111561251b57fe5b81526020018f600b6020020151600160a060020a0316815260200160e08e015160ff16600181111561254957fe5b600181111561255457fe5b8152602081018c9052604081018a90526060018f600c6020020151600160a060020a03168152602081018890526040018f600d6020020151600160a060020a031681526020016101a08f015181526020016101c08f015181526020016101e08f015181526020016102008f015181526020016102208f01519052606060405190810160405280602088015160ff168152602001604087015181526020016060870151905260808601516136c9565b600061260c61470f565b6102e0604051908101604052808c51600160a060020a031681526020018c60016020020151600160a060020a0316815260200160408d0151600160a060020a031681526020018b5181526020018b60016020020151815260200160408c0151815260200160608c0151815260200160608d0151600160a060020a031681526020018a600181111561269957fe5b81526020018960018111156126aa57fe5b81526020018860018111156126bb57fe5b815260200160808d0151600160a060020a031681526020018760018111156126df57fe5b8152602081018790526040810186905260600160a08d0151600160a060020a031681526020810185905260400160c08d0151600160a060020a0316815260200160808c0151815260200160a08c0151815260200160c08c0151815260200160e08c015181526020016101008c01519052905061275a81613b6f565b9b9a5050505050505050505050565b61271081565b600061277961470f565b61278161470f565b6102e0604051908101604052808d51600160a060020a031681526020018d60016020020151600160a060020a0316815260200160408e0151600160a060020a031681526020018c5181526020018c60016020020151815260200160408d0151815260200160608d0151815260200160608e0151600160a060020a031681526020018b5160ff16600181111561281257fe5b600181111561281d57fe5b81526020018b6001602002015160ff16600181111561283857fe5b600181111561284357fe5b815260200160408c015160ff16600181111561285b57fe5b600181111561286657fe5b815260200160808e0151600160a060020a0316815260200160608c015160ff16600181111561289157fe5b600181111561289c57fe5b8152602081018b90526040810189905260600160a08e0151600160a060020a031681526020810187905260400160c08e0151600160a060020a0316815260200160808d0151815260200160a08d0151815260200160c08d0151815260200160e08d015181526020016101008d0151905291506102e06040519081016040528060e08e0151600160a060020a031681526020016101008e0151600160a060020a031681526020016101208e0151600160a060020a031681526020016101208d015181526020016101408d015181526020016101608d015181526020016101808d015181526020016101408e0151600160a060020a0316815260200160808c015160ff1660018111156129a957fe5b60018111156129b457fe5b815260200160a08c015160ff1660018111156129cc57fe5b60018111156129d757fe5b815260200160c08c015160ff1660018111156129ef57fe5b60018111156129fa57fe5b81526020016101608e0151600160a060020a0316815260200160e08c015160ff166001811115612a2657fe5b6001811115612a3157fe5b8152602081018a9052604081018890526060016101808e0151600160a060020a03168152602081018690526040016101a08e0151600160a060020a031681526020016101a08d015181526020016101c08d015181526020016101e08d015181526020016102008d015181526020016102208d015190529050611f388282613bfe565b60056020526000908152604090205460ff1681565b60005433600160a060020a039081166101009092041614612ae857600080fd5b600160a060020a0381161515612afd57600080fd5b600054600160a060020a03808316916101009004167f8be0079c531659141344cd1fd0a4f28419497f9722a3daafe3b4186f6b6457e060405160405180910390a360008054600160a060020a039092166101000274ffffffffffffffffffffffffffffffffffffffff0019909216919091179055565b600082820183811015612b8257fe5b8091505b5092915050565b612b956147df565b60008061010060405190810160409081527f800000000000000000000000000000000000000000000000000000000000000082527f400000000000000000000000000000000000000000000000000000000000000060208301527f2000000000000000000000000000000000000000000000000000000000000000908201527f100000000000000000000000000000000000000000000000000000000000000060608201527f080000000000000000000000000000000000000000000000000000000000000060808201527f040000000000000000000000000000000000000000000000000000000000000060a08201527f020000000000000000000000000000000000000000000000000000000000000060c082015260f860020a60e082015292508451865114612cc657600080fd5b60088651811515612cd357fe5b0484511015612ce157600080fd5b5060005b8551811015612d8b57826008820660088110612cfd57fe5b6020020151846008830481518110612d1157fe5b016020015160f860020a900460f860020a0216600160f860020a031916600060f860020a02149150811515612d8357848181518110612d4c57fe5b016020015160f860020a900460f860020a02868281518110612d6a57fe5b906020010190600160f860020a031916908160001a9053505b600101612ce5565b505050505050565b6000612dc1826101200151836101400151846102400151856102600151866102800151876102a0015161301d565b90505b919050565b6000808251845114612dde5760009150612b86565b5060005b8351811015612e5357828181518110612df757fe5b016020015160f860020a900460f860020a02600160f860020a031916848281518110612e1f57fe5b016020015160f860020a900460f860020a02600160f860020a031916141515612e4b5760009150612b86565b600101612de2565b5060019392505050565b6000612e676146fd565b600060408051908101604052601c81527f19457468657265756d205369676e6564204d6573736167653a0a3332000000006020820152915081612ea985613c90565b612eb286613e3a565b6040518084805190602001908083835b60208310612ee15780518252601f199092019160209182019101612ec2565b6001836020036101000a038019825116818451161790925250505091909101938452505060208201526040908101915051908190039020949350505050565b6000612f2b83613b6f565b1515612f3957506000611679565b60008481526004602052604090205460ff1615612f5857506000611679565b60008481526005602052604090205460ff1615612f7757506001611679565b8260200151600160a060020a03166001858451856020015186604001516040516000815260200160405260006040516020015260405193845260ff90921660208085019190915260408085019290925260608401929092526080909201915160208103908084039060008661646e5a03f11515612ff357600080fd5b505060206040510351600160a060020a0316141561301357506001611679565b5060009392505050565b6000808087600181111561302d57fe5b141561303b578591506130a5565b600187600181111561304957fe5b14156130a557613074613065866130604288613fdd565b613fef565b61306f8587613fdd565b61401a565b9050600188600181111561308457fe5b141561309b576130948682613fdd565b91506130a5565b6130948682612b73565b509695505050505050565b60008083610120015160018111156130c457fe5b1480156130e15750600182610120015160018111156130df57fe5b145b801561310c575081610100015160018111156130f957fe5b836101000151600181111561310a57fe5b145b80156131335750816102200151600160a060020a0316836102200151600160a060020a0316145b801561316f575060006040830151600160a060020a0316148061316f57508260200151600160a060020a03168260400151600160a060020a0316145b80156131ab575060006040840151600160a060020a031614806131ab57508160200151600160a060020a03168360400151600160a060020a0316145b801561320e5750600060e0830151600160a060020a03161480156131dd5750600060e0840151600160a060020a031614155b8061320e5750600060e0830151600160a060020a03161415801561320e5750600060e0840151600160a060020a0316145b80156132355750816101600151600160a060020a0316836101600151600160a060020a0316145b80156132605750816101800151600181111561324d57fe5b836101800151600181111561325e57fe5b145b801561327b575061327b836102800151846102a00151614031565b80156116795750611679826102800151836102a00151614031565b60008260200151600160a060020a031633600160a060020a03161415156132bc57600080fd5b6132c583612e5d565b60008181526005602052604090205490915060ff16156132e457600080fd5b6000818152600560205260409020805460ff1916600117905560e0830151600160a060020a03168360200151600160a060020a0316827f90c7f9f5b58c15f0f635bfb99f55d3d78fdbef3559e7d8abf5c81052a527662286518760400151886060015189608001518a60a001518b60c001518c61010001518d61012001518e61014001518f6101600151604051808b600160a060020a0316600160a060020a031681526020018a600160a060020a0316600160a060020a031681526020018981526020018881526020018781526020018681526020018560018111156133c657fe5b60ff1681526020018460018111156133da57fe5b60ff1681526020018360018111156133ee57fe5b60ff16815260200182600160a060020a0316600160a060020a031681526020019a505050505050505050505060405180910390a4807fe55393c778364e440d958b39ac1debd99dcfae3775a8a04d1e79124adf6a2d08610180850151856101a00151866101c00151876101e001518861020001518961022001518a61024001518b61026001518c61028001518d6102a001518e6102c001518e604051808d600181111561349757fe5b60ff16815260200180602001806020018c600160a060020a0316600160a060020a03168152602001806020018b600160a060020a0316600160a060020a031681526020018a81526020018981526020018881526020018781526020018681526020018515151515815260200184810384528f818151815260200191508051906020019080838360005b83811015613538578082015183820152602001613520565b50505050905090810190601f1680156135655780820380516001836020036101000a031916815260200191505b5084810383528e818151815260200191508051906020019080838360005b8381101561359b578082015183820152602001613583565b50505050905090810190601f1680156135c85780820380516001836020036101000a031916815260200191505b5084810382528c818151815260200191508051906020019080838360005b838110156135fe5780820151838201526020016135e6565b50505050905090810190601f16801561362b5780820380516001836020036101000a031916815260200191505b509f5050505050505050505050505050505060405180910390a2505050565b6000613656838361404d565b90508260200151600160a060020a031633600160a060020a031614151561367c57600080fd5b60008181526004602052604090819020805460ff1916600117905581907f5152abf959f6564662358c2e52b702259b78bac5ee7842a0f01937e670efcc7d905160405180910390a2505050565b600080548190819081908190819060ff16156136e457600080fd5b6000805460ff19166001179055600160a060020a03331660208c0151600160a060020a03161415613728576137188b613b6f565b151561372357600080fd5b613735565b6137328b8b61404d565b95505b33600160a060020a03168960200151600160a060020a0316141561376c5761375c89613b6f565b151561376757600080fd5b613779565b613776898961404d565b94505b6137838b8a6130b0565b151561378e57600080fd5b886101600151803b94509250600084116137a757600080fd5b60008b6101c001515111156137d0576137d08b6101a001518a6101a001518d6101c00151612b8d565b6000896101c001515111156137f9576137f9896101a001518c6101a001518b6101c00151612b8d565b61380d8b6101a001518a6101a00151612dc9565b151561381857600080fd5b600254600160a060020a031663c455279160208b015160006040516020015260405160e060020a63ffffffff8416028152600160a060020a039091166004820152602401602060405180830381600087803b151561387557600080fd5b6102c65a03f1151561388657600080fd5b5050506040518051925050600160a060020a03821615156138a657600080fd5b8a60200151600160a060020a031633600160a060020a03161415156138df576000868152600460205260409020805460ff191660011790555b8860200151600160a060020a031633600160a060020a0316141515613918576000858152600460205260409020805460ff191660011790555b6139228b8a614071565b905081600160a060020a0316631b0f7ba98a61016001518b61018001518c6101a001516000604051602001526040518463ffffffff1660e060020a0281526004018084600160a060020a0316600160a060020a0316815260200183600181111561398857fe5b60ff16815260200180602001828103825283818151815260200191508051906020019080838360005b838110156139c95780820151838201526020016139b1565b50505050905090810190601f1680156139f65780820380516001836020036101000a031916815260200191505b50945050505050602060405180830381600087803b1515613a1657600080fd5b6102c65a03f11515613a2757600080fd5b505050604051805190501515613a3c57600080fd5b60006101e08c0151600160a060020a031614613a7757613a6c8b6101e001518a6101a001518d610200015161150e565b1515613a7757600080fd5b60006101e08a0151600160a060020a031614613ab257613aa7896101e001518a6101a001518b610200015161150e565b1515613ab257600080fd5b86600060e08b0151600160a060020a03161415613ad3578960200151613ad9565b8b602001515b600160a060020a0316600060e08c0151600160a060020a03161415613b02578c60200151613b08565b8a602001515b600160a060020a03167fc4109843e0b7d514e4c093114b863f8e7d8d9a458c372cd51bfe526b588006c989898660405192835260208301919091526040808301919091526060909101905180910390a450506000805460ff19169055505050505050505050565b6000600160a060020a0330168251600160a060020a031614613b9357506000612dc4565b613ba7826101400151836102a00151614618565b1515613bb557506000612dc4565b60018261010001516001811115613bc857fe5b148015613be957506006548260a001511080613be957506007548260c00151105b15613bf657506000612dc4565b506001919050565b6000806000613c2f846101200151856101400151866102400151876102600151886102800151896102a0015161301d565b9150613c5d8561012001518661014001518761024001518861026001518961028001518a6102a0015161301d565b905081811015613c6c57600080fd5b600060e0850151600160a060020a03161415613c8857806118d3565b509392505050565b6000815182602001518360400151846060015185608001518660a001518760c001518860e001518961010001518a61012001518b61014001518c61016001518d6101800151604051808e600160a060020a0316600160a060020a03166c010000000000000000000000000281526014018d600160a060020a0316600160a060020a03166c010000000000000000000000000281526014018c600160a060020a0316600160a060020a03166c010000000000000000000000000281526014018b81526020018a815260200189815260200188815260200187600160a060020a0316600160a060020a03166c01000000000000000000000000028152601401866001811115613d9957fe5b60ff1660f860020a028152600101856001811115613db357fe5b60ff1660f860020a028152600101846001811115613dcd57fe5b60ff1660f860020a02815260010183600160a060020a0316600160a060020a03166c01000000000000000000000000028152601401826001811115613e0e57fe5b60ff1660f860020a0281526001019d505050505050505050505050505060405180910390209050919050565b6000816101a00151826101c00151836101e00151846102000151856102200151866102400151876102600151886102800151896102a001518a6102c00151604051808b805190602001908083835b60208310613ea75780518252601f199092019160209182019101613e88565b6001836020036101000a03801982511681845116179092525050509190910190508a805190602001908083835b60208310613ef35780518252601f199092019160209182019101613ed4565b6001836020036101000a03801982511681845116179092525050506c01000000000000000000000000600160a060020a038d160292019182525060140188805190602001908083835b60208310613f5b5780518252601f199092019160209182019101613f3c565b6001836020036101000a03801982511681845116808217855250505050505090500187600160a060020a0316600160a060020a03166c010000000000000000000000000281526014018681526020018581526020018481526020018381526020018281526020019a505050505050505050505060405180910390209050919050565b600082821115613fe957fe5b50900390565b6000808315156140025760009150612b86565b5082820282848281151561401257fe5b0414612b8257fe5b600080828481151561402857fe5b04949350505050565b6000428310801561167957508115806116795750504210919050565b60008061405984612e5d565b9050614066818585612f20565b1515612b8257600080fd5b60008080808080808080806102208b0151600160a060020a03161461409b57341561409b57600080fd5b6140a58b8b613bfe565b97506000881180156140c6575060006102208b0151600160a060020a031614155b156140e4576140e48a61022001518c602001518c602001518b614638565b879650869550600060e08b0151600160a060020a0316146143e6578a608001518a60800151111561411457600080fd5b60018a6101000151600181111561412757fe5b14156143b3578a60c001518a60c00151111561414257600080fd5b60008a6060015111156141e0576141686141608b606001518a613fef565b61271061401a565b945060006102208b0151600160a060020a031614156141c75761418b8786613fdd565b96508960e00151600160a060020a031685156108fc0286604051600060405180830381858888f1935050505015156141c257600080fd5b6141e0565b6141e08a61022001518b602001518c60e0015188614638565b60008a608001511115614276576141fe6141608b608001518a613fef565b935060006102208b0151600160a060020a0316141561425d576142218685612b73565b95508960e00151600160a060020a031684156108fc0285604051600060405180830381858888f19350505050151561425857600080fd5b614276565b6142768a61022001518c602001518c60e0015187614638565b60008a60a001511115614312576142946141608b60a001518a613fef565b925060006102208b0151600160a060020a031614156142f2576142b78784613fdd565b600854909750600160a060020a031683156108fc0284604051600060405180830381858888f1935050505015156142ed57600080fd5b614312565b6143128a61022001518b60200151600854600160a060020a031686614638565b60008a60c0015111156143ae576143306141608b60c001518a613fef565b915060006102208b0151600160a060020a0316141561438e576143538683612b73565b600854909650600160a060020a031682156108fc0283604051600060405180830381858888f19350505050151561438957600080fd5b6143ae565b6143ae8a61022001518c60200151600854600160a060020a031685614638565b6143e1565b6143ca8a602001518b60e001518c606001516146e0565b6143e18b602001518b60e001518c608001516146e0565b614565565b89608001518b6080015111156143fb57600080fd5b60018a6101000151600181111561440e57fe5b14156145375760006102208b0151600160a060020a0316141561443057600080fd5b8960c001518b60c00151111561444557600080fd5b60008b60600151111561447e576144636141608c606001518a613fef565b945061447e8a61022001518c602001518d60e0015188614638565b60008b6080015111156144b75761449c6141608c608001518a613fef565b93506144b78a61022001518b602001518d60e0015187614638565b60008b60a0015111156144f7576144d56141608c60a001518a613fef565b92506144f78a61022001518c60200151600854600160a060020a031686614638565b60008b60c0015111156143e1576145156141608c60c001518a613fef565b91506143e18a61022001518b60200151600854600160a060020a031685614638565b61454e8b602001518c60e001518d606001516146e0565b6145658a602001518c60e001518d608001516146e0565b60006102208b0151600160a060020a0316141561460957348690101561458a57600080fd5b8960200151600160a060020a031687156108fc0288604051600060405180830381858888f1935050505015156145bf57600080fd5b6145c93487613fdd565b90506000811115614609578a60200151600160a060020a031681156108fc0282604051600060405180830381858888f19350505050151561460957600080fd5b50959998505050505050505050565b60008083600181111561462757fe5b148061167957505060009011919050565b60008111156146da57600354600160a060020a03166315dacbea8585858560006040516020015260405160e060020a63ffffffff8716028152600160a060020a0394851660048201529284166024840152921660448201526064810191909152608401602060405180830381600087803b15156146b457600080fd5b6102c65a03f115156146c557600080fd5b5050506040518051905015156146da57600080fd5b50505050565b6001546146f890600160a060020a0316848484614638565b505050565b60206040519081016040526000815290565b6102e06040519081016040908152600080835260208301819052908201819052606082018190526080820181905260a0820181905260c0820181905260e0820181905261010082018190526101208201819052610140820181905261016082018190526101808201526101a081016147856146fd565b81526020016147926146fd565b8152600060208201526040016147a66146fd565b81526020016000600160a060020a0316815260200160008152602001600081526020016000815260200160008152602001600081525090565b6101006040519081016040526008815b6000815260001990910190602001816147ef57905050905600a165627a7a723058208b2bbe0e09e3c47383c27e7d4142dbe359fac37481acbbeb13138878470695b40029",
  "source": "/*\n\n  << Project Wyvern Exchange >>\n\n*/\n\npragma solidity 0.4.18;\n\nimport \"./exchange/Exchange.sol\";\n\n/**\n * @title WyvernExchange\n * @author Project Wyvern Developers\n */\ncontract WyvernExchange is Exchange {\n\n    string public constant name = \"Project Wyvern Exchange\";\n\n    string public constant version = \"2\";\n\n    string public constant codename = \"Bakunawa\";\n\n    /**\n     * @dev Initialize a WyvernExchange instance\n     * @param registryAddress Address of the registry instance which this Exchange instance will use\n     * @param tokenAddress Address of the token used for protocol fees\n     */\n    function WyvernExchange (ProxyRegistry registryAddress, TokenTransferProxy tokenTransferProxyAddress, ERC20 tokenAddress, address protocolFeeAddress) public {\n        registry = registryAddress;\n        tokenTransferProxy = tokenTransferProxyAddress;\n        exchangeToken = tokenAddress;\n        protocolFeeRecipient = protocolFeeAddress;\n        owner = msg.sender;\n    }\n\n}\n",
  "sourcePath": "/home/cwgoes/working/crypto/wyvern/wyvern-ethereum/contracts/WyvernExchange.sol",
  "compiler": {
    "name": "solc",
    "version": "0.4.18+commit.9cf6e910.Emscripten.clang"
  },
  "schemaVersion": "1.0.1",
  "updatedAt": "2018-03-06T22:53:07.072Z"
}