{
  "contractName": "WyvernExchange",
  "abi": [
    {
      "constant": false,
      "inputs": [
        {
          "name": "bidFee",
          "type": "uint256"
        }
      ],
      "name": "setBidFee",
      "outputs": [],
      "payable": false,
      "stateMutability": "nonpayable",
      "type": "function"
    },
    {
      "constant": true,
      "inputs": [],
      "name": "name",
      "outputs": [
        {
          "name": "",
          "type": "string"
        }
      ],
      "payable": false,
      "stateMutability": "view",
      "type": "function"
    },
    {
      "constant": true,
      "inputs": [
        {
          "name": "",
          "type": "bytes32"
        }
      ],
      "name": "sales",
      "outputs": [
        {
          "name": "buyer",
          "type": "address"
        },
        {
          "name": "price",
          "type": "uint256"
        },
        {
          "name": "timestamp",
          "type": "uint256"
        },
        {
          "name": "metadataHash",
          "type": "bytes"
        }
      ],
      "payable": false,
      "stateMutability": "view",
      "type": "function"
    },
    {
      "constant": false,
      "inputs": [
        {
          "name": "buyFee",
          "type": "uint256"
        }
      ],
      "name": "setBuyFee",
      "outputs": [],
      "payable": false,
      "stateMutability": "nonpayable",
      "type": "function"
    },
    {
      "constant": true,
      "inputs": [],
      "name": "exchangeTokenAddress",
      "outputs": [
        {
          "name": "",
          "type": "address"
        }
      ],
      "payable": false,
      "stateMutability": "view",
      "type": "function"
    },
    {
      "constant": false,
      "inputs": [
        {
          "name": "dest",
          "type": "address"
        }
      ],
      "name": "withdrawFees",
      "outputs": [],
      "payable": false,
      "stateMutability": "nonpayable",
      "type": "function"
    },
    {
      "constant": false,
      "inputs": [
        {
          "name": "id",
          "type": "bytes32"
        }
      ],
      "name": "removeItem",
      "outputs": [],
      "payable": false,
      "stateMutability": "nonpayable",
      "type": "function"
    },
    {
      "constant": false,
      "inputs": [
        {
          "name": "listFee",
          "type": "uint256"
        }
      ],
      "name": "setListFee",
      "outputs": [],
      "payable": false,
      "stateMutability": "nonpayable",
      "type": "function"
    },
    {
      "constant": false,
      "inputs": [
        {
          "name": "id",
          "type": "bytes32"
        }
      ],
      "name": "purchaseItem",
      "outputs": [],
      "payable": false,
      "stateMutability": "nonpayable",
      "type": "function"
    },
    {
      "constant": true,
      "inputs": [
        {
          "name": "",
          "type": "bytes32"
        }
      ],
      "name": "items",
      "outputs": [
        {
          "name": "seller",
          "type": "address"
        },
        {
          "name": "contractAddress",
          "type": "address"
        },
        {
          "name": "metadataHash",
          "type": "bytes"
        },
        {
          "name": "saleKind",
          "type": "uint8"
        },
        {
          "name": "paymentToken",
          "type": "address"
        },
        {
          "name": "basePrice",
          "type": "uint256"
        },
        {
          "name": "listingTime",
          "type": "uint256"
        },
        {
          "name": "expirationTime",
          "type": "uint256"
        },
        {
          "name": "auctionExtra",
          "type": "uint256"
        },
        {
          "name": "escrowProvider",
          "type": "address"
        },
        {
          "name": "removed",
          "type": "bool"
        }
      ],
      "payable": false,
      "stateMutability": "view",
      "type": "function"
    },
    {
      "constant": true,
      "inputs": [
        {
          "name": "",
          "type": "bytes32"
        }
      ],
      "name": "topBids",
      "outputs": [
        {
          "name": "bidder",
          "type": "address"
        },
        {
          "name": "amount",
          "type": "uint256"
        },
        {
          "name": "timestamp",
          "type": "uint256"
        }
      ],
      "payable": false,
      "stateMutability": "view",
      "type": "function"
    },
    {
      "constant": true,
      "inputs": [],
      "name": "feeBid",
      "outputs": [
        {
          "name": "",
          "type": "uint256"
        }
      ],
      "payable": false,
      "stateMutability": "view",
      "type": "function"
    },
    {
      "constant": true,
      "inputs": [],
      "name": "feeList",
      "outputs": [
        {
          "name": "",
          "type": "uint256"
        }
      ],
      "payable": false,
      "stateMutability": "view",
      "type": "function"
    },
    {
      "constant": false,
      "inputs": [
        {
          "name": "id",
          "type": "bytes32"
        },
        {
          "name": "saleMetadataHash",
          "type": "bytes"
        }
      ],
      "name": "finalizeSale",
      "outputs": [],
      "payable": false,
      "stateMutability": "nonpayable",
      "type": "function"
    },
    {
      "constant": true,
      "inputs": [],
      "name": "owner",
      "outputs": [
        {
          "name": "",
          "type": "address"
        }
      ],
      "payable": false,
      "stateMutability": "view",
      "type": "function"
    },
    {
      "constant": true,
      "inputs": [],
      "name": "collectedFees",
      "outputs": [
        {
          "name": "",
          "type": "uint256"
        }
      ],
      "payable": false,
      "stateMutability": "view",
      "type": "function"
    },
    {
      "constant": false,
      "inputs": [
        {
          "name": "id",
          "type": "bytes32"
        },
        {
          "name": "amount",
          "type": "uint256"
        }
      ],
      "name": "bidOnItem",
      "outputs": [],
      "payable": false,
      "stateMutability": "nonpayable",
      "type": "function"
    },
    {
      "constant": true,
      "inputs": [
        {
          "name": "id",
          "type": "bytes32"
        }
      ],
      "name": "calculateFinalItemPrice",
      "outputs": [
        {
          "name": "price",
          "type": "uint256"
        }
      ],
      "payable": false,
      "stateMutability": "view",
      "type": "function"
    },
    {
      "constant": true,
      "inputs": [],
      "name": "feeBuy",
      "outputs": [
        {
          "name": "",
          "type": "uint256"
        }
      ],
      "payable": false,
      "stateMutability": "view",
      "type": "function"
    },
    {
      "constant": false,
      "inputs": [
        {
          "name": "newOwner",
          "type": "address"
        }
      ],
      "name": "transferOwnership",
      "outputs": [],
      "payable": false,
      "stateMutability": "nonpayable",
      "type": "function"
    },
    {
      "constant": false,
      "inputs": [
        {
          "name": "contractAddress",
          "type": "address"
        },
        {
          "name": "metadataHash",
          "type": "bytes"
        },
        {
          "name": "saleKind",
          "type": "uint8"
        },
        {
          "name": "paymentToken",
          "type": "address"
        },
        {
          "name": "price",
          "type": "uint256"
        },
        {
          "name": "expirationTime",
          "type": "uint256"
        },
        {
          "name": "auctionExtra",
          "type": "uint256"
        },
        {
          "name": "escrowProvider",
          "type": "address"
        }
      ],
      "name": "listItem",
      "outputs": [
        {
          "name": "id",
          "type": "bytes32"
        }
      ],
      "payable": false,
      "stateMutability": "nonpayable",
      "type": "function"
    },
    {
      "constant": true,
      "inputs": [
        {
          "name": "",
          "type": "uint256"
        }
      ],
      "name": "ids",
      "outputs": [
        {
          "name": "",
          "type": "bytes32"
        }
      ],
      "payable": false,
      "stateMutability": "view",
      "type": "function"
    },
    {
      "inputs": [
        {
          "name": "tokenAddress",
          "type": "address"
        },
        {
          "name": "listFee",
          "type": "uint256"
        },
        {
          "name": "bidFee",
          "type": "uint256"
        },
        {
          "name": "buyFee",
          "type": "uint256"
        }
      ],
      "payable": false,
      "stateMutability": "nonpayable",
      "type": "constructor"
    },
    {
      "anonymous": false,
      "inputs": [
        {
          "indexed": false,
          "name": "id",
          "type": "bytes32"
        },
        {
          "indexed": false,
          "name": "seller",
          "type": "address"
        },
        {
          "indexed": false,
          "name": "contractAddress",
          "type": "address"
        },
        {
          "indexed": false,
          "name": "metadataHash",
          "type": "bytes"
        },
        {
          "indexed": false,
          "name": "saleKind",
          "type": "uint8"
        },
        {
          "indexed": false,
          "name": "paymentToken",
          "type": "address"
        },
        {
          "indexed": false,
          "name": "price",
          "type": "uint256"
        },
        {
          "indexed": false,
          "name": "timestamp",
          "type": "uint256"
        },
        {
          "indexed": false,
          "name": "expirationTime",
          "type": "uint256"
        },
        {
          "indexed": false,
          "name": "auctionExtra",
          "type": "uint256"
        },
        {
          "indexed": false,
          "name": "escrowProvider",
          "type": "address"
        }
      ],
      "name": "ItemListed",
      "type": "event"
    },
    {
      "anonymous": false,
      "inputs": [
        {
          "indexed": false,
          "name": "id",
          "type": "bytes32"
        }
      ],
      "name": "ItemRemoved",
      "type": "event"
    },
    {
      "anonymous": false,
      "inputs": [
        {
          "indexed": false,
          "name": "id",
          "type": "bytes32"
        },
        {
          "indexed": false,
          "name": "bidder",
          "type": "address"
        },
        {
          "indexed": false,
          "name": "amount",
          "type": "uint256"
        },
        {
          "indexed": false,
          "name": "timestamp",
          "type": "uint256"
        }
      ],
      "name": "ItemBidOn",
      "type": "event"
    },
    {
      "anonymous": false,
      "inputs": [
        {
          "indexed": false,
          "name": "id",
          "type": "bytes32"
        },
        {
          "indexed": false,
          "name": "buyer",
          "type": "address"
        },
        {
          "indexed": false,
          "name": "price",
          "type": "uint256"
        }
      ],
      "name": "ItemPurchased",
      "type": "event"
    },
    {
      "anonymous": false,
      "inputs": [
        {
          "indexed": false,
          "name": "id",
          "type": "bytes32"
        },
        {
          "indexed": false,
          "name": "metadataHash",
          "type": "bytes"
        }
      ],
      "name": "SaleFinalized",
      "type": "event"
    },
    {
      "anonymous": false,
      "inputs": [
        {
          "indexed": true,
          "name": "previousOwner",
          "type": "address"
        },
        {
          "indexed": true,
          "name": "newOwner",
          "type": "address"
        }
      ],
      "name": "OwnershipTransferred",
      "type": "event"
    }
  ],
  "bytecode": "0x6060604052341561000f57600080fd5b604051608080611bec8339810160405280805191906020018051919060200180519190602001805160008054600160a060020a03338116600160a060020a03199283161790925560058054989092169716969096179095555050600191909155600255600355611b68806100846000396000f30060606040526004361061010e5763ffffffff60e060020a600035041663013869bf811461011357806306fdde031461012b5780630c2afd72146101b55780630cc835a3146102735780630e5d2e2114610289578063164e68de146102b857806318037045146102d75780631d048860146102ed5780631ef499351461030357806348f343f314610319578063532aa1c81461042c5780635f1ae8aa14610478578063622ed7df1461049d5780638bb023f4146104b05780638da5cb5b146105065780639003adfe14610519578063a05e36d11461052c578063a9f6252d14610545578063c5b0fe9d1461055b578063f2fde38b1461056e578063f73bd3691461058d578063fac333ac14610618575b600080fd5b341561011e57600080fd5b61012960043561062e565b005b341561013657600080fd5b61013e61064e565b60405160208082528190810183818151815260200191508051906020019080838360005b8381101561017a578082015183820152602001610162565b50505050905090810190601f1680156101a75780820380516001836020036101000a031916815260200191505b509250505060405180910390f35b34156101c057600080fd5b6101cb600435610685565b604051600160a060020a038516815260208101849052604081018390526080606082018181528354600260001961010060018416150201909116049183018290529060a0830190849080156102615780601f1061023657610100808354040283529160200191610261565b820191906000526020600020905b81548152906001019060200180831161024457829003601f168201915b50509550505050505060405180910390f35b341561027e57600080fd5b6101296004356106b4565b341561029457600080fd5b61029c6106d4565b604051600160a060020a03909116815260200160405180910390f35b34156102c357600080fd5b610129600160a060020a03600435166106e3565b34156102e257600080fd5b610129600435610792565b34156102f857600080fd5b610129600435610892565b341561030e57600080fd5b6101296004356108b2565b341561032457600080fd5b61032f600435610d47565b604051600160a060020a03808d1682528b16602082015260408101606082018a600281111561035a57fe5b60ff168152600160a060020a038a81166020830152604082018a9052606082018990526080820188905260a08201879052851660c082015283151560e0820152610100838203810183528c546002600182161583026000190190911604908201819052610120909101908c9080156104135780601f106103e857610100808354040283529160200191610413565b820191906000526020600020905b8154815290600101906020018083116103f657829003601f168201915b50509c5050505050505050505050505060405180910390f35b341561043757600080fd5b610442600435610db1565b6040518084600160a060020a0316600160a060020a03168152602001838152602001828152602001935050505060405180910390f35b341561048357600080fd5b61048b610ddc565b60405190815260200160405180910390f35b34156104a857600080fd5b61048b610de2565b34156104bb57600080fd5b610129600480359060446024803590810190830135806020601f82018190048102016040519081016040528181529291906020840183838082843750949650610de895505050505050565b341561051157600080fd5b61029c610ed6565b341561052457600080fd5b61048b610ee5565b341561053757600080fd5b610129600435602435610eeb565b341561055057600080fd5b61048b6004356112cd565b341561056657600080fd5b61048b611458565b341561057957600080fd5b610129600160a060020a036004351661145e565b341561059857600080fd5b61048b60048035600160a060020a03169060446024803590810190830135806020601f820181900481020160405190810160405281815292919060208401838380828437509496505050833560ff16936020810135600160a060020a039081169450604082013593506060820135925060808201359160a00135166114ec565b341561062357600080fd5b61048b600435611a59565b60005433600160a060020a0390811691161461064957600080fd5b600255565b60408051908101604052601781527f50726f6a6563742057797665726e2045786368616e6765000000000000000000602082015281565b6008602052600090815260409020805460018201546002830154600160a060020a039092169290919060030184565b60005433600160a060020a039081169116146106cf57600080fd5b600355565b600554600160a060020a031681565b60005433600160a060020a039081169116146106fe57600080fd5b600554600454600160a060020a039091169063a9059cbb90839060006040516020015260405160e060020a63ffffffff8516028152600160a060020a0390921660048301526024820152604401602060405180830381600087803b151561076457600080fd5b6102c65a03f1151561077557600080fd5b50505060405180519050151561078a57600080fd5b506000600455565b6000818152600660205260409020548190600160a060020a0316158015906107d3575060008181526006602052604090206008015460a060020a900460ff16155b80156107f45750600081815260086020526040902054600160a060020a0316155b15156107ff57600080fd5b60008281526006602052604090205433600160a060020a0390811691161461082657600080fd5b60008281526006602052604090819020600801805474ff0000000000000000000000000000000000000000191660a060020a1790557f4d14690cbd42eab82cd15ad666b9b98197ade97acdd17512bdec0497b591de489083905190815260200160405180910390a15050565b60005433600160a060020a039081169116146108ad57600080fd5b600155565b600081815260066020526040812054819081908490600160a060020a0316158015906108f7575060008181526006602052604090206008015460a060020a900460ff16155b80156109185750600081815260086020526040902054600160a060020a0316155b151561092357600080fd5b600354600554600160a060020a03166323b872dd33308460006040516020015260405160e060020a63ffffffff8616028152600160a060020a0393841660048201529190921660248201526044810191909152606401602060405180830381600087803b151561099257600080fd5b6102c65a03f115156109a357600080fd5b5050506040518051905015156109b857600080fd5b6004805482019055600160008781526006602052604090206003015460ff1660028111156109e257fe5b1415610ace576000868152600960205260409020805490955033600160a060020a039081169116148015610a285750600086815260066020819052604090912001544210155b1515610a3357600080fd5b600086815260066020526040808220600301546001880154610100909104600160a060020a03169263a9059cbb9233929190516020015260405160e060020a63ffffffff8516028152600160a060020a0390921660048301526024820152604401602060405180830381600087803b1515610aad57600080fd5b6102c65a03f11515610abe57600080fd5b5050506040518051905050610aec565b600086815260066020819052604090912001544210610aec57600080fd5b610af5866112cd565b60008781526006602052604080822060088101548154600390920154949850600160a060020a039081169463b472704f948c943394841693610100909304909216918b9190516020015260405160e060020a63ffffffff88160281526004810195909552600160a060020a03938416602486015291831660448501529091166064830152608482015260a401602060405180830381600087803b1515610b9a57600080fd5b6102c65a03f11515610bab57600080fd5b505050604051805190501515610bc057600080fd5b600086815260066020526040902060010154600160a060020a031692508215610c465782600160a060020a031663f2fde38b3360405160e060020a63ffffffff8416028152600160a060020a039091166004820152602401600060405180830381600087803b1515610c3157600080fd5b6102c65a03f11515610c4257600080fd5b5050505b60806040519081016040528033600160a060020a031681526020018581526020014281526020016000604051805910610c7c5750595b818152601f19601f830116810160200160405290509052600087815260086020526040902081518154600160a060020a031916600160a060020a03919091161781556020820151816001015560408201518160020155606082015181600301908051610cec929160200190611a78565b509050507f3f7e7c9ec22f45dbf0d3c47a04c1f1e2e77716b0dcaa5974cb5f4b2ba6dd6b35863386604051928352600160a060020a0390911660208301526040808301919091526060909101905180910390a1505050505050565b6006602081905260009182526040909120805460018201546003830154600484015460058501549585015460078601546008870154600160a060020a0396871698958716976002019660ff808716976101009097048216969493929182169160a060020a9004168b565b600960205260009081526040902080546001820154600290920154600160a060020a03909116919083565b60025481565b60015481565b60008281526006602052604090205433600160a060020a03908116911614610e0f57600080fd5b6000828152600860205260409020600301818051610e31929160200190611a78565b507f07a8a89d5ccd9c5a4cfaa7950639bdd8edb423a3b9598ce3ab86efe8371f5015828260405182815260406020820181815290820183818151815260200191508051906020019080838360005b83811015610e97578082015183820152602001610e7f565b50505050905090810190601f168015610ec45780820380516001836020036101000a031916815260200191505b50935050505060405180910390a15050565b600054600160a060020a031681565b60045481565b6000828152600660205260409020548290600160a060020a031615801590610f2c575060008181526006602052604090206008015460a060020a900460ff16155b8015610f4d5750600081815260086020526040902054600160a060020a0316155b1515610f5857600080fd5b600254600554600160a060020a03166323b872dd33308460006040516020015260405160e060020a63ffffffff8616028152600160a060020a0393841660048201529190921660248201526044810191909152606401602060405180830381600087803b1515610fc757600080fd5b6102c65a03f11515610fd857600080fd5b505050604051805190501515610fed57600080fd5b6004805482019055600160008581526006602052604090206003015460ff16600281111561101757fe5b14801561103557506000848152600660208190526040909120015442105b151561104057600080fd5b600084815260096020526040902054600160a060020a031615156110815760008481526006602052604090206004015483101561107c57600080fd5b611162565b600084815260066020908152604080832060070154600990925290912060010154018310156110af57600080fd5b6000848152600660209081526040808320600301546009909252808320805460019190910154600160a060020a0361010090940484169463a9059cbb949290921692909190516020015260405160e060020a63ffffffff8516028152600160a060020a0390921660048301526024820152604401602060405180830381600087803b151561113c57600080fd5b6102c65a03f1151561114d57600080fd5b50505060405180519050151561116257600080fd5b600084815260066020526040808220600301546101009004600160a060020a0316916323b872dd9133913091889190516020015260405160e060020a63ffffffff8616028152600160a060020a0393841660048201529190921660248201526044810191909152606401602060405180830381600087803b15156111e557600080fd5b6102c65a03f115156111f657600080fd5b50505060405180519050151561120b57600080fd5b60606040519081016040908152600160a060020a033316825260208083018690524282840152600087815260099091522081518154600160a060020a031916600160a060020a0391909116178155602082015181600101556040820151600290910155507f539e08755531e0ceee4dfc4e45c1cfafef6e9b228a4b645456e229f5f4c9d1bf84338542604051938452600160a060020a03909216602084015260408084019190915260608301919091526080909101905180910390a150505050565b6000818152600660205260408120548290600160a060020a03161580159061130e575060008181526006602052604090206008015460a060020a900460ff16155b801561132f5750600081815260086020526040902054600160a060020a0316155b151561133a57600080fd5b60008381526006602052604081206003015460ff16600281111561135a57fe5b1415611379576000838152600660205260409020600401549150611452565b600160008481526006602052604090206003015460ff16600281111561139b57fe5b14156113dd57600083815260096020526040902054600160a060020a031615156113c457600080fd5b6000838152600960205260409020600101549150611452565b600260008481526006602052604090206003015460ff1660028111156113ff57fe5b141561010e576000838152600660208190526040909120600581015491810154600790910154908290039142030281151561143657fe5b6000858152600660205260409020600401549190046001030291505b50919050565b60035481565b60005433600160a060020a0390811691161461147957600080fd5b600160a060020a038116151561148e57600080fd5b600054600160a060020a0380831691167f8be0079c531659141344cd1fd0a4f28419497f9722a3daafe3b4186f6b6457e060405160405180910390a360008054600160a060020a031916600160a060020a0392909216919091179055565b60015460055460009190600160a060020a03166323b872dd333084866040516020015260405160e060020a63ffffffff8616028152600160a060020a0393841660048201529190921660248201526044810191909152606401602060405180830381600087803b151561155e57600080fd5b6102c65a03f1151561156f57600080fd5b50505060405180519050151561158457600080fd5b6004805482019055338a8a8a8a8a428b8b8b6040516c01000000000000000000000000600160a060020a03808d16820283528b160260148201526028810189805190602001908083835b602083106115ed5780518252601f1990920191602091820191016115ce565b6001836020036101000a038019825116818451161790925250505091909101905088600281111561161a57fe5b60ff167f010000000000000000000000000000000000000000000000000000000000000002815260010187600160a060020a0316600160a060020a03166c0100000000000000000000000002815260140186815260200185815260200184815260200183815260200182600160a060020a0316600160a060020a03166c010000000000000000000000000281526014019a5050505050505050505050604051908190039020600081815260066020526040902054909250600160a060020a0316156116e457600080fd5b600160a060020a038a16156117455789600160a060020a0316634e71e0c86040518163ffffffff1660e060020a028152600401600060405180830381600087803b151561173057600080fd5b6102c65a03f1151561174157600080fd5b5050505b6101606040519081016040528033600160a060020a031681526020018b600160a060020a031681526020018a815260200189600281111561178257fe5b8152600160a060020a03808a1660208084019190915260408084018b9052426060850152608084018a905260a0840189905291871660c0840152600060e090930183905285835260069052902081518154600160a060020a031916600160a060020a03919091161781556020820151600182018054600160a060020a031916600160a060020a039290921691909117905560408201518160020190805161182d929160200190611a78565b50606082015160038201805460ff1916600183600281111561184b57fe5b021790555060808201518160030160016101000a815481600160a060020a030219169083600160a060020a0316021790555060a0820151816004015560c0820151816005015560e082015181600601556101008201518160070155610120820151600882018054600160a060020a031916600160a060020a03929092169190911790556101408201516008909101805491151560a060020a0274ff0000000000000000000000000000000000000000199092169190911790555060078054600181016119178382611af6565b5060009182526020909120018290557f213dee258e93b11ddd6d7915583a9c3801ad6f8528a74c10cd6c53549acf264d82338c8c8c8c8c428d8d8d6040518b8152600160a060020a03808c1660208301528a166040820152606081016080820189600281111561198357fe5b60ff16815260200188600160a060020a0316600160a060020a0316815260200187815260200186815260200185815260200184815260200183600160a060020a0316600160a060020a0316815260200182810382528a818151815260200191508051906020019080838360005b83811015611a085780820151838201526020016119f0565b50505050905090810190601f168015611a355780820380516001836020036101000a031916815260200191505b509c5050505050505050505050505060405180910390a15098975050505050505050565b6007805482908110611a6757fe5b600091825260209091200154905081565b828054600181600116156101000203166002900490600052602060002090601f016020900481019282601f10611ab957805160ff1916838001178555611ae6565b82800160010185558215611ae6579182015b82811115611ae6578251825591602001919060010190611acb565b50611af2929150611b1f565b5090565b815481835581811511611b1a57600083815260209020611b1a918101908301611b1f565b505050565b611b3991905b80821115611af25760008155600101611b25565b905600a165627a7a723058207bb85e989d3027a80a61c85e44252929714f1b0744404bb340bf984258c4d2270029",
  "source": "/*\n\n  << Project Wyvern Exchange >>\n\n*/\n\npragma solidity ^0.4.18;\n\nimport \"./exchange/Exchange.sol\";\n\ncontract WyvernExchange is Exchange {\n\n    string public constant name = \"Project Wyvern Exchange\";\n\n    function WyvernExchange (ERC20 tokenAddress, uint listFee, uint bidFee, uint buyFee) public {\n        exchangeTokenAddress = tokenAddress;\n        feeList = listFee;\n        feeBid = bidFee;\n        feeBuy = buyFee;\n    }\n\n}\n",
  "sourcePath": "/home/cwgoes/working/crypto/wyvern/wyvern-ethereum/contracts/WyvernExchange.sol",
  "compiler": {
    "name": "solc",
    "version": "0.4.18+commit.9cf6e910.Emscripten.clang"
  },
  "schemaVersion": "1.0.1",
  "updatedAt": "2017-12-11T20:49:21.501Z"
}