{
  "contractName": "WyvernToken",
  "abi": [
    {
      "constant": true,
      "inputs": [],
      "name": "MULTIPLIER",
      "outputs": [
        {
          "name": "",
          "type": "uint256"
        }
      ],
      "payable": false,
      "stateMutability": "view",
      "type": "function"
    },
    {
      "constant": true,
      "inputs": [
        {
          "name": "txid",
          "type": "bytes32"
        },
        {
          "name": "originalAddress",
          "type": "bytes20"
        },
        {
          "name": "outputIndex",
          "type": "uint8"
        },
        {
          "name": "satoshis",
          "type": "uint256"
        },
        {
          "name": "proof",
          "type": "bytes"
        }
      ],
      "name": "canRedeemUTXO",
      "outputs": [
        {
          "name": "",
          "type": "bool"
        }
      ],
      "payable": false,
      "stateMutability": "view",
      "type": "function"
    },
    {
      "constant": true,
      "inputs": [],
      "name": "name",
      "outputs": [
        {
          "name": "",
          "type": "string"
        }
      ],
      "payable": false,
      "stateMutability": "view",
      "type": "function"
    },
    {
      "constant": true,
      "inputs": [],
      "name": "maximumRedeemable",
      "outputs": [
        {
          "name": "",
          "type": "uint256"
        }
      ],
      "payable": false,
      "stateMutability": "view",
      "type": "function"
    },
    {
      "constant": false,
      "inputs": [
        {
          "name": "_spender",
          "type": "address"
        },
        {
          "name": "_value",
          "type": "uint256"
        }
      ],
      "name": "approve",
      "outputs": [
        {
          "name": "",
          "type": "bool"
        }
      ],
      "payable": false,
      "stateMutability": "nonpayable",
      "type": "function"
    },
    {
      "constant": true,
      "inputs": [],
      "name": "totalSupply",
      "outputs": [
        {
          "name": "",
          "type": "uint256"
        }
      ],
      "payable": false,
      "stateMutability": "view",
      "type": "function"
    },
    {
      "constant": true,
      "inputs": [
        {
          "name": "proof",
          "type": "bytes"
        },
        {
          "name": "merkleLeafHash",
          "type": "bytes32"
        }
      ],
      "name": "verifyProof",
      "outputs": [
        {
          "name": "",
          "type": "bool"
        }
      ],
      "payable": false,
      "stateMutability": "view",
      "type": "function"
    },
    {
      "constant": true,
      "inputs": [],
      "name": "multiplier",
      "outputs": [
        {
          "name": "",
          "type": "uint256"
        }
      ],
      "payable": false,
      "stateMutability": "view",
      "type": "function"
    },
    {
      "constant": false,
      "inputs": [
        {
          "name": "_from",
          "type": "address"
        },
        {
          "name": "_to",
          "type": "address"
        },
        {
          "name": "_value",
          "type": "uint256"
        }
      ],
      "name": "transferFrom",
      "outputs": [
        {
          "name": "",
          "type": "bool"
        }
      ],
      "payable": false,
      "stateMutability": "nonpayable",
      "type": "function"
    },
    {
      "constant": true,
      "inputs": [],
      "name": "decimals",
      "outputs": [
        {
          "name": "",
          "type": "uint256"
        }
      ],
      "payable": false,
      "stateMutability": "view",
      "type": "function"
    },
    {
      "constant": false,
      "inputs": [
        {
          "name": "_value",
          "type": "uint256"
        }
      ],
      "name": "burn",
      "outputs": [],
      "payable": false,
      "stateMutability": "nonpayable",
      "type": "function"
    },
    {
      "constant": true,
      "inputs": [
        {
          "name": "pubKey",
          "type": "bytes"
        }
      ],
      "name": "pubKeyToEthereumAddress",
      "outputs": [
        {
          "name": "",
          "type": "address"
        }
      ],
      "payable": false,
      "stateMutability": "pure",
      "type": "function"
    },
    {
      "constant": true,
      "inputs": [],
      "name": "MINT_AMOUNT",
      "outputs": [
        {
          "name": "",
          "type": "uint256"
        }
      ],
      "payable": false,
      "stateMutability": "view",
      "type": "function"
    },
    {
      "constant": false,
      "inputs": [
        {
          "name": "_spender",
          "type": "address"
        },
        {
          "name": "_subtractedValue",
          "type": "uint256"
        }
      ],
      "name": "decreaseApproval",
      "outputs": [
        {
          "name": "",
          "type": "bool"
        }
      ],
      "payable": false,
      "stateMutability": "nonpayable",
      "type": "function"
    },
    {
      "constant": true,
      "inputs": [
        {
          "name": "_owner",
          "type": "address"
        }
      ],
      "name": "balanceOf",
      "outputs": [
        {
          "name": "balance",
          "type": "uint256"
        }
      ],
      "payable": false,
      "stateMutability": "view",
      "type": "function"
    },
    {
      "constant": false,
      "inputs": [
        {
          "name": "destination",
          "type": "address"
        }
      ],
      "name": "releaseTokens",
      "outputs": [],
      "payable": false,
      "stateMutability": "nonpayable",
      "type": "function"
    },
    {
      "constant": true,
      "inputs": [],
      "name": "symbol",
      "outputs": [
        {
          "name": "",
          "type": "string"
        }
      ],
      "payable": false,
      "stateMutability": "view",
      "type": "function"
    },
    {
      "constant": true,
      "inputs": [
        {
          "name": "merkleLeafHash",
          "type": "bytes32"
        },
        {
          "name": "proof",
          "type": "bytes"
        }
      ],
      "name": "canRedeemUTXOHash",
      "outputs": [
        {
          "name": "",
          "type": "bool"
        }
      ],
      "payable": false,
      "stateMutability": "view",
      "type": "function"
    },
    {
      "constant": false,
      "inputs": [
        {
          "name": "_to",
          "type": "address"
        },
        {
          "name": "_value",
          "type": "uint256"
        }
      ],
      "name": "transfer",
      "outputs": [
        {
          "name": "",
          "type": "bool"
        }
      ],
      "payable": false,
      "stateMutability": "nonpayable",
      "type": "function"
    },
    {
      "constant": true,
      "inputs": [
        {
          "name": "hash",
          "type": "bytes32"
        },
        {
          "name": "v",
          "type": "uint8"
        },
        {
          "name": "r",
          "type": "bytes32"
        },
        {
          "name": "s",
          "type": "bytes32"
        },
        {
          "name": "expected",
          "type": "address"
        }
      ],
      "name": "validateSignature",
      "outputs": [
        {
          "name": "",
          "type": "bool"
        }
      ],
      "payable": false,
      "stateMutability": "pure",
      "type": "function"
    },
    {
      "constant": false,
      "inputs": [
        {
          "name": "txid",
          "type": "bytes32"
        },
        {
          "name": "outputIndex",
          "type": "uint8"
        },
        {
          "name": "satoshis",
          "type": "uint256"
        },
        {
          "name": "proof",
          "type": "bytes"
        },
        {
          "name": "pubKey",
          "type": "bytes"
        },
        {
          "name": "isCompressed",
          "type": "bool"
        },
        {
          "name": "v",
          "type": "uint8"
        },
        {
          "name": "r",
          "type": "bytes32"
        },
        {
          "name": "s",
          "type": "bytes32"
        }
      ],
      "name": "redeemUTXO",
      "outputs": [
        {
          "name": "tokensRedeemed",
          "type": "uint256"
        }
      ],
      "payable": false,
      "stateMutability": "nonpayable",
      "type": "function"
    },
    {
      "constant": true,
      "inputs": [
        {
          "name": "addr",
          "type": "address"
        },
        {
          "name": "pubKey",
          "type": "bytes"
        },
        {
          "name": "v",
          "type": "uint8"
        },
        {
          "name": "r",
          "type": "bytes32"
        },
        {
          "name": "s",
          "type": "bytes32"
        }
      ],
      "name": "ecdsaVerify",
      "outputs": [
        {
          "name": "",
          "type": "bool"
        }
      ],
      "payable": false,
      "stateMutability": "pure",
      "type": "function"
    },
    {
      "constant": false,
      "inputs": [
        {
          "name": "_spender",
          "type": "address"
        },
        {
          "name": "_addedValue",
          "type": "uint256"
        }
      ],
      "name": "increaseApproval",
      "outputs": [
        {
          "name": "",
          "type": "bool"
        }
      ],
      "payable": false,
      "stateMutability": "nonpayable",
      "type": "function"
    },
    {
      "constant": true,
      "inputs": [
        {
          "name": "_owner",
          "type": "address"
        },
        {
          "name": "_spender",
          "type": "address"
        }
      ],
      "name": "allowance",
      "outputs": [
        {
          "name": "",
          "type": "uint256"
        }
      ],
      "payable": false,
      "stateMutability": "view",
      "type": "function"
    },
    {
      "constant": true,
      "inputs": [
        {
          "name": "pubKey",
          "type": "bytes"
        },
        {
          "name": "isCompressed",
          "type": "bool"
        }
      ],
      "name": "pubKeyToBitcoinAddress",
      "outputs": [
        {
          "name": "",
          "type": "bytes20"
        }
      ],
      "payable": false,
      "stateMutability": "pure",
      "type": "function"
    },
    {
      "constant": true,
      "inputs": [],
      "name": "rootUTXOMerkleTreeHash",
      "outputs": [
        {
          "name": "",
          "type": "bytes32"
        }
      ],
      "payable": false,
      "stateMutability": "view",
      "type": "function"
    },
    {
      "constant": true,
      "inputs": [],
      "name": "totalRedeemed",
      "outputs": [
        {
          "name": "",
          "type": "uint256"
        }
      ],
      "payable": false,
      "stateMutability": "view",
      "type": "function"
    },
    {
      "constant": true,
      "inputs": [],
      "name": "SATS_TO_TOKENS",
      "outputs": [
        {
          "name": "",
          "type": "uint256"
        }
      ],
      "payable": false,
      "stateMutability": "view",
      "type": "function"
    },
    {
      "inputs": [
        {
          "name": "merkleRoot",
          "type": "bytes32"
        },
        {
          "name": "totalUtxoAmount",
          "type": "uint256"
        }
      ],
      "payable": false,
      "stateMutability": "nonpayable",
      "type": "constructor"
    },
    {
      "anonymous": false,
      "inputs": [
        {
          "indexed": true,
          "name": "burner",
          "type": "address"
        },
        {
          "indexed": false,
          "name": "value",
          "type": "uint256"
        }
      ],
      "name": "Burn",
      "type": "event"
    },
    {
      "anonymous": false,
      "inputs": [
        {
          "indexed": false,
          "name": "txid",
          "type": "bytes32"
        },
        {
          "indexed": false,
          "name": "outputIndex",
          "type": "uint8"
        },
        {
          "indexed": false,
          "name": "satoshis",
          "type": "uint256"
        },
        {
          "indexed": false,
          "name": "proof",
          "type": "bytes"
        },
        {
          "indexed": false,
          "name": "pubKey",
          "type": "bytes"
        },
        {
          "indexed": false,
          "name": "v",
          "type": "uint8"
        },
        {
          "indexed": false,
          "name": "r",
          "type": "bytes32"
        },
        {
          "indexed": false,
          "name": "s",
          "type": "bytes32"
        },
        {
          "indexed": true,
          "name": "redeemer",
          "type": "address"
        },
        {
          "indexed": false,
          "name": "numberOfTokens",
          "type": "uint256"
        }
      ],
      "name": "UTXORedeemed",
      "type": "event"
    },
    {
      "anonymous": false,
      "inputs": [
        {
          "indexed": false,
          "name": "destination",
          "type": "address"
        },
        {
          "indexed": false,
          "name": "numberOfTokens",
          "type": "uint256"
        }
      ],
      "name": "TokensReleased",
      "type": "event"
    },
    {
      "anonymous": false,
      "inputs": [
        {
          "indexed": true,
          "name": "owner",
          "type": "address"
        },
        {
          "indexed": true,
          "name": "spender",
          "type": "address"
        },
        {
          "indexed": false,
          "name": "value",
          "type": "uint256"
        }
      ],
      "name": "Approval",
      "type": "event"
    },
    {
      "anonymous": false,
      "inputs": [
        {
          "indexed": true,
          "name": "from",
          "type": "address"
        },
        {
          "indexed": true,
          "name": "to",
          "type": "address"
        },
        {
          "indexed": false,
          "name": "value",
          "type": "uint256"
        }
      ],
      "name": "Transfer",
      "type": "event"
    }
  ],
  "bytecode": "0x60606040526003805460a060020a60ff02191690556000600855341561002457600080fd5b6040516040806116d9833981016040528080519190602001805160038054600160a060020a03191633600160a060020a03161790556402540be4009081026a01a784379d99db420000008181036004556005959095556000948555600955600755506116429182915061009790396000f3006060604052600436106101695763ffffffff7c0100000000000000000000000000000000000000000000000000000000600035041663059f8b16811461016e57806306f847011461019357806306fdde031461021d57806308b4312b146102a7578063095ea7b3146102ba57806318160ddd146102dc5780631858cb5b146102ef5780631b3ed7221461034257806323b872dd14610355578063313ce5671461037d57806342966c68146103905780635418796c146103a85780635427789c14610415578063661884631461042857806370a082311461044a57806387b0be481461046957806395d89b4114610488578063a2d0f9421461049b578063a9059cbb146104f1578063af1d06e814610513578063cce2771e14610541578063ce267b55146105fb578063d73dd6231461066a578063dd62ed3e1461068c578063e073ef69146106b1578063e6997f6d14610728578063f35dad401461073b578063fa2dedec1461074e575b600080fd5b341561017957600080fd5b610181610761565b60405190815260200160405180910390f35b341561019e57600080fd5b6102096004803590602480356bffffffffffffffffffffffff19169160443560ff1691606435919060a49060843590810190830135806020601f8201819004810201604051908101604052818152929190602084018383808284375094965061076695505050505050565b604051901515815260200160405180910390f35b341561022857600080fd5b6102306107bf565b60405160208082528190810183818151815260200191508051906020019080838360005b8381101561026c578082015183820152602001610254565b50505050905090810190601f1680156102995780820380516001836020036101000a031916815260200191505b509250505060405180910390f35b34156102b257600080fd5b6101816107f6565b34156102c557600080fd5b610209600160a060020a03600435166024356107fc565b34156102e757600080fd5b610181610868565b34156102fa57600080fd5b61020960046024813581810190830135806020601f82018190048102016040519081016040528181529291906020840183838082843750949650509335935061086e92505050565b341561034d57600080fd5b61018161097c565b341561036057600080fd5b610209600160a060020a0360043581169060243516604435610982565b341561038857600080fd5b610181610af2565b341561039b57600080fd5b6103a6600435610af7565b005b34156103b357600080fd5b6103f960046024813581810190830135806020601f82018190048102016040519081016040528181529291906020840183838082843750949650610bc095505050505050565b604051600160a060020a03909116815260200160405180910390f35b341561042057600080fd5b610181610c2e565b341561043357600080fd5b610209600160a060020a0360043516602435610c3d565b341561045557600080fd5b610181600160a060020a0360043516610d39565b341561047457600080fd5b6103a6600160a060020a0360043516610d54565b341561049357600080fd5b610230610e59565b34156104a657600080fd5b610209600480359060446024803590810190830135806020601f82018190048102016040519081016040528181529291906020840183838082843750949650610e9095505050505050565b34156104fc57600080fd5b610209600160a060020a0360043516602435610ebb565b341561051e57600080fd5b61020960043560ff60243516604435606435600160a060020a0360843516610fa4565b341561054c57600080fd5b61018160048035906024803560ff16916044359160849060643590810190830135806020601f8201819004810201604051908101604052818152929190602084018383808284378201915050505050509190803590602001908201803590602001908080601f016020809104026020016040519081016040528181529291906020840183838082843750949650505050823515159260ff60208201351692506040810135915060600135611032565b341561060657600080fd5b61020960048035600160a060020a03169060446024803590810190830135806020601f820181900481020160405190810160405281815292919060208401838380828437509496505060ff85351694602081013594506040013592506112bc915050565b341561067557600080fd5b610209600160a060020a0360043516602435611331565b341561069757600080fd5b610181600160a060020a03600435811690602435166113d5565b34156106bc57600080fd5b61070660046024813581810190830135806020601f820181900481020160405190810160405281815292919060208401838380828437509496505050509135151591506114009050565b6040516bffffffffffffffffffffffff19909116815260200160405180910390f35b341561073357600080fd5b61018161152f565b341561074657600080fd5b610181611535565b341561075957600080fd5b61018161153b565b600181565b600080868686866040519384526bffffffffffffffffffffffff1992909216602084015260ff1660f860020a0260348301526035820152605501604051809103902090506107b48184610e90565b979650505050505050565b60408051908101604052601481527f50726f6a6563742057797665726e20546f6b656e000000000000000000000000602082015281565b60095481565b600160a060020a03338116600081815260026020908152604080832094871680845294909152808220859055909291907f8c5be1e5ebec7d5bd14f71427d1e84f3dd0314c0f7b2291e5b200ac8c7c3b9259085905190815260200160405180910390a350600192915050565b60005481565b600073__MerkleProof___________________________63101f13e284600554856000604051602001526040517c010000000000000000000000000000000000000000000000000000000063ffffffff8616028152602481018390526044810182905260606004820190815290819060640185818151815260200191508051906020019080838360005b838110156109105780820151838201526020016108f8565b50505050905090810190601f16801561093d5780820380516001836020036101000a031916815260200191505b5094505050505060206040518083038186803b151561095b57600080fd5b6102c65a03f4151561096c57600080fd5b5050506040518051949350505050565b60075481565b6000600160a060020a038316151561099957600080fd5b600160a060020a0384166000908152600160205260409020548211156109be57600080fd5b600160a060020a03808516600090815260026020908152604080832033909416835292905220548211156109f157600080fd5b600160a060020a038416600090815260016020526040902054610a1a908363ffffffff61154416565b600160a060020a038086166000908152600160205260408082209390935590851681522054610a4f908363ffffffff61155616565b600160a060020a03808516600090815260016020908152604080832094909455878316825260028152838220339093168252919091522054610a97908363ffffffff61154416565b600160a060020a03808616600081815260026020908152604080832033861684529091529081902093909355908516916000805160206115f78339815191529085905190815260200160405180910390a35060019392505050565b601281565b6000808211610b0557600080fd5b600160a060020a033316600090815260016020526040902054821115610b2a57600080fd5b5033600160a060020a038116600090815260016020526040902054610b4f9083611544565b600160a060020a03821660009081526001602052604081209190915554610b7c908363ffffffff61154416565b600055600160a060020a0381167fcc16f5dbb4873280815c1ee09dbd06736cffcc184412cf7a71a0fdb75d397ca58360405190815260200160405180910390a25050565b6000816040518082805190602001908083835b60208310610bf25780518252601f199092019160209182019101610bd3565b6001836020036101000a0380198251168184511617909252505050919091019250604091505051908190039020600160a060020a031692915050565b6a01a784379d99db4200000081565b600160a060020a03338116600090815260026020908152604080832093861683529290529081205480831115610c9a57600160a060020a033381166000908152600260209081526040808320938816835292905290812055610cd1565b610caa818463ffffffff61154416565b600160a060020a033381166000908152600260209081526040808320938916835292905220555b600160a060020a0333811660008181526002602090815260408083209489168084529490915290819020547f8c5be1e5ebec7d5bd14f71427d1e84f3dd0314c0f7b2291e5b200ac8c7c3b925915190815260200160405180910390a3600191505b5092915050565b600160a060020a031660009081526001602052604090205490565b60035433600160a060020a039081169116148015610d8d575060035474010000000000000000000000000000000000000000900460ff16155b1515610d9857600080fd5b6003805474ff0000000000000000000000000000000000000000191674010000000000000000000000000000000000000000179055600454600160a060020a038216600081815260016020526040808220849055919290916000805160206115f783398151915291905190815260200160405180910390a37fc7798891864187665ac6dd119286e44ec13f014527aeeb2b8eb3fd413df9317981600454604051600160a060020a03909216825260208201526040908101905180910390a150565b60408051908101604052600381527f5759560000000000000000000000000000000000000000000000000000000000602082015281565b60008281526006602052604081205460ff16158015610eb45750610eb4828461086e565b9392505050565b6000600160a060020a0383161515610ed257600080fd5b600160a060020a033316600090815260016020526040902054821115610ef757600080fd5b600160a060020a033316600090815260016020526040902054610f20908363ffffffff61154416565b600160a060020a033381166000908152600160205260408082209390935590851681522054610f55908363ffffffff61155616565b600160a060020a0380851660008181526001602052604090819020939093559133909116906000805160206115f78339815191529085905190815260200160405180910390a350600192915050565b600081600160a060020a03166001878787876040516000815260200160405260006040516020015260405193845260ff90921660208085019190915260408085019290925260608401929092526080909201915160208103908084039060008661646e5a03f1151561101557600080fd5b505060206040510351600160a060020a0316149695505050505050565b60008060006110418888611400565b91508b828c8c6040519384526bffffffffffffffffffffffff1992909216602084015260ff1660f860020a02603483015260358201526055016040518091039020905061108e818a610e90565b151561109957600080fd5b6110a633898888886112bc565b15156110b157600080fd5b6000818152600660205260409020805460ff191660011790556007546110d8908b90611565565b92506110e660085484611556565b60088190556009549011156110fa57600080fd5b600160a060020a03331660009081526001602052604090205461111d9084611556565b600160a060020a0333166000818152600160205260408082209390935590916000805160206115f78339815191529086905190815260200160405180910390a333600160a060020a03167f2475a9b35191bf17196c6ddaa1be205f8dccc85ac213ff80131ca6906c34423b8d8d8d8d8d8c8c8c8c60405189815260ff808a16602083015260408201899052851660a082015260c0810184905260e08101839052610100810182905261012060608201818152906080830190830189818151815260200191508051906020019080838360005b838110156112075780820151838201526020016111ef565b50505050905090810190601f1680156112345780820380516001836020036101000a031916815260200191505b50838103825288818151815260200191508051906020019080838360005b8381101561126a578082015183820152602001611252565b50505050905090810190601f1680156112975780820380516001836020036101000a031916815260200191505b509b50505050505050505050505060405180910390a250509998505050505050505050565b6000611327600287600060405160200152604051600160a060020a03919091166c0100000000000000000000000002815260140160206040518083038160008661646e5a03f1151561130d57600080fd5b5050604051805190508585856113228a610bc0565b610fa4565b9695505050505050565b600160a060020a033381166000908152600260209081526040808320938616835292905290812054611369908363ffffffff61155616565b600160a060020a0333811660008181526002602090815260408083209489168084529490915290819020849055919290917f8c5be1e5ebec7d5bd14f71427d1e84f3dd0314c0f7b2291e5b200ac8c7c3b92591905190815260200160405180910390a350600192915050565b600160a060020a03918216600090815260026020908152604080832093909416825291909152205490565b600080600080611411866000611590565b925061141e866020611590565b915084156114d5576002820615611436576003611439565b60025b905060036002828560006040516020015260405160ff9290921660f860020a028252600182015260210160206040518083038160008661646e5a03f1151561148057600080fd5b5050604051805190506000604051602001526040519081526020908101906040518083038160008661646e5a03f115156114b957600080fd5b5050604051516c01000000000000000000000000029350611526565b5060046003600282858560006040516020015260405160ff9390931660f860020a0283526001830191909152602182015260410160206040518083038160008661646e5a03f1151561148057600080fd5b50505092915050565b60055481565b60085481565b6402540be40081565b60008282111561155057fe5b50900390565b600082820183811015610eb457fe5b6000808315156115785760009150610d32565b5082820282848281151561158857fe5b0414610eb457fe5b6000805b6020811015610d32578060080284848301815181106115af57fe5b016020015160029190910a60f860020a918290049091027fff00000000000000000000000000000000000000000000000000000000000000160491909118906001016115945600ddf252ad1be2c89b69c2b068fc378daa952ba7f163c4a11628f55a4df523b3efa165627a7a72305820ad5233dcca7015f5051e33c9453284448f7441ca10b22a30d2ed2f2d95b916af0029",
  "source": "/*\n\n  << Project Wyvern Token (WYV) >>\n\n*/\n\npragma solidity 0.4.19;\n\nimport \"zeppelin-solidity/contracts/token/BurnableToken.sol\";\n\nimport \"./token/UTXORedeemableToken.sol\";\nimport \"./token/DelayedReleaseToken.sol\";\n\n/**\n  * @title WyvernToken\n  * @author Project Wyvern Developers\n  */\ncontract WyvernToken is DelayedReleaseToken, UTXORedeemableToken, BurnableToken {\n\n    uint constant public decimals     = 18;\n    string constant public name       = \"Project Wyvern Token\";\n    string constant public symbol     = \"WYV\";\n\n    /* Amount of tokens per Wyvern. */\n    uint constant public MULTIPLIER       = 1;\n\n    /* Constant for conversion from satoshis to tokens. */\n    uint constant public SATS_TO_TOKENS   = MULTIPLIER * (10 ** decimals) / (10 ** 8);\n\n    /* Total mint amount, in tokens (will be reached when all UTXOs are redeemed). */\n    uint constant public MINT_AMOUNT      = 2000000 * MULTIPLIER * (10 ** decimals);\n\n    /**\n      * @dev Initialize the Wyvern token\n      * @param merkleRoot Merkle tree root of the UTXO set\n      * @param totalUtxoAmount Total satoshis of the UTXO set\n      */\n    function WyvernToken (bytes32 merkleRoot, uint totalUtxoAmount) public {\n        /* Total number of tokens that can be redeemed from UTXOs. */\n        uint utxoTokens = SATS_TO_TOKENS * totalUtxoAmount;\n\n        /* Configure DelayedReleaseToken. */\n        temporaryAdmin = msg.sender;\n        numberOfDelayedTokens = MINT_AMOUNT - utxoTokens;\n\n        /* Configure UTXORedeemableToken. */\n        rootUTXOMerkleTreeHash = merkleRoot;\n        totalSupply = MINT_AMOUNT;\n        maximumRedeemable = utxoTokens;\n        multiplier = SATS_TO_TOKENS;\n    }\n\n}\n",
  "sourcePath": "/home/cwgoes/working/crypto/wyvern/wyvern-ethereum/contracts/WyvernToken.sol",
  "compiler": {
    "name": "solc",
    "version": "0.4.19+commit.c4cbbb05.Emscripten.clang"
  },
  "schemaVersion": "2.0.0",
  "updatedAt": "2018-04-01T13:28:49.058Z"
}