{
  "contractName": "WyvernLazyBank",
  "abi": [
    {
      "constant": false,
      "inputs": [
        {
          "name": "user",
          "type": "address"
        },
        {
          "name": "token",
          "type": "address"
        },
        {
          "name": "amount",
          "type": "uint256"
        }
      ],
      "name": "_credit",
      "outputs": [],
      "payable": false,
      "stateMutability": "nonpayable",
      "type": "function"
    },
    {
      "constant": true,
      "inputs": [],
      "name": "name",
      "outputs": [
        {
          "name": "",
          "type": "string"
        }
      ],
      "payable": false,
      "stateMutability": "view",
      "type": "function"
    },
    {
      "constant": false,
      "inputs": [
        {
          "name": "token",
          "type": "address"
        },
        {
          "name": "amount",
          "type": "uint256"
        }
      ],
      "name": "deposit",
      "outputs": [],
      "payable": false,
      "stateMutability": "nonpayable",
      "type": "function"
    },
    {
      "constant": true,
      "inputs": [
        {
          "name": "user",
          "type": "address"
        },
        {
          "name": "token",
          "type": "address"
        }
      ],
      "name": "lockedFor",
      "outputs": [
        {
          "name": "",
          "type": "uint256"
        }
      ],
      "payable": false,
      "stateMutability": "view",
      "type": "function"
    },
    {
      "constant": false,
      "inputs": [
        {
          "name": "user",
          "type": "address"
        },
        {
          "name": "token",
          "type": "address"
        },
        {
          "name": "amount",
          "type": "uint256"
        }
      ],
      "name": "_lazyLock",
      "outputs": [],
      "payable": false,
      "stateMutability": "nonpayable",
      "type": "function"
    },
    {
      "constant": false,
      "inputs": [
        {
          "name": "token",
          "type": "address"
        },
        {
          "name": "amount",
          "type": "uint256"
        },
        {
          "name": "dest",
          "type": "address"
        }
      ],
      "name": "withdraw",
      "outputs": [],
      "payable": false,
      "stateMutability": "nonpayable",
      "type": "function"
    },
    {
      "constant": true,
      "inputs": [],
      "name": "registry",
      "outputs": [
        {
          "name": "",
          "type": "address"
        }
      ],
      "payable": false,
      "stateMutability": "view",
      "type": "function"
    },
    {
      "constant": false,
      "inputs": [
        {
          "name": "user",
          "type": "address"
        },
        {
          "name": "token",
          "type": "address"
        },
        {
          "name": "amount",
          "type": "uint256"
        }
      ],
      "name": "_unlock",
      "outputs": [],
      "payable": false,
      "stateMutability": "nonpayable",
      "type": "function"
    },
    {
      "constant": true,
      "inputs": [
        {
          "name": "",
          "type": "address"
        },
        {
          "name": "",
          "type": "address"
        }
      ],
      "name": "balances",
      "outputs": [
        {
          "name": "",
          "type": "uint256"
        }
      ],
      "payable": false,
      "stateMutability": "view",
      "type": "function"
    },
    {
      "constant": false,
      "inputs": [
        {
          "name": "user",
          "type": "address"
        },
        {
          "name": "token",
          "type": "address"
        },
        {
          "name": "amount",
          "type": "uint256"
        }
      ],
      "name": "_lazyDebit",
      "outputs": [],
      "payable": false,
      "stateMutability": "nonpayable",
      "type": "function"
    },
    {
      "constant": true,
      "inputs": [
        {
          "name": "",
          "type": "address"
        },
        {
          "name": "",
          "type": "address"
        }
      ],
      "name": "locked",
      "outputs": [
        {
          "name": "",
          "type": "uint256"
        }
      ],
      "payable": false,
      "stateMutability": "view",
      "type": "function"
    },
    {
      "constant": true,
      "inputs": [
        {
          "name": "user",
          "type": "address"
        },
        {
          "name": "token",
          "type": "address"
        }
      ],
      "name": "availableFor",
      "outputs": [
        {
          "name": "",
          "type": "uint256"
        }
      ],
      "payable": false,
      "stateMutability": "view",
      "type": "function"
    },
    {
      "constant": false,
      "inputs": [
        {
          "name": "from",
          "type": "address"
        },
        {
          "name": "to",
          "type": "address"
        },
        {
          "name": "token",
          "type": "address"
        },
        {
          "name": "amount",
          "type": "uint256"
        }
      ],
      "name": "_transferTo",
      "outputs": [],
      "payable": false,
      "stateMutability": "nonpayable",
      "type": "function"
    },
    {
      "constant": true,
      "inputs": [
        {
          "name": "user",
          "type": "address"
        },
        {
          "name": "token",
          "type": "address"
        }
      ],
      "name": "balanceFor",
      "outputs": [
        {
          "name": "",
          "type": "uint256"
        }
      ],
      "payable": false,
      "stateMutability": "view",
      "type": "function"
    },
    {
      "inputs": [
        {
          "name": "addrRegistry",
          "type": "address"
        }
      ],
      "payable": false,
      "stateMutability": "nonpayable",
      "type": "constructor"
    },
    {
      "anonymous": false,
      "inputs": [
        {
          "indexed": true,
          "name": "user",
          "type": "address"
        },
        {
          "indexed": true,
          "name": "token",
          "type": "address"
        },
        {
          "indexed": false,
          "name": "amount",
          "type": "uint256"
        }
      ],
      "name": "Credited",
      "type": "event"
    },
    {
      "anonymous": false,
      "inputs": [
        {
          "indexed": true,
          "name": "user",
          "type": "address"
        },
        {
          "indexed": true,
          "name": "token",
          "type": "address"
        },
        {
          "indexed": false,
          "name": "amount",
          "type": "uint256"
        }
      ],
      "name": "Debited",
      "type": "event"
    },
    {
      "anonymous": false,
      "inputs": [
        {
          "indexed": true,
          "name": "user",
          "type": "address"
        },
        {
          "indexed": true,
          "name": "token",
          "type": "address"
        },
        {
          "indexed": false,
          "name": "amount",
          "type": "uint256"
        }
      ],
      "name": "Locked",
      "type": "event"
    },
    {
      "anonymous": false,
      "inputs": [
        {
          "indexed": true,
          "name": "user",
          "type": "address"
        },
        {
          "indexed": true,
          "name": "token",
          "type": "address"
        },
        {
          "indexed": false,
          "name": "amount",
          "type": "uint256"
        }
      ],
      "name": "Unlocked",
      "type": "event"
    }
  ],
  "bytecode": "0x6060604052341561000f57600080fd5b604051602080610e538339810160405280805160028054600160a060020a03909216600160a060020a03199092169190911790555050610dff806100546000396000f3006060604052600436106100b65763ffffffff60e060020a600035041663034422ef81146100bb57806306fdde03146100e557806347e7ef241461016f5780634e10c95d146101915780635a8158e2146101c857806369328dec146101f05780637b103999146102195780639577bffa14610248578063c23f001f14610270578063cb5f264314610295578063db20266f146102bd578063db2ec6bd146102e2578063f49ec96114610307578063f771e78b14610335575b600080fd5b34156100c657600080fd5b6100e3600160a060020a036004358116906024351660443561035a565b005b34156100f057600080fd5b6100f86103e9565b60405160208082528190810183818151815260200191508051906020019080838360005b8381101561013457808201518382015260200161011c565b50505050905090810190601f1680156101615780820380516001836020036101000a031916815260200191505b509250505060405180910390f35b341561017a57600080fd5b6100e3600160a060020a0360043516602435610420565b341561019c57600080fd5b6101b6600160a060020a03600435811690602435166104bf565b60405190815260200160405180910390f35b34156101d357600080fd5b6100e3600160a060020a03600435811690602435166044356104ea565b34156101fb57600080fd5b6100e3600160a060020a036004358116906024359060443516610574565b341561022457600080fd5b61022c610651565b604051600160a060020a03909116815260200160405180910390f35b341561025357600080fd5b6100e3600160a060020a0360043581169060243516604435610660565b341561027b57600080fd5b6101b6600160a060020a03600435811690602435166106ea565b34156102a057600080fd5b6100e3600160a060020a0360043581169060243516604435610704565b34156102c857600080fd5b6101b6600160a060020a036004358116906024351661078e565b34156102ed57600080fd5b6101b6600160a060020a03600435811690602435166107ab565b341561031257600080fd5b6100e3600160a060020a03600435811690602435811690604435166064356107f7565b341561034057600080fd5b6101b6600160a060020a0360043581169060243516610888565b600254600160a060020a03166369dc9ff33360006040516020015260405160e060020a63ffffffff8416028152600160a060020a039091166004820152602401602060405180830381600087803b15156103b357600080fd5b6102c65a03f115156103c457600080fd5b5050506040518051905015156103d957600080fd5b6103e48383836108b1565b505050565b60408051908101604052601881527f50726f6a6563742057797665726e204c617a792042616e6b0000000000000000602082015281565b61042b3383836108b1565b81600160a060020a03166323b872dd33308460006040516020015260405160e060020a63ffffffff8616028152600160a060020a0393841660048201529190921660248201526044810191909152606401602060405180830381600087803b151561049557600080fd5b6102c65a03f115156104a657600080fd5b5050506040518051905015156104bb57600080fd5b5050565b600160a060020a03918216600090815260016020908152604080832093909416825291909152205490565b600254600160a060020a03166369dc9ff33360006040516020015260405160e060020a63ffffffff8416028152600160a060020a039091166004820152602401602060405180830381600087803b151561054357600080fd5b6102c65a03f1151561055457600080fd5b50505060405180519050151561056957600080fd5b6103e4838383610945565b600160a060020a033381166000818152602081815260408083209488168084529482528083205493835260018252808320948352939052918220546105b99190610b37565b9050808311156105c857600080fd5b6105d3338585610b49565b83600160a060020a031663a9059cbb838560006040516020015260405160e060020a63ffffffff8516028152600160a060020a0390921660048301526024820152604401602060405180830381600087803b151561063057600080fd5b6102c65a03f1151561064157600080fd5b5050506040518051505050505050565b600254600160a060020a031681565b600254600160a060020a03166369dc9ff33360006040516020015260405160e060020a63ffffffff8416028152600160a060020a039091166004820152602401602060405180830381600087803b15156106b957600080fd5b6102c65a03f115156106ca57600080fd5b5050506040518051905015156106df57600080fd5b6103e4838383610cfc565b600060208181529281526040808220909352908152205481565b600254600160a060020a03166369dc9ff33360006040516020015260405160e060020a63ffffffff8416028152600160a060020a039091166004820152602401602060405180830381600087803b151561075d57600080fd5b6102c65a03f1151561076e57600080fd5b50505060405180519050151561078357600080fd5b6103e4838383610b49565b600160209081526000928352604080842090915290825290205481565b600160a060020a038083166000818152602081815260408083209486168084529482528083205493835260018252808320948352939052918220546107f09190610b37565b9392505050565b600254600160a060020a03166369dc9ff33360006040516020015260405160e060020a63ffffffff8416028152600160a060020a039091166004820152602401602060405180830381600087803b151561085057600080fd5b6102c65a03f1151561086157600080fd5b50505060405180519050151561087657600080fd5b61088284848484610dae565b50505050565b600160a060020a0391821660009081526020818152604080832093909416825291909152205490565b600160a060020a03808416600090815260208181526040808320938616835292905220546108df9082610dc4565b600160a060020a0380851660008181526020818152604080832094881680845294909152908190209390935590917f4e45da441832cf53bdaa69235704fc0575e68210f459ee1562911024b12967d59084905190815260200160405180910390a3505050565b600160a060020a0380841660009081526001602090815260408083209386168352929052908120546109779083610dc4565b600160a060020a03858116600081815260016020908152604080832094891680845285835281842087905593835282825280832093835292815291902054919052901115610aea57600160a060020a038085166000818152600160209081526040808320948816808452948252808320549383528282528083209483529390529190912054610a069190610b37565b600160a060020a0380861660009081526020818152604080832093881683529290522054909150610a379082610dc4565b600160a060020a03808616600090815260208181526040808320938816808452939091528082209390935590916323b872dd91879130918691516020015260405160e060020a63ffffffff8616028152600160a060020a0393841660048201529190921660248201526044810191909152606401602060405180830381600087803b1515610ac457600080fd5b6102c65a03f11515610ad557600080fd5b505050604051805190501515610aea57600080fd5b82600160a060020a031684600160a060020a03167f989eaa915cbb416ea3d6f9a63b1a3de51770c7674b11fe21ecdf76b4e1d139108460405190815260200160405180910390a350505050565b600082821115610b4357fe5b50900390565b600160a060020a038084166000818152602081815260408083209487168084529482528083205493835260018252808320948352939052918220548291610b8f91610b37565b915083600160a060020a031685600160a060020a03167f9407bd81f01ad8f5ae4a2487b63d3d1b1947257c2dcdda3ea183dc8e6965cc6e8560405190815260200160405180910390a3828210610c3657600160a060020a0380861660009081526020818152604080832093881683529290522054610c0d9084610b37565b600160a060020a0380871660009081526020818152604080832093891683529290522055610cf5565b610c408383610b37565b600160a060020a038087166000908152602081815260408083209389168084529390915280822082905592935090916323b872dd91889130918691516020015260405160e060020a63ffffffff8616028152600160a060020a0393841660048201529190921660248201526044810191909152606401602060405180830381600087803b1515610ccf57600080fd5b6102c65a03f11515610ce057600080fd5b505050604051805190501515610cf557600080fd5b5050505050565b600160a060020a03808416600090815260016020908152604080832093861683529290522054610d2c9082610b37565b600160a060020a0384811660009081526001602090815260408083209387168352929052908120829055901015610d6257600080fd5b81600160a060020a031683600160a060020a03167fe6e0ef9cd056ca98561ca60e347ada61e1ede2f1142a078951b7a52e1e508e608360405190815260200160405180910390a3505050565b610db98383836108b1565b610882848383610b49565b6000828201838110156107f057fe00a165627a7a72305820f46d6cb8798db5b5a869bb460a0b58a139079045c63a70e972b0209207b58db50029",
  "source": "/*\n\n  << Project Wyvern Lazy Bank >>\n\n*/\n\npragma solidity 0.4.18;\n\nimport \"./registry/AuthenticatedLazyBank.sol\";\nimport \"./registry/ProxyRegistry.sol\";\n\n/**\n * @title WyvernLazyBank\n * @author Project Wyvern Developers\n */\ncontract WyvernLazyBank is AuthenticatedLazyBank {\n\n    string public constant name = \"Project Wyvern Lazy Bank\";\n\n    function WyvernLazyBank (ProxyRegistry addrRegistry)\n        public\n    {\n        registry = addrRegistry;\n    }\n\n}\n",
  "sourcePath": "/home/cwgoes/working/crypto/wyvern/wyvern-ethereum/contracts/WyvernLazyBank.sol",
  "compiler": {
    "name": "solc",
    "version": "0.4.18+commit.9cf6e910.Emscripten.clang"
  },
  "schemaVersion": "1.0.1",
  "updatedAt": "2018-01-30T22:19:08.011Z"
}