{
  "contractName": "WyvernProxyRegistry",
  "abi": [
    {
      "constant": true,
      "inputs": [],
      "name": "name",
      "outputs": [
        {
          "name": "",
          "type": "string"
        }
      ],
      "payable": false,
      "stateMutability": "view",
      "type": "function"
    },
    {
      "constant": true,
      "inputs": [],
      "name": "initialAddressSet",
      "outputs": [
        {
          "name": "",
          "type": "bool"
        }
      ],
      "payable": false,
      "stateMutability": "view",
      "type": "function"
    },
    {
      "constant": false,
      "inputs": [
        {
          "name": "addr",
          "type": "address"
        }
      ],
      "name": "endGrantAuthentication",
      "outputs": [],
      "payable": false,
      "stateMutability": "nonpayable",
      "type": "function"
    },
    {
      "constant": false,
      "inputs": [
        {
          "name": "addr",
          "type": "address"
        }
      ],
      "name": "revokeAuthentication",
      "outputs": [],
      "payable": false,
      "stateMutability": "nonpayable",
      "type": "function"
    },
    {
      "constant": true,
      "inputs": [
        {
          "name": "",
          "type": "address"
        }
      ],
      "name": "pending",
      "outputs": [
        {
          "name": "",
          "type": "uint256"
        }
      ],
      "payable": false,
      "stateMutability": "view",
      "type": "function"
    },
    {
      "constant": true,
      "inputs": [
        {
          "name": "",
          "type": "address"
        }
      ],
      "name": "contracts",
      "outputs": [
        {
          "name": "",
          "type": "bool"
        }
      ],
      "payable": false,
      "stateMutability": "view",
      "type": "function"
    },
    {
      "constant": true,
      "inputs": [],
      "name": "owner",
      "outputs": [
        {
          "name": "",
          "type": "address"
        }
      ],
      "payable": false,
      "stateMutability": "view",
      "type": "function"
    },
    {
      "constant": true,
      "inputs": [
        {
          "name": "",
          "type": "address"
        }
      ],
      "name": "proxies",
      "outputs": [
        {
          "name": "",
          "type": "address"
        }
      ],
      "payable": false,
      "stateMutability": "view",
      "type": "function"
    },
    {
      "constant": false,
      "inputs": [
        {
          "name": "addr",
          "type": "address"
        }
      ],
      "name": "startGrantAuthentication",
      "outputs": [],
      "payable": false,
      "stateMutability": "nonpayable",
      "type": "function"
    },
    {
      "constant": false,
      "inputs": [],
      "name": "registerProxy",
      "outputs": [
        {
          "name": "proxy",
          "type": "address"
        }
      ],
      "payable": false,
      "stateMutability": "nonpayable",
      "type": "function"
    },
    {
      "constant": true,
      "inputs": [],
      "name": "DELAY_PERIOD",
      "outputs": [
        {
          "name": "",
          "type": "uint256"
        }
      ],
      "payable": false,
      "stateMutability": "view",
      "type": "function"
    },
    {
      "constant": false,
      "inputs": [
        {
          "name": "newOwner",
          "type": "address"
        }
      ],
      "name": "transferOwnership",
      "outputs": [],
      "payable": false,
      "stateMutability": "nonpayable",
      "type": "function"
    },
    {
      "anonymous": false,
      "inputs": [
        {
          "indexed": true,
          "name": "previousOwner",
          "type": "address"
        },
        {
          "indexed": true,
          "name": "newOwner",
          "type": "address"
        }
      ],
      "name": "OwnershipTransferred",
      "type": "event"
    },
    {
      "constant": false,
      "inputs": [
        {
          "name": "authAddress",
          "type": "address"
        }
      ],
      "name": "grantInitialAuthentication",
      "outputs": [],
      "payable": false,
      "stateMutability": "nonpayable",
      "type": "function"
    }
  ],
  "bytecode": "0x6080604052621275006004556005805460ff1916905560008054600160a060020a033316600160a060020a0319909116179055610e5d806100416000396000f3006080604052600436106100c45763ffffffff7c010000000000000000000000000000000000000000000000000000000060003504166306fdde0381146100c95780631a86ac4f1461015357806338b6e4071461017c57806353376d1f1461019f5780635eebea20146101c057806369dc9ff3146101f35780638da5cb5b14610214578063c455279114610245578063d4e8e06314610266578063ddd81f8214610287578063e71a02e11461029c578063ef7f3834146102b1578063f2fde38b146102d2575b600080fd5b3480156100d557600080fd5b506100de6102f3565b6040805160208082528351818301528351919283929083019185019080838360005b83811015610118578181015183820152602001610100565b50505050905090810190601f1680156101455780820380516001836020036101000a031916815260200191505b509250505060405180910390f35b34801561015f57600080fd5b5061016861032a565b604080519115158252519081900360200190f35b34801561018857600080fd5b5061019d600160a060020a0360043516610333565b005b3480156101ab57600080fd5b5061019d600160a060020a03600435166103f2565b3480156101cc57600080fd5b506101e1600160a060020a036004351661042e565b60408051918252519081900360200190f35b3480156101ff57600080fd5b50610168600160a060020a0360043516610440565b34801561022057600080fd5b50610229610455565b60408051600160a060020a039092168252519081900360200190f35b34801561025157600080fd5b50610229600160a060020a0360043516610464565b34801561027257600080fd5b5061019d600160a060020a036004351661047f565b34801561029357600080fd5b50610229610500565b3480156102a857600080fd5b506101e16105a6565b3480156102bd57600080fd5b5061019d600160a060020a03600435166105ac565b3480156102de57600080fd5b5061019d600160a060020a036004351661060c565b60408051808201909152601d81527f50726f6a6563742057797665726e2050726f7879205265676973747279000000602082015281565b60055460ff1681565b60005433600160a060020a0390811691161461034e57600080fd5b600160a060020a03811660009081526003602052604090205460ff1615801561038e5750600160a060020a03811660009081526002602052604090205415155b80156103b65750600454600160a060020a038216600090815260026020526040902054429101105b15156103c157600080fd5b600160a060020a0316600090815260026020908152604080832083905560039091529020805460ff19166001179055565b60005433600160a060020a0390811691161461040d57600080fd5b600160a060020a03166000908152600360205260409020805460ff19169055565b60026020526000908152604090205481565b60036020526000908152604090205460ff1681565b600054600160a060020a031681565b600160205260009081526040902054600160a060020a031681565b60005433600160a060020a0390811691161461049a57600080fd5b600160a060020a03811660009081526003602052604090205460ff161580156104d95750600160a060020a038116600090815260026020526040902054155b15156104e457600080fd5b600160a060020a03166000908152600260205260409020429055565b600160a060020a033381166000908152600160205260408120549091161561052757600080fd5b33306105316106a4565b600160a060020a03928316815291166020820152604080519182900301906000f080158015610564573d6000803e3d6000fd5b5033600160a060020a039081166000908152600160205260409020805473ffffffffffffffffffffffffffffffffffffffff1916918316919091179055919050565b60045481565b60005433600160a060020a039081169116146105c757600080fd5b60055460ff16156105d757600080fd5b6005805460ff199081166001908117909255600160a060020a0390921660009081526003602052604090208054909216179055565b60005433600160a060020a0390811691161461062757600080fd5b600160a060020a038116151561063c57600080fd5b60008054604051600160a060020a03808516939216917f8be0079c531659141344cd1fd0a4f28419497f9722a3daafe3b4186f6b6457e091a36000805473ffffffffffffffffffffffffffffffffffffffff1916600160a060020a0392909216919091179055565b60405161077d806106b5833901905600608060405234801561001057600080fd5b5060405160408061077d83398101604052805160209091015160008054600160a060020a03938416600160a060020a03199182161790915560018054939092169216919091179055610716806100676000396000f3006080604052600436106100825763ffffffff7c01000000000000000000000000000000000000000000000000000000006000350416631b0f7ba981146100c35780633f801f91146101435780634c93505f146101b15780634f8632ba146101cb57806363d256ce146101fc5780637b103999146102115780638f4ffcb114610226575b604080513481529051600160a060020a033316917fa419615bc8fda4c87663805ee2a3597a6d71c1d476911d9892f340d965bc7bf1919081900360200190a2005b3480156100cf57600080fd5b50604080516020600460443581810135601f810184900484028501840190955284845261012f948235600160a060020a0316946024803560ff16953695946064949201919081908401838280828437509497506102969650505050505050565b604080519115158252519081900360200190f35b34801561014f57600080fd5b50604080516020600460443581810135601f81018490048402850184019095528484526101af948235600160a060020a0316946024803560ff16953695946064949201919081908401838280828437509497506104999650505050505050565b005b3480156101bd57600080fd5b506101af60043515156104b4565b3480156101d757600080fd5b506101e0610544565b60408051600160a060020a039092168252519081900360200190f35b34801561020857600080fd5b5061012f610553565b34801561021d57600080fd5b506101e0610574565b34801561023257600080fd5b50604080516020601f6064356004818101359283018490048402850184019095528184526101af94600160a060020a038135811695602480359660443590931695369560849492019181908401838280828437509497506105839650505050505050565b6000805433600160a060020a039081169116148061036a575060015474010000000000000000000000000000000000000000900460ff1615801561036a5750600154604080517f69dc9ff3000000000000000000000000000000000000000000000000000000008152600160a060020a033381166004830152915191909216916369dc9ff39160248083019260209291908290030181600087803b15801561033d57600080fd5b505af1158015610351573d6000803e3d6000fd5b505050506040513d602081101561036757600080fd5b50515b151561037557600080fd5b600083600181111561038357fe5b14156104075783600160a060020a03168260405180828051906020019080838360005b838110156103be5781810151838201526020016103a6565b50505050905090810190601f1680156103eb5780820380516001836020036101000a031916815260200191505b509150506000604051808303816000865af19150509050610492565b600183600181111561041557fe5b14156104925783600160a060020a03168260405180828051906020019080838360005b83811015610450578181015183820152602001610438565b50505050905090810190601f16801561047d5780820380516001836020036101000a031916815260200191505b50915050600060405180830381855af4925050505b9392505050565b6104a4838383610296565b15156104af57600080fd5b505050565b60005433600160a060020a039081169116146104cf57600080fd5b6001805482151574010000000000000000000000000000000000000000810274ff0000000000000000000000000000000000000000199092169190911790915560408051918252517f2165014523a6f4135deffed62d70149aad59b64de5aac51e3abbcbe2a83e2f7e9181900360200190a150565b600054600160a060020a031681565b60015474010000000000000000000000000000000000000000900460ff1681565b600154600160a060020a031681565b604080517f23b872dd000000000000000000000000000000000000000000000000000000008152600160a060020a038681166004830152308116602483015260448201869052915184928316916323b872dd9160648083019260209291908290030181600087803b1580156105f757600080fd5b505af115801561060b573d6000803e3d6000fd5b505050506040513d602081101561062157600080fd5b5051151561062e57600080fd5b82600160a060020a031685600160a060020a03167fd65b48fd35864b3528d38e44760be5553248f89bf3ff6b06cca57817cc2650bf86856040518083815260200180602001828103825283818151815260200191508051906020019080838360005b838110156106a8578181015183820152602001610690565b50505050905090810190601f1680156106d55780820380516001836020036101000a031916815260200191505b50935050505060405180910390a350505050505600a165627a7a723058202c9cf57468409a1da37ec73186f8d7043178222580bce4787cdc3168cbe719f80029a165627a7a72305820a2f4c29631d8fa439fb2db58561dcfb755dfd0812a302419afd2b9948bd4bccb0029",
  "source": "/*\n\n  << Project Wyvern Proxy Registry >>\n\n*/\n\npragma solidity 0.4.23;\n\nimport \"./registry/ProxyRegistry.sol\";\n\n/**\n * @title WyvernProxyRegistry\n * @author Project Wyvern Developers\n */\ncontract WyvernProxyRegistry is ProxyRegistry {\n\n    string public constant name = \"Project Wyvern Proxy Registry\";\n\n    /* Whether the initial auth address has been set. */\n    bool public initialAddressSet = false;\n\n    /** \n     * Grant authentication to the initial Exchange protocol contract\n     *\n     * @dev No delay, can only be called once - after that the standard registry process with a delay must be used\n     * @param authAddress Address of the contract to grant authentication\n     */\n    function grantInitialAuthentication (address authAddress)\n        onlyOwner\n        public\n    {\n        require(!initialAddressSet);\n        initialAddressSet = true;\n        contracts[authAddress] = true;\n    }\n\n}\n",
  "sourcePath": "/home/cwgoes/working/crypto/wyvern/wyvern-ethereum/contracts/WyvernProxyRegistry.sol",
  "compiler": {
    "name": "solc",
    "version": "0.4.23+commit.124ca40d.Emscripten.clang"
  },
  "schemaVersion": "2.0.0",
  "updatedAt": "2018-05-12T16:08:48.272Z"
}