{
  "contractName": "WyvernExchange",
  "abi": [
    {
      "constant": true,
      "inputs": [],
      "name": "name",
      "outputs": [
        {
          "name": "",
          "type": "string"
        }
      ],
      "payable": false,
      "stateMutability": "view",
      "type": "function"
    },
    {
      "constant": true,
      "inputs": [],
      "name": "exchangeTokenAddress",
      "outputs": [
        {
          "name": "",
          "type": "address"
        }
      ],
      "payable": false,
      "stateMutability": "view",
      "type": "function"
    },
    {
      "constant": true,
      "inputs": [
        {
          "name": "addrs",
          "type": "address[14]"
        },
        {
          "name": "uints",
          "type": "uint256[14]"
        },
        {
          "name": "sidesKindsHowToCalls",
          "type": "uint8[6]"
        },
        {
          "name": "calldataBuy",
          "type": "bytes"
        },
        {
          "name": "calldataSell",
          "type": "bytes"
        },
        {
          "name": "replacementPatternBuy",
          "type": "bytes"
        },
        {
          "name": "replacementPatternSell",
          "type": "bytes"
        },
        {
          "name": "staticExtradataBuy",
          "type": "bytes"
        },
        {
          "name": "staticExtradataSell",
          "type": "bytes"
        }
      ],
      "name": "ordersCanMatch_",
      "outputs": [
        {
          "name": "",
          "type": "bool"
        }
      ],
      "payable": false,
      "stateMutability": "view",
      "type": "function"
    },
    {
      "constant": false,
      "inputs": [
        {
          "name": "addrs",
          "type": "address[7]"
        },
        {
          "name": "uints",
          "type": "uint256[7]"
        },
        {
          "name": "side",
          "type": "uint8"
        },
        {
          "name": "saleKind",
          "type": "uint8"
        },
        {
          "name": "howToCall",
          "type": "uint8"
        },
        {
          "name": "calldata",
          "type": "bytes"
        },
        {
          "name": "replacementPattern",
          "type": "bytes"
        },
        {
          "name": "staticExtradata",
          "type": "bytes"
        },
        {
          "name": "orderbookInclusionDesired",
          "type": "bool"
        }
      ],
      "name": "approveOrder_",
      "outputs": [],
      "payable": false,
      "stateMutability": "nonpayable",
      "type": "function"
    },
    {
      "constant": true,
      "inputs": [
        {
          "name": "array",
          "type": "bytes"
        },
        {
          "name": "desired",
          "type": "bytes"
        },
        {
          "name": "mask",
          "type": "bytes"
        }
      ],
      "name": "guardedArrayReplace",
      "outputs": [
        {
          "name": "",
          "type": "bytes"
        }
      ],
      "payable": false,
      "stateMutability": "pure",
      "type": "function"
    },
    {
      "constant": false,
      "inputs": [
        {
          "name": "addrs",
          "type": "address[7]"
        },
        {
          "name": "uints",
          "type": "uint256[7]"
        },
        {
          "name": "side",
          "type": "uint8"
        },
        {
          "name": "saleKind",
          "type": "uint8"
        },
        {
          "name": "howToCall",
          "type": "uint8"
        },
        {
          "name": "calldata",
          "type": "bytes"
        },
        {
          "name": "replacementPattern",
          "type": "bytes"
        },
        {
          "name": "staticExtradata",
          "type": "bytes"
        },
        {
          "name": "v",
          "type": "uint8"
        },
        {
          "name": "r",
          "type": "bytes32"
        },
        {
          "name": "s",
          "type": "bytes32"
        }
      ],
      "name": "cancelOrder_",
      "outputs": [],
      "payable": false,
      "stateMutability": "nonpayable",
      "type": "function"
    },
    {
      "constant": true,
      "inputs": [
        {
          "name": "",
          "type": "bytes32"
        }
      ],
      "name": "topBids",
      "outputs": [
        {
          "name": "bidder",
          "type": "address"
        },
        {
          "name": "amount",
          "type": "uint256"
        }
      ],
      "payable": false,
      "stateMutability": "view",
      "type": "function"
    },
    {
      "constant": true,
      "inputs": [
        {
          "name": "buyCalldata",
          "type": "bytes"
        },
        {
          "name": "buyReplacementPattern",
          "type": "bytes"
        },
        {
          "name": "sellCalldata",
          "type": "bytes"
        },
        {
          "name": "sellReplacementPattern",
          "type": "bytes"
        }
      ],
      "name": "orderCalldataCanMatch",
      "outputs": [
        {
          "name": "",
          "type": "bool"
        }
      ],
      "payable": false,
      "stateMutability": "pure",
      "type": "function"
    },
    {
      "constant": true,
      "inputs": [
        {
          "name": "addrs",
          "type": "address[14]"
        },
        {
          "name": "uints",
          "type": "uint256[14]"
        },
        {
          "name": "sidesKindsHowToCalls",
          "type": "uint8[6]"
        },
        {
          "name": "calldataBuy",
          "type": "bytes"
        },
        {
          "name": "calldataSell",
          "type": "bytes"
        },
        {
          "name": "replacementPatternBuy",
          "type": "bytes"
        },
        {
          "name": "replacementPatternSell",
          "type": "bytes"
        },
        {
          "name": "staticExtradataBuy",
          "type": "bytes"
        },
        {
          "name": "staticExtradataSell",
          "type": "bytes"
        }
      ],
      "name": "calculateMatchPrice_",
      "outputs": [
        {
          "name": "",
          "type": "uint256"
        }
      ],
      "payable": false,
      "stateMutability": "view",
      "type": "function"
    },
    {
      "constant": true,
      "inputs": [
        {
          "name": "addrs",
          "type": "address[7]"
        },
        {
          "name": "uints",
          "type": "uint256[7]"
        },
        {
          "name": "side",
          "type": "uint8"
        },
        {
          "name": "saleKind",
          "type": "uint8"
        },
        {
          "name": "howToCall",
          "type": "uint8"
        },
        {
          "name": "calldata",
          "type": "bytes"
        },
        {
          "name": "replacementPattern",
          "type": "bytes"
        },
        {
          "name": "staticExtradata",
          "type": "bytes"
        },
        {
          "name": "v",
          "type": "uint8"
        },
        {
          "name": "r",
          "type": "bytes32"
        },
        {
          "name": "s",
          "type": "bytes32"
        }
      ],
      "name": "validateOrder_",
      "outputs": [
        {
          "name": "",
          "type": "bool"
        }
      ],
      "payable": false,
      "stateMutability": "view",
      "type": "function"
    },
    {
      "constant": true,
      "inputs": [],
      "name": "bank",
      "outputs": [
        {
          "name": "",
          "type": "address"
        }
      ],
      "payable": false,
      "stateMutability": "view",
      "type": "function"
    },
    {
      "constant": true,
      "inputs": [],
      "name": "registry",
      "outputs": [
        {
          "name": "",
          "type": "address"
        }
      ],
      "payable": false,
      "stateMutability": "view",
      "type": "function"
    },
    {
      "constant": true,
      "inputs": [
        {
          "name": "",
          "type": "bytes32"
        }
      ],
      "name": "cancelledOrFinalized",
      "outputs": [
        {
          "name": "",
          "type": "bool"
        }
      ],
      "payable": false,
      "stateMutability": "view",
      "type": "function"
    },
    {
      "constant": false,
      "inputs": [
        {
          "name": "addrs",
          "type": "address[14]"
        },
        {
          "name": "uints",
          "type": "uint256[14]"
        },
        {
          "name": "sidesKindsHowToCalls",
          "type": "uint8[6]"
        },
        {
          "name": "calldataBuy",
          "type": "bytes"
        },
        {
          "name": "calldataSell",
          "type": "bytes"
        },
        {
          "name": "replacementPatternBuy",
          "type": "bytes"
        },
        {
          "name": "replacementPatternSell",
          "type": "bytes"
        },
        {
          "name": "staticExtradataBuy",
          "type": "bytes"
        },
        {
          "name": "staticExtradataSell",
          "type": "bytes"
        },
        {
          "name": "vs",
          "type": "uint8[2]"
        },
        {
          "name": "rss",
          "type": "bytes32[4]"
        }
      ],
      "name": "atomicMatch_",
      "outputs": [],
      "payable": false,
      "stateMutability": "nonpayable",
      "type": "function"
    },
    {
      "constant": true,
      "inputs": [
        {
          "name": "",
          "type": "bytes32"
        }
      ],
      "name": "approvedOrders",
      "outputs": [
        {
          "name": "",
          "type": "bool"
        }
      ],
      "payable": false,
      "stateMutability": "view",
      "type": "function"
    },
    {
      "constant": false,
      "inputs": [
        {
          "name": "addrs",
          "type": "address[7]"
        },
        {
          "name": "uints",
          "type": "uint256[7]"
        },
        {
          "name": "side",
          "type": "uint8"
        },
        {
          "name": "saleKind",
          "type": "uint8"
        },
        {
          "name": "howToCall",
          "type": "uint8"
        },
        {
          "name": "calldata",
          "type": "bytes"
        },
        {
          "name": "replacementPattern",
          "type": "bytes"
        },
        {
          "name": "staticExtradata",
          "type": "bytes"
        },
        {
          "name": "v",
          "type": "uint8"
        },
        {
          "name": "r",
          "type": "bytes32"
        },
        {
          "name": "s",
          "type": "bytes32"
        },
        {
          "name": "amount",
          "type": "uint256"
        }
      ],
      "name": "bid_",
      "outputs": [],
      "payable": false,
      "stateMutability": "nonpayable",
      "type": "function"
    },
    {
      "constant": true,
      "inputs": [
        {
          "name": "addrs",
          "type": "address[7]"
        },
        {
          "name": "uints",
          "type": "uint256[7]"
        },
        {
          "name": "side",
          "type": "uint8"
        },
        {
          "name": "saleKind",
          "type": "uint8"
        },
        {
          "name": "howToCall",
          "type": "uint8"
        },
        {
          "name": "calldata",
          "type": "bytes"
        },
        {
          "name": "replacementPattern",
          "type": "bytes"
        },
        {
          "name": "staticExtradata",
          "type": "bytes"
        }
      ],
      "name": "hashOrder_",
      "outputs": [
        {
          "name": "",
          "type": "bytes32"
        }
      ],
      "payable": false,
      "stateMutability": "pure",
      "type": "function"
    },
    {
      "inputs": [
        {
          "name": "registryAddress",
          "type": "address"
        },
        {
          "name": "tokenAddress",
          "type": "address"
        },
        {
          "name": "lazyBankAddress",
          "type": "address"
        }
      ],
      "payable": false,
      "stateMutability": "nonpayable",
      "type": "constructor"
    },
    {
      "anonymous": false,
      "inputs": [
        {
          "indexed": true,
          "name": "hash",
          "type": "bytes32"
        },
        {
          "indexed": false,
          "name": "exchange",
          "type": "address"
        },
        {
          "indexed": true,
          "name": "maker",
          "type": "address"
        },
        {
          "indexed": false,
          "name": "taker",
          "type": "address"
        },
        {
          "indexed": false,
          "name": "makerFee",
          "type": "uint256"
        },
        {
          "indexed": false,
          "name": "takerFee",
          "type": "uint256"
        },
        {
          "indexed": true,
          "name": "feeRecipient",
          "type": "address"
        },
        {
          "indexed": false,
          "name": "side",
          "type": "uint8"
        },
        {
          "indexed": false,
          "name": "saleKind",
          "type": "uint8"
        },
        {
          "indexed": false,
          "name": "target",
          "type": "address"
        },
        {
          "indexed": false,
          "name": "howToCall",
          "type": "uint8"
        },
        {
          "indexed": false,
          "name": "calldata",
          "type": "bytes"
        }
      ],
      "name": "OrderApprovedPartOne",
      "type": "event"
    },
    {
      "anonymous": false,
      "inputs": [
        {
          "indexed": true,
          "name": "hash",
          "type": "bytes32"
        },
        {
          "indexed": false,
          "name": "replacementPattern",
          "type": "bytes"
        },
        {
          "indexed": false,
          "name": "staticTarget",
          "type": "address"
        },
        {
          "indexed": false,
          "name": "staticExtradata",
          "type": "bytes"
        },
        {
          "indexed": false,
          "name": "paymentToken",
          "type": "address"
        },
        {
          "indexed": false,
          "name": "basePrice",
          "type": "uint256"
        },
        {
          "indexed": false,
          "name": "extra",
          "type": "uint256"
        },
        {
          "indexed": false,
          "name": "listingTime",
          "type": "uint256"
        },
        {
          "indexed": false,
          "name": "expirationTime",
          "type": "uint256"
        },
        {
          "indexed": false,
          "name": "salt",
          "type": "uint256"
        },
        {
          "indexed": false,
          "name": "orderbookInclusionDesired",
          "type": "bool"
        }
      ],
      "name": "OrderApprovedPartTwo",
      "type": "event"
    },
    {
      "anonymous": false,
      "inputs": [
        {
          "indexed": true,
          "name": "hash",
          "type": "bytes32"
        }
      ],
      "name": "OrderCancelled",
      "type": "event"
    },
    {
      "anonymous": false,
      "inputs": [
        {
          "indexed": true,
          "name": "hash",
          "type": "bytes32"
        },
        {
          "indexed": true,
          "name": "bidder",
          "type": "address"
        },
        {
          "indexed": false,
          "name": "amount",
          "type": "uint256"
        }
      ],
      "name": "OrderBidOn",
      "type": "event"
    },
    {
      "anonymous": false,
      "inputs": [
        {
          "indexed": true,
          "name": "buyHash",
          "type": "bytes32"
        },
        {
          "indexed": true,
          "name": "sellHash",
          "type": "bytes32"
        }
      ],
      "name": "OrdersMatched",
      "type": "event"
    }
  ],
  "bytecode": "0x60606040526000805460ff19169055341561001957600080fd5b604051606080613cf18339810160405280805191906020018051919060200180516000805461010060a860020a031916610100600160a060020a039687160217815560018054600160a060020a031990811697871697909717905560028054909616919094161790935550613c5c9150819061009590396000f3006060604052600436106100d75763ffffffff60e060020a60003504166306fdde0381146100dc5780630e5d2e2114610166578063136f5b5a146101955780631665e6b3146103bf578063239e83df1461050457806335d91b85146105d9578063532aa1c814610728578063562b2ebc14610760578063582420bb146108775780637627e94114610a9f57806376cdb03b14610bee5780637b10399914610c015780638076f00514610c14578063dfc7209f14610c2a578063e57d4adb14610e94578063e6d2bd7b14610eaa578063f9c29e6614610ffe575b600080fd5b34156100e757600080fd5b6100ef61113d565b60405160208082528190810183818151815260200191508051906020019080838360005b8381101561012b578082015183820152602001610113565b50505050905090810190601f1680156101585780820380516001836020036101000a031916815260200191505b509250505060405180910390f35b341561017157600080fd5b610179611174565b604051600160a060020a03909116815260200160405180910390f35b34156101a057600080fd5b6103ab60046101c481600e6101c0604051908101604052919082826101c08082843782019150505050509190806101c00190600e80602002604051908101604052919082826101c080828437820191505050505091908060c001906006806020026040519081016040529190828260c0808284375093959460208082019550903586018082019450359250829150601f8201819004810201604051908101604052818152929190602084018383808284378201915050505050509190803590602001908201803590602001908080601f01602080910402602001604051908101604052818152929190602084018383808284378201915050505050509190803590602001908201803590602001908080601f01602080910402602001604051908101604052818152929190602084018383808284378201915050505050509190803590602001908201803590602001908080601f01602080910402602001604051908101604052818152929190602084018383808284378201915050505050509190803590602001908201803590602001908080601f01602080910402602001604051908101604052818152929190602084018383808284378201915050505050509190803590602001908201803590602001908080601f01602080910402602001604051908101604052818152929190602084018383808284375094965061118895505050505050565b604051901515815260200160405180910390f35b34156103ca57600080fd5b610502600460e481600760e06040519081016040529190828260e080828437820191505050505091908060e001906007806020026040519081016040529190828260e08082843750939560ff8635811696602080820135831697506040808301359093169650929450608081019350606001358401808301929035918291601f83018190048102019051908101604052818152929190602084018383808284378201915050505050509190803590602001908201803590602001908080601f01602080910402602001604051908101604052818152929190602084018383808284378201915050505050509190803590602001908201803590602001908080601f01602080910402602001604051908101604052818152929190602084018383808284375094965050505091351515915061148d9050565b005b341561050f57600080fd5b6100ef60046024813581810190830135806020601f8201819004810201604051908101604052818152929190602084018383808284378201915050505050509190803590602001908201803590602001908080601f01602080910402602001604051908101604052818152929190602084018383808284378201915050505050509190803590602001908201803590602001908080601f0160208091040260200160405190810160405281815292919060208401838380828437509496506115ca95505050505050565b34156105e457600080fd5b610502600460e481600760e06040519081016040529190828260e080828437820191505050505091908060e001906007806020026040519081016040529190828260e08082843750939560ff8635811696602080820135831697506040808301359093169650929450608081019350606001358401808301929035918291601f83018190048102019051908101604052818152929190602084018383808284378201915050505050509190803590602001908201803590602001908080601f01602080910402602001604051908101604052818152929190602084018383808284378201915050505050509190803590602001908201803590602001908080601f0160208091040260200160405190810160405281815292919060208401838380828437509496505060ff85351694602081013594506040013592506115e7915050565b341561073357600080fd5b61073e600435611738565b604051600160a060020a03909216825260208201526040908101905180910390f35b341561076b57600080fd5b6103ab60046024813581810190830135806020601f8201819004810201604051908101604052818152929190602084018383808284378201915050505050509190803590602001908201803590602001908080601f01602080910402602001604051908101604052818152929190602084018383808284378201915050505050509190803590602001908201803590602001908080601f01602080910402602001604051908101604052818152929190602084018383808284378201915050505050509190803590602001908201803590602001908080601f01602080910402602001604051908101604052818152929190602084018383808284375094965061175d95505050505050565b341561088257600080fd5b610a8d60046101c481600e6101c0604051908101604052919082826101c08082843782019150505050509190806101c00190600e80602002604051908101604052919082826101c080828437820191505050505091908060c001906006806020026040519081016040529190828260c0808284375093959460208082019550903586018082019450359250829150601f8201819004810201604051908101604052818152929190602084018383808284378201915050505050509190803590602001908201803590602001908080601f01602080910402602001604051908101604052818152929190602084018383808284378201915050505050509190803590602001908201803590602001908080601f01602080910402602001604051908101604052818152929190602084018383808284378201915050505050509190803590602001908201803590602001908080601f01602080910402602001604051908101604052818152929190602084018383808284378201915050505050509190803590602001908201803590602001908080601f01602080910402602001604051908101604052818152929190602084018383808284378201915050505050509190803590602001908201803590602001908080601f01602080910402602001604051908101604052818152929190602084018383808284375094965061178a95505050505050565b60405190815260200160405180910390f35b3415610aaa57600080fd5b6103ab600460e481600760e06040519081016040529190828260e080828437820191505050505091908060e001906007806020026040519081016040529190828260e08082843750939560ff8635811696602080820135831697506040808301359093169650929450608081019350606001358401808301929035918291601f83018190048102019051908101604052818152929190602084018383808284378201915050505050509190803590602001908201803590602001908080601f01602080910402602001604051908101604052818152929190602084018383808284378201915050505050509190803590602001908201803590602001908080601f0160208091040260200160405190810160405281815292919060208401838380828437509496505060ff8535169460208101359450604001359250611a7e915050565b3415610bf957600080fd5b610179611bd8565b3415610c0c57600080fd5b610179611be7565b3415610c1f57600080fd5b6103ab600435611bf6565b3415610c3557600080fd5b61050260046101c481600e6101c0604051908101604052919082826101c08082843782019150505050509190806101c00190600e80602002604051908101604052919082826101c080828437820191505050505091908060c001906006806020026040519081016040529190828260c0808284375093959460208082019550903586018082019450359250829150601f8201819004810201604051908101604052818152929190602084018383808284378201915050505050509190803590602001908201803590602001908080601f01602080910402602001604051908101604052818152929190602084018383808284378201915050505050509190803590602001908201803590602001908080601f01602080910402602001604051908101604052818152929190602084018383808284378201915050505050509190803590602001908201803590602001908080601f01602080910402602001604051908101604052818152929190602084018383808284378201915050505050509190803590602001908201803590602001908080601f01602080910402602001604051908101604052818152929190602084018383808284378201915050505050509190803590602001908201803590602001908080601f01602080910402602001604051908101604052818152929190602084018383808284378201915050505050509190806040019060028060200260405190810160405280929190826002602002808284378201915050505050919080608001906004806020026040519081016040529190828260808082843750939550611c0b945050505050565b3415610e9f57600080fd5b6103ab600435611f3b565b3415610eb557600080fd5b610502600460e481600760e06040519081016040529190828260e080828437820191505050505091908060e001906007806020026040519081016040529190828260e08082843750939560ff8635811696602080820135831697506040808301359093169650929450608081019350606001358401808301929035918291601f83018190048102019051908101604052818152929190602084018383808284378201915050505050509190803590602001908201803590602001908080601f01602080910402602001604051908101604052818152929190602084018383808284378201915050505050509190803590602001908201803590602001908080601f0160208091040260200160405190810160405281815292919060208401838380828437509496505050833560ff16936020810135935060408101359250606001359050611f50565b341561100957600080fd5b610a8d600460e481600760e06040519081016040529190828260e080828437820191505050505091908060e001906007806020026040519081016040529190828260e08082843750939560ff8635811696602080820135831697506040808301359093169650929450608081019350606001358401808301929035918291601f83018190048102019051908101604052818152929190602084018383808284378201915050505050509190803590602001908201803590602001908080601f01602080910402602001604051908101604052818152929190602084018383808284378201915050505050509190803590602001908201803590602001908080601f0160208091040260200160405190810160405281815292919060208401838380828437509496506120a395505050505050565b60408051908101604052601781527f50726f6a6563742057797665726e2045786368616e6765000000000000000000602082015281565b6000546101009004600160a060020a031681565b6000611192613b3d565b61119a613b3d565b6000610280604051908101604052808e51600160a060020a031681526020018e60016020020151600160a060020a0316815260200160408f0151600160a060020a031681526020018d5181526020018d60016020020151815260200160608f0151600160a060020a031681526020018c5160ff16600181111561121957fe5b600181111561122457fe5b81526020018c6001602002015160ff16600281111561123f57fe5b600281111561124a57fe5b815260200160808f0151600160a060020a0316815260200160408d015160ff16600181111561127557fe5b600181111561128057fe5b8152602081018c9052604081018a905260600160a08f0151600160a060020a031681526020810188905260400160c08f0151600160a060020a0316815260200160408e0151815260200160608e0151815260200160808e0151815260200160a08e0151815260200160c08e0151905292506102806040519081016040528060e08f0151600160a060020a031681526020016101008f0151600160a060020a031681526020016101208f0151600160a060020a0316815260200160e08e015181526020016101008e015181526020016101408f0151600160a060020a0316815260200160608d015160ff16600181111561137557fe5b600181111561138057fe5b815260200160808d015160ff16600281111561139857fe5b60028111156113a357fe5b81526020016101608f0151600160a060020a0316815260200160a08d015160ff1660018111156113cf57fe5b60018111156113da57fe5b8152602081018b9052604081018990526060016101808f0151600160a060020a03168152602081018790526040016101a08f0151600160a060020a031681526020016101208e015181526020016101408e015181526020016101608e015181526020016101808e015181526020016101a08e0151905291506003600061145f846121d7565b81526020810191909152604001600020905061147c838383612209565b9d9c50505050505050505050505050565b611495613b3d565b610280604051908101604052808b51600160a060020a031681526020018b60016020020151600160a060020a0316815260200160408c0151600160a060020a031681526020018a5181526020018a60016020020151815260200160608c0151600160a060020a0316815260200189600181111561150e57fe5b815260200188600281111561151f57fe5b815260200160808c0151600160a060020a0316815260200187600181111561154357fe5b8152602081018790526040810186905260600160a08c0151600160a060020a031681526020810185905260400160c08c0151600160a060020a0316815260200160408b0151815260200160608b0151815260200160808b0151815260200160a08b0151815260200160c08b0151905290506115be8183612401565b50505050505050505050565b6115d2613bf5565b6115dd84848461274d565b50825b9392505050565b61172b610280604051908101604052808d51600160a060020a031681526020018d60016020020151600160a060020a0316815260200160408e0151600160a060020a031681526020018c5181526020018c60016020020151815260200160608e0151600160a060020a031681526020018b600181111561166357fe5b81526020018a600281111561167457fe5b815260200160808e0151600160a060020a0316815260200189600181111561169857fe5b8152602081018990526040810188905260600160a08e0151600160a060020a031681526020810187905260400160c08e0151600160a060020a0316815260200160408d0151815260200160608d0151815260200160808d0151815260200160a08d0151815260200160c08d015190526060604051908101604090815260ff87168252602082018690528101849052612978565b5050505050505050505050565b60036020526000908152604090208054600190910154600160a060020a039091169082565b600061176a85848661274d565b61177583868461274d565b61177f85846129f7565b90505b949350505050565b6000611794613b3d565b61179c613b3d565b6000610280604051908101604052808e51600160a060020a031681526020018e60016020020151600160a060020a0316815260200160408f0151600160a060020a031681526020018d5181526020018d60016020020151815260200160608f0151600160a060020a031681526020018c5160ff16600181111561181b57fe5b600181111561182657fe5b81526020018c6001602002015160ff16600281111561184157fe5b600281111561184c57fe5b815260200160808f0151600160a060020a0316815260200160408d015160ff16600181111561187757fe5b600181111561188257fe5b8152602081018c9052604081018a905260600160a08f0151600160a060020a031681526020810188905260400160c08f0151600160a060020a0316815260200160408e0151815260200160608e0151815260200160808e0151815260200160a08e0151815260200160c08e0151905292506102806040519081016040528060e08f0151600160a060020a031681526020016101008f0151600160a060020a031681526020016101208f0151600160a060020a0316815260200160e08e015181526020016101008e015181526020016101408f0151600160a060020a0316815260200160608d015160ff16600181111561197757fe5b600181111561198257fe5b815260200160808d015160ff16600281111561199a57fe5b60028111156119a557fe5b81526020016101608f0151600160a060020a0316815260200160a08d015160ff1660018111156119d157fe5b60018111156119dc57fe5b8152602081018b9052604081018990526060016101808f0151600160a060020a03168152602081018790526040016101a08f0151600160a060020a031681526020016101208e015181526020016101408e015181526020016101608e015181526020016101808e015181526020016101a08e01519052915060036000611a61846121d7565b81526020810191909152604001600020905061147c838383612a8d565b6000611a88613b3d565b610280604051908101604052808e51600160a060020a031681526020018e60016020020151600160a060020a0316815260200160408f0151600160a060020a031681526020018d5181526020018d60016020020151815260200160608f0151600160a060020a031681526020018c6001811115611b0157fe5b81526020018b6002811115611b1257fe5b815260200160808f0151600160a060020a031681526020018a6001811115611b3657fe5b8152602081018a90526040810189905260600160a08f0151600160a060020a031681526020810188905260400160c08f0151600160a060020a0316815260200160408e0151815260200160608e0151815260200160808e0151815260200160a08e0151815260200160c08e01519052905061147c611bb382612b60565b826060604051908101604090815260ff8a168252602082018990528101879052612c15565b600254600160a060020a031681565b600154600160a060020a031681565b60046020526000908152604090205460ff1681565b611c13613b3d565b611c1b613b3d565b610280604051908101604052808e51600160a060020a031681526020018e60016020020151600160a060020a0316815260200160408f0151600160a060020a031681526020018d5181526020018d60016020020151815260200160608f0151600160a060020a031681526020018c5160ff166001811115611c9857fe5b6001811115611ca357fe5b81526020018c6001602002015160ff166002811115611cbe57fe5b6002811115611cc957fe5b815260200160808f0151600160a060020a0316815260200160408d015160ff166001811115611cf457fe5b6001811115611cff57fe5b8152602081018c9052604081018a905260600160a08f0151600160a060020a031681526020810188905260400160c08f0151600160a060020a0316815260200160408e0151815260200160608e0151815260200160808e0151815260200160a08e0151815260200160c08e0151905291506102806040519081016040528060e08f0151600160a060020a031681526020016101008f0151600160a060020a031681526020016101208f0151600160a060020a0316815260200160e08e015181526020016101008e015181526020016101408f0151600160a060020a0316815260200160608d015160ff166001811115611df457fe5b6001811115611dff57fe5b815260200160808d015160ff166002811115611e1757fe5b6002811115611e2257fe5b81526020016101608f0151600160a060020a0316815260200160a08d015160ff166001811115611e4e57fe5b6001811115611e5957fe5b8152602081018b9052604081018990526060016101808f0151600160a060020a03168152602081018790526040016101a08f0151600160a060020a031681526020016101208e015181526020016101408e015181526020016101608e015181526020016101808e015181526020016101a08e015190529050611f2c82606060405190810160405280875160ff16815260200186518152602001866001602002015190528360606040519081016040528060208a015160ff1681526020016040890151815260200160608901519052612d69565b50505050505050505050505050565b60056020526000908152604090205460ff1681565b612095610280604051908101604052808e51600160a060020a031681526020018e60016020020151600160a060020a0316815260200160408f0151600160a060020a031681526020018d5181526020018d60016020020151815260200160608f0151600160a060020a031681526020018c6001811115611fcc57fe5b81526020018b6002811115611fdd57fe5b815260200160808f0151600160a060020a031681526020018a600181111561200157fe5b8152602081018a90526040810189905260600160a08f0151600160a060020a031681526020810188905260400160c08f0151600160a060020a0316815260200160408e0151815260200160608e0151815260200160808e0151815260200160a08e0151815260200160c08e015190526060604051908101604090815260ff881682526020820187905281018590528361308f565b505050505050505050505050565b60006121ca610280604051908101604052808b51600160a060020a031681526020018b60016020020151600160a060020a0316815260200160408c0151600160a060020a031681526020018a5181526020018a60016020020151815260200160608c0151600160a060020a0316815260200189600181111561212157fe5b815260200188600281111561213257fe5b815260200160808c0151600160a060020a0316815260200187600181111561215657fe5b8152602081018790526040810186905260600160a08c0151600160a060020a031681526020810185905260400160c08c0151600160a060020a0316815260200160408b0151815260200160608b0151815260200160808b0151815260200160a08b0151815260200160c08b015190526121d7565b9998505050505050505050565b60006121e2826132c2565b6121eb83613479565b60405191825260208201526040908101905180910390209050919050565b6000808460c00151600181111561221c57fe5b148015612238575060018360c00151600181111561223657fe5b145b801561225f5750826101c00151600160a060020a0316846101c00151600160a060020a0316145b801561229b575060006040840151600160a060020a0316148061229b57508360200151600160a060020a03168360400151600160a060020a0316145b80156122d7575060006040850151600160a060020a031614806122d757508260200151600160a060020a03168460400151600160a060020a0316145b801561233a5750600060a0840151600160a060020a03161480156123095750600060a0850151600160a060020a031614155b8061233a5750600060a0840151600160a060020a03161415801561233a5750600060a0850151600160a060020a0316145b80156123615750826101000151600160a060020a0316846101000151600160a060020a0316145b801561238c5750826101200151600181111561237957fe5b846101200151600181111561238a57fe5b145b80156123bf57506123bf8460e0015184602001518661024001516040805190810160405260008082526020820152613578565b801561178257506117828360e00151856020015185610240015185604080519081016040528154600160a060020a031681526001909101546020820152613578565b60008260200151600160a060020a031633600160a060020a031614151561242757600080fd5b61243083612b60565b60008181526005602052604090205490915060ff161561244f57600080fd5b6000818152600560205260409020805460ff1916600117905560a0830151600160a060020a03168360200151600160a060020a0316827faee3673166cb20f9607e8257375d5244a4f82611eb34a8319dd0b527e89460bf86518760400151886060015189608001518a60c001518b60e001518c61010001518d61012001518e6101400151604051600160a060020a03808b1682528916602082015260408101889052606081018790526080810186600181111561250857fe5b60ff16815260200185600281111561251c57fe5b60ff168152600160a060020a038516602082015260400183600181111561253f57fe5b60ff16815260200180602001828103825283818151815260200191508051906020019080838360005b83811015612580578082015183820152602001612568565b50505050905090810190601f1680156125ad5780820380516001836020036101000a031916815260200191505b509a505050505050505050505060405180910390a4807f6b227a8fe336bb14cfe503246633ca4550cd8065f1933a5ffaf83a955eaa40ed610160850151856101800151866101a00151876101c00151886101e001518961020001518a61022001518b61024001518c61026001518c604051600160a060020a03808b166020830152881660608201526080810187905260a0810186905260c0810185905260e0810184905261010081018390528115156101208201526101408082528190604082019082018d818151815260200191508051906020019080838360005b838110156126a1578082015183820152602001612689565b50505050905090810190601f1680156126ce5780820380516001836020036101000a031916815260200191505b5083810382528b818151815260200191508051906020019080838360005b838110156127045780820151838201526020016126ec565b50505050905090810190601f1680156127315780820380516001836020036101000a031916815260200191505b509c5050505050505050505050505060405180910390a2505050565b612755613c07565b60008061010060405190810160409081527f800000000000000000000000000000000000000000000000000000000000000082527f400000000000000000000000000000000000000000000000000000000000000060208301527f2000000000000000000000000000000000000000000000000000000000000000908201527f100000000000000000000000000000000000000000000000000000000000000060608201527f080000000000000000000000000000000000000000000000000000000000000060808201527f040000000000000000000000000000000000000000000000000000000000000060a08201527f020000000000000000000000000000000000000000000000000000000000000060c082015260f860020a60e08201529250845186511461288657600080fd5b6008865181151561289357fe5b04845110156128a157600080fd5b600091505b8551821015612970578260088306600881106128be57fe5b60200201518460088404815181106128d257fe5b016020015160f860020a900460f860020a0216600160f860020a031916600060f860020a02149050806129225784828151811061290b57fe5b016020015160f860020a900460f860020a02612941565b85828151811061292e57fe5b016020015160f860020a900460f860020a025b86838151811061294d57fe5b906020010190600160f860020a031916908160001a9053506001909101906128a6565b505050505050565b600061298483836135c9565b90508260200151600160a060020a031633600160a060020a03161415156129aa57600080fd5b60008181526004602052604090819020805460ff1916600117905581907f5152abf959f6564662358c2e52b702259b78bac5ee7842a0f01937e670efcc7d905160405180910390a2505050565b6000808251845114612a0c5760009150612a86565b5060005b8351811015612a8157828181518110612a2557fe5b016020015160f860020a900460f860020a02600160f860020a031916848281518110612a4d57fe5b016020015160f860020a900460f860020a02600160f860020a031916141515612a795760009150612a86565b600101612a10565b600191505b5092915050565b6000806000612adf8560c001518660e00151876101e001518861020001518961022001518a61024001518a604080519081016040528154600160a060020a0316815260019091015460208201526135ed565b9150612b2e8660c001518760e00151886101e001518961020001518a61022001518b61024001518a604080519081016040528154600160a060020a0316815260019091015460208201526135ed565b905081811015612b3d57600080fd5b85610220015185610220015110612b545780612b56565b815b9695505050505050565b6000612b6a613bf5565b600060408051908101604052601c81527f19457468657265756d205369676e6564204d6573736167653a0a3332000000006020820152915081612bac856121d7565b6040518083805190602001908083835b60208310612bdb5780518252601f199092019160209182019101612bbc565b6001836020036101000a03801982511681845116179092525050509190910192835250506020019050604051908190039020949350505050565b6000600160a060020a0330168351600160a060020a031614612c39575060006115e0565b60008481526004602052604090205460ff1615612c58575060006115e0565b612c708360c001518460e0015185610240015161369b565b1515612c7e575060006115e0565b8260200151600160a060020a031633600160a060020a03161415612ca4575060016115e0565b60008481526005602052604090205460ff1615612cc3575060016115e0565b8260200151600160a060020a03166001858451856020015186604001516040516000815260200160405260006040516020015260405193845260ff90921660208085019190915260408085019290925260608401929092526080909201915160208103908084039060008661646e5a03f11515612d3f57600080fd5b505060206040510351600160a060020a03161415612d5f575060016115e0565b5060009392505050565b600080600080612d7988886135c9565b9350612d8586866135c9565b60008181526003602052604090209093509150612da3888784612209565b1515612dae57600080fd5b612dc88861014001518761014001518a610160015161274d565b612de286610140015189610140015188610160015161274d565b612df68861014001518761014001516129f7565b1515612e0157600080fd5b600154600160a060020a031663c4552791602088015160006040516020015260405160e060020a63ffffffff8416028152600160a060020a039091166004820152602401602060405180830381600087803b1515612e5e57600080fd5b6102c65a03f11515612e6f57600080fd5b5050506040518051915050600160a060020a0381161515612e8f57600080fd5b6000848152600460205260408082208054600160ff1991821681179092558684529190922080549091169091179055612ec98887846136ea565b80600160a060020a0316631b0f7ba98761010001518861012001518961014001516000604051602001526040518463ffffffff1660e060020a0281526004018084600160a060020a0316600160a060020a03168152602001836001811115612f2d57fe5b60ff16815260200180602001828103825283818151815260200191508051906020019080838360005b83811015612f6e578082015183820152602001612f56565b50505050905090810190601f168015612f9b5780820380516001836020036101000a031916815260200191505b50945050505050602060405180830381600087803b1515612fbb57600080fd5b6102c65a03f11515612fcc57600080fd5b505050604051805190501515612fe157600080fd5b6000610180890151600160a060020a03161461301c576130118861018001518761014001518a6101a00151613937565b151561301c57600080fd5b6000610180870151600160a060020a0316146130575761304c866101800151876101400151886101a00151613937565b151561305757600080fd5b82847f0ac43ae443462c4ede260ad38899e594fa78238f3252539851b7b4395f3b043e60405160405180910390a35050505050505050565b600080600061309e86866135c9565b600081815260036020526040902090935091506130f860c08701518760e00151886101e001518961020001518a610240015187604080519081016040528154600160a060020a031681526001909101546020820152613a3c565b90508084101561310757600080fd5b604080519081016040908152600160a060020a0333168252602080830187905260008681526003909152208151815473ffffffffffffffffffffffffffffffffffffffff1916600160a060020a03919091161781556020820151600190910155508154600160a060020a0316156131ff576002548254600160a060020a0391821691639577bffa91166101c0890151856001015460405160e060020a63ffffffff8616028152600160a060020a0393841660048201529190921660248201526044810191909152606401600060405180830381600087803b15156131ea57600080fd5b6102c65a03f115156131fb57600080fd5b5050505b600254600160a060020a0316635a8158e2336101c08901518760405160e060020a63ffffffff8616028152600160a060020a0393841660048201529190921660248201526044810191909152606401600060405180830381600087803b151561326757600080fd5b6102c65a03f1151561327857600080fd5b5050600160a060020a0333169050837fff38b86de5d69f2775369319139dcab1f44807defd694708dd58e5d96ecd7c158660405190815260200160405180910390a3505050505050565b6000815182602001518360400151846060015185608001518660a001518760c001518860e001518961010001518a61012001518b61014001518c61016001516040516c01000000000000000000000000600160a060020a03808f16820283528d8116820260148401528c811682026028840152603c83018c9052605c83018b9052891602607c8201526090810187600181111561335b57fe5b60ff1660f860020a02815260010186600281111561337557fe5b60ff1660f860020a02815260010185600160a060020a0316600160a060020a03166c010000000000000000000000000281526014018460018111156133b657fe5b60ff1660f860020a02815260010183805190602001908083835b602083106133ef5780518252601f1990920191602091820191016133d0565b6001836020036101000a038019825116818451161790925250505091909101905082805190602001908083835b6020831061343b5780518252601f19909201916020918201910161341c565b6001836020036101000a0380198251168184511617909252505050919091019d5060409c505050505050505050505050505180910390209050919050565b6000816101800151826101a00151836101c00151846101e001518561020001518661022001518761024001518861026001516040516c01000000000000000000000000600160a060020a038a160281526014810188805190602001908083835b602083106134f85780518252601f1990920191602091820191016134d9565b6001836020036101000a03801982511681845116808217855250505050505090500187600160a060020a0316600160a060020a03166c010000000000000000000000000281526014018681526020018581526020018481526020018381526020018281526020019850505050505050505060405180910390209050919050565b6000600185600281111561358857fe5b14156135b7578151600160a060020a031684600160a060020a03161480156135b05750824210155b9050611782565b8215806135b057508242109050611782565b6000806135d584612b60565b90506135e2818585612c15565b15156115e057600080fd5b600080808860028111156135fd57fe5b141561360b5786915061368f565b600188600281111561361957fe5b14156136435760008351600160a060020a0316141561363757600080fd5b8260200151915061368f565b600288600281111561365157fe5b14156100d757848403854203870281151561366857fe5b049050600189600181111561367957fe5b141561368957808703915061368f565b80870191505b50979650505050505050565b600060018360028111156136ab57fe5b1415806136c3575060018460018111156136c157fe5b145b8015611782575060008360028111156136d857fe5b14806117825750506000901192915050565b60006136f7848484612a8d565b9050600060a0840151600160a060020a0316146137565783608001518360800151111561372357600080fd5b61373a83602001518460a001518560600151613aa6565b61375184602001518460a001518560800151613aa6565b613799565b82608001518460800151111561376b57600080fd5b61378284602001518560a001518660600151613aa6565b61379983602001518560a001518660800151613aa6565b8154600160a060020a031615613830576002548254600160a060020a0391821691639577bffa91166101c0860151856001015460405160e060020a63ffffffff8616028152600160a060020a0393841660048201529190921660248201526044810191909152606401600060405180830381600087803b151561381b57600080fd5b6102c65a03f1151561382c57600080fd5b5050505b600254600160a060020a031663cb5f26436020860151856101c001518460405160e060020a63ffffffff8616028152600160a060020a0393841660048201529190921660248201526044810191909152606401600060405180830381600087803b151561389c57600080fd5b6102c65a03f115156138ad57600080fd5b5050600254600160a060020a0316905063034422ef6020850151856101c001518460405160e060020a63ffffffff8616028152600160a060020a0393841660048201529190921660248201526044810191909152606401600060405180830381600087803b151561391d57600080fd5b6102c65a03f1151561392e57600080fd5b50505050505050565b6000613941613bf5565b600080600085518751016040518059106139585750595b818152601f19601f83011681016020016040529050935083519250600091505b86518210156139ce5786828151811061398d57fe5b016020015160f860020a900460f860020a028483815181106139ab57fe5b906020010190600160f860020a031916908160001a905350600190910190613978565b5060005b8551811015613a28578581815181106139e757fe5b016020015160f860020a900460f860020a02848851830181518110613a0857fe5b906020010190600160f860020a031916908160001a9053506001016139d2565b60008484868b5afa98975050505050505050565b60006001876001811115613a4c57fe5b148015613a6457506001866002811115613a6257fe5b145b8015613a6f57508242105b1515613a7a57600080fd5b60008251600160a060020a03161415613a94575083612b56565b83826020015101979650505050505050565b6000811115613b3857600254600054600160a060020a039182169163f49ec96191869186916101009004168560405160e060020a63ffffffff8716028152600160a060020a0394851660048201529284166024840152921660448201526064810191909152608401600060405180830381600087803b1515613b2757600080fd5b6102c65a03f1151561297057600080fd5b505050565b6102806040519081016040908152600080835260208301819052908201819052606082018190526080820181905260a0820181905260c0820181905260e0820181905261010082018190526101208201526101408101613b9b613bf5565b8152602001613ba8613bf5565b815260006020820152604001613bbc613bf5565b81526020016000600160a060020a0316815260200160008152602001600081526020016000815260200160008152602001600081525090565b60206040519081016040526000815290565b6101006040519081016040526008815b600081526000199091019060200181613c1757905050905600a165627a7a72305820eda56a7ab84dcae4ac55baadc8cbcc220101791d1d12b57e8f9d2cafa87dd17c0029",
  "source": "/*\n\n  << Project Wyvern Exchange >>\n\n*/\n\npragma solidity 0.4.18;\n\nimport \"./exchange/Exchange.sol\";\n\n/**\n * @title WyvernExchange\n * @author Project Wyvern Developers\n */\ncontract WyvernExchange is Exchange {\n\n    string public constant name = \"Project Wyvern Exchange\";\n\n    function WyvernExchange (ProxyRegistry registryAddress, ERC20 tokenAddress, AuthenticatedLazyBank lazyBankAddress) public {\n        exchangeTokenAddress = tokenAddress;\n        registry = registryAddress;\n        bank = lazyBankAddress;\n    }\n\n}\n",
  "sourcePath": "/home/cwgoes/working/crypto/wyvern/wyvern-ethereum/contracts/WyvernExchange.sol",
  "compiler": {
    "name": "solc",
    "version": "0.4.18+commit.9cf6e910.Emscripten.clang"
  },
  "schemaVersion": "1.0.1",
  "updatedAt": "2018-01-30T21:44:51.814Z"
}