{
  "contractName": "WyvernExchange",
  "abi": [
    {
      "constant": true,
      "inputs": [],
      "name": "name",
      "outputs": [
        {
          "name": "",
          "type": "string"
        }
      ],
      "payable": false,
      "stateMutability": "view",
      "type": "function"
    },
    {
      "constant": true,
      "inputs": [
        {
          "name": "target",
          "type": "address"
        },
        {
          "name": "calldata",
          "type": "bytes"
        },
        {
          "name": "extradata",
          "type": "bytes"
        }
      ],
      "name": "staticCall",
      "outputs": [
        {
          "name": "result",
          "type": "bool"
        }
      ],
      "payable": false,
      "stateMutability": "view",
      "type": "function"
    },
    {
      "constant": true,
      "inputs": [
        {
          "name": "addrs",
          "type": "address[14]"
        },
        {
          "name": "uints",
          "type": "uint256[14]"
        },
        {
          "name": "sidesKindsHowToCalls",
          "type": "uint8[6]"
        },
        {
          "name": "calldataBuy",
          "type": "bytes"
        },
        {
          "name": "calldataSell",
          "type": "bytes"
        },
        {
          "name": "replacementPatternBuy",
          "type": "bytes"
        },
        {
          "name": "replacementPatternSell",
          "type": "bytes"
        },
        {
          "name": "staticExtradataBuy",
          "type": "bytes"
        },
        {
          "name": "staticExtradataSell",
          "type": "bytes"
        }
      ],
      "name": "ordersCanMatch_",
      "outputs": [
        {
          "name": "",
          "type": "bool"
        }
      ],
      "payable": false,
      "stateMutability": "view",
      "type": "function"
    },
    {
      "constant": false,
      "inputs": [
        {
          "name": "addrs",
          "type": "address[7]"
        },
        {
          "name": "uints",
          "type": "uint256[7]"
        },
        {
          "name": "side",
          "type": "uint8"
        },
        {
          "name": "saleKind",
          "type": "uint8"
        },
        {
          "name": "howToCall",
          "type": "uint8"
        },
        {
          "name": "calldata",
          "type": "bytes"
        },
        {
          "name": "replacementPattern",
          "type": "bytes"
        },
        {
          "name": "staticExtradata",
          "type": "bytes"
        },
        {
          "name": "orderbookInclusionDesired",
          "type": "bool"
        }
      ],
      "name": "approveOrder_",
      "outputs": [],
      "payable": false,
      "stateMutability": "nonpayable",
      "type": "function"
    },
    {
      "constant": true,
      "inputs": [
        {
          "name": "array",
          "type": "bytes"
        },
        {
          "name": "desired",
          "type": "bytes"
        },
        {
          "name": "mask",
          "type": "bytes"
        }
      ],
      "name": "guardedArrayReplace",
      "outputs": [
        {
          "name": "",
          "type": "bytes"
        }
      ],
      "payable": false,
      "stateMutability": "pure",
      "type": "function"
    },
    {
      "constant": false,
      "inputs": [
        {
          "name": "addrs",
          "type": "address[7]"
        },
        {
          "name": "uints",
          "type": "uint256[7]"
        },
        {
          "name": "side",
          "type": "uint8"
        },
        {
          "name": "saleKind",
          "type": "uint8"
        },
        {
          "name": "howToCall",
          "type": "uint8"
        },
        {
          "name": "calldata",
          "type": "bytes"
        },
        {
          "name": "replacementPattern",
          "type": "bytes"
        },
        {
          "name": "staticExtradata",
          "type": "bytes"
        },
        {
          "name": "v",
          "type": "uint8"
        },
        {
          "name": "r",
          "type": "bytes32"
        },
        {
          "name": "s",
          "type": "bytes32"
        }
      ],
      "name": "cancelOrder_",
      "outputs": [],
      "payable": false,
      "stateMutability": "nonpayable",
      "type": "function"
    },
    {
      "constant": true,
      "inputs": [
        {
          "name": "buyCalldata",
          "type": "bytes"
        },
        {
          "name": "buyReplacementPattern",
          "type": "bytes"
        },
        {
          "name": "sellCalldata",
          "type": "bytes"
        },
        {
          "name": "sellReplacementPattern",
          "type": "bytes"
        }
      ],
      "name": "orderCalldataCanMatch",
      "outputs": [
        {
          "name": "",
          "type": "bool"
        }
      ],
      "payable": false,
      "stateMutability": "pure",
      "type": "function"
    },
    {
      "constant": true,
      "inputs": [
        {
          "name": "addrs",
          "type": "address[14]"
        },
        {
          "name": "uints",
          "type": "uint256[14]"
        },
        {
          "name": "sidesKindsHowToCalls",
          "type": "uint8[6]"
        },
        {
          "name": "calldataBuy",
          "type": "bytes"
        },
        {
          "name": "calldataSell",
          "type": "bytes"
        },
        {
          "name": "replacementPatternBuy",
          "type": "bytes"
        },
        {
          "name": "replacementPatternSell",
          "type": "bytes"
        },
        {
          "name": "staticExtradataBuy",
          "type": "bytes"
        },
        {
          "name": "staticExtradataSell",
          "type": "bytes"
        }
      ],
      "name": "calculateMatchPrice_",
      "outputs": [
        {
          "name": "",
          "type": "uint256"
        }
      ],
      "payable": false,
      "stateMutability": "view",
      "type": "function"
    },
    {
      "constant": true,
      "inputs": [
        {
          "name": "side",
          "type": "uint8"
        },
        {
          "name": "saleKind",
          "type": "uint8"
        },
        {
          "name": "basePrice",
          "type": "uint256"
        },
        {
          "name": "extra",
          "type": "uint256"
        },
        {
          "name": "listingTime",
          "type": "uint256"
        },
        {
          "name": "expirationTime",
          "type": "uint256"
        }
      ],
      "name": "calculateFinalPrice",
      "outputs": [
        {
          "name": "",
          "type": "uint256"
        }
      ],
      "payable": false,
      "stateMutability": "view",
      "type": "function"
    },
    {
      "constant": true,
      "inputs": [
        {
          "name": "addrs",
          "type": "address[7]"
        },
        {
          "name": "uints",
          "type": "uint256[7]"
        },
        {
          "name": "side",
          "type": "uint8"
        },
        {
          "name": "saleKind",
          "type": "uint8"
        },
        {
          "name": "howToCall",
          "type": "uint8"
        },
        {
          "name": "calldata",
          "type": "bytes"
        },
        {
          "name": "replacementPattern",
          "type": "bytes"
        },
        {
          "name": "staticExtradata",
          "type": "bytes"
        },
        {
          "name": "v",
          "type": "uint8"
        },
        {
          "name": "r",
          "type": "bytes32"
        },
        {
          "name": "s",
          "type": "bytes32"
        }
      ],
      "name": "validateOrder_",
      "outputs": [
        {
          "name": "",
          "type": "bool"
        }
      ],
      "payable": false,
      "stateMutability": "view",
      "type": "function"
    },
    {
      "constant": true,
      "inputs": [],
      "name": "registry",
      "outputs": [
        {
          "name": "",
          "type": "address"
        }
      ],
      "payable": false,
      "stateMutability": "view",
      "type": "function"
    },
    {
      "constant": true,
      "inputs": [
        {
          "name": "",
          "type": "bytes32"
        }
      ],
      "name": "cancelledOrFinalized",
      "outputs": [
        {
          "name": "",
          "type": "bool"
        }
      ],
      "payable": false,
      "stateMutability": "view",
      "type": "function"
    },
    {
      "constant": true,
      "inputs": [],
      "name": "exchangeToken",
      "outputs": [
        {
          "name": "",
          "type": "address"
        }
      ],
      "payable": false,
      "stateMutability": "view",
      "type": "function"
    },
    {
      "constant": false,
      "inputs": [
        {
          "name": "addrs",
          "type": "address[14]"
        },
        {
          "name": "uints",
          "type": "uint256[14]"
        },
        {
          "name": "sidesKindsHowToCalls",
          "type": "uint8[6]"
        },
        {
          "name": "calldataBuy",
          "type": "bytes"
        },
        {
          "name": "calldataSell",
          "type": "bytes"
        },
        {
          "name": "replacementPatternBuy",
          "type": "bytes"
        },
        {
          "name": "replacementPatternSell",
          "type": "bytes"
        },
        {
          "name": "staticExtradataBuy",
          "type": "bytes"
        },
        {
          "name": "staticExtradataSell",
          "type": "bytes"
        },
        {
          "name": "vs",
          "type": "uint8[2]"
        },
        {
          "name": "rssMetadata",
          "type": "bytes32[5]"
        }
      ],
      "name": "atomicMatch_",
      "outputs": [],
      "payable": false,
      "stateMutability": "nonpayable",
      "type": "function"
    },
    {
      "constant": true,
      "inputs": [
        {
          "name": "",
          "type": "bytes32"
        }
      ],
      "name": "approvedOrders",
      "outputs": [
        {
          "name": "",
          "type": "bool"
        }
      ],
      "payable": false,
      "stateMutability": "view",
      "type": "function"
    },
    {
      "constant": true,
      "inputs": [
        {
          "name": "addrs",
          "type": "address[7]"
        },
        {
          "name": "uints",
          "type": "uint256[7]"
        },
        {
          "name": "side",
          "type": "uint8"
        },
        {
          "name": "saleKind",
          "type": "uint8"
        },
        {
          "name": "howToCall",
          "type": "uint8"
        },
        {
          "name": "calldata",
          "type": "bytes"
        },
        {
          "name": "replacementPattern",
          "type": "bytes"
        },
        {
          "name": "staticExtradata",
          "type": "bytes"
        }
      ],
      "name": "calculateCurrentPrice_",
      "outputs": [
        {
          "name": "",
          "type": "uint256"
        }
      ],
      "payable": false,
      "stateMutability": "view",
      "type": "function"
    },
    {
      "constant": true,
      "inputs": [
        {
          "name": "addrs",
          "type": "address[7]"
        },
        {
          "name": "uints",
          "type": "uint256[7]"
        },
        {
          "name": "side",
          "type": "uint8"
        },
        {
          "name": "saleKind",
          "type": "uint8"
        },
        {
          "name": "howToCall",
          "type": "uint8"
        },
        {
          "name": "calldata",
          "type": "bytes"
        },
        {
          "name": "replacementPattern",
          "type": "bytes"
        },
        {
          "name": "staticExtradata",
          "type": "bytes"
        }
      ],
      "name": "hashOrder_",
      "outputs": [
        {
          "name": "",
          "type": "bytes32"
        }
      ],
      "payable": false,
      "stateMutability": "pure",
      "type": "function"
    },
    {
      "inputs": [
        {
          "name": "registryAddress",
          "type": "address"
        },
        {
          "name": "tokenAddress",
          "type": "address"
        }
      ],
      "payable": false,
      "stateMutability": "nonpayable",
      "type": "constructor"
    },
    {
      "anonymous": false,
      "inputs": [
        {
          "indexed": true,
          "name": "hash",
          "type": "bytes32"
        },
        {
          "indexed": false,
          "name": "exchange",
          "type": "address"
        },
        {
          "indexed": true,
          "name": "maker",
          "type": "address"
        },
        {
          "indexed": false,
          "name": "taker",
          "type": "address"
        },
        {
          "indexed": false,
          "name": "makerFee",
          "type": "uint256"
        },
        {
          "indexed": false,
          "name": "takerFee",
          "type": "uint256"
        },
        {
          "indexed": true,
          "name": "feeRecipient",
          "type": "address"
        },
        {
          "indexed": false,
          "name": "side",
          "type": "uint8"
        },
        {
          "indexed": false,
          "name": "saleKind",
          "type": "uint8"
        },
        {
          "indexed": false,
          "name": "target",
          "type": "address"
        },
        {
          "indexed": false,
          "name": "howToCall",
          "type": "uint8"
        },
        {
          "indexed": false,
          "name": "calldata",
          "type": "bytes"
        }
      ],
      "name": "OrderApprovedPartOne",
      "type": "event"
    },
    {
      "anonymous": false,
      "inputs": [
        {
          "indexed": true,
          "name": "hash",
          "type": "bytes32"
        },
        {
          "indexed": false,
          "name": "replacementPattern",
          "type": "bytes"
        },
        {
          "indexed": false,
          "name": "staticTarget",
          "type": "address"
        },
        {
          "indexed": false,
          "name": "staticExtradata",
          "type": "bytes"
        },
        {
          "indexed": false,
          "name": "paymentToken",
          "type": "address"
        },
        {
          "indexed": false,
          "name": "basePrice",
          "type": "uint256"
        },
        {
          "indexed": false,
          "name": "extra",
          "type": "uint256"
        },
        {
          "indexed": false,
          "name": "listingTime",
          "type": "uint256"
        },
        {
          "indexed": false,
          "name": "expirationTime",
          "type": "uint256"
        },
        {
          "indexed": false,
          "name": "salt",
          "type": "uint256"
        },
        {
          "indexed": false,
          "name": "orderbookInclusionDesired",
          "type": "bool"
        }
      ],
      "name": "OrderApprovedPartTwo",
      "type": "event"
    },
    {
      "anonymous": false,
      "inputs": [
        {
          "indexed": true,
          "name": "hash",
          "type": "bytes32"
        }
      ],
      "name": "OrderCancelled",
      "type": "event"
    },
    {
      "anonymous": false,
      "inputs": [
        {
          "indexed": false,
          "name": "buyHash",
          "type": "bytes32"
        },
        {
          "indexed": false,
          "name": "sellHash",
          "type": "bytes32"
        },
        {
          "indexed": true,
          "name": "maker",
          "type": "address"
        },
        {
          "indexed": true,
          "name": "taker",
          "type": "address"
        },
        {
          "indexed": false,
          "name": "price",
          "type": "uint256"
        },
        {
          "indexed": true,
          "name": "metadata",
          "type": "bytes32"
        }
      ],
      "name": "OrdersMatched",
      "type": "event"
    }
  ],
  "bytecode": "0x60606040526000805460ff19169055341561001957600080fd5b60405160408061396583398101604052808051919060200180516000805461010060a860020a031916610100600160a060020a039384160217815560018054600160a060020a03191695909216949094179055506138e79182915061007e90396000f3006060604052600436106100d75763ffffffff60e060020a60003504166306fdde0381146100dc57806310796a4714610166578063136f5b5a1461021b5780631665e6b314610431578063239e83df1461057657806335d91b851461064b578063562b2ebc1461079a578063582420bb146108b157806363d36c0b14610ad95780637627e94114610b045780637b10399914610c535780638076f00514610c82578063a25eb5d914610c98578063e1e9360414610cab578063e57d4adb14610f15578063f4c9180714610f2b578063f9c29e661461106a575b600080fd5b34156100e757600080fd5b6100ef6111a9565b60405160208082528190810183818151815260200191508051906020019080838360005b8381101561012b578082015183820152602001610113565b50505050905090810190601f1680156101585780820380516001836020036101000a031916815260200191505b509250505060405180910390f35b341561017157600080fd5b61020760048035600160a060020a03169060446024803590810190830135806020601f8201819004810201604051908101604052818152929190602084018383808284378201915050505050509190803590602001908201803590602001908080601f0160208091040260200160405190810160405281815292919060208401838380828437509496506111e095505050505050565b604051901515815260200160405180910390f35b341561022657600080fd5b61020760046101c481600e6101c0604051908101604052919082826101c08082843782019150505050509190806101c00190600e80602002604051908101604052919082826101c080828437820191505050505091908060c001906006806020026040519081016040529190828260c0808284375093959460208082019550903586018082019450359250829150601f8201819004810201604051908101604052818152929190602084018383808284378201915050505050509190803590602001908201803590602001908080601f01602080910402602001604051908101604052818152929190602084018383808284378201915050505050509190803590602001908201803590602001908080601f01602080910402602001604051908101604052818152929190602084018383808284378201915050505050509190803590602001908201803590602001908080601f01602080910402602001604051908101604052818152929190602084018383808284378201915050505050509190803590602001908201803590602001908080601f01602080910402602001604051908101604052818152929190602084018383808284378201915050505050509190803590602001908201803590602001908080601f0160208091040260200160405190810160405281815292919060208401838380828437509496506112eb95505050505050565b341561043c57600080fd5b610574600460e481600760e06040519081016040529190828260e080828437820191505050505091908060e001906007806020026040519081016040529190828260e08082843750939560ff8635811696602080820135831697506040808301359093169650929450608081019350606001358401808301929035918291601f83018190048102019051908101604052818152929190602084018383808284378201915050505050509190803590602001908201803590602001908080601f01602080910402602001604051908101604052818152929190602084018383808284378201915050505050509190803590602001908201803590602001908080601f0160208091040260200160405190810160405281815292919060208401838380828437509496505050509135151591506115cd9050565b005b341561058157600080fd5b6100ef60046024813581810190830135806020601f8201819004810201604051908101604052818152929190602084018383808284378201915050505050509190803590602001908201803590602001908080601f01602080910402602001604051908101604052818152929190602084018383808284378201915050505050509190803590602001908201803590602001908080601f01602080910402602001604051908101604052818152929190602084018383808284375094965061170a95505050505050565b341561065657600080fd5b610574600460e481600760e06040519081016040529190828260e080828437820191505050505091908060e001906007806020026040519081016040529190828260e08082843750939560ff8635811696602080820135831697506040808301359093169650929450608081019350606001358401808301929035918291601f83018190048102019051908101604052818152929190602084018383808284378201915050505050509190803590602001908201803590602001908080601f01602080910402602001604051908101604052818152929190602084018383808284378201915050505050509190803590602001908201803590602001908080601f0160208091040260200160405190810160405281815292919060208401838380828437509496505060ff8535169460208101359450604001359250611727915050565b34156107a557600080fd5b61020760046024813581810190830135806020601f8201819004810201604051908101604052818152929190602084018383808284378201915050505050509190803590602001908201803590602001908080601f01602080910402602001604051908101604052818152929190602084018383808284378201915050505050509190803590602001908201803590602001908080601f01602080910402602001604051908101604052818152929190602084018383808284378201915050505050509190803590602001908201803590602001908080601f01602080910402602001604051908101604052818152929190602084018383808284375094965061187895505050505050565b34156108bc57600080fd5b610ac760046101c481600e6101c0604051908101604052919082826101c08082843782019150505050509190806101c00190600e80602002604051908101604052919082826101c080828437820191505050505091908060c001906006806020026040519081016040529190828260c0808284375093959460208082019550903586018082019450359250829150601f8201819004810201604051908101604052818152929190602084018383808284378201915050505050509190803590602001908201803590602001908080601f01602080910402602001604051908101604052818152929190602084018383808284378201915050505050509190803590602001908201803590602001908080601f01602080910402602001604051908101604052818152929190602084018383808284378201915050505050509190803590602001908201803590602001908080601f01602080910402602001604051908101604052818152929190602084018383808284378201915050505050509190803590602001908201803590602001908080601f01602080910402602001604051908101604052818152929190602084018383808284378201915050505050509190803590602001908201803590602001908080601f0160208091040260200160405190810160405281815292919060208401838380828437509496506118a395505050505050565b60405190815260200160405180910390f35b3415610ae457600080fd5b610ac760ff6004358116906024351660443560643560843560a435611b75565b3415610b0f57600080fd5b610207600460e481600760e06040519081016040529190828260e080828437820191505050505091908060e001906007806020026040519081016040529190828260e08082843750939560ff8635811696602080820135831697506040808301359093169650929450608081019350606001358401808301929035918291601f83018190048102019051908101604052818152929190602084018383808284378201915050505050509190803590602001908201803590602001908080601f01602080910402602001604051908101604052818152929190602084018383808284378201915050505050509190803590602001908201803590602001908080601f0160208091040260200160405190810160405281815292919060208401838380828437509496505060ff8535169460208101359450604001359250611b90915050565b3415610c5e57600080fd5b610c66611cfb565b604051600160a060020a03909116815260200160405180910390f35b3415610c8d57600080fd5b610207600435611d0a565b3415610ca357600080fd5b610c66611d1f565b3415610cb657600080fd5b61057460046101c481600e6101c0604051908101604052919082826101c08082843782019150505050509190806101c00190600e80602002604051908101604052919082826101c080828437820191505050505091908060c001906006806020026040519081016040529190828260c0808284375093959460208082019550903586018082019450359250829150601f8201819004810201604051908101604052818152929190602084018383808284378201915050505050509190803590602001908201803590602001908080601f01602080910402602001604051908101604052818152929190602084018383808284378201915050505050509190803590602001908201803590602001908080601f01602080910402602001604051908101604052818152929190602084018383808284378201915050505050509190803590602001908201803590602001908080601f01602080910402602001604051908101604052818152929190602084018383808284378201915050505050509190803590602001908201803590602001908080601f01602080910402602001604051908101604052818152929190602084018383808284378201915050505050509190803590602001908201803590602001908080601f0160208091040260200160405190810160405281815292919060208401838380828437820191505050505050919080604001906002806020026040519081016040528092919082600260200280828437820191505050505091908060a001906005806020026040519081016040529190828260a08082843750939550611d33945050505050565b3415610f2057600080fd5b610207600435612052565b3415610f3657600080fd5b610ac7600460e481600760e06040519081016040529190828260e080828437820191505050505091908060e001906007806020026040519081016040529190828260e08082843750939560ff8635811696602080820135831697506040808301359093169650929450608081019350606001358401808301929035918291601f83018190048102019051908101604052818152929190602084018383808284378201915050505050509190803590602001908201803590602001908080601f01602080910402602001604051908101604052818152929190602084018383808284378201915050505050509190803590602001908201803590602001908080601f01602080910402602001604051908101604052818152929190602084018383808284375094965061206795505050505050565b341561107557600080fd5b610ac7600460e481600760e06040519081016040529190828260e080828437820191505050505091908060e001906007806020026040519081016040529190828260e08082843750939560ff8635811696602080820135831697506040808301359093169650929450608081019350606001358401808301929035918291601f83018190048102019051908101604052818152929190602084018383808284378201915050505050509190803590602001908201803590602001908080601f01602080910402602001604051908101604052818152929190602084018383808284378201915050505050509190803590602001908201803590602001908080601f01602080910402602001604051908101604052818152929190602084018383808284375094965061219b95505050505050565b60408051908101604052601781527f50726f6a6563742057797665726e2045786368616e6765000000000000000000602082015281565b60006111ea6137c8565b6000806111f9865186516122c2565b6040518059106112065750595b818152601f19601f830116810160200160405290509250600091505b84518210156112785784828151811061123757fe5b016020015160f860020a900460f860020a0283838151811061125557fe5b906020010190600160f860020a031916908160001a905350600190910190611222565b5060005b85518110156112d25785818151811061129157fe5b016020015160f860020a900460f860020a028386518301815181106112b257fe5b906020010190600160f860020a031916908160001a90535060010161127c565b60006040518451602086018a5afa979650505050505050565b60006112f56137da565b6112fd6137da565b610280604051908101604052808d51600160a060020a031681526020018d60016020020151600160a060020a0316815260200160408e0151600160a060020a031681526020018c5181526020018c60016020020151815260200160608e0151600160a060020a031681526020018b5160ff16600181111561137a57fe5b600181111561138557fe5b81526020018b6001602002015160ff1660018111156113a057fe5b60018111156113ab57fe5b815260200160808e0151600160a060020a0316815260200160408c015160ff1660018111156113d657fe5b60018111156113e157fe5b8152602081018b90526040810189905260600160a08e0151600160a060020a031681526020810187905260400160c08e0151600160a060020a0316815260200160408d0151815260200160608d0151815260200160808d0151815260200160a08d0151815260200160c08d0151905291506102806040519081016040528060e08e0151600160a060020a031681526020016101008e0151600160a060020a031681526020016101208e0151600160a060020a0316815260200160e08d015181526020016101008d015181526020016101408e0151600160a060020a0316815260200160608c015160ff1660018111156114d657fe5b60018111156114e157fe5b815260200160808c015160ff1660018111156114f957fe5b600181111561150457fe5b81526020016101608e0151600160a060020a0316815260200160a08c015160ff16600181111561153057fe5b600181111561153b57fe5b8152602081018a9052604081018890526060016101808e0151600160a060020a03168152602081018690526040016101a08e0151600160a060020a031681526020016101208d015181526020016101408d015181526020016101608d015181526020016101808d015181526020016101a08d0151905290506115bd82826122dc565b9c9b505050505050505050505050565b6115d56137da565b610280604051908101604052808b51600160a060020a031681526020018b60016020020151600160a060020a0316815260200160408c0151600160a060020a031681526020018a5181526020018a60016020020151815260200160608c0151600160a060020a0316815260200189600181111561164e57fe5b815260200188600181111561165f57fe5b815260200160808c0151600160a060020a0316815260200187600181111561168357fe5b8152602081018790526040810186905260600160a08c0151600160a060020a031681526020810185905260400160c08c0151600160a060020a0316815260200160408b0151815260200160608b0151815260200160808b0151815260200160a08b0151815260200160c08b0151905290506116fe8183612495565b50505050505050505050565b6117126137c8565b61171d8484846127e1565b50825b9392505050565b61186b610280604051908101604052808d51600160a060020a031681526020018d60016020020151600160a060020a0316815260200160408e0151600160a060020a031681526020018c5181526020018c60016020020151815260200160608e0151600160a060020a031681526020018b60018111156117a357fe5b81526020018a60018111156117b457fe5b815260200160808e0151600160a060020a031681526020018960018111156117d857fe5b8152602081018990526040810188905260600160a08e0151600160a060020a031681526020810187905260400160c08e0151600160a060020a0316815260200160408d0151815260200160608d0151815260200160808d0151815260200160a08d0151815260200160c08d015190526060604051908101604090815260ff871682526020820186905281018490526129eb565b5050505050505050505050565b60006118858584866127e1565b6118908386846127e1565b61189a8584612a6a565b95945050505050565b60006118ad6137da565b6118b56137da565b610280604051908101604052808d51600160a060020a031681526020018d60016020020151600160a060020a0316815260200160408e0151600160a060020a031681526020018c5181526020018c60016020020151815260200160608e0151600160a060020a031681526020018b5160ff16600181111561193257fe5b600181111561193d57fe5b81526020018b6001602002015160ff16600181111561195857fe5b600181111561196357fe5b815260200160808e0151600160a060020a0316815260200160408c015160ff16600181111561198e57fe5b600181111561199957fe5b8152602081018b90526040810189905260600160a08e0151600160a060020a031681526020810187905260400160c08e0151600160a060020a0316815260200160408d0151815260200160608d0151815260200160808d0151815260200160a08d0151815260200160c08d0151905291506102806040519081016040528060e08e0151600160a060020a031681526020016101008e0151600160a060020a031681526020016101208e0151600160a060020a0316815260200160e08d015181526020016101008d015181526020016101408e0151600160a060020a0316815260200160608c015160ff166001811115611a8e57fe5b6001811115611a9957fe5b815260200160808c015160ff166001811115611ab157fe5b6001811115611abc57fe5b81526020016101608e0151600160a060020a0316815260200160a08c015160ff166001811115611ae857fe5b6001811115611af357fe5b8152602081018a9052604081018890526060016101808e0151600160a060020a03168152602081018690526040016101a08e0151600160a060020a031681526020016101208d015181526020016101408d015181526020016101608d015181526020016101808d015181526020016101a08d0151905290506115bd8282612afe565b6000611b85878787878787612b8c565b979650505050505050565b6000611b9a6137da565b610280604051908101604052808e51600160a060020a031681526020018e60016020020151600160a060020a0316815260200160408f0151600160a060020a031681526020018d5181526020018d60016020020151815260200160608f0151600160a060020a031681526020018c6001811115611c1357fe5b81526020018b6001811115611c2457fe5b815260200160808f0151600160a060020a031681526020018a6001811115611c4857fe5b8152602081018a90526040810189905260600160a08f0151600160a060020a031681526020810188905260400160c08f0151600160a060020a0316815260200160408e0151815260200160608e0151815260200160808e0151815260200160a08e0151815260200160c08e015190529050611cea611cc582612c1f565b826060604051908101604090815260ff8a168252602082018990528101879052612ce2565b9d9c50505050505050505050505050565b600154600160a060020a031681565b60026020526000908152604090205460ff1681565b6000546101009004600160a060020a031681565b61186b610280604051908101604052808d51600160a060020a031681526020018d60016020020151600160a060020a0316815260200160408e0151600160a060020a031681526020018c5181526020018c60016020020151815260200160608e0151600160a060020a031681526020018b5160ff166001811115611db357fe5b6001811115611dbe57fe5b81526020018b6001602002015160ff166001811115611dd957fe5b6001811115611de457fe5b815260200160808e0151600160a060020a0316815260200160408c015160ff166001811115611e0f57fe5b6001811115611e1a57fe5b8152602081018b90526040810189905260600160a08e0151600160a060020a031681526020810187905260400160c08e0151600160a060020a0316815260200160408d0151815260200160608d0151815260200160808d0151815260200160a08d0151815260200160c08d01519052606060405190810160405280855160ff1681526020018451815260200184600160200201519052610280604051908101604052808f60076020020151600160a060020a031681526020018f60086020020151600160a060020a031681526020018f60096020020151600160a060020a0316815260200160e08f015181526020016101008f015181526020018f600a6020020151600160a060020a0316815260200160608e015160ff166001811115611f3d57fe5b6001811115611f4857fe5b815260200160808e015160ff166001811115611f6057fe5b6001811115611f6b57fe5b81526020018f600b6020020151600160a060020a0316815260200160a08e015160ff166001811115611f9957fe5b6001811115611fa457fe5b8152602081018c9052604081018a90526060018f600c6020020151600160a060020a03168152602081018890526040018f600d6020020151600160a060020a031681526020016101208f015181526020016101408f015181526020016101608f015181526020016101808f015181526020016101a08f01519052606060405190810160405280602088015160ff16815260200160408701518152602001606087015190526080860151612e31565b60036020526000908152604090205460ff1681565b600061218e610280604051908101604052808b51600160a060020a031681526020018b60016020020151600160a060020a0316815260200160408c0151600160a060020a031681526020018a5181526020018a60016020020151815260200160608c0151600160a060020a031681526020018960018111156120e557fe5b81526020018860018111156120f657fe5b815260200160808c0151600160a060020a0316815260200187600181111561211a57fe5b8152602081018790526040810186905260600160a08c0151600160a060020a031681526020810185905260400160c08c0151600160a060020a0316815260200160408b0151815260200160608b0151815260200160808b0151815260200160a08b0151815260200160c08b01519052613224565b9998505050505050505050565b600061218e610280604051908101604052808b51600160a060020a031681526020018b60016020020151600160a060020a0316815260200160408c0151600160a060020a031681526020018a5181526020018a60016020020151815260200160608c0151600160a060020a0316815260200189600181111561221957fe5b815260200188600181111561222a57fe5b815260200160808c0151600160a060020a0316815260200187600181111561224e57fe5b8152602081018790526040810186905260600160a08c0151600160a060020a031681526020810185905260400160c08c0151600160a060020a0316815260200160408b0151815260200160608b0151815260200160808b0151815260200160a08b0151815260200160c08b01519052612c1f565b6000828201838110156122d157fe5b8091505b5092915050565b6000808360c0015160018111156122ef57fe5b14801561230b575060018260c00151600181111561230957fe5b145b80156123325750816101c00151600160a060020a0316836101c00151600160a060020a0316145b801561236e575060006040830151600160a060020a0316148061236e57508260200151600160a060020a03168260400151600160a060020a0316145b80156123aa575060006040840151600160a060020a031614806123aa57508160200151600160a060020a03168360400151600160a060020a0316145b801561240d5750600060a0830151600160a060020a03161480156123dc5750600060a0840151600160a060020a031614155b8061240d5750600060a0830151600160a060020a03161415801561240d5750600060a0840151600160a060020a0316145b80156124345750816101000151600160a060020a0316836101000151600160a060020a0316145b801561245f5750816101200151600181111561244c57fe5b836101200151600181111561245d57fe5b145b801561247a575061247a836102200151846102400151613256565b80156117205750611720826102200151836102400151613256565b60008260200151600160a060020a031633600160a060020a03161415156124bb57600080fd5b6124c483612c1f565b60008181526003602052604090205490915060ff16156124e357600080fd5b6000818152600360205260409020805460ff1916600117905560a0830151600160a060020a03168360200151600160a060020a0316827faee3673166cb20f9607e8257375d5244a4f82611eb34a8319dd0b527e89460bf86518760400151886060015189608001518a60c001518b60e001518c61010001518d61012001518e6101400151604051600160a060020a03808b1682528916602082015260408101889052606081018790526080810186600181111561259c57fe5b60ff1681526020018560018111156125b057fe5b60ff168152600160a060020a03851660208201526040018360018111156125d357fe5b60ff16815260200180602001828103825283818151815260200191508051906020019080838360005b838110156126145780820151838201526020016125fc565b50505050905090810190601f1680156126415780820380516001836020036101000a031916815260200191505b509a505050505050505050505060405180910390a4807f6b227a8fe336bb14cfe503246633ca4550cd8065f1933a5ffaf83a955eaa40ed610160850151856101800151866101a00151876101c00151886101e001518961020001518a61022001518b61024001518c61026001518c604051600160a060020a03808b166020830152881660608201526080810187905260a0810186905260c0810185905260e0810184905261010081018390528115156101208201526101408082528190604082019082018d818151815260200191508051906020019080838360005b8381101561273557808201518382015260200161271d565b50505050905090810190601f1680156127625780820380516001836020036101000a031916815260200191505b5083810382528b818151815260200191508051906020019080838360005b83811015612798578082015183820152602001612780565b50505050905090810190601f1680156127c55780820380516001836020036101000a031916815260200191505b509c5050505050505050505050505060405180910390a2505050565b6127e9613892565b60008061010060405190810160409081527f800000000000000000000000000000000000000000000000000000000000000082527f400000000000000000000000000000000000000000000000000000000000000060208301527f2000000000000000000000000000000000000000000000000000000000000000908201527f100000000000000000000000000000000000000000000000000000000000000060608201527f080000000000000000000000000000000000000000000000000000000000000060808201527f040000000000000000000000000000000000000000000000000000000000000060a08201527f020000000000000000000000000000000000000000000000000000000000000060c082015260f860020a60e08201529250845186511461291a57600080fd5b6008865181151561292757fe5b048451101561293557600080fd5b600091505b85518210156129e35782600883066008811061295257fe5b602002015184600884048151811061296657fe5b016020015160f860020a900460f860020a0216600160f860020a031916600060f860020a021490508015156129d8578482815181106129a157fe5b016020015160f860020a900460f860020a028683815181106129bf57fe5b906020010190600160f860020a031916908160001a9053505b60019091019061293a565b505050505050565b60006129f78383613272565b90508260200151600160a060020a031633600160a060020a0316141515612a1d57600080fd5b60008181526002602052604090819020805460ff1916600117905581907f5152abf959f6564662358c2e52b702259b78bac5ee7842a0f01937e670efcc7d905160405180910390a2505050565b6000808251845114612a7f57600091506122d5565b5060005b8351811015612af457828181518110612a9857fe5b016020015160f860020a900460f860020a02600160f860020a031916848281518110612ac057fe5b016020015160f860020a900460f860020a02600160f860020a031916141515612aec57600091506122d5565b600101612a83565b5060019392505050565b6000806000612b2d8460c001518560e00151866101e00151876102000151886102200151896102400151612b8c565b9150612b598560c001518660e00151876101e001518861020001518961022001518a6102400151612b8c565b905081811015612b6857600080fd5b600060a0850151600160a060020a03161415612b84578061189a565b509392505050565b60008080876001811115612b9c57fe5b1415612baa57859150612c14565b6001876001811115612bb857fe5b1415612c1457612be3612bd486612bcf4288613296565b6132a8565b612bde8587613296565b6132d3565b90506001886001811115612bf357fe5b1415612c0a57612c038682613296565b9150612c14565b612c0386826122c2565b509695505050505050565b6000612c296137c8565b600060408051908101604052601c81527f19457468657265756d205369676e6564204d6573736167653a0a3332000000006020820152915081612c6b856132ea565b612c74866134a1565b6040518084805190602001908083835b60208310612ca35780518252601f199092019160209182019101612c84565b6001836020036101000a038019825116818451161790925250505091909101938452505060208201526040908101915051908190039020949350505050565b6000600160a060020a0330168351600160a060020a031614612d0657506000611720565b60008481526002602052604090205460ff1615612d2557506000611720565b612d388360e001518461024001516135a0565b1515612d4657506000611720565b8260200151600160a060020a031633600160a060020a03161415612d6c57506001611720565b60008481526003602052604090205460ff1615612d8b57506001611720565b8260200151600160a060020a03166001858451856020015186604001516040516000815260200160405260006040516020015260405193845260ff90921660208085019190915260408085019290925260608401929092526080909201915160208103908084039060008661646e5a03f11515612e0757600080fd5b505060206040510351600160a060020a03161415612e2757506001611720565b5060009392505050565b600080548190819081908190819060ff1615612e4c57600080fd5b6000805460ff19166001179055612e638b8b613272565b9550612e6f8989613272565b9450612e7b8b8a6122dc565b1515612e8657600080fd5b886101000151803b9450925060008411612e9f57600080fd5b60008b6101600151511115612ec857612ec88b61014001518a61014001518d61016001516127e1565b6000896101600151511115612ef157612ef18961014001518c61014001518b61016001516127e1565b612f058b61014001518a6101400151612a6a565b1515612f1057600080fd5b600154600160a060020a031663c455279160208b015160006040516020015260405160e060020a63ffffffff8416028152600160a060020a039091166004820152602401602060405180830381600087803b1515612f6d57600080fd5b6102c65a03f11515612f7e57600080fd5b5050506040518051925050600160a060020a0382161515612f9e57600080fd5b6000868152600260205260408082208054600160ff1991821681179092558884529190922080549091169091179055612fd78b8a6135c0565b905081600160a060020a0316631b0f7ba98a61010001518b61012001518c61014001516000604051602001526040518463ffffffff1660e060020a0281526004018084600160a060020a0316600160a060020a0316815260200183600181111561303d57fe5b60ff16815260200180602001828103825283818151815260200191508051906020019080838360005b8381101561307e578082015183820152602001613066565b50505050905090810190601f1680156130ab5780820380516001836020036101000a031916815260200191505b50945050505050602060405180830381600087803b15156130cb57600080fd5b6102c65a03f115156130dc57600080fd5b5050506040518051905015156130f157600080fd5b60006101808c0151600160a060020a03161461312c576131218b61018001518a61014001518d6101a001516111e0565b151561312c57600080fd5b60006101808a0151600160a060020a0316146131675761315c8961018001518a61014001518b6101a001516111e0565b151561316757600080fd5b86600060a08b0151600160a060020a0316141561318857896020015161318e565b8b602001515b600160a060020a0316600060a08c0151600160a060020a031614156131b7578c602001516131bd565b8a602001515b600160a060020a03167fc4109843e0b7d514e4c093114b863f8e7d8d9a458c372cd51bfe526b588006c989898660405192835260208301919091526040808301919091526060909101905180910390a450506000805460ff19169055505050505050505050565b60006132508260c001518360e00151846101e00151856102000151866102200151876102400151612b8c565b92915050565b6000428310801561172057508115806117205750504210919050565b60008061327e84612c1f565b905061328b818585612ce2565b15156122d157600080fd5b6000828211156132a257fe5b50900390565b6000808315156132bb57600091506122d5565b508282028284828115156132cb57fe5b04146122d157fe5b60008082848115156132e157fe5b04949350505050565b6000815182602001518360400151846060015185608001518660a001518760c001518860e001518961010001518a61012001518b61014001518c61016001516040516c01000000000000000000000000600160a060020a03808f16820283528d8116820260148401528c811682026028840152603c83018c9052605c83018b9052891602607c8201526090810187600181111561338357fe5b60ff1660f860020a02815260010186600181111561339d57fe5b60ff1660f860020a02815260010185600160a060020a0316600160a060020a03166c010000000000000000000000000281526014018460018111156133de57fe5b60ff1660f860020a02815260010183805190602001908083835b602083106134175780518252601f1990920191602091820191016133f8565b6001836020036101000a038019825116818451161790925250505091909101905082805190602001908083835b602083106134635780518252601f199092019160209182019101613444565b6001836020036101000a0380198251168184511617909252505050919091019d5060409c505050505050505050505050505180910390209050919050565b6000816101800151826101a00151836101c00151846101e001518561020001518661022001518761024001518861026001516040516c01000000000000000000000000600160a060020a038a160281526014810188805190602001908083835b602083106135205780518252601f199092019160209182019101613501565b6001836020036101000a03801982511681845116808217855250505050505090500187600160a060020a0316600160a060020a03166c010000000000000000000000000281526014018681526020018581526020018481526020018381526020018281526020019850505050505050505060405180910390209050919050565b6000808360018111156135af57fe5b148061172057505060009011919050565b6000806135cd8484612afe565b9050600060a0840151600160a060020a03161461362c578360800151836080015111156135f957600080fd5b61361083602001518460a001518560600151613715565b61362784602001518460a001518560800151613715565b61366f565b82608001518460800151111561364157600080fd5b61365884602001518560a001518660600151613715565b61366f83602001518560a001518660800151613715565b60008111156122d157826101c00151600160a060020a03166323b872dd856020015185602001518460006040516020015260405160e060020a63ffffffff8616028152600160a060020a0393841660048201529190921660248201526044810191909152606401602060405180830381600087803b15156136ef57600080fd5b6102c65a03f1151561370057600080fd5b5050506040518051905015156122d157600080fd5b60008111156137c357600060019054906101000a9004600160a060020a0316600160a060020a03166323b872dd84848460006040516020015260405160e060020a63ffffffff8616028152600160a060020a0393841660048201529190921660248201526044810191909152606401602060405180830381600087803b151561379d57600080fd5b6102c65a03f115156137ae57600080fd5b5050506040518051905015156137c357600080fd5b505050565b60206040519081016040526000815290565b6102806040519081016040908152600080835260208301819052908201819052606082018190526080820181905260a0820181905260c0820181905260e08201819052610100820181905261012082015261014081016138386137c8565b81526020016138456137c8565b8152600060208201526040016138596137c8565b81526020016000600160a060020a0316815260200160008152602001600081526020016000815260200160008152602001600081525090565b6101006040519081016040526008815b6000815260001990910190602001816138a257905050905600a165627a7a72305820984a41db91f5420a2be4a862f49a9fe3287aa86004e31d7941555c28a54d4fba0029",
  "source": "/*\n\n  << Project Wyvern Exchange >>\n\n*/\n\npragma solidity 0.4.18;\n\nimport \"./exchange/Exchange.sol\";\n\n/**\n * @title WyvernExchange\n * @author Project Wyvern Developers\n */\ncontract WyvernExchange is Exchange {\n\n    string public constant name = \"Project Wyvern Exchange\";\n\n    /**\n     * @dev Initialize a WyvernExchange instance\n     * @param registryAddress Address of the registry instance which this Exchange instance will use\n     * @param tokenAddress Address of the token used for protocol fees\n     */\n    function WyvernExchange (ProxyRegistry registryAddress, ERC20 tokenAddress) public {\n        exchangeToken = tokenAddress;\n        registry = registryAddress;\n    }\n\n}\n",
  "sourcePath": "/home/cwgoes/working/crypto/wyvern/wyvern-ethereum/contracts/WyvernExchange.sol",
  "compiler": {
    "name": "solc",
    "version": "0.4.18+commit.9cf6e910.Emscripten.clang"
  },
  "schemaVersion": "1.0.1",
  "updatedAt": "2018-02-18T03:43:47.867Z"
}