{
  "contractName": "WyvernExchange",
  "abi": [
    {
      "constant": true,
      "inputs": [],
      "name": "name",
      "outputs": [
        {
          "name": "",
          "type": "string"
        }
      ],
      "payable": false,
      "stateMutability": "view",
      "type": "function"
    },
    {
      "constant": true,
      "inputs": [],
      "name": "exchangeTokenAddress",
      "outputs": [
        {
          "name": "",
          "type": "address"
        }
      ],
      "payable": false,
      "stateMutability": "view",
      "type": "function"
    },
    {
      "constant": false,
      "inputs": [
        {
          "name": "user",
          "type": "address"
        },
        {
          "name": "token",
          "type": "address"
        },
        {
          "name": "amount",
          "type": "uint256"
        },
        {
          "name": "dest",
          "type": "address"
        }
      ],
      "name": "withdraw",
      "outputs": [],
      "payable": false,
      "stateMutability": "nonpayable",
      "type": "function"
    },
    {
      "constant": true,
      "inputs": [
        {
          "name": "array",
          "type": "bytes"
        },
        {
          "name": "desired",
          "type": "bytes"
        },
        {
          "name": "mask",
          "type": "bytes"
        }
      ],
      "name": "guardedArrayReplace",
      "outputs": [
        {
          "name": "",
          "type": "bytes"
        }
      ],
      "payable": false,
      "stateMutability": "pure",
      "type": "function"
    },
    {
      "constant": true,
      "inputs": [
        {
          "name": "addrs",
          "type": "address[6]"
        },
        {
          "name": "uints",
          "type": "uint256[7]"
        },
        {
          "name": "side",
          "type": "uint8"
        },
        {
          "name": "saleKind",
          "type": "uint8"
        },
        {
          "name": "howToCall",
          "type": "uint8"
        },
        {
          "name": "calldata",
          "type": "bytes"
        },
        {
          "name": "replacementPattern",
          "type": "bytes"
        },
        {
          "name": "metadataHash",
          "type": "bytes"
        },
        {
          "name": "v",
          "type": "uint8"
        },
        {
          "name": "r",
          "type": "bytes32"
        },
        {
          "name": "s",
          "type": "bytes32"
        }
      ],
      "name": "validateOrder_",
      "outputs": [
        {
          "name": "",
          "type": "bool"
        }
      ],
      "payable": false,
      "stateMutability": "view",
      "type": "function"
    },
    {
      "constant": false,
      "inputs": [
        {
          "name": "addrs",
          "type": "address[12]"
        },
        {
          "name": "uints",
          "type": "uint256[14]"
        },
        {
          "name": "sidesKindsHowToCalls",
          "type": "uint8[6]"
        },
        {
          "name": "calldataBuy",
          "type": "bytes"
        },
        {
          "name": "calldataSell",
          "type": "bytes"
        },
        {
          "name": "replacementPatternBuy",
          "type": "bytes"
        },
        {
          "name": "replacementPatternSell",
          "type": "bytes"
        },
        {
          "name": "metadataHashBuy",
          "type": "bytes"
        },
        {
          "name": "metadataHashSell",
          "type": "bytes"
        },
        {
          "name": "vs",
          "type": "uint8[2]"
        },
        {
          "name": "rss",
          "type": "bytes32[4]"
        }
      ],
      "name": "atomicMatch_",
      "outputs": [],
      "payable": false,
      "stateMutability": "nonpayable",
      "type": "function"
    },
    {
      "constant": true,
      "inputs": [
        {
          "name": "user",
          "type": "address"
        },
        {
          "name": "token",
          "type": "address"
        }
      ],
      "name": "lockedFor",
      "outputs": [
        {
          "name": "",
          "type": "uint256"
        }
      ],
      "payable": false,
      "stateMutability": "view",
      "type": "function"
    },
    {
      "constant": true,
      "inputs": [
        {
          "name": "",
          "type": "bytes32"
        }
      ],
      "name": "topBids",
      "outputs": [
        {
          "name": "bidder",
          "type": "address"
        },
        {
          "name": "amount",
          "type": "uint256"
        }
      ],
      "payable": false,
      "stateMutability": "view",
      "type": "function"
    },
    {
      "constant": false,
      "inputs": [
        {
          "name": "addrs",
          "type": "address[6]"
        },
        {
          "name": "uints",
          "type": "uint256[7]"
        },
        {
          "name": "side",
          "type": "uint8"
        },
        {
          "name": "saleKind",
          "type": "uint8"
        },
        {
          "name": "howToCall",
          "type": "uint8"
        },
        {
          "name": "calldata",
          "type": "bytes"
        },
        {
          "name": "replacementPattern",
          "type": "bytes"
        },
        {
          "name": "metadataHash",
          "type": "bytes"
        },
        {
          "name": "v",
          "type": "uint8"
        },
        {
          "name": "r",
          "type": "bytes32"
        },
        {
          "name": "s",
          "type": "bytes32"
        },
        {
          "name": "amount",
          "type": "uint256"
        }
      ],
      "name": "bid_",
      "outputs": [],
      "payable": false,
      "stateMutability": "nonpayable",
      "type": "function"
    },
    {
      "constant": true,
      "inputs": [],
      "name": "registry",
      "outputs": [
        {
          "name": "",
          "type": "address"
        }
      ],
      "payable": false,
      "stateMutability": "view",
      "type": "function"
    },
    {
      "constant": false,
      "inputs": [
        {
          "name": "user",
          "type": "address"
        },
        {
          "name": "token",
          "type": "address"
        },
        {
          "name": "amount",
          "type": "uint256"
        }
      ],
      "name": "deposit",
      "outputs": [],
      "payable": false,
      "stateMutability": "nonpayable",
      "type": "function"
    },
    {
      "constant": true,
      "inputs": [
        {
          "name": "",
          "type": "address"
        },
        {
          "name": "",
          "type": "address"
        }
      ],
      "name": "balances",
      "outputs": [
        {
          "name": "",
          "type": "uint256"
        }
      ],
      "payable": false,
      "stateMutability": "view",
      "type": "function"
    },
    {
      "constant": false,
      "inputs": [
        {
          "name": "addrs",
          "type": "address[6]"
        },
        {
          "name": "uints",
          "type": "uint256[7]"
        },
        {
          "name": "side",
          "type": "uint8"
        },
        {
          "name": "saleKind",
          "type": "uint8"
        },
        {
          "name": "howToCall",
          "type": "uint8"
        },
        {
          "name": "calldata",
          "type": "bytes"
        },
        {
          "name": "replacementPattern",
          "type": "bytes"
        },
        {
          "name": "metadataHash",
          "type": "bytes"
        },
        {
          "name": "orderbookInclusionDesired",
          "type": "bool"
        }
      ],
      "name": "approveOrder_",
      "outputs": [],
      "payable": false,
      "stateMutability": "nonpayable",
      "type": "function"
    },
    {
      "constant": true,
      "inputs": [
        {
          "name": "",
          "type": "address"
        },
        {
          "name": "",
          "type": "address"
        }
      ],
      "name": "locked",
      "outputs": [
        {
          "name": "",
          "type": "uint256"
        }
      ],
      "payable": false,
      "stateMutability": "view",
      "type": "function"
    },
    {
      "constant": true,
      "inputs": [
        {
          "name": "user",
          "type": "address"
        },
        {
          "name": "token",
          "type": "address"
        }
      ],
      "name": "availableFor",
      "outputs": [
        {
          "name": "",
          "type": "uint256"
        }
      ],
      "payable": false,
      "stateMutability": "view",
      "type": "function"
    },
    {
      "constant": true,
      "inputs": [
        {
          "name": "addrs",
          "type": "address[6]"
        },
        {
          "name": "uints",
          "type": "uint256[7]"
        },
        {
          "name": "side",
          "type": "uint8"
        },
        {
          "name": "saleKind",
          "type": "uint8"
        },
        {
          "name": "howToCall",
          "type": "uint8"
        },
        {
          "name": "calldata",
          "type": "bytes"
        },
        {
          "name": "replacementPattern",
          "type": "bytes"
        },
        {
          "name": "metadataHash",
          "type": "bytes"
        }
      ],
      "name": "hashOrder_",
      "outputs": [
        {
          "name": "",
          "type": "bytes32"
        }
      ],
      "payable": false,
      "stateMutability": "pure",
      "type": "function"
    },
    {
      "constant": false,
      "inputs": [
        {
          "name": "addrs",
          "type": "address[6]"
        },
        {
          "name": "uints",
          "type": "uint256[7]"
        },
        {
          "name": "side",
          "type": "uint8"
        },
        {
          "name": "saleKind",
          "type": "uint8"
        },
        {
          "name": "howToCall",
          "type": "uint8"
        },
        {
          "name": "calldata",
          "type": "bytes"
        },
        {
          "name": "replacementPattern",
          "type": "bytes"
        },
        {
          "name": "metadataHash",
          "type": "bytes"
        },
        {
          "name": "v",
          "type": "uint8"
        },
        {
          "name": "r",
          "type": "bytes32"
        },
        {
          "name": "s",
          "type": "bytes32"
        }
      ],
      "name": "cancelOrder_",
      "outputs": [],
      "payable": false,
      "stateMutability": "nonpayable",
      "type": "function"
    },
    {
      "constant": true,
      "inputs": [
        {
          "name": "user",
          "type": "address"
        },
        {
          "name": "token",
          "type": "address"
        }
      ],
      "name": "balanceFor",
      "outputs": [
        {
          "name": "",
          "type": "uint256"
        }
      ],
      "payable": false,
      "stateMutability": "view",
      "type": "function"
    },
    {
      "inputs": [
        {
          "name": "registryAddress",
          "type": "address"
        },
        {
          "name": "tokenAddress",
          "type": "address"
        }
      ],
      "payable": false,
      "stateMutability": "nonpayable",
      "type": "constructor"
    },
    {
      "anonymous": false,
      "inputs": [
        {
          "indexed": false,
          "name": "hash",
          "type": "bytes32"
        },
        {
          "indexed": true,
          "name": "approver",
          "type": "address"
        },
        {
          "components": [
            {
              "name": "exchange",
              "type": "address"
            },
            {
              "name": "maker",
              "type": "address"
            },
            {
              "name": "taker",
              "type": "address"
            },
            {
              "name": "makerFee",
              "type": "uint256"
            },
            {
              "name": "takerFee",
              "type": "uint256"
            },
            {
              "name": "feeRecipient",
              "type": "address"
            },
            {
              "name": "side",
              "type": "uint8"
            },
            {
              "name": "saleKind",
              "type": "uint8"
            },
            {
              "name": "target",
              "type": "address"
            },
            {
              "name": "howToCall",
              "type": "uint8"
            },
            {
              "name": "calldata",
              "type": "bytes"
            },
            {
              "name": "replacementPattern",
              "type": "bytes"
            },
            {
              "name": "metadataHash",
              "type": "bytes"
            },
            {
              "name": "paymentToken",
              "type": "address"
            },
            {
              "name": "basePrice",
              "type": "uint256"
            },
            {
              "name": "extra",
              "type": "uint256"
            },
            {
              "name": "listingTime",
              "type": "uint256"
            },
            {
              "name": "expirationTime",
              "type": "uint256"
            },
            {
              "name": "salt",
              "type": "uint256"
            }
          ],
          "indexed": false,
          "name": "order",
          "type": "tuple"
        },
        {
          "indexed": false,
          "name": "orderbookInclusionDesired",
          "type": "bool"
        }
      ],
      "name": "OrderApproved",
      "type": "event"
    },
    {
      "anonymous": false,
      "inputs": [
        {
          "indexed": false,
          "name": "hash",
          "type": "bytes32"
        }
      ],
      "name": "OrderCancelled",
      "type": "event"
    },
    {
      "anonymous": false,
      "inputs": [
        {
          "indexed": false,
          "name": "hash",
          "type": "bytes32"
        },
        {
          "indexed": true,
          "name": "bidder",
          "type": "address"
        },
        {
          "indexed": false,
          "name": "amount",
          "type": "uint256"
        },
        {
          "indexed": false,
          "name": "timestamp",
          "type": "uint256"
        }
      ],
      "name": "OrderBidOn",
      "type": "event"
    },
    {
      "anonymous": false,
      "inputs": [
        {
          "components": [
            {
              "name": "exchange",
              "type": "address"
            },
            {
              "name": "maker",
              "type": "address"
            },
            {
              "name": "taker",
              "type": "address"
            },
            {
              "name": "makerFee",
              "type": "uint256"
            },
            {
              "name": "takerFee",
              "type": "uint256"
            },
            {
              "name": "feeRecipient",
              "type": "address"
            },
            {
              "name": "side",
              "type": "uint8"
            },
            {
              "name": "saleKind",
              "type": "uint8"
            },
            {
              "name": "target",
              "type": "address"
            },
            {
              "name": "howToCall",
              "type": "uint8"
            },
            {
              "name": "calldata",
              "type": "bytes"
            },
            {
              "name": "replacementPattern",
              "type": "bytes"
            },
            {
              "name": "metadataHash",
              "type": "bytes"
            },
            {
              "name": "paymentToken",
              "type": "address"
            },
            {
              "name": "basePrice",
              "type": "uint256"
            },
            {
              "name": "extra",
              "type": "uint256"
            },
            {
              "name": "listingTime",
              "type": "uint256"
            },
            {
              "name": "expirationTime",
              "type": "uint256"
            },
            {
              "name": "salt",
              "type": "uint256"
            }
          ],
          "indexed": false,
          "name": "buy",
          "type": "tuple"
        },
        {
          "components": [
            {
              "name": "exchange",
              "type": "address"
            },
            {
              "name": "maker",
              "type": "address"
            },
            {
              "name": "taker",
              "type": "address"
            },
            {
              "name": "makerFee",
              "type": "uint256"
            },
            {
              "name": "takerFee",
              "type": "uint256"
            },
            {
              "name": "feeRecipient",
              "type": "address"
            },
            {
              "name": "side",
              "type": "uint8"
            },
            {
              "name": "saleKind",
              "type": "uint8"
            },
            {
              "name": "target",
              "type": "address"
            },
            {
              "name": "howToCall",
              "type": "uint8"
            },
            {
              "name": "calldata",
              "type": "bytes"
            },
            {
              "name": "replacementPattern",
              "type": "bytes"
            },
            {
              "name": "metadataHash",
              "type": "bytes"
            },
            {
              "name": "paymentToken",
              "type": "address"
            },
            {
              "name": "basePrice",
              "type": "uint256"
            },
            {
              "name": "extra",
              "type": "uint256"
            },
            {
              "name": "listingTime",
              "type": "uint256"
            },
            {
              "name": "expirationTime",
              "type": "uint256"
            },
            {
              "name": "salt",
              "type": "uint256"
            }
          ],
          "indexed": false,
          "name": "sell",
          "type": "tuple"
        }
      ],
      "name": "OrdersMatched",
      "type": "event"
    },
    {
      "anonymous": false,
      "inputs": [
        {
          "indexed": true,
          "name": "user",
          "type": "address"
        },
        {
          "indexed": true,
          "name": "token",
          "type": "address"
        },
        {
          "indexed": false,
          "name": "amount",
          "type": "uint256"
        }
      ],
      "name": "Credited",
      "type": "event"
    },
    {
      "anonymous": false,
      "inputs": [
        {
          "indexed": true,
          "name": "user",
          "type": "address"
        },
        {
          "indexed": true,
          "name": "token",
          "type": "address"
        },
        {
          "indexed": false,
          "name": "amount",
          "type": "uint256"
        }
      ],
      "name": "Debited",
      "type": "event"
    },
    {
      "anonymous": false,
      "inputs": [
        {
          "indexed": true,
          "name": "user",
          "type": "address"
        },
        {
          "indexed": true,
          "name": "token",
          "type": "address"
        },
        {
          "indexed": false,
          "name": "amount",
          "type": "uint256"
        }
      ],
      "name": "Locked",
      "type": "event"
    },
    {
      "anonymous": false,
      "inputs": [
        {
          "indexed": true,
          "name": "user",
          "type": "address"
        },
        {
          "indexed": true,
          "name": "token",
          "type": "address"
        },
        {
          "indexed": false,
          "name": "amount",
          "type": "uint256"
        }
      ],
      "name": "Unlocked",
      "type": "event"
    }
  ],
  "bytecode": "0x60606040526002805460ff19169055341561001957600080fd5b60405160408061323883398101604052808051919060200180516002805461010060a860020a031916610100600160a060020a039384160217905560038054600160a060020a0319169490911693909317909255506131b990508061007f6000396000f3006060604052600436106100e25763ffffffff60e060020a60003504166306fdde0381146100e75780630e5d2e21146101715780630e917f76146101a0578063239e83df146101d1578063386cc797146102a65780633c88e9a8146104095780634e10c95d14610673578063532aa1c8146106aa57806370dc7063146106e25780637b103999146108365780638340f54914610849578063c23f001f14610871578063d404a96c14610896578063db20266f146109d9578063db2ec6bd146109fe578063e22b847814610a23578063e60a95d714610b62578063f771e78b14610cb1575b600080fd5b34156100f257600080fd5b6100fa610cd6565b60405160208082528190810183818151815260200191508051906020019080838360005b8381101561013657808201518382015260200161011e565b50505050905090810190601f1680156101635780820380516001836020036101000a031916815260200191505b509250505060405180910390f35b341561017c57600080fd5b610184610d0d565b604051600160a060020a03909116815260200160405180910390f35b34156101ab57600080fd5b6101cf600160a060020a036004358116906024358116906044359060643516610d21565b005b34156101dc57600080fd5b6100fa60046024813581810190830135806020601f8201819004810201604051908101604052818152929190602084018383808284378201915050505050509190803590602001908201803590602001908080601f01602080910402602001604051908101604052818152929190602084018383808284378201915050505050509190803590602001908201803590602001908080601f016020809104026020016040519081016040528181529291906020840183838082843750949650610e2295505050505050565b34156102b157600080fd5b6103f5600460c481600660c06040519081016040529190828260c080828437820191505050505091908060e001906007806020026040519081016040529190828260e08082843750939560ff8635811696602080820135831697506040808301359093169650929450608081019350606001358401808301929035918291601f83018190048102019051908101604052818152929190602084018383808284378201915050505050509190803590602001908201803590602001908080601f01602080910402602001604051908101604052818152929190602084018383808284378201915050505050509190803590602001908201803590602001908080601f0160208091040260200160405190810160405281815292919060208401838380828437509496505060ff8535169460208101359450604001359250610e3d915050565b604051901515815260200160405180910390f35b341561041457600080fd5b6101cf600461018481600c610180604051908101604052919082826101808082843782019150505050509190806101c00190600e80602002604051908101604052919082826101c080828437820191505050505091908060c001906006806020026040519081016040529190828260c0808284375093959460208082019550903586018082019450359250829150601f8201819004810201604051908101604052818152929190602084018383808284378201915050505050509190803590602001908201803590602001908080601f01602080910402602001604051908101604052818152929190602084018383808284378201915050505050509190803590602001908201803590602001908080601f01602080910402602001604051908101604052818152929190602084018383808284378201915050505050509190803590602001908201803590602001908080601f01602080910402602001604051908101604052818152929190602084018383808284378201915050505050509190803590602001908201803590602001908080601f01602080910402602001604051908101604052818152929190602084018383808284378201915050505050509190803590602001908201803590602001908080601f01602080910402602001604051908101604052818152929190602084018383808284378201915050505050509190806040019060028060200260405190810160405280929190826002602002808284378201915050505050919080608001906004806020026040519081016040529190828260808082843750939550610f95945050505050565b341561067e57600080fd5b610698600160a060020a0360043581169060243516611293565b60405190815260200160405180910390f35b34156106b557600080fd5b6106c06004356112be565b604051600160a060020a03909216825260208201526040908101905180910390f35b34156106ed57600080fd5b6101cf600460c481600660c06040519081016040529190828260c080828437820191505050505091908060e001906007806020026040519081016040529190828260e08082843750939560ff8635811696602080820135831697506040808301359093169650929450608081019350606001358401808301929035918291601f83018190048102019051908101604052818152929190602084018383808284378201915050505050509190803590602001908201803590602001908080601f01602080910402602001604051908101604052818152929190602084018383808284378201915050505050509190803590602001908201803590602001908080601f0160208091040260200160405190810160405281815292919060208401838380828437509496505050833560ff169360208101359350604081013592506060013590506112e3565b341561084157600080fd5b610184611423565b341561085457600080fd5b6101cf600160a060020a0360043581169060243516604435611432565b341561087c57600080fd5b610698600160a060020a03600435811690602435166114f2565b34156108a157600080fd5b6101cf600460c481600660c06040519081016040529190828260c080828437820191505050505091908060e001906007806020026040519081016040529190828260e08082843750939560ff8635811696602080820135831697506040808301359093169650929450608081019350606001358401808301929035918291601f83018190048102019051908101604052818152929190602084018383808284378201915050505050509190803590602001908201803590602001908080601f01602080910402602001604051908101604052818152929190602084018383808284378201915050505050509190803590602001908201803590602001908080601f01602080910402602001604051908101604052818152929190602084018383808284375094965050505091351515915061150c9050565b34156109e457600080fd5b610698600160a060020a0360043581169060243516611636565b3415610a0957600080fd5b610698600160a060020a0360043581169060243516611653565b3415610a2e57600080fd5b610698600460c481600660c06040519081016040529190828260c080828437820191505050505091908060e001906007806020026040519081016040529190828260e08082843750939560ff8635811696602080820135831697506040808301359093169650929450608081019350606001358401808301929035918291601f83018190048102019051908101604052818152929190602084018383808284378201915050505050509190803590602001908201803590602001908080601f01602080910402602001604051908101604052818152929190602084018383808284378201915050505050509190803590602001908201803590602001908080601f01602080910402602001604051908101604052818152929190602084018383808284375094965061169f95505050505050565b3415610b6d57600080fd5b6101cf600460c481600660c06040519081016040529190828260c080828437820191505050505091908060e001906007806020026040519081016040529190828260e08082843750939560ff8635811696602080820135831697506040808301359093169650929450608081019350606001358401808301929035918291601f83018190048102019051908101604052818152929190602084018383808284378201915050505050509190803590602001908201803590602001908080601f01602080910402602001604051908101604052818152929190602084018383808284378201915050505050509190803590602001908201803590602001908080601f0160208091040260200160405190810160405281815292919060208401838380828437509496505060ff85351694602081013594506040013592506117c0915050565b3415610cbc57600080fd5b610698600160a060020a03600435811690602435166118f1565b60408051908101604052601781527f50726f6a6563742057797665726e2045786368616e6765000000000000000000602082015281565b6002546101009004600160a060020a031681565b600084600160a060020a031633600160a060020a0316141515610d4357600080fd5b600160a060020a0380861660008181526020818152604080832094891680845294825280832054938352600182528083209483529390529190912054610d89919061191a565b905080831115610d9857600080fd5b610da385858561192c565b83600160a060020a031663a9059cbb838560006040516020015260405160e060020a63ffffffff8516028152600160a060020a0390921660048301526024820152604401602060405180830381600087803b1515610e0057600080fd5b6102c65a03f11515610e1157600080fd5b505050604051805150505050505050565b610e2a6130a1565b610e35848484611adf565b949350505050565b6000610e476130b3565b610260604051908101604052808e51600160a060020a031681526020018e60016020020151600160a060020a0316815260200160408f0151600160a060020a031681526020018d5181526020018d60016020020151815260200160608f0151600160a060020a031681526020018c6001811115610ec057fe5b81526020018b6002811115610ed157fe5b815260200160808f0151600160a060020a031681526020018a6003811115610ef557fe5b8152602081018a9052604081018990526060810188905260800160a08f0151600160a060020a0316815260200160408e0151815260200160608e0151815260200160808e0151815260200160a08e0151815260200160c08e015190529050610f84610f5f82611d15565b826060604051908101604090815260ff8a168252602082018990528101879052611dca565b9d9c50505050505050505050505050565b611286610260604051908101604052808d51600160a060020a031681526020018d60016020020151600160a060020a0316815260200160408e0151600160a060020a031681526020018c5181526020018c60016020020151815260200160608e0151600160a060020a031681526020018b5160ff16600181111561101557fe5b600181111561102057fe5b81526020018b6001602002015160ff16600281111561103b57fe5b600281111561104657fe5b815260200160808e0151600160a060020a0316815260200160408c015160ff16600381111561107157fe5b600381111561107c57fe5b8152602081018b9052604081018990526060810187905260800160a08e0151600160a060020a0316815260200160408d0151815260200160608d0151815260200160808d0151815260200160a08d0151815260200160c08d01519052606060405190810160405280855160ff1681526020018451815260200184600160200201519052610260604051908101604052808f60066020020151600160a060020a031681526020018f60076020020151600160a060020a031681526020018f60086020020151600160a060020a0316815260200160e08f015181526020016101008f015181526020018f60096020020151600160a060020a0316815260200160608e015160ff16600181111561118c57fe5b600181111561119757fe5b815260200160808e015160ff1660028111156111af57fe5b60028111156111ba57fe5b81526020018f600a6020020151600160a060020a0316815260200160a08e015160ff1660038111156111e857fe5b60038111156111f357fe5b8152602081018c9052604081018a9052606081018890526080018f600b6020020151600160a060020a031681526020016101208f015181526020016101408f015181526020016101608f015181526020016101808f015181526020016101a08f01519052606060405190810160405280602088015160ff1681526020016040870151815260200160608701519052611eeb565b5050505050505050505050565b600160a060020a03918216600090815260016020908152604080832093909416825291909152205490565b60046020526000908152604090208054600190910154600160a060020a039091169082565b611415610260604051908101604052808e51600160a060020a031681526020018e60016020020151600160a060020a0316815260200160408f0151600160a060020a031681526020018d5181526020018d60016020020151815260200160608f0151600160a060020a031681526020018c600181111561135f57fe5b81526020018b600281111561137057fe5b815260200160808f0151600160a060020a031681526020018a600381111561139457fe5b8152602081018a9052604081018990526060810188905260800160a08f0151600160a060020a0316815260200160408e0151815260200160608e0151815260200160808e0151815260200160a08e0151815260200160c08e015190526060604051908101604090815260ff881682526020820187905281018590528361236d565b505050505050505050505050565b600354600160a060020a031681565b82600160a060020a031633600160a060020a031614151561145257600080fd5b61145d838383612507565b81600160a060020a03166323b872dd84308460006040516020015260405160e060020a63ffffffff8616028152600160a060020a0393841660048201529190921660248201526044810191909152606401602060405180830381600087803b15156114c757600080fd5b6102c65a03f115156114d857600080fd5b5050506040518051905015156114ed57600080fd5b505050565b600060208181529281526040808220909352908152205481565b6115146130b3565b610260604051908101604052808b51600160a060020a031681526020018b60016020020151600160a060020a0316815260200160408c0151600160a060020a031681526020018a5181526020018a60016020020151815260200160608c0151600160a060020a0316815260200189600181111561158d57fe5b815260200188600281111561159e57fe5b815260200160808c0151600160a060020a031681526020018760038111156115c257fe5b815260208101879052604081018690526060810185905260800160a08c0151600160a060020a0316815260200160408b0151815260200160608b0151815260200160808b0151815260200160a08b0151815260200160c08b01519052905061162a818361259b565b50505050505050505050565b600160209081526000928352604080842090915290825290205481565b600160a060020a03808316600081815260208181526040808320948616808452948252808320549383526001825280832094835293905291822054611698919061191a565b9392505050565b60006117b3610260604051908101604052808b51600160a060020a031681526020018b60016020020151600160a060020a0316815260200160408c0151600160a060020a031681526020018a5181526020018a60016020020151815260200160608c0151600160a060020a0316815260200189600181111561171d57fe5b815260200188600281111561172e57fe5b815260200160808c0151600160a060020a0316815260200187600381111561175257fe5b815260208101879052604081018690526060810185905260800160a08c0151600160a060020a0316815260200160408b0151815260200160608b0151815260200160808b0151815260200160a08b0151815260200160c08b0151905261265f565b9998505050505050505050565b611286610260604051908101604052808d51600160a060020a031681526020018d60016020020151600160a060020a0316815260200160408e0151600160a060020a031681526020018c5181526020018c60016020020151815260200160608e0151600160a060020a031681526020018b600181111561183c57fe5b81526020018a600281111561184d57fe5b815260200160808e0151600160a060020a0316815260200189600381111561187157fe5b815260208101899052604081018890526060810187905260800160a08e0151600160a060020a0316815260200160408d0151815260200160608d0151815260200160808d0151815260200160a08d0151815260200160c08d015190526060604051908101604090815260ff87168252602082018690528101849052612691565b600160a060020a0391821660009081526020818152604080832093909416825291909152205490565b60008282111561192657fe5b50900390565b600160a060020a0380841660008181526020818152604080832094871680845294825280832054938352600182528083209483529390529182205482916119729161191a565b915083600160a060020a031685600160a060020a03167f9407bd81f01ad8f5ae4a2487b63d3d1b1947257c2dcdda3ea183dc8e6965cc6e8560405190815260200160405180910390a3828210611a1957600160a060020a03808616600090815260208181526040808320938816835292905220546119f0908461191a565b600160a060020a0380871660009081526020818152604080832093891683529290522055611ad8565b611a23838361191a565b600160a060020a038087166000908152602081815260408083209389168084529390915280822082905592935090916323b872dd91889130918691516020015260405160e060020a63ffffffff8616028152600160a060020a0393841660048201529190921660248201526044810191909152606401602060405180830381600087803b1515611ab257600080fd5b6102c65a03f11515611ac357600080fd5b505050604051805190501515611ad857600080fd5b5050505050565b611ae76130a1565b611aef613164565b60008061010060405190810160409081527f800000000000000000000000000000000000000000000000000000000000000082527f400000000000000000000000000000000000000000000000000000000000000060208301527f2000000000000000000000000000000000000000000000000000000000000000908201527f100000000000000000000000000000000000000000000000000000000000000060608201527f080000000000000000000000000000000000000000000000000000000000000060808201527f040000000000000000000000000000000000000000000000000000000000000060a08201527f020000000000000000000000000000000000000000000000000000000000000060c082015260f860020a60e082015292508551875114611c2057600080fd5b60088751811515611c2d57fe5b0485511015611c3b57600080fd5b600091505b8651821015611d0a57826008830660088110611c5857fe5b6020020151856008840481518110611c6c57fe5b016020015160f860020a900460f860020a0216600160f860020a031916600060f860020a0214905080611cbc57858281518110611ca557fe5b016020015160f860020a900460f860020a02611cdb565b868281518110611cc857fe5b016020015160f860020a900460f860020a025b878381518110611ce757fe5b906020010190600160f860020a031916908160001a905350600190910190611c40565b509495945050505050565b6000611d1f6130a1565b600060408051908101604052601c81527f19457468657265756d205369676e6564204d6573736167653a0a3332000000006020820152915081611d618561265f565b6040518083805190602001908083835b60208310611d905780518252601f199092019160209182019101611d71565b6001836020036101000a03801982511681845116179092525050509190910192835250506020019050604051908190039020949350505050565b6000600160a060020a0330168351600160a060020a0316148015611dfd575060008481526005602052604090205460ff16155b8015611ecc57508260200151600160a060020a031633600160a060020a03161480611e36575060008481526006602052604090205460ff165b80611ecc57508260200151600160a060020a03166001858451856020015186604001516040516000815260200160405260006040516020015260405193845260ff90921660208085019190915260408085019290925260608401929092526080909201915160208103908084039060008661646e5a03f11515611eb857600080fd5b505060206040510351600160a060020a0316145b8015610e355750610e358360c001518460e00151856102200151612716565b60025460009081908190819060ff1615611f0457600080fd5b6002805460ff19166001179055611f1b8888612765565b9350611f278686612765565b925060008860c001516001811115611f3b57fe5b148015611f57575060018660c001516001811115611f5557fe5b145b1515611f6257600080fd5b856101a00151600160a060020a0316886101a00151600160a060020a031614611f8a57600080fd5b8760200151600160a060020a03168660400151600160a060020a03161480611fbf575060006040870151600160a060020a0316145b1515611fca57600080fd5b8560200151600160a060020a03168860400151600160a060020a03161480611fff575060006040890151600160a060020a0316145b151561200a57600080fd5b6000838152600460205260409020915061204660e089015187602001518a61022001516040805190810160405260008082526020820152612794565b151561205157600080fd5b61208c8660e00151896020015188610220015185604080519081016040528154600160a060020a031681526001909101546020820152612794565b151561209757600080fd5b856101000151600160a060020a0316886101000151600160a060020a0316146120bf57600080fd5b85610120015160038111156120d057fe5b88610120015160038111156120e157fe5b146120eb57600080fd5b6121058861014001518761014001518a6101600151611adf565b50612120866101400151896101400151886101600151611adf565b506121358861014001518761014001516127e5565b151561214057600080fd5b600354600160a060020a031663c4552791602088015160006040516020015260405160e060020a63ffffffff8416028152600160a060020a039091166004820152602401602060405180830381600087803b151561219d57600080fd5b6102c65a03f115156121ae57600080fd5b5050506040518051915050600160a060020a03811615156121ce57600080fd5b6000848152600560205260408082208054600160ff19918216811790925586845291909220805490911690911790556122078887612879565b80600160a060020a0316631b0f7ba98761010001518861012001518961014001516000604051602001526040518463ffffffff1660e060020a0281526004018084600160a060020a0316600160a060020a0316815260200183600381111561226b57fe5b60ff16815260200180602001828103825283818151815260200191508051906020019080838360005b838110156122ac578082015183820152602001612294565b50505050905090810190601f1680156122d95780820380516001836020036101000a031916815260200191505b50945050505050602060405180830381600087803b15156122f957600080fd5b6102c65a03f1151561230a57600080fd5b50505060405180519050151561231f57600080fd5b7f9ff26dd672a3e8185e401656a709aa9a05045a9043260b8a0a31d2746e396669888760405191825260208201526040908101905180910390a150506002805460ff19169055505050505050565b6002546000908190819060ff161561238457600080fd5b6002805460ff1916600117905561239b8686612765565b600081815260046020526040902090935091506123f560c08701518760e00151886101c00151896101e001518a610220015187604080519081016040528154600160a060020a031681526001909101546020820152612933565b90508084101561240457600080fd5b604080519081016040908152600160a060020a0333168252602080830187905260008681526004909152208151815473ffffffffffffffffffffffffffffffffffffffff1916600160a060020a03919091161781556020820151600190910155508154600160a060020a03161561249457815461249490600160a060020a03166101a0880151846001015461299f565b6124a433876101a0015186612a51565b33600160a060020a03167f6a75ae33d1548c67bfaaa25fac7ffdd9e545fa843c22b7e883e4ac8edabb37a284864260405192835260208301919091526040808301919091526060909101905180910390a250506002805460ff1916905550505050565b600160a060020a03808416600090815260208181526040808320938616835292905220546125359082612c43565b600160a060020a0380851660008181526020818152604080832094881680845294909152908190209390935590917f4e45da441832cf53bdaa69235704fc0575e68210f459ee1562911024b12967d59084905190815260200160405180910390a3505050565b60008260200151600160a060020a031633600160a060020a03161415156125c157600080fd5b6125ca83611d15565b60008181526006602052604090205490915060ff16156125e957600080fd5b60008181526006602052604090819020805460ff19166001179055600160a060020a033316907fc2dbd1050ed906aad01d660eb6004ecefd4b48906b4b93197cd8ea92d869503f9083908690869051928352602083019190915215156040808301919091526060909101905180910390a2505050565b600061266a82612c52565b61267383612e09565b60405191825260208201526040908101905180910390209050919050565b600061269d8383612765565b90508260200151600160a060020a031633600160a060020a03161415156126c357600080fd5b60008181526005602052604090819020805460ff191660011790557f5152abf959f6564662358c2e52b702259b78bac5ee7842a0f01937e670efcc7d9082905190815260200160405180910390a1505050565b6000600183600281111561272657fe5b14158061273e5750600184600181111561273c57fe5b145b8015610e355750600083600281111561275357fe5b1480610e355750506000901192915050565b60008061277184611d15565b905061277e818585611dca565b151561278957600080fd5b8091505b5092915050565b600060018560028111156127a457fe5b14156127d3578151600160a060020a031684600160a060020a03161480156127cc5750824210155b9050610e35565b8215806127cc57505050421092915050565b60008082518451146127fa576000915061278d565b5060005b835181101561286f5782818151811061281357fe5b016020015160f860020a900460f860020a02600160f860020a03191684828151811061283b57fe5b016020015160f860020a900460f860020a02600160f860020a031916141515612867576000915061278d565b6001016127fe565b5060019392505050565b600080600460006128898561265f565b8152602081019190915260400160002091506128a6848484612ee3565b90506128bf84602001518560a001518660600151612fb3565b6128d683602001518460a001518560600151612fb3565b8154600160a060020a03161561290557815461290590600160a060020a03166101a0850151846001015461299f565b6129198460200151846101a001518361192c565b61292d8360200151846101a0015183612507565b50505050565b6000600187600181111561294357fe5b14801561295b5750600186600281111561295957fe5b145b801561296657508242105b151561297157600080fd5b60008251600160a060020a0316141561298b575083612995565b8382602001510190505b9695505050505050565b600160a060020a038084166000908152600160209081526040808320938616835292905220546129cf908261191a565b600160a060020a0384811660009081526001602090815260408083209387168352929052908120829055901015612a0557600080fd5b81600160a060020a031683600160a060020a03167fe6e0ef9cd056ca98561ca60e347ada61e1ede2f1142a078951b7a52e1e508e608360405190815260200160405180910390a3505050565b600160a060020a038084166000908152600160209081526040808320938616835292905290812054612a839083612c43565b600160a060020a03858116600081815260016020908152604080832094891680845285835281842087905593835282825280832093835292815291902054919052901115612bf657600160a060020a038085166000818152600160209081526040808320948816808452948252808320549383528282528083209483529390529190912054612b12919061191a565b600160a060020a0380861660009081526020818152604080832093881683529290522054909150612b439082612c43565b600160a060020a03808616600090815260208181526040808320938816808452939091528082209390935590916323b872dd91879130918691516020015260405160e060020a63ffffffff8616028152600160a060020a0393841660048201529190921660248201526044810191909152606401602060405180830381600087803b1515612bd057600080fd5b6102c65a03f11515612be157600080fd5b505050604051805190501515612bf657600080fd5b82600160a060020a031684600160a060020a03167f989eaa915cbb416ea3d6f9a63b1a3de51770c7674b11fe21ecdf76b4e1d139108460405190815260200160405180910390a350505050565b60008282018381101561278957fe5b6000815182602001518360400151846060015185608001518660a001518760c001518860e001518961010001518a61012001518b61014001518c61016001516040516c01000000000000000000000000600160a060020a03808f16820283528d8116820260148401528c811682026028840152603c83018c9052605c83018b9052891602607c82015260908101876001811115612ceb57fe5b60ff1660f860020a028152600101866002811115612d0557fe5b60ff1660f860020a02815260010185600160a060020a0316600160a060020a03166c01000000000000000000000000028152601401846003811115612d4657fe5b60ff1660f860020a02815260010183805190602001908083835b60208310612d7f5780518252601f199092019160209182019101612d60565b6001836020036101000a038019825116818451161790925250505091909101905082805190602001908083835b60208310612dcb5780518252601f199092019160209182019101612dac565b6001836020036101000a0380198251168184511617909252505050919091019d5060409c505050505050505050505050505180910390209050919050565b6000816101800151826101a00151836101c00151846101e001518561020001518661022001518761024001516040518088805190602001908083835b60208310612e645780518252601f199092019160209182019101612e45565b6001836020036101000a03801982511681845116808217855250505050505090500187600160a060020a0316600160a060020a03166c0100000000000000000000000002815260140186815260200185815260200184815260200183815260200182815260200197505050505050505060405180910390209050919050565b6000806000612f358560c001518660e00151876101c00151886101e001518961020001518a61022001518a604080519081016040528154600160a060020a031681526001909101546020820152612fdd565b9150612f848660c001518760e00151886101c00151896101e001518a61020001518b61022001518a604080519081016040528154600160a060020a031681526001909101546020820152612fdd565b905081811015612f9357600080fd5b85610200015185610200015110612faa5780612995565b50949350505050565b60008111156114ed576114ed8383600260019054906101000a9004600160a060020a03168461308b565b60008080886002811115612fed57fe5b1415612ffb5786915061307f565b600188600281111561300957fe5b14156130335760008351600160a060020a0316141561302757600080fd5b8260200151915061307f565b600288600281111561304157fe5b14156100e257848403854203870281151561305857fe5b049050600189600181111561306957fe5b141561307957808703915061307f565b80870191505b50979650505050505050565b613096838383612507565b61292d84838361192c565b60206040519081016040526000815290565b6102606040519081016040908152600080835260208301819052908201819052606082018190526080820181905260a0820181905260c0820181905260e08201819052610100820181905261012082015261014081016131116130a1565b815260200161311e6130a1565b815260200161312b6130a1565b81526020016000600160a060020a0316815260200160008152602001600081526020016000815260200160008152602001600081525090565b6101006040519081016040526008815b60008152600019909101906020018161317457905050905600a165627a7a7230582084d2a421c2176ed02179ab816d824e4a1babd894e6852776356a1801ebf8e3c40029",
  "source": "/*\n\n  << Project Wyvern Exchange >>\n\n*/\n\npragma solidity 0.4.18;\n\nimport \"./exchange/Exchange.sol\";\n\n/**\n * @title WyvernExchange\n * @author Project Wyvern Developers\n */\ncontract WyvernExchange is Exchange {\n\n    string public constant name = \"Project Wyvern Exchange\";\n\n    function WyvernExchange (ProxyRegistry registryAddress, ERC20 tokenAddress) public {\n        exchangeTokenAddress = tokenAddress;\n        registry = registryAddress;\n    }\n\n}\n",
  "sourcePath": "/home/cwgoes/working/crypto/wyvern/wyvern-ethereum/contracts/WyvernExchange.sol",
  "compiler": {
    "name": "solc",
    "version": "0.4.18+commit.9cf6e910.Emscripten.clang"
  },
  "schemaVersion": "1.0.1",
  "updatedAt": "2018-01-23T01:26:14.727Z"
}