{
  "contractName": "WyvernAssetRegistry",
  "abi": [
    {
      "constant": true,
      "inputs": [],
      "name": "name",
      "outputs": [
        {
          "name": "",
          "type": "string"
        }
      ],
      "payable": false,
      "stateMutability": "view",
      "type": "function"
    },
    {
      "constant": true,
      "inputs": [],
      "name": "owner",
      "outputs": [
        {
          "name": "",
          "type": "address"
        }
      ],
      "payable": false,
      "stateMutability": "view",
      "type": "function"
    },
    {
      "constant": false,
      "inputs": [
        {
          "name": "newOwner",
          "type": "address"
        }
      ],
      "name": "transferOwnership",
      "outputs": [],
      "payable": false,
      "stateMutability": "nonpayable",
      "type": "function"
    },
    {
      "inputs": [],
      "payable": false,
      "stateMutability": "nonpayable",
      "type": "constructor"
    },
    {
      "anonymous": false,
      "inputs": [
        {
          "indexed": true,
          "name": "previousOwner",
          "type": "address"
        },
        {
          "indexed": true,
          "name": "newOwner",
          "type": "address"
        }
      ],
      "name": "OwnershipTransferred",
      "type": "event"
    }
  ],
  "bytecode": "0x6060604052341561000f57600080fd5b60008054600160a060020a033316600160a060020a03199091161790556102428061003b6000396000f3006060604052600436106100565763ffffffff7c010000000000000000000000000000000000000000000000000000000060003504166306fdde03811461005b5780638da5cb5b146100e5578063f2fde38b14610114575b600080fd5b341561006657600080fd5b61006e610135565b60405160208082528190810183818151815260200191508051906020019080838360005b838110156100aa578082015183820152602001610092565b50505050905090810190601f1680156100d75780820380516001836020036101000a031916815260200191505b509250505060405180910390f35b34156100f057600080fd5b6100f861016c565b604051600160a060020a03909116815260200160405180910390f35b341561011f57600080fd5b610133600160a060020a036004351661017b565b005b60408051908101604052601d81527f50726f6a6563742057797665726e204173736574205265676973747279000000602082015281565b600054600160a060020a031681565b60005433600160a060020a0390811691161461019657600080fd5b600160a060020a03811615156101ab57600080fd5b600054600160a060020a0380831691167f8be0079c531659141344cd1fd0a4f28419497f9722a3daafe3b4186f6b6457e060405160405180910390a36000805473ffffffffffffffffffffffffffffffffffffffff1916600160a060020a03929092169190911790555600a165627a7a723058208a56e154efc0fd402fd9d8aa0d38407266f56106a0149558523bc7dcaa5fbd770029",
  "source": "/*\n\n  << Project Wyvern Asset Registry >>\n\n*/\n\npragma solidity 0.4.18;\n\nimport \"./registry/AssetRegistry.sol\";\n\n/**\n * @title WyvernAssetRegistry\n * @author Project Wyvern Developers\n */\ncontract WyvernAssetRegistry is AssetRegistry {\n\n    string public constant name = \"Project Wyvern Asset Registry\";\n\n    function WyvernAssetRegistry ()\n        public\n    {\n    }     \n\n}\n",
  "sourcePath": "/home/cwgoes/working/crypto/wyvern/wyvern-ethereum/contracts/WyvernAssetRegistry.sol",
  "compiler": {
    "name": "solc",
    "version": "0.4.18+commit.9cf6e910.Emscripten.clang"
  },
  "schemaVersion": "1.0.1",
  "updatedAt": "2018-01-30T22:19:08.007Z"
}