{
  "contractName": "WyvernExchange",
  "abi": [
    {
      "constant": true,
      "inputs": [
        {
          "name": "addrs",
          "type": "address[5]"
        },
        {
          "name": "uints",
          "type": "uint256[5]"
        },
        {
          "name": "side",
          "type": "uint8"
        },
        {
          "name": "saleKind",
          "type": "uint8"
        },
        {
          "name": "howToCall",
          "type": "uint8"
        },
        {
          "name": "calldata",
          "type": "bytes"
        },
        {
          "name": "replacementPattern",
          "type": "bytes"
        },
        {
          "name": "metadataHash",
          "type": "bytes"
        },
        {
          "name": "v",
          "type": "uint8"
        },
        {
          "name": "r",
          "type": "bytes32"
        },
        {
          "name": "s",
          "type": "bytes32"
        }
      ],
      "name": "validateOrder_",
      "outputs": [
        {
          "name": "",
          "type": "bool"
        }
      ],
      "payable": false,
      "stateMutability": "view",
      "type": "function"
    },
    {
      "constant": true,
      "inputs": [],
      "name": "name",
      "outputs": [
        {
          "name": "",
          "type": "string"
        }
      ],
      "payable": false,
      "stateMutability": "view",
      "type": "function"
    },
    {
      "constant": true,
      "inputs": [],
      "name": "exchangeTokenAddress",
      "outputs": [
        {
          "name": "",
          "type": "address"
        }
      ],
      "payable": false,
      "stateMutability": "view",
      "type": "function"
    },
    {
      "constant": false,
      "inputs": [
        {
          "name": "user",
          "type": "address"
        },
        {
          "name": "token",
          "type": "address"
        },
        {
          "name": "amount",
          "type": "uint256"
        },
        {
          "name": "dest",
          "type": "address"
        }
      ],
      "name": "withdraw",
      "outputs": [],
      "payable": false,
      "stateMutability": "nonpayable",
      "type": "function"
    },
    {
      "constant": true,
      "inputs": [
        {
          "name": "user",
          "type": "address"
        },
        {
          "name": "token",
          "type": "address"
        }
      ],
      "name": "lockedFor",
      "outputs": [
        {
          "name": "",
          "type": "uint256"
        }
      ],
      "payable": false,
      "stateMutability": "view",
      "type": "function"
    },
    {
      "constant": true,
      "inputs": [
        {
          "name": "",
          "type": "bytes32"
        }
      ],
      "name": "topBids",
      "outputs": [
        {
          "name": "bidder",
          "type": "address"
        },
        {
          "name": "amount",
          "type": "uint256"
        }
      ],
      "payable": false,
      "stateMutability": "view",
      "type": "function"
    },
    {
      "constant": false,
      "inputs": [
        {
          "name": "addrs",
          "type": "address[10]"
        },
        {
          "name": "uints",
          "type": "uint256[10]"
        },
        {
          "name": "sidesKindsHowToCalls",
          "type": "uint8[6]"
        },
        {
          "name": "calldataBuy",
          "type": "bytes"
        },
        {
          "name": "calldataSell",
          "type": "bytes"
        },
        {
          "name": "replacementPatternBuy",
          "type": "bytes"
        },
        {
          "name": "replacementPatternSell",
          "type": "bytes"
        },
        {
          "name": "metadataHashBuy",
          "type": "bytes"
        },
        {
          "name": "metadataHashSell",
          "type": "bytes"
        },
        {
          "name": "vs",
          "type": "uint8[2]"
        },
        {
          "name": "rss",
          "type": "bytes32[4]"
        }
      ],
      "name": "atomicMatch_",
      "outputs": [],
      "payable": false,
      "stateMutability": "nonpayable",
      "type": "function"
    },
    {
      "constant": true,
      "inputs": [],
      "name": "registry",
      "outputs": [
        {
          "name": "",
          "type": "address"
        }
      ],
      "payable": false,
      "stateMutability": "view",
      "type": "function"
    },
    {
      "constant": false,
      "inputs": [
        {
          "name": "addrs",
          "type": "address[5]"
        },
        {
          "name": "uints",
          "type": "uint256[5]"
        },
        {
          "name": "side",
          "type": "uint8"
        },
        {
          "name": "saleKind",
          "type": "uint8"
        },
        {
          "name": "howToCall",
          "type": "uint8"
        },
        {
          "name": "calldata",
          "type": "bytes"
        },
        {
          "name": "replacementPattern",
          "type": "bytes"
        },
        {
          "name": "metadataHash",
          "type": "bytes"
        },
        {
          "name": "v",
          "type": "uint8"
        },
        {
          "name": "r",
          "type": "bytes32"
        },
        {
          "name": "s",
          "type": "bytes32"
        }
      ],
      "name": "cancelOrder_",
      "outputs": [],
      "payable": false,
      "stateMutability": "nonpayable",
      "type": "function"
    },
    {
      "constant": false,
      "inputs": [
        {
          "name": "user",
          "type": "address"
        },
        {
          "name": "token",
          "type": "address"
        },
        {
          "name": "amount",
          "type": "uint256"
        }
      ],
      "name": "deposit",
      "outputs": [],
      "payable": false,
      "stateMutability": "nonpayable",
      "type": "function"
    },
    {
      "constant": false,
      "inputs": [
        {
          "name": "addrs",
          "type": "address[5]"
        },
        {
          "name": "uints",
          "type": "uint256[5]"
        },
        {
          "name": "side",
          "type": "uint8"
        },
        {
          "name": "saleKind",
          "type": "uint8"
        },
        {
          "name": "howToCall",
          "type": "uint8"
        },
        {
          "name": "calldata",
          "type": "bytes"
        },
        {
          "name": "replacementPattern",
          "type": "bytes"
        },
        {
          "name": "metadataHash",
          "type": "bytes"
        },
        {
          "name": "v",
          "type": "uint8"
        },
        {
          "name": "r",
          "type": "bytes32"
        },
        {
          "name": "s",
          "type": "bytes32"
        },
        {
          "name": "amount",
          "type": "uint256"
        }
      ],
      "name": "bid_",
      "outputs": [],
      "payable": false,
      "stateMutability": "nonpayable",
      "type": "function"
    },
    {
      "constant": true,
      "inputs": [
        {
          "name": "",
          "type": "address"
        },
        {
          "name": "",
          "type": "address"
        }
      ],
      "name": "balances",
      "outputs": [
        {
          "name": "",
          "type": "uint256"
        }
      ],
      "payable": false,
      "stateMutability": "view",
      "type": "function"
    },
    {
      "constant": true,
      "inputs": [
        {
          "name": "addrs",
          "type": "address[5]"
        },
        {
          "name": "uints",
          "type": "uint256[5]"
        },
        {
          "name": "side",
          "type": "uint8"
        },
        {
          "name": "saleKind",
          "type": "uint8"
        },
        {
          "name": "howToCall",
          "type": "uint8"
        },
        {
          "name": "calldata",
          "type": "bytes"
        },
        {
          "name": "replacementPattern",
          "type": "bytes"
        },
        {
          "name": "metadataHash",
          "type": "bytes"
        }
      ],
      "name": "hashOrder_",
      "outputs": [
        {
          "name": "",
          "type": "bytes32"
        }
      ],
      "payable": false,
      "stateMutability": "pure",
      "type": "function"
    },
    {
      "constant": true,
      "inputs": [
        {
          "name": "",
          "type": "address"
        },
        {
          "name": "",
          "type": "address"
        }
      ],
      "name": "locked",
      "outputs": [
        {
          "name": "",
          "type": "uint256"
        }
      ],
      "payable": false,
      "stateMutability": "view",
      "type": "function"
    },
    {
      "constant": true,
      "inputs": [
        {
          "name": "user",
          "type": "address"
        },
        {
          "name": "token",
          "type": "address"
        }
      ],
      "name": "availableFor",
      "outputs": [
        {
          "name": "",
          "type": "uint256"
        }
      ],
      "payable": false,
      "stateMutability": "view",
      "type": "function"
    },
    {
      "constant": true,
      "inputs": [
        {
          "name": "user",
          "type": "address"
        },
        {
          "name": "token",
          "type": "address"
        }
      ],
      "name": "balanceFor",
      "outputs": [
        {
          "name": "",
          "type": "uint256"
        }
      ],
      "payable": false,
      "stateMutability": "view",
      "type": "function"
    },
    {
      "inputs": [
        {
          "name": "registryAddress",
          "type": "address"
        },
        {
          "name": "tokenAddress",
          "type": "address"
        }
      ],
      "payable": false,
      "stateMutability": "nonpayable",
      "type": "constructor"
    },
    {
      "anonymous": false,
      "inputs": [
        {
          "indexed": false,
          "name": "hash",
          "type": "bytes32"
        }
      ],
      "name": "OrderCancelled",
      "type": "event"
    },
    {
      "anonymous": false,
      "inputs": [
        {
          "indexed": false,
          "name": "hash",
          "type": "bytes32"
        },
        {
          "indexed": true,
          "name": "bidder",
          "type": "address"
        },
        {
          "indexed": false,
          "name": "amount",
          "type": "uint256"
        },
        {
          "indexed": false,
          "name": "timestamp",
          "type": "uint256"
        }
      ],
      "name": "OrderBidOn",
      "type": "event"
    },
    {
      "anonymous": false,
      "inputs": [
        {
          "components": [
            {
              "name": "exchange",
              "type": "address"
            },
            {
              "name": "initiator",
              "type": "address"
            },
            {
              "name": "side",
              "type": "uint8"
            },
            {
              "name": "saleKind",
              "type": "uint8"
            },
            {
              "name": "target",
              "type": "address"
            },
            {
              "name": "howToCall",
              "type": "uint8"
            },
            {
              "name": "calldata",
              "type": "bytes"
            },
            {
              "name": "replacementPattern",
              "type": "bytes"
            },
            {
              "name": "metadataHash",
              "type": "bytes"
            },
            {
              "name": "paymentToken",
              "type": "address"
            },
            {
              "name": "basePrice",
              "type": "uint256"
            },
            {
              "name": "baseFee",
              "type": "uint256"
            },
            {
              "name": "extra",
              "type": "uint256"
            },
            {
              "name": "listingTime",
              "type": "uint256"
            },
            {
              "name": "expirationTime",
              "type": "uint256"
            },
            {
              "name": "frontend",
              "type": "address"
            }
          ],
          "indexed": false,
          "name": "buy",
          "type": "tuple"
        },
        {
          "components": [
            {
              "name": "exchange",
              "type": "address"
            },
            {
              "name": "initiator",
              "type": "address"
            },
            {
              "name": "side",
              "type": "uint8"
            },
            {
              "name": "saleKind",
              "type": "uint8"
            },
            {
              "name": "target",
              "type": "address"
            },
            {
              "name": "howToCall",
              "type": "uint8"
            },
            {
              "name": "calldata",
              "type": "bytes"
            },
            {
              "name": "replacementPattern",
              "type": "bytes"
            },
            {
              "name": "metadataHash",
              "type": "bytes"
            },
            {
              "name": "paymentToken",
              "type": "address"
            },
            {
              "name": "basePrice",
              "type": "uint256"
            },
            {
              "name": "baseFee",
              "type": "uint256"
            },
            {
              "name": "extra",
              "type": "uint256"
            },
            {
              "name": "listingTime",
              "type": "uint256"
            },
            {
              "name": "expirationTime",
              "type": "uint256"
            },
            {
              "name": "frontend",
              "type": "address"
            }
          ],
          "indexed": false,
          "name": "sell",
          "type": "tuple"
        }
      ],
      "name": "OrdersMatched",
      "type": "event"
    },
    {
      "anonymous": false,
      "inputs": [
        {
          "indexed": true,
          "name": "user",
          "type": "address"
        },
        {
          "indexed": true,
          "name": "token",
          "type": "address"
        },
        {
          "indexed": false,
          "name": "amount",
          "type": "uint256"
        }
      ],
      "name": "Credited",
      "type": "event"
    },
    {
      "anonymous": false,
      "inputs": [
        {
          "indexed": true,
          "name": "user",
          "type": "address"
        },
        {
          "indexed": true,
          "name": "token",
          "type": "address"
        },
        {
          "indexed": false,
          "name": "amount",
          "type": "uint256"
        }
      ],
      "name": "Debited",
      "type": "event"
    },
    {
      "anonymous": false,
      "inputs": [
        {
          "indexed": true,
          "name": "user",
          "type": "address"
        },
        {
          "indexed": true,
          "name": "token",
          "type": "address"
        },
        {
          "indexed": false,
          "name": "amount",
          "type": "uint256"
        }
      ],
      "name": "Locked",
      "type": "event"
    },
    {
      "anonymous": false,
      "inputs": [
        {
          "indexed": true,
          "name": "user",
          "type": "address"
        },
        {
          "indexed": true,
          "name": "token",
          "type": "address"
        },
        {
          "indexed": false,
          "name": "amount",
          "type": "uint256"
        }
      ],
      "name": "Unlocked",
      "type": "event"
    }
  ],
  "bytecode": "0x6060604052341561000f57600080fd5b604051604080612ba3833981016040528080519190602001805160028054600160a060020a03928316600160a060020a03199182161790915560038054959092169416939093179092555050612b398061006a6000396000f3006060604052600436106100cc5763ffffffff60e060020a60003504166302b1533681146100d157806306fdde03146102345780630e5d2e21146102be5780630e917f76146102ed5780634e10c95d1461031e578063532aa1c8146103555780636ebda1761461038d5780637b103999146105f75780637f80468e1461060a5780638340f54914610759578063b3a2b51f14610781578063c23f001f146108d5578063c73f0282146108fa578063db20266f14610a39578063db2ec6bd14610a5e578063f771e78b14610a83575b600080fd5b34156100dc57600080fd5b610220600460a481600560a06040519081016040529190828260a080828437820191505050505091908060a001906005806020026040519081016040529190828260a08082843750939560ff8635811696602080820135831697506040808301359093169650929450608081019350606001358401808301929035918291601f83018190048102019051908101604052818152929190602084018383808284378201915050505050509190803590602001908201803590602001908080601f01602080910402602001604051908101604052818152929190602084018383808284378201915050505050509190803590602001908201803590602001908080601f0160208091040260200160405190810160405281815292919060208401838380828437509496505060ff8535169460208101359450604001359250610aa8915050565b604051901515815260200160405180910390f35b341561023f57600080fd5b610247610bdc565b60405160208082528190810183818151815260200191508051906020019080838360005b8381101561028357808201518382015260200161026b565b50505050905090810190601f1680156102b05780820380516001836020036101000a031916815260200191505b509250505060405180910390f35b34156102c957600080fd5b6102d1610c13565b604051600160a060020a03909116815260200160405180910390f35b34156102f857600080fd5b61031c600160a060020a036004358116906024358116906044359060643516610c22565b005b341561032957600080fd5b610343600160a060020a0360043581169060243516610d23565b60405190815260200160405180910390f35b341561036057600080fd5b61036b600435610d4e565b604051600160a060020a03909216825260208201526040908101905180910390f35b341561039857600080fd5b61031c600461014481600a610140604051908101604052919082826101408082843782019150505050509190806101400190600a806020026040519081016040529190828261014080828437820191505050505091908060c001906006806020026040519081016040529190828260c0808284375093959460208082019550903586018082019450359250829150601f8201819004810201604051908101604052818152929190602084018383808284378201915050505050509190803590602001908201803590602001908080601f01602080910402602001604051908101604052818152929190602084018383808284378201915050505050509190803590602001908201803590602001908080601f01602080910402602001604051908101604052818152929190602084018383808284378201915050505050509190803590602001908201803590602001908080601f01602080910402602001604051908101604052818152929190602084018383808284378201915050505050509190803590602001908201803590602001908080601f01602080910402602001604051908101604052818152929190602084018383808284378201915050505050509190803590602001908201803590602001908080601f01602080910402602001604051908101604052818152929190602084018383808284378201915050505050509190806040019060028060200260405190810160405280929190826002602002808284378201915050505050919080608001906004806020026040519081016040529190828260808082843750939550610d73945050505050565b341561060257600080fd5b6102d161101f565b341561061557600080fd5b61031c600460a481600560a06040519081016040529190828260a080828437820191505050505091908060a001906005806020026040519081016040529190828260a08082843750939560ff8635811696602080820135831697506040808301359093169650929450608081019350606001358401808301929035918291601f83018190048102019051908101604052818152929190602084018383808284378201915050505050509190803590602001908201803590602001908080601f01602080910402602001604051908101604052818152929190602084018383808284378201915050505050509190803590602001908201803590602001908080601f0160208091040260200160405190810160405281815292919060208401838380828437509496505060ff853516946020810135945060400135925061102e915050565b341561076457600080fd5b61031c600160a060020a036004358116906024351660443561113b565b341561078c57600080fd5b61031c600460a481600560a06040519081016040529190828260a080828437820191505050505091908060a001906005806020026040519081016040529190828260a08082843750939560ff8635811696602080820135831697506040808301359093169650929450608081019350606001358401808301929035918291601f83018190048102019051908101604052818152929190602084018383808284378201915050505050509190803590602001908201803590602001908080601f01602080910402602001604051908101604052818152929190602084018383808284378201915050505050509190803590602001908201803590602001908080601f0160208091040260200160405190810160405281815292919060208401838380828437509496505050833560ff169360208101359350604081013592506060013590506111fb565b34156108e057600080fd5b610343600160a060020a0360043581169060243516611317565b341561090557600080fd5b610343600460a481600560a06040519081016040529190828260a080828437820191505050505091908060a001906005806020026040519081016040529190828260a08082843750939560ff8635811696602080820135831697506040808301359093169650929450608081019350606001358401808301929035918291601f83018190048102019051908101604052818152929190602084018383808284378201915050505050509190803590602001908201803590602001908080601f01602080910402602001604051908101604052818152929190602084018383808284378201915050505050509190803590602001908201803590602001908080601f01602080910402602001604051908101604052818152929190602084018383808284375094965061133195505050505050565b3415610a4457600080fd5b610343600160a060020a036004358116906024351661142e565b3415610a6957600080fd5b610343600160a060020a036004358116906024351661144b565b3415610a8e57600080fd5b610343600160a060020a0360043581169060243516611497565b6000610ab2612a30565b610200604051908101604052808e51600160a060020a031681526020018e60016020020151600160a060020a031681526020018c6001811115610af157fe5b81526020018b6002811115610b0257fe5b815260200160408f0151600160a060020a031681526020018a6003811115610b2657fe5b8152602081018a905260408101899052606081018890526080018e60036020020151600160a060020a031681526020018d5181526020018d60016020020151815260200160408e0151815260200160608e0151815260200160808e0151815260200160808f0151600160a060020a031690529050610bcb610ba6826114c0565b826060604051908101604090815260ff8a168252602082018990528101879052611575565b9d9c50505050505050505050505050565b60408051908101604052601781527f50726f6a6563742057797665726e2045786368616e6765000000000000000000602082015281565b600254600160a060020a031681565b600084600160a060020a031633600160a060020a0316141515610c4457600080fd5b600160a060020a0380861660008181526020818152604080832094891680845294825280832054938352600182528083209483529390529190912054610c8a9190611666565b905080831115610c9957600080fd5b610ca4858585611678565b83600160a060020a031663a9059cbb838560006040516020015260405160e060020a63ffffffff8516028152600160a060020a0390921660048301526024820152604401602060405180830381600087803b1515610d0157600080fd5b6102c65a03f11515610d1257600080fd5b505050604051805150505050505050565b600160a060020a03918216600090815260016020908152604080832093909416825291909152205490565b60046020526000908152604090208054600190910154600160a060020a039091169082565b611012610200604051908101604052808d51600160a060020a031681526020018d60016020020151600160a060020a031681526020018b5160ff166001811115610db957fe5b6001811115610dc457fe5b81526020018b6001602002015160ff166002811115610ddf57fe5b6002811115610dea57fe5b815260200160408e0151600160a060020a0316815260200160408c015160ff166003811115610e1557fe5b6003811115610e2057fe5b8152602081018b905260408101899052606081018790526080018d60036020020151600160a060020a031681526020018c5181526020018c60016020020151815260200160408d0151815260200160608d0151815260200160808d0151815260200160808e0151600160a060020a03169052606060405190810160405280855160ff1681526020018451815260200184600160200201519052610200604051908101604052808f60056020020151600160a060020a031681526020018f60066020020151600160a060020a0316815260200160608e015160ff166001811115610f0557fe5b6001811115610f1057fe5b815260200160808e015160ff166002811115610f2857fe5b6002811115610f3357fe5b81526020018f60076020020151600160a060020a0316815260200160a08e015160ff166003811115610f6157fe5b6003811115610f6c57fe5b8152602081018c9052604081018a9052606081018890526080018f60086020020151600160a060020a0316815260200160a08f0151815260200160c08f0151815260200160e08f015181526020016101008f015181526020016101208f015181526020018f60096020020151600160a060020a03169052606060405190810160405280602088015160ff168152602001604087015181526020016060870151905261182b565b5050505050505050505050565b600354600160a060020a031681565b611012610200604051908101604052808d51600160a060020a031681526020018d60016020020151600160a060020a031681526020018b600181111561107057fe5b81526020018a600281111561108157fe5b815260200160408e0151600160a060020a031681526020018960038111156110a557fe5b81526020810189905260408101889052606081018790526080018d60036020020151600160a060020a031681526020018c5181526020018c60016020020151815260200160408d0151815260200160608d0151815260200160808d0151815260200160808e0151600160a060020a031690526060604051908101604090815260ff87168252602082018690528101849052611bf4565b82600160a060020a031633600160a060020a031614151561115b57600080fd5b611166838383611c79565b81600160a060020a03166323b872dd84308460006040516020015260405160e060020a63ffffffff8616028152600160a060020a0393841660048201529190921660248201526044810191909152606401602060405180830381600087803b15156111d057600080fd5b6102c65a03f115156111e157600080fd5b5050506040518051905015156111f657600080fd5b505050565b611309610200604051908101604052808e51600160a060020a031681526020018e60016020020151600160a060020a031681526020018c600181111561123d57fe5b81526020018b600281111561124e57fe5b815260200160408f0151600160a060020a031681526020018a600381111561127257fe5b8152602081018a905260408101899052606081018890526080018e60036020020151600160a060020a031681526020018d5181526020018d60016020020151815260200160408e0151815260200160608e0151815260200160808e0151815260200160808f0151600160a060020a031690526060604051908101604090815260ff8816825260208201879052810185905283611d0d565b505050505050505050505050565b600060208181529281526040808220909352908152205481565b6000611421610200604051908101604052808b51600160a060020a031681526020018b60016020020151600160a060020a0316815260200189600181111561137557fe5b815260200188600281111561138657fe5b815260200160408c0151600160a060020a031681526020018760038111156113aa57fe5b81526020810187905260408101869052606081018590526080018b60036020020151600160a060020a031681526020018a5181526020018a60016020020151815260200160408b0151815260200160608b0151815260200160808b0151815260200160808c0151600160a060020a03169052611e80565b9998505050505050505050565b600160209081526000928352604080842090915290825290205481565b600160a060020a038083166000818152602081815260408083209486168084529482528083205493835260018252808320948352939052918220546114909190611666565b9392505050565b600160a060020a0391821660009081526020818152604080832093909416825291909152205490565b60006114ca612ad2565b600060408051908101604052601c81527f19457468657265756d205369676e6564204d6573736167653a0a333200000000602082015291508161150c85611e80565b6040518083805190602001908083835b6020831061153b5780518252601f19909201916020918201910161151c565b6001836020036101000a03801982511681845116179092525050509190910192835250506020019050604051908190039020949350505050565b6000600160a060020a0330168351600160a060020a03161480156115a8575060008481526005602052604090205460ff16155b801561163f57508260200151600160a060020a03166001858451856020015186604001516040516000815260200160405260006040516020015260405193845260ff90921660208085019190915260408085019290925260608401929092526080909201915160208103908084039060008661646e5a03f1151561162b57600080fd5b505060206040510351600160a060020a0316145b801561165e575061165e83604001518460600151856101c00151611eb2565b949350505050565b60008282111561167257fe5b50900390565b600160a060020a0380841660008181526020818152604080832094871680845294825280832054938352600182528083209483529390529182205482916116be91611666565b915083600160a060020a031685600160a060020a03167f9407bd81f01ad8f5ae4a2487b63d3d1b1947257c2dcdda3ea183dc8e6965cc6e8560405190815260200160405180910390a382821061176557600160a060020a038086166000908152602081815260408083209388168352929052205461173c9084611666565b600160a060020a0380871660009081526020818152604080832093891683529290522055611824565b61176f8383611666565b600160a060020a038087166000908152602081815260408083209389168084529390915280822082905592935090916323b872dd91889130918691516020015260405160e060020a63ffffffff8616028152600160a060020a0393841660048201529190921660248201526044810191909152606401602060405180830381600087803b15156117fe57600080fd5b6102c65a03f1151561180f57600080fd5b50505060405180519050151561182457600080fd5b5050505050565b60008060008061183b8888611f01565b93506118478686611f01565b925060008860400151600181111561185b57fe5b148015611877575060018660400151600181111561187557fe5b145b151561188257600080fd5b856101200151600160a060020a0316886101200151600160a060020a0316146118aa57600080fd5b600083815260046020526040902091506118e6606089015187602001518a6101c001516040805190810160405260008082526020820152611f30565b15156118f157600080fd5b61192c86606001518960200151886101c0015185604080519081016040528154600160a060020a031681526001909101546020820152611f30565b151561193757600080fd5b8560800151600160a060020a03168860800151600160a060020a03161461195d57600080fd5b8560a00151600381111561196d57fe5b8860a00151600381111561197d57fe5b1461198757600080fd5b61199e8860c001518760c001518a60e00151611f81565b506119b68660c001518960c001518860e00151611f81565b506119c98860c001518760c001516121b6565b15156119d457600080fd5b600354600160a060020a031663c4552791602088015160006040516020015260405160e060020a63ffffffff8416028152600160a060020a039091166004820152602401602060405180830381600087803b1515611a3157600080fd5b6102c65a03f11515611a4257600080fd5b5050506040518051915050600160a060020a0381161515611a6257600080fd5b6000848152600560205260408082208054600160ff1991821681179092558684529190922080549091169091179055611a9b888761224a565b80600160a060020a0316631b0f7ba987608001518860a001518960c001516000604051602001526040518463ffffffff1660e060020a0281526004018084600160a060020a0316600160a060020a03168152602001836003811115611afc57fe5b60ff16815260200180602001828103825283818151815260200191508051906020019080838360005b83811015611b3d578082015183820152602001611b25565b50505050905090810190601f168015611b6a5780820380516001836020036101000a031916815260200191505b50945050505050602060405180830381600087803b1515611b8a57600080fd5b6102c65a03f11515611b9b57600080fd5b505050604051805190501515611bb057600080fd5b7f31cd237f6b8473035e4e28a3c4069d92f69c1f4dc4a9d1166bb97cea078b0a86888760405191825260208201526040908101905180910390a15050505050505050565b6000611c008383611f01565b90508260200151600160a060020a031633600160a060020a0316141515611c2657600080fd5b60008181526005602052604090819020805460ff191660011790557f5152abf959f6564662358c2e52b702259b78bac5ee7842a0f01937e670efcc7d9082905190815260200160405180910390a1505050565b600160a060020a0380841660009081526020818152604080832093861683529290522054611ca79082612308565b600160a060020a0380851660008181526020818152604080832094881680845294909152908190209390935590917f4e45da441832cf53bdaa69235704fc0575e68210f459ee1562911024b12967d59084905190815260200160405180910390a3505050565b6000806000611d1c8686611f01565b60008181526004602052604090819020919450909250611d789087015187606001518861014001518961018001518a6101c0015187604080519081016040528154600160a060020a031681526001909101546020820152612317565b905080841015611d8757600080fd5b604080519081016040908152600160a060020a0333168252602080830187905260008681526004909152208151815473ffffffffffffffffffffffffffffffffffffffff1916600160a060020a03919091161781556020820151600190910155508154600160a060020a031615611e17578154611e1790600160a060020a03166101208801518460010154612383565b611e273387610120015186612435565b33600160a060020a03167f6a75ae33d1548c67bfaaa25fac7ffdd9e545fa843c22b7e883e4ac8edabb37a284864260405192835260208301919091526040808301919091526060909101905180910390a2505050505050565b6000611e8b82612627565b611e94836127a0565b60405191825260208201526040908101905180910390209050919050565b60006001836002811115611ec257fe5b141580611eda57506001846001811115611ed857fe5b145b801561165e57506000836002811115611eef57fe5b148061165e5750506000901192915050565b600080611f0d846114c0565b9050611f1a818585611575565b1515611f2557600080fd5b8091505b5092915050565b60006001856002811115611f4057fe5b1415611f6f578151600160a060020a031684600160a060020a0316148015611f685750824210155b905061165e565b821580611f6857505050421092915050565b611f89612ad2565b611f91612ae4565b60008061010060405190810160409081527f800000000000000000000000000000000000000000000000000000000000000082527f400000000000000000000000000000000000000000000000000000000000000060208301527f2000000000000000000000000000000000000000000000000000000000000000908201527f100000000000000000000000000000000000000000000000000000000000000060608201527f080000000000000000000000000000000000000000000000000000000000000060808201527f040000000000000000000000000000000000000000000000000000000000000060a08201527f020000000000000000000000000000000000000000000000000000000000000060c082015260f860020a60e0820152925085518751146120c257600080fd5b600887518115156120cf57fe5b048551146120dc57600080fd5b600091505b86518210156121ab578260088306600881106120f957fe5b602002015185600884048151811061210d57fe5b016020015160f860020a900460f860020a0216600160f860020a031916600060f860020a021490508061215d5785828151811061214657fe5b016020015160f860020a900460f860020a0261217c565b86828151811061216957fe5b016020015160f860020a900460f860020a025b87838151811061218857fe5b906020010190600160f860020a031916908160001a9053506001909101906120e1565b509495945050505050565b60008082518451146121cb5760009150611f29565b5060005b8351811015612240578281815181106121e457fe5b016020015160f860020a900460f860020a02600160f860020a03191684828151811061220c57fe5b016020015160f860020a900460f860020a02600160f860020a0319161415156122385760009150611f29565b6001016121cf565b5060019392505050565b6000806004600061225a85611e80565b815260208101919091526040016000209150612277848484612882565b90506122928460200151856101e00151866101600151612952565b6122ab8360200151846101e00151856101600151612952565b8154600160a060020a0316156122da5781546122da90600160a060020a03166101208501518460010154612383565b6122ee846020015184610120015183611678565b612302836020015184610120015183611c79565b50505050565b600082820183811015611f2557fe5b6000600187600181111561232757fe5b14801561233f5750600186600281111561233d57fe5b145b801561234a57508242105b151561235557600080fd5b60008251600160a060020a0316141561236f575083612379565b8382602001510190505b9695505050505050565b600160a060020a038084166000908152600160209081526040808320938616835292905220546123b39082611666565b600160a060020a03848116600090815260016020908152604080832093871683529290529081208290559010156123e957600080fd5b81600160a060020a031683600160a060020a03167fe6e0ef9cd056ca98561ca60e347ada61e1ede2f1142a078951b7a52e1e508e608360405190815260200160405180910390a3505050565b600160a060020a0380841660009081526001602090815260408083209386168352929052908120546124679083612308565b600160a060020a038581166000818152600160209081526040808320948916808452858352818420879055938352828252808320938352928152919020549190529011156125da57600160a060020a0380851660008181526001602090815260408083209488168084529482528083205493835282825280832094835293905291909120546124f69190611666565b600160a060020a03808616600090815260208181526040808320938816835292905220549091506125279082612308565b600160a060020a03808616600090815260208181526040808320938816808452939091528082209390935590916323b872dd91879130918691516020015260405160e060020a63ffffffff8616028152600160a060020a0393841660048201529190921660248201526044810191909152606401602060405180830381600087803b15156125b457600080fd5b6102c65a03f115156125c557600080fd5b5050506040518051905015156125da57600080fd5b82600160a060020a031684600160a060020a03167f989eaa915cbb416ea3d6f9a63b1a3de51770c7674b11fe21ecdf76b4e1d139108460405190815260200160405180910390a350505050565b6000815182602001518360400151846060015185608001518660a001518760c001518860e001516040516c01000000000000000000000000600160a060020a03808b168202835289160260148201526028810187600181111561268657fe5b60ff1660f860020a0281526001018660028111156126a057fe5b60ff1660f860020a02815260010185600160a060020a0316600160a060020a03166c010000000000000000000000000281526014018460038111156126e157fe5b60ff1660f860020a02815260010183805190602001908083835b6020831061271a5780518252601f1990920191602091820191016126fb565b6001836020036101000a038019825116818451161790925250505091909101905082805190602001908083835b602083106127665780518252601f199092019160209182019101612747565b6001836020036101000a03801982511681845116179092525050509190910199506040985050505050505050505180910390209050919050565b6000816101000151826101200151836101400151846101600151856101800151866101a00151876101c00151886101e001516040518089805190602001908083835b602083106128015780518252601f1990920191602091820191016127e2565b6001836020036101000a03801982511681845116179092525050506c01000000000000000000000000600160a060020a039b8c168102939091019283526014830199909952506034810196909652506054850193909352607484019190915260948301529092160260b482015260c801905060405180910390209050919050565b60008060006128d485604001518660600151876101400151886101800151896101a001518a6101c001518a604080519081016040528154600160a060020a03168152600190910154602082015261296c565b9150612923866040015187606001518861014001518961018001518a6101a001518b6101c001518a604080519081016040528154600160a060020a03168152600190910154602082015261296c565b90508181101561293257600080fd5b856101a00151856101a00151106129495780612379565b50949350505050565b6002546111f69084908490600160a060020a031684612a1a565b6000808088600281111561297c57fe5b141561298a57869150612a0e565b600188600281111561299857fe5b14156129c25760008351600160a060020a031614156129b657600080fd5b82602001519150612a0e565b60028860028111156129d057fe5b14156100cc5784840385420387028115156129e757fe5b04905060018960018111156129f857fe5b1415612a08578087039150612a0e565b80870191505b50979650505050505050565b612a25838383611c79565b612302848383611678565b6102006040519081016040908152600080835260208301819052908201819052606082018190526080820181905260a082015260c08101612a6f612ad2565b8152602001612a7c612ad2565b8152602001612a89612ad2565b81526020016000600160a060020a0316815260200160008152602001600081526020016000815260200160008152602001600081526020016000600160a060020a031681525090565b60206040519081016040526000815290565b6101006040519081016040526008815b600081526000199091019060200181612af457905050905600a165627a7a723058200d6f1f81f78c6c1fed8357ffb0c0291b804f1ba40e6c1c0c896522fc3294be230029",
  "source": "/*\n\n  << Project Wyvern Exchange >>\n\n*/\n\npragma solidity 0.4.18;\n\nimport \"./exchange/Exchange.sol\";\n\n/**\n * @title WyvernExchange\n * @author Project Wyvern Developers\n */\ncontract WyvernExchange is Exchange {\n\n    string public constant name = \"Project Wyvern Exchange\";\n\n    function WyvernExchange (Registry registryAddress, ERC20 tokenAddress) public {\n        exchangeTokenAddress = tokenAddress;\n        registry = registryAddress;\n    }\n\n}\n",
  "sourcePath": "/home/cwgoes/working/crypto/wyvern/wyvern-ethereum/contracts/WyvernExchange.sol",
  "compiler": {
    "name": "solc",
    "version": "0.4.18+commit.9cf6e910.Emscripten.clang"
  },
  "schemaVersion": "1.0.1",
  "updatedAt": "2018-01-13T04:20:21.506Z"
}