{
  "contractName": "WyvernExchange",
  "abi": [
    {
      "constant": true,
      "inputs": [],
      "name": "name",
      "outputs": [
        {
          "name": "",
          "type": "string"
        }
      ],
      "payable": false,
      "stateMutability": "view",
      "type": "function"
    },
    {
      "constant": true,
      "inputs": [],
      "name": "tokenTransferProxy",
      "outputs": [
        {
          "name": "",
          "type": "address"
        }
      ],
      "payable": false,
      "stateMutability": "view",
      "type": "function"
    },
    {
      "constant": true,
      "inputs": [
        {
          "name": "target",
          "type": "address"
        },
        {
          "name": "calldata",
          "type": "bytes"
        },
        {
          "name": "extradata",
          "type": "bytes"
        }
      ],
      "name": "staticCall",
      "outputs": [
        {
          "name": "result",
          "type": "bool"
        }
      ],
      "payable": false,
      "stateMutability": "view",
      "type": "function"
    },
    {
      "constant": false,
      "inputs": [
        {
          "name": "newMinimumMakerProtocolFee",
          "type": "uint256"
        }
      ],
      "name": "changeMinimumMakerProtocolFee",
      "outputs": [],
      "payable": false,
      "stateMutability": "nonpayable",
      "type": "function"
    },
    {
      "constant": false,
      "inputs": [
        {
          "name": "newMinimumTakerProtocolFee",
          "type": "uint256"
        }
      ],
      "name": "changeMinimumTakerProtocolFee",
      "outputs": [],
      "payable": false,
      "stateMutability": "nonpayable",
      "type": "function"
    },
    {
      "constant": true,
      "inputs": [
        {
          "name": "array",
          "type": "bytes"
        },
        {
          "name": "desired",
          "type": "bytes"
        },
        {
          "name": "mask",
          "type": "bytes"
        }
      ],
      "name": "guardedArrayReplace",
      "outputs": [
        {
          "name": "",
          "type": "bytes"
        }
      ],
      "payable": false,
      "stateMutability": "pure",
      "type": "function"
    },
    {
      "constant": true,
      "inputs": [],
      "name": "minimumTakerProtocolFee",
      "outputs": [
        {
          "name": "",
          "type": "uint256"
        }
      ],
      "payable": false,
      "stateMutability": "view",
      "type": "function"
    },
    {
      "constant": true,
      "inputs": [],
      "name": "codename",
      "outputs": [
        {
          "name": "",
          "type": "string"
        }
      ],
      "payable": false,
      "stateMutability": "view",
      "type": "function"
    },
    {
      "constant": true,
      "inputs": [
        {
          "name": "addr",
          "type": "address"
        }
      ],
      "name": "testCopyAddress",
      "outputs": [
        {
          "name": "",
          "type": "bytes"
        }
      ],
      "payable": false,
      "stateMutability": "pure",
      "type": "function"
    },
    {
      "constant": true,
      "inputs": [
        {
          "name": "arrToCopy",
          "type": "bytes"
        }
      ],
      "name": "testCopy",
      "outputs": [
        {
          "name": "",
          "type": "bytes"
        }
      ],
      "payable": false,
      "stateMutability": "pure",
      "type": "function"
    },
    {
      "constant": true,
      "inputs": [
        {
          "name": "addrs",
          "type": "address[7]"
        },
        {
          "name": "uints",
          "type": "uint256[9]"
        },
        {
          "name": "feeMethod",
          "type": "uint8"
        },
        {
          "name": "side",
          "type": "uint8"
        },
        {
          "name": "saleKind",
          "type": "uint8"
        },
        {
          "name": "howToCall",
          "type": "uint8"
        },
        {
          "name": "calldata",
          "type": "bytes"
        },
        {
          "name": "replacementPattern",
          "type": "bytes"
        },
        {
          "name": "staticExtradata",
          "type": "bytes"
        }
      ],
      "name": "calculateCurrentPrice_",
      "outputs": [
        {
          "name": "",
          "type": "uint256"
        }
      ],
      "payable": false,
      "stateMutability": "view",
      "type": "function"
    },
    {
      "constant": false,
      "inputs": [
        {
          "name": "newProtocolFeeRecipient",
          "type": "address"
        }
      ],
      "name": "changeProtocolFeeRecipient",
      "outputs": [],
      "payable": false,
      "stateMutability": "nonpayable",
      "type": "function"
    },
    {
      "constant": true,
      "inputs": [],
      "name": "version",
      "outputs": [
        {
          "name": "",
          "type": "string"
        }
      ],
      "payable": false,
      "stateMutability": "view",
      "type": "function"
    },
    {
      "constant": true,
      "inputs": [
        {
          "name": "buyCalldata",
          "type": "bytes"
        },
        {
          "name": "buyReplacementPattern",
          "type": "bytes"
        },
        {
          "name": "sellCalldata",
          "type": "bytes"
        },
        {
          "name": "sellReplacementPattern",
          "type": "bytes"
        }
      ],
      "name": "orderCalldataCanMatch",
      "outputs": [
        {
          "name": "",
          "type": "bool"
        }
      ],
      "payable": false,
      "stateMutability": "pure",
      "type": "function"
    },
    {
      "constant": true,
      "inputs": [
        {
          "name": "addrs",
          "type": "address[7]"
        },
        {
          "name": "uints",
          "type": "uint256[9]"
        },
        {
          "name": "feeMethod",
          "type": "uint8"
        },
        {
          "name": "side",
          "type": "uint8"
        },
        {
          "name": "saleKind",
          "type": "uint8"
        },
        {
          "name": "howToCall",
          "type": "uint8"
        },
        {
          "name": "calldata",
          "type": "bytes"
        },
        {
          "name": "replacementPattern",
          "type": "bytes"
        },
        {
          "name": "staticExtradata",
          "type": "bytes"
        },
        {
          "name": "v",
          "type": "uint8"
        },
        {
          "name": "r",
          "type": "bytes32"
        },
        {
          "name": "s",
          "type": "bytes32"
        }
      ],
      "name": "validateOrder_",
      "outputs": [
        {
          "name": "",
          "type": "bool"
        }
      ],
      "payable": false,
      "stateMutability": "view",
      "type": "function"
    },
    {
      "constant": true,
      "inputs": [
        {
          "name": "side",
          "type": "uint8"
        },
        {
          "name": "saleKind",
          "type": "uint8"
        },
        {
          "name": "basePrice",
          "type": "uint256"
        },
        {
          "name": "extra",
          "type": "uint256"
        },
        {
          "name": "listingTime",
          "type": "uint256"
        },
        {
          "name": "expirationTime",
          "type": "uint256"
        }
      ],
      "name": "calculateFinalPrice",
      "outputs": [
        {
          "name": "",
          "type": "uint256"
        }
      ],
      "payable": false,
      "stateMutability": "view",
      "type": "function"
    },
    {
      "constant": true,
      "inputs": [],
      "name": "protocolFeeRecipient",
      "outputs": [
        {
          "name": "",
          "type": "address"
        }
      ],
      "payable": false,
      "stateMutability": "view",
      "type": "function"
    },
    {
      "constant": true,
      "inputs": [
        {
          "name": "addrs",
          "type": "address[7]"
        },
        {
          "name": "uints",
          "type": "uint256[9]"
        },
        {
          "name": "feeMethod",
          "type": "uint8"
        },
        {
          "name": "side",
          "type": "uint8"
        },
        {
          "name": "saleKind",
          "type": "uint8"
        },
        {
          "name": "howToCall",
          "type": "uint8"
        },
        {
          "name": "calldata",
          "type": "bytes"
        },
        {
          "name": "replacementPattern",
          "type": "bytes"
        },
        {
          "name": "staticExtradata",
          "type": "bytes"
        }
      ],
      "name": "hashOrder_",
      "outputs": [
        {
          "name": "",
          "type": "bytes32"
        }
      ],
      "payable": false,
      "stateMutability": "pure",
      "type": "function"
    },
    {
      "constant": true,
      "inputs": [
        {
          "name": "addrs",
          "type": "address[14]"
        },
        {
          "name": "uints",
          "type": "uint256[18]"
        },
        {
          "name": "feeMethodsSidesKindsHowToCalls",
          "type": "uint8[8]"
        },
        {
          "name": "calldataBuy",
          "type": "bytes"
        },
        {
          "name": "calldataSell",
          "type": "bytes"
        },
        {
          "name": "replacementPatternBuy",
          "type": "bytes"
        },
        {
          "name": "replacementPatternSell",
          "type": "bytes"
        },
        {
          "name": "staticExtradataBuy",
          "type": "bytes"
        },
        {
          "name": "staticExtradataSell",
          "type": "bytes"
        }
      ],
      "name": "ordersCanMatch_",
      "outputs": [
        {
          "name": "",
          "type": "bool"
        }
      ],
      "payable": false,
      "stateMutability": "view",
      "type": "function"
    },
    {
      "constant": false,
      "inputs": [
        {
          "name": "addrs",
          "type": "address[7]"
        },
        {
          "name": "uints",
          "type": "uint256[9]"
        },
        {
          "name": "feeMethod",
          "type": "uint8"
        },
        {
          "name": "side",
          "type": "uint8"
        },
        {
          "name": "saleKind",
          "type": "uint8"
        },
        {
          "name": "howToCall",
          "type": "uint8"
        },
        {
          "name": "calldata",
          "type": "bytes"
        },
        {
          "name": "replacementPattern",
          "type": "bytes"
        },
        {
          "name": "staticExtradata",
          "type": "bytes"
        },
        {
          "name": "orderbookInclusionDesired",
          "type": "bool"
        }
      ],
      "name": "approveOrder_",
      "outputs": [],
      "payable": false,
      "stateMutability": "nonpayable",
      "type": "function"
    },
    {
      "constant": true,
      "inputs": [],
      "name": "registry",
      "outputs": [
        {
          "name": "",
          "type": "address"
        }
      ],
      "payable": false,
      "stateMutability": "view",
      "type": "function"
    },
    {
      "constant": true,
      "inputs": [],
      "name": "minimumMakerProtocolFee",
      "outputs": [
        {
          "name": "",
          "type": "uint256"
        }
      ],
      "payable": false,
      "stateMutability": "view",
      "type": "function"
    },
    {
      "constant": true,
      "inputs": [
        {
          "name": "addrs",
          "type": "address[7]"
        },
        {
          "name": "uints",
          "type": "uint256[9]"
        },
        {
          "name": "feeMethod",
          "type": "uint8"
        },
        {
          "name": "side",
          "type": "uint8"
        },
        {
          "name": "saleKind",
          "type": "uint8"
        },
        {
          "name": "howToCall",
          "type": "uint8"
        },
        {
          "name": "calldata",
          "type": "bytes"
        },
        {
          "name": "replacementPattern",
          "type": "bytes"
        },
        {
          "name": "staticExtradata",
          "type": "bytes"
        }
      ],
      "name": "hashToSign_",
      "outputs": [
        {
          "name": "",
          "type": "bytes32"
        }
      ],
      "payable": false,
      "stateMutability": "pure",
      "type": "function"
    },
    {
      "constant": true,
      "inputs": [
        {
          "name": "",
          "type": "bytes32"
        }
      ],
      "name": "cancelledOrFinalized",
      "outputs": [
        {
          "name": "",
          "type": "bool"
        }
      ],
      "payable": false,
      "stateMutability": "view",
      "type": "function"
    },
    {
      "constant": true,
      "inputs": [],
      "name": "owner",
      "outputs": [
        {
          "name": "",
          "type": "address"
        }
      ],
      "payable": false,
      "stateMutability": "view",
      "type": "function"
    },
    {
      "constant": true,
      "inputs": [],
      "name": "exchangeToken",
      "outputs": [
        {
          "name": "",
          "type": "address"
        }
      ],
      "payable": false,
      "stateMutability": "view",
      "type": "function"
    },
    {
      "constant": false,
      "inputs": [
        {
          "name": "addrs",
          "type": "address[7]"
        },
        {
          "name": "uints",
          "type": "uint256[9]"
        },
        {
          "name": "feeMethod",
          "type": "uint8"
        },
        {
          "name": "side",
          "type": "uint8"
        },
        {
          "name": "saleKind",
          "type": "uint8"
        },
        {
          "name": "howToCall",
          "type": "uint8"
        },
        {
          "name": "calldata",
          "type": "bytes"
        },
        {
          "name": "replacementPattern",
          "type": "bytes"
        },
        {
          "name": "staticExtradata",
          "type": "bytes"
        },
        {
          "name": "v",
          "type": "uint8"
        },
        {
          "name": "r",
          "type": "bytes32"
        },
        {
          "name": "s",
          "type": "bytes32"
        }
      ],
      "name": "cancelOrder_",
      "outputs": [],
      "payable": false,
      "stateMutability": "nonpayable",
      "type": "function"
    },
    {
      "constant": false,
      "inputs": [
        {
          "name": "addrs",
          "type": "address[14]"
        },
        {
          "name": "uints",
          "type": "uint256[18]"
        },
        {
          "name": "feeMethodsSidesKindsHowToCalls",
          "type": "uint8[8]"
        },
        {
          "name": "calldataBuy",
          "type": "bytes"
        },
        {
          "name": "calldataSell",
          "type": "bytes"
        },
        {
          "name": "replacementPatternBuy",
          "type": "bytes"
        },
        {
          "name": "replacementPatternSell",
          "type": "bytes"
        },
        {
          "name": "staticExtradataBuy",
          "type": "bytes"
        },
        {
          "name": "staticExtradataSell",
          "type": "bytes"
        },
        {
          "name": "vs",
          "type": "uint8[2]"
        },
        {
          "name": "rssMetadata",
          "type": "bytes32[5]"
        }
      ],
      "name": "atomicMatch_",
      "outputs": [],
      "payable": true,
      "stateMutability": "payable",
      "type": "function"
    },
    {
      "constant": true,
      "inputs": [
        {
          "name": "addrs",
          "type": "address[7]"
        },
        {
          "name": "uints",
          "type": "uint256[9]"
        },
        {
          "name": "feeMethod",
          "type": "uint8"
        },
        {
          "name": "side",
          "type": "uint8"
        },
        {
          "name": "saleKind",
          "type": "uint8"
        },
        {
          "name": "howToCall",
          "type": "uint8"
        },
        {
          "name": "calldata",
          "type": "bytes"
        },
        {
          "name": "replacementPattern",
          "type": "bytes"
        },
        {
          "name": "staticExtradata",
          "type": "bytes"
        }
      ],
      "name": "validateOrderParameters_",
      "outputs": [
        {
          "name": "",
          "type": "bool"
        }
      ],
      "payable": false,
      "stateMutability": "view",
      "type": "function"
    },
    {
      "constant": true,
      "inputs": [],
      "name": "INVERSE_BASIS_POINT",
      "outputs": [
        {
          "name": "",
          "type": "uint256"
        }
      ],
      "payable": false,
      "stateMutability": "view",
      "type": "function"
    },
    {
      "constant": true,
      "inputs": [
        {
          "name": "addrs",
          "type": "address[14]"
        },
        {
          "name": "uints",
          "type": "uint256[18]"
        },
        {
          "name": "feeMethodsSidesKindsHowToCalls",
          "type": "uint8[8]"
        },
        {
          "name": "calldataBuy",
          "type": "bytes"
        },
        {
          "name": "calldataSell",
          "type": "bytes"
        },
        {
          "name": "replacementPatternBuy",
          "type": "bytes"
        },
        {
          "name": "replacementPatternSell",
          "type": "bytes"
        },
        {
          "name": "staticExtradataBuy",
          "type": "bytes"
        },
        {
          "name": "staticExtradataSell",
          "type": "bytes"
        }
      ],
      "name": "calculateMatchPrice_",
      "outputs": [
        {
          "name": "",
          "type": "uint256"
        }
      ],
      "payable": false,
      "stateMutability": "view",
      "type": "function"
    },
    {
      "constant": true,
      "inputs": [
        {
          "name": "",
          "type": "bytes32"
        }
      ],
      "name": "approvedOrders",
      "outputs": [
        {
          "name": "",
          "type": "bool"
        }
      ],
      "payable": false,
      "stateMutability": "view",
      "type": "function"
    },
    {
      "constant": false,
      "inputs": [
        {
          "name": "newOwner",
          "type": "address"
        }
      ],
      "name": "transferOwnership",
      "outputs": [],
      "payable": false,
      "stateMutability": "nonpayable",
      "type": "function"
    },
    {
      "inputs": [
        {
          "name": "registryAddress",
          "type": "address"
        },
        {
          "name": "tokenTransferProxyAddress",
          "type": "address"
        },
        {
          "name": "tokenAddress",
          "type": "address"
        },
        {
          "name": "protocolFeeAddress",
          "type": "address"
        }
      ],
      "payable": false,
      "stateMutability": "nonpayable",
      "type": "constructor"
    },
    {
      "anonymous": false,
      "inputs": [
        {
          "indexed": true,
          "name": "hash",
          "type": "bytes32"
        },
        {
          "indexed": false,
          "name": "exchange",
          "type": "address"
        },
        {
          "indexed": true,
          "name": "maker",
          "type": "address"
        },
        {
          "indexed": false,
          "name": "taker",
          "type": "address"
        },
        {
          "indexed": false,
          "name": "makerRelayerFee",
          "type": "uint256"
        },
        {
          "indexed": false,
          "name": "takerRelayerFee",
          "type": "uint256"
        },
        {
          "indexed": false,
          "name": "makerProtocolFee",
          "type": "uint256"
        },
        {
          "indexed": false,
          "name": "takerProtocolFee",
          "type": "uint256"
        },
        {
          "indexed": true,
          "name": "feeRecipient",
          "type": "address"
        },
        {
          "indexed": false,
          "name": "feeMethod",
          "type": "uint8"
        },
        {
          "indexed": false,
          "name": "side",
          "type": "uint8"
        },
        {
          "indexed": false,
          "name": "saleKind",
          "type": "uint8"
        },
        {
          "indexed": false,
          "name": "target",
          "type": "address"
        }
      ],
      "name": "OrderApprovedPartOne",
      "type": "event"
    },
    {
      "anonymous": false,
      "inputs": [
        {
          "indexed": true,
          "name": "hash",
          "type": "bytes32"
        },
        {
          "indexed": false,
          "name": "howToCall",
          "type": "uint8"
        },
        {
          "indexed": false,
          "name": "calldata",
          "type": "bytes"
        },
        {
          "indexed": false,
          "name": "replacementPattern",
          "type": "bytes"
        },
        {
          "indexed": false,
          "name": "staticTarget",
          "type": "address"
        },
        {
          "indexed": false,
          "name": "staticExtradata",
          "type": "bytes"
        },
        {
          "indexed": false,
          "name": "paymentToken",
          "type": "address"
        },
        {
          "indexed": false,
          "name": "basePrice",
          "type": "uint256"
        },
        {
          "indexed": false,
          "name": "extra",
          "type": "uint256"
        },
        {
          "indexed": false,
          "name": "listingTime",
          "type": "uint256"
        },
        {
          "indexed": false,
          "name": "expirationTime",
          "type": "uint256"
        },
        {
          "indexed": false,
          "name": "salt",
          "type": "uint256"
        },
        {
          "indexed": false,
          "name": "orderbookInclusionDesired",
          "type": "bool"
        }
      ],
      "name": "OrderApprovedPartTwo",
      "type": "event"
    },
    {
      "anonymous": false,
      "inputs": [
        {
          "indexed": true,
          "name": "hash",
          "type": "bytes32"
        }
      ],
      "name": "OrderCancelled",
      "type": "event"
    },
    {
      "anonymous": false,
      "inputs": [
        {
          "indexed": false,
          "name": "buyHash",
          "type": "bytes32"
        },
        {
          "indexed": false,
          "name": "sellHash",
          "type": "bytes32"
        },
        {
          "indexed": true,
          "name": "maker",
          "type": "address"
        },
        {
          "indexed": true,
          "name": "taker",
          "type": "address"
        },
        {
          "indexed": false,
          "name": "price",
          "type": "uint256"
        },
        {
          "indexed": true,
          "name": "metadata",
          "type": "bytes32"
        }
      ],
      "name": "OrdersMatched",
      "type": "event"
    },
    {
      "anonymous": false,
      "inputs": [
        {
          "indexed": true,
          "name": "previousOwner",
          "type": "address"
        },
        {
          "indexed": true,
          "name": "newOwner",
          "type": "address"
        }
      ],
      "name": "OwnershipTransferred",
      "type": "event"
    }
  ],
  "bytecode": "0x60606040526000805460ff191681556006819055600755341561002157600080fd5b604051608080614a02833981016040528080519190602001805191906020018051919060200180516000805460028054600160a060020a03998a16600160a060020a03199182161790915560038054988a16988216989098179097556001805496891696881696909617909555600880549288169290961691909117909455505033929092166101000261010060a860020a031992831681179092169091179055614931806100d16000396000f3006060604052600436106101875763ffffffff60e060020a60003504166306fdde03811461018c5780630eefdbad1461021657806310796a471461024557806314350c24146102fa5780631a6b13e214610312578063239e83df1461032857806328a8ee68146103fd57806331e63199146104225780633464af6a146104355780633e1e292a146104545780633f67ee0d146104a5578063514f0330146105f257806354fd4d5014610611578063562b2ebc1461062457806360bef33a1461073b57806363d36c0b1461089857806364df049e146108c357806371d02b38146108d657806372593b4c14610a235780637966686814610c3b5780637b10399914610d8c5780637ccefc5214610d9f5780637d76698114610db25780638076f00514610eff5780638da5cb5b14610f15578063a25eb5d914610f28578063a8a41c7014610f3b578063ab834bab14611098578063ca595b9a146112f9578063cae6047f14611446578063d537e13114611459578063e57d4adb14611671578063f2fde38b14611687575b600080fd5b341561019757600080fd5b61019f6116a6565b60405160208082528190810183818151815260200191508051906020019080838360005b838110156101db5780820151838201526020016101c3565b50505050905090810190601f1680156102085780820380516001836020036101000a031916815260200191505b509250505060405180910390f35b341561022157600080fd5b6102296116dd565b604051600160a060020a03909116815260200160405180910390f35b341561025057600080fd5b6102e660048035600160a060020a03169060446024803590810190830135806020601f8201819004810201604051908101604052818152929190602084018383808284378201915050505050509190803590602001908201803590602001908080601f0160208091040260200160405190810160405281815292919060208401838380828437509496506116ec95505050505050565b604051901515815260200160405180910390f35b341561030557600080fd5b610310600435611755565b005b341561031d57600080fd5b61031060043561177a565b341561033357600080fd5b61019f60046024813581810190830135806020601f8201819004810201604051908101604052818152929190602084018383808284378201915050505050509190803590602001908201803590602001908080601f01602080910402602001604051908101604052818152929190602084018383808284378201915050505050509190803590602001908201803590602001908080601f01602080910402602001604051908101604052818152929190602084018383808284375094965061179f95505050505050565b341561040857600080fd5b6104106117bc565b60405190815260200160405180910390f35b341561042d57600080fd5b61019f6117c2565b341561044057600080fd5b61019f600160a060020a03600435166117f9565b341561045f57600080fd5b61019f60046024813581810190830135806020601f8201819004810201604051908101604052818152929190602084018383808284375094965061184995505050505050565b34156104b057600080fd5b610410600460e481600760e06040519081016040529190828260e08082843782019150505050509190806101200190600980602002604051908101604052919082826101208082843750939560ff863581169660208082013583169750604080830135841697506060830135909316955092935060a08101926080909101358401808201929035918291601f830182900482029091019051908101604052818152929190602084018383808284378201915050505050509190803590602001908201803590602001908080601f01602080910402602001604051908101604052818152929190602084018383808284378201915050505050509190803590602001908201803590602001908080601f01602080910402602001604051908101604052818152929190602084018383808284375094965061189095505050505050565b34156105fd57600080fd5b610310600160a060020a03600435166119eb565b341561061c57600080fd5b61019f611a3a565b341561062f57600080fd5b6102e660046024813581810190830135806020601f8201819004810201604051908101604052818152929190602084018383808284378201915050505050509190803590602001908201803590602001908080601f01602080910402602001604051908101604052818152929190602084018383808284378201915050505050509190803590602001908201803590602001908080601f01602080910402602001604051908101604052818152929190602084018383808284378201915050505050509190803590602001908201803590602001908080601f016020809104026020016040519081016040528181529291906020840183838082843750949650611a7195505050505050565b341561074657600080fd5b6102e6600460e481600760e06040519081016040529190828260e08082843782019150505050509190806101200190600980602002604051908101604052919082826101208082843750939560ff863581169660208082013583169750604080830135841697506060830135909316955092935060a08101926080909101358401808201929035918291601f830182900482029091019051908101604052818152929190602084018383808284378201915050505050509190803590602001908201803590602001908080601f01602080910402602001604051908101604052818152929190602084018383808284378201915050505050509190803590602001908201803590602001908080601f0160208091040260200160405190810160405281815292919060208401838380828437509496505060ff8535169460208101359450604001359250611aaf915050565b34156108a357600080fd5b61041060ff6004358116906024351660443560643560843560a435611c50565b34156108ce57600080fd5b610229611c6b565b34156108e157600080fd5b610410600460e481600760e06040519081016040529190828260e08082843782019150505050509190806101200190600980602002604051908101604052919082826101208082843750939560ff863581169660208082013583169750604080830135841697506060830135909316955092935060a08101926080909101358401808201929035918291601f830182900482029091019051908101604052818152929190602084018383808284378201915050505050509190803590602001908201803590602001908080601f01602080910402602001604051908101604052818152929190602084018383808284378201915050505050509190803590602001908201803590602001908080601f016020809104026020016040519081016040528181529291906020840183838082843750949650611c7a95505050505050565b3415610a2e57600080fd5b6102e660046101c481600e6101c0604051908101604052919082826101c0808284378201915050505050919080610240019060128060200260405190810160405291908282610240808284378201915050505050919080610100019060088060200260405190810160405291908282610100808284375093959460208082019550903586018082019450359250829150601f8201819004810201604051908101604052818152929190602084018383808284378201915050505050509190803590602001908201803590602001908080601f01602080910402602001604051908101604052818152929190602084018383808284378201915050505050509190803590602001908201803590602001908080601f01602080910402602001604051908101604052818152929190602084018383808284378201915050505050509190803590602001908201803590602001908080601f01602080910402602001604051908101604052818152929190602084018383808284378201915050505050509190803590602001908201803590602001908080601f01602080910402602001604051908101604052818152929190602084018383808284378201915050505050509190803590602001908201803590602001908080601f016020809104026020016040519081016040528181529291906020840183838082843750949650611dc795505050505050565b3415610c4657600080fd5b610310600460e481600760e06040519081016040529190828260e08082843782019150505050509190806101200190600980602002604051908101604052919082826101208082843750939560ff863581169660208082013583169750604080830135841697506060830135909316955092935060a08101926080909101358401808201929035918291601f830182900482029091019051908101604052818152929190602084018383808284378201915050505050509190803590602001908201803590602001908080601f01602080910402602001604051908101604052818152929190602084018383808284378201915050505050509190803590602001908201803590602001908080601f01602080910402602001604051908101604052818152929190602084018383808284375094965050505091351515915061211b9050565b3415610d9757600080fd5b61022961227f565b3415610daa57600080fd5b61041061228e565b3415610dbd57600080fd5b610410600460e481600760e06040519081016040529190828260e08082843782019150505050509190806101200190600980602002604051908101604052919082826101208082843750939560ff863581169660208082013583169750604080830135841697506060830135909316955092935060a08101926080909101358401808201929035918291601f830182900482029091019051908101604052818152929190602084018383808284378201915050505050509190803590602001908201803590602001908080601f01602080910402602001604051908101604052818152929190602084018383808284378201915050505050509190803590602001908201803590602001908080601f01602080910402602001604051908101604052818152929190602084018383808284375094965061229495505050505050565b3415610f0a57600080fd5b6102e66004356123e1565b3415610f2057600080fd5b6102296123f6565b3415610f3357600080fd5b61022961240a565b3415610f4657600080fd5b610310600460e481600760e06040519081016040529190828260e08082843782019150505050509190806101200190600980602002604051908101604052919082826101208082843750939560ff863581169660208082013583169750604080830135841697506060830135909316955092935060a08101926080909101358401808201929035918291601f830182900482029091019051908101604052818152929190602084018383808284378201915050505050509190803590602001908201803590602001908080601f01602080910402602001604051908101604052818152929190602084018383808284378201915050505050509190803590602001908201803590602001908080601f0160208091040260200160405190810160405281815292919060208401838380828437509496505060ff8535169460208101359450604001359250612419915050565b61031060046101c481600e6101c0604051908101604052919082826101c0808284378201915050505050919080610240019060128060200260405190810160405291908282610240808284378201915050505050919080610100019060088060200260405190810160405291908282610100808284375093959460208082019550903586018082019450359250829150601f8201819004810201604051908101604052818152929190602084018383808284378201915050505050509190803590602001908201803590602001908080601f01602080910402602001604051908101604052818152929190602084018383808284378201915050505050509190803590602001908201803590602001908080601f01602080910402602001604051908101604052818152929190602084018383808284378201915050505050509190803590602001908201803590602001908080601f01602080910402602001604051908101604052818152929190602084018383808284378201915050505050509190803590602001908201803590602001908080601f01602080910402602001604051908101604052818152929190602084018383808284378201915050505050509190803590602001908201803590602001908080601f0160208091040260200160405190810160405281815292919060208401838380828437820191505050505050919080604001906002806020026040519081016040528092919082600260200280828437820191505050505091908060a001906005806020026040519081016040529190828260a08082843750939550612591945050505050565b341561130457600080fd5b6102e6600460e481600760e06040519081016040529190828260e08082843782019150505050509190806101200190600980602002604051908101604052919082826101208082843750939560ff863581169660208082013583169750604080830135841697506060830135909316955092935060a08101926080909101358401808201929035918291601f830182900482029091019051908101604052818152929190602084018383808284378201915050505050509190803590602001908201803590602001908080601f01602080910402602001604051908101604052818152929190602084018383808284378201915050505050509190803590602001908201803590602001908080601f01602080910402602001604051908101604052818152929190602084018383808284375094965061292295505050505050565b341561145157600080fd5b610410612a89565b341561146457600080fd5b61041060046101c481600e6101c0604051908101604052919082826101c0808284378201915050505050919080610240019060128060200260405190810160405291908282610240808284378201915050505050919080610100019060088060200260405190810160405291908282610100808284375093959460208082019550903586018082019450359250829150601f8201819004810201604051908101604052818152929190602084018383808284378201915050505050509190803590602001908201803590602001908080601f01602080910402602001604051908101604052818152929190602084018383808284378201915050505050509190803590602001908201803590602001908080601f01602080910402602001604051908101604052818152929190602084018383808284378201915050505050509190803590602001908201803590602001908080601f01602080910402602001604051908101604052818152929190602084018383808284378201915050505050509190803590602001908201803590602001908080601f01602080910402602001604051908101604052818152929190602084018383808284378201915050505050509190803590602001908201803590602001908080601f016020809104026020016040519081016040528181529291906020840183838082843750949650612a8f95505050505050565b341561167c57600080fd5b6102e6600435612dd3565b341561169257600080fd5b610310600160a060020a0360043516612de8565b60408051908101604052601781527f50726f6a6563742057797665726e2045786368616e6765000000000000000000602082015281565b600354600160a060020a031681565b60006116f6614823565b6000835185510160405180591061170a5750595b818152601f19601f83011681016020016040529050915050602081016117308185612e93565b905061173c8186612e93565b506000604051835160208501895afa9695505050505050565b60005433600160a060020a03908116610100909204161461177557600080fd5b600655565b60005433600160a060020a03908116610100909204161461179a57600080fd5b600755565b6117a7614823565b6117b2848484612ed7565b50825b9392505050565b60075481565b60408051908101604052600881527f42616b756e617761000000000000000000000000000000000000000000000000602082015281565b611801614823565b611809614823565b6000601460405180591061181a5750595b818152601f19601f83011681016020016040529050915050602081016118408185613057565b50909392505050565b611851614823565b611859614823565b6000835160405180591061186a5750595b818152601f19601f83011681016020016040529050915050602081016118408185612e93565b60006119dd6102e0604051908101604052808c51600160a060020a031681526020018c60016020020151600160a060020a0316815260200160408d0151600160a060020a031681526020018b5181526020018b60016020020151815260200160408c0151815260200160608c0151815260200160608d0151600160a060020a031681526020018a600181111561192257fe5b815260200189600181111561193357fe5b815260200188600181111561194457fe5b815260200160808d0151600160a060020a0316815260200187600181111561196857fe5b8152602081018790526040810186905260600160a08d0151600160a060020a031681526020810185905260400160c08d0151600160a060020a0316815260200160808c0151815260200160a08c0151815260200160c08c0151815260200160e08c015181526020016101008c01519052613083565b9a9950505050505050505050565b60005433600160a060020a039081166101009092041614611a0b57600080fd5b6008805473ffffffffffffffffffffffffffffffffffffffff1916600160a060020a0392909216919091179055565b60408051908101604052600181527f3200000000000000000000000000000000000000000000000000000000000000602082015281565b60008084511115611a8757611a87858486612ed7565b600082511115611a9c57611a9c838684612ed7565b611aa685846130b9565b95945050505050565b6000611ab9614835565b6102e0604051908101604052808f51600160a060020a031681526020018f60016020020151600160a060020a031681526020018f60026020020151600160a060020a031681526020018e5181526020018e60016020020151815260200160408f0151815260200160608f015181526020018f60036020020151600160a060020a031681526020018d6001811115611b4c57fe5b81526020018c6001811115611b5d57fe5b81526020018b6001811115611b6e57fe5b81526020018f60046020020151600160a060020a031681526020018a6001811115611b9557fe5b8152602081018a9052604081018990526060018f60056020020151600160a060020a03168152602081018890526040018f60066020020151600160a060020a0316815260200160808f0151815260200160a08f0151815260200160c08f0151815260200160e08f015181526020016101008f015190529050611c3e611c198261311c565b826060604051908101604090815260ff8a168252602082018990528101879052613167565b9e9d5050505050505050505050505050565b6000611c60878787878787613264565b979650505050505050565b600854600160a060020a031681565b60006119dd6102e0604051908101604052808c51600160a060020a031681526020018c60016020020151600160a060020a0316815260200160408d0151600160a060020a031681526020018b5181526020018b60016020020151815260200160408c0151815260200160608c0151815260200160608d0151600160a060020a031681526020018a6001811115611d0c57fe5b8152602001896001811115611d1d57fe5b8152602001886001811115611d2e57fe5b815260200160808d0151600160a060020a03168152602001876001811115611d5257fe5b8152602081018790526040810186905260600160a08d0151600160a060020a031681526020810185905260400160c08d0151600160a060020a0316815260200160808c0151815260200160a08c0151815260200160c08c0151815260200160e08c015181526020016101008c015190526132f7565b6000611dd1614835565b611dd9614835565b6102e0604051908101604052808d51600160a060020a031681526020018d60016020020151600160a060020a0316815260200160408e0151600160a060020a031681526020018c5181526020018c60016020020151815260200160408d0151815260200160608d0151815260200160608e0151600160a060020a031681526020018b5160ff166001811115611e6a57fe5b6001811115611e7557fe5b81526020018b6001602002015160ff166001811115611e9057fe5b6001811115611e9b57fe5b815260200160408c015160ff166001811115611eb357fe5b6001811115611ebe57fe5b815260200160808e0151600160a060020a0316815260200160608c015160ff166001811115611ee957fe5b6001811115611ef457fe5b8152602081018b90526040810189905260600160a08e0151600160a060020a031681526020810187905260400160c08e0151600160a060020a0316815260200160808d0151815260200160a08d0151815260200160c08d0151815260200160e08d015181526020016101008d0151905291506102e06040519081016040528060e08e0151600160a060020a031681526020016101008e0151600160a060020a031681526020016101208e0151600160a060020a031681526020016101208d015181526020016101408d015181526020016101608d015181526020016101808d015181526020016101408e0151600160a060020a0316815260200160808c015160ff16600181111561200157fe5b600181111561200c57fe5b815260200160a08c015160ff16600181111561202457fe5b600181111561202f57fe5b815260200160c08c015160ff16600181111561204757fe5b600181111561205257fe5b81526020016101608e0151600160a060020a0316815260200160e08c015160ff16600181111561207e57fe5b600181111561208957fe5b8152602081018a9052604081018890526060016101808e0151600160a060020a03168152602081018690526040016101a08e0151600160a060020a031681526020016101a08d015181526020016101c08d015181526020016101e08d015181526020016102008d015181526020016102208d01519052905061210b82826134dc565b9c9b505050505050505050505050565b612123614835565b6102e0604051908101604052808c51600160a060020a031681526020018c60016020020151600160a060020a0316815260200160408d0151600160a060020a031681526020018b5181526020018b60016020020151815260200160408c0151815260200160608c0151815260200160608d0151600160a060020a031681526020018a60018111156121b057fe5b81526020018960018111156121c157fe5b81526020018860018111156121d257fe5b815260200160808d0151600160a060020a031681526020018760018111156121f657fe5b8152602081018790526040810186905260600160a08d0151600160a060020a031681526020810185905260400160c08d0151600160a060020a0316815260200160808c0151815260200160a08c0151815260200160c08c0151815260200160e08c015181526020016101008c01519052905061227281836136c2565b5050505050505050505050565b600254600160a060020a031681565b60065481565b60006119dd6102e0604051908101604052808c51600160a060020a031681526020018c60016020020151600160a060020a0316815260200160408d0151600160a060020a031681526020018b5181526020018b60016020020151815260200160408c0151815260200160608c0151815260200160608d0151600160a060020a031681526020018a600181111561232657fe5b815260200189600181111561233757fe5b815260200188600181111561234857fe5b815260200160808d0151600160a060020a0316815260200187600181111561236c57fe5b8152602081018790526040810186905260600160a08d0151600160a060020a031681526020810185905260400160c08d0151600160a060020a0316815260200160808c0151815260200160a08c0151815260200160c08c0151815260200160e08c015181526020016101008c0151905261311c565b60046020526000908152604090205460ff1681565b6000546101009004600160a060020a031681565b600154600160a060020a031681565b6125836102e0604051908101604052808e51600160a060020a031681526020018e60016020020151600160a060020a0316815260200160408f0151600160a060020a031681526020018d5181526020018d60016020020151815260200160408e0151815260200160608e0151815260200160608f0151600160a060020a031681526020018c60018111156124a957fe5b81526020018b60018111156124ba57fe5b81526020018a60018111156124cb57fe5b815260200160808f0151600160a060020a031681526020018960018111156124ef57fe5b8152602081018990526040810188905260600160a08f0151600160a060020a031681526020810187905260400160c08f0151600160a060020a0316815260200160808e0151815260200160a08e0151815260200160c08e0151815260200160e08e015181526020016101008e015190526060604051908101604090815260ff87168252602082018690528101849052613a76565b505050505050505050505050565b6122726102e0604051908101604052808d51600160a060020a031681526020018d60016020020151600160a060020a0316815260200160408e0151600160a060020a031681526020018c5181526020018c60016020020151815260200160408d0151815260200160608d0151815260200160608e0151600160a060020a031681526020018b5160ff16600181111561262557fe5b600181111561263057fe5b81526020018b6001602002015160ff16600181111561264b57fe5b600181111561265657fe5b815260200160408c015160ff16600181111561266e57fe5b600181111561267957fe5b815260200160808e0151600160a060020a0316815260200160608c015160ff1660018111156126a457fe5b60018111156126af57fe5b8152602081018b90526040810189905260600160a08e0151600160a060020a031681526020810187905260400160c08e0151600160a060020a0316815260200160808d0151815260200160a08d0151815260200160c08d0151815260200160e08d015181526020016101008d01519052606060405190810160405280855160ff16815260200184518152602001846001602002015190526102e0604051908101604052808f60076020020151600160a060020a031681526020018f60086020020151600160a060020a031681526020018f60096020020151600160a060020a031681526020016101208f015181526020016101408f015181526020016101608f015181526020016101808f015181526020018f600a6020020151600160a060020a0316815260200160808e015160ff1660018111156127ea57fe5b60018111156127f557fe5b815260200160a08e015160ff16600181111561280d57fe5b600181111561281857fe5b815260200160c08e015160ff16600181111561283057fe5b600181111561283b57fe5b81526020018f600b6020020151600160a060020a0316815260200160e08e015160ff16600181111561286957fe5b600181111561287457fe5b8152602081018c9052604081018a90526060018f600c6020020151600160a060020a03168152602081018890526040018f600d6020020151600160a060020a031681526020016101a08f015181526020016101c08f015181526020016101e08f015181526020016102008f015181526020016102208f01519052606060405190810160405280602088015160ff16815260200160408701518152602001606087015190526080860151613af5565b600061292c614835565b6102e0604051908101604052808c51600160a060020a031681526020018c60016020020151600160a060020a0316815260200160408d0151600160a060020a031681526020018b5181526020018b60016020020151815260200160408c0151815260200160608c0151815260200160608d0151600160a060020a031681526020018a60018111156129b957fe5b81526020018960018111156129ca57fe5b81526020018860018111156129db57fe5b815260200160808d0151600160a060020a031681526020018760018111156129ff57fe5b8152602081018790526040810186905260600160a08d0151600160a060020a031681526020810185905260400160c08d0151600160a060020a0316815260200160808c0151815260200160a08c0151815260200160c08c0151815260200160e08c015181526020016101008c015190529050612a7a81613f9b565b9b9a5050505050505050505050565b61271081565b6000612a99614835565b612aa1614835565b6102e0604051908101604052808d51600160a060020a031681526020018d60016020020151600160a060020a0316815260200160408e0151600160a060020a031681526020018c5181526020018c60016020020151815260200160408d0151815260200160608d0151815260200160608e0151600160a060020a031681526020018b5160ff166001811115612b3257fe5b6001811115612b3d57fe5b81526020018b6001602002015160ff166001811115612b5857fe5b6001811115612b6357fe5b815260200160408c015160ff166001811115612b7b57fe5b6001811115612b8657fe5b815260200160808e0151600160a060020a0316815260200160608c015160ff166001811115612bb157fe5b6001811115612bbc57fe5b8152602081018b90526040810189905260600160a08e0151600160a060020a031681526020810187905260400160c08e0151600160a060020a0316815260200160808d0151815260200160a08d0151815260200160c08d0151815260200160e08d015181526020016101008d0151905291506102e06040519081016040528060e08e0151600160a060020a031681526020016101008e0151600160a060020a031681526020016101208e0151600160a060020a031681526020016101208d015181526020016101408d015181526020016101608d015181526020016101808d015181526020016101408e0151600160a060020a0316815260200160808c015160ff166001811115612cc957fe5b6001811115612cd457fe5b815260200160a08c015160ff166001811115612cec57fe5b6001811115612cf757fe5b815260200160c08c015160ff166001811115612d0f57fe5b6001811115612d1a57fe5b81526020016101608e0151600160a060020a0316815260200160e08c015160ff166001811115612d4657fe5b6001811115612d5157fe5b8152602081018a9052604081018890526060016101808e0151600160a060020a03168152602081018690526040016101a08e0151600160a060020a031681526020016101a08d015181526020016101c08d015181526020016101e08d015181526020016102008d015181526020016102208d01519052905061210b828261402a565b60056020526000908152604090205460ff1681565b60005433600160a060020a039081166101009092041614612e0857600080fd5b600160a060020a0381161515612e1d57600080fd5b600054600160a060020a03808316916101009004167f8be0079c531659141344cd1fd0a4f28419497f9722a3daafe3b4186f6b6457e060405160405180910390a360008054600160a060020a039092166101000274ffffffffffffffffffffffffffffffffffffffff0019909216919091179055565b60008082511115612ed057815180602001830160208401855b60018383101415612ec7578151815260209182019101612eac565b50505092909201915b5090919050565b60008060008451865114612eea57600080fd5b8351865114612ef857600080fd5b612f04865160206140bc565b9250612f118360206140d3565b9150600090505b82811015612f475780600101602002808501518186015181168289015191199091161790870152600101612f18565b6000831115612f7b57602086510390508060010160200280850151818601518116828901518219161782890152505061304f565b50805b855181101561304f57848181518110612f9357fe5b016020015160f860020a900460f860020a02848281518110612fb157fe5b016020015160f860020a900460f860020a0216868281518110612fd057fe5b016020015160f860020a900460f860020a02858381518110612fee57fe5b016020015160f860020a900460f860020a0260ff60f860020a0218161786828151811061301757fe5b9060200101907effffffffffffffffffffffffffffffffffffffffffffffffffffffffffffff1916908160001a905350600101612f7e565b505050505050565b6c01000000000000000000000000600160a060020a0382160280835260149092019182905b5092915050565b60006130b1826101200151836101400151846102400151856102600151866102800151876102a00151613264565b90505b919050565b60006001835183518114600181146130d45760009250613112565b600160208701838101602088015b60028483851001141561310d5780518351146131015760009650600093505b602092830192016130e2565b505050505b5090949350505050565b6000613127826132f7565b6040517f19457468657265756d205369676e6564204d6573736167653a0a3332000000008152601c810191909152603c0160405180910390209050919050565b600061317283613f9b565b1515613180575060006117b5565b60008481526004602052604090205460ff161561319f575060006117b5565b60008481526005602052604090205460ff16156131be575060016117b5565b8260200151600160a060020a03166001858451856020015186604001516040516000815260200160405260006040516020015260405193845260ff90921660208085019190915260408085019290925260608401929092526080909201915160208103908084039060008661646e5a03f1151561323a57600080fd5b505060206040510351600160a060020a0316141561325a575060016117b5565b5060009392505050565b6000808087600181111561327457fe5b1415613282578591506132ec565b600187600181111561329057fe5b14156132ec576132bb6132ac866132a742886140fe565b6140d3565b6132b685876140fe565b6140bc565b905060018860018111156132cb57fe5b14156132e2576132db86826140fe565b91506132ec565b6132db8682614110565b509695505050505050565b600080613302614823565b600061330d8561411f565b92508260405180591061331d5750595b818152601f19601f8301168101602001604052905091505060208101613344818651613057565b9050613354818660200151613057565b9050613364818660400151613057565b9050613374818660600151614142565b9050613384818660800151614142565b9050613394818660a00151614142565b90506133a4818660c00151614142565b90506133b4818660e00151613057565b90506133d08186610100015160018111156133cb57fe5b61414a565b90506133e78186610120015160018111156133cb57fe5b90506133fe8186610140015160018111156133cb57fe5b905061340f81866101600151613057565b90506134268186610180015160018111156133cb57fe5b905061343781866101a00151612e93565b905061344881866101c00151612e93565b905061345981866101e00151613057565b905061346a81866102000151612e93565b905061347b81866102200151613057565b905061348c81866102400151614142565b905061349d81866102600151614142565b90506134ae81866102800151614142565b90506134bf81866102a00151614142565b90506134d081866102c00151614142565b50506020012092915050565b60008083610120015160018111156134f057fe5b14801561350d57506001826101200151600181111561350b57fe5b145b80156135385750816101000151600181111561352557fe5b836101000151600181111561353657fe5b145b801561355f5750816102200151600160a060020a0316836102200151600160a060020a0316145b801561359b575060006040830151600160a060020a0316148061359b57508260200151600160a060020a03168260400151600160a060020a0316145b80156135d7575060006040840151600160a060020a031614806135d757508160200151600160a060020a03168360400151600160a060020a0316145b801561363a5750600060e0830151600160a060020a03161480156136095750600060e0840151600160a060020a031614155b8061363a5750600060e0830151600160a060020a03161415801561363a5750600060e0840151600160a060020a0316145b80156136615750816101600151600160a060020a0316836101600151600160a060020a0316145b801561368c5750816101800151600181111561367957fe5b836101800151600181111561368a57fe5b145b80156136a757506136a7836102800151846102a00151614157565b80156117b557506117b5826102800151836102a00151614157565b60008260200151600160a060020a031633600160a060020a03161415156136e857600080fd5b6136f18361311c565b60008181526005602052604090205490915060ff161561371057600080fd5b6000818152600560205260409020805460ff1916600117905560e0830151600160a060020a03168360200151600160a060020a0316827f90c7f9f5b58c15f0f635bfb99f55d3d78fdbef3559e7d8abf5c81052a527662286518760400151886060015189608001518a60a001518b60c001518c61010001518d61012001518e61014001518f6101600151604051808b600160a060020a0316600160a060020a031681526020018a600160a060020a0316600160a060020a031681526020018981526020018881526020018781526020018681526020018560018111156137f257fe5b60ff16815260200184600181111561380657fe5b60ff16815260200183600181111561381a57fe5b60ff16815260200182600160a060020a0316600160a060020a031681526020019a505050505050505050505060405180910390a4807fe55393c778364e440d958b39ac1debd99dcfae3775a8a04d1e79124adf6a2d08610180850151856101a00151866101c00151876101e001518861020001518961022001518a61024001518b61026001518c61028001518d6102a001518e6102c001518e604051808d60018111156138c357fe5b60ff16815260200180602001806020018c600160a060020a0316600160a060020a03168152602001806020018b600160a060020a0316600160a060020a031681526020018a81526020018981526020018881526020018781526020018681526020018515151515815260200184810384528f818151815260200191508051906020019080838360005b8381101561396457808201518382015260200161394c565b50505050905090810190601f1680156139915780820380516001836020036101000a031916815260200191505b5084810383528e818151815260200191508051906020019080838360005b838110156139c75780820151838201526020016139af565b50505050905090810190601f1680156139f45780820380516001836020036101000a031916815260200191505b5084810382528c818151815260200191508051906020019080838360005b83811015613a2a578082015183820152602001613a12565b50505050905090810190601f168015613a575780820380516001836020036101000a031916815260200191505b509f5050505050505050505050505050505060405180910390a2505050565b6000613a828383614173565b90508260200151600160a060020a031633600160a060020a0316141515613aa857600080fd5b60008181526004602052604090819020805460ff1916600117905581907f5152abf959f6564662358c2e52b702259b78bac5ee7842a0f01937e670efcc7d905160405180910390a2505050565b600080548190819081908190819060ff1615613b1057600080fd5b6000805460ff19166001179055600160a060020a03331660208c0151600160a060020a03161415613b5457613b448b613f9b565b1515613b4f57600080fd5b613b61565b613b5e8b8b614173565b95505b33600160a060020a03168960200151600160a060020a03161415613b9857613b8889613f9b565b1515613b9357600080fd5b613ba5565b613ba28989614173565b94505b613baf8b8a6134dc565b1515613bba57600080fd5b886101600151803b9450925060008411613bd357600080fd5b60008b6101c00151511115613bfc57613bfc8b6101a001518a6101a001518d6101c00151612ed7565b6000896101c00151511115613c2557613c25896101a001518c6101a001518b6101c00151612ed7565b613c398b6101a001518a6101a001516130b9565b1515613c4457600080fd5b600254600160a060020a031663c455279160208b015160006040516020015260405160e060020a63ffffffff8416028152600160a060020a039091166004820152602401602060405180830381600087803b1515613ca157600080fd5b6102c65a03f11515613cb257600080fd5b5050506040518051925050600160a060020a0382161515613cd257600080fd5b8a60200151600160a060020a031633600160a060020a0316141515613d0b576000868152600460205260409020805460ff191660011790555b8860200151600160a060020a031633600160a060020a0316141515613d44576000858152600460205260409020805460ff191660011790555b613d4e8b8a614197565b905081600160a060020a0316631b0f7ba98a61016001518b61018001518c6101a001516000604051602001526040518463ffffffff1660e060020a0281526004018084600160a060020a0316600160a060020a03168152602001836001811115613db457fe5b60ff16815260200180602001828103825283818151815260200191508051906020019080838360005b83811015613df5578082015183820152602001613ddd565b50505050905090810190601f168015613e225780820380516001836020036101000a031916815260200191505b50945050505050602060405180830381600087803b1515613e4257600080fd5b6102c65a03f11515613e5357600080fd5b505050604051805190501515613e6857600080fd5b60006101e08c0151600160a060020a031614613ea357613e988b6101e001518a6101a001518d61020001516116ec565b1515613ea357600080fd5b60006101e08a0151600160a060020a031614613ede57613ed3896101e001518a6101a001518b61020001516116ec565b1515613ede57600080fd5b86600060e08b0151600160a060020a03161415613eff578960200151613f05565b8b602001515b600160a060020a0316600060e08c0151600160a060020a03161415613f2e578c60200151613f34565b8a602001515b600160a060020a03167fc4109843e0b7d514e4c093114b863f8e7d8d9a458c372cd51bfe526b588006c989898660405192835260208301919091526040808301919091526060909101905180910390a450506000805460ff19169055505050505050505050565b6000600160a060020a0330168251600160a060020a031614613fbf575060006130b4565b613fd3826101400151836102a0015161473e565b1515613fe1575060006130b4565b60018261010001516001811115613ff457fe5b14801561401557506006548260a00151108061401557506007548260c00151105b15614022575060006130b4565b506001919050565b600080600061405b846101200151856101400151866102400151876102600151886102800151896102a00151613264565b91506140898561012001518661014001518761024001518861026001518961028001518a6102a00151613264565b90508181101561409857600080fd5b600060e0850151600160a060020a031614156140b45780611aa6565b509392505050565b60008082848115156140ca57fe5b04949350505050565b6000808315156140e6576000915061307c565b508282028284828115156140f657fe5b04146117b557fe5b60008282111561410a57fe5b50900390565b6000828201838110156117b557fe5b600081610200015151826101c0015151836101a001515101016101b00192915050565b815260200190565b6000818353505060010190565b600042831080156117b557508115806117b55750504210919050565b60008061417f8461311c565b905061418c818585613167565b15156117b557600080fd5b60008080808080808080806102208b0151600160a060020a0316146141c15734156141c157600080fd5b6141cb8b8b61402a565b97506000881180156141ec575060006102208b0151600160a060020a031614155b1561420a5761420a8a61022001518c602001518c602001518b61475e565b879650869550600060e08b0151600160a060020a03161461450c578a608001518a60800151111561423a57600080fd5b60018a6101000151600181111561424d57fe5b14156144d9578a60c001518a60c00151111561426857600080fd5b60008a6060015111156143065761428e6142868b606001518a6140d3565b6127106140bc565b945060006102208b0151600160a060020a031614156142ed576142b187866140fe565b96508960e00151600160a060020a031685156108fc0286604051600060405180830381858888f1935050505015156142e857600080fd5b614306565b6143068a61022001518b602001518c60e001518861475e565b60008a60800151111561439c576143246142868b608001518a6140d3565b935060006102208b0151600160a060020a03161415614383576143478685614110565b95508960e00151600160a060020a031684156108fc0285604051600060405180830381858888f19350505050151561437e57600080fd5b61439c565b61439c8a61022001518c602001518c60e001518761475e565b60008a60a001511115614438576143ba6142868b60a001518a6140d3565b925060006102208b0151600160a060020a03161415614418576143dd87846140fe565b600854909750600160a060020a031683156108fc0284604051600060405180830381858888f19350505050151561441357600080fd5b614438565b6144388a61022001518b60200151600854600160a060020a03168661475e565b60008a60c0015111156144d4576144566142868b60c001518a6140d3565b915060006102208b0151600160a060020a031614156144b4576144798683614110565b600854909650600160a060020a031682156108fc0283604051600060405180830381858888f1935050505015156144af57600080fd5b6144d4565b6144d48a61022001518c60200151600854600160a060020a03168561475e565b614507565b6144f08a602001518b60e001518c60600151614806565b6145078b602001518b60e001518c60800151614806565b61468b565b89608001518b60800151111561452157600080fd5b60018a6101000151600181111561453457fe5b141561465d5760006102208b0151600160a060020a0316141561455657600080fd5b8960c001518b60c00151111561456b57600080fd5b60008b6060015111156145a4576145896142868c606001518a6140d3565b94506145a48a61022001518c602001518d60e001518861475e565b60008b6080015111156145dd576145c26142868c608001518a6140d3565b93506145dd8a61022001518b602001518d60e001518761475e565b60008b60a00151111561461d576145fb6142868c60a001518a6140d3565b925061461d8a61022001518c60200151600854600160a060020a03168661475e565b60008b60c0015111156145075761463b6142868c60c001518a6140d3565b91506145078a61022001518b60200151600854600160a060020a03168561475e565b6146748b602001518c60e001518d60600151614806565b61468b8a602001518c60e001518d60800151614806565b60006102208b0151600160a060020a0316141561472f5734869010156146b057600080fd5b8960200151600160a060020a031687156108fc0288604051600060405180830381858888f1935050505015156146e557600080fd5b6146ef34876140fe565b9050600081111561472f578a60200151600160a060020a031681156108fc0282604051600060405180830381858888f19350505050151561472f57600080fd5b50959998505050505050505050565b60008083600181111561474d57fe5b14806117b557505060009011919050565b600081111561480057600354600160a060020a03166315dacbea8585858560006040516020015260405160e060020a63ffffffff8716028152600160a060020a0394851660048201529284166024840152921660448201526064810191909152608401602060405180830381600087803b15156147da57600080fd5b6102c65a03f115156147eb57600080fd5b50505060405180519050151561480057600080fd5b50505050565b60015461481e90600160a060020a031684848461475e565b505050565b60206040519081016040526000815290565b6102e06040519081016040908152600080835260208301819052908201819052606082018190526080820181905260a0820181905260c0820181905260e0820181905261010082018190526101208201819052610140820181905261016082018190526101808201526101a081016148ab614823565b81526020016148b8614823565b8152600060208201526040016148cc614823565b81526020016000600160a060020a03168152602001600081526020016000815260200160008152602001600081526020016000815250905600a165627a7a723058208ddcf50032fda64b8fbfb1b0dbfc56194bed94852a7c52e8d3f229b08e4f87d50029",
  "source": "/*\n\n  << Project Wyvern Exchange >>\n\n*/\n\npragma solidity 0.4.19;\n\nimport \"./exchange/Exchange.sol\";\n\n/**\n * @title WyvernExchange\n * @author Project Wyvern Developers\n */\ncontract WyvernExchange is Exchange {\n\n    string public constant name = \"Project Wyvern Exchange\";\n\n    string public constant version = \"2\";\n\n    string public constant codename = \"Bakunawa\";\n\n    /**\n     * @dev Initialize a WyvernExchange instance\n     * @param registryAddress Address of the registry instance which this Exchange instance will use\n     * @param tokenAddress Address of the token used for protocol fees\n     */\n    function WyvernExchange (ProxyRegistry registryAddress, TokenTransferProxy tokenTransferProxyAddress, ERC20 tokenAddress, address protocolFeeAddress) public {\n        registry = registryAddress;\n        tokenTransferProxy = tokenTransferProxyAddress;\n        exchangeToken = tokenAddress;\n        protocolFeeRecipient = protocolFeeAddress;\n        owner = msg.sender;\n    }\n\n}\n",
  "sourcePath": "/home/cwgoes/working/crypto/wyvern/wyvern-ethereum/contracts/WyvernExchange.sol",
  "compiler": {
    "name": "solc",
    "version": "0.4.19+commit.c4cbbb05.Emscripten.clang"
  },
  "schemaVersion": "2.0.0",
  "updatedAt": "2018-04-01T13:33:03.678Z"
}