{
  "contractName": "WyvernExchange",
  "abi": [
    {
      "constant": false,
      "inputs": [
        {
          "name": "bidFee",
          "type": "uint256"
        }
      ],
      "name": "setBidFee",
      "outputs": [],
      "payable": false,
      "stateMutability": "nonpayable",
      "type": "function"
    },
    {
      "constant": true,
      "inputs": [],
      "name": "name",
      "outputs": [
        {
          "name": "",
          "type": "string"
        }
      ],
      "payable": false,
      "stateMutability": "view",
      "type": "function"
    },
    {
      "constant": true,
      "inputs": [
        {
          "name": "",
          "type": "bytes32"
        }
      ],
      "name": "sales",
      "outputs": [
        {
          "name": "buyer",
          "type": "address"
        },
        {
          "name": "price",
          "type": "uint256"
        },
        {
          "name": "timestamp",
          "type": "uint256"
        },
        {
          "name": "metadataHash",
          "type": "bytes"
        }
      ],
      "payable": false,
      "stateMutability": "view",
      "type": "function"
    },
    {
      "constant": false,
      "inputs": [
        {
          "name": "buyFee",
          "type": "uint256"
        }
      ],
      "name": "setBuyFee",
      "outputs": [],
      "payable": false,
      "stateMutability": "nonpayable",
      "type": "function"
    },
    {
      "constant": true,
      "inputs": [],
      "name": "exchangeTokenAddress",
      "outputs": [
        {
          "name": "",
          "type": "address"
        }
      ],
      "payable": false,
      "stateMutability": "view",
      "type": "function"
    },
    {
      "constant": false,
      "inputs": [
        {
          "name": "dest",
          "type": "address"
        }
      ],
      "name": "withdrawFees",
      "outputs": [],
      "payable": false,
      "stateMutability": "nonpayable",
      "type": "function"
    },
    {
      "constant": false,
      "inputs": [
        {
          "name": "id",
          "type": "bytes32"
        }
      ],
      "name": "removeItem",
      "outputs": [],
      "payable": false,
      "stateMutability": "nonpayable",
      "type": "function"
    },
    {
      "constant": false,
      "inputs": [
        {
          "name": "listFee",
          "type": "uint256"
        }
      ],
      "name": "setListFee",
      "outputs": [],
      "payable": false,
      "stateMutability": "nonpayable",
      "type": "function"
    },
    {
      "constant": false,
      "inputs": [
        {
          "name": "id",
          "type": "bytes32"
        }
      ],
      "name": "purchaseItem",
      "outputs": [],
      "payable": false,
      "stateMutability": "nonpayable",
      "type": "function"
    },
    {
      "constant": true,
      "inputs": [
        {
          "name": "",
          "type": "bytes32"
        }
      ],
      "name": "items",
      "outputs": [
        {
          "name": "seller",
          "type": "address"
        },
        {
          "name": "contractAddress",
          "type": "address"
        },
        {
          "name": "metadataHash",
          "type": "bytes"
        },
        {
          "name": "saleKind",
          "type": "uint8"
        },
        {
          "name": "paymentToken",
          "type": "address"
        },
        {
          "name": "basePrice",
          "type": "uint256"
        },
        {
          "name": "listingTime",
          "type": "uint256"
        },
        {
          "name": "expirationTime",
          "type": "uint256"
        },
        {
          "name": "auctionExtra",
          "type": "uint256"
        },
        {
          "name": "escrowProvider",
          "type": "address"
        },
        {
          "name": "removed",
          "type": "bool"
        }
      ],
      "payable": false,
      "stateMutability": "view",
      "type": "function"
    },
    {
      "constant": true,
      "inputs": [
        {
          "name": "",
          "type": "bytes32"
        }
      ],
      "name": "topBids",
      "outputs": [
        {
          "name": "bidder",
          "type": "address"
        },
        {
          "name": "amount",
          "type": "uint256"
        },
        {
          "name": "timestamp",
          "type": "uint256"
        }
      ],
      "payable": false,
      "stateMutability": "view",
      "type": "function"
    },
    {
      "constant": true,
      "inputs": [],
      "name": "feeBid",
      "outputs": [
        {
          "name": "",
          "type": "uint256"
        }
      ],
      "payable": false,
      "stateMutability": "view",
      "type": "function"
    },
    {
      "constant": true,
      "inputs": [],
      "name": "feeList",
      "outputs": [
        {
          "name": "",
          "type": "uint256"
        }
      ],
      "payable": false,
      "stateMutability": "view",
      "type": "function"
    },
    {
      "constant": false,
      "inputs": [
        {
          "name": "id",
          "type": "bytes32"
        },
        {
          "name": "saleMetadataHash",
          "type": "bytes"
        }
      ],
      "name": "finalizeSale",
      "outputs": [],
      "payable": false,
      "stateMutability": "nonpayable",
      "type": "function"
    },
    {
      "constant": true,
      "inputs": [],
      "name": "owner",
      "outputs": [
        {
          "name": "",
          "type": "address"
        }
      ],
      "payable": false,
      "stateMutability": "view",
      "type": "function"
    },
    {
      "constant": true,
      "inputs": [],
      "name": "collectedFees",
      "outputs": [
        {
          "name": "",
          "type": "uint256"
        }
      ],
      "payable": false,
      "stateMutability": "view",
      "type": "function"
    },
    {
      "constant": false,
      "inputs": [
        {
          "name": "id",
          "type": "bytes32"
        },
        {
          "name": "amount",
          "type": "uint256"
        }
      ],
      "name": "bidOnItem",
      "outputs": [],
      "payable": false,
      "stateMutability": "nonpayable",
      "type": "function"
    },
    {
      "constant": true,
      "inputs": [
        {
          "name": "id",
          "type": "bytes32"
        }
      ],
      "name": "calculateFinalItemPrice",
      "outputs": [
        {
          "name": "price",
          "type": "uint256"
        }
      ],
      "payable": false,
      "stateMutability": "view",
      "type": "function"
    },
    {
      "constant": true,
      "inputs": [],
      "name": "feeBuy",
      "outputs": [
        {
          "name": "",
          "type": "uint256"
        }
      ],
      "payable": false,
      "stateMutability": "view",
      "type": "function"
    },
    {
      "constant": false,
      "inputs": [
        {
          "name": "newOwner",
          "type": "address"
        }
      ],
      "name": "transferOwnership",
      "outputs": [],
      "payable": false,
      "stateMutability": "nonpayable",
      "type": "function"
    },
    {
      "constant": false,
      "inputs": [
        {
          "name": "contractAddress",
          "type": "address"
        },
        {
          "name": "metadataHash",
          "type": "bytes"
        },
        {
          "name": "saleKind",
          "type": "uint8"
        },
        {
          "name": "paymentToken",
          "type": "address"
        },
        {
          "name": "price",
          "type": "uint256"
        },
        {
          "name": "expirationTime",
          "type": "uint256"
        },
        {
          "name": "auctionExtra",
          "type": "uint256"
        },
        {
          "name": "escrowProvider",
          "type": "address"
        }
      ],
      "name": "listItem",
      "outputs": [
        {
          "name": "id",
          "type": "bytes32"
        }
      ],
      "payable": false,
      "stateMutability": "nonpayable",
      "type": "function"
    },
    {
      "constant": true,
      "inputs": [
        {
          "name": "",
          "type": "uint256"
        }
      ],
      "name": "ids",
      "outputs": [
        {
          "name": "",
          "type": "bytes32"
        }
      ],
      "payable": false,
      "stateMutability": "view",
      "type": "function"
    },
    {
      "inputs": [
        {
          "name": "tokenAddress",
          "type": "address"
        },
        {
          "name": "listFee",
          "type": "uint256"
        },
        {
          "name": "bidFee",
          "type": "uint256"
        },
        {
          "name": "buyFee",
          "type": "uint256"
        }
      ],
      "payable": false,
      "stateMutability": "nonpayable",
      "type": "constructor"
    },
    {
      "anonymous": false,
      "inputs": [
        {
          "indexed": false,
          "name": "id",
          "type": "bytes32"
        },
        {
          "indexed": false,
          "name": "seller",
          "type": "address"
        },
        {
          "indexed": false,
          "name": "contractAddress",
          "type": "address"
        },
        {
          "indexed": false,
          "name": "metadataHash",
          "type": "bytes"
        },
        {
          "indexed": false,
          "name": "saleKind",
          "type": "uint8"
        },
        {
          "indexed": false,
          "name": "paymentToken",
          "type": "address"
        },
        {
          "indexed": false,
          "name": "price",
          "type": "uint256"
        },
        {
          "indexed": false,
          "name": "timestamp",
          "type": "uint256"
        },
        {
          "indexed": false,
          "name": "expirationTime",
          "type": "uint256"
        },
        {
          "indexed": false,
          "name": "auctionExtra",
          "type": "uint256"
        },
        {
          "indexed": false,
          "name": "escrowProvider",
          "type": "address"
        }
      ],
      "name": "ItemListed",
      "type": "event"
    },
    {
      "anonymous": false,
      "inputs": [
        {
          "indexed": false,
          "name": "id",
          "type": "bytes32"
        }
      ],
      "name": "ItemRemoved",
      "type": "event"
    },
    {
      "anonymous": false,
      "inputs": [
        {
          "indexed": false,
          "name": "id",
          "type": "bytes32"
        },
        {
          "indexed": false,
          "name": "bidder",
          "type": "address"
        },
        {
          "indexed": false,
          "name": "amount",
          "type": "uint256"
        },
        {
          "indexed": false,
          "name": "timestamp",
          "type": "uint256"
        }
      ],
      "name": "ItemBidOn",
      "type": "event"
    },
    {
      "anonymous": false,
      "inputs": [
        {
          "indexed": false,
          "name": "id",
          "type": "bytes32"
        },
        {
          "indexed": false,
          "name": "buyer",
          "type": "address"
        },
        {
          "indexed": false,
          "name": "price",
          "type": "uint256"
        }
      ],
      "name": "ItemPurchased",
      "type": "event"
    },
    {
      "anonymous": false,
      "inputs": [
        {
          "indexed": false,
          "name": "id",
          "type": "bytes32"
        },
        {
          "indexed": false,
          "name": "metadataHash",
          "type": "bytes"
        }
      ],
      "name": "SaleFinalized",
      "type": "event"
    },
    {
      "anonymous": false,
      "inputs": [
        {
          "indexed": true,
          "name": "previousOwner",
          "type": "address"
        },
        {
          "indexed": true,
          "name": "newOwner",
          "type": "address"
        }
      ],
      "name": "OwnershipTransferred",
      "type": "event"
    }
  ],
  "bytecode": "0x6060604052341561000f57600080fd5b604051608080611dc48339810160405280805191906020018051919060200180519190602001805160008054600160a060020a03338116600160a060020a03199283161790925560058054989092169716969096179095555050600191909155600255600355611d40806100846000396000f3006060604052600436106101275763ffffffff7c0100000000000000000000000000000000000000000000000000000000600035041663013869bf811461012c57806306fdde03146101445780630c2afd72146101ce5780630cc835a31461028c5780630e5d2e21146102a2578063164e68de146102d157806318037045146102f05780631d048860146103065780631ef499351461031c57806348f343f314610332578063532aa1c8146104455780635f1ae8aa14610491578063622ed7df146104b65780638bb023f4146104c95780638da5cb5b1461051f5780639003adfe14610532578063a05e36d114610545578063a9f6252d1461055e578063c5b0fe9d14610574578063f2fde38b14610587578063f73bd369146105a6578063fac333ac14610631575b600080fd5b341561013757600080fd5b610142600435610647565b005b341561014f57600080fd5b610157610667565b60405160208082528190810183818151815260200191508051906020019080838360005b8381101561019357808201518382015260200161017b565b50505050905090810190601f1680156101c05780820380516001836020036101000a031916815260200191505b509250505060405180910390f35b34156101d957600080fd5b6101e460043561069e565b604051600160a060020a038516815260208101849052604081018390526080606082018181528354600260001961010060018416150201909116049183018290529060a08301908490801561027a5780601f1061024f5761010080835404028352916020019161027a565b820191906000526020600020905b81548152906001019060200180831161025d57829003601f168201915b50509550505050505060405180910390f35b341561029757600080fd5b6101426004356106cd565b34156102ad57600080fd5b6102b56106ed565b604051600160a060020a03909116815260200160405180910390f35b34156102dc57600080fd5b610142600160a060020a03600435166106fc565b34156102fb57600080fd5b6101426004356107c4565b341561031157600080fd5b6101426004356108e6565b341561032757600080fd5b610142600435610906565b341561033d57600080fd5b610348600435610e1d565b604051600160a060020a03808d1682528b16602082015260408101606082018a600281111561037357fe5b60ff168152600160a060020a038a81166020830152604082018a9052606082018990526080820188905260a08201879052851660c082015283151560e0820152610100838203810183528c546002600182161583026000190190911604908201819052610120909101908c90801561042c5780601f106104015761010080835404028352916020019161042c565b820191906000526020600020905b81548152906001019060200180831161040f57829003601f168201915b50509c5050505050505050505050505060405180910390f35b341561045057600080fd5b61045b600435610e98565b6040518084600160a060020a0316600160a060020a03168152602001838152602001828152602001935050505060405180910390f35b341561049c57600080fd5b6104a4610ec3565b60405190815260200160405180910390f35b34156104c157600080fd5b6104a4610ec9565b34156104d457600080fd5b610142600480359060446024803590810190830135806020601f82018190048102016040519081016040528181529291906020840183838082843750949650610ecf95505050505050565b341561052a57600080fd5b6102b5610fbd565b341561053d57600080fd5b6104a4610fcc565b341561055057600080fd5b610142600435602435610fd2565b341561056957600080fd5b6104a460043561141d565b341561057f57600080fd5b6104a46115b9565b341561059257600080fd5b610142600160a060020a03600435166115bf565b34156105b157600080fd5b6104a460048035600160a060020a03169060446024803590810190830135806020601f820181900481020160405190810160405281815292919060208401838380828437509496505050833560ff16936020810135600160a060020a039081169450604082013593506060820135925060808201359160a001351661165a565b341561063c57600080fd5b6104a4600435611c31565b60005433600160a060020a0390811691161461066257600080fd5b600255565b60408051908101604052601781527f50726f6a6563742057797665726e2045786368616e6765000000000000000000602082015281565b6008602052600090815260409020805460018201546002830154600160a060020a039092169290919060030184565b60005433600160a060020a039081169116146106e857600080fd5b600355565b600554600160a060020a031681565b60005433600160a060020a0390811691161461071757600080fd5b600554600454600160a060020a039091169063a9059cbb9083906000604051602001526040517c010000000000000000000000000000000000000000000000000000000063ffffffff8516028152600160a060020a0390921660048301526024820152604401602060405180830381600087803b151561079657600080fd5b6102c65a03f115156107a757600080fd5b5050506040518051905015156107bc57600080fd5b506000600455565b6000818152600660205260409020548190600160a060020a031615801590610816575060008181526006602052604090206008015474010000000000000000000000000000000000000000900460ff16155b80156108375750600081815260086020526040902054600160a060020a0316155b151561084257600080fd5b60008281526006602052604090205433600160a060020a0390811691161461086957600080fd5b60008281526006602052604090819020600801805474ff00000000000000000000000000000000000000001916740100000000000000000000000000000000000000001790557f4d14690cbd42eab82cd15ad666b9b98197ade97acdd17512bdec0497b591de489083905190815260200160405180910390a15050565b60005433600160a060020a0390811691161461090157600080fd5b600155565b600081815260066020526040812054819081908490600160a060020a03161580159061095c575060008181526006602052604090206008015474010000000000000000000000000000000000000000900460ff16155b801561097d5750600081815260086020526040902054600160a060020a0316155b151561098857600080fd5b600354600554600160a060020a03166323b872dd3330846000604051602001526040517c010000000000000000000000000000000000000000000000000000000063ffffffff8616028152600160a060020a0393841660048201529190921660248201526044810191909152606401602060405180830381600087803b1515610a1057600080fd5b6102c65a03f11515610a2157600080fd5b505050604051805190501515610a3657600080fd5b6004805482019055600160008781526006602052604090206003015460ff166002811115610a6057fe5b1415610b65576000868152600960205260409020805490955033600160a060020a039081169116148015610aa65750600086815260066020819052604090912001544210155b1515610ab157600080fd5b600086815260066020526040808220600301546001880154610100909104600160a060020a03169263a9059cbb923392919051602001526040517c010000000000000000000000000000000000000000000000000000000063ffffffff8516028152600160a060020a0390921660048301526024820152604401602060405180830381600087803b1515610b4457600080fd5b6102c65a03f11515610b5557600080fd5b5050506040518051905050610b83565b600086815260066020819052604090912001544210610b8357600080fd5b610b8c8661141d565b60008781526006602052604080822060088101548154600390920154949850600160a060020a039081169463b472704f948c943394841693610100909304909216918b919051602001526040517c010000000000000000000000000000000000000000000000000000000063ffffffff88160281526004810195909552600160a060020a03938416602486015291831660448501529091166064830152608482015260a401602060405180830381600087803b1515610c4a57600080fd5b6102c65a03f11515610c5b57600080fd5b505050604051805190501515610c7057600080fd5b600086815260066020526040902060010154600160a060020a031692508215610d0f5782600160a060020a031663f2fde38b336040517c010000000000000000000000000000000000000000000000000000000063ffffffff8416028152600160a060020a039091166004820152602401600060405180830381600087803b1515610cfa57600080fd5b6102c65a03f11515610d0b57600080fd5b5050505b60806040519081016040528033600160a060020a031681526020018581526020014281526020016000604051805910610d455750595b818152601f19601f83011681016020016040529050905260008781526008602052604090208151815473ffffffffffffffffffffffffffffffffffffffff1916600160a060020a03919091161781556020820151816001015560408201518160020155606082015181600301908051610dc2929160200190611c50565b509050507f3f7e7c9ec22f45dbf0d3c47a04c1f1e2e77716b0dcaa5974cb5f4b2ba6dd6b35863386604051928352600160a060020a0390911660208301526040808301919091526060909101905180910390a1505050505050565b6006602081905260009182526040909120805460018201546003830154600484015460058501549585015460078601546008870154600160a060020a0396871698958716976002019660ff8087169761010090970482169694939291821691740100000000000000000000000000000000000000009004168b565b600960205260009081526040902080546001820154600290920154600160a060020a03909116919083565b60025481565b60015481565b60008281526006602052604090205433600160a060020a03908116911614610ef657600080fd5b6000828152600860205260409020600301818051610f18929160200190611c50565b507f07a8a89d5ccd9c5a4cfaa7950639bdd8edb423a3b9598ce3ab86efe8371f5015828260405182815260406020820181815290820183818151815260200191508051906020019080838360005b83811015610f7e578082015183820152602001610f66565b50505050905090810190601f168015610fab5780820380516001836020036101000a031916815260200191505b50935050505060405180910390a15050565b600054600160a060020a031681565b60045481565b6000828152600660205260409020548290600160a060020a031615801590611024575060008181526006602052604090206008015474010000000000000000000000000000000000000000900460ff16155b80156110455750600081815260086020526040902054600160a060020a0316155b151561105057600080fd5b600254600554600160a060020a03166323b872dd3330846000604051602001526040517c010000000000000000000000000000000000000000000000000000000063ffffffff8616028152600160a060020a0393841660048201529190921660248201526044810191909152606401602060405180830381600087803b15156110d857600080fd5b6102c65a03f115156110e957600080fd5b5050506040518051905015156110fe57600080fd5b6004805482019055600160008581526006602052604090206003015460ff16600281111561112857fe5b14801561114657506000848152600660208190526040909120015442105b151561115157600080fd5b600084815260096020526040902054600160a060020a031615156111925760008481526006602052604090206004015483101561118d57600080fd5b61128c565b600084815260066020908152604080832060070154600990925290912060010154018310156111c057600080fd5b6000848152600660209081526040808320600301546009909252808320805460019190910154600160a060020a0361010090940484169463a9059cbb94929092169290919051602001526040517c010000000000000000000000000000000000000000000000000000000063ffffffff8516028152600160a060020a0390921660048301526024820152604401602060405180830381600087803b151561126657600080fd5b6102c65a03f1151561127757600080fd5b50505060405180519050151561128c57600080fd5b600084815260066020526040808220600301546101009004600160a060020a0316916323b872dd913391309188919051602001526040517c010000000000000000000000000000000000000000000000000000000063ffffffff8616028152600160a060020a0393841660048201529190921660248201526044810191909152606401602060405180830381600087803b151561132857600080fd5b6102c65a03f1151561133957600080fd5b50505060405180519050151561134e57600080fd5b60606040519081016040908152600160a060020a03331682526020808301869052428284015260008781526009909152208151815473ffffffffffffffffffffffffffffffffffffffff1916600160a060020a0391909116178155602082015181600101556040820151600290910155507f539e08755531e0ceee4dfc4e45c1cfafef6e9b228a4b645456e229f5f4c9d1bf84338542604051938452600160a060020a03909216602084015260408084019190915260608301919091526080909101905180910390a150505050565b6000818152600660205260408120548290600160a060020a03161580159061146f575060008181526006602052604090206008015474010000000000000000000000000000000000000000900460ff16155b80156114905750600081815260086020526040902054600160a060020a0316155b151561149b57600080fd5b60008381526006602052604081206003015460ff1660028111156114bb57fe5b14156114da5760008381526006602052604090206004015491506115b3565b600160008481526006602052604090206003015460ff1660028111156114fc57fe5b141561153e57600083815260096020526040902054600160a060020a0316151561152557600080fd5b60008381526009602052604090206001015491506115b3565b600260008481526006602052604090206003015460ff16600281111561156057fe5b1415610127576000838152600660208190526040909120600581015491810154600790910154908290039142030281151561159757fe5b6000858152600660205260409020600401549190046001030291505b50919050565b60035481565b60005433600160a060020a039081169116146115da57600080fd5b600160a060020a03811615156115ef57600080fd5b600054600160a060020a0380831691167f8be0079c531659141344cd1fd0a4f28419497f9722a3daafe3b4186f6b6457e060405160405180910390a36000805473ffffffffffffffffffffffffffffffffffffffff1916600160a060020a0392909216919091179055565b60015460055460009190600160a060020a03166323b872dd33308486604051602001526040517c010000000000000000000000000000000000000000000000000000000063ffffffff8616028152600160a060020a0393841660048201529190921660248201526044810191909152606401602060405180830381600087803b15156116e557600080fd5b6102c65a03f115156116f657600080fd5b50505060405180519050151561170b57600080fd5b6004805482019055338a8a8a8a8a428b8b8b6040516c01000000000000000000000000600160a060020a03808d16820283528b160260148201526028810189805190602001908083835b602083106117745780518252601f199092019160209182019101611755565b6001836020036101000a03801982511681845116179092525050509190910190508860028111156117a157fe5b60ff167f010000000000000000000000000000000000000000000000000000000000000002815260010187600160a060020a0316600160a060020a03166c0100000000000000000000000002815260140186815260200185815260200184815260200183815260200182600160a060020a0316600160a060020a03166c010000000000000000000000000281526014019a5050505050505050505050604051908190039020600081815260066020526040902054909250600160a060020a03161561186b57600080fd5b600160a060020a038a16156118e55789600160a060020a0316634e71e0c86040518163ffffffff167c0100000000000000000000000000000000000000000000000000000000028152600401600060405180830381600087803b15156118d057600080fd5b6102c65a03f115156118e157600080fd5b5050505b6101606040519081016040528033600160a060020a031681526020018b600160a060020a031681526020018a815260200189600281111561192257fe5b8152600160a060020a03808a1660208084019190915260408084018b9052426060850152608084018a905260a0840189905291871660c0840152600060e09093018390528583526006905290208151815473ffffffffffffffffffffffffffffffffffffffff1916600160a060020a0391909116178155602082015160018201805473ffffffffffffffffffffffffffffffffffffffff1916600160a060020a03929092169190911790556040820151816002019080516119e7929160200190611c50565b50606082015160038201805460ff19166001836002811115611a0557fe5b021790555060808201518160030160016101000a815481600160a060020a030219169083600160a060020a0316021790555060a0820151816004015560c0820151816005015560e08201518160060155610100820151816007015561012082015160088201805473ffffffffffffffffffffffffffffffffffffffff1916600160a060020a039290921691909117905561014082015160089091018054911515740100000000000000000000000000000000000000000274ff000000000000000000000000000000000000000019909216919091179055506007805460018101611aef8382611cce565b5060009182526020909120018290557f213dee258e93b11ddd6d7915583a9c3801ad6f8528a74c10cd6c53549acf264d82338c8c8c8c8c428d8d8d6040518b8152600160a060020a03808c1660208301528a1660408201526060810160808201896002811115611b5b57fe5b60ff16815260200188600160a060020a0316600160a060020a0316815260200187815260200186815260200185815260200184815260200183600160a060020a0316600160a060020a0316815260200182810382528a818151815260200191508051906020019080838360005b83811015611be0578082015183820152602001611bc8565b50505050905090810190601f168015611c0d5780820380516001836020036101000a031916815260200191505b509c5050505050505050505050505060405180910390a15098975050505050505050565b6007805482908110611c3f57fe5b600091825260209091200154905081565b828054600181600116156101000203166002900490600052602060002090601f016020900481019282601f10611c9157805160ff1916838001178555611cbe565b82800160010185558215611cbe579182015b82811115611cbe578251825591602001919060010190611ca3565b50611cca929150611cf7565b5090565b815481835581811511611cf257600083815260209020611cf2918101908301611cf7565b505050565b611d1191905b80821115611cca5760008155600101611cfd565b905600a165627a7a72305820f237e81d69730cae4689d5b2ff462f1d290ab1ff4e32b47f174ecdb0db96d7d80029",
  "source": "/*\n\n  << Project Wyvern Exchange >>\n\n*/\n\npragma solidity ^0.4.18;\n\nimport \"./exchange/Exchange.sol\";\n\ncontract WyvernExchange is Exchange {\n\n    string public constant name = \"Project Wyvern Exchange\";\n\n    function WyvernExchange (ERC20 tokenAddress, uint listFee, uint bidFee, uint buyFee) public {\n        exchangeTokenAddress = tokenAddress;\n        feeList = listFee;\n        feeBid = bidFee;\n        feeBuy = buyFee;\n    }\n\n}\n",
  "sourcePath": "/home/cwgoes/working/crypto/wyvern/wyvern-ethereum/contracts/WyvernExchange.sol",
  "compiler": {
    "name": "solc",
    "version": "0.4.18+commit.9cf6e910.Emscripten.clang"
  },
  "schemaVersion": "1.0.1",
  "updatedAt": "2017-12-11T01:15:16.688Z"
}