{
  "contractName": "WyvernExchange",
  "abi": [
    {
      "constant": true,
      "inputs": [],
      "name": "name",
      "outputs": [
        {
          "name": "",
          "type": "string"
        }
      ],
      "payable": false,
      "stateMutability": "view",
      "type": "function"
    },
    {
      "constant": true,
      "inputs": [],
      "name": "exchangeTokenAddress",
      "outputs": [
        {
          "name": "",
          "type": "address"
        }
      ],
      "payable": false,
      "stateMutability": "view",
      "type": "function"
    },
    {
      "constant": false,
      "inputs": [
        {
          "name": "user",
          "type": "address"
        },
        {
          "name": "token",
          "type": "address"
        },
        {
          "name": "amount",
          "type": "uint256"
        },
        {
          "name": "dest",
          "type": "address"
        }
      ],
      "name": "withdraw",
      "outputs": [],
      "payable": false,
      "stateMutability": "nonpayable",
      "type": "function"
    },
    {
      "constant": true,
      "inputs": [
        {
          "name": "addrs",
          "type": "address[6]"
        },
        {
          "name": "uints",
          "type": "uint256[7]"
        },
        {
          "name": "side",
          "type": "uint8"
        },
        {
          "name": "saleKind",
          "type": "uint8"
        },
        {
          "name": "howToCall",
          "type": "uint8"
        },
        {
          "name": "calldata",
          "type": "bytes"
        },
        {
          "name": "replacementPattern",
          "type": "bytes"
        },
        {
          "name": "metadataHash",
          "type": "bytes"
        },
        {
          "name": "v",
          "type": "uint8"
        },
        {
          "name": "r",
          "type": "bytes32"
        },
        {
          "name": "s",
          "type": "bytes32"
        }
      ],
      "name": "validateOrder_",
      "outputs": [
        {
          "name": "",
          "type": "bool"
        }
      ],
      "payable": false,
      "stateMutability": "view",
      "type": "function"
    },
    {
      "constant": false,
      "inputs": [
        {
          "name": "addrs",
          "type": "address[12]"
        },
        {
          "name": "uints",
          "type": "uint256[14]"
        },
        {
          "name": "sidesKindsHowToCalls",
          "type": "uint8[6]"
        },
        {
          "name": "calldataBuy",
          "type": "bytes"
        },
        {
          "name": "calldataSell",
          "type": "bytes"
        },
        {
          "name": "replacementPatternBuy",
          "type": "bytes"
        },
        {
          "name": "replacementPatternSell",
          "type": "bytes"
        },
        {
          "name": "metadataHashBuy",
          "type": "bytes"
        },
        {
          "name": "metadataHashSell",
          "type": "bytes"
        },
        {
          "name": "vs",
          "type": "uint8[2]"
        },
        {
          "name": "rss",
          "type": "bytes32[4]"
        }
      ],
      "name": "atomicMatch_",
      "outputs": [],
      "payable": false,
      "stateMutability": "nonpayable",
      "type": "function"
    },
    {
      "constant": true,
      "inputs": [
        {
          "name": "user",
          "type": "address"
        },
        {
          "name": "token",
          "type": "address"
        }
      ],
      "name": "lockedFor",
      "outputs": [
        {
          "name": "",
          "type": "uint256"
        }
      ],
      "payable": false,
      "stateMutability": "view",
      "type": "function"
    },
    {
      "constant": true,
      "inputs": [
        {
          "name": "",
          "type": "bytes32"
        }
      ],
      "name": "topBids",
      "outputs": [
        {
          "name": "bidder",
          "type": "address"
        },
        {
          "name": "amount",
          "type": "uint256"
        }
      ],
      "payable": false,
      "stateMutability": "view",
      "type": "function"
    },
    {
      "constant": false,
      "inputs": [
        {
          "name": "addrs",
          "type": "address[6]"
        },
        {
          "name": "uints",
          "type": "uint256[7]"
        },
        {
          "name": "side",
          "type": "uint8"
        },
        {
          "name": "saleKind",
          "type": "uint8"
        },
        {
          "name": "howToCall",
          "type": "uint8"
        },
        {
          "name": "calldata",
          "type": "bytes"
        },
        {
          "name": "replacementPattern",
          "type": "bytes"
        },
        {
          "name": "metadataHash",
          "type": "bytes"
        },
        {
          "name": "v",
          "type": "uint8"
        },
        {
          "name": "r",
          "type": "bytes32"
        },
        {
          "name": "s",
          "type": "bytes32"
        },
        {
          "name": "amount",
          "type": "uint256"
        }
      ],
      "name": "bid_",
      "outputs": [],
      "payable": false,
      "stateMutability": "nonpayable",
      "type": "function"
    },
    {
      "constant": true,
      "inputs": [],
      "name": "registry",
      "outputs": [
        {
          "name": "",
          "type": "address"
        }
      ],
      "payable": false,
      "stateMutability": "view",
      "type": "function"
    },
    {
      "constant": false,
      "inputs": [
        {
          "name": "user",
          "type": "address"
        },
        {
          "name": "token",
          "type": "address"
        },
        {
          "name": "amount",
          "type": "uint256"
        }
      ],
      "name": "deposit",
      "outputs": [],
      "payable": false,
      "stateMutability": "nonpayable",
      "type": "function"
    },
    {
      "constant": true,
      "inputs": [
        {
          "name": "",
          "type": "address"
        },
        {
          "name": "",
          "type": "address"
        }
      ],
      "name": "balances",
      "outputs": [
        {
          "name": "",
          "type": "uint256"
        }
      ],
      "payable": false,
      "stateMutability": "view",
      "type": "function"
    },
    {
      "constant": false,
      "inputs": [
        {
          "name": "addrs",
          "type": "address[6]"
        },
        {
          "name": "uints",
          "type": "uint256[7]"
        },
        {
          "name": "side",
          "type": "uint8"
        },
        {
          "name": "saleKind",
          "type": "uint8"
        },
        {
          "name": "howToCall",
          "type": "uint8"
        },
        {
          "name": "calldata",
          "type": "bytes"
        },
        {
          "name": "replacementPattern",
          "type": "bytes"
        },
        {
          "name": "metadataHash",
          "type": "bytes"
        },
        {
          "name": "orderbookInclusionDesired",
          "type": "bool"
        }
      ],
      "name": "approveOrder_",
      "outputs": [],
      "payable": false,
      "stateMutability": "nonpayable",
      "type": "function"
    },
    {
      "constant": true,
      "inputs": [
        {
          "name": "",
          "type": "address"
        },
        {
          "name": "",
          "type": "address"
        }
      ],
      "name": "locked",
      "outputs": [
        {
          "name": "",
          "type": "uint256"
        }
      ],
      "payable": false,
      "stateMutability": "view",
      "type": "function"
    },
    {
      "constant": true,
      "inputs": [
        {
          "name": "user",
          "type": "address"
        },
        {
          "name": "token",
          "type": "address"
        }
      ],
      "name": "availableFor",
      "outputs": [
        {
          "name": "",
          "type": "uint256"
        }
      ],
      "payable": false,
      "stateMutability": "view",
      "type": "function"
    },
    {
      "constant": true,
      "inputs": [
        {
          "name": "addrs",
          "type": "address[6]"
        },
        {
          "name": "uints",
          "type": "uint256[7]"
        },
        {
          "name": "side",
          "type": "uint8"
        },
        {
          "name": "saleKind",
          "type": "uint8"
        },
        {
          "name": "howToCall",
          "type": "uint8"
        },
        {
          "name": "calldata",
          "type": "bytes"
        },
        {
          "name": "replacementPattern",
          "type": "bytes"
        },
        {
          "name": "metadataHash",
          "type": "bytes"
        }
      ],
      "name": "hashOrder_",
      "outputs": [
        {
          "name": "",
          "type": "bytes32"
        }
      ],
      "payable": false,
      "stateMutability": "pure",
      "type": "function"
    },
    {
      "constant": false,
      "inputs": [
        {
          "name": "addrs",
          "type": "address[6]"
        },
        {
          "name": "uints",
          "type": "uint256[7]"
        },
        {
          "name": "side",
          "type": "uint8"
        },
        {
          "name": "saleKind",
          "type": "uint8"
        },
        {
          "name": "howToCall",
          "type": "uint8"
        },
        {
          "name": "calldata",
          "type": "bytes"
        },
        {
          "name": "replacementPattern",
          "type": "bytes"
        },
        {
          "name": "metadataHash",
          "type": "bytes"
        },
        {
          "name": "v",
          "type": "uint8"
        },
        {
          "name": "r",
          "type": "bytes32"
        },
        {
          "name": "s",
          "type": "bytes32"
        }
      ],
      "name": "cancelOrder_",
      "outputs": [],
      "payable": false,
      "stateMutability": "nonpayable",
      "type": "function"
    },
    {
      "constant": true,
      "inputs": [
        {
          "name": "user",
          "type": "address"
        },
        {
          "name": "token",
          "type": "address"
        }
      ],
      "name": "balanceFor",
      "outputs": [
        {
          "name": "",
          "type": "uint256"
        }
      ],
      "payable": false,
      "stateMutability": "view",
      "type": "function"
    },
    {
      "inputs": [
        {
          "name": "registryAddress",
          "type": "address"
        },
        {
          "name": "tokenAddress",
          "type": "address"
        }
      ],
      "payable": false,
      "stateMutability": "nonpayable",
      "type": "constructor"
    },
    {
      "anonymous": false,
      "inputs": [
        {
          "indexed": false,
          "name": "hash",
          "type": "bytes32"
        },
        {
          "indexed": true,
          "name": "approver",
          "type": "address"
        },
        {
          "components": [
            {
              "name": "exchange",
              "type": "address"
            },
            {
              "name": "maker",
              "type": "address"
            },
            {
              "name": "taker",
              "type": "address"
            },
            {
              "name": "makerFee",
              "type": "uint256"
            },
            {
              "name": "takerFee",
              "type": "uint256"
            },
            {
              "name": "feeRecipient",
              "type": "address"
            },
            {
              "name": "side",
              "type": "uint8"
            },
            {
              "name": "saleKind",
              "type": "uint8"
            },
            {
              "name": "target",
              "type": "address"
            },
            {
              "name": "howToCall",
              "type": "uint8"
            },
            {
              "name": "calldata",
              "type": "bytes"
            },
            {
              "name": "replacementPattern",
              "type": "bytes"
            },
            {
              "name": "metadataHash",
              "type": "bytes"
            },
            {
              "name": "paymentToken",
              "type": "address"
            },
            {
              "name": "basePrice",
              "type": "uint256"
            },
            {
              "name": "extra",
              "type": "uint256"
            },
            {
              "name": "listingTime",
              "type": "uint256"
            },
            {
              "name": "expirationTime",
              "type": "uint256"
            },
            {
              "name": "salt",
              "type": "uint256"
            }
          ],
          "indexed": false,
          "name": "order",
          "type": "tuple"
        },
        {
          "indexed": false,
          "name": "orderbookInclusionDesired",
          "type": "bool"
        }
      ],
      "name": "OrderApproved",
      "type": "event"
    },
    {
      "anonymous": false,
      "inputs": [
        {
          "indexed": false,
          "name": "hash",
          "type": "bytes32"
        }
      ],
      "name": "OrderCancelled",
      "type": "event"
    },
    {
      "anonymous": false,
      "inputs": [
        {
          "indexed": false,
          "name": "hash",
          "type": "bytes32"
        },
        {
          "indexed": true,
          "name": "bidder",
          "type": "address"
        },
        {
          "indexed": false,
          "name": "amount",
          "type": "uint256"
        },
        {
          "indexed": false,
          "name": "timestamp",
          "type": "uint256"
        }
      ],
      "name": "OrderBidOn",
      "type": "event"
    },
    {
      "anonymous": false,
      "inputs": [
        {
          "components": [
            {
              "name": "exchange",
              "type": "address"
            },
            {
              "name": "maker",
              "type": "address"
            },
            {
              "name": "taker",
              "type": "address"
            },
            {
              "name": "makerFee",
              "type": "uint256"
            },
            {
              "name": "takerFee",
              "type": "uint256"
            },
            {
              "name": "feeRecipient",
              "type": "address"
            },
            {
              "name": "side",
              "type": "uint8"
            },
            {
              "name": "saleKind",
              "type": "uint8"
            },
            {
              "name": "target",
              "type": "address"
            },
            {
              "name": "howToCall",
              "type": "uint8"
            },
            {
              "name": "calldata",
              "type": "bytes"
            },
            {
              "name": "replacementPattern",
              "type": "bytes"
            },
            {
              "name": "metadataHash",
              "type": "bytes"
            },
            {
              "name": "paymentToken",
              "type": "address"
            },
            {
              "name": "basePrice",
              "type": "uint256"
            },
            {
              "name": "extra",
              "type": "uint256"
            },
            {
              "name": "listingTime",
              "type": "uint256"
            },
            {
              "name": "expirationTime",
              "type": "uint256"
            },
            {
              "name": "salt",
              "type": "uint256"
            }
          ],
          "indexed": false,
          "name": "buy",
          "type": "tuple"
        },
        {
          "components": [
            {
              "name": "exchange",
              "type": "address"
            },
            {
              "name": "maker",
              "type": "address"
            },
            {
              "name": "taker",
              "type": "address"
            },
            {
              "name": "makerFee",
              "type": "uint256"
            },
            {
              "name": "takerFee",
              "type": "uint256"
            },
            {
              "name": "feeRecipient",
              "type": "address"
            },
            {
              "name": "side",
              "type": "uint8"
            },
            {
              "name": "saleKind",
              "type": "uint8"
            },
            {
              "name": "target",
              "type": "address"
            },
            {
              "name": "howToCall",
              "type": "uint8"
            },
            {
              "name": "calldata",
              "type": "bytes"
            },
            {
              "name": "replacementPattern",
              "type": "bytes"
            },
            {
              "name": "metadataHash",
              "type": "bytes"
            },
            {
              "name": "paymentToken",
              "type": "address"
            },
            {
              "name": "basePrice",
              "type": "uint256"
            },
            {
              "name": "extra",
              "type": "uint256"
            },
            {
              "name": "listingTime",
              "type": "uint256"
            },
            {
              "name": "expirationTime",
              "type": "uint256"
            },
            {
              "name": "salt",
              "type": "uint256"
            }
          ],
          "indexed": false,
          "name": "sell",
          "type": "tuple"
        }
      ],
      "name": "OrdersMatched",
      "type": "event"
    },
    {
      "anonymous": false,
      "inputs": [
        {
          "indexed": true,
          "name": "user",
          "type": "address"
        },
        {
          "indexed": true,
          "name": "token",
          "type": "address"
        },
        {
          "indexed": false,
          "name": "amount",
          "type": "uint256"
        }
      ],
      "name": "Credited",
      "type": "event"
    },
    {
      "anonymous": false,
      "inputs": [
        {
          "indexed": true,
          "name": "user",
          "type": "address"
        },
        {
          "indexed": true,
          "name": "token",
          "type": "address"
        },
        {
          "indexed": false,
          "name": "amount",
          "type": "uint256"
        }
      ],
      "name": "Debited",
      "type": "event"
    },
    {
      "anonymous": false,
      "inputs": [
        {
          "indexed": true,
          "name": "user",
          "type": "address"
        },
        {
          "indexed": true,
          "name": "token",
          "type": "address"
        },
        {
          "indexed": false,
          "name": "amount",
          "type": "uint256"
        }
      ],
      "name": "Locked",
      "type": "event"
    },
    {
      "anonymous": false,
      "inputs": [
        {
          "indexed": true,
          "name": "user",
          "type": "address"
        },
        {
          "indexed": true,
          "name": "token",
          "type": "address"
        },
        {
          "indexed": false,
          "name": "amount",
          "type": "uint256"
        }
      ],
      "name": "Unlocked",
      "type": "event"
    }
  ],
  "bytecode": "0x60606040526002805460ff19169055341561001957600080fd5b60405160408061314483398101604052808051919060200180516002805461010060a860020a031916610100600160a060020a039384160217905560038054600160a060020a0319169490911693909317909255506130c590508061007f6000396000f3006060604052600436106100d75763ffffffff60e060020a60003504166306fdde0381146100dc5780630e5d2e21146101665780630e917f7614610195578063386cc797146101c65780633c88e9a8146103295780634e10c95d14610593578063532aa1c8146105ca57806370dc7063146106025780637b103999146107565780638340f54914610769578063c23f001f14610791578063d404a96c146107b6578063db20266f146108f9578063db2ec6bd1461091e578063e22b847814610943578063e60a95d714610a82578063f771e78b14610bd1575b600080fd5b34156100e757600080fd5b6100ef610bf6565b60405160208082528190810183818151815260200191508051906020019080838360005b8381101561012b578082015183820152602001610113565b50505050905090810190601f1680156101585780820380516001836020036101000a031916815260200191505b509250505060405180910390f35b341561017157600080fd5b610179610c2d565b604051600160a060020a03909116815260200160405180910390f35b34156101a057600080fd5b6101c4600160a060020a036004358116906024358116906044359060643516610c41565b005b34156101d157600080fd5b610315600460c481600660c06040519081016040529190828260c080828437820191505050505091908060e001906007806020026040519081016040529190828260e08082843750939560ff8635811696602080820135831697506040808301359093169650929450608081019350606001358401808301929035918291601f83018190048102019051908101604052818152929190602084018383808284378201915050505050509190803590602001908201803590602001908080601f01602080910402602001604051908101604052818152929190602084018383808284378201915050505050509190803590602001908201803590602001908080601f0160208091040260200160405190810160405281815292919060208401838380828437509496505060ff8535169460208101359450604001359250610d42915050565b604051901515815260200160405180910390f35b341561033457600080fd5b6101c4600461018481600c610180604051908101604052919082826101808082843782019150505050509190806101c00190600e80602002604051908101604052919082826101c080828437820191505050505091908060c001906006806020026040519081016040529190828260c0808284375093959460208082019550903586018082019450359250829150601f8201819004810201604051908101604052818152929190602084018383808284378201915050505050509190803590602001908201803590602001908080601f01602080910402602001604051908101604052818152929190602084018383808284378201915050505050509190803590602001908201803590602001908080601f01602080910402602001604051908101604052818152929190602084018383808284378201915050505050509190803590602001908201803590602001908080601f01602080910402602001604051908101604052818152929190602084018383808284378201915050505050509190803590602001908201803590602001908080601f01602080910402602001604051908101604052818152929190602084018383808284378201915050505050509190803590602001908201803590602001908080601f01602080910402602001604051908101604052818152929190602084018383808284378201915050505050509190806040019060028060200260405190810160405280929190826002602002808284378201915050505050919080608001906004806020026040519081016040529190828260808082843750939550610e9a945050505050565b341561059e57600080fd5b6105b8600160a060020a0360043581169060243516611198565b60405190815260200160405180910390f35b34156105d557600080fd5b6105e06004356111c3565b604051600160a060020a03909216825260208201526040908101905180910390f35b341561060d57600080fd5b6101c4600460c481600660c06040519081016040529190828260c080828437820191505050505091908060e001906007806020026040519081016040529190828260e08082843750939560ff8635811696602080820135831697506040808301359093169650929450608081019350606001358401808301929035918291601f83018190048102019051908101604052818152929190602084018383808284378201915050505050509190803590602001908201803590602001908080601f01602080910402602001604051908101604052818152929190602084018383808284378201915050505050509190803590602001908201803590602001908080601f0160208091040260200160405190810160405281815292919060208401838380828437509496505050833560ff169360208101359350604081013592506060013590506111e8565b341561076157600080fd5b610179611328565b341561077457600080fd5b6101c4600160a060020a0360043581169060243516604435611337565b341561079c57600080fd5b6105b8600160a060020a03600435811690602435166113f7565b34156107c157600080fd5b6101c4600460c481600660c06040519081016040529190828260c080828437820191505050505091908060e001906007806020026040519081016040529190828260e08082843750939560ff8635811696602080820135831697506040808301359093169650929450608081019350606001358401808301929035918291601f83018190048102019051908101604052818152929190602084018383808284378201915050505050509190803590602001908201803590602001908080601f01602080910402602001604051908101604052818152929190602084018383808284378201915050505050509190803590602001908201803590602001908080601f0160208091040260200160405190810160405281815292919060208401838380828437509496505050509135151591506114119050565b341561090457600080fd5b6105b8600160a060020a036004358116906024351661153b565b341561092957600080fd5b6105b8600160a060020a0360043581169060243516611558565b341561094e57600080fd5b6105b8600460c481600660c06040519081016040529190828260c080828437820191505050505091908060e001906007806020026040519081016040529190828260e08082843750939560ff8635811696602080820135831697506040808301359093169650929450608081019350606001358401808301929035918291601f83018190048102019051908101604052818152929190602084018383808284378201915050505050509190803590602001908201803590602001908080601f01602080910402602001604051908101604052818152929190602084018383808284378201915050505050509190803590602001908201803590602001908080601f0160208091040260200160405190810160405281815292919060208401838380828437509496506115a495505050505050565b3415610a8d57600080fd5b6101c4600460c481600660c06040519081016040529190828260c080828437820191505050505091908060e001906007806020026040519081016040529190828260e08082843750939560ff8635811696602080820135831697506040808301359093169650929450608081019350606001358401808301929035918291601f83018190048102019051908101604052818152929190602084018383808284378201915050505050509190803590602001908201803590602001908080601f01602080910402602001604051908101604052818152929190602084018383808284378201915050505050509190803590602001908201803590602001908080601f0160208091040260200160405190810160405281815292919060208401838380828437509496505060ff85351694602081013594506040013592506116c5915050565b3415610bdc57600080fd5b6105b8600160a060020a03600435811690602435166117f6565b60408051908101604052601781527f50726f6a6563742057797665726e2045786368616e6765000000000000000000602082015281565b6002546101009004600160a060020a031681565b600084600160a060020a031633600160a060020a0316141515610c6357600080fd5b600160a060020a0380861660008181526020818152604080832094891680845294825280832054938352600182528083209483529390529190912054610ca9919061181f565b905080831115610cb857600080fd5b610cc3858585611831565b83600160a060020a031663a9059cbb838560006040516020015260405160e060020a63ffffffff8516028152600160a060020a0390921660048301526024820152604401602060405180830381600087803b1515610d2057600080fd5b6102c65a03f11515610d3157600080fd5b505050604051805150505050505050565b6000610d4c612fad565b610260604051908101604052808e51600160a060020a031681526020018e60016020020151600160a060020a0316815260200160408f0151600160a060020a031681526020018d5181526020018d60016020020151815260200160608f0151600160a060020a031681526020018c6001811115610dc557fe5b81526020018b6002811115610dd657fe5b815260200160808f0151600160a060020a031681526020018a6003811115610dfa57fe5b8152602081018a9052604081018990526060810188905260800160a08f0151600160a060020a0316815260200160408e0151815260200160608e0151815260200160808e0151815260200160a08e0151815260200160c08e015190529050610e89610e64826119e4565b826060604051908101604090815260ff8a168252602082018990528101879052611a99565b9d9c50505050505050505050505050565b61118b610260604051908101604052808d51600160a060020a031681526020018d60016020020151600160a060020a0316815260200160408e0151600160a060020a031681526020018c5181526020018c60016020020151815260200160608e0151600160a060020a031681526020018b5160ff166001811115610f1a57fe5b6001811115610f2557fe5b81526020018b6001602002015160ff166002811115610f4057fe5b6002811115610f4b57fe5b815260200160808e0151600160a060020a0316815260200160408c015160ff166003811115610f7657fe5b6003811115610f8157fe5b8152602081018b9052604081018990526060810187905260800160a08e0151600160a060020a0316815260200160408d0151815260200160608d0151815260200160808d0151815260200160a08d0151815260200160c08d01519052606060405190810160405280855160ff1681526020018451815260200184600160200201519052610260604051908101604052808f60066020020151600160a060020a031681526020018f60076020020151600160a060020a031681526020018f60086020020151600160a060020a0316815260200160e08f015181526020016101008f015181526020018f60096020020151600160a060020a0316815260200160608e015160ff16600181111561109157fe5b600181111561109c57fe5b815260200160808e015160ff1660028111156110b457fe5b60028111156110bf57fe5b81526020018f600a6020020151600160a060020a0316815260200160a08e015160ff1660038111156110ed57fe5b60038111156110f857fe5b8152602081018c9052604081018a9052606081018890526080018f600b6020020151600160a060020a031681526020016101208f015181526020016101408f015181526020016101608f015181526020016101808f015181526020016101a08f01519052606060405190810160405280602088015160ff1681526020016040870151815260200160608701519052611bc2565b5050505050505050505050565b600160a060020a03918216600090815260016020908152604080832093909416825291909152205490565b60046020526000908152604090208054600190910154600160a060020a039091169082565b61131a610260604051908101604052808e51600160a060020a031681526020018e60016020020151600160a060020a0316815260200160408f0151600160a060020a031681526020018d5181526020018d60016020020151815260200160608f0151600160a060020a031681526020018c600181111561126457fe5b81526020018b600281111561127557fe5b815260200160808f0151600160a060020a031681526020018a600381111561129957fe5b8152602081018a9052604081018990526060810188905260800160a08f0151600160a060020a0316815260200160408e0151815260200160608e0151815260200160808e0151815260200160a08e0151815260200160c08e015190526060604051908101604090815260ff8816825260208201879052810185905283612044565b505050505050505050505050565b600354600160a060020a031681565b82600160a060020a031633600160a060020a031614151561135757600080fd5b6113628383836121de565b81600160a060020a03166323b872dd84308460006040516020015260405160e060020a63ffffffff8616028152600160a060020a0393841660048201529190921660248201526044810191909152606401602060405180830381600087803b15156113cc57600080fd5b6102c65a03f115156113dd57600080fd5b5050506040518051905015156113f257600080fd5b505050565b600060208181529281526040808220909352908152205481565b611419612fad565b610260604051908101604052808b51600160a060020a031681526020018b60016020020151600160a060020a0316815260200160408c0151600160a060020a031681526020018a5181526020018a60016020020151815260200160608c0151600160a060020a0316815260200189600181111561149257fe5b81526020018860028111156114a357fe5b815260200160808c0151600160a060020a031681526020018760038111156114c757fe5b815260208101879052604081018690526060810185905260800160a08c0151600160a060020a0316815260200160408b0151815260200160608b0151815260200160808b0151815260200160a08b0151815260200160c08b01519052905061152f8183612272565b50505050505050505050565b600160209081526000928352604080842090915290825290205481565b600160a060020a0380831660008181526020818152604080832094861680845294825280832054938352600182528083209483529390529182205461159d919061181f565b9392505050565b60006116b8610260604051908101604052808b51600160a060020a031681526020018b60016020020151600160a060020a0316815260200160408c0151600160a060020a031681526020018a5181526020018a60016020020151815260200160608c0151600160a060020a0316815260200189600181111561162257fe5b815260200188600281111561163357fe5b815260200160808c0151600160a060020a0316815260200187600381111561165757fe5b815260208101879052604081018690526060810185905260800160a08c0151600160a060020a0316815260200160408b0151815260200160608b0151815260200160808b0151815260200160a08b0151815260200160c08b01519052612336565b9998505050505050505050565b61118b610260604051908101604052808d51600160a060020a031681526020018d60016020020151600160a060020a0316815260200160408e0151600160a060020a031681526020018c5181526020018c60016020020151815260200160608e0151600160a060020a031681526020018b600181111561174157fe5b81526020018a600281111561175257fe5b815260200160808e0151600160a060020a0316815260200189600381111561177657fe5b815260208101899052604081018890526060810187905260800160a08e0151600160a060020a0316815260200160408d0151815260200160608d0151815260200160808d0151815260200160a08d0151815260200160c08d015190526060604051908101604090815260ff87168252602082018690528101849052612368565b600160a060020a0391821660009081526020818152604080832093909416825291909152205490565b60008282111561182b57fe5b50900390565b600160a060020a0380841660008181526020818152604080832094871680845294825280832054938352600182528083209483529390529182205482916118779161181f565b915083600160a060020a031685600160a060020a03167f9407bd81f01ad8f5ae4a2487b63d3d1b1947257c2dcdda3ea183dc8e6965cc6e8560405190815260200160405180910390a382821061191e57600160a060020a03808616600090815260208181526040808320938816835292905220546118f5908461181f565b600160a060020a03808716600090815260208181526040808320938916835292905220556119dd565b611928838361181f565b600160a060020a038087166000908152602081815260408083209389168084529390915280822082905592935090916323b872dd91889130918691516020015260405160e060020a63ffffffff8616028152600160a060020a0393841660048201529190921660248201526044810191909152606401602060405180830381600087803b15156119b757600080fd5b6102c65a03f115156119c857600080fd5b5050506040518051905015156119dd57600080fd5b5050505050565b60006119ee61305e565b600060408051908101604052601c81527f19457468657265756d205369676e6564204d6573736167653a0a3332000000006020820152915081611a3085612336565b6040518083805190602001908083835b60208310611a5f5780518252601f199092019160209182019101611a40565b6001836020036101000a03801982511681845116179092525050509190910192835250506020019050604051908190039020949350505050565b6000600160a060020a0330168351600160a060020a0316148015611acc575060008481526005602052604090205460ff16155b8015611b9b57508260200151600160a060020a031633600160a060020a03161480611b05575060008481526006602052604090205460ff165b80611b9b57508260200151600160a060020a03166001858451856020015186604001516040516000815260200160405260006040516020015260405193845260ff90921660208085019190915260408085019290925260608401929092526080909201915160208103908084039060008661646e5a03f11515611b8757600080fd5b505060206040510351600160a060020a0316145b8015611bba5750611bba8360c001518460e001518561022001516123ed565b949350505050565b60025460009081908190819060ff1615611bdb57600080fd5b6002805460ff19166001179055611bf2888861243c565b9350611bfe868661243c565b925060008860c001516001811115611c1257fe5b148015611c2e575060018660c001516001811115611c2c57fe5b145b1515611c3957600080fd5b856101a00151600160a060020a0316886101a00151600160a060020a031614611c6157600080fd5b8760200151600160a060020a03168660400151600160a060020a03161480611c96575060006040870151600160a060020a0316145b1515611ca157600080fd5b8560200151600160a060020a03168860400151600160a060020a03161480611cd6575060006040890151600160a060020a0316145b1515611ce157600080fd5b60008381526004602052604090209150611d1d60e089015187602001518a6102200151604080519081016040526000808252602082015261246b565b1515611d2857600080fd5b611d638660e00151896020015188610220015185604080519081016040528154600160a060020a03168152600190910154602082015261246b565b1515611d6e57600080fd5b856101000151600160a060020a0316886101000151600160a060020a031614611d9657600080fd5b8561012001516003811115611da757fe5b8861012001516003811115611db857fe5b14611dc257600080fd5b611ddc8861014001518761014001518a61016001516124bc565b50611df78661014001518961014001518861016001516124bc565b50611e0c8861014001518761014001516126f1565b1515611e1757600080fd5b600354600160a060020a031663c4552791602088015160006040516020015260405160e060020a63ffffffff8416028152600160a060020a039091166004820152602401602060405180830381600087803b1515611e7457600080fd5b6102c65a03f11515611e8557600080fd5b5050506040518051915050600160a060020a0381161515611ea557600080fd5b6000848152600560205260408082208054600160ff1991821681179092558684529190922080549091169091179055611ede8887612785565b80600160a060020a0316631b0f7ba98761010001518861012001518961014001516000604051602001526040518463ffffffff1660e060020a0281526004018084600160a060020a0316600160a060020a03168152602001836003811115611f4257fe5b60ff16815260200180602001828103825283818151815260200191508051906020019080838360005b83811015611f83578082015183820152602001611f6b565b50505050905090810190601f168015611fb05780820380516001836020036101000a031916815260200191505b50945050505050602060405180830381600087803b1515611fd057600080fd5b6102c65a03f11515611fe157600080fd5b505050604051805190501515611ff657600080fd5b7f9ff26dd672a3e8185e401656a709aa9a05045a9043260b8a0a31d2746e396669888760405191825260208201526040908101905180910390a150506002805460ff19169055505050505050565b6002546000908190819060ff161561205b57600080fd5b6002805460ff19166001179055612072868661243c565b600081815260046020526040902090935091506120cc60c08701518760e00151886101c00151896101e001518a610220015187604080519081016040528154600160a060020a03168152600190910154602082015261283f565b9050808410156120db57600080fd5b604080519081016040908152600160a060020a0333168252602080830187905260008681526004909152208151815473ffffffffffffffffffffffffffffffffffffffff1916600160a060020a03919091161781556020820151600190910155508154600160a060020a03161561216b57815461216b90600160a060020a03166101a088015184600101546128ab565b61217b33876101a001518661295d565b33600160a060020a03167f6a75ae33d1548c67bfaaa25fac7ffdd9e545fa843c22b7e883e4ac8edabb37a284864260405192835260208301919091526040808301919091526060909101905180910390a250506002805460ff1916905550505050565b600160a060020a038084166000908152602081815260408083209386168352929052205461220c9082612b4f565b600160a060020a0380851660008181526020818152604080832094881680845294909152908190209390935590917f4e45da441832cf53bdaa69235704fc0575e68210f459ee1562911024b12967d59084905190815260200160405180910390a3505050565b60008260200151600160a060020a031633600160a060020a031614151561229857600080fd5b6122a1836119e4565b60008181526006602052604090205490915060ff16156122c057600080fd5b60008181526006602052604090819020805460ff19166001179055600160a060020a033316907fc2dbd1050ed906aad01d660eb6004ecefd4b48906b4b93197cd8ea92d869503f9083908690869051928352602083019190915215156040808301919091526060909101905180910390a2505050565b600061234182612b5e565b61234a83612d15565b60405191825260208201526040908101905180910390209050919050565b6000612374838361243c565b90508260200151600160a060020a031633600160a060020a031614151561239a57600080fd5b60008181526005602052604090819020805460ff191660011790557f5152abf959f6564662358c2e52b702259b78bac5ee7842a0f01937e670efcc7d9082905190815260200160405180910390a1505050565b600060018360028111156123fd57fe5b1415806124155750600184600181111561241357fe5b145b8015611bba5750600083600281111561242a57fe5b1480611bba5750506000901192915050565b600080612448846119e4565b9050612455818585611a99565b151561246057600080fd5b8091505b5092915050565b6000600185600281111561247b57fe5b14156124aa578151600160a060020a031684600160a060020a03161480156124a35750824210155b9050611bba565b8215806124a357505050421092915050565b6124c461305e565b6124cc613070565b60008061010060405190810160409081527f800000000000000000000000000000000000000000000000000000000000000082527f400000000000000000000000000000000000000000000000000000000000000060208301527f2000000000000000000000000000000000000000000000000000000000000000908201527f100000000000000000000000000000000000000000000000000000000000000060608201527f080000000000000000000000000000000000000000000000000000000000000060808201527f040000000000000000000000000000000000000000000000000000000000000060a08201527f020000000000000000000000000000000000000000000000000000000000000060c082015260f860020a60e0820152925085518751146125fd57600080fd5b6008875181151561260a57fe5b0485511461261757600080fd5b600091505b86518210156126e65782600883066008811061263457fe5b602002015185600884048151811061264857fe5b016020015160f860020a900460f860020a0216600160f860020a031916600060f860020a02149050806126985785828151811061268157fe5b016020015160f860020a900460f860020a026126b7565b8682815181106126a457fe5b016020015160f860020a900460f860020a025b8783815181106126c357fe5b906020010190600160f860020a031916908160001a90535060019091019061261c565b509495945050505050565b60008082518451146127065760009150612464565b5060005b835181101561277b5782818151811061271f57fe5b016020015160f860020a900460f860020a02600160f860020a03191684828151811061274757fe5b016020015160f860020a900460f860020a02600160f860020a0319161415156127735760009150612464565b60010161270a565b5060019392505050565b6000806004600061279585612336565b8152602081019190915260400160002091506127b2848484612def565b90506127cb84602001518560a001518660600151612ebf565b6127e283602001518460a001518560600151612ebf565b8154600160a060020a03161561281157815461281190600160a060020a03166101a085015184600101546128ab565b6128258460200151846101a0015183611831565b6128398360200151846101a00151836121de565b50505050565b6000600187600181111561284f57fe5b1480156128675750600186600281111561286557fe5b145b801561287257508242105b151561287d57600080fd5b60008251600160a060020a031614156128975750836128a1565b8382602001510190505b9695505050505050565b600160a060020a038084166000908152600160209081526040808320938616835292905220546128db908261181f565b600160a060020a038481166000908152600160209081526040808320938716835292905290812082905590101561291157600080fd5b81600160a060020a031683600160a060020a03167fe6e0ef9cd056ca98561ca60e347ada61e1ede2f1142a078951b7a52e1e508e608360405190815260200160405180910390a3505050565b600160a060020a03808416600090815260016020908152604080832093861683529290529081205461298f9083612b4f565b600160a060020a03858116600081815260016020908152604080832094891680845285835281842087905593835282825280832093835292815291902054919052901115612b0257600160a060020a038085166000818152600160209081526040808320948816808452948252808320549383528282528083209483529390529190912054612a1e919061181f565b600160a060020a0380861660009081526020818152604080832093881683529290522054909150612a4f9082612b4f565b600160a060020a03808616600090815260208181526040808320938816808452939091528082209390935590916323b872dd91879130918691516020015260405160e060020a63ffffffff8616028152600160a060020a0393841660048201529190921660248201526044810191909152606401602060405180830381600087803b1515612adc57600080fd5b6102c65a03f11515612aed57600080fd5b505050604051805190501515612b0257600080fd5b82600160a060020a031684600160a060020a03167f989eaa915cbb416ea3d6f9a63b1a3de51770c7674b11fe21ecdf76b4e1d139108460405190815260200160405180910390a350505050565b60008282018381101561246057fe5b6000815182602001518360400151846060015185608001518660a001518760c001518860e001518961010001518a61012001518b61014001518c61016001516040516c01000000000000000000000000600160a060020a03808f16820283528d8116820260148401528c811682026028840152603c83018c9052605c83018b9052891602607c82015260908101876001811115612bf757fe5b60ff1660f860020a028152600101866002811115612c1157fe5b60ff1660f860020a02815260010185600160a060020a0316600160a060020a03166c01000000000000000000000000028152601401846003811115612c5257fe5b60ff1660f860020a02815260010183805190602001908083835b60208310612c8b5780518252601f199092019160209182019101612c6c565b6001836020036101000a038019825116818451161790925250505091909101905082805190602001908083835b60208310612cd75780518252601f199092019160209182019101612cb8565b6001836020036101000a0380198251168184511617909252505050919091019d5060409c505050505050505050505050505180910390209050919050565b6000816101800151826101a00151836101c00151846101e001518561020001518661022001518761024001516040518088805190602001908083835b60208310612d705780518252601f199092019160209182019101612d51565b6001836020036101000a03801982511681845116808217855250505050505090500187600160a060020a0316600160a060020a03166c0100000000000000000000000002815260140186815260200185815260200184815260200183815260200182815260200197505050505050505060405180910390209050919050565b6000806000612e418560c001518660e00151876101c00151886101e001518961020001518a61022001518a604080519081016040528154600160a060020a031681526001909101546020820152612ee9565b9150612e908660c001518760e00151886101c00151896101e001518a61020001518b61022001518a604080519081016040528154600160a060020a031681526001909101546020820152612ee9565b905081811015612e9f57600080fd5b85610200015185610200015110612eb657806128a1565b50949350505050565b60008111156113f2576113f28383600260019054906101000a9004600160a060020a031684612f97565b60008080886002811115612ef957fe5b1415612f0757869150612f8b565b6001886002811115612f1557fe5b1415612f3f5760008351600160a060020a03161415612f3357600080fd5b82602001519150612f8b565b6002886002811115612f4d57fe5b14156100d7578484038542038702811515612f6457fe5b0490506001896001811115612f7557fe5b1415612f85578087039150612f8b565b80870191505b50979650505050505050565b612fa28383836121de565b612839848383611831565b6102606040519081016040908152600080835260208301819052908201819052606082018190526080820181905260a0820181905260c0820181905260e082018190526101008201819052610120820152610140810161300b61305e565b815260200161301861305e565b815260200161302561305e565b81526020016000600160a060020a0316815260200160008152602001600081526020016000815260200160008152602001600081525090565b60206040519081016040526000815290565b6101006040519081016040526008815b60008152600019909101906020018161308057905050905600a165627a7a723058201ab5834a0941c0cb8b37e74e10a2478297bb0e193b5e232c56221a9a0cba73e30029",
  "source": "/*\n\n  << Project Wyvern Exchange >>\n\n*/\n\npragma solidity 0.4.18;\n\nimport \"./exchange/Exchange.sol\";\n\n/**\n * @title WyvernExchange\n * @author Project Wyvern Developers\n */\ncontract WyvernExchange is Exchange {\n\n    string public constant name = \"Project Wyvern Exchange\";\n\n    function WyvernExchange (ProxyRegistry registryAddress, ERC20 tokenAddress) public {\n        exchangeTokenAddress = tokenAddress;\n        registry = registryAddress;\n    }\n\n}\n",
  "sourcePath": "/home/cwgoes/working/crypto/wyvern/wyvern-ethereum/contracts/WyvernExchange.sol",
  "compiler": {
    "name": "solc",
    "version": "0.4.18+commit.9cf6e910.Emscripten.clang"
  },
  "schemaVersion": "1.0.1",
  "updatedAt": "2018-01-18T21:57:26.349Z"
}