{
  "contractName": "WyvernProxyRegistry",
  "abi": [
    {
      "constant": true,
      "inputs": [],
      "name": "name",
      "outputs": [
        {
          "name": "",
          "type": "string"
        }
      ],
      "payable": false,
      "stateMutability": "view",
      "type": "function"
    },
    {
      "constant": true,
      "inputs": [],
      "name": "initialAddressSet",
      "outputs": [
        {
          "name": "",
          "type": "bool"
        }
      ],
      "payable": false,
      "stateMutability": "view",
      "type": "function"
    },
    {
      "constant": false,
      "inputs": [
        {
          "name": "addr",
          "type": "address"
        }
      ],
      "name": "endGrantAuthentication",
      "outputs": [],
      "payable": false,
      "stateMutability": "nonpayable",
      "type": "function"
    },
    {
      "constant": false,
      "inputs": [
        {
          "name": "addr",
          "type": "address"
        }
      ],
      "name": "revokeAuthentication",
      "outputs": [],
      "payable": false,
      "stateMutability": "nonpayable",
      "type": "function"
    },
    {
      "constant": true,
      "inputs": [
        {
          "name": "",
          "type": "address"
        }
      ],
      "name": "pending",
      "outputs": [
        {
          "name": "",
          "type": "uint256"
        }
      ],
      "payable": false,
      "stateMutability": "view",
      "type": "function"
    },
    {
      "constant": true,
      "inputs": [
        {
          "name": "",
          "type": "address"
        }
      ],
      "name": "contracts",
      "outputs": [
        {
          "name": "",
          "type": "bool"
        }
      ],
      "payable": false,
      "stateMutability": "view",
      "type": "function"
    },
    {
      "constant": true,
      "inputs": [],
      "name": "owner",
      "outputs": [
        {
          "name": "",
          "type": "address"
        }
      ],
      "payable": false,
      "stateMutability": "view",
      "type": "function"
    },
    {
      "constant": true,
      "inputs": [
        {
          "name": "",
          "type": "address"
        }
      ],
      "name": "proxies",
      "outputs": [
        {
          "name": "",
          "type": "address"
        }
      ],
      "payable": false,
      "stateMutability": "view",
      "type": "function"
    },
    {
      "constant": false,
      "inputs": [
        {
          "name": "addr",
          "type": "address"
        }
      ],
      "name": "startGrantAuthentication",
      "outputs": [],
      "payable": false,
      "stateMutability": "nonpayable",
      "type": "function"
    },
    {
      "constant": false,
      "inputs": [],
      "name": "registerProxy",
      "outputs": [
        {
          "name": "proxy",
          "type": "address"
        }
      ],
      "payable": false,
      "stateMutability": "nonpayable",
      "type": "function"
    },
    {
      "constant": true,
      "inputs": [],
      "name": "DELAY_PERIOD",
      "outputs": [
        {
          "name": "",
          "type": "uint256"
        }
      ],
      "payable": false,
      "stateMutability": "view",
      "type": "function"
    },
    {
      "constant": false,
      "inputs": [
        {
          "name": "authAddress",
          "type": "address"
        }
      ],
      "name": "grantInitialAuthentication",
      "outputs": [],
      "payable": false,
      "stateMutability": "nonpayable",
      "type": "function"
    },
    {
      "constant": false,
      "inputs": [
        {
          "name": "newOwner",
          "type": "address"
        }
      ],
      "name": "transferOwnership",
      "outputs": [],
      "payable": false,
      "stateMutability": "nonpayable",
      "type": "function"
    },
    {
      "inputs": [],
      "payable": false,
      "stateMutability": "nonpayable",
      "type": "constructor"
    },
    {
      "anonymous": false,
      "inputs": [
        {
          "indexed": true,
          "name": "previousOwner",
          "type": "address"
        },
        {
          "indexed": true,
          "name": "newOwner",
          "type": "address"
        }
      ],
      "name": "OwnershipTransferred",
      "type": "event"
    }
  ],
  "bytecode": "0x6060604052621275006004556005805460ff19169055341561002057600080fd5b60008054600160a060020a033316600160a060020a0319909116179055610ddf8061004c6000396000f3006060604052600436106100c45763ffffffff7c010000000000000000000000000000000000000000000000000000000060003504166306fdde0381146100c95780631a86ac4f1461015357806338b6e4071461017a57806353376d1f1461019b5780635eebea20146101ba57806369dc9ff3146101eb5780638da5cb5b1461020a578063c455279114610239578063d4e8e06314610258578063ddd81f8214610277578063e71a02e11461028a578063ef7f38341461029d578063f2fde38b146102bc575b600080fd5b34156100d457600080fd5b6100dc6102db565b60405160208082528190810183818151815260200191508051906020019080838360005b83811015610118578082015183820152602001610100565b50505050905090810190601f1680156101455780820380516001836020036101000a031916815260200191505b509250505060405180910390f35b341561015e57600080fd5b610166610312565b604051901515815260200160405180910390f35b341561018557600080fd5b610199600160a060020a036004351661031b565b005b34156101a657600080fd5b610199600160a060020a03600435166103da565b34156101c557600080fd5b6101d9600160a060020a0360043516610416565b60405190815260200160405180910390f35b34156101f657600080fd5b610166600160a060020a0360043516610428565b341561021557600080fd5b61021d61043d565b604051600160a060020a03909116815260200160405180910390f35b341561024457600080fd5b61021d600160a060020a036004351661044c565b341561026357600080fd5b610199600160a060020a0360043516610467565b341561028257600080fd5b61021d6104e8565b341561029557600080fd5b6101d9610588565b34156102a857600080fd5b610199600160a060020a036004351661058e565b34156102c757600080fd5b610199600160a060020a03600435166105ee565b60408051908101604052601d81527f50726f6a6563742057797665726e2050726f7879205265676973747279000000602082015281565b60055460ff1681565b60005433600160a060020a0390811691161461033657600080fd5b600160a060020a03811660009081526003602052604090205460ff161580156103765750600160a060020a03811660009081526002602052604090205415155b801561039e5750600454600160a060020a038216600090815260026020526040902054429101105b15156103a957600080fd5b600160a060020a0316600090815260026020908152604080832083905560039091529020805460ff19166001179055565b60005433600160a060020a039081169116146103f557600080fd5b600160a060020a03166000908152600360205260409020805460ff19169055565b60026020526000908152604090205481565b60036020526000908152604090205460ff1681565b600054600160a060020a031681565b600160205260009081526040902054600160a060020a031681565b60005433600160a060020a0390811691161461048257600080fd5b600160a060020a03811660009081526003602052604090205460ff161580156104c15750600160a060020a038116600090815260026020526040902054155b15156104cc57600080fd5b600160a060020a03166000908152600260205260409020429055565b600160a060020a033381166000908152600160205260408120549091161561050f57600080fd5b3330610519610689565b600160a060020a0392831681529116602082015260409081019051809103906000f080151561054757600080fd5b33600160a060020a039081166000908152600160205260409020805473ffffffffffffffffffffffffffffffffffffffff1916918316919091179055919050565b60045481565b60005433600160a060020a039081169116146105a957600080fd5b60055460ff16156105b957600080fd5b6005805460ff199081166001908117909255600160a060020a0390921660009081526003602052604090208054909216179055565b60005433600160a060020a0390811691161461060957600080fd5b600160a060020a038116151561061e57600080fd5b600054600160a060020a0380831691167f8be0079c531659141344cd1fd0a4f28419497f9722a3daafe3b4186f6b6457e060405160405180910390a36000805473ffffffffffffffffffffffffffffffffffffffff1916600160a060020a0392909216919091179055565b60405161071a8061069a8339019056006060604052341561000f57600080fd5b60405160408061071a833981016040528080519190602001805160008054600160a060020a03958616600160a060020a031991821617909155600180549590921694169390931790925550506106b08061006a6000396000f3006060604052600436106100695763ffffffff60e060020a6000350416631b0f7ba981146100a85780633f801f91146101245780634c93505f1461018e5780634f8632ba146101a657806363d256ce146101d55780637b103999146101e85780638f4ffcb1146101fb575b33600160a060020a03167fa419615bc8fda4c87663805ee2a3597a6d71c1d476911d9892f340d965bc7bf13460405190815260200160405180910390a2005b34156100b357600080fd5b61011060048035600160a060020a0316906024803560ff16919060649060443590810190830135806020601f8201819004810201604051908101604052818152929190602084018383808284375094965061026795505050505050565b604051901515815260200160405180910390f35b341561012f57600080fd5b61018c60048035600160a060020a0316906024803560ff16919060649060443590810190830135806020601f8201819004810201604051908101604052818152929190602084018383808284375094965061045295505050505050565b005b341561019957600080fd5b61018c600435151561046d565b34156101b157600080fd5b6101b96104f9565b604051600160a060020a03909116815260200160405180910390f35b34156101e057600080fd5b610110610508565b34156101f357600080fd5b6101b9610529565b341561020657600080fd5b61018c60048035600160a060020a0390811691602480359260443516919060849060643590810190830135806020601f8201819004810201604051908101604052818152929190602084018383808284375094965061053895505050505050565b6000805433600160a060020a039081169116148061031b575060015474010000000000000000000000000000000000000000900460ff1615801561031b5750600154600160a060020a03166369dc9ff33360006040516020015260405160e060020a63ffffffff8416028152600160a060020a039091166004820152602401602060405180830381600087803b15156102ff57600080fd5b6102c65a03f1151561031057600080fd5b505050604051805190505b151561032657600080fd5b600083600181111561033457fe5b14156103bc5783600160a060020a03168260405180828051906020019080838360005b8381101561036f578082015183820152602001610357565b50505050905090810190601f16801561039c5780820380516001836020036101000a031916815260200191505b5091505060006040518083038160008661646e5a03f1915050905061044b565b60018360018111156103ca57fe5b141561044b5783600160a060020a03168260405180828051906020019080838360005b838110156104055780820151838201526020016103ed565b50505050905090810190601f1680156104325780820380516001836020036101000a031916815260200191505b509150506000604051808303818561646e5a03f4925050505b9392505050565b61045d838383610267565b151561046857600080fd5b505050565b60005433600160a060020a0390811691161461048857600080fd5b6001805474ff0000000000000000000000000000000000000000191674010000000000000000000000000000000000000000831515021790557f2165014523a6f4135deffed62d70149aad59b64de5aac51e3abbcbe2a83e2f7e81604051901515815260200160405180910390a150565b600054600160a060020a031681565b60015474010000000000000000000000000000000000000000900460ff1681565b600154600160a060020a031681565b81600160a060020a0381166323b872dd86308760006040516020015260405160e060020a63ffffffff8616028152600160a060020a0393841660048201529190921660248201526044810191909152606401602060405180830381600087803b15156105a357600080fd5b6102c65a03f115156105b457600080fd5b5050506040518051905015156105c957600080fd5b82600160a060020a031685600160a060020a03167fd65b48fd35864b3528d38e44760be5553248f89bf3ff6b06cca57817cc2650bf868560405182815260406020820181815290820183818151815260200191508051906020019080838360005b8381101561064257808201518382015260200161062a565b50505050905090810190601f16801561066f5780820380516001836020036101000a031916815260200191505b50935050505060405180910390a350505050505600a165627a7a72305820f03453619e690e4369306b62975f07ada1749fb20451bf692ceafeede289aefd0029a165627a7a723058203623bc4beb20951859209ebc6b5e38ba11616bc33fd7650481616b95842163940029",
  "source": "/*\n\n  << Project Wyvern Proxy Registry >>\n\n*/\n\npragma solidity 0.4.18;\n\nimport \"./registry/ProxyRegistry.sol\";\n\n/**\n * @title WyvernProxyRegistry\n * @author Project Wyvern Developers\n */\ncontract WyvernProxyRegistry is ProxyRegistry {\n\n    string public constant name = \"Project Wyvern Proxy Registry\";\n\n    /* Whether the initial auth address has been set. */\n    bool public initialAddressSet = false;\n\n    /**\n     * @dev Create a WyvernProxyRegistry instance\n     */\n    function WyvernProxyRegistry ()\n        public\n    {\n    }\n\n    /** \n     * Grant authentication to the initial Exchange protocol contract\n     *\n     * @dev No delay, can only be called once - after that the standard registry process with a delay must be used\n     * @param authAddress Address of the contract to grant authentication\n     */\n    function grantInitialAuthentication (address authAddress)\n        onlyOwner\n        public\n    {\n        require(!initialAddressSet);\n        initialAddressSet = true;\n        contracts[authAddress] = true;\n    }\n\n}\n",
  "sourcePath": "/home/cwgoes/working/crypto/wyvern/wyvern-ethereum/contracts/WyvernProxyRegistry.sol",
  "compiler": {
    "name": "solc",
    "version": "0.4.18+commit.9cf6e910.Emscripten.clang"
  },
  "schemaVersion": "1.0.1",
  "updatedAt": "2018-02-02T04:57:08.223Z"
}