{
  "contractName": "WyvernExchange",
  "abi": [
    {
      "constant": true,
      "inputs": [],
      "name": "name",
      "outputs": [
        {
          "name": "",
          "type": "string"
        }
      ],
      "payable": false,
      "stateMutability": "view",
      "type": "function"
    },
    {
      "constant": true,
      "inputs": [
        {
          "name": "addrs",
          "type": "address[14]"
        },
        {
          "name": "uints",
          "type": "uint256[14]"
        },
        {
          "name": "sidesKindsHowToCalls",
          "type": "uint8[6]"
        },
        {
          "name": "calldataBuy",
          "type": "bytes"
        },
        {
          "name": "calldataSell",
          "type": "bytes"
        },
        {
          "name": "replacementPatternBuy",
          "type": "bytes"
        },
        {
          "name": "replacementPatternSell",
          "type": "bytes"
        },
        {
          "name": "staticExtradataBuy",
          "type": "bytes"
        },
        {
          "name": "staticExtradataSell",
          "type": "bytes"
        }
      ],
      "name": "ordersCanMatch_",
      "outputs": [
        {
          "name": "",
          "type": "bool"
        }
      ],
      "payable": false,
      "stateMutability": "view",
      "type": "function"
    },
    {
      "constant": false,
      "inputs": [
        {
          "name": "addrs",
          "type": "address[7]"
        },
        {
          "name": "uints",
          "type": "uint256[7]"
        },
        {
          "name": "side",
          "type": "uint8"
        },
        {
          "name": "saleKind",
          "type": "uint8"
        },
        {
          "name": "howToCall",
          "type": "uint8"
        },
        {
          "name": "calldata",
          "type": "bytes"
        },
        {
          "name": "replacementPattern",
          "type": "bytes"
        },
        {
          "name": "staticExtradata",
          "type": "bytes"
        },
        {
          "name": "orderbookInclusionDesired",
          "type": "bool"
        }
      ],
      "name": "approveOrder_",
      "outputs": [],
      "payable": false,
      "stateMutability": "nonpayable",
      "type": "function"
    },
    {
      "constant": true,
      "inputs": [
        {
          "name": "array",
          "type": "bytes"
        },
        {
          "name": "desired",
          "type": "bytes"
        },
        {
          "name": "mask",
          "type": "bytes"
        }
      ],
      "name": "guardedArrayReplace",
      "outputs": [
        {
          "name": "",
          "type": "bytes"
        }
      ],
      "payable": false,
      "stateMutability": "pure",
      "type": "function"
    },
    {
      "constant": false,
      "inputs": [
        {
          "name": "addrs",
          "type": "address[7]"
        },
        {
          "name": "uints",
          "type": "uint256[7]"
        },
        {
          "name": "side",
          "type": "uint8"
        },
        {
          "name": "saleKind",
          "type": "uint8"
        },
        {
          "name": "howToCall",
          "type": "uint8"
        },
        {
          "name": "calldata",
          "type": "bytes"
        },
        {
          "name": "replacementPattern",
          "type": "bytes"
        },
        {
          "name": "staticExtradata",
          "type": "bytes"
        },
        {
          "name": "v",
          "type": "uint8"
        },
        {
          "name": "r",
          "type": "bytes32"
        },
        {
          "name": "s",
          "type": "bytes32"
        }
      ],
      "name": "cancelOrder_",
      "outputs": [],
      "payable": false,
      "stateMutability": "nonpayable",
      "type": "function"
    },
    {
      "constant": false,
      "inputs": [
        {
          "name": "token",
          "type": "address"
        },
        {
          "name": "amount",
          "type": "uint256"
        }
      ],
      "name": "deposit",
      "outputs": [],
      "payable": false,
      "stateMutability": "nonpayable",
      "type": "function"
    },
    {
      "constant": true,
      "inputs": [
        {
          "name": "user",
          "type": "address"
        },
        {
          "name": "token",
          "type": "address"
        }
      ],
      "name": "lockedFor",
      "outputs": [
        {
          "name": "",
          "type": "uint256"
        }
      ],
      "payable": false,
      "stateMutability": "view",
      "type": "function"
    },
    {
      "constant": true,
      "inputs": [
        {
          "name": "",
          "type": "bytes32"
        }
      ],
      "name": "topBids",
      "outputs": [
        {
          "name": "bidder",
          "type": "address"
        },
        {
          "name": "amount",
          "type": "uint256"
        }
      ],
      "payable": false,
      "stateMutability": "view",
      "type": "function"
    },
    {
      "constant": true,
      "inputs": [
        {
          "name": "buyCalldata",
          "type": "bytes"
        },
        {
          "name": "buyReplacementPattern",
          "type": "bytes"
        },
        {
          "name": "sellCalldata",
          "type": "bytes"
        },
        {
          "name": "sellReplacementPattern",
          "type": "bytes"
        }
      ],
      "name": "orderCalldataCanMatch",
      "outputs": [
        {
          "name": "",
          "type": "bool"
        }
      ],
      "payable": false,
      "stateMutability": "pure",
      "type": "function"
    },
    {
      "constant": true,
      "inputs": [
        {
          "name": "addrs",
          "type": "address[14]"
        },
        {
          "name": "uints",
          "type": "uint256[14]"
        },
        {
          "name": "sidesKindsHowToCalls",
          "type": "uint8[6]"
        },
        {
          "name": "calldataBuy",
          "type": "bytes"
        },
        {
          "name": "calldataSell",
          "type": "bytes"
        },
        {
          "name": "replacementPatternBuy",
          "type": "bytes"
        },
        {
          "name": "replacementPatternSell",
          "type": "bytes"
        },
        {
          "name": "staticExtradataBuy",
          "type": "bytes"
        },
        {
          "name": "staticExtradataSell",
          "type": "bytes"
        }
      ],
      "name": "calculateMatchPrice_",
      "outputs": [
        {
          "name": "",
          "type": "uint256"
        }
      ],
      "payable": false,
      "stateMutability": "view",
      "type": "function"
    },
    {
      "constant": false,
      "inputs": [
        {
          "name": "token",
          "type": "address"
        },
        {
          "name": "amount",
          "type": "uint256"
        },
        {
          "name": "dest",
          "type": "address"
        }
      ],
      "name": "withdraw",
      "outputs": [],
      "payable": false,
      "stateMutability": "nonpayable",
      "type": "function"
    },
    {
      "constant": true,
      "inputs": [
        {
          "name": "addrs",
          "type": "address[7]"
        },
        {
          "name": "uints",
          "type": "uint256[7]"
        },
        {
          "name": "side",
          "type": "uint8"
        },
        {
          "name": "saleKind",
          "type": "uint8"
        },
        {
          "name": "howToCall",
          "type": "uint8"
        },
        {
          "name": "calldata",
          "type": "bytes"
        },
        {
          "name": "replacementPattern",
          "type": "bytes"
        },
        {
          "name": "staticExtradata",
          "type": "bytes"
        },
        {
          "name": "v",
          "type": "uint8"
        },
        {
          "name": "r",
          "type": "bytes32"
        },
        {
          "name": "s",
          "type": "bytes32"
        }
      ],
      "name": "validateOrder_",
      "outputs": [
        {
          "name": "",
          "type": "bool"
        }
      ],
      "payable": false,
      "stateMutability": "view",
      "type": "function"
    },
    {
      "constant": true,
      "inputs": [],
      "name": "registry",
      "outputs": [
        {
          "name": "",
          "type": "address"
        }
      ],
      "payable": false,
      "stateMutability": "view",
      "type": "function"
    },
    {
      "constant": true,
      "inputs": [
        {
          "name": "",
          "type": "bytes32"
        }
      ],
      "name": "cancelledOrFinalized",
      "outputs": [
        {
          "name": "",
          "type": "bool"
        }
      ],
      "payable": false,
      "stateMutability": "view",
      "type": "function"
    },
    {
      "constant": true,
      "inputs": [],
      "name": "exchangeToken",
      "outputs": [
        {
          "name": "",
          "type": "address"
        }
      ],
      "payable": false,
      "stateMutability": "view",
      "type": "function"
    },
    {
      "constant": true,
      "inputs": [
        {
          "name": "",
          "type": "address"
        },
        {
          "name": "",
          "type": "address"
        }
      ],
      "name": "balances",
      "outputs": [
        {
          "name": "",
          "type": "uint256"
        }
      ],
      "payable": false,
      "stateMutability": "view",
      "type": "function"
    },
    {
      "constant": true,
      "inputs": [
        {
          "name": "",
          "type": "address"
        },
        {
          "name": "",
          "type": "address"
        }
      ],
      "name": "locked",
      "outputs": [
        {
          "name": "",
          "type": "uint256"
        }
      ],
      "payable": false,
      "stateMutability": "view",
      "type": "function"
    },
    {
      "constant": true,
      "inputs": [
        {
          "name": "user",
          "type": "address"
        },
        {
          "name": "token",
          "type": "address"
        }
      ],
      "name": "availableFor",
      "outputs": [
        {
          "name": "",
          "type": "uint256"
        }
      ],
      "payable": false,
      "stateMutability": "view",
      "type": "function"
    },
    {
      "constant": false,
      "inputs": [
        {
          "name": "addrs",
          "type": "address[14]"
        },
        {
          "name": "uints",
          "type": "uint256[14]"
        },
        {
          "name": "sidesKindsHowToCalls",
          "type": "uint8[6]"
        },
        {
          "name": "calldataBuy",
          "type": "bytes"
        },
        {
          "name": "calldataSell",
          "type": "bytes"
        },
        {
          "name": "replacementPatternBuy",
          "type": "bytes"
        },
        {
          "name": "replacementPatternSell",
          "type": "bytes"
        },
        {
          "name": "staticExtradataBuy",
          "type": "bytes"
        },
        {
          "name": "staticExtradataSell",
          "type": "bytes"
        },
        {
          "name": "vs",
          "type": "uint8[2]"
        },
        {
          "name": "rss",
          "type": "bytes32[4]"
        }
      ],
      "name": "atomicMatch_",
      "outputs": [],
      "payable": false,
      "stateMutability": "nonpayable",
      "type": "function"
    },
    {
      "constant": true,
      "inputs": [
        {
          "name": "",
          "type": "bytes32"
        }
      ],
      "name": "approvedOrders",
      "outputs": [
        {
          "name": "",
          "type": "bool"
        }
      ],
      "payable": false,
      "stateMutability": "view",
      "type": "function"
    },
    {
      "constant": false,
      "inputs": [
        {
          "name": "addrs",
          "type": "address[7]"
        },
        {
          "name": "uints",
          "type": "uint256[7]"
        },
        {
          "name": "side",
          "type": "uint8"
        },
        {
          "name": "saleKind",
          "type": "uint8"
        },
        {
          "name": "howToCall",
          "type": "uint8"
        },
        {
          "name": "calldata",
          "type": "bytes"
        },
        {
          "name": "replacementPattern",
          "type": "bytes"
        },
        {
          "name": "staticExtradata",
          "type": "bytes"
        },
        {
          "name": "v",
          "type": "uint8"
        },
        {
          "name": "r",
          "type": "bytes32"
        },
        {
          "name": "s",
          "type": "bytes32"
        },
        {
          "name": "amount",
          "type": "uint256"
        }
      ],
      "name": "bid_",
      "outputs": [],
      "payable": false,
      "stateMutability": "nonpayable",
      "type": "function"
    },
    {
      "constant": true,
      "inputs": [
        {
          "name": "addrs",
          "type": "address[7]"
        },
        {
          "name": "uints",
          "type": "uint256[7]"
        },
        {
          "name": "side",
          "type": "uint8"
        },
        {
          "name": "saleKind",
          "type": "uint8"
        },
        {
          "name": "howToCall",
          "type": "uint8"
        },
        {
          "name": "calldata",
          "type": "bytes"
        },
        {
          "name": "replacementPattern",
          "type": "bytes"
        },
        {
          "name": "staticExtradata",
          "type": "bytes"
        }
      ],
      "name": "calculateCurrentPrice_",
      "outputs": [
        {
          "name": "",
          "type": "uint256"
        }
      ],
      "payable": false,
      "stateMutability": "view",
      "type": "function"
    },
    {
      "constant": true,
      "inputs": [
        {
          "name": "user",
          "type": "address"
        },
        {
          "name": "token",
          "type": "address"
        }
      ],
      "name": "balanceFor",
      "outputs": [
        {
          "name": "",
          "type": "uint256"
        }
      ],
      "payable": false,
      "stateMutability": "view",
      "type": "function"
    },
    {
      "constant": true,
      "inputs": [
        {
          "name": "addrs",
          "type": "address[7]"
        },
        {
          "name": "uints",
          "type": "uint256[7]"
        },
        {
          "name": "side",
          "type": "uint8"
        },
        {
          "name": "saleKind",
          "type": "uint8"
        },
        {
          "name": "howToCall",
          "type": "uint8"
        },
        {
          "name": "calldata",
          "type": "bytes"
        },
        {
          "name": "replacementPattern",
          "type": "bytes"
        },
        {
          "name": "staticExtradata",
          "type": "bytes"
        }
      ],
      "name": "hashOrder_",
      "outputs": [
        {
          "name": "",
          "type": "bytes32"
        }
      ],
      "payable": false,
      "stateMutability": "pure",
      "type": "function"
    },
    {
      "inputs": [
        {
          "name": "registryAddress",
          "type": "address"
        },
        {
          "name": "tokenAddress",
          "type": "address"
        }
      ],
      "payable": false,
      "stateMutability": "nonpayable",
      "type": "constructor"
    },
    {
      "anonymous": false,
      "inputs": [
        {
          "indexed": true,
          "name": "hash",
          "type": "bytes32"
        },
        {
          "indexed": false,
          "name": "exchange",
          "type": "address"
        },
        {
          "indexed": true,
          "name": "maker",
          "type": "address"
        },
        {
          "indexed": false,
          "name": "taker",
          "type": "address"
        },
        {
          "indexed": false,
          "name": "makerFee",
          "type": "uint256"
        },
        {
          "indexed": false,
          "name": "takerFee",
          "type": "uint256"
        },
        {
          "indexed": true,
          "name": "feeRecipient",
          "type": "address"
        },
        {
          "indexed": false,
          "name": "side",
          "type": "uint8"
        },
        {
          "indexed": false,
          "name": "saleKind",
          "type": "uint8"
        },
        {
          "indexed": false,
          "name": "target",
          "type": "address"
        },
        {
          "indexed": false,
          "name": "howToCall",
          "type": "uint8"
        },
        {
          "indexed": false,
          "name": "calldata",
          "type": "bytes"
        }
      ],
      "name": "OrderApprovedPartOne",
      "type": "event"
    },
    {
      "anonymous": false,
      "inputs": [
        {
          "indexed": true,
          "name": "hash",
          "type": "bytes32"
        },
        {
          "indexed": false,
          "name": "replacementPattern",
          "type": "bytes"
        },
        {
          "indexed": false,
          "name": "staticTarget",
          "type": "address"
        },
        {
          "indexed": false,
          "name": "staticExtradata",
          "type": "bytes"
        },
        {
          "indexed": false,
          "name": "paymentToken",
          "type": "address"
        },
        {
          "indexed": false,
          "name": "basePrice",
          "type": "uint256"
        },
        {
          "indexed": false,
          "name": "extra",
          "type": "uint256"
        },
        {
          "indexed": false,
          "name": "listingTime",
          "type": "uint256"
        },
        {
          "indexed": false,
          "name": "expirationTime",
          "type": "uint256"
        },
        {
          "indexed": false,
          "name": "salt",
          "type": "uint256"
        },
        {
          "indexed": false,
          "name": "orderbookInclusionDesired",
          "type": "bool"
        }
      ],
      "name": "OrderApprovedPartTwo",
      "type": "event"
    },
    {
      "anonymous": false,
      "inputs": [
        {
          "indexed": true,
          "name": "hash",
          "type": "bytes32"
        }
      ],
      "name": "OrderCancelled",
      "type": "event"
    },
    {
      "anonymous": false,
      "inputs": [
        {
          "indexed": true,
          "name": "hash",
          "type": "bytes32"
        },
        {
          "indexed": true,
          "name": "bidder",
          "type": "address"
        },
        {
          "indexed": false,
          "name": "amount",
          "type": "uint256"
        }
      ],
      "name": "OrderBidOn",
      "type": "event"
    },
    {
      "anonymous": false,
      "inputs": [
        {
          "indexed": true,
          "name": "buyHash",
          "type": "bytes32"
        },
        {
          "indexed": true,
          "name": "sellHash",
          "type": "bytes32"
        }
      ],
      "name": "OrdersMatched",
      "type": "event"
    },
    {
      "anonymous": false,
      "inputs": [
        {
          "indexed": true,
          "name": "user",
          "type": "address"
        },
        {
          "indexed": true,
          "name": "token",
          "type": "address"
        },
        {
          "indexed": false,
          "name": "amount",
          "type": "uint256"
        }
      ],
      "name": "Credited",
      "type": "event"
    },
    {
      "anonymous": false,
      "inputs": [
        {
          "indexed": true,
          "name": "user",
          "type": "address"
        },
        {
          "indexed": true,
          "name": "token",
          "type": "address"
        },
        {
          "indexed": false,
          "name": "amount",
          "type": "uint256"
        }
      ],
      "name": "Debited",
      "type": "event"
    },
    {
      "anonymous": false,
      "inputs": [
        {
          "indexed": true,
          "name": "user",
          "type": "address"
        },
        {
          "indexed": true,
          "name": "token",
          "type": "address"
        },
        {
          "indexed": false,
          "name": "amount",
          "type": "uint256"
        }
      ],
      "name": "Locked",
      "type": "event"
    },
    {
      "anonymous": false,
      "inputs": [
        {
          "indexed": true,
          "name": "user",
          "type": "address"
        },
        {
          "indexed": true,
          "name": "token",
          "type": "address"
        },
        {
          "indexed": false,
          "name": "amount",
          "type": "uint256"
        }
      ],
      "name": "Unlocked",
      "type": "event"
    }
  ],
  "bytecode": "0x60606040526002805460ff19169055341561001957600080fd5b60405160408061466783398101604052808051919060200180516002805461010060a860020a031916610100600160a060020a039384160217905560038054600160a060020a0319169490911693909317909255506145e890508061007f6000396000f3006060604052600436106101245763ffffffff60e060020a60003504166306fdde038114610129578063136f5b5a146101b35780631665e6b3146103dd578063239e83df1461052257806335d91b85146105f757806347e7ef24146107465780634e10c95d14610768578063532aa1c81461079f578063562b2ebc146107d7578063582420bb146108ee57806369328dec14610b045780637627e94114610b2d5780637b10399914610c7c5780638076f00514610cab578063a25eb5d914610cc1578063c23f001f14610cd4578063db20266f14610cf9578063db2ec6bd14610d1e578063dfc7209f14610d43578063e57d4adb14610fad578063e6d2bd7b14610fc3578063f4c9180714611117578063f771e78b14611256578063f9c29e661461127b575b600080fd5b341561013457600080fd5b61013c6113ba565b60405160208082528190810183818151815260200191508051906020019080838360005b83811015610178578082015183820152602001610160565b50505050905090810190601f1680156101a55780820380516001836020036101000a031916815260200191505b509250505060405180910390f35b34156101be57600080fd5b6103c960046101c481600e6101c0604051908101604052919082826101c08082843782019150505050509190806101c00190600e80602002604051908101604052919082826101c080828437820191505050505091908060c001906006806020026040519081016040529190828260c0808284375093959460208082019550903586018082019450359250829150601f8201819004810201604051908101604052818152929190602084018383808284378201915050505050509190803590602001908201803590602001908080601f01602080910402602001604051908101604052818152929190602084018383808284378201915050505050509190803590602001908201803590602001908080601f01602080910402602001604051908101604052818152929190602084018383808284378201915050505050509190803590602001908201803590602001908080601f01602080910402602001604051908101604052818152929190602084018383808284378201915050505050509190803590602001908201803590602001908080601f01602080910402602001604051908101604052818152929190602084018383808284378201915050505050509190803590602001908201803590602001908080601f0160208091040260200160405190810160405281815292919060208401838380828437509496506113f195505050505050565b604051901515815260200160405180910390f35b34156103e857600080fd5b610520600460e481600760e06040519081016040529190828260e080828437820191505050505091908060e001906007806020026040519081016040529190828260e08082843750939560ff8635811696602080820135831697506040808301359093169650929450608081019350606001358401808301929035918291601f83018190048102019051908101604052818152929190602084018383808284378201915050505050509190803590602001908201803590602001908080601f01602080910402602001604051908101604052818152929190602084018383808284378201915050505050509190803590602001908201803590602001908080601f01602080910402602001604051908101604052818152929190602084018383808284375094965050505091351515915061171e9050565b005b341561052d57600080fd5b61013c60046024813581810190830135806020601f8201819004810201604051908101604052818152929190602084018383808284378201915050505050509190803590602001908201803590602001908080601f01602080910402602001604051908101604052818152929190602084018383808284378201915050505050509190803590602001908201803590602001908080601f01602080910402602001604051908101604052818152929190602084018383808284375094965061185b95505050505050565b341561060257600080fd5b610520600460e481600760e06040519081016040529190828260e080828437820191505050505091908060e001906007806020026040519081016040529190828260e08082843750939560ff8635811696602080820135831697506040808301359093169650929450608081019350606001358401808301929035918291601f83018190048102019051908101604052818152929190602084018383808284378201915050505050509190803590602001908201803590602001908080601f01602080910402602001604051908101604052818152929190602084018383808284378201915050505050509190803590602001908201803590602001908080601f0160208091040260200160405190810160405281815292919060208401838380828437509496505060ff8535169460208101359450604001359250611878915050565b341561075157600080fd5b610520600160a060020a03600435166024356119c9565b341561077357600080fd5b61078d600160a060020a0360043581169060243516611a68565b60405190815260200160405180910390f35b34156107aa57600080fd5b6107b5600435611a93565b604051600160a060020a03909216825260208201526040908101905180910390f35b34156107e257600080fd5b6103c960046024813581810190830135806020601f8201819004810201604051908101604052818152929190602084018383808284378201915050505050509190803590602001908201803590602001908080601f01602080910402602001604051908101604052818152929190602084018383808284378201915050505050509190803590602001908201803590602001908080601f01602080910402602001604051908101604052818152929190602084018383808284378201915050505050509190803590602001908201803590602001908080601f016020809104026020016040519081016040528181529291906020840183838082843750949650611ab895505050505050565b34156108f957600080fd5b61078d60046101c481600e6101c0604051908101604052919082826101c08082843782019150505050509190806101c00190600e80602002604051908101604052919082826101c080828437820191505050505091908060c001906006806020026040519081016040529190828260c0808284375093959460208082019550903586018082019450359250829150601f8201819004810201604051908101604052818152929190602084018383808284378201915050505050509190803590602001908201803590602001908080601f01602080910402602001604051908101604052818152929190602084018383808284378201915050505050509190803590602001908201803590602001908080601f01602080910402602001604051908101604052818152929190602084018383808284378201915050505050509190803590602001908201803590602001908080601f01602080910402602001604051908101604052818152929190602084018383808284378201915050505050509190803590602001908201803590602001908080601f01602080910402602001604051908101604052818152929190602084018383808284378201915050505050509190803590602001908201803590602001908080601f016020809104026020016040519081016040528181529291906020840183838082843750949650611ae595505050505050565b3415610b0f57600080fd5b610520600160a060020a036004358116906024359060443516611e01565b3415610b3857600080fd5b6103c9600460e481600760e06040519081016040529190828260e080828437820191505050505091908060e001906007806020026040519081016040529190828260e08082843750939560ff8635811696602080820135831697506040808301359093169650929450608081019350606001358401808301929035918291601f83018190048102019051908101604052818152929190602084018383808284378201915050505050509190803590602001908201803590602001908080601f01602080910402602001604051908101604052818152929190602084018383808284378201915050505050509190803590602001908201803590602001908080601f0160208091040260200160405190810160405281815292919060208401838380828437509496505060ff8535169460208101359450604001359250611ede915050565b3415610c8757600080fd5b610c8f612038565b604051600160a060020a03909116815260200160405180910390f35b3415610cb657600080fd5b6103c9600435612047565b3415610ccc57600080fd5b610c8f61205c565b3415610cdf57600080fd5b61078d600160a060020a0360043581169060243516612070565b3415610d0457600080fd5b61078d600160a060020a036004358116906024351661208a565b3415610d2957600080fd5b61078d600160a060020a03600435811690602435166120a7565b3415610d4e57600080fd5b61052060046101c481600e6101c0604051908101604052919082826101c08082843782019150505050509190806101c00190600e80602002604051908101604052919082826101c080828437820191505050505091908060c001906006806020026040519081016040529190828260c0808284375093959460208082019550903586018082019450359250829150601f8201819004810201604051908101604052818152929190602084018383808284378201915050505050509190803590602001908201803590602001908080601f01602080910402602001604051908101604052818152929190602084018383808284378201915050505050509190803590602001908201803590602001908080601f01602080910402602001604051908101604052818152929190602084018383808284378201915050505050509190803590602001908201803590602001908080601f01602080910402602001604051908101604052818152929190602084018383808284378201915050505050509190803590602001908201803590602001908080601f01602080910402602001604051908101604052818152929190602084018383808284378201915050505050509190803590602001908201803590602001908080601f016020809104026020016040519081016040528181529291906020840183838082843782019150505050505091908060400190600280602002604051908101604052809291908260026020028082843782019150505050509190806080019060048060200260405190810160405291908282608080828437509395506120ec945050505050565b3415610fb857600080fd5b6103c9600435612406565b3415610fce57600080fd5b610520600460e481600760e06040519081016040529190828260e080828437820191505050505091908060e001906007806020026040519081016040529190828260e08082843750939560ff8635811696602080820135831697506040808301359093169650929450608081019350606001358401808301929035918291601f83018190048102019051908101604052818152929190602084018383808284378201915050505050509190803590602001908201803590602001908080601f01602080910402602001604051908101604052818152929190602084018383808284378201915050505050509190803590602001908201803590602001908080601f0160208091040260200160405190810160405281815292919060208401838380828437509496505050833560ff1693602081013593506040810135925060600135905061241b565b341561112257600080fd5b61078d600460e481600760e06040519081016040529190828260e080828437820191505050505091908060e001906007806020026040519081016040529190828260e08082843750939560ff8635811696602080820135831697506040808301359093169650929450608081019350606001358401808301929035918291601f83018190048102019051908101604052818152929190602084018383808284378201915050505050509190803590602001908201803590602001908080601f01602080910402602001604051908101604052818152929190602084018383808284378201915050505050509190803590602001908201803590602001908080601f01602080910402602001604051908101604052818152929190602084018383808284375094965061256e95505050505050565b341561126157600080fd5b61078d600160a060020a03600435811690602435166126a2565b341561128657600080fd5b61078d600460e481600760e06040519081016040529190828260e080828437820191505050505091908060e001906007806020026040519081016040529190828260e08082843750939560ff8635811696602080820135831697506040808301359093169650929450608081019350606001358401808301929035918291601f83018190048102019051908101604052818152929190602084018383808284378201915050505050509190803590602001908201803590602001908080601f01602080910402602001604051908101604052818152929190602084018383808284378201915050505050509190803590602001908201803590602001908080601f0160208091040260200160405190810160405281815292919060208401838380828437509496506126cb95505050505050565b60408051908101604052601781527f50726f6a6563742057797665726e2045786368616e6765000000000000000000602082015281565b60006113fb6144b2565b6114036144b2565b6000610280604051908101604052808e51600160a060020a031681526020018e60016020020151600160a060020a0316815260200160408f0151600160a060020a031681526020018d5181526020018d60016020020151815260200160608f0151600160a060020a031681526020018c5160ff16600181111561148257fe5b600181111561148d57fe5b81526020018c6001602002015160ff1660028111156114a857fe5b60028111156114b357fe5b815260200160808f0151600160a060020a0316815260200160408d015160ff1660018111156114de57fe5b60018111156114e957fe5b8152602081018c9052604081018a905260600160a08f0151600160a060020a031681526020810188905260400160c08f0151600160a060020a0316815260200160408e0151815260200160608e0151815260200160808e0151815260200160a08e0151815260200160c08e0151905292506102806040519081016040528060e08f0151600160a060020a031681526020016101008f0151600160a060020a031681526020016101208f0151600160a060020a0316815260200160e08e015181526020016101008e015181526020016101408f0151600160a060020a0316815260200160608d015160ff1660018111156115de57fe5b60018111156115e957fe5b815260200160808d015160ff16600281111561160157fe5b600281111561160c57fe5b81526020016101608f0151600160a060020a0316815260200160a08d015160ff16600181111561163857fe5b600181111561164357fe5b8152602081018b9052604081018990526060016101808f0151600160a060020a03168152602081018790526040016101a08f0151600160a060020a031681526020016101208e015181526020016101408e015181526020016101608e015181526020016101808e015181526020016101a08e015190529150600460006116c8846127ee565b60001916600019168152602001908152602001600020905061170d838383604080519081016040528154600160a060020a0316815260019091015460208201526128b1565b9d9c50505050505050505050505050565b6117266144b2565b610280604051908101604052808b51600160a060020a031681526020018b60016020020151600160a060020a0316815260200160408c0151600160a060020a031681526020018a5181526020018a60016020020151815260200160608c0151600160a060020a0316815260200189600181111561179f57fe5b81526020018860028111156117b057fe5b815260200160808c0151600160a060020a031681526020018760018111156117d457fe5b8152602081018790526040810186905260600160a08c0151600160a060020a031681526020810185905260400160c08c0151600160a060020a0316815260200160408b0151815260200160608b0151815260200160808b0151815260200160a08b0151815260200160c08b01519052905061184f8183612a74565b50505050505050505050565b61186361456a565b61186e848484612dc0565b50825b9392505050565b6119bc610280604051908101604052808d51600160a060020a031681526020018d60016020020151600160a060020a0316815260200160408e0151600160a060020a031681526020018c5181526020018c60016020020151815260200160608e0151600160a060020a031681526020018b60018111156118f457fe5b81526020018a600281111561190557fe5b815260200160808e0151600160a060020a0316815260200189600181111561192957fe5b8152602081018990526040810188905260600160a08e0151600160a060020a031681526020810187905260400160c08e0151600160a060020a0316815260200160408d0151815260200160608d0151815260200160808d0151815260200160a08d0151815260200160c08d015190526060604051908101604090815260ff87168252602082018690528101849052612fca565b5050505050505050505050565b6119d4338383613049565b81600160a060020a03166323b872dd33308460006040516020015260405160e060020a63ffffffff8616028152600160a060020a0393841660048201529190921660248201526044810191909152606401602060405180830381600087803b1515611a3e57600080fd5b6102c65a03f11515611a4f57600080fd5b505050604051805190501515611a6457600080fd5b5050565b600160a060020a03918216600090815260016020908152604080832093909416825291909152205490565b60046020526000908152604090208054600190910154600160a060020a039091169082565b6000611ac5858486612dc0565b611ad0838684612dc0565b611ada85846130dd565b90505b949350505050565b6000611aef6144b2565b611af76144b2565b6000610280604051908101604052808e51600160a060020a031681526020018e60016020020151600160a060020a0316815260200160408f0151600160a060020a031681526020018d5181526020018d60016020020151815260200160608f0151600160a060020a031681526020018c5160ff166001811115611b7657fe5b6001811115611b8157fe5b81526020018c6001602002015160ff166002811115611b9c57fe5b6002811115611ba757fe5b815260200160808f0151600160a060020a0316815260200160408d015160ff166001811115611bd257fe5b6001811115611bdd57fe5b8152602081018c9052604081018a905260600160a08f0151600160a060020a031681526020810188905260400160c08f0151600160a060020a0316815260200160408e0151815260200160608e0151815260200160808e0151815260200160a08e0151815260200160c08e0151905292506102806040519081016040528060e08f0151600160a060020a031681526020016101008f0151600160a060020a031681526020016101208f0151600160a060020a0316815260200160e08e015181526020016101008e015181526020016101408f0151600160a060020a0316815260200160608d015160ff166001811115611cd257fe5b6001811115611cdd57fe5b815260200160808d015160ff166002811115611cf557fe5b6002811115611d0057fe5b81526020016101608f0151600160a060020a0316815260200160a08d015160ff166001811115611d2c57fe5b6001811115611d3757fe5b8152602081018b9052604081018990526060016101808f0151600160a060020a03168152602081018790526040016101a08f0151600160a060020a031681526020016101208e015181526020016101408e015181526020016101608e015181526020016101808e015181526020016101a08e01519052915060046000611dbc846127ee565b60001916600019168152602001908152602001600020905061170d838383604080519081016040528154600160a060020a031681526001909101546020820152613173565b600160a060020a03338116600081815260208181526040808320948816808452948252808320549383526001825280832094835293905291822054611e469190613207565b905080831115611e5557600080fd5b611e60338585613219565b83600160a060020a031663a9059cbb838560006040516020015260405160e060020a63ffffffff8516028152600160a060020a0390921660048301526024820152604401602060405180830381600087803b1515611ebd57600080fd5b6102c65a03f11515611ece57600080fd5b5050506040518051505050505050565b6000611ee86144b2565b610280604051908101604052808e51600160a060020a031681526020018e60016020020151600160a060020a0316815260200160408f0151600160a060020a031681526020018d5181526020018d60016020020151815260200160608f0151600160a060020a031681526020018c6001811115611f6157fe5b81526020018b6002811115611f7257fe5b815260200160808f0151600160a060020a031681526020018a6001811115611f9657fe5b8152602081018a90526040810189905260600160a08f0151600160a060020a031681526020810188905260400160c08f0151600160a060020a0316815260200160408e0151815260200160608e0151815260200160808e0151815260200160a08e0151815260200160c08e01519052905061170d612013826127ee565b826060604051908101604090815260ff8a1682526020820189905281018790526133cc565b600354600160a060020a031681565b60056020526000908152604090205460ff1681565b6002546101009004600160a060020a031681565b600060208181529281526040808220909352908152205481565b600160209081526000928352604080842090915290825290205481565b600160a060020a038083166000818152602081815260408083209486168084529482528083205493835260018252808320948352939052918220546118719190613207565b6119bc610280604051908101604052808d51600160a060020a031681526020018d60016020020151600160a060020a0316815260200160408e0151600160a060020a031681526020018c5181526020018c60016020020151815260200160608e0151600160a060020a031681526020018b5160ff16600181111561216c57fe5b600181111561217757fe5b81526020018b6001602002015160ff16600281111561219257fe5b600281111561219d57fe5b815260200160808e0151600160a060020a0316815260200160408c015160ff1660018111156121c857fe5b60018111156121d357fe5b8152602081018b90526040810189905260600160a08e0151600160a060020a031681526020810187905260400160c08e0151600160a060020a0316815260200160408d0151815260200160608d0151815260200160808d0151815260200160a08d0151815260200160c08d01519052606060405190810160405280855160ff1681526020018451815260200184600160200201519052610280604051908101604052808f60076020020151600160a060020a031681526020018f60086020020151600160a060020a031681526020018f60096020020151600160a060020a0316815260200160e08f015181526020016101008f015181526020018f600a6020020151600160a060020a0316815260200160608e015160ff1660018111156122f657fe5b600181111561230157fe5b815260200160808e015160ff16600281111561231957fe5b600281111561232457fe5b81526020018f600b6020020151600160a060020a0316815260200160a08e015160ff16600181111561235257fe5b600181111561235d57fe5b8152602081018c9052604081018a90526060018f600c6020020151600160a060020a03168152602081018890526040018f600d6020020151600160a060020a031681526020016101208f015181526020016101408f015181526020016101608f015181526020016101808f015181526020016101a08f01519052606060405190810160405280602088015160ff1681526020016040870151815260200160608701519052613520565b60066020526000908152604090205460ff1681565b612560610280604051908101604052808e51600160a060020a031681526020018e60016020020151600160a060020a0316815260200160408f0151600160a060020a031681526020018d5181526020018d60016020020151815260200160608f0151600160a060020a031681526020018c600181111561249757fe5b81526020018b60028111156124a857fe5b815260200160808f0151600160a060020a031681526020018a60018111156124cc57fe5b8152602081018a90526040810189905260600160a08f0151600160a060020a031681526020810188905260400160c08f0151600160a060020a0316815260200160408e0151815260200160608e0151815260200160808e0151815260200160a08e0151815260200160c08e015190526060604051908101604090815260ff88168252602082018790528101859052836138ce565b505050505050505050505050565b6000612695610280604051908101604052808b51600160a060020a031681526020018b60016020020151600160a060020a0316815260200160408c0151600160a060020a031681526020018a5181526020018a60016020020151815260200160608c0151600160a060020a031681526020018960018111156125ec57fe5b81526020018860028111156125fd57fe5b815260200160808c0151600160a060020a0316815260200187600181111561262157fe5b8152602081018790526040810186905260600160a08c0151600160a060020a031681526020810185905260400160c08c0151600160a060020a0316815260200160408b0151815260200160608b0151815260200160808b0151815260200160a08b0151815260200160c08b01519052613a2c565b9998505050505050505050565b600160a060020a0391821660009081526020818152604080832093909416825291909152205490565b6000612695610280604051908101604052808b51600160a060020a031681526020018b60016020020151600160a060020a0316815260200160408c0151600160a060020a031681526020018a5181526020018a60016020020151815260200160608c0151600160a060020a0316815260200189600181111561274957fe5b815260200188600281111561275a57fe5b815260200160808c0151600160a060020a0316815260200187600181111561277e57fe5b8152602081018790526040810186905260600160a08c0151600160a060020a031681526020810185905260400160c08c0151600160a060020a0316815260200160408b0151815260200160608b0151815260200160808b0151815260200160a08b0151815260200160c08b015190525b60006127f861456a565b600060408051908101604052601c81527f19457468657265756d205369676e6564204d6573736167653a0a333200000000602082015291508161283a85613a9a565b61284386613c51565b6040518084805190602001908083835b602083106128725780518252601f199092019160209182019101612853565b6001836020036101000a038019825116818451161790925250505091909101938452505060208201526040908101915051908190039020949350505050565b6000808460c0015160018111156128c457fe5b1480156128e0575060018360c0015160018111156128de57fe5b145b80156129075750826101c00151600160a060020a0316846101c00151600160a060020a0316145b8015612943575060006040840151600160a060020a0316148061294357508360200151600160a060020a03168360400151600160a060020a0316145b801561297f575060006040850151600160a060020a0316148061297f57508260200151600160a060020a03168460400151600160a060020a0316145b80156129e25750600060a0840151600160a060020a03161480156129b15750600060a0850151600160a060020a031614155b806129e25750600060a0840151600160a060020a0316141580156129e25750600060a0850151600160a060020a0316145b8015612a095750826101000151600160a060020a0316846101000151600160a060020a0316145b8015612a3457508261012001516001811115612a2157fe5b8461012001516001811115612a3257fe5b145b8015612a545750612a548460e00151846020015186610240015185613d50565b8015611add5750611add8360e00151856020015185610240015185613d50565b60008260200151600160a060020a031633600160a060020a0316141515612a9a57600080fd5b612aa3836127ee565b60008181526006602052604090205490915060ff1615612ac257600080fd5b6000818152600660205260409020805460ff1916600117905560a0830151600160a060020a03168360200151600160a060020a0316827faee3673166cb20f9607e8257375d5244a4f82611eb34a8319dd0b527e89460bf86518760400151886060015189608001518a60c001518b60e001518c61010001518d61012001518e6101400151604051600160a060020a03808b16825289166020820152604081018890526060810187905260808101866001811115612b7b57fe5b60ff168152602001856002811115612b8f57fe5b60ff168152600160a060020a0385166020820152604001836001811115612bb257fe5b60ff16815260200180602001828103825283818151815260200191508051906020019080838360005b83811015612bf3578082015183820152602001612bdb565b50505050905090810190601f168015612c205780820380516001836020036101000a031916815260200191505b509a505050505050505050505060405180910390a4807f6b227a8fe336bb14cfe503246633ca4550cd8065f1933a5ffaf83a955eaa40ed610160850151856101800151866101a00151876101c00151886101e001518961020001518a61022001518b61024001518c61026001518c604051600160a060020a03808b166020830152881660608201526080810187905260a0810186905260c0810185905260e0810184905261010081018390528115156101208201526101408082528190604082019082018d818151815260200191508051906020019080838360005b83811015612d14578082015183820152602001612cfc565b50505050905090810190601f168015612d415780820380516001836020036101000a031916815260200191505b5083810382528b818151815260200191508051906020019080838360005b83811015612d77578082015183820152602001612d5f565b50505050905090810190601f168015612da45780820380516001836020036101000a031916815260200191505b509c5050505050505050505050505060405180910390a2505050565b612dc861457c565b60008061010060405190810160409081527f800000000000000000000000000000000000000000000000000000000000000082527f400000000000000000000000000000000000000000000000000000000000000060208301527f2000000000000000000000000000000000000000000000000000000000000000908201527f100000000000000000000000000000000000000000000000000000000000000060608201527f080000000000000000000000000000000000000000000000000000000000000060808201527f040000000000000000000000000000000000000000000000000000000000000060a08201527f020000000000000000000000000000000000000000000000000000000000000060c082015260f860020a60e082015292508451865114612ef957600080fd5b60088651811515612f0657fe5b0484511015612f1457600080fd5b600091505b8551821015612fc257826008830660088110612f3157fe5b6020020151846008840481518110612f4557fe5b016020015160f860020a900460f860020a0216600160f860020a031916600060f860020a02149050801515612fb757848281518110612f8057fe5b016020015160f860020a900460f860020a02868381518110612f9e57fe5b906020010190600160f860020a031916908160001a9053505b600190910190612f19565b505050505050565b6000612fd68383613da1565b90508260200151600160a060020a031633600160a060020a0316141515612ffc57600080fd5b60008181526005602052604090819020805460ff1916600117905581907f5152abf959f6564662358c2e52b702259b78bac5ee7842a0f01937e670efcc7d905160405180910390a2505050565b600160a060020a03808416600090815260208181526040808320938616835292905220546130779082613dc5565b600160a060020a0380851660008181526020818152604080832094881680845294909152908190209390935590917f4e45da441832cf53bdaa69235704fc0575e68210f459ee1562911024b12967d59084905190815260200160405180910390a3505050565b60008082518451146130f2576000915061316c565b5060005b83518110156131675782818151811061310b57fe5b016020015160f860020a900460f860020a02600160f860020a03191684828151811061313357fe5b016020015160f860020a900460f860020a02600160f860020a03191614151561315f576000915061316c565b6001016130f6565b600191505b5092915050565b60008060006131a38560c001518660e00151876101e001518861020001518961022001518a61024001518a613dd4565b91506131d08660c001518760e00151886101e001518961020001518a61022001518b61024001518a613dd4565b9050818110156131df57600080fd5b600060a0860151600160a060020a031614156131fb57806131fd565b815b9695505050505050565b60008282111561321357fe5b50900390565b600160a060020a03808416600081815260208181526040808320948716808452948252808320549383526001825280832094835293905291822054829161325f91613207565b91508282106132bf57600160a060020a03808616600090815260208181526040808320938816835292905220546132969084613207565b600160a060020a038087166000908152602081815260408083209389168352929052205561337e565b6132c98383613207565b600160a060020a038087166000908152602081815260408083209389168084529390915280822082905592935090916323b872dd91889130918691516020015260405160e060020a63ffffffff8616028152600160a060020a0393841660048201529190921660248201526044810191909152606401602060405180830381600087803b151561335857600080fd5b6102c65a03f1151561336957600080fd5b50505060405180519050151561337e57600080fd5b83600160a060020a031685600160a060020a03167f9407bd81f01ad8f5ae4a2487b63d3d1b1947257c2dcdda3ea183dc8e6965cc6e8560405190815260200160405180910390a35050505050565b6000600160a060020a0330168351600160a060020a0316146133f057506000611871565b60008481526005602052604090205460ff161561340f57506000611871565b6134278360c001518460e00151856102400151613e82565b151561343557506000611871565b8260200151600160a060020a031633600160a060020a0316141561345b57506001611871565b60008481526006602052604090205460ff161561347a57506001611871565b8260200151600160a060020a03166001858451856020015186604001516040516000815260200160405260006040516020015260405193845260ff90921660208085019190915260408085019290925260608401929092526080909201915160208103908084039060008661646e5a03f115156134f657600080fd5b505060206040510351600160a060020a0316141561351657506001611871565b5060009392505050565b60008061352b6145a5565b60025460009060ff161561353e57600080fd5b6002805460ff191660011790556135558888613da1565b93506135618686613da1565b925060018660e00151600281111561357557fe5b14156135af57600083815260046020526040908190209080519081016040528154600160a060020a03168152600190910154602082015291505b6135ba8887846128b1565b15156135c557600080fd5b60008861016001515111156135ee576135ee8861014001518761014001518a6101600151612dc0565b600086610160015151111561361757613617866101400151896101400151886101600151612dc0565b61362b8861014001518761014001516130dd565b151561363657600080fd5b600354600160a060020a031663c4552791602088015160006040516020015260405160e060020a63ffffffff8416028152600160a060020a039091166004820152602401602060405180830381600087803b151561369357600080fd5b6102c65a03f115156136a457600080fd5b5050506040518051915050600160a060020a03811615156136c457600080fd5b6000848152600560205260408082208054600160ff19918216811790925586845291909220805490911690911790556136fe888784613ed1565b80600160a060020a0316631b0f7ba98761010001518861012001518961014001516000604051602001526040518463ffffffff1660e060020a0281526004018084600160a060020a0316600160a060020a0316815260200183600181111561376257fe5b60ff16815260200180602001828103825283818151815260200191508051906020019080838360005b838110156137a357808201518382015260200161378b565b50505050905090810190601f1680156137d05780820380516001836020036101000a031916815260200191505b50945050505050602060405180830381600087803b15156137f057600080fd5b6102c65a03f1151561380157600080fd5b50505060405180519050151561381657600080fd5b6000610180890151600160a060020a031614613851576138468861018001518761014001518a6101a00151614053565b151561385157600080fd5b6000610180870151600160a060020a03161461388c57613881866101800151876101400151886101a00151614053565b151561388c57600080fd5b82847f0ac43ae443462c4ede260ad38899e594fa78238f3252539851b7b4395f3b043e60405160405180910390a350506002805460ff19169055505050505050565b60008060006138dd8686613da1565b6000818152600460205260409020909350915061393760c08701518760e00151886101e001518961020001518a610240015187604080519081016040528154600160a060020a031681526001909101546020820152614158565b90508084101561394657600080fd5b604080519081016040908152600160a060020a0333168252602080830187905260008681526004909152208151815473ffffffffffffffffffffffffffffffffffffffff1916600160a060020a03919091161781556020820151600190910155508154600160a060020a0316156139d65781546139d690600160a060020a03166101c088015184600101546141c2565b6139e633876101c0015186614274565b600160a060020a033316837fff38b86de5d69f2775369319139dcab1f44807defd694708dd58e5d96ecd7c158660405190815260200160405180910390a3505050505050565b6000806000613a3a846127ee565b60008181526004602052604090209092509050611add60c08501518560e00151866101e0015187610200015188610220015189610240015187604080519081016040528154600160a060020a031681526001909101546020820152613dd4565b6000815182602001518360400151846060015185608001518660a001518760c001518860e001518961010001518a61012001518b61014001518c61016001516040516c01000000000000000000000000600160a060020a03808f16820283528d8116820260148401528c811682026028840152603c83018c9052605c83018b9052891602607c82015260908101876001811115613b3357fe5b60ff1660f860020a028152600101866002811115613b4d57fe5b60ff1660f860020a02815260010185600160a060020a0316600160a060020a03166c01000000000000000000000000028152601401846001811115613b8e57fe5b60ff1660f860020a02815260010183805190602001908083835b60208310613bc75780518252601f199092019160209182019101613ba8565b6001836020036101000a038019825116818451161790925250505091909101905082805190602001908083835b60208310613c135780518252601f199092019160209182019101613bf4565b6001836020036101000a0380198251168184511617909252505050919091019d5060409c505050505050505050505050505180910390209050919050565b6000816101800151826101a00151836101c00151846101e001518561020001518661022001518761024001518861026001516040516c01000000000000000000000000600160a060020a038a160281526014810188805190602001908083835b60208310613cd05780518252601f199092019160209182019101613cb1565b6001836020036101000a03801982511681845116808217855250505050505090500187600160a060020a0316600160a060020a03166c010000000000000000000000000281526014018681526020018581526020018481526020018381526020018281526020019850505050505050505060405180910390209050919050565b60006001856002811115613d6057fe5b1415613d8f578151600160a060020a031684600160a060020a0316148015613d885750824210155b9050611add565b821580613d8857508242109050611add565b600080613dad846127ee565b9050613dba8185856133cc565b151561187157600080fd5b60008282018381101561187157fe5b60008080886002811115613de457fe5b1415613df257869150613e76565b6001886002811115613e0057fe5b1415613e2a5760008351600160a060020a03161415613e1e57600080fd5b82602001519150613e76565b6002886002811115613e3857fe5b1415610124578484038542038702811515613e4f57fe5b0490506001896001811115613e6057fe5b1415613e70578087039150613e76565b80870191505b50979650505050505050565b60006001836002811115613e9257fe5b141580613eaa57506001846001811115613ea857fe5b145b8015611add57506000836002811115613ebf57fe5b1480611add5750506000901192915050565b6000613ede848484613173565b9050600060a0840151600160a060020a031614613f3d57836080015183608001511115613f0a57600080fd5b613f2183602001518460a00151856060015161440d565b613f3884602001518460a00151856080015161440d565b613f80565b826080015184608001511115613f5257600080fd5b613f6984602001518560a00151866060015161440d565b613f8083602001518560a00151866080015161440d565b60008251600160a060020a031614613fa757613fa78251846101c0015184602001516141c2565b600081111561404d57826101c00151600160a060020a03166323b872dd856020015185602001518460006040516020015260405160e060020a63ffffffff8616028152600160a060020a0393841660048201529190921660248201526044810191909152606401602060405180830381600087803b151561402757600080fd5b6102c65a03f1151561403857600080fd5b50505060405180519050151561404d57600080fd5b50505050565b600061405d61456a565b600080600085518751016040518059106140745750595b818152601f19601f83011681016020016040529050935083519250600091505b85518210156140ea578582815181106140a957fe5b016020015160f860020a900460f860020a028483815181106140c757fe5b906020010190600160f860020a031916908160001a905350600190910190614094565b5060005b86518110156141445786818151811061410357fe5b016020015160f860020a900460f860020a0284875183018151811061412457fe5b906020010190600160f860020a031916908160001a9053506001016140ee565b60008484868b5afa98975050505050505050565b6000600187600181111561416857fe5b1480156141805750600186600281111561417e57fe5b145b801561418b57508242105b151561419657600080fd5b60008251600160a060020a031614156141b05750836131fd565b83826020015101979650505050505050565b600160a060020a038084166000908152600160209081526040808320938616835292905220546141f29082613207565b600160a060020a038481166000908152600160209081526040808320938716835292905290812082905590101561422857600080fd5b81600160a060020a031683600160a060020a03167fe6e0ef9cd056ca98561ca60e347ada61e1ede2f1142a078951b7a52e1e508e608360405190815260200160405180910390a3505050565b600160a060020a038084166000908152600160209081526040808320938616835292905290812054819081906142aa9085613dc5565b600160a060020a038088166000818152600160209081526040808320948b16808452948252808320869055928252818152828220938252929092529020549093509150818311156143be576142ff8383613207565b905061430b8282613dc5565b600160a060020a03808816600090815260208181526040808320938a16808452939091528082209390935590916323b872dd91899130918691516020015260405160e060020a63ffffffff8616028152600160a060020a0393841660048201529190921660248201526044810191909152606401602060405180830381600087803b151561439857600080fd5b6102c65a03f115156143a957600080fd5b5050506040518051905015156143be57600080fd5b84600160a060020a031686600160a060020a03167f989eaa915cbb416ea3d6f9a63b1a3de51770c7674b11fe21ecdf76b4e1d139108660405190815260200160405180910390a3505050505050565b60008111156144ad576002546101009004600160a060020a03166323b872dd84848460006040516020015260405160e060020a63ffffffff8616028152600160a060020a0393841660048201529190921660248201526044810191909152606401602060405180830381600087803b151561448757600080fd5b6102c65a03f1151561449857600080fd5b5050506040518051905015156144ad57600080fd5b505050565b6102806040519081016040908152600080835260208301819052908201819052606082018190526080820181905260a0820181905260c0820181905260e082018190526101008201819052610120820152610140810161451061456a565b815260200161451d61456a565b81526000602082015260400161453161456a565b81526020016000600160a060020a0316815260200160008152602001600081526020016000815260200160008152602001600081525090565b60206040519081016040526000815290565b6101006040519081016040526008815b60008152600019909101906020018161458c5790505090565b6040805190810160405260008082526020820152905600a165627a7a723058205824272dbf04fbbe7d3aa31ae8bd09f20e3da488b36369a5bff575e1be1a0e7d0029",
  "source": "/*\n\n  << Project Wyvern Exchange >>\n\n*/\n\npragma solidity 0.4.18;\n\nimport \"./exchange/Exchange.sol\";\n\n/**\n * @title WyvernExchange\n * @author Project Wyvern Developers\n */\ncontract WyvernExchange is Exchange {\n\n    string public constant name = \"Project Wyvern Exchange\";\n\n    function WyvernExchange (ProxyRegistry registryAddress, ERC20 tokenAddress) public {\n        exchangeToken = tokenAddress;\n        registry = registryAddress;\n    }\n\n}\n",
  "sourcePath": "/home/cwgoes/working/crypto/wyvern/wyvern-ethereum/contracts/WyvernExchange.sol",
  "compiler": {
    "name": "solc",
    "version": "0.4.18+commit.9cf6e910.Emscripten.clang"
  },
  "schemaVersion": "1.0.1",
  "updatedAt": "2018-01-31T21:54:51.982Z"
}