{
  "contractName": "WyvernDAO",
  "abi": [
    {
      "constant": true,
      "inputs": [
        {
          "name": "",
          "type": "uint256"
        }
      ],
      "name": "proposals",
      "outputs": [
        {
          "name": "recipient",
          "type": "address"
        },
        {
          "name": "amount",
          "type": "uint256"
        },
        {
          "name": "metadataHash",
          "type": "bytes"
        },
        {
          "name": "votingDeadline",
          "type": "uint256"
        },
        {
          "name": "executed",
          "type": "bool"
        },
        {
          "name": "proposalPassed",
          "type": "bool"
        },
        {
          "name": "numberOfVotes",
          "type": "uint256"
        },
        {
          "name": "proposalHash",
          "type": "bytes32"
        }
      ],
      "payable": false,
      "stateMutability": "view",
      "type": "function"
    },
    {
      "constant": true,
      "inputs": [
        {
          "name": "",
          "type": "address"
        }
      ],
      "name": "delegatesByDelegator",
      "outputs": [
        {
          "name": "",
          "type": "address"
        }
      ],
      "payable": false,
      "stateMutability": "view",
      "type": "function"
    },
    {
      "constant": true,
      "inputs": [],
      "name": "name",
      "outputs": [
        {
          "name": "",
          "type": "string"
        }
      ],
      "payable": false,
      "stateMutability": "view",
      "type": "function"
    },
    {
      "constant": true,
      "inputs": [],
      "name": "REQUIRED_SHARES_TO_BE_BOARD_MEMBER",
      "outputs": [
        {
          "name": "",
          "type": "uint256"
        }
      ],
      "payable": false,
      "stateMutability": "view",
      "type": "function"
    },
    {
      "constant": true,
      "inputs": [
        {
          "name": "",
          "type": "address"
        }
      ],
      "name": "lockedDelegatingTokens",
      "outputs": [
        {
          "name": "",
          "type": "uint256"
        }
      ],
      "payable": false,
      "stateMutability": "view",
      "type": "function"
    },
    {
      "constant": false,
      "inputs": [
        {
          "name": "minimumSharesToPassAVote",
          "type": "uint256"
        },
        {
          "name": "minutesForDebate",
          "type": "uint256"
        }
      ],
      "name": "changeVotingRules",
      "outputs": [],
      "payable": false,
      "stateMutability": "nonpayable",
      "type": "function"
    },
    {
      "constant": true,
      "inputs": [
        {
          "name": "proposalNumber",
          "type": "uint256"
        }
      ],
      "name": "countVotes",
      "outputs": [
        {
          "name": "yea",
          "type": "uint256"
        },
        {
          "name": "nay",
          "type": "uint256"
        },
        {
          "name": "quorum",
          "type": "uint256"
        }
      ],
      "payable": false,
      "stateMutability": "view",
      "type": "function"
    },
    {
      "constant": false,
      "inputs": [
        {
          "name": "proposalNumber",
          "type": "uint256"
        },
        {
          "name": "transactionBytecode",
          "type": "bytes"
        }
      ],
      "name": "executeProposal",
      "outputs": [],
      "payable": false,
      "stateMutability": "nonpayable",
      "type": "function"
    },
    {
      "constant": true,
      "inputs": [],
      "name": "sharesTokenAddress",
      "outputs": [
        {
          "name": "",
          "type": "address"
        }
      ],
      "payable": false,
      "stateMutability": "view",
      "type": "function"
    },
    {
      "constant": true,
      "inputs": [
        {
          "name": "",
          "type": "address"
        }
      ],
      "name": "delegatedAmountsByDelegate",
      "outputs": [
        {
          "name": "",
          "type": "uint256"
        }
      ],
      "payable": false,
      "stateMutability": "view",
      "type": "function"
    },
    {
      "constant": true,
      "inputs": [],
      "name": "numProposals",
      "outputs": [
        {
          "name": "",
          "type": "uint256"
        }
      ],
      "payable": false,
      "stateMutability": "view",
      "type": "function"
    },
    {
      "constant": true,
      "inputs": [],
      "name": "TOKEN_DECIMALS",
      "outputs": [
        {
          "name": "",
          "type": "uint256"
        }
      ],
      "payable": false,
      "stateMutability": "view",
      "type": "function"
    },
    {
      "constant": false,
      "inputs": [
        {
          "name": "tokensToLock",
          "type": "uint256"
        },
        {
          "name": "delegate",
          "type": "address"
        }
      ],
      "name": "setDelegateAndLockTokens",
      "outputs": [],
      "payable": false,
      "stateMutability": "nonpayable",
      "type": "function"
    },
    {
      "constant": false,
      "inputs": [],
      "name": "clearDelegateAndUnlockTokens",
      "outputs": [
        {
          "name": "lockedTokens",
          "type": "uint256"
        }
      ],
      "payable": false,
      "stateMutability": "nonpayable",
      "type": "function"
    },
    {
      "constant": true,
      "inputs": [],
      "name": "debatingPeriodInMinutes",
      "outputs": [
        {
          "name": "",
          "type": "uint256"
        }
      ],
      "payable": false,
      "stateMutability": "view",
      "type": "function"
    },
    {
      "constant": true,
      "inputs": [],
      "name": "minimumQuorum",
      "outputs": [
        {
          "name": "",
          "type": "uint256"
        }
      ],
      "payable": false,
      "stateMutability": "view",
      "type": "function"
    },
    {
      "constant": false,
      "inputs": [
        {
          "name": "_from",
          "type": "address"
        },
        {
          "name": "_value",
          "type": "uint256"
        },
        {
          "name": "_token",
          "type": "address"
        },
        {
          "name": "_extraData",
          "type": "bytes"
        }
      ],
      "name": "receiveApproval",
      "outputs": [],
      "payable": false,
      "stateMutability": "nonpayable",
      "type": "function"
    },
    {
      "constant": true,
      "inputs": [],
      "name": "requiredSharesToBeBoardMember",
      "outputs": [
        {
          "name": "",
          "type": "uint256"
        }
      ],
      "payable": false,
      "stateMutability": "view",
      "type": "function"
    },
    {
      "constant": false,
      "inputs": [
        {
          "name": "proposalNumber",
          "type": "uint256"
        },
        {
          "name": "supportsProposal",
          "type": "bool"
        }
      ],
      "name": "vote",
      "outputs": [
        {
          "name": "voteID",
          "type": "uint256"
        }
      ],
      "payable": false,
      "stateMutability": "nonpayable",
      "type": "function"
    },
    {
      "constant": false,
      "inputs": [
        {
          "name": "beneficiary",
          "type": "address"
        },
        {
          "name": "weiAmount",
          "type": "uint256"
        },
        {
          "name": "jobMetadataHash",
          "type": "bytes"
        },
        {
          "name": "transactionBytecode",
          "type": "bytes"
        }
      ],
      "name": "newProposal",
      "outputs": [
        {
          "name": "proposalID",
          "type": "uint256"
        }
      ],
      "payable": false,
      "stateMutability": "nonpayable",
      "type": "function"
    },
    {
      "constant": true,
      "inputs": [
        {
          "name": "proposalNumber",
          "type": "uint256"
        },
        {
          "name": "beneficiary",
          "type": "address"
        },
        {
          "name": "weiAmount",
          "type": "uint256"
        },
        {
          "name": "transactionBytecode",
          "type": "bytes"
        }
      ],
      "name": "checkProposalCode",
      "outputs": [
        {
          "name": "codeChecksOut",
          "type": "bool"
        }
      ],
      "payable": false,
      "stateMutability": "view",
      "type": "function"
    },
    {
      "constant": true,
      "inputs": [],
      "name": "totalLockedTokens",
      "outputs": [
        {
          "name": "",
          "type": "uint256"
        }
      ],
      "payable": false,
      "stateMutability": "view",
      "type": "function"
    },
    {
      "inputs": [
        {
          "name": "sharesAddress",
          "type": "address"
        },
        {
          "name": "minimumSharesToPassAVote",
          "type": "uint256"
        },
        {
          "name": "minutesForDebate",
          "type": "uint256"
        }
      ],
      "payable": false,
      "stateMutability": "nonpayable",
      "type": "constructor"
    },
    {
      "payable": true,
      "stateMutability": "payable",
      "type": "fallback"
    },
    {
      "anonymous": false,
      "inputs": [
        {
          "indexed": false,
          "name": "proposalID",
          "type": "uint256"
        },
        {
          "indexed": false,
          "name": "recipient",
          "type": "address"
        },
        {
          "indexed": false,
          "name": "amount",
          "type": "uint256"
        },
        {
          "indexed": false,
          "name": "metadataHash",
          "type": "bytes"
        }
      ],
      "name": "ProposalAdded",
      "type": "event"
    },
    {
      "anonymous": false,
      "inputs": [
        {
          "indexed": false,
          "name": "proposalID",
          "type": "uint256"
        },
        {
          "indexed": false,
          "name": "position",
          "type": "bool"
        },
        {
          "indexed": false,
          "name": "voter",
          "type": "address"
        }
      ],
      "name": "Voted",
      "type": "event"
    },
    {
      "anonymous": false,
      "inputs": [
        {
          "indexed": false,
          "name": "proposalID",
          "type": "uint256"
        },
        {
          "indexed": false,
          "name": "result",
          "type": "uint256"
        },
        {
          "indexed": false,
          "name": "quorum",
          "type": "uint256"
        },
        {
          "indexed": false,
          "name": "active",
          "type": "bool"
        }
      ],
      "name": "ProposalTallied",
      "type": "event"
    },
    {
      "anonymous": false,
      "inputs": [
        {
          "indexed": false,
          "name": "newMinimumQuorum",
          "type": "uint256"
        },
        {
          "indexed": false,
          "name": "newDebatingPeriodInMinutes",
          "type": "uint256"
        },
        {
          "indexed": false,
          "name": "newSharesTokenAddress",
          "type": "address"
        }
      ],
      "name": "ChangeOfRules",
      "type": "event"
    },
    {
      "anonymous": false,
      "inputs": [
        {
          "indexed": true,
          "name": "delegator",
          "type": "address"
        },
        {
          "indexed": false,
          "name": "numberOfTokens",
          "type": "uint256"
        },
        {
          "indexed": true,
          "name": "delegate",
          "type": "address"
        }
      ],
      "name": "TokensDelegated",
      "type": "event"
    },
    {
      "anonymous": false,
      "inputs": [
        {
          "indexed": true,
          "name": "delegator",
          "type": "address"
        },
        {
          "indexed": false,
          "name": "numberOfTokens",
          "type": "uint256"
        },
        {
          "indexed": true,
          "name": "delegate",
          "type": "address"
        }
      ],
      "name": "TokensUndelegated",
      "type": "event"
    },
    {
      "anonymous": false,
      "inputs": [
        {
          "indexed": false,
          "name": "sender",
          "type": "address"
        },
        {
          "indexed": false,
          "name": "amount",
          "type": "uint256"
        }
      ],
      "name": "ReceivedEther",
      "type": "event"
    },
    {
      "anonymous": false,
      "inputs": [
        {
          "indexed": true,
          "name": "_from",
          "type": "address"
        },
        {
          "indexed": false,
          "name": "_value",
          "type": "uint256"
        },
        {
          "indexed": false,
          "name": "_token",
          "type": "address"
        },
        {
          "indexed": false,
          "name": "_extraData",
          "type": "bytes"
        }
      ],
      "name": "ReceivedTokens",
      "type": "event"
    }
  ],
  "bytecode": "0x6060604052341561000f57600080fd5b60405160608061184983398101604052808051919060200180519190602001805160048054600160a060020a03909616600160a060020a0319909616959095179094555050686c6b935b8bbd4000006009556000556001556117d3806100766000396000f30060606040526004361061010e5763ffffffff60e060020a600035041663013cf08b8114610154578063064cc7a71461023457806306fdde031461026f57806306fde169146102f957806313f47f241461031e578063158059e21461033d5780631840f0ca14610358578063237e94921461039257806327ebcf0e146103e85780633fb3ec28146103fb578063400e39491461041a5780635b7f415c1461042d5780635fa7df6b14610440578063645bd4361461046257806369bd3436146104755780638160f0b5146104885780638f4ffcb11461049b578063b94fa03f14610507578063c9d27afe1461051a578063dbc4522814610535578063eceb2945146105dc578063f5c476f914610658575b7fa419615bc8fda4c87663805ee2a3597a6d71c1d476911d9892f340d965bc7bf13334604051600160a060020a03909216825260208201526040908101905180910390a1005b341561015f57600080fd5b61016a60043561066b565b604051600160a060020a03891681526020810188905260608101869052841515608082015283151560a082015260c0810183905260e081018290526101006040820181815288546002600182161584026000190190911604918301829052906101208301908990801561021e5780601f106101f35761010080835404028352916020019161021e565b820191906000526020600020905b81548152906001019060200180831161020157829003601f168201915b5050995050505050505050505060405180910390f35b341561023f57600080fd5b610253600160a060020a03600435166106ca565b604051600160a060020a03909116815260200160405180910390f35b341561027a57600080fd5b6102826106e5565b60405160208082528190810183818151815260200191508051906020019080838360005b838110156102be5780820151838201526020016102a6565b50505050905090810190601f1680156102eb5780820380516001836020036101000a031916815260200191505b509250505060405180910390f35b341561030457600080fd5b61030c61071c565b60405190815260200160405180910390f35b341561032957600080fd5b61030c600160a060020a0360043516610729565b341561034857600080fd5b61035660043560243561073b565b005b341561036357600080fd5b61036e6004356107d3565b60405180848152602001838152602001828152602001935050505060405180910390f35b341561039d57600080fd5b610356600480359060446024803590810190830135806020601f820181900481020160405190810160405281815292919060208401838380828437509496506108fe95505050505050565b34156103f357600080fd5b610253610bc6565b341561040657600080fd5b61030c600160a060020a0360043516610bd5565b341561042557600080fd5b61030c610be7565b341561043857600080fd5b61030c610bed565b341561044b57600080fd5b610356600435600160a060020a0360243516610bf2565b341561046d57600080fd5b61030c610dc6565b341561048057600080fd5b61030c610f2c565b341561049357600080fd5b61030c610f32565b34156104a657600080fd5b61035660048035600160a060020a0390811691602480359260443516919060849060643590810190830135806020601f82018190048102016040519081016040528181529291906020840183838082843750949650610f3895505050505050565b341561051257600080fd5b61030c61108b565b341561052557600080fd5b61030c6004356024351515611091565b341561054057600080fd5b61030c60048035600160a060020a03169060248035919060649060443590810190830135806020601f8201819004810201604051908101604052818152929190602084018383808284378201915050505050509190803590602001908201803590602001908080601f01602080910402602001604051908101604052818152929190602084018383808284375094965061127595505050505050565b34156105e757600080fd5b610644600480359060248035600160a060020a0316916044359160849060643590810190830135806020601f820181900481020160405190810160405281815292919060208401838380828437509496506114eb95505050505050565b604051901515815260200160405180910390f35b341561066357600080fd5b61030c6115a4565b600280548290811061067957fe5b60009182526020909120600990910201805460018201546003830154600484015460058501546006860154600160a060020a039095169650929460020193919260ff80831693610100909304169188565b600560205260009081526040902054600160a060020a031681565b60408051908101604052601281527f50726f6a6563742057797665726e2044414f0000000000000000000000000000602082015281565b686c6b935b8bbd40000081565b60066020526000908152604090205481565b30600160a060020a031633600160a060020a031614151561075b57600080fd5b81151561076757600191505b600082905560018190556004547f68259880819f96f54b67d672fefc666565de06099c91b57a689a42073ba090c99083908390600160a060020a03166040519283526020830191909152600160a060020a03166040808301919091526060909101905180910390a15050565b60008060008060008060006002888154811015156107ed57fe5b90600052602060002090600902019350600096506000955060009450600092505b60078401548310156108f3576007840180548490811061082a57fe5b600091825260208083209091018054600160a060020a03610100909104811680855260079093526040808520546004549397509492909116926370a08231929091516020015260405160e060020a63ffffffff8416028152600160a060020a039091166004820152602401602060405180830381600087803b15156108ae57600080fd5b6102c65a03f115156108bf57600080fd5b5050506040518051845492019687019692505060ff16156108e357958601956108e8565b948501945b82600101925061080e565b505050509193909250565b60008060008060028681548110151561091357fe5b9060005260206000209060090201935083600301544211801561093b5750600484015460ff16155b80156109e0575083546001850154600160a060020a0390911690866040516c01000000000000000000000000600160a060020a038516028152601481018390526034810182805190602001908083835b602083106109aa5780518252601f19909201916020918201910161098b565b6001836020036101000a038019825116818451161790925250505091909101945060409350505050519081900390206006850154145b15156109eb57600080fd5b6109f4866107d3565b9250925092506000548110151515610a0b57600080fd5b81831115610b4d5760048401805460ff19166001908117909155845490850154600160a060020a03909116908660405180828051906020019080838360005b83811015610a62578082015183820152602001610a4a565b50505050905090810190601f168015610a8f5780820380516001836020036101000a031916815260200191505b5091505060006040518083038185876187965a03f1925050501515610ab357600080fd5b600854600454600160a060020a03166370a082313060006040516020015260405160e060020a63ffffffff8416028152600160a060020a039091166004820152602401602060405180830381600087803b1515610b0f57600080fd5b6102c65a03f11515610b2057600080fd5b5050506040518051905010151515610b3757600080fd5b60048401805461ff001916610100179055610b5b565b60048401805461ff00191690555b7f4bdc4ffee1d0e901f1c0270e9917651a82a81a109b5736b546a1b26668c55c0e86838503838760040160019054906101000a900460ff16604051938452602084019290925260408084019190915290151560608301526080909101905180910390a1505050505050565b600454600160a060020a031681565b60076020526000908152604090205481565b60035481565b601281565b600454600090600160a060020a03166370a0823133836040516020015260405160e060020a63ffffffff8416028152600160a060020a039091166004820152602401602060405180830381600087803b1515610c4d57600080fd5b6102c65a03f11515610c5e57600080fd5b50505060405180519050111515610c7457600080fd5b600160a060020a033381166000908152600560205260409020541615610c9957600080fd5b600454600160a060020a03166323b872dd33308560006040516020015260405160e060020a63ffffffff8616028152600160a060020a0393841660048201529190921660248201526044810191909152606401602060405180830381600087803b1515610d0557600080fd5b6102c65a03f11515610d1657600080fd5b505050604051805190501515610d2b57600080fd5b600160a060020a033381166000818152600660209081526040808320879055938516808352600782528483208054880190556008805488019055838352600590915290839020805473ffffffffffffffffffffffffffffffffffffffff191682179055917f57593c23286b632d1ba413b24ecae252f34f6b81fdff1022dc7ac0d78cde56b79085905190815260200160405180910390a35050565b600160a060020a0333811660009081526005602052604081205490918291161515610df057600080fd5b5050600160a060020a03338181166000818152600560208181526040808420805460068452828620805490879055908916808752600785528387208054839003905560088054839003905596865293909252815473ffffffffffffffffffffffffffffffffffffffff191690915560045491959394919093169263a9059cbb928691516020015260405160e060020a63ffffffff8516028152600160a060020a0390921660048301526024820152604401602060405180830381600087803b1515610eba57600080fd5b6102c65a03f11515610ecb57600080fd5b505050604051805190501515610ee057600080fd5b80600160a060020a031633600160a060020a03167fccc924ef18d5fcabbf624302b6a02f9014c9b3371994eacc0cec2c107f2503e48460405190815260200160405180910390a35b5090565b60015481565b60005481565b81600160a060020a0381166323b872dd86308760006040516020015260405160e060020a63ffffffff8616028152600160a060020a0393841660048201529190921660248201526044810191909152606401602060405180830381600087803b1515610fa357600080fd5b6102c65a03f11515610fb457600080fd5b505050604051805190501515610fc957600080fd5b84600160a060020a03167fd65b48fd35864b3528d38e44760be5553248f89bf3ff6b06cca57817cc2650bf858585604051838152600160a060020a038316602082015260606040820181815290820183818151815260200191508051906020019080838360005b83811015611048578082015183820152602001611030565b50505050905090810190601f1680156110755780820380516001836020036101000a031916815260200191505b5094505050505060405180910390a25050505050565b60095481565b60045460009081908190600160a060020a03166370a0823133836040516020015260405160e060020a63ffffffff8416028152600160a060020a039091166004820152602401602060405180830381600087803b15156110f057600080fd5b6102c65a03f1151561110157600080fd5b5050506040518051905011151561111757600080fd5b600280548590811061112557fe5b60009182526020808320600160a060020a03331684526008600990930201918201905260409091205490915060ff1615156001141561116357600080fd5b6007810180549061117790600183016115aa565b9150604080519081016040528315158152600160a060020a0333166020820152600782018054849081106111a757fe5b60009182526020909120018151815460ff19169015151781556020820151815474ffffffffffffffffffffffffffffffffffffffff001916610100600160a060020a03928316021790915533908116600090815260088401602052604090819020805460ff19166001908117909155850160058501557f86abfce99b7dd908bec0169288797f85049ec73cbe046ed9de818fab3a497ae0925086918691519283529015156020830152600160a060020a03166040808301919091526060909101905180910390a15092915050565b6009546004546000918291600160a060020a03166370a0823133846040516020015260405160e060020a63ffffffff8416028152600160a060020a039091166004820152602401602060405180830381600087803b15156112d557600080fd5b6102c65a03f115156112e657600080fd5b50505060405180519050101515156112fd57600080fd5b600280549061130f90600183016115d3565b915060028281548110151561132057fe5b60009182526020909120600990910201805473ffffffffffffffffffffffffffffffffffffffff1916600160a060020a038816178155600181018690559050600281018480516113749291602001906115ff565b508585846040516c01000000000000000000000000600160a060020a038516028152601481018390526034810182805190602001908083835b602083106113cc5780518252601f1990920191602091820191016113ad565b6001836020036101000a038019825116818451161790925250505091909101945060409350505050519081900390206006820155600154603c024201600382015560048101805461ffff19169055600060058201557f06d6b095e85f5218421975622a7aee84a98b32aa7d174b90088357014003b43382878787604051848152600160a060020a03841660208201526040810183905260806060820181815290820183818151815260200191508051906020019080838360005b8381101561149e578082015183820152602001611486565b50505050905090810190601f1680156114cb5780820380516001836020036101000a031916815260200191505b509550505050505060405180910390a16001820160035550949350505050565b6000806002868154811015156114fd57fe5b906000526020600020906009020190508484846040516c01000000000000000000000000600160a060020a038516028152601481018390526034810182805190602001908083835b602083106115645780518252601f199092019160209182019101611545565b6001836020036101000a03801982511681845116179092525050509190910194506040935050505051908190039020600682015414915050949350505050565b60085481565b8154818355818115116115ce576000838152602090206115ce918101908301611679565b505050565b8154818355818115116115ce576009028160090283600052602060002091820191016115ce91906116ae565b828054600181600116156101000203166002900490600052602060002090601f016020900481019282601f1061164057805160ff191683800117855561166d565b8280016001018555821561166d579182015b8281111561166d578251825591602001919060010190611652565b50610f28929150611728565b6116ab91905b80821115610f2857805474ffffffffffffffffffffffffffffffffffffffffff1916815560010161167f565b90565b6116ab91905b80821115610f2857805473ffffffffffffffffffffffffffffffffffffffff191681556000600182018190556116ed6002830182611742565b60006003830181905560048301805461ffff19169055600583018190556006830181905561171f906007840190611789565b506009016116b4565b6116ab91905b80821115610f28576000815560010161172e565b50805460018160011615610100020316600290046000825580601f106117685750611786565b601f0160209004906000526020600020908101906117869190611728565b50565b508054600082559060005260206000209081019061178691906116795600a165627a7a72305820c76f400a92ff450f3dae6cb7dd4196ad736e2b953a887fa4c3743771af497efc0029",
  "source": "/*\n\n  << Project Wyvern DAO >>\n\n*/\n\npragma solidity ^0.4.18;\n\nimport \"./dao/DelegatedShareholderAssociation.sol\";\n\n/**\n * @title WyvernDAO\n * @author Project Wyvern Developers\n *\n *\n */\ncontract WyvernDAO is DelegatedShareholderAssociation {\n\n    string public constant name = \"Project Wyvern DAO\";\n\n    uint public constant TOKEN_DECIMALS                     = 18;\n    uint public constant REQUIRED_SHARES_TO_BE_BOARD_MEMBER = 2000 * (10 ** 18); // set to ~ 0.1% of supply\n\n    function WyvernDAO (ERC20 sharesAddress, uint minimumSharesToPassAVote, uint minutesForDebate) public {\n        sharesTokenAddress = sharesAddress;\n        requiredSharesToBeBoardMember = REQUIRED_SHARES_TO_BE_BOARD_MEMBER;\n        minimumQuorum = minimumSharesToPassAVote;\n        debatingPeriodInMinutes = minutesForDebate;\n    }\n\n}\n",
  "sourcePath": "/home/cwgoes/working/crypto/wyvern/wyvern-ethereum/contracts/WyvernDAO.sol",
  "compiler": {
    "name": "solc",
    "version": "0.4.18+commit.9cf6e910.Emscripten.clang"
  },
  "schemaVersion": "1.0.1",
  "updatedAt": "2017-12-11T20:49:04.379Z"
}