{
  "contractName": "WyvernExchange",
  "abi": [
    {
      "constant": true,
      "inputs": [],
      "name": "name",
      "outputs": [
        {
          "name": "",
          "type": "string"
        }
      ],
      "payable": false,
      "stateMutability": "view",
      "type": "function"
    },
    {
      "constant": true,
      "inputs": [
        {
          "name": "target",
          "type": "address"
        },
        {
          "name": "calldata",
          "type": "bytes"
        },
        {
          "name": "extradata",
          "type": "bytes"
        }
      ],
      "name": "staticCall",
      "outputs": [
        {
          "name": "result",
          "type": "bool"
        }
      ],
      "payable": false,
      "stateMutability": "view",
      "type": "function"
    },
    {
      "constant": true,
      "inputs": [
        {
          "name": "addrs",
          "type": "address[14]"
        },
        {
          "name": "uints",
          "type": "uint256[14]"
        },
        {
          "name": "sidesKindsHowToCalls",
          "type": "uint8[6]"
        },
        {
          "name": "calldataBuy",
          "type": "bytes"
        },
        {
          "name": "calldataSell",
          "type": "bytes"
        },
        {
          "name": "replacementPatternBuy",
          "type": "bytes"
        },
        {
          "name": "replacementPatternSell",
          "type": "bytes"
        },
        {
          "name": "staticExtradataBuy",
          "type": "bytes"
        },
        {
          "name": "staticExtradataSell",
          "type": "bytes"
        }
      ],
      "name": "ordersCanMatch_",
      "outputs": [
        {
          "name": "",
          "type": "bool"
        }
      ],
      "payable": false,
      "stateMutability": "view",
      "type": "function"
    },
    {
      "constant": false,
      "inputs": [
        {
          "name": "addrs",
          "type": "address[7]"
        },
        {
          "name": "uints",
          "type": "uint256[7]"
        },
        {
          "name": "side",
          "type": "uint8"
        },
        {
          "name": "saleKind",
          "type": "uint8"
        },
        {
          "name": "howToCall",
          "type": "uint8"
        },
        {
          "name": "calldata",
          "type": "bytes"
        },
        {
          "name": "replacementPattern",
          "type": "bytes"
        },
        {
          "name": "staticExtradata",
          "type": "bytes"
        },
        {
          "name": "orderbookInclusionDesired",
          "type": "bool"
        }
      ],
      "name": "approveOrder_",
      "outputs": [],
      "payable": false,
      "stateMutability": "nonpayable",
      "type": "function"
    },
    {
      "constant": true,
      "inputs": [
        {
          "name": "array",
          "type": "bytes"
        },
        {
          "name": "desired",
          "type": "bytes"
        },
        {
          "name": "mask",
          "type": "bytes"
        }
      ],
      "name": "guardedArrayReplace",
      "outputs": [
        {
          "name": "",
          "type": "bytes"
        }
      ],
      "payable": false,
      "stateMutability": "pure",
      "type": "function"
    },
    {
      "constant": false,
      "inputs": [
        {
          "name": "addrs",
          "type": "address[7]"
        },
        {
          "name": "uints",
          "type": "uint256[7]"
        },
        {
          "name": "side",
          "type": "uint8"
        },
        {
          "name": "saleKind",
          "type": "uint8"
        },
        {
          "name": "howToCall",
          "type": "uint8"
        },
        {
          "name": "calldata",
          "type": "bytes"
        },
        {
          "name": "replacementPattern",
          "type": "bytes"
        },
        {
          "name": "staticExtradata",
          "type": "bytes"
        },
        {
          "name": "v",
          "type": "uint8"
        },
        {
          "name": "r",
          "type": "bytes32"
        },
        {
          "name": "s",
          "type": "bytes32"
        }
      ],
      "name": "cancelOrder_",
      "outputs": [],
      "payable": false,
      "stateMutability": "nonpayable",
      "type": "function"
    },
    {
      "constant": true,
      "inputs": [
        {
          "name": "buyCalldata",
          "type": "bytes"
        },
        {
          "name": "buyReplacementPattern",
          "type": "bytes"
        },
        {
          "name": "sellCalldata",
          "type": "bytes"
        },
        {
          "name": "sellReplacementPattern",
          "type": "bytes"
        }
      ],
      "name": "orderCalldataCanMatch",
      "outputs": [
        {
          "name": "",
          "type": "bool"
        }
      ],
      "payable": false,
      "stateMutability": "pure",
      "type": "function"
    },
    {
      "constant": true,
      "inputs": [
        {
          "name": "addrs",
          "type": "address[14]"
        },
        {
          "name": "uints",
          "type": "uint256[14]"
        },
        {
          "name": "sidesKindsHowToCalls",
          "type": "uint8[6]"
        },
        {
          "name": "calldataBuy",
          "type": "bytes"
        },
        {
          "name": "calldataSell",
          "type": "bytes"
        },
        {
          "name": "replacementPatternBuy",
          "type": "bytes"
        },
        {
          "name": "replacementPatternSell",
          "type": "bytes"
        },
        {
          "name": "staticExtradataBuy",
          "type": "bytes"
        },
        {
          "name": "staticExtradataSell",
          "type": "bytes"
        }
      ],
      "name": "calculateMatchPrice_",
      "outputs": [
        {
          "name": "",
          "type": "uint256"
        }
      ],
      "payable": false,
      "stateMutability": "view",
      "type": "function"
    },
    {
      "constant": true,
      "inputs": [
        {
          "name": "side",
          "type": "uint8"
        },
        {
          "name": "saleKind",
          "type": "uint8"
        },
        {
          "name": "basePrice",
          "type": "uint256"
        },
        {
          "name": "extra",
          "type": "uint256"
        },
        {
          "name": "listingTime",
          "type": "uint256"
        },
        {
          "name": "expirationTime",
          "type": "uint256"
        }
      ],
      "name": "calculateFinalPrice",
      "outputs": [
        {
          "name": "",
          "type": "uint256"
        }
      ],
      "payable": false,
      "stateMutability": "view",
      "type": "function"
    },
    {
      "constant": true,
      "inputs": [
        {
          "name": "addrs",
          "type": "address[7]"
        },
        {
          "name": "uints",
          "type": "uint256[7]"
        },
        {
          "name": "side",
          "type": "uint8"
        },
        {
          "name": "saleKind",
          "type": "uint8"
        },
        {
          "name": "howToCall",
          "type": "uint8"
        },
        {
          "name": "calldata",
          "type": "bytes"
        },
        {
          "name": "replacementPattern",
          "type": "bytes"
        },
        {
          "name": "staticExtradata",
          "type": "bytes"
        },
        {
          "name": "v",
          "type": "uint8"
        },
        {
          "name": "r",
          "type": "bytes32"
        },
        {
          "name": "s",
          "type": "bytes32"
        }
      ],
      "name": "validateOrder_",
      "outputs": [
        {
          "name": "",
          "type": "bool"
        }
      ],
      "payable": false,
      "stateMutability": "view",
      "type": "function"
    },
    {
      "constant": true,
      "inputs": [],
      "name": "registry",
      "outputs": [
        {
          "name": "",
          "type": "address"
        }
      ],
      "payable": false,
      "stateMutability": "view",
      "type": "function"
    },
    {
      "constant": true,
      "inputs": [
        {
          "name": "",
          "type": "bytes32"
        }
      ],
      "name": "cancelledOrFinalized",
      "outputs": [
        {
          "name": "",
          "type": "bool"
        }
      ],
      "payable": false,
      "stateMutability": "view",
      "type": "function"
    },
    {
      "constant": true,
      "inputs": [],
      "name": "exchangeToken",
      "outputs": [
        {
          "name": "",
          "type": "address"
        }
      ],
      "payable": false,
      "stateMutability": "view",
      "type": "function"
    },
    {
      "constant": false,
      "inputs": [
        {
          "name": "addrs",
          "type": "address[14]"
        },
        {
          "name": "uints",
          "type": "uint256[14]"
        },
        {
          "name": "sidesKindsHowToCalls",
          "type": "uint8[6]"
        },
        {
          "name": "calldataBuy",
          "type": "bytes"
        },
        {
          "name": "calldataSell",
          "type": "bytes"
        },
        {
          "name": "replacementPatternBuy",
          "type": "bytes"
        },
        {
          "name": "replacementPatternSell",
          "type": "bytes"
        },
        {
          "name": "staticExtradataBuy",
          "type": "bytes"
        },
        {
          "name": "staticExtradataSell",
          "type": "bytes"
        },
        {
          "name": "vs",
          "type": "uint8[2]"
        },
        {
          "name": "rss",
          "type": "bytes32[4]"
        }
      ],
      "name": "atomicMatch_",
      "outputs": [],
      "payable": false,
      "stateMutability": "nonpayable",
      "type": "function"
    },
    {
      "constant": true,
      "inputs": [
        {
          "name": "",
          "type": "bytes32"
        }
      ],
      "name": "approvedOrders",
      "outputs": [
        {
          "name": "",
          "type": "bool"
        }
      ],
      "payable": false,
      "stateMutability": "view",
      "type": "function"
    },
    {
      "constant": true,
      "inputs": [
        {
          "name": "addrs",
          "type": "address[7]"
        },
        {
          "name": "uints",
          "type": "uint256[7]"
        },
        {
          "name": "side",
          "type": "uint8"
        },
        {
          "name": "saleKind",
          "type": "uint8"
        },
        {
          "name": "howToCall",
          "type": "uint8"
        },
        {
          "name": "calldata",
          "type": "bytes"
        },
        {
          "name": "replacementPattern",
          "type": "bytes"
        },
        {
          "name": "staticExtradata",
          "type": "bytes"
        }
      ],
      "name": "calculateCurrentPrice_",
      "outputs": [
        {
          "name": "",
          "type": "uint256"
        }
      ],
      "payable": false,
      "stateMutability": "view",
      "type": "function"
    },
    {
      "constant": true,
      "inputs": [
        {
          "name": "addrs",
          "type": "address[7]"
        },
        {
          "name": "uints",
          "type": "uint256[7]"
        },
        {
          "name": "side",
          "type": "uint8"
        },
        {
          "name": "saleKind",
          "type": "uint8"
        },
        {
          "name": "howToCall",
          "type": "uint8"
        },
        {
          "name": "calldata",
          "type": "bytes"
        },
        {
          "name": "replacementPattern",
          "type": "bytes"
        },
        {
          "name": "staticExtradata",
          "type": "bytes"
        }
      ],
      "name": "hashOrder_",
      "outputs": [
        {
          "name": "",
          "type": "bytes32"
        }
      ],
      "payable": false,
      "stateMutability": "pure",
      "type": "function"
    },
    {
      "inputs": [
        {
          "name": "registryAddress",
          "type": "address"
        },
        {
          "name": "tokenAddress",
          "type": "address"
        }
      ],
      "payable": false,
      "stateMutability": "nonpayable",
      "type": "constructor"
    },
    {
      "anonymous": false,
      "inputs": [
        {
          "indexed": true,
          "name": "hash",
          "type": "bytes32"
        },
        {
          "indexed": false,
          "name": "exchange",
          "type": "address"
        },
        {
          "indexed": true,
          "name": "maker",
          "type": "address"
        },
        {
          "indexed": false,
          "name": "taker",
          "type": "address"
        },
        {
          "indexed": false,
          "name": "makerFee",
          "type": "uint256"
        },
        {
          "indexed": false,
          "name": "takerFee",
          "type": "uint256"
        },
        {
          "indexed": true,
          "name": "feeRecipient",
          "type": "address"
        },
        {
          "indexed": false,
          "name": "side",
          "type": "uint8"
        },
        {
          "indexed": false,
          "name": "saleKind",
          "type": "uint8"
        },
        {
          "indexed": false,
          "name": "target",
          "type": "address"
        },
        {
          "indexed": false,
          "name": "howToCall",
          "type": "uint8"
        },
        {
          "indexed": false,
          "name": "calldata",
          "type": "bytes"
        }
      ],
      "name": "OrderApprovedPartOne",
      "type": "event"
    },
    {
      "anonymous": false,
      "inputs": [
        {
          "indexed": true,
          "name": "hash",
          "type": "bytes32"
        },
        {
          "indexed": false,
          "name": "replacementPattern",
          "type": "bytes"
        },
        {
          "indexed": false,
          "name": "staticTarget",
          "type": "address"
        },
        {
          "indexed": false,
          "name": "staticExtradata",
          "type": "bytes"
        },
        {
          "indexed": false,
          "name": "paymentToken",
          "type": "address"
        },
        {
          "indexed": false,
          "name": "basePrice",
          "type": "uint256"
        },
        {
          "indexed": false,
          "name": "extra",
          "type": "uint256"
        },
        {
          "indexed": false,
          "name": "listingTime",
          "type": "uint256"
        },
        {
          "indexed": false,
          "name": "expirationTime",
          "type": "uint256"
        },
        {
          "indexed": false,
          "name": "salt",
          "type": "uint256"
        },
        {
          "indexed": false,
          "name": "orderbookInclusionDesired",
          "type": "bool"
        }
      ],
      "name": "OrderApprovedPartTwo",
      "type": "event"
    },
    {
      "anonymous": false,
      "inputs": [
        {
          "indexed": true,
          "name": "hash",
          "type": "bytes32"
        }
      ],
      "name": "OrderCancelled",
      "type": "event"
    },
    {
      "anonymous": false,
      "inputs": [
        {
          "indexed": true,
          "name": "buyHash",
          "type": "bytes32"
        },
        {
          "indexed": true,
          "name": "sellHash",
          "type": "bytes32"
        }
      ],
      "name": "OrdersMatched",
      "type": "event"
    }
  ],
  "bytecode": "0x60606040526000805460ff19169055341561001957600080fd5b60405160408061389c83398101604052808051919060200180516000805461010060a860020a031916610100600160a060020a039384160217815560018054600160a060020a031916959092169490941790555061381e9182915061007e90396000f3006060604052600436106100d75763ffffffff60e060020a60003504166306fdde0381146100dc57806310796a4714610166578063136f5b5a1461021b5780631665e6b314610431578063239e83df1461057657806335d91b851461064b578063562b2ebc1461079a578063582420bb146108b157806363d36c0b14610ad95780637627e94114610b045780637b10399914610c535780638076f00514610c82578063a25eb5d914610c98578063dfc7209f14610cab578063e57d4adb14610f15578063f4c9180714610f2b578063f9c29e661461106a575b600080fd5b34156100e757600080fd5b6100ef6111a9565b60405160208082528190810183818151815260200191508051906020019080838360005b8381101561012b578082015183820152602001610113565b50505050905090810190601f1680156101585780820380516001836020036101000a031916815260200191505b509250505060405180910390f35b341561017157600080fd5b61020760048035600160a060020a03169060446024803590810190830135806020601f8201819004810201604051908101604052818152929190602084018383808284378201915050505050509190803590602001908201803590602001908080601f0160208091040260200160405190810160405281815292919060208401838380828437509496506111e095505050505050565b604051901515815260200160405180910390f35b341561022657600080fd5b61020760046101c481600e6101c0604051908101604052919082826101c08082843782019150505050509190806101c00190600e80602002604051908101604052919082826101c080828437820191505050505091908060c001906006806020026040519081016040529190828260c0808284375093959460208082019550903586018082019450359250829150601f8201819004810201604051908101604052818152929190602084018383808284378201915050505050509190803590602001908201803590602001908080601f01602080910402602001604051908101604052818152929190602084018383808284378201915050505050509190803590602001908201803590602001908080601f01602080910402602001604051908101604052818152929190602084018383808284378201915050505050509190803590602001908201803590602001908080601f01602080910402602001604051908101604052818152929190602084018383808284378201915050505050509190803590602001908201803590602001908080601f01602080910402602001604051908101604052818152929190602084018383808284378201915050505050509190803590602001908201803590602001908080601f0160208091040260200160405190810160405281815292919060208401838380828437509496506112eb95505050505050565b341561043c57600080fd5b610574600460e481600760e06040519081016040529190828260e080828437820191505050505091908060e001906007806020026040519081016040529190828260e08082843750939560ff8635811696602080820135831697506040808301359093169650929450608081019350606001358401808301929035918291601f83018190048102019051908101604052818152929190602084018383808284378201915050505050509190803590602001908201803590602001908080601f01602080910402602001604051908101604052818152929190602084018383808284378201915050505050509190803590602001908201803590602001908080601f0160208091040260200160405190810160405281815292919060208401838380828437509496505050509135151591506115cd9050565b005b341561058157600080fd5b6100ef60046024813581810190830135806020601f8201819004810201604051908101604052818152929190602084018383808284378201915050505050509190803590602001908201803590602001908080601f01602080910402602001604051908101604052818152929190602084018383808284378201915050505050509190803590602001908201803590602001908080601f01602080910402602001604051908101604052818152929190602084018383808284375094965061170a95505050505050565b341561065657600080fd5b610574600460e481600760e06040519081016040529190828260e080828437820191505050505091908060e001906007806020026040519081016040529190828260e08082843750939560ff8635811696602080820135831697506040808301359093169650929450608081019350606001358401808301929035918291601f83018190048102019051908101604052818152929190602084018383808284378201915050505050509190803590602001908201803590602001908080601f01602080910402602001604051908101604052818152929190602084018383808284378201915050505050509190803590602001908201803590602001908080601f0160208091040260200160405190810160405281815292919060208401838380828437509496505060ff8535169460208101359450604001359250611727915050565b34156107a557600080fd5b61020760046024813581810190830135806020601f8201819004810201604051908101604052818152929190602084018383808284378201915050505050509190803590602001908201803590602001908080601f01602080910402602001604051908101604052818152929190602084018383808284378201915050505050509190803590602001908201803590602001908080601f01602080910402602001604051908101604052818152929190602084018383808284378201915050505050509190803590602001908201803590602001908080601f01602080910402602001604051908101604052818152929190602084018383808284375094965061187895505050505050565b34156108bc57600080fd5b610ac760046101c481600e6101c0604051908101604052919082826101c08082843782019150505050509190806101c00190600e80602002604051908101604052919082826101c080828437820191505050505091908060c001906006806020026040519081016040529190828260c0808284375093959460208082019550903586018082019450359250829150601f8201819004810201604051908101604052818152929190602084018383808284378201915050505050509190803590602001908201803590602001908080601f01602080910402602001604051908101604052818152929190602084018383808284378201915050505050509190803590602001908201803590602001908080601f01602080910402602001604051908101604052818152929190602084018383808284378201915050505050509190803590602001908201803590602001908080601f01602080910402602001604051908101604052818152929190602084018383808284378201915050505050509190803590602001908201803590602001908080601f01602080910402602001604051908101604052818152929190602084018383808284378201915050505050509190803590602001908201803590602001908080601f0160208091040260200160405190810160405281815292919060208401838380828437509496506118a395505050505050565b60405190815260200160405180910390f35b3415610ae457600080fd5b610ac760ff6004358116906024351660443560643560843560a435611b75565b3415610b0f57600080fd5b610207600460e481600760e06040519081016040529190828260e080828437820191505050505091908060e001906007806020026040519081016040529190828260e08082843750939560ff8635811696602080820135831697506040808301359093169650929450608081019350606001358401808301929035918291601f83018190048102019051908101604052818152929190602084018383808284378201915050505050509190803590602001908201803590602001908080601f01602080910402602001604051908101604052818152929190602084018383808284378201915050505050509190803590602001908201803590602001908080601f0160208091040260200160405190810160405281815292919060208401838380828437509496505060ff8535169460208101359450604001359250611b90915050565b3415610c5e57600080fd5b610c66611cfb565b604051600160a060020a03909116815260200160405180910390f35b3415610c8d57600080fd5b610207600435611d0a565b3415610ca357600080fd5b610c66611d1f565b3415610cb657600080fd5b61057460046101c481600e6101c0604051908101604052919082826101c08082843782019150505050509190806101c00190600e80602002604051908101604052919082826101c080828437820191505050505091908060c001906006806020026040519081016040529190828260c0808284375093959460208082019550903586018082019450359250829150601f8201819004810201604051908101604052818152929190602084018383808284378201915050505050509190803590602001908201803590602001908080601f01602080910402602001604051908101604052818152929190602084018383808284378201915050505050509190803590602001908201803590602001908080601f01602080910402602001604051908101604052818152929190602084018383808284378201915050505050509190803590602001908201803590602001908080601f01602080910402602001604051908101604052818152929190602084018383808284378201915050505050509190803590602001908201803590602001908080601f01602080910402602001604051908101604052818152929190602084018383808284378201915050505050509190803590602001908201803590602001908080601f01602080910402602001604051908101604052818152929190602084018383808284378201915050505050509190806040019060028060200260405190810160405280929190826002602002808284378201915050505050919080608001906004806020026040519081016040529190828260808082843750939550611d33945050505050565b3415610f2057600080fd5b61020760043561204d565b3415610f3657600080fd5b610ac7600460e481600760e06040519081016040529190828260e080828437820191505050505091908060e001906007806020026040519081016040529190828260e08082843750939560ff8635811696602080820135831697506040808301359093169650929450608081019350606001358401808301929035918291601f83018190048102019051908101604052818152929190602084018383808284378201915050505050509190803590602001908201803590602001908080601f01602080910402602001604051908101604052818152929190602084018383808284378201915050505050509190803590602001908201803590602001908080601f01602080910402602001604051908101604052818152929190602084018383808284375094965061206295505050505050565b341561107557600080fd5b610ac7600460e481600760e06040519081016040529190828260e080828437820191505050505091908060e001906007806020026040519081016040529190828260e08082843750939560ff8635811696602080820135831697506040808301359093169650929450608081019350606001358401808301929035918291601f83018190048102019051908101604052818152929190602084018383808284378201915050505050509190803590602001908201803590602001908080601f01602080910402602001604051908101604052818152929190602084018383808284378201915050505050509190803590602001908201803590602001908080601f01602080910402602001604051908101604052818152929190602084018383808284375094965061219695505050505050565b60408051908101604052601781527f50726f6a6563742057797665726e2045786368616e6765000000000000000000602082015281565b60006111ea6136ff565b6000806111f9865186516122bd565b6040518059106112065750595b818152601f19601f830116810160200160405290509250600091505b84518210156112785784828151811061123757fe5b016020015160f860020a900460f860020a0283838151811061125557fe5b906020010190600160f860020a031916908160001a905350600190910190611222565b5060005b85518110156112d25785818151811061129157fe5b016020015160f860020a900460f860020a028386518301815181106112b257fe5b906020010190600160f860020a031916908160001a90535060010161127c565b60006040518451602086018a5afa979650505050505050565b60006112f5613711565b6112fd613711565b610280604051908101604052808d51600160a060020a031681526020018d60016020020151600160a060020a0316815260200160408e0151600160a060020a031681526020018c5181526020018c60016020020151815260200160608e0151600160a060020a031681526020018b5160ff16600181111561137a57fe5b600181111561138557fe5b81526020018b6001602002015160ff1660018111156113a057fe5b60018111156113ab57fe5b815260200160808e0151600160a060020a0316815260200160408c015160ff1660018111156113d657fe5b60018111156113e157fe5b8152602081018b90526040810189905260600160a08e0151600160a060020a031681526020810187905260400160c08e0151600160a060020a0316815260200160408d0151815260200160608d0151815260200160808d0151815260200160a08d0151815260200160c08d0151905291506102806040519081016040528060e08e0151600160a060020a031681526020016101008e0151600160a060020a031681526020016101208e0151600160a060020a0316815260200160e08d015181526020016101008d015181526020016101408e0151600160a060020a0316815260200160608c015160ff1660018111156114d657fe5b60018111156114e157fe5b815260200160808c015160ff1660018111156114f957fe5b600181111561150457fe5b81526020016101608e0151600160a060020a0316815260200160a08c015160ff16600181111561153057fe5b600181111561153b57fe5b8152602081018a9052604081018890526060016101808e0151600160a060020a03168152602081018690526040016101a08e0151600160a060020a031681526020016101208d015181526020016101408d015181526020016101608d015181526020016101808d015181526020016101a08d0151905290506115bd82826122d7565b9c9b505050505050505050505050565b6115d5613711565b610280604051908101604052808b51600160a060020a031681526020018b60016020020151600160a060020a0316815260200160408c0151600160a060020a031681526020018a5181526020018a60016020020151815260200160608c0151600160a060020a0316815260200189600181111561164e57fe5b815260200188600181111561165f57fe5b815260200160808c0151600160a060020a0316815260200187600181111561168357fe5b8152602081018790526040810186905260600160a08c0151600160a060020a031681526020810185905260400160c08c0151600160a060020a0316815260200160408b0151815260200160608b0151815260200160808b0151815260200160a08b0151815260200160c08b0151905290506116fe8183612490565b50505050505050505050565b6117126136ff565b61171d8484846127dc565b50825b9392505050565b61186b610280604051908101604052808d51600160a060020a031681526020018d60016020020151600160a060020a0316815260200160408e0151600160a060020a031681526020018c5181526020018c60016020020151815260200160608e0151600160a060020a031681526020018b60018111156117a357fe5b81526020018a60018111156117b457fe5b815260200160808e0151600160a060020a031681526020018960018111156117d857fe5b8152602081018990526040810188905260600160a08e0151600160a060020a031681526020810187905260400160c08e0151600160a060020a0316815260200160408d0151815260200160608d0151815260200160808d0151815260200160a08d0151815260200160c08d015190526060604051908101604090815260ff871682526020820186905281018490526129e6565b5050505050505050505050565b60006118858584866127dc565b6118908386846127dc565b61189a8584612a65565b95945050505050565b60006118ad613711565b6118b5613711565b610280604051908101604052808d51600160a060020a031681526020018d60016020020151600160a060020a0316815260200160408e0151600160a060020a031681526020018c5181526020018c60016020020151815260200160608e0151600160a060020a031681526020018b5160ff16600181111561193257fe5b600181111561193d57fe5b81526020018b6001602002015160ff16600181111561195857fe5b600181111561196357fe5b815260200160808e0151600160a060020a0316815260200160408c015160ff16600181111561198e57fe5b600181111561199957fe5b8152602081018b90526040810189905260600160a08e0151600160a060020a031681526020810187905260400160c08e0151600160a060020a0316815260200160408d0151815260200160608d0151815260200160808d0151815260200160a08d0151815260200160c08d0151905291506102806040519081016040528060e08e0151600160a060020a031681526020016101008e0151600160a060020a031681526020016101208e0151600160a060020a0316815260200160e08d015181526020016101008d015181526020016101408e0151600160a060020a0316815260200160608c015160ff166001811115611a8e57fe5b6001811115611a9957fe5b815260200160808c015160ff166001811115611ab157fe5b6001811115611abc57fe5b81526020016101608e0151600160a060020a0316815260200160a08c015160ff166001811115611ae857fe5b6001811115611af357fe5b8152602081018a9052604081018890526060016101808e0151600160a060020a03168152602081018690526040016101a08e0151600160a060020a031681526020016101208d015181526020016101408d015181526020016101608d015181526020016101808d015181526020016101a08d0151905290506115bd8282612af9565b6000611b85878787878787612b87565b979650505050505050565b6000611b9a613711565b610280604051908101604052808e51600160a060020a031681526020018e60016020020151600160a060020a0316815260200160408f0151600160a060020a031681526020018d5181526020018d60016020020151815260200160608f0151600160a060020a031681526020018c6001811115611c1357fe5b81526020018b6001811115611c2457fe5b815260200160808f0151600160a060020a031681526020018a6001811115611c4857fe5b8152602081018a90526040810189905260600160a08f0151600160a060020a031681526020810188905260400160c08f0151600160a060020a0316815260200160408e0151815260200160608e0151815260200160808e0151815260200160a08e0151815260200160c08e015190529050611cea611cc582612c1a565b826060604051908101604090815260ff8a168252602082018990528101879052612cdd565b9d9c50505050505050505050505050565b600154600160a060020a031681565b60026020526000908152604090205460ff1681565b6000546101009004600160a060020a031681565b61186b610280604051908101604052808d51600160a060020a031681526020018d60016020020151600160a060020a0316815260200160408e0151600160a060020a031681526020018c5181526020018c60016020020151815260200160608e0151600160a060020a031681526020018b5160ff166001811115611db357fe5b6001811115611dbe57fe5b81526020018b6001602002015160ff166001811115611dd957fe5b6001811115611de457fe5b815260200160808e0151600160a060020a0316815260200160408c015160ff166001811115611e0f57fe5b6001811115611e1a57fe5b8152602081018b90526040810189905260600160a08e0151600160a060020a031681526020810187905260400160c08e0151600160a060020a0316815260200160408d0151815260200160608d0151815260200160808d0151815260200160a08d0151815260200160c08d01519052606060405190810160405280855160ff1681526020018451815260200184600160200201519052610280604051908101604052808f60076020020151600160a060020a031681526020018f60086020020151600160a060020a031681526020018f60096020020151600160a060020a0316815260200160e08f015181526020016101008f015181526020018f600a6020020151600160a060020a0316815260200160608e015160ff166001811115611f3d57fe5b6001811115611f4857fe5b815260200160808e015160ff166001811115611f6057fe5b6001811115611f6b57fe5b81526020018f600b6020020151600160a060020a0316815260200160a08e015160ff166001811115611f9957fe5b6001811115611fa457fe5b8152602081018c9052604081018a90526060018f600c6020020151600160a060020a03168152602081018890526040018f600d6020020151600160a060020a031681526020016101208f015181526020016101408f015181526020016101608f015181526020016101808f015181526020016101a08f01519052606060405190810160405280602088015160ff1681526020016040870151815260200160608701519052612e2c565b60036020526000908152604090205460ff1681565b6000612189610280604051908101604052808b51600160a060020a031681526020018b60016020020151600160a060020a0316815260200160408c0151600160a060020a031681526020018a5181526020018a60016020020151815260200160608c0151600160a060020a031681526020018960018111156120e057fe5b81526020018860018111156120f157fe5b815260200160808c0151600160a060020a0316815260200187600181111561211557fe5b8152602081018790526040810186905260600160a08c0151600160a060020a031681526020810185905260400160c08c0151600160a060020a0316815260200160408b0151815260200160608b0151815260200160808b0151815260200160a08b0151815260200160c08b01519052613182565b9998505050505050505050565b6000612189610280604051908101604052808b51600160a060020a031681526020018b60016020020151600160a060020a0316815260200160408c0151600160a060020a031681526020018a5181526020018a60016020020151815260200160608c0151600160a060020a0316815260200189600181111561221457fe5b815260200188600181111561222557fe5b815260200160808c0151600160a060020a0316815260200187600181111561224957fe5b8152602081018790526040810186905260600160a08c0151600160a060020a031681526020810185905260400160c08c0151600160a060020a0316815260200160408b0151815260200160608b0151815260200160808b0151815260200160a08b0151815260200160c08b01519052612c1a565b6000828201838110156122cc57fe5b8091505b5092915050565b6000808360c0015160018111156122ea57fe5b148015612306575060018260c00151600181111561230457fe5b145b801561232d5750816101c00151600160a060020a0316836101c00151600160a060020a0316145b8015612369575060006040830151600160a060020a0316148061236957508260200151600160a060020a03168260400151600160a060020a0316145b80156123a5575060006040840151600160a060020a031614806123a557508160200151600160a060020a03168360400151600160a060020a0316145b80156124085750600060a0830151600160a060020a03161480156123d75750600060a0840151600160a060020a031614155b806124085750600060a0830151600160a060020a0316141580156124085750600060a0840151600160a060020a0316145b801561242f5750816101000151600160a060020a0316836101000151600160a060020a0316145b801561245a5750816101200151600181111561244757fe5b836101200151600181111561245857fe5b145b801561247557506124758361022001518461024001516131b4565b801561172057506117208261022001518361024001516131b4565b60008260200151600160a060020a031633600160a060020a03161415156124b657600080fd5b6124bf83612c1a565b60008181526003602052604090205490915060ff16156124de57600080fd5b6000818152600360205260409020805460ff1916600117905560a0830151600160a060020a03168360200151600160a060020a0316827faee3673166cb20f9607e8257375d5244a4f82611eb34a8319dd0b527e89460bf86518760400151886060015189608001518a60c001518b60e001518c61010001518d61012001518e6101400151604051600160a060020a03808b1682528916602082015260408101889052606081018790526080810186600181111561259757fe5b60ff1681526020018560018111156125ab57fe5b60ff168152600160a060020a03851660208201526040018360018111156125ce57fe5b60ff16815260200180602001828103825283818151815260200191508051906020019080838360005b8381101561260f5780820151838201526020016125f7565b50505050905090810190601f16801561263c5780820380516001836020036101000a031916815260200191505b509a505050505050505050505060405180910390a4807f6b227a8fe336bb14cfe503246633ca4550cd8065f1933a5ffaf83a955eaa40ed610160850151856101800151866101a00151876101c00151886101e001518961020001518a61022001518b61024001518c61026001518c604051600160a060020a03808b166020830152881660608201526080810187905260a0810186905260c0810185905260e0810184905261010081018390528115156101208201526101408082528190604082019082018d818151815260200191508051906020019080838360005b83811015612730578082015183820152602001612718565b50505050905090810190601f16801561275d5780820380516001836020036101000a031916815260200191505b5083810382528b818151815260200191508051906020019080838360005b8381101561279357808201518382015260200161277b565b50505050905090810190601f1680156127c05780820380516001836020036101000a031916815260200191505b509c5050505050505050505050505060405180910390a2505050565b6127e46137c9565b60008061010060405190810160409081527f800000000000000000000000000000000000000000000000000000000000000082527f400000000000000000000000000000000000000000000000000000000000000060208301527f2000000000000000000000000000000000000000000000000000000000000000908201527f100000000000000000000000000000000000000000000000000000000000000060608201527f080000000000000000000000000000000000000000000000000000000000000060808201527f040000000000000000000000000000000000000000000000000000000000000060a08201527f020000000000000000000000000000000000000000000000000000000000000060c082015260f860020a60e08201529250845186511461291557600080fd5b6008865181151561292257fe5b048451101561293057600080fd5b600091505b85518210156129de5782600883066008811061294d57fe5b602002015184600884048151811061296157fe5b016020015160f860020a900460f860020a0216600160f860020a031916600060f860020a021490508015156129d35784828151811061299c57fe5b016020015160f860020a900460f860020a028683815181106129ba57fe5b906020010190600160f860020a031916908160001a9053505b600190910190612935565b505050505050565b60006129f283836131d0565b90508260200151600160a060020a031633600160a060020a0316141515612a1857600080fd5b60008181526002602052604090819020805460ff1916600117905581907f5152abf959f6564662358c2e52b702259b78bac5ee7842a0f01937e670efcc7d905160405180910390a2505050565b6000808251845114612a7a57600091506122d0565b5060005b8351811015612aef57828181518110612a9357fe5b016020015160f860020a900460f860020a02600160f860020a031916848281518110612abb57fe5b016020015160f860020a900460f860020a02600160f860020a031916141515612ae757600091506122d0565b600101612a7e565b5060019392505050565b6000806000612b288460c001518560e00151866101e00151876102000151886102200151896102400151612b87565b9150612b548560c001518660e00151876101e001518861020001518961022001518a6102400151612b87565b905081811015612b6357600080fd5b600060a0850151600160a060020a03161415612b7f578061189a565b509392505050565b60008080876001811115612b9757fe5b1415612ba557859150612c0f565b6001876001811115612bb357fe5b1415612c0f57612bde612bcf86612bca42886131f4565b613206565b612bd985876131f4565b613231565b90506001886001811115612bee57fe5b1415612c0557612bfe86826131f4565b9150612c0f565b612bfe86826122bd565b509695505050505050565b6000612c246136ff565b600060408051908101604052601c81527f19457468657265756d205369676e6564204d6573736167653a0a3332000000006020820152915081612c6685613248565b612c6f866133ff565b6040518084805190602001908083835b60208310612c9e5780518252601f199092019160209182019101612c7f565b6001836020036101000a038019825116818451161790925250505091909101938452505060208201526040908101915051908190039020949350505050565b6000600160a060020a0330168351600160a060020a031614612d0157506000611720565b60008481526002602052604090205460ff1615612d2057506000611720565b612d338360e001518461024001516134fe565b1515612d4157506000611720565b8260200151600160a060020a031633600160a060020a03161415612d6757506001611720565b60008481526003602052604090205460ff1615612d8657506001611720565b8260200151600160a060020a03166001858451856020015186604001516040516000815260200160405260006040516020015260405193845260ff90921660208085019190915260408085019290925260608401929092526080909201915160208103908084039060008661646e5a03f11515612e0257600080fd5b505060206040510351600160a060020a03161415612e2257506001611720565b5060009392505050565b600080548190819060ff1615612e4157600080fd5b6000805460ff19166001179055612e5887876131d0565b9250612e6485856131d0565b9150612e7087866122d7565b1515612e7b57600080fd5b6000876101600151511115612ea457612ea48761014001518661014001518961016001516127dc565b6000856101600151511115612ecd57612ecd8561014001518861014001518761016001516127dc565b612ee1876101400151866101400151612a65565b1515612eec57600080fd5b600154600160a060020a031663c4552791602087015160006040516020015260405160e060020a63ffffffff8416028152600160a060020a039091166004820152602401602060405180830381600087803b1515612f4957600080fd5b6102c65a03f11515612f5a57600080fd5b5050506040518051915050600160a060020a0381161515612f7a57600080fd5b6000838152600260205260408082208054600160ff1991821681179092558584529190922080549091169091179055612fb3878661351e565b80600160a060020a0316631b0f7ba98661010001518761012001518861014001516000604051602001526040518463ffffffff1660e060020a0281526004018084600160a060020a0316600160a060020a0316815260200183600181111561301757fe5b60ff16815260200180602001828103825283818151815260200191508051906020019080838360005b83811015613058578082015183820152602001613040565b50505050905090810190601f1680156130855780820380516001836020036101000a031916815260200191505b50945050505050602060405180830381600087803b15156130a557600080fd5b6102c65a03f115156130b657600080fd5b5050506040518051905015156130cb57600080fd5b6000610180880151600160a060020a031614613106576130fb876101800151866101400151896101a001516111e0565b151561310657600080fd5b6000610180860151600160a060020a03161461314157613136856101800151866101400151876101a001516111e0565b151561314157600080fd5b81837f0ac43ae443462c4ede260ad38899e594fa78238f3252539851b7b4395f3b043e60405160405180910390a350506000805460ff191690555050505050565b60006131ae8260c001518360e00151846101e00151856102000151866102200151876102400151612b87565b92915050565b6000428310801561172057508115806117205750504210919050565b6000806131dc84612c1a565b90506131e9818585612cdd565b15156122cc57600080fd5b60008282111561320057fe5b50900390565b60008083151561321957600091506122d0565b5082820282848281151561322957fe5b04146122cc57fe5b600080828481151561323f57fe5b04949350505050565b6000815182602001518360400151846060015185608001518660a001518760c001518860e001518961010001518a61012001518b61014001518c61016001516040516c01000000000000000000000000600160a060020a03808f16820283528d8116820260148401528c811682026028840152603c83018c9052605c83018b9052891602607c820152609081018760018111156132e157fe5b60ff1660f860020a0281526001018660018111156132fb57fe5b60ff1660f860020a02815260010185600160a060020a0316600160a060020a03166c0100000000000000000000000002815260140184600181111561333c57fe5b60ff1660f860020a02815260010183805190602001908083835b602083106133755780518252601f199092019160209182019101613356565b6001836020036101000a038019825116818451161790925250505091909101905082805190602001908083835b602083106133c15780518252601f1990920191602091820191016133a2565b6001836020036101000a0380198251168184511617909252505050919091019d5060409c505050505050505050505050505180910390209050919050565b6000816101800151826101a00151836101c00151846101e001518561020001518661022001518761024001518861026001516040516c01000000000000000000000000600160a060020a038a160281526014810188805190602001908083835b6020831061347e5780518252601f19909201916020918201910161345f565b6001836020036101000a03801982511681845116808217855250505050505090500187600160a060020a0316600160a060020a03166c010000000000000000000000000281526014018681526020018581526020018481526020018381526020018281526020019850505050505050505060405180910390209050919050565b60008083600181111561350d57fe5b148061172057505060009011919050565b600061352a8383612af9565b9050600060a0830151600160a060020a0316146135895782608001518260800151111561355657600080fd5b61356d82602001518360a001518460600151613677565b61358483602001518360a001518460800151613677565b6135cc565b81608001518360800151111561359e57600080fd5b6135b583602001518460a001518560600151613677565b6135cc82602001518460a001518560800151613677565b600081111561367257816101c00151600160a060020a03166323b872dd846020015184602001518460006040516020015260405160e060020a63ffffffff8616028152600160a060020a0393841660048201529190921660248201526044810191909152606401602060405180830381600087803b151561364c57600080fd5b6102c65a03f1151561365d57600080fd5b50505060405180519050151561367257600080fd5b505050565b600081111561367257600060019054906101000a9004600160a060020a0316600160a060020a03166323b872dd84848460006040516020015260405160e060020a63ffffffff8616028152600160a060020a0393841660048201529190921660248201526044810191909152606401602060405180830381600087803b151561364c57600080fd5b60206040519081016040526000815290565b6102806040519081016040908152600080835260208301819052908201819052606082018190526080820181905260a0820181905260c0820181905260e082018190526101008201819052610120820152610140810161376f6136ff565b815260200161377c6136ff565b8152600060208201526040016137906136ff565b81526020016000600160a060020a0316815260200160008152602001600081526020016000815260200160008152602001600081525090565b6101006040519081016040526008815b6000815260001990910190602001816137d957905050905600a165627a7a723058209db1c1640fe435dd9a6c46856adba3cfde25f6b0f8c376268364b772a4dbdfbe0029",
  "source": "/*\n\n  << Project Wyvern Exchange >>\n\n*/\n\npragma solidity 0.4.18;\n\nimport \"./exchange/Exchange.sol\";\n\n/**\n * @title WyvernExchange\n * @author Project Wyvern Developers\n */\ncontract WyvernExchange is Exchange {\n\n    string public constant name = \"Project Wyvern Exchange\";\n\n    /**\n     * @dev Initialize a WyvernExchange instance\n     * @param registryAddress Address of the registry instance which this Exchange instance will use\n     * @param tokenAddress Address of the token used for protocol fees\n     */\n    function WyvernExchange (ProxyRegistry registryAddress, ERC20 tokenAddress) public {\n        exchangeToken = tokenAddress;\n        registry = registryAddress;\n    }\n\n}\n",
  "sourcePath": "/home/cwgoes/working/crypto/wyvern/wyvern-ethereum/contracts/WyvernExchange.sol",
  "compiler": {
    "name": "solc",
    "version": "0.4.18+commit.9cf6e910.Emscripten.clang"
  },
  "schemaVersion": "1.0.1",
  "updatedAt": "2018-02-02T20:42:09.180Z"
}