{
  "contractName": "WyvernExchange",
  "abi": [
    {
      "constant": true,
      "inputs": [],
      "name": "name",
      "outputs": [
        {
          "name": "",
          "type": "string"
        }
      ],
      "payable": false,
      "stateMutability": "view",
      "type": "function"
    },
    {
      "constant": true,
      "inputs": [],
      "name": "tokenTransferProxy",
      "outputs": [
        {
          "name": "",
          "type": "address"
        }
      ],
      "payable": false,
      "stateMutability": "view",
      "type": "function"
    },
    {
      "constant": true,
      "inputs": [
        {
          "name": "target",
          "type": "address"
        },
        {
          "name": "calldata",
          "type": "bytes"
        },
        {
          "name": "extradata",
          "type": "bytes"
        }
      ],
      "name": "staticCall",
      "outputs": [
        {
          "name": "result",
          "type": "bool"
        }
      ],
      "payable": false,
      "stateMutability": "view",
      "type": "function"
    },
    {
      "constant": false,
      "inputs": [
        {
          "name": "newMinimumMakerProtocolFee",
          "type": "uint256"
        }
      ],
      "name": "changeMinimumMakerProtocolFee",
      "outputs": [],
      "payable": false,
      "stateMutability": "nonpayable",
      "type": "function"
    },
    {
      "constant": false,
      "inputs": [
        {
          "name": "newMinimumTakerProtocolFee",
          "type": "uint256"
        }
      ],
      "name": "changeMinimumTakerProtocolFee",
      "outputs": [],
      "payable": false,
      "stateMutability": "nonpayable",
      "type": "function"
    },
    {
      "constant": true,
      "inputs": [
        {
          "name": "array",
          "type": "bytes"
        },
        {
          "name": "desired",
          "type": "bytes"
        },
        {
          "name": "mask",
          "type": "bytes"
        }
      ],
      "name": "guardedArrayReplace",
      "outputs": [
        {
          "name": "",
          "type": "bytes"
        }
      ],
      "payable": false,
      "stateMutability": "pure",
      "type": "function"
    },
    {
      "constant": true,
      "inputs": [],
      "name": "minimumTakerProtocolFee",
      "outputs": [
        {
          "name": "",
          "type": "uint256"
        }
      ],
      "payable": false,
      "stateMutability": "view",
      "type": "function"
    },
    {
      "constant": true,
      "inputs": [],
      "name": "codename",
      "outputs": [
        {
          "name": "",
          "type": "string"
        }
      ],
      "payable": false,
      "stateMutability": "view",
      "type": "function"
    },
    {
      "constant": true,
      "inputs": [
        {
          "name": "addr",
          "type": "address"
        }
      ],
      "name": "testCopyAddress",
      "outputs": [
        {
          "name": "",
          "type": "bytes"
        }
      ],
      "payable": false,
      "stateMutability": "pure",
      "type": "function"
    },
    {
      "constant": true,
      "inputs": [
        {
          "name": "arrToCopy",
          "type": "bytes"
        }
      ],
      "name": "testCopy",
      "outputs": [
        {
          "name": "",
          "type": "bytes"
        }
      ],
      "payable": false,
      "stateMutability": "pure",
      "type": "function"
    },
    {
      "constant": true,
      "inputs": [
        {
          "name": "addrs",
          "type": "address[7]"
        },
        {
          "name": "uints",
          "type": "uint256[9]"
        },
        {
          "name": "feeMethod",
          "type": "uint8"
        },
        {
          "name": "side",
          "type": "uint8"
        },
        {
          "name": "saleKind",
          "type": "uint8"
        },
        {
          "name": "howToCall",
          "type": "uint8"
        },
        {
          "name": "calldata",
          "type": "bytes"
        },
        {
          "name": "replacementPattern",
          "type": "bytes"
        },
        {
          "name": "staticExtradata",
          "type": "bytes"
        }
      ],
      "name": "calculateCurrentPrice_",
      "outputs": [
        {
          "name": "",
          "type": "uint256"
        }
      ],
      "payable": false,
      "stateMutability": "view",
      "type": "function"
    },
    {
      "constant": false,
      "inputs": [
        {
          "name": "newProtocolFeeRecipient",
          "type": "address"
        }
      ],
      "name": "changeProtocolFeeRecipient",
      "outputs": [],
      "payable": false,
      "stateMutability": "nonpayable",
      "type": "function"
    },
    {
      "constant": true,
      "inputs": [],
      "name": "version",
      "outputs": [
        {
          "name": "",
          "type": "string"
        }
      ],
      "payable": false,
      "stateMutability": "view",
      "type": "function"
    },
    {
      "constant": true,
      "inputs": [
        {
          "name": "buyCalldata",
          "type": "bytes"
        },
        {
          "name": "buyReplacementPattern",
          "type": "bytes"
        },
        {
          "name": "sellCalldata",
          "type": "bytes"
        },
        {
          "name": "sellReplacementPattern",
          "type": "bytes"
        }
      ],
      "name": "orderCalldataCanMatch",
      "outputs": [
        {
          "name": "",
          "type": "bool"
        }
      ],
      "payable": false,
      "stateMutability": "pure",
      "type": "function"
    },
    {
      "constant": true,
      "inputs": [
        {
          "name": "addrs",
          "type": "address[7]"
        },
        {
          "name": "uints",
          "type": "uint256[9]"
        },
        {
          "name": "feeMethod",
          "type": "uint8"
        },
        {
          "name": "side",
          "type": "uint8"
        },
        {
          "name": "saleKind",
          "type": "uint8"
        },
        {
          "name": "howToCall",
          "type": "uint8"
        },
        {
          "name": "calldata",
          "type": "bytes"
        },
        {
          "name": "replacementPattern",
          "type": "bytes"
        },
        {
          "name": "staticExtradata",
          "type": "bytes"
        },
        {
          "name": "v",
          "type": "uint8"
        },
        {
          "name": "r",
          "type": "bytes32"
        },
        {
          "name": "s",
          "type": "bytes32"
        }
      ],
      "name": "validateOrder_",
      "outputs": [
        {
          "name": "",
          "type": "bool"
        }
      ],
      "payable": false,
      "stateMutability": "view",
      "type": "function"
    },
    {
      "constant": true,
      "inputs": [
        {
          "name": "side",
          "type": "uint8"
        },
        {
          "name": "saleKind",
          "type": "uint8"
        },
        {
          "name": "basePrice",
          "type": "uint256"
        },
        {
          "name": "extra",
          "type": "uint256"
        },
        {
          "name": "listingTime",
          "type": "uint256"
        },
        {
          "name": "expirationTime",
          "type": "uint256"
        }
      ],
      "name": "calculateFinalPrice",
      "outputs": [
        {
          "name": "",
          "type": "uint256"
        }
      ],
      "payable": false,
      "stateMutability": "view",
      "type": "function"
    },
    {
      "constant": true,
      "inputs": [],
      "name": "protocolFeeRecipient",
      "outputs": [
        {
          "name": "",
          "type": "address"
        }
      ],
      "payable": false,
      "stateMutability": "view",
      "type": "function"
    },
    {
      "constant": true,
      "inputs": [
        {
          "name": "addrs",
          "type": "address[7]"
        },
        {
          "name": "uints",
          "type": "uint256[9]"
        },
        {
          "name": "feeMethod",
          "type": "uint8"
        },
        {
          "name": "side",
          "type": "uint8"
        },
        {
          "name": "saleKind",
          "type": "uint8"
        },
        {
          "name": "howToCall",
          "type": "uint8"
        },
        {
          "name": "calldata",
          "type": "bytes"
        },
        {
          "name": "replacementPattern",
          "type": "bytes"
        },
        {
          "name": "staticExtradata",
          "type": "bytes"
        }
      ],
      "name": "hashOrder_",
      "outputs": [
        {
          "name": "",
          "type": "bytes32"
        }
      ],
      "payable": false,
      "stateMutability": "pure",
      "type": "function"
    },
    {
      "constant": true,
      "inputs": [
        {
          "name": "addrs",
          "type": "address[14]"
        },
        {
          "name": "uints",
          "type": "uint256[18]"
        },
        {
          "name": "feeMethodsSidesKindsHowToCalls",
          "type": "uint8[8]"
        },
        {
          "name": "calldataBuy",
          "type": "bytes"
        },
        {
          "name": "calldataSell",
          "type": "bytes"
        },
        {
          "name": "replacementPatternBuy",
          "type": "bytes"
        },
        {
          "name": "replacementPatternSell",
          "type": "bytes"
        },
        {
          "name": "staticExtradataBuy",
          "type": "bytes"
        },
        {
          "name": "staticExtradataSell",
          "type": "bytes"
        }
      ],
      "name": "ordersCanMatch_",
      "outputs": [
        {
          "name": "",
          "type": "bool"
        }
      ],
      "payable": false,
      "stateMutability": "view",
      "type": "function"
    },
    {
      "constant": false,
      "inputs": [
        {
          "name": "addrs",
          "type": "address[7]"
        },
        {
          "name": "uints",
          "type": "uint256[9]"
        },
        {
          "name": "feeMethod",
          "type": "uint8"
        },
        {
          "name": "side",
          "type": "uint8"
        },
        {
          "name": "saleKind",
          "type": "uint8"
        },
        {
          "name": "howToCall",
          "type": "uint8"
        },
        {
          "name": "calldata",
          "type": "bytes"
        },
        {
          "name": "replacementPattern",
          "type": "bytes"
        },
        {
          "name": "staticExtradata",
          "type": "bytes"
        },
        {
          "name": "orderbookInclusionDesired",
          "type": "bool"
        }
      ],
      "name": "approveOrder_",
      "outputs": [],
      "payable": false,
      "stateMutability": "nonpayable",
      "type": "function"
    },
    {
      "constant": true,
      "inputs": [],
      "name": "registry",
      "outputs": [
        {
          "name": "",
          "type": "address"
        }
      ],
      "payable": false,
      "stateMutability": "view",
      "type": "function"
    },
    {
      "constant": true,
      "inputs": [],
      "name": "minimumMakerProtocolFee",
      "outputs": [
        {
          "name": "",
          "type": "uint256"
        }
      ],
      "payable": false,
      "stateMutability": "view",
      "type": "function"
    },
    {
      "constant": true,
      "inputs": [
        {
          "name": "addrs",
          "type": "address[7]"
        },
        {
          "name": "uints",
          "type": "uint256[9]"
        },
        {
          "name": "feeMethod",
          "type": "uint8"
        },
        {
          "name": "side",
          "type": "uint8"
        },
        {
          "name": "saleKind",
          "type": "uint8"
        },
        {
          "name": "howToCall",
          "type": "uint8"
        },
        {
          "name": "calldata",
          "type": "bytes"
        },
        {
          "name": "replacementPattern",
          "type": "bytes"
        },
        {
          "name": "staticExtradata",
          "type": "bytes"
        }
      ],
      "name": "hashToSign_",
      "outputs": [
        {
          "name": "",
          "type": "bytes32"
        }
      ],
      "payable": false,
      "stateMutability": "pure",
      "type": "function"
    },
    {
      "constant": true,
      "inputs": [
        {
          "name": "",
          "type": "bytes32"
        }
      ],
      "name": "cancelledOrFinalized",
      "outputs": [
        {
          "name": "",
          "type": "bool"
        }
      ],
      "payable": false,
      "stateMutability": "view",
      "type": "function"
    },
    {
      "constant": true,
      "inputs": [],
      "name": "owner",
      "outputs": [
        {
          "name": "",
          "type": "address"
        }
      ],
      "payable": false,
      "stateMutability": "view",
      "type": "function"
    },
    {
      "constant": true,
      "inputs": [],
      "name": "exchangeToken",
      "outputs": [
        {
          "name": "",
          "type": "address"
        }
      ],
      "payable": false,
      "stateMutability": "view",
      "type": "function"
    },
    {
      "constant": false,
      "inputs": [
        {
          "name": "addrs",
          "type": "address[7]"
        },
        {
          "name": "uints",
          "type": "uint256[9]"
        },
        {
          "name": "feeMethod",
          "type": "uint8"
        },
        {
          "name": "side",
          "type": "uint8"
        },
        {
          "name": "saleKind",
          "type": "uint8"
        },
        {
          "name": "howToCall",
          "type": "uint8"
        },
        {
          "name": "calldata",
          "type": "bytes"
        },
        {
          "name": "replacementPattern",
          "type": "bytes"
        },
        {
          "name": "staticExtradata",
          "type": "bytes"
        },
        {
          "name": "v",
          "type": "uint8"
        },
        {
          "name": "r",
          "type": "bytes32"
        },
        {
          "name": "s",
          "type": "bytes32"
        }
      ],
      "name": "cancelOrder_",
      "outputs": [],
      "payable": false,
      "stateMutability": "nonpayable",
      "type": "function"
    },
    {
      "constant": false,
      "inputs": [
        {
          "name": "addrs",
          "type": "address[14]"
        },
        {
          "name": "uints",
          "type": "uint256[18]"
        },
        {
          "name": "feeMethodsSidesKindsHowToCalls",
          "type": "uint8[8]"
        },
        {
          "name": "calldataBuy",
          "type": "bytes"
        },
        {
          "name": "calldataSell",
          "type": "bytes"
        },
        {
          "name": "replacementPatternBuy",
          "type": "bytes"
        },
        {
          "name": "replacementPatternSell",
          "type": "bytes"
        },
        {
          "name": "staticExtradataBuy",
          "type": "bytes"
        },
        {
          "name": "staticExtradataSell",
          "type": "bytes"
        },
        {
          "name": "vs",
          "type": "uint8[2]"
        },
        {
          "name": "rssMetadata",
          "type": "bytes32[5]"
        }
      ],
      "name": "atomicMatch_",
      "outputs": [],
      "payable": true,
      "stateMutability": "payable",
      "type": "function"
    },
    {
      "constant": true,
      "inputs": [
        {
          "name": "addrs",
          "type": "address[7]"
        },
        {
          "name": "uints",
          "type": "uint256[9]"
        },
        {
          "name": "feeMethod",
          "type": "uint8"
        },
        {
          "name": "side",
          "type": "uint8"
        },
        {
          "name": "saleKind",
          "type": "uint8"
        },
        {
          "name": "howToCall",
          "type": "uint8"
        },
        {
          "name": "calldata",
          "type": "bytes"
        },
        {
          "name": "replacementPattern",
          "type": "bytes"
        },
        {
          "name": "staticExtradata",
          "type": "bytes"
        }
      ],
      "name": "validateOrderParameters_",
      "outputs": [
        {
          "name": "",
          "type": "bool"
        }
      ],
      "payable": false,
      "stateMutability": "view",
      "type": "function"
    },
    {
      "constant": true,
      "inputs": [],
      "name": "INVERSE_BASIS_POINT",
      "outputs": [
        {
          "name": "",
          "type": "uint256"
        }
      ],
      "payable": false,
      "stateMutability": "view",
      "type": "function"
    },
    {
      "constant": true,
      "inputs": [
        {
          "name": "addrs",
          "type": "address[14]"
        },
        {
          "name": "uints",
          "type": "uint256[18]"
        },
        {
          "name": "feeMethodsSidesKindsHowToCalls",
          "type": "uint8[8]"
        },
        {
          "name": "calldataBuy",
          "type": "bytes"
        },
        {
          "name": "calldataSell",
          "type": "bytes"
        },
        {
          "name": "replacementPatternBuy",
          "type": "bytes"
        },
        {
          "name": "replacementPatternSell",
          "type": "bytes"
        },
        {
          "name": "staticExtradataBuy",
          "type": "bytes"
        },
        {
          "name": "staticExtradataSell",
          "type": "bytes"
        }
      ],
      "name": "calculateMatchPrice_",
      "outputs": [
        {
          "name": "",
          "type": "uint256"
        }
      ],
      "payable": false,
      "stateMutability": "view",
      "type": "function"
    },
    {
      "constant": true,
      "inputs": [
        {
          "name": "",
          "type": "bytes32"
        }
      ],
      "name": "approvedOrders",
      "outputs": [
        {
          "name": "",
          "type": "bool"
        }
      ],
      "payable": false,
      "stateMutability": "view",
      "type": "function"
    },
    {
      "constant": false,
      "inputs": [
        {
          "name": "newOwner",
          "type": "address"
        }
      ],
      "name": "transferOwnership",
      "outputs": [],
      "payable": false,
      "stateMutability": "nonpayable",
      "type": "function"
    },
    {
      "inputs": [
        {
          "name": "registryAddress",
          "type": "address"
        },
        {
          "name": "tokenTransferProxyAddress",
          "type": "address"
        },
        {
          "name": "tokenAddress",
          "type": "address"
        },
        {
          "name": "protocolFeeAddress",
          "type": "address"
        }
      ],
      "payable": false,
      "stateMutability": "nonpayable",
      "type": "constructor"
    },
    {
      "anonymous": false,
      "inputs": [
        {
          "indexed": true,
          "name": "hash",
          "type": "bytes32"
        },
        {
          "indexed": false,
          "name": "exchange",
          "type": "address"
        },
        {
          "indexed": true,
          "name": "maker",
          "type": "address"
        },
        {
          "indexed": false,
          "name": "taker",
          "type": "address"
        },
        {
          "indexed": false,
          "name": "makerRelayerFee",
          "type": "uint256"
        },
        {
          "indexed": false,
          "name": "takerRelayerFee",
          "type": "uint256"
        },
        {
          "indexed": false,
          "name": "makerProtocolFee",
          "type": "uint256"
        },
        {
          "indexed": false,
          "name": "takerProtocolFee",
          "type": "uint256"
        },
        {
          "indexed": true,
          "name": "feeRecipient",
          "type": "address"
        },
        {
          "indexed": false,
          "name": "feeMethod",
          "type": "uint8"
        },
        {
          "indexed": false,
          "name": "side",
          "type": "uint8"
        },
        {
          "indexed": false,
          "name": "saleKind",
          "type": "uint8"
        },
        {
          "indexed": false,
          "name": "target",
          "type": "address"
        }
      ],
      "name": "OrderApprovedPartOne",
      "type": "event"
    },
    {
      "anonymous": false,
      "inputs": [
        {
          "indexed": true,
          "name": "hash",
          "type": "bytes32"
        },
        {
          "indexed": false,
          "name": "howToCall",
          "type": "uint8"
        },
        {
          "indexed": false,
          "name": "calldata",
          "type": "bytes"
        },
        {
          "indexed": false,
          "name": "replacementPattern",
          "type": "bytes"
        },
        {
          "indexed": false,
          "name": "staticTarget",
          "type": "address"
        },
        {
          "indexed": false,
          "name": "staticExtradata",
          "type": "bytes"
        },
        {
          "indexed": false,
          "name": "paymentToken",
          "type": "address"
        },
        {
          "indexed": false,
          "name": "basePrice",
          "type": "uint256"
        },
        {
          "indexed": false,
          "name": "extra",
          "type": "uint256"
        },
        {
          "indexed": false,
          "name": "listingTime",
          "type": "uint256"
        },
        {
          "indexed": false,
          "name": "expirationTime",
          "type": "uint256"
        },
        {
          "indexed": false,
          "name": "salt",
          "type": "uint256"
        },
        {
          "indexed": false,
          "name": "orderbookInclusionDesired",
          "type": "bool"
        }
      ],
      "name": "OrderApprovedPartTwo",
      "type": "event"
    },
    {
      "anonymous": false,
      "inputs": [
        {
          "indexed": true,
          "name": "hash",
          "type": "bytes32"
        }
      ],
      "name": "OrderCancelled",
      "type": "event"
    },
    {
      "anonymous": false,
      "inputs": [
        {
          "indexed": false,
          "name": "buyHash",
          "type": "bytes32"
        },
        {
          "indexed": false,
          "name": "sellHash",
          "type": "bytes32"
        },
        {
          "indexed": true,
          "name": "maker",
          "type": "address"
        },
        {
          "indexed": true,
          "name": "taker",
          "type": "address"
        },
        {
          "indexed": false,
          "name": "price",
          "type": "uint256"
        },
        {
          "indexed": true,
          "name": "metadata",
          "type": "bytes32"
        }
      ],
      "name": "OrdersMatched",
      "type": "event"
    },
    {
      "anonymous": false,
      "inputs": [
        {
          "indexed": true,
          "name": "previousOwner",
          "type": "address"
        },
        {
          "indexed": true,
          "name": "newOwner",
          "type": "address"
        }
      ],
      "name": "OwnershipTransferred",
      "type": "event"
    }
  ],
  "bytecode": "0x60806040526000805460ff19168155600681905560075534801561002257600080fd5b50604051608080614c2d83398101604090815281516020830151918301516060909301516000805460028054600160a060020a03958616600160a060020a0319918216179091556003805496861696821696909617909555600180549685169686169690961790955560088054928416929094169190911790925533166101000261010060a860020a031992831681179092169091179055614b64806100c96000396000f3006080604052600436106101a05763ffffffff7c010000000000000000000000000000000000000000000000000000000060003504166306fdde0381146101a55780630eefdbad1461022f57806310796a471461026057806314350c24146103195780631a6b13e214610333578063239e83df1461034b57806328a8ee681461042057806331e63199146104475780633464af6a1461045c5780633e1e292a1461047d5780633f67ee0d146104d6578063514f03301461061b57806354fd4d501461063c578063562b2ebc1461065157806360bef33a1461076457806363d36c0b146108b857806364df049e146108e557806371d02b38146108fa57806372593b4c14610a3f5780637966686814610c465780637b10399914610d8f5780637ccefc5214610da45780637d76698114610db95780638076f00514610efe5780638da5cb5b14610f16578063a25eb5d914610f2b578063a8a41c7014610f40578063ab834bab14611094578063ca595b9a146112d7578063cae6047f1461141c578063d537e13114611431578063e57d4adb14611638578063f2fde38b14611650575b600080fd5b3480156101b157600080fd5b506101ba611671565b6040805160208082528351818301528351919283929083019185019080838360005b838110156101f45781810151838201526020016101dc565b50505050905090810190601f1680156102215780820380516001836020036101000a031916815260200191505b509250505060405180910390f35b34801561023b57600080fd5b506102446116a8565b60408051600160a060020a039092168252519081900360200190f35b34801561026c57600080fd5b5060408051602060046024803582810135601f8101859004850286018501909652858552610305958335600160a060020a031695369560449491939091019190819084018382808284375050604080516020601f89358b018035918201839004830284018301909452808352979a9998810197919650918201945092508291508401838280828437509497506116b79650505050505050565b604080519115158252519081900360200190f35b34801561032557600080fd5b50610331600435611726565b005b34801561033f57600080fd5b5061033160043561174b565b34801561035757600080fd5b506040805160206004803580820135601f81018490048402850184019095528484526101ba94369492936024939284019190819084018382808284375050604080516020601f89358b018035918201839004830284018301909452808352979a99988101979196509182019450925082915084018382808284375050604080516020601f89358b018035918201839004830284018301909452808352979a9998810197919650918201945092508291508401838280828437509497506117709650505050505050565b34801561042c57600080fd5b50610435611787565b60408051918252519081900360200190f35b34801561045357600080fd5b506101ba61178d565b34801561046857600080fd5b506101ba600160a060020a03600435166117c4565b34801561048957600080fd5b506040805160206004803580820135601f81018490048402850184019095528484526101ba9436949293602493928401919081908401838280828437509497506118049650505050505050565b3480156104e257600080fd5b506040805160e081810190925261043591369160049160e49190839060079083908390808284375050604080516101208181019092529497969581810195945092506009915083908390808284375050604080516020601f60808901358a0180359182018390048302840183018552818452979a60ff8a3581169b848c013582169b9687013582169a6060880135909216995091975090955060a090940193820191819084018382808284375050604080516020601f89358b018035918201839004830284018301909452808352979a99988101979196509182019450925082915084018382808284375050604080516020601f89358b018035918201839004830284018301909452808352979a99988101979196509182019450925082915084018382808284375094975061184a9650505050505050565b34801561062757600080fd5b50610331600160a060020a0360043516611998565b34801561064857600080fd5b506101ba6119e7565b34801561065d57600080fd5b506040805160206004803580820135601f810184900484028501840190955284845261030594369492936024939284019190819084018382808284375050604080516020601f89358b018035918201839004830284018301909452808352979a99988101979196509182019450925082915084018382808284375050604080516020601f89358b018035918201839004830284018301909452808352979a99988101979196509182019450925082915084018382808284375050604080516020601f89358b018035918201839004830284018301909452808352979a999881019791965091820194509250829150840183828082843750949750611a1e9650505050505050565b34801561077057600080fd5b506040805160e081810190925261030591369160049160e49190839060079083908390808284375050604080516101208181019092529497969581810195945092506009915083908390808284375050604080516020601f60808901358a0180359182018390048302840183018552818452979a60ff8a3581169b848c013582169b9687013582169a6060880135909216995091975090955060a090940193820191819084018382808284375050604080516020601f89358b018035918201839004830284018301909452808352979a99988101979196509182019450925082915084018382808284375050604080516020601f89358b018035918201839004830284018301909452808352979a9998810197919650918201945092508291508401838280828437509497505050833560ff1694505050602082013591604001359050611a5c565b3480156108c457600080fd5b5061043560ff6004358116906024351660443560643560843560a435611c4b565b3480156108f157600080fd5b50610244611c66565b34801561090657600080fd5b506040805160e081810190925261043591369160049160e49190839060079083908390808284375050604080516101208181019092529497969581810195945092506009915083908390808284375050604080516020601f60808901358a0180359182018390048302840183018552818452979a60ff8a3581169b848c013582169b9687013582169a6060880135909216995091975090955060a090940193820191819084018382808284375050604080516020601f89358b018035918201839004830284018301909452808352979a99988101979196509182019450925082915084018382808284375050604080516020601f89358b018035918201839004830284018301909452808352979a999881019791965091820194509250829150840183828082843750949750611c759650505050505050565b348015610a4b57600080fd5b50604080516101c08181019092526103059136916004916101c491908390600e9083908390808284375050604080516102408181019092529497969581810195945092506012915083908390808284375050604080516101008181019092529497969581810195945092506008915083908390808284375050604080516020601f88358a0180359182018390048302840183019094528083529699989781019691955091820193509150819084018382808284375050604080516020601f89358b018035918201839004830284018301909452808352979a99988101979196509182019450925082915084018382808284375050604080516020601f89358b018035918201839004830284018301909452808352979a99988101979196509182019450925082915084018382808284375050604080516020601f89358b018035918201839004830284018301909452808352979a99988101979196509182019450925082915084018382808284375050604080516020601f89358b018035918201839004830284018301909452808352979a99988101979196509182019450925082915084018382808284375050604080516020601f89358b018035918201839004830284018301909452808352979a999881019791965091820194509250829150840183828082843750949750611db59650505050505050565b348015610c5257600080fd5b506040805160e081810190925261033191369160049160e49190839060079083908390808284375050604080516101208181019092529497969581810195945092506009915083908390808284375050604080516020601f60808901358a0180359182018390048302840183018552818452979a60ff8a3581169b848c013582169b9687013582169a6060880135909216995091975090955060a090940193820191819084018382808284375050604080516020601f89358b018035918201839004830284018301909452808352979a99988101979196509182019450925082915084018382808284375050604080516020601f89358b018035918201839004830284018301909452808352979a9998810197919650918201945092508291508401838280828437509497505050509135151592506121a1915050565b348015610d9b57600080fd5b506102446122f6565b348015610db057600080fd5b50610435612305565b348015610dc557600080fd5b506040805160e081810190925261043591369160049160e49190839060079083908390808284375050604080516101208181019092529497969581810195945092506009915083908390808284375050604080516020601f60808901358a0180359182018390048302840183018552818452979a60ff8a3581169b848c013582169b9687013582169a6060880135909216995091975090955060a090940193820191819084018382808284375050604080516020601f89358b018035918201839004830284018301909452808352979a99988101979196509182019450925082915084018382808284375050604080516020601f89358b018035918201839004830284018301909452808352979a99988101979196509182019450925082915084018382808284375094975061230b9650505050505050565b348015610f0a57600080fd5b5061030560043561244b565b348015610f2257600080fd5b50610244612460565b348015610f3757600080fd5b50610244612474565b348015610f4c57600080fd5b506040805160e081810190925261033191369160049160e49190839060079083908390808284375050604080516101208181019092529497969581810195945092506009915083908390808284375050604080516020601f60808901358a0180359182018390048302840183018552818452979a60ff8a3581169b848c013582169b9687013582169a6060880135909216995091975090955060a090940193820191819084018382808284375050604080516020601f89358b018035918201839004830284018301909452808352979a99988101979196509182019450925082915084018382808284375050604080516020601f89358b018035918201839004830284018301909452808352979a9998810197919650918201945092508291508401838280828437509497505050833560ff1694505050602082013591604001359050612483565b604080516101c08181019092526103319136916004916101c491908390600e9083908390808284375050604080516102408181019092529497969581810195945092506012915083908390808284375050604080516101008181019092529497969581810195945092506008915083908390808284375050604080516020601f88358a0180359182018390048302840183019094528083529699989781019691955091820193509150819084018382808284375050604080516020601f89358b018035918201839004830284018301909452808352979a99988101979196509182019450925082915084018382808284375050604080516020601f89358b018035918201839004830284018301909452808352979a99988101979196509182019450925082915084018382808284375050604080516020601f89358b018035918201839004830284018301909452808352979a99988101979196509182019450925082915084018382808284375050604080516020601f89358b018035918201839004830284018301909452808352979a99988101979196509182019450925082915084018382808284375050604080516020601f89358b018035918201839004830284018301909452808352979a999881019791965091820194509250829150840183828082843750506040805180820182529598979681810196955093506002925084915083908082843750506040805160a08181019092529497969581810195945092506005915083908390808284375093965061265995505050505050565b3480156112e357600080fd5b506040805160e081810190925261030591369160049160e49190839060079083908390808284375050604080516101208181019092529497969581810195945092506009915083908390808284375050604080516020601f60808901358a0180359182018390048302840183018552818452979a60ff8a3581169b848c013582169b9687013582169a6060880135909216995091975090955060a090940193820191819084018382808284375050604080516020601f89358b018035918201839004830284018301909452808352979a99988101979196509182019450925082915084018382808284375050604080516020601f89358b018035918201839004830284018301909452808352979a999881019791965091820194509250829150840183828082843750949750612a6f9650505050505050565b34801561142857600080fd5b50610435612bc7565b34801561143d57600080fd5b50604080516101c08181019092526104359136916004916101c491908390600e9083908390808284375050604080516102408181019092529497969581810195945092506012915083908390808284375050604080516101008181019092529497969581810195945092506008915083908390808284375050604080516020601f88358a0180359182018390048302840183019094528083529699989781019691955091820193509150819084018382808284375050604080516020601f89358b018035918201839004830284018301909452808352979a99988101979196509182019450925082915084018382808284375050604080516020601f89358b018035918201839004830284018301909452808352979a99988101979196509182019450925082915084018382808284375050604080516020601f89358b018035918201839004830284018301909452808352979a99988101979196509182019450925082915084018382808284375050604080516020601f89358b018035918201839004830284018301909452808352979a99988101979196509182019450925082915084018382808284375050604080516020601f89358b018035918201839004830284018301909452808352979a999881019791965091820194509250829150840183828082843750949750612bcd9650505050505050565b34801561164457600080fd5b50610305600435612fa9565b34801561165c57600080fd5b50610331600160a060020a0360043516612fbe565b60408051808201909152601781527f50726f6a6563742057797665726e2045786368616e6765000000000000000000602082015281565b600354600160a060020a031681565b60006060600083518551016040519080825280601f01601f1916602001820160405280156116ef578160200160208202803883390190505b50915050602081016117018185613066565b905061170d8186613066565b506000604051835160208501895afa9695505050505050565b60005433600160a060020a03908116610100909204161461174657600080fd5b600655565b60005433600160a060020a03908116610100909204161461176b57600080fd5b600755565b606061177d8484846130ac565b50825b9392505050565b60075481565b60408051808201909152600881527f42616b756e617761000000000000000000000000000000000000000000000000602082015281565b6040805160148082528183019092526060918291600091602082016102808038833901905050915050602081016117fb818561322c565b50909392505050565b606080600083516040519080825280601f01601f191660200182016040528015611838578160200160208202803883390190505b50915050602081016117fb8185613066565b604080516102e0810182528a51600160a060020a0390811682526020808d01518216818401528c8401518216838501528b51606080850191909152908c01516080840152928b015160a08301528a83015160c0830152918b015190911660e082015260009061198a9061010081018a60018111156118c457fe5b81526020018960018111156118d557fe5b81526020018860018111156118e657fe5b815260808d0151600160a060020a0316602082015260400187600181111561190a57fe5b8152602081018790526040810186905260a0808e0151600160a060020a0316606083015260808201869052018c600660209081029190910151600160a060020a031682526080808e01519183019190915260a0808e0151604084015260c08e0151606084015260e08e0151918301919091526101008d015191015261324c565b9a9950505050505050505050565b60005433600160a060020a0390811661010090920416146119b857600080fd5b6008805473ffffffffffffffffffffffffffffffffffffffff1916600160a060020a0392909216919091179055565b60408051808201909152600181527f3200000000000000000000000000000000000000000000000000000000000000602082015281565b60008084511115611a3457611a348584866130ac565b600082511115611a4957611a498386846130ac565b611a538584613282565b95945050505050565b6000611a66614a74565b604080516102e08101909152808f600060209081029190910151600160a060020a03168252018f600160209081029190910151600160a060020a03168252018f600260209081029190910151600160a060020a03168252018e6000602090810291909101518252018e6001602090810291909101518252018e6002602090810291909101518252018e6003602090810291909101518252018f60036020020151600160a060020a031681526020018d6001811115611b2057fe5b81526020018c6001811115611b3157fe5b81526020018b6001811115611b4257fe5b81526020018f60046020020151600160a060020a031681526020018a6001811115611b6957fe5b8152602081018a9052604081018990526060018f60056020020151600160a060020a031681526020018781526020018f6006600781101515611ba757fe5b60209081029190910151600160a060020a03168252018e6004602090810291909101518252018e6005602090810291909101518252018e6006602090810291909101518252018e6007602090810291909101518252018e6008602002015190529050611c39611c15826132e6565b6040805160608101825260ff89168152602081018890529081018690528390613331565b9e9d5050505050505050505050505050565b6000611c5b878787878787613426565b979650505050505050565b600854600160a060020a031681565b604080516102e0810182528a51600160a060020a0390811682526020808d01518216818401528c8401518216838501528b51606080850191909152908c01516080840152928b015160a08301528a83015160c0830152918b015190911660e082015260009061198a9061010081018a6001811115611cef57fe5b8152602001896001811115611d0057fe5b8152602001886001811115611d1157fe5b815260808d0151600160a060020a03166020820152604001876001811115611d3557fe5b8152602081018790526040810186905260a0808e0151600160a060020a0316606083015260808201869052018c600660209081029190910151600160a060020a031682526080808e01519183019190915260a0808e0151604084015260c08e0151606084015260e08e0151918301919091526101008d01519101526134b9565b6000611dbf614a74565b611dc7614a74565b604080516102e08101909152808d600060209081029190910151600160a060020a03168252018d600160209081029190910151600160a060020a03168252018d600260209081029190910151600160a060020a03168252018c6000602090810291909101518252018c6001602090810291909101518252018c6002602090810291909101518252018c6003602090810291909101518252018d600360209081029190910151600160a060020a03168252018b6000602002015160ff166001811115611e8e57fe5b6001811115611e9957fe5b81526020018b6001602002015160ff166001811115611eb457fe5b6001811115611ebf57fe5b81526020018b6002602002015160ff166001811115611eda57fe5b6001811115611ee557fe5b815260808e0151600160a060020a0316602082015260608c015160409091019060ff166001811115611f1357fe5b6001811115611f1e57fe5b8152602081018b90526040810189905260a0808f0151600160a060020a0316606083015260808201889052018d600660209081029190910151600160a060020a03168252018c6004602090810291909101518252018c6005602090810291909101518252018c6006602090810291909101518252018c6007602090810291909101518252018c600860200201519052604080516102e08101909152909250808d600760209081029190910151600160a060020a03168252018d600860209081029190910151600160a060020a03168252018d600960209081029190910151600160a060020a03168252018c6009602090810291909101518252018c600a602090810291909101518252018c600b602090810291909101518252018c600c602090810291909101518252018d600a60209081029190910151600160a060020a03168252018b6004602002015160ff16600181111561207757fe5b600181111561208257fe5b81526020018b6005602002015160ff16600181111561209d57fe5b60018111156120a857fe5b81526020018b6006602002015160ff1660018111156120c357fe5b60018111156120ce57fe5b81526101608e0151600160a060020a0316602082015260e08c015160409091019060ff1660018111156120fd57fe5b600181111561210857fe5b8152602081018a9052604081018890526101808e0151600160a060020a031660608201526080810186905260a0018d600d60209081029190910151600160a060020a031682526101a08e0151908201526101c08d015160408201526101e08d015160608201526102008d015160808201526102208d015160a090910152905061219182826136a8565b9c9b505050505050505050505050565b6121a9614a74565b604080516102e0810182528c51600160a060020a0390811682526020808f01518216818401528e8401518216838501528d51606080850191909152908e01516080840152928d015160a08301528c83015160c0830152918d015190911660e082015261010081018a600181111561221c57fe5b815260200189600181111561222d57fe5b815260200188600181111561223e57fe5b815260808d0151600160a060020a0316602082015260400187600181111561226257fe5b8152602081018790526040810186905260a0808e0151600160a060020a0316606083015260808201869052018c600660209081029190910151600160a060020a031682526080808e01519183019190915260a0808e0151604084015260c08e0151606084015260e08e0151918301919091526101008d015191015290506122e98183613882565b5050505050505050505050565b600254600160a060020a031681565b60065481565b604080516102e0810182528a51600160a060020a0390811682526020808d01518216818401528c8401518216838501528b51606080850191909152908c01516080840152928b015160a08301528a83015160c0830152918b015190911660e082015260009061198a9061010081018a600181111561238557fe5b815260200189600181111561239657fe5b81526020018860018111156123a757fe5b815260808d0151600160a060020a031660208201526040018760018111156123cb57fe5b8152602081018790526040810186905260a0808e0151600160a060020a0316606083015260808201869052018c600660209081029190910151600160a060020a031682526080808e01519183019190915260a0808e0151604084015260c08e0151606084015260e08e0151918301919091526101008d01519101526132e6565b60046020526000908152604090205460ff1681565b6000546101009004600160a060020a031681565b600154600160a060020a031681565b604080516102e0810190915261264b90808e600060209081029190910151600160a060020a03168252018e600160209081029190910151600160a060020a03168252018e600260209081029190910151600160a060020a03168252018d6000602090810291909101518252018d6001602090810291909101518252018d6002602090810291909101518252018d6003602090810291909101518252018e60036020020151600160a060020a031681526020018c600181111561254157fe5b81526020018b600181111561255257fe5b81526020018a600181111561256357fe5b815260808f0151600160a060020a0316602082015260400189600181111561258757fe5b815260208101899052604081018890526060018e60056020020151600160a060020a031681526020018681526020018e60066007811015156125c557fe5b60209081029190910151600160a060020a03168252018d6004602090810291909101518252018d6005602090810291909101518252018d6006602090810291909101518252018d6007602090810291909101518252018d6008602090810291909101519091526040805160608101825260ff881681529182018690528101849052613c50565b505050505050505050505050565b604080516102e0810182528c51600160a060020a0390811682526020808f01518216818401528e8401518216838501528d51606080850191909152908e01516080840152928d015160a08301528c83015160c0830152918d015190911660e082015289516122e9919061010082019060ff1660018111156126d657fe5b60018111156126e157fe5b81526020018b6001602002015160ff1660018111156126fc57fe5b600181111561270757fe5b81526020018b6002602002015160ff16600181111561272257fe5b600181111561272d57fe5b815260808e0151600160a060020a0316602082015260608c015160409091019060ff16600181111561275b57fe5b600181111561276657fe5b8152602081018b90526040810189905260a0808f0151600160a060020a0316606083015260808201889052018d600660209081029190910151600160a060020a03168252018c6004602090810291909101518252018c6005602090810291909101518252018c6006602090810291909101518252018c6007602090810291909101518252018c6008602002015190526040805160608101909152808560006020908102919091015160ff168252018460006020908102919091015182520184600160200201519052604080516102e08101909152808f600760209081029190910151600160a060020a03168252018f600860209081029190910151600160a060020a03168252018f600960209081029190910151600160a060020a03168252018e6009602090810291909101518252018e600a602090810291909101518252018e600b602090810291909101518252018e600c602090810291909101518252018f600a60209081029190910151600160a060020a03168252018d6004602002015160ff1660018111156128f557fe5b600181111561290057fe5b81526020018d6005602002015160ff16600181111561291b57fe5b600181111561292657fe5b81526020018d6006602002015160ff16600181111561294157fe5b600181111561294c57fe5b81526020018f600b60209081029190910151600160a060020a03168252018d6007602002015160ff16600181111561298057fe5b600181111561298b57fe5b8152602081018c9052604081018a90526060018f600c6020020151600160a060020a031681526020018781526020018f600d600e811015156129c957fe5b60209081029190910151600160a060020a03168252018e600d602090810291909101518252018e600e602090810291909101518252018e600f602090810291909101518252018e6010602090810291909101518252018e6011602002015190526040805160608101909152808760016020908102919091015160ff1682520186600260209081029190910151825201866003602002015190528560046020020151613cc7565b6000612a79614a74565b604080516102e0810182528c51600160a060020a0390811682526020808f01518216818401528e8401518216838501528d51606080850191909152908e01516080840152928d015160a08301528c83015160c0830152918d015190911660e082015261010081018a6001811115612aec57fe5b8152602001896001811115612afd57fe5b8152602001886001811115612b0e57fe5b815260808d0151600160a060020a03166020820152604001876001811115612b3257fe5b8152602081018790526040810186905260a0808e0151600160a060020a0316606083015260808201869052018c600660209081029190910151600160a060020a031682526080808e01519183019190915260a0808e0151604084015260c08e0151606084015260e08e0151918301919091526101008d01519101529050612bb88161419d565b9b9a5050505050505050505050565b61271081565b6000612bd7614a74565b612bdf614a74565b604080516102e08101909152808d600060209081029190910151600160a060020a03168252018d600160209081029190910151600160a060020a03168252018d600260209081029190910151600160a060020a03168252018c6000602090810291909101518252018c6001602090810291909101518252018c6002602090810291909101518252018c6003602090810291909101518252018d600360209081029190910151600160a060020a03168252018b6000602002015160ff166001811115612ca657fe5b6001811115612cb157fe5b81526020018b6001602002015160ff166001811115612ccc57fe5b6001811115612cd757fe5b81526020018b6002602002015160ff166001811115612cf257fe5b6001811115612cfd57fe5b815260808e0151600160a060020a0316602082015260608c015160409091019060ff166001811115612d2b57fe5b6001811115612d3657fe5b8152602081018b90526040810189905260a0808f0151600160a060020a0316606083015260808201889052018d600660209081029190910151600160a060020a03168252018c6004602090810291909101518252018c6005602090810291909101518252018c6006602090810291909101518252018c6007602090810291909101518252018c600860200201519052604080516102e08101909152909250808d600760209081029190910151600160a060020a03168252018d600860209081029190910151600160a060020a03168252018d600960209081029190910151600160a060020a03168252018c6009602090810291909101518252018c600a602090810291909101518252018c600b602090810291909101518252018c600c602090810291909101518252018d600a60209081029190910151600160a060020a03168252018b6004602002015160ff166001811115612e8f57fe5b6001811115612e9a57fe5b81526020018b6005602002015160ff166001811115612eb557fe5b6001811115612ec057fe5b81526020018b6006602002015160ff166001811115612edb57fe5b6001811115612ee657fe5b81526101608e0151600160a060020a0316602082015260e08c015160409091019060ff166001811115612f1557fe5b6001811115612f2057fe5b8152602081018a9052604081018890526101808e0151600160a060020a031660608201526080810186905260a0018d600d60209081029190910151600160a060020a031682526101a08e0151908201526101c08d015160408201526101e08d015160608201526102008d015160808201526102208d015160a09091015290506121918282614231565b60056020526000908152604090205460ff1681565b60005433600160a060020a039081166101009092041614612fde57600080fd5b600160a060020a0381161515612ff357600080fd5b60008054604051600160a060020a038085169361010090930416917f8be0079c531659141344cd1fd0a4f28419497f9722a3daafe3b4186f6b6457e091a360008054600160a060020a039092166101000274ffffffffffffffffffffffffffffffffffffffff0019909216919091179055565b600080825111156130a357815180602001830160208401855b6001838310141561309a57815181526020918201910161307f565b50505092909201915b50815b92915050565b6000806000845186511415156130c157600080fd5b83518651146130cf57600080fd5b6130db865160206142c1565b92506130e88360206142d6565b9150600090505b82811015613114576001016020810284810151908701805182191690911790526130ef565b600083111561314257508451601e1981016020028481015190870180518219169091179052601f1901613224565b50805b855181101561322457848181518110151561315c57fe5b90602001015160f860020a900460f860020a02848281518110151561317d57fe5b90602001015160f860020a900460f860020a0216868281518110151561319f57fe5b90602001015160f860020a900460f860020a0285838151811015156131c057fe5b90602001015160f860020a900460f860020a0260ff60f860020a0218161786828151811015156131ec57fe5b9060200101907effffffffffffffffffffffffffffffffffffffffffffffffffffffffffffff1916908160001a905350600101613145565b505050505050565b600160a060020a03166c0100000000000000000000000002815260140190565b600061327a826101200151836101400151846102400151856102600151866102800151876102a00151613426565b90505b919050565b81518151600091600191811480831461329e57600092506132dc565b600160208701838101602088015b6002848385100114156132d75780518351146132cb5760009650600093505b602092830192016132ac565b505050505b5090949350505050565b60006132f1826134b9565b604080517f19457468657265756d205369676e6564204d6573736167653a0a3332000000008152601c8101929092525190819003603c0190209050919050565b600061333c8361419d565b151561334a57506000611780565b60008481526004602052604090205460ff161561336957506000611780565b60008481526005602052604090205460ff161561338857506001611780565b602080840151835184830151604080870151815160008082528188018085528c905260ff909516818401526060810193909352608083015251600160a060020a039093169360019360a0808401949293601f19830193908390039091019190865af11580156133fb573d6000803e3d6000fd5b50505060206040510351600160a060020a0316141561341c57506001611780565b5060009392505050565b6000808087600181111561343657fe5b1415613444578591506134ae565b600187600181111561345257fe5b14156134ae5761347d61346e8661346942886142ff565b6142d6565b61347885876142ff565b6142c1565b9050600188600181111561348d57fe5b14156134a45761349d86826142ff565b91506134ae565b61349d8682614311565b509695505050505050565b600080606060006134c98561431e565b9250826040519080825280601f01601f1916602001820160405280156134f9578160200160208202803883390190505b50915060208201905061351081866000015161322c565b905061352081866020015161322c565b905061353081866040015161322c565b905061354081866060015161433e565b905061355081866080015161433e565b9050613560818660a0015161433e565b9050613570818660c0015161433e565b9050613580818660e0015161322c565b905061359c81866101000151600181111561359757fe5b614346565b90506135b381866101200151600181111561359757fe5b90506135ca81866101400151600181111561359757fe5b90506135db8186610160015161322c565b90506135f281866101800151600181111561359757fe5b905061360381866101a00151613066565b905061361481866101c00151613066565b905061362581866101e0015161322c565b905061363681866102000151613066565b90506136478186610220015161322c565b90506136588186610240015161433e565b90506136698186610260015161433e565b905061367a8186610280015161433e565b905061368b81866102a0015161433e565b905061369c81866102c0015161433e565b50506020012092915050565b60008083610120015160018111156136bc57fe5b1480156136d95750600182610120015160018111156136d757fe5b145b8015613704575081610100015160018111156136f157fe5b836101000151600181111561370257fe5b145b801561372b5750816102200151600160a060020a0316836102200151600160a060020a0316145b801561376557506040820151600160a060020a0316158061376557508260200151600160a060020a03168260400151600160a060020a0316145b801561379f57506040830151600160a060020a0316158061379f57508160200151600160a060020a03168360400151600160a060020a0316145b80156137fa575060e0820151600160a060020a03161580156137cd575060e0830151600160a060020a031615155b806137fa575060e0820151600160a060020a0316158015906137fa575060e0830151600160a060020a0316155b80156138215750816101600151600160a060020a0316836101600151600160a060020a0316145b801561384c5750816101800151600181111561383957fe5b836101800151600181111561384a57fe5b145b80156138675750613867836102800151846102a00151614353565b80156117805750611780826102800151836102a00151614353565b60008260200151600160a060020a031633600160a060020a03161415156138a857600080fd5b6138b1836132e6565b60008181526005602052604090205490915060ff16156138d057600080fd5b600160056000836000191660001916815260200190815260200160002060006101000a81548160ff0219169083151502179055508260e00151600160a060020a03168360200151600160a060020a031682600019167f90c7f9f5b58c15f0f635bfb99f55d3d78fdbef3559e7d8abf5c81052a527662286600001518760400151886060015189608001518a60a001518b60c001518c61010001518d61012001518e61014001518f6101600151604051808b600160a060020a0316600160a060020a031681526020018a600160a060020a0316600160a060020a031681526020018981526020018881526020018781526020018681526020018560018111156139d457fe5b60ff1681526020018460018111156139e857fe5b60ff1681526020018360018111156139fc57fe5b60ff168152600160a060020a039092166020830152506040805191829003019950975050505050505050a480600019167fe55393c778364e440d958b39ac1debd99dcfae3775a8a04d1e79124adf6a2d08846101800151856101a00151866101c00151876101e001518861020001518961022001518a61024001518b61026001518c61028001518d6102a001518e6102c001518e604051808d6001811115613aa057fe5b60ff16815260200180602001806020018c600160a060020a0316600160a060020a03168152602001806020018b600160a060020a0316600160a060020a031681526020018a81526020018981526020018881526020018781526020018681526020018515151515815260200184810384528f818151815260200191508051906020019080838360005b83811015613b41578181015183820152602001613b29565b50505050905090810190601f168015613b6e5780820380516001836020036101000a031916815260200191505b5084810383528e818151815260200191508051906020019080838360005b83811015613ba4578181015183820152602001613b8c565b50505050905090810190601f168015613bd15780820380516001836020036101000a031916815260200191505b5084810382528c5181528c516020918201918e019080838360005b83811015613c04578181015183820152602001613bec565b50505050905090810190601f168015613c315780820380516001836020036101000a031916815260200191505b509f5050505050505050505050505050505060405180910390a2505050565b6000613c5c838361436f565b90508260200151600160a060020a031633600160a060020a0316141515613c8257600080fd5b600081815260046020526040808220805460ff191660011790555182917f5152abf959f6564662358c2e52b702259b78bac5ee7842a0f01937e670efcc7d91a2505050565b600080548190819081908190819060ff1615613ce257600080fd5b6000805460ff1916600117905560208b0151600160a060020a0390811633919091161415613d2357613d138b61419d565b1515613d1e57600080fd5b613d30565b613d2d8b8b61436f565b95505b33600160a060020a03168960200151600160a060020a03161415613d6757613d578961419d565b1515613d6257600080fd5b613d74565b613d71898961436f565b94505b613d7e8b8a6136a8565b1515613d8957600080fd5b610160890151803b9450925060008411613da257600080fd5b60008b6101c00151511115613dcb57613dcb8b6101a001518a6101a001518d6101c001516130ac565b6000896101c00151511115613df457613df4896101a001518c6101a001518b6101c001516130ac565b613e088b6101a001518a6101a00151613282565b1515613e1357600080fd5b6002546020808b0151604080517fc4552791000000000000000000000000000000000000000000000000000000008152600160a060020a0392831660048201529051919093169263c45527919260248083019391928290030181600087803b158015613e7e57600080fd5b505af1158015613e92573d6000803e3d6000fd5b505050506040513d6020811015613ea857600080fd5b50519150600160a060020a0382161515613ec157600080fd5b8a60200151600160a060020a031633600160a060020a0316141515613efa576000868152600460205260409020805460ff191660011790555b8860200151600160a060020a031633600160a060020a0316141515613f33576000858152600460205260409020805460ff191660011790555b613f3d8b8a614393565b905081600160a060020a0316631b0f7ba98a61016001518b61018001518c6101a001516040518463ffffffff167c01000000000000000000000000000000000000000000000000000000000281526004018084600160a060020a0316600160a060020a03168152602001836001811115613fb357fe5b60ff16815260200180602001828103825283818151815260200191508051906020019080838360005b83811015613ff4578181015183820152602001613fdc565b50505050905090810190601f1680156140215780820380516001836020036101000a031916815260200191505b50945050505050602060405180830381600087803b15801561404257600080fd5b505af1158015614056573d6000803e3d6000fd5b505050506040513d602081101561406c57600080fd5b5051151561407957600080fd5b6101e08b0151600160a060020a0316156140b2576140a78b6101e001518a6101a001518d61020001516116b7565b15156140b257600080fd5b6101e0890151600160a060020a0316156140eb576140e0896101e001518a6101a001518b61020001516116b7565b15156140eb57600080fd5b60e08901518790600160a060020a0316151561410b578960200151614111565b8b602001515b60e08b0151600160a060020a0391821691161515614133578c60200151614139565b8a602001515b604080518a8152602081018a90528082018690529051600160a060020a0392909216917fc4109843e0b7d514e4c093114b863f8e7d8d9a458c372cd51bfe526b588006c99181900360600190a450506000805460ff19169055505050505050505050565b600030600160a060020a03168260000151600160a060020a03161415156141c65750600061327d565b6141da826101400151836102a00151614973565b15156141e85750600061327d565b600182610100015160018111156141fb57fe5b14801561421c57506006548260a00151108061421c57506007548260c00151105b156142295750600061327d565b506001919050565b6000806000614262846101200151856101400151866102400151876102600151886102800151896102a00151613426565b91506142908561012001518661014001518761024001518861026001518961028001518a6102a00151613426565b90508181101561429f57600080fd5b60e0840151600160a060020a031615156142b95780611a53565b509392505050565b600081838115156142ce57fe5b049392505050565b60008215156142e7575060006130a6565b508181028183828115156142f757fe5b04146130a657fe5b60008282111561430b57fe5b50900390565b818101828110156130a657fe5b610200810151516101c0820151516101a08301515101016101b001919050565b815260200190565b6000818353505060010190565b6000428310801561178057508115806117805750504210919050565b60008061437b846132e6565b9050614388818585613331565b151561178057600080fd5b600080600080600080600080600080600160a060020a03168a6102200151600160a060020a03161415156143cc5734156143cc57600080fd5b6143d68b8b614231565b97506000881180156143f557506102208a0151600160a060020a031615155b15614413576144138a61022001518c602001518c602001518b614992565b60e08a0151889750879650600160a060020a03161561472f576080808c0151908b0151111561444157600080fd5b60018a6101000151600181111561445457fe5b14156146fc5760c0808c0151908b0151111561446f57600080fd5b60008a6060015111156145135761449561448d8b606001518a6142d6565b6127106142c1565b6102208b0151909550600160a060020a031615156144fa576144b787866142ff565b60e08b0151604051919850600160a060020a03169086156108fc029087906000818181858888f193505050501580156144f4573d6000803e3d6000fd5b50614513565b6145138a61022001518b602001518c60e0015188614992565b60008a6080015111156145af5761453161448d8b608001518a6142d6565b6102208b0151909450600160a060020a03161515614596576145538685614311565b60e08b0151604051919750600160a060020a03169085156108fc029086906000818181858888f19350505050158015614590573d6000803e3d6000fd5b506145af565b6145af8a61022001518c602001518c60e0015187614992565b60008a60a001511115614653576145cd61448d8b60a001518a6142d6565b6102208b0151909350600160a060020a03161515614630576145ef87846142ff565b600854604051919850600160a060020a03169084156108fc029085906000818181858888f1935050505015801561462a573d6000803e3d6000fd5b50614653565b6102208a015160208b0151600854614653929190600160a060020a031686614992565b60008a60c0015111156146f75761467161448d8b60c001518a6142d6565b6102208b0151909250600160a060020a031615156146d4576146938683614311565b600854604051919750600160a060020a03169083156108fc029084906000818181858888f193505050501580156146ce573d6000803e3d6000fd5b506146f7565b6102208a015160208c01516008546146f7929190600160a060020a031685614992565b61472a565b6147138a602001518b60e001518c60600151614a57565b61472a8b602001518b60e001518c60800151614a57565b6148b0565b6080808b0151908c0151111561474457600080fd5b60018a6101000151600181111561475757fe5b1415614882576102208a0151600160a060020a0316151561477757600080fd5b60c0808b0151908c0151111561478c57600080fd5b60008b6060015111156147c5576147aa61448d8c606001518a6142d6565b94506147c58a61022001518c602001518d60e0015188614992565b60008b6080015111156147fe576147e361448d8c608001518a6142d6565b93506147fe8a61022001518b602001518d60e0015187614992565b60008b60a0015111156148405761481c61448d8c60a001518a6142d6565b6102208b015160208d015160085492955061484092600160a060020a031686614992565b60008b60c00151111561472a5761485e61448d8c60c001518a6142d6565b6102208b015160208c015160085492945061472a92600160a060020a031685614992565b6148998b602001518c60e001518d60600151614a57565b6148b08a602001518c60e001518d60800151614a57565b6102208a0151600160a060020a0316151561496457348611156148d257600080fd5b8960200151600160a060020a03166108fc889081150290604051600060405180830381858888f1935050505015801561490f573d6000803e3d6000fd5b5061491a34876142ff565b90506000811115614964578a60200151600160a060020a03166108fc829081150290604051600060405180830381858888f19350505050158015614962573d6000803e3d6000fd5b505b50959998505050505050505050565b60008083600181111561498257fe5b1480611780575050600010919050565b6000811115614a5157600354604080517f15dacbea000000000000000000000000000000000000000000000000000000008152600160a060020a0387811660048301528681166024830152858116604483015260648201859052915191909216916315dacbea9160848083019260209291908290030181600087803b158015614a1a57600080fd5b505af1158015614a2e573d6000803e3d6000fd5b505050506040513d6020811015614a4457600080fd5b50511515614a5157600080fd5b50505050565b600154614a6f90600160a060020a0316848484614992565b505050565b604080516102e081018252600080825260208201819052918101829052606081018290526080810182905260a0810182905260c0810182905260e081018290529061010082019081526020016000815260200160008152600060208201819052604090910190815260200160608152602001606081526020016000600160a060020a03168152602001606081526020016000600160a060020a03168152602001600081526020016000815260200160008152602001600081526020016000815250905600a165627a7a72305820de3beda6e31887b47d0c2366e5bd391864b830515cd22c476b2a489576c500300029",
  "source": "/*\n\n  << Project Wyvern Exchange >>\n\n*/\n\npragma solidity 0.4.23;\n\nimport \"./exchange/Exchange.sol\";\n\n/**\n * @title WyvernExchange\n * @author Project Wyvern Developers\n */\ncontract WyvernExchange is Exchange {\n\n    string public constant name = \"Project Wyvern Exchange\";\n\n    string public constant version = \"2\";\n\n    string public constant codename = \"Bakunawa\";\n\n    /**\n     * @dev Initialize a WyvernExchange instance\n     * @param registryAddress Address of the registry instance which this Exchange instance will use\n     * @param tokenAddress Address of the token used for protocol fees\n     */\n    constructor (ProxyRegistry registryAddress, TokenTransferProxy tokenTransferProxyAddress, ERC20 tokenAddress, address protocolFeeAddress) public {\n        registry = registryAddress;\n        tokenTransferProxy = tokenTransferProxyAddress;\n        exchangeToken = tokenAddress;\n        protocolFeeRecipient = protocolFeeAddress;\n        owner = msg.sender;\n    }\n\n}\n",
  "sourcePath": "/home/cwgoes/working/crypto/wyvern/wyvern-ethereum/contracts/WyvernExchange.sol",
  "compiler": {
    "name": "solc",
    "version": "0.4.23+commit.124ca40d.Emscripten.clang"
  },
  "schemaVersion": "2.0.0",
  "updatedAt": "2018-05-12T18:06:35.581Z"
}