{
  "contractName": "WyvernDAO",
  "abi": [
    {
      "constant": true,
      "inputs": [
        {
          "name": "",
          "type": "uint256"
        }
      ],
      "name": "proposals",
      "outputs": [
        {
          "name": "recipient",
          "type": "address"
        },
        {
          "name": "amount",
          "type": "uint256"
        },
        {
          "name": "metadataHash",
          "type": "bytes"
        },
        {
          "name": "timeCreated",
          "type": "uint256"
        },
        {
          "name": "votingDeadline",
          "type": "uint256"
        },
        {
          "name": "finalized",
          "type": "bool"
        },
        {
          "name": "proposalPassed",
          "type": "bool"
        },
        {
          "name": "numberOfVotes",
          "type": "uint256"
        },
        {
          "name": "proposalHash",
          "type": "bytes32"
        }
      ],
      "payable": false,
      "stateMutability": "view",
      "type": "function"
    },
    {
      "constant": true,
      "inputs": [
        {
          "name": "",
          "type": "address"
        }
      ],
      "name": "delegatesByDelegator",
      "outputs": [
        {
          "name": "",
          "type": "address"
        }
      ],
      "payable": false,
      "stateMutability": "view",
      "type": "function"
    },
    {
      "constant": true,
      "inputs": [],
      "name": "name",
      "outputs": [
        {
          "name": "",
          "type": "string"
        }
      ],
      "payable": false,
      "stateMutability": "view",
      "type": "function"
    },
    {
      "constant": true,
      "inputs": [],
      "name": "REQUIRED_SHARES_TO_BE_BOARD_MEMBER",
      "outputs": [
        {
          "name": "",
          "type": "uint256"
        }
      ],
      "payable": false,
      "stateMutability": "view",
      "type": "function"
    },
    {
      "constant": true,
      "inputs": [
        {
          "name": "",
          "type": "address"
        }
      ],
      "name": "lockedDelegatingTokens",
      "outputs": [
        {
          "name": "",
          "type": "uint256"
        }
      ],
      "payable": false,
      "stateMutability": "view",
      "type": "function"
    },
    {
      "constant": true,
      "inputs": [
        {
          "name": "proposalNumber",
          "type": "uint256"
        }
      ],
      "name": "countVotes",
      "outputs": [
        {
          "name": "yea",
          "type": "uint256"
        },
        {
          "name": "nay",
          "type": "uint256"
        },
        {
          "name": "quorum",
          "type": "uint256"
        }
      ],
      "payable": false,
      "stateMutability": "view",
      "type": "function"
    },
    {
      "constant": false,
      "inputs": [
        {
          "name": "proposalNumber",
          "type": "uint256"
        },
        {
          "name": "transactionBytecode",
          "type": "bytes"
        }
      ],
      "name": "executeProposal",
      "outputs": [],
      "payable": false,
      "stateMutability": "nonpayable",
      "type": "function"
    },
    {
      "constant": true,
      "inputs": [],
      "name": "sharesTokenAddress",
      "outputs": [
        {
          "name": "",
          "type": "address"
        }
      ],
      "payable": false,
      "stateMutability": "view",
      "type": "function"
    },
    {
      "constant": true,
      "inputs": [
        {
          "name": "",
          "type": "address"
        }
      ],
      "name": "delegatedAmountsByDelegate",
      "outputs": [
        {
          "name": "",
          "type": "uint256"
        }
      ],
      "payable": false,
      "stateMutability": "view",
      "type": "function"
    },
    {
      "constant": true,
      "inputs": [],
      "name": "numProposals",
      "outputs": [
        {
          "name": "",
          "type": "uint256"
        }
      ],
      "payable": false,
      "stateMutability": "view",
      "type": "function"
    },
    {
      "constant": true,
      "inputs": [
        {
          "name": "proposalNumber",
          "type": "uint256"
        },
        {
          "name": "shareholder",
          "type": "address"
        }
      ],
      "name": "hasVoted",
      "outputs": [
        {
          "name": "",
          "type": "bool"
        }
      ],
      "payable": false,
      "stateMutability": "view",
      "type": "function"
    },
    {
      "constant": true,
      "inputs": [],
      "name": "TOKEN_DECIMALS",
      "outputs": [
        {
          "name": "",
          "type": "uint256"
        }
      ],
      "payable": false,
      "stateMutability": "view",
      "type": "function"
    },
    {
      "constant": false,
      "inputs": [
        {
          "name": "tokensToLock",
          "type": "uint256"
        },
        {
          "name": "delegate",
          "type": "address"
        }
      ],
      "name": "setDelegateAndLockTokens",
      "outputs": [],
      "payable": false,
      "stateMutability": "nonpayable",
      "type": "function"
    },
    {
      "constant": false,
      "inputs": [],
      "name": "clearDelegateAndUnlockTokens",
      "outputs": [
        {
          "name": "lockedTokens",
          "type": "uint256"
        }
      ],
      "payable": false,
      "stateMutability": "nonpayable",
      "type": "function"
    },
    {
      "constant": true,
      "inputs": [],
      "name": "debatingPeriodInMinutes",
      "outputs": [
        {
          "name": "",
          "type": "uint256"
        }
      ],
      "payable": false,
      "stateMutability": "view",
      "type": "function"
    },
    {
      "constant": false,
      "inputs": [
        {
          "name": "minimumSharesToPassAVote",
          "type": "uint256"
        },
        {
          "name": "minutesForDebate",
          "type": "uint256"
        },
        {
          "name": "sharesToBeBoardMember",
          "type": "uint256"
        }
      ],
      "name": "changeVotingRules",
      "outputs": [],
      "payable": false,
      "stateMutability": "nonpayable",
      "type": "function"
    },
    {
      "constant": true,
      "inputs": [],
      "name": "minimumQuorum",
      "outputs": [
        {
          "name": "",
          "type": "uint256"
        }
      ],
      "payable": false,
      "stateMutability": "view",
      "type": "function"
    },
    {
      "constant": false,
      "inputs": [
        {
          "name": "from",
          "type": "address"
        },
        {
          "name": "value",
          "type": "uint256"
        },
        {
          "name": "token",
          "type": "address"
        },
        {
          "name": "extraData",
          "type": "bytes"
        }
      ],
      "name": "receiveApproval",
      "outputs": [],
      "payable": false,
      "stateMutability": "nonpayable",
      "type": "function"
    },
    {
      "constant": true,
      "inputs": [],
      "name": "MINIMUM_QUORUM",
      "outputs": [
        {
          "name": "",
          "type": "uint256"
        }
      ],
      "payable": false,
      "stateMutability": "view",
      "type": "function"
    },
    {
      "constant": true,
      "inputs": [],
      "name": "requiredSharesToBeBoardMember",
      "outputs": [
        {
          "name": "",
          "type": "uint256"
        }
      ],
      "payable": false,
      "stateMutability": "view",
      "type": "function"
    },
    {
      "constant": false,
      "inputs": [
        {
          "name": "proposalNumber",
          "type": "uint256"
        },
        {
          "name": "supportsProposal",
          "type": "bool"
        }
      ],
      "name": "vote",
      "outputs": [
        {
          "name": "voteID",
          "type": "uint256"
        }
      ],
      "payable": false,
      "stateMutability": "nonpayable",
      "type": "function"
    },
    {
      "constant": false,
      "inputs": [
        {
          "name": "beneficiary",
          "type": "address"
        },
        {
          "name": "weiAmount",
          "type": "uint256"
        },
        {
          "name": "jobMetadataHash",
          "type": "bytes"
        },
        {
          "name": "transactionBytecode",
          "type": "bytes"
        }
      ],
      "name": "newProposal",
      "outputs": [
        {
          "name": "proposalID",
          "type": "uint256"
        }
      ],
      "payable": false,
      "stateMutability": "nonpayable",
      "type": "function"
    },
    {
      "constant": true,
      "inputs": [],
      "name": "DEBATE_PERIOD_MINUTES",
      "outputs": [
        {
          "name": "",
          "type": "uint256"
        }
      ],
      "payable": false,
      "stateMutability": "view",
      "type": "function"
    },
    {
      "constant": true,
      "inputs": [
        {
          "name": "proposalNumber",
          "type": "uint256"
        },
        {
          "name": "beneficiary",
          "type": "address"
        },
        {
          "name": "weiAmount",
          "type": "uint256"
        },
        {
          "name": "transactionBytecode",
          "type": "bytes"
        }
      ],
      "name": "checkProposalCode",
      "outputs": [
        {
          "name": "codeChecksOut",
          "type": "bool"
        }
      ],
      "payable": false,
      "stateMutability": "view",
      "type": "function"
    },
    {
      "constant": true,
      "inputs": [],
      "name": "totalLockedTokens",
      "outputs": [
        {
          "name": "",
          "type": "uint256"
        }
      ],
      "payable": false,
      "stateMutability": "view",
      "type": "function"
    },
    {
      "inputs": [
        {
          "name": "sharesAddress",
          "type": "address"
        }
      ],
      "payable": false,
      "stateMutability": "nonpayable",
      "type": "constructor"
    },
    {
      "payable": true,
      "stateMutability": "payable",
      "type": "fallback"
    },
    {
      "anonymous": false,
      "inputs": [
        {
          "indexed": false,
          "name": "proposalID",
          "type": "uint256"
        },
        {
          "indexed": false,
          "name": "recipient",
          "type": "address"
        },
        {
          "indexed": false,
          "name": "amount",
          "type": "uint256"
        },
        {
          "indexed": false,
          "name": "metadataHash",
          "type": "bytes"
        }
      ],
      "name": "ProposalAdded",
      "type": "event"
    },
    {
      "anonymous": false,
      "inputs": [
        {
          "indexed": false,
          "name": "proposalID",
          "type": "uint256"
        },
        {
          "indexed": false,
          "name": "position",
          "type": "bool"
        },
        {
          "indexed": false,
          "name": "voter",
          "type": "address"
        }
      ],
      "name": "Voted",
      "type": "event"
    },
    {
      "anonymous": false,
      "inputs": [
        {
          "indexed": false,
          "name": "proposalID",
          "type": "uint256"
        },
        {
          "indexed": false,
          "name": "yea",
          "type": "uint256"
        },
        {
          "indexed": false,
          "name": "nay",
          "type": "uint256"
        },
        {
          "indexed": false,
          "name": "quorum",
          "type": "uint256"
        },
        {
          "indexed": false,
          "name": "active",
          "type": "bool"
        }
      ],
      "name": "ProposalTallied",
      "type": "event"
    },
    {
      "anonymous": false,
      "inputs": [
        {
          "indexed": false,
          "name": "newMinimumQuorum",
          "type": "uint256"
        },
        {
          "indexed": false,
          "name": "newDebatingPeriodInMinutes",
          "type": "uint256"
        },
        {
          "indexed": false,
          "name": "newSharesTokenAddress",
          "type": "address"
        }
      ],
      "name": "ChangeOfRules",
      "type": "event"
    },
    {
      "anonymous": false,
      "inputs": [
        {
          "indexed": true,
          "name": "delegator",
          "type": "address"
        },
        {
          "indexed": false,
          "name": "numberOfTokens",
          "type": "uint256"
        },
        {
          "indexed": true,
          "name": "delegate",
          "type": "address"
        }
      ],
      "name": "TokensDelegated",
      "type": "event"
    },
    {
      "anonymous": false,
      "inputs": [
        {
          "indexed": true,
          "name": "delegator",
          "type": "address"
        },
        {
          "indexed": false,
          "name": "numberOfTokens",
          "type": "uint256"
        },
        {
          "indexed": true,
          "name": "delegate",
          "type": "address"
        }
      ],
      "name": "TokensUndelegated",
      "type": "event"
    },
    {
      "anonymous": false,
      "inputs": [
        {
          "indexed": true,
          "name": "sender",
          "type": "address"
        },
        {
          "indexed": false,
          "name": "amount",
          "type": "uint256"
        }
      ],
      "name": "ReceivedEther",
      "type": "event"
    },
    {
      "anonymous": false,
      "inputs": [
        {
          "indexed": true,
          "name": "from",
          "type": "address"
        },
        {
          "indexed": false,
          "name": "value",
          "type": "uint256"
        },
        {
          "indexed": true,
          "name": "token",
          "type": "address"
        },
        {
          "indexed": false,
          "name": "extraData",
          "type": "bytes"
        }
      ],
      "name": "ReceivedTokens",
      "type": "event"
    }
  ],
  "bytecode": "0x6060604052341561000f57600080fd5b60405160208061193b8339810160405280805160048054600160a060020a03909216600160a060020a03199092169190911790555050680ad78ebc5ac6200000600955692a5a058fc295ed0000006000556110e06001556118c6806100756000396000f30060606040526004361061012f5763ffffffff60e060020a600035041663013cf08b811461016e578063064cc7a71461025957806306fdde031461029457806306fde1691461031e57806313f47f24146103435780631840f0ca14610362578063237e94921461039c57806327ebcf0e146103f45780633fb3ec2814610407578063400e39491461042657806343859632146104395780635b7f415c1461046f5780635fa7df6b14610482578063645bd436146104a457806369bd3436146104b75780636e676b69146104ca5780638160f0b5146104e65780638f4ffcb1146104f9578063b159beac14610565578063b94fa03f14610578578063c9d27afe1461058b578063dbc45228146105a6578063ecc46d1b1461064d578063eceb294514610660578063f5c476f9146106c8575b33600160a060020a03167fa419615bc8fda4c87663805ee2a3597a6d71c1d476911d9892f340d965bc7bf13460405190815260200160405180910390a2005b341561017957600080fd5b6101846004356106db565b604051600160a060020a038a16815260208101899052606081018790526080810186905284151560a082015283151560c082015260e08101839052610100808201839052610120604083018181528a54600260018216159094026000190116929092049083018190526101408301908a9080156102425780601f1061021757610100808354040283529160200191610242565b820191906000526020600020905b81548152906001019060200180831161022557829003601f168201915b50509a505050505050505050505060405180910390f35b341561026457600080fd5b610278600160a060020a0360043516610742565b604051600160a060020a03909116815260200160405180910390f35b341561029f57600080fd5b6102a761075d565b60405160208082528190810183818151815260200191508051906020019080838360005b838110156102e35780820151838201526020016102cb565b50505050905090810190601f1680156103105780820380516001836020036101000a031916815260200191505b509250505060405180910390f35b341561032957600080fd5b610331610794565b60405190815260200160405180910390f35b341561034e57600080fd5b610331600160a060020a03600435166107a1565b341561036d57600080fd5b6103786004356107b3565b60405180848152602001838152602001828152602001935050505060405180910390f35b34156103a757600080fd5b6103f2600480359060446024803590810190830135806020601f820181900481020160405190810160405281815292919060208401838380828437509496506108de95505050505050565b005b34156103ff57600080fd5b610278610ba9565b341561041257600080fd5b610331600160a060020a0360043516610bb8565b341561043157600080fd5b610331610bca565b341561044457600080fd5b61045b600435600160a060020a0360243516610bd0565b604051901515815260200160405180910390f35b341561047a57600080fd5b610331610c18565b341561048d57600080fd5b6103f2600435600160a060020a0360243516610c1d565b34156104af57600080fd5b610331610e00565b34156104c257600080fd5b610331610f66565b34156104d557600080fd5b6103f2600435602435604435610f6c565b34156104f157600080fd5b61033161100a565b341561050457600080fd5b6103f260048035600160a060020a0390811691602480359260443516919060849060643590810190830135806020601f8201819004810201604051908101604052818152929190602084018383808284375094965061101095505050505050565b341561057057600080fd5b61033161115c565b341561058357600080fd5b61033161116a565b341561059657600080fd5b6103316004356024351515611170565b34156105b157600080fd5b61033160048035600160a060020a03169060248035919060649060443590810190830135806020601f8201819004810201604051908101604052818152929190602084018383808284378201915050505050509190803590602001908201803590602001908080601f01602080910402602001604051908101604052818152929190602084018383808284375094965061135495505050505050565b341561065857600080fd5b6103316115d1565b341561066b57600080fd5b61045b600480359060248035600160a060020a0316916044359160849060643590810190830135806020601f820181900481020160405190810160405281815292919060208401838380828437509496506115d795505050505050565b34156106d357600080fd5b610331611690565b60028054829081106106e957fe5b60009182526020909120600a909102018054600182015460038301546004840154600585015460068601546007870154600160a060020a0390961697509395600201949293919260ff8083169361010090930416919089565b600560205260009081526040902054600160a060020a031681565b60408051908101604052601281527f50726f6a6563742057797665726e2044414f0000000000000000000000000000602082015281565b680ad78ebc5ac620000081565b60066020526000908152604090205481565b60008060008060008060006002888154811015156107cd57fe5b90600052602060002090600a02019350600096506000955060009450600092505b60088401548310156108d3576008840180548490811061080a57fe5b600091825260208083209091018054600160a060020a03610100909104811680855260079093526040808520546004549397509492909116926370a08231929091516020015260405160e060020a63ffffffff8416028152600160a060020a039091166004820152602401602060405180830381600087803b151561088e57600080fd5b6102c65a03f1151561089f57600080fd5b5050506040518051845492019687019692505060ff16156108c357958601956108c8565b948501945b8260010192506107ee565b505050509193909250565b6000806000806002868154811015156108f357fe5b90600052602060002090600a020193508360040154421015801561091c5750600584015460ff16155b80156109c1575083546001850154600160a060020a0390911690866040516c01000000000000000000000000600160a060020a038516028152601481018390526034810182805190602001908083835b6020831061098b5780518252601f19909201916020918201910161096c565b6001836020036101000a038019825116818451161790925250505091909101945060409350505050519081900390206007850154145b15156109cc57600080fd5b6109d5866107b3565b92509250925060005481101515156109ec57600080fd5b60058401805460ff1916600117905581831115610b2c5760058401805461ff00191661010017905583546001850154600160a060020a03909116908660405180828051906020019080838360005b83811015610a52578082015183820152602001610a3a565b50505050905090810190601f168015610a7f5780820380516001836020036101000a031916815260200191505b5091505060006040518083038185876187965a03f1925050501515610aa357600080fd5b600854600454600160a060020a03166370a082313060006040516020015260405160e060020a63ffffffff8416028152600160a060020a039091166004820152602401602060405180830381600087803b1515610aff57600080fd5b6102c65a03f11515610b1057600080fd5b5050506040518051905010151515610b2757600080fd5b610b3a565b60058401805461ff00191690555b7f748f0810c68633063bb13f3c71e10cd1889925b3721d6e567114d0632574a396868484848860050160019054906101000a900460ff1660405194855260208501939093526040808501929092526060840152901515608083015260a0909101905180910390a1505050505050565b600454600160a060020a031681565b60076020526000908152604090205481565b60035481565b600080600284815481101515610be257fe5b60009182526020808320600160a060020a03969096168352600a919091029094016009019093525050604090205460ff16919050565b601281565b600454600090600160a060020a03166370a0823133836040516020015260405160e060020a63ffffffff8416028152600160a060020a039091166004820152602401602060405180830381600087803b1515610c7857600080fd5b6102c65a03f11515610c8957600080fd5b50505060405180519050111515610c9f57600080fd5b600160a060020a033381166000908152600560205260409020541615610cc457600080fd5b600160a060020a033381811660008181526006602090815260408083208890558686168084526007835281842080548a019055600880548a0190559383526005909152808220805473ffffffffffffffffffffffffffffffffffffffff1916909317909255600454909316926323b872dd929130918791516020015260405160e060020a63ffffffff8616028152600160a060020a0393841660048201529190921660248201526044810191909152606401602060405180830381600087803b1515610d8f57600080fd5b6102c65a03f11515610da057600080fd5b505050604051805190501515610db557600080fd5b80600160a060020a031633600160a060020a03167f57593c23286b632d1ba413b24ecae252f34f6b81fdff1022dc7ac0d78cde56b78460405190815260200160405180910390a35050565b600160a060020a0333811660009081526005602052604081205490918291161515610e2a57600080fd5b5050600160a060020a03338181166000818152600560208181526040808420805460068452828620805490879055908916808752600785528387208054839003905560088054839003905596865293909252815473ffffffffffffffffffffffffffffffffffffffff191690915560045491959394919093169263a9059cbb928691516020015260405160e060020a63ffffffff8516028152600160a060020a0390921660048301526024820152604401602060405180830381600087803b1515610ef457600080fd5b6102c65a03f11515610f0557600080fd5b505050604051805190501515610f1a57600080fd5b80600160a060020a031633600160a060020a03167fccc924ef18d5fcabbf624302b6a02f9014c9b3371994eacc0cec2c107f2503e48460405190815260200160405180910390a35b5090565b60015481565b30600160a060020a031633600160a060020a0316141515610f8c57600080fd5b821515610f9857600192505b6000839055600182905560098190556004547f68259880819f96f54b67d672fefc666565de06099c91b57a689a42073ba090c99084908490600160a060020a03166040519283526020830191909152600160a060020a03166040808301919091526060909101905180910390a1505050565b60005481565b81600160a060020a0381166323b872dd86308760006040516020015260405160e060020a63ffffffff8616028152600160a060020a0393841660048201529190921660248201526044810191909152606401602060405180830381600087803b151561107b57600080fd5b6102c65a03f1151561108c57600080fd5b5050506040518051905015156110a157600080fd5b82600160a060020a031685600160a060020a03167fd65b48fd35864b3528d38e44760be5553248f89bf3ff6b06cca57817cc2650bf868560405182815260406020820181815290820183818151815260200191508051906020019080838360005b8381101561111a578082015183820152602001611102565b50505050905090810190601f1680156111475780820380516001836020036101000a031916815260200191505b50935050505060405180910390a35050505050565b692a5a058fc295ed00000081565b60095481565b60045460009081908190600160a060020a03166370a0823133836040516020015260405160e060020a63ffffffff8416028152600160a060020a039091166004820152602401602060405180830381600087803b15156111cf57600080fd5b6102c65a03f115156111e057600080fd5b505050604051805190501115156111f657600080fd5b600280548590811061120457fe5b60009182526020808320600160a060020a03331684526009600a90930201918201905260409091205490915060ff1615156001141561124257600080fd5b600881018054906112569060018301611696565b9150604080519081016040528315158152600160a060020a03331660208201526008820180548490811061128657fe5b60009182526020909120018151815460ff19169015151781556020820151815474ffffffffffffffffffffffffffffffffffffffff001916610100600160a060020a03928316021790915533908116600090815260098401602052604090819020805460ff19166001908117909155850160068501557f86abfce99b7dd908bec0169288797f85049ec73cbe046ed9de818fab3a497ae0925086918691519283529015156020830152600160a060020a03166040808301919091526060909101905180910390a15092915050565b6009546004546000918291600160a060020a03166370a0823133846040516020015260405160e060020a63ffffffff8416028152600160a060020a039091166004820152602401602060405180830381600087803b15156113b457600080fd5b6102c65a03f115156113c557600080fd5b50505060405180519050101515156113dc57600080fd5b60028054906113ee90600183016116bf565b91506002828154811015156113ff57fe5b60009182526020909120600a90910201805473ffffffffffffffffffffffffffffffffffffffff1916600160a060020a038816178155600181018690559050600281018480516114539291602001906116eb565b508585846040516c01000000000000000000000000600160a060020a038516028152601481018390526034810182805190602001908083835b602083106114ab5780518252601f19909201916020918201910161148c565b6001836020036101000a0380198251168184511617909252505050919091019450604093505050505190819003902060078201554260038201819055600154603c0201600482015560058101805461ffff19169055600060068201557f06d6b095e85f5218421975622a7aee84a98b32aa7d174b90088357014003b43382878787604051848152600160a060020a03841660208201526040810183905260806060820181815290820183818151815260200191508051906020019080838360005b8381101561158457808201518382015260200161156c565b50505050905090810190601f1680156115b15780820380516001836020036101000a031916815260200191505b509550505050505060405180910390a16001820160035550949350505050565b6110e081565b6000806002868154811015156115e957fe5b90600052602060002090600a020190508484846040516c01000000000000000000000000600160a060020a038516028152601481018390526034810182805190602001908083835b602083106116505780518252601f199092019160209182019101611631565b6001836020036101000a03801982511681845116179092525050509190910194506040935050505051908190039020600782015414915050949350505050565b60085481565b8154818355818115116116ba576000838152602090206116ba918101908301611765565b505050565b8154818355818115116116ba57600a0281600a0283600052602060002091820191016116ba919061179a565b828054600181600116156101000203166002900490600052602060002090601f016020900481019282601f1061172c57805160ff1916838001178555611759565b82800160010185558215611759579182015b8281111561175957825182559160200191906001019061173e565b50610f6292915061181b565b61179791905b80821115610f6257805474ffffffffffffffffffffffffffffffffffffffffff1916815560010161176b565b90565b61179791905b80821115610f6257805473ffffffffffffffffffffffffffffffffffffffff191681556000600182018190556117d96002830182611835565b6000600383018190556004830181905560058301805461ffff19169055600683018190556007830181905561181290600884019061187c565b50600a016117a0565b61179791905b80821115610f625760008155600101611821565b50805460018160011615610100020316600290046000825580601f1061185b5750611879565b601f016020900490600052602060002090810190611879919061181b565b50565b508054600082559060005260206000209081019061187991906117655600a165627a7a7230582086a033042fec446908bfe51858040e9ee3b77b48bb78727ca61fffe61790d8920029",
  "source": "/*\n\n  << Project Wyvern DAO >>\n\n*/\n\npragma solidity 0.4.18;\n\nimport \"./dao/DelegatedShareholderAssociation.sol\";\n\n/**\n * @title WyvernDAO\n * @author Project Wyvern Developers\n */\ncontract WyvernDAO is DelegatedShareholderAssociation {\n\n    string public constant name = \"Project Wyvern DAO\";\n\n    uint public constant TOKEN_DECIMALS                     = 18;\n    uint public constant REQUIRED_SHARES_TO_BE_BOARD_MEMBER = 200 * (10 ** TOKEN_DECIMALS); // set to ~ 0.1% of supply\n    uint public constant MINIMUM_QUORUM                     = 200000 * (10 ** TOKEN_DECIMALS); // set to 10% of supply\n    uint public constant DEBATE_PERIOD_MINUTES              = 60 * 24 * 3; // set to 3 days\n\n    function WyvernDAO (ERC20 sharesAddress) public {\n        sharesTokenAddress = sharesAddress;\n        requiredSharesToBeBoardMember = REQUIRED_SHARES_TO_BE_BOARD_MEMBER;\n        minimumQuorum = MINIMUM_QUORUM;\n        debatingPeriodInMinutes = DEBATE_PERIOD_MINUTES;\n    }\n\n}\n",
  "sourcePath": "/home/cwgoes/working/crypto/wyvern/wyvern-ethereum/contracts/WyvernDAO.sol",
  "compiler": {
    "name": "solc",
    "version": "0.4.18+commit.9cf6e910.Emscripten.clang"
  },
  "schemaVersion": "1.0.1",
  "updatedAt": "2018-01-02T21:50:05.141Z"
}