{
  "contractName": "WyvernExchange",
  "abi": [
    {
      "constant": true,
      "inputs": [],
      "name": "name",
      "outputs": [
        {
          "name": "",
          "type": "string"
        }
      ],
      "payable": false,
      "stateMutability": "view",
      "type": "function"
    },
    {
      "constant": true,
      "inputs": [],
      "name": "exchangeTokenAddress",
      "outputs": [
        {
          "name": "",
          "type": "address"
        }
      ],
      "payable": false,
      "stateMutability": "view",
      "type": "function"
    },
    {
      "constant": true,
      "inputs": [
        {
          "name": "addrs",
          "type": "address[14]"
        },
        {
          "name": "uints",
          "type": "uint256[14]"
        },
        {
          "name": "sidesKindsHowToCalls",
          "type": "uint8[6]"
        },
        {
          "name": "calldataBuy",
          "type": "bytes"
        },
        {
          "name": "calldataSell",
          "type": "bytes"
        },
        {
          "name": "replacementPatternBuy",
          "type": "bytes"
        },
        {
          "name": "replacementPatternSell",
          "type": "bytes"
        },
        {
          "name": "staticExtradataBuy",
          "type": "bytes"
        },
        {
          "name": "staticExtradataSell",
          "type": "bytes"
        }
      ],
      "name": "ordersCanMatch_",
      "outputs": [
        {
          "name": "",
          "type": "bool"
        }
      ],
      "payable": false,
      "stateMutability": "view",
      "type": "function"
    },
    {
      "constant": false,
      "inputs": [
        {
          "name": "addrs",
          "type": "address[7]"
        },
        {
          "name": "uints",
          "type": "uint256[7]"
        },
        {
          "name": "side",
          "type": "uint8"
        },
        {
          "name": "saleKind",
          "type": "uint8"
        },
        {
          "name": "howToCall",
          "type": "uint8"
        },
        {
          "name": "calldata",
          "type": "bytes"
        },
        {
          "name": "replacementPattern",
          "type": "bytes"
        },
        {
          "name": "staticExtradata",
          "type": "bytes"
        },
        {
          "name": "orderbookInclusionDesired",
          "type": "bool"
        }
      ],
      "name": "approveOrder_",
      "outputs": [],
      "payable": false,
      "stateMutability": "nonpayable",
      "type": "function"
    },
    {
      "constant": true,
      "inputs": [
        {
          "name": "array",
          "type": "bytes"
        },
        {
          "name": "desired",
          "type": "bytes"
        },
        {
          "name": "mask",
          "type": "bytes"
        }
      ],
      "name": "guardedArrayReplace",
      "outputs": [
        {
          "name": "",
          "type": "bytes"
        }
      ],
      "payable": false,
      "stateMutability": "pure",
      "type": "function"
    },
    {
      "constant": false,
      "inputs": [
        {
          "name": "addrs",
          "type": "address[7]"
        },
        {
          "name": "uints",
          "type": "uint256[7]"
        },
        {
          "name": "side",
          "type": "uint8"
        },
        {
          "name": "saleKind",
          "type": "uint8"
        },
        {
          "name": "howToCall",
          "type": "uint8"
        },
        {
          "name": "calldata",
          "type": "bytes"
        },
        {
          "name": "replacementPattern",
          "type": "bytes"
        },
        {
          "name": "staticExtradata",
          "type": "bytes"
        },
        {
          "name": "v",
          "type": "uint8"
        },
        {
          "name": "r",
          "type": "bytes32"
        },
        {
          "name": "s",
          "type": "bytes32"
        }
      ],
      "name": "cancelOrder_",
      "outputs": [],
      "payable": false,
      "stateMutability": "nonpayable",
      "type": "function"
    },
    {
      "constant": true,
      "inputs": [
        {
          "name": "",
          "type": "bytes32"
        }
      ],
      "name": "topBids",
      "outputs": [
        {
          "name": "bidder",
          "type": "address"
        },
        {
          "name": "amount",
          "type": "uint256"
        }
      ],
      "payable": false,
      "stateMutability": "view",
      "type": "function"
    },
    {
      "constant": true,
      "inputs": [
        {
          "name": "buyCalldata",
          "type": "bytes"
        },
        {
          "name": "buyReplacementPattern",
          "type": "bytes"
        },
        {
          "name": "sellCalldata",
          "type": "bytes"
        },
        {
          "name": "sellReplacementPattern",
          "type": "bytes"
        }
      ],
      "name": "orderCalldataCanMatch",
      "outputs": [
        {
          "name": "",
          "type": "bool"
        }
      ],
      "payable": false,
      "stateMutability": "pure",
      "type": "function"
    },
    {
      "constant": true,
      "inputs": [
        {
          "name": "addrs",
          "type": "address[14]"
        },
        {
          "name": "uints",
          "type": "uint256[14]"
        },
        {
          "name": "sidesKindsHowToCalls",
          "type": "uint8[6]"
        },
        {
          "name": "calldataBuy",
          "type": "bytes"
        },
        {
          "name": "calldataSell",
          "type": "bytes"
        },
        {
          "name": "replacementPatternBuy",
          "type": "bytes"
        },
        {
          "name": "replacementPatternSell",
          "type": "bytes"
        },
        {
          "name": "staticExtradataBuy",
          "type": "bytes"
        },
        {
          "name": "staticExtradataSell",
          "type": "bytes"
        }
      ],
      "name": "calculateMatchPrice_",
      "outputs": [
        {
          "name": "",
          "type": "uint256"
        }
      ],
      "payable": false,
      "stateMutability": "view",
      "type": "function"
    },
    {
      "constant": true,
      "inputs": [
        {
          "name": "addrs",
          "type": "address[7]"
        },
        {
          "name": "uints",
          "type": "uint256[7]"
        },
        {
          "name": "side",
          "type": "uint8"
        },
        {
          "name": "saleKind",
          "type": "uint8"
        },
        {
          "name": "howToCall",
          "type": "uint8"
        },
        {
          "name": "calldata",
          "type": "bytes"
        },
        {
          "name": "replacementPattern",
          "type": "bytes"
        },
        {
          "name": "staticExtradata",
          "type": "bytes"
        },
        {
          "name": "v",
          "type": "uint8"
        },
        {
          "name": "r",
          "type": "bytes32"
        },
        {
          "name": "s",
          "type": "bytes32"
        }
      ],
      "name": "validateOrder_",
      "outputs": [
        {
          "name": "",
          "type": "bool"
        }
      ],
      "payable": false,
      "stateMutability": "view",
      "type": "function"
    },
    {
      "constant": true,
      "inputs": [],
      "name": "bank",
      "outputs": [
        {
          "name": "",
          "type": "address"
        }
      ],
      "payable": false,
      "stateMutability": "view",
      "type": "function"
    },
    {
      "constant": true,
      "inputs": [],
      "name": "registry",
      "outputs": [
        {
          "name": "",
          "type": "address"
        }
      ],
      "payable": false,
      "stateMutability": "view",
      "type": "function"
    },
    {
      "constant": true,
      "inputs": [
        {
          "name": "",
          "type": "bytes32"
        }
      ],
      "name": "cancelledOrFinalized",
      "outputs": [
        {
          "name": "",
          "type": "bool"
        }
      ],
      "payable": false,
      "stateMutability": "view",
      "type": "function"
    },
    {
      "constant": false,
      "inputs": [
        {
          "name": "addrs",
          "type": "address[14]"
        },
        {
          "name": "uints",
          "type": "uint256[14]"
        },
        {
          "name": "sidesKindsHowToCalls",
          "type": "uint8[6]"
        },
        {
          "name": "calldataBuy",
          "type": "bytes"
        },
        {
          "name": "calldataSell",
          "type": "bytes"
        },
        {
          "name": "replacementPatternBuy",
          "type": "bytes"
        },
        {
          "name": "replacementPatternSell",
          "type": "bytes"
        },
        {
          "name": "staticExtradataBuy",
          "type": "bytes"
        },
        {
          "name": "staticExtradataSell",
          "type": "bytes"
        },
        {
          "name": "vs",
          "type": "uint8[2]"
        },
        {
          "name": "rss",
          "type": "bytes32[4]"
        }
      ],
      "name": "atomicMatch_",
      "outputs": [],
      "payable": false,
      "stateMutability": "nonpayable",
      "type": "function"
    },
    {
      "constant": true,
      "inputs": [
        {
          "name": "",
          "type": "bytes32"
        }
      ],
      "name": "approvedOrders",
      "outputs": [
        {
          "name": "",
          "type": "bool"
        }
      ],
      "payable": false,
      "stateMutability": "view",
      "type": "function"
    },
    {
      "constant": false,
      "inputs": [
        {
          "name": "addrs",
          "type": "address[7]"
        },
        {
          "name": "uints",
          "type": "uint256[7]"
        },
        {
          "name": "side",
          "type": "uint8"
        },
        {
          "name": "saleKind",
          "type": "uint8"
        },
        {
          "name": "howToCall",
          "type": "uint8"
        },
        {
          "name": "calldata",
          "type": "bytes"
        },
        {
          "name": "replacementPattern",
          "type": "bytes"
        },
        {
          "name": "staticExtradata",
          "type": "bytes"
        },
        {
          "name": "v",
          "type": "uint8"
        },
        {
          "name": "r",
          "type": "bytes32"
        },
        {
          "name": "s",
          "type": "bytes32"
        },
        {
          "name": "amount",
          "type": "uint256"
        }
      ],
      "name": "bid_",
      "outputs": [],
      "payable": false,
      "stateMutability": "nonpayable",
      "type": "function"
    },
    {
      "constant": true,
      "inputs": [
        {
          "name": "addrs",
          "type": "address[7]"
        },
        {
          "name": "uints",
          "type": "uint256[7]"
        },
        {
          "name": "side",
          "type": "uint8"
        },
        {
          "name": "saleKind",
          "type": "uint8"
        },
        {
          "name": "howToCall",
          "type": "uint8"
        },
        {
          "name": "calldata",
          "type": "bytes"
        },
        {
          "name": "replacementPattern",
          "type": "bytes"
        },
        {
          "name": "staticExtradata",
          "type": "bytes"
        }
      ],
      "name": "calculateCurrentPrice_",
      "outputs": [
        {
          "name": "",
          "type": "uint256"
        }
      ],
      "payable": false,
      "stateMutability": "view",
      "type": "function"
    },
    {
      "constant": true,
      "inputs": [
        {
          "name": "addrs",
          "type": "address[7]"
        },
        {
          "name": "uints",
          "type": "uint256[7]"
        },
        {
          "name": "side",
          "type": "uint8"
        },
        {
          "name": "saleKind",
          "type": "uint8"
        },
        {
          "name": "howToCall",
          "type": "uint8"
        },
        {
          "name": "calldata",
          "type": "bytes"
        },
        {
          "name": "replacementPattern",
          "type": "bytes"
        },
        {
          "name": "staticExtradata",
          "type": "bytes"
        }
      ],
      "name": "hashOrder_",
      "outputs": [
        {
          "name": "",
          "type": "bytes32"
        }
      ],
      "payable": false,
      "stateMutability": "pure",
      "type": "function"
    },
    {
      "inputs": [
        {
          "name": "registryAddress",
          "type": "address"
        },
        {
          "name": "tokenAddress",
          "type": "address"
        },
        {
          "name": "lazyBankAddress",
          "type": "address"
        }
      ],
      "payable": false,
      "stateMutability": "nonpayable",
      "type": "constructor"
    },
    {
      "anonymous": false,
      "inputs": [
        {
          "indexed": true,
          "name": "hash",
          "type": "bytes32"
        },
        {
          "indexed": false,
          "name": "exchange",
          "type": "address"
        },
        {
          "indexed": true,
          "name": "maker",
          "type": "address"
        },
        {
          "indexed": false,
          "name": "taker",
          "type": "address"
        },
        {
          "indexed": false,
          "name": "makerFee",
          "type": "uint256"
        },
        {
          "indexed": false,
          "name": "takerFee",
          "type": "uint256"
        },
        {
          "indexed": true,
          "name": "feeRecipient",
          "type": "address"
        },
        {
          "indexed": false,
          "name": "side",
          "type": "uint8"
        },
        {
          "indexed": false,
          "name": "saleKind",
          "type": "uint8"
        },
        {
          "indexed": false,
          "name": "target",
          "type": "address"
        },
        {
          "indexed": false,
          "name": "howToCall",
          "type": "uint8"
        },
        {
          "indexed": false,
          "name": "calldata",
          "type": "bytes"
        }
      ],
      "name": "OrderApprovedPartOne",
      "type": "event"
    },
    {
      "anonymous": false,
      "inputs": [
        {
          "indexed": true,
          "name": "hash",
          "type": "bytes32"
        },
        {
          "indexed": false,
          "name": "replacementPattern",
          "type": "bytes"
        },
        {
          "indexed": false,
          "name": "staticTarget",
          "type": "address"
        },
        {
          "indexed": false,
          "name": "staticExtradata",
          "type": "bytes"
        },
        {
          "indexed": false,
          "name": "paymentToken",
          "type": "address"
        },
        {
          "indexed": false,
          "name": "basePrice",
          "type": "uint256"
        },
        {
          "indexed": false,
          "name": "extra",
          "type": "uint256"
        },
        {
          "indexed": false,
          "name": "listingTime",
          "type": "uint256"
        },
        {
          "indexed": false,
          "name": "expirationTime",
          "type": "uint256"
        },
        {
          "indexed": false,
          "name": "salt",
          "type": "uint256"
        },
        {
          "indexed": false,
          "name": "orderbookInclusionDesired",
          "type": "bool"
        }
      ],
      "name": "OrderApprovedPartTwo",
      "type": "event"
    },
    {
      "anonymous": false,
      "inputs": [
        {
          "indexed": true,
          "name": "hash",
          "type": "bytes32"
        }
      ],
      "name": "OrderCancelled",
      "type": "event"
    },
    {
      "anonymous": false,
      "inputs": [
        {
          "indexed": true,
          "name": "hash",
          "type": "bytes32"
        },
        {
          "indexed": true,
          "name": "bidder",
          "type": "address"
        },
        {
          "indexed": false,
          "name": "amount",
          "type": "uint256"
        }
      ],
      "name": "OrderBidOn",
      "type": "event"
    },
    {
      "anonymous": false,
      "inputs": [
        {
          "indexed": true,
          "name": "buyHash",
          "type": "bytes32"
        },
        {
          "indexed": true,
          "name": "sellHash",
          "type": "bytes32"
        }
      ],
      "name": "OrdersMatched",
      "type": "event"
    }
  ],
  "bytecode": "0x60606040526000805460ff19169055341561001957600080fd5b604051606080613fcc8339810160405280805191906020018051919060200180516000805461010060a860020a031916610100600160a060020a039687160217815560018054600160a060020a031990811697871697909717905560028054909616919094161790935550613f379150819061009590396000f3006060604052600436106100e25763ffffffff60e060020a60003504166306fdde0381146100e75780630e5d2e2114610171578063136f5b5a146101a05780631665e6b3146103ca578063239e83df1461050f57806335d91b85146105e4578063532aa1c814610733578063562b2ebc1461076b578063582420bb146108825780637627e94114610aaa57806376cdb03b14610bf95780637b10399914610c0c5780638076f00514610c1f578063dfc7209f14610c35578063e57d4adb14610e9f578063e6d2bd7b14610eb5578063f4c9180714611009578063f9c29e6614611148575b600080fd5b34156100f257600080fd5b6100fa611287565b60405160208082528190810183818151815260200191508051906020019080838360005b8381101561013657808201518382015260200161011e565b50505050905090810190601f1680156101635780820380516001836020036101000a031916815260200191505b509250505060405180910390f35b341561017c57600080fd5b6101846112be565b604051600160a060020a03909116815260200160405180910390f35b34156101ab57600080fd5b6103b660046101c481600e6101c0604051908101604052919082826101c08082843782019150505050509190806101c00190600e80602002604051908101604052919082826101c080828437820191505050505091908060c001906006806020026040519081016040529190828260c0808284375093959460208082019550903586018082019450359250829150601f8201819004810201604051908101604052818152929190602084018383808284378201915050505050509190803590602001908201803590602001908080601f01602080910402602001604051908101604052818152929190602084018383808284378201915050505050509190803590602001908201803590602001908080601f01602080910402602001604051908101604052818152929190602084018383808284378201915050505050509190803590602001908201803590602001908080601f01602080910402602001604051908101604052818152929190602084018383808284378201915050505050509190803590602001908201803590602001908080601f01602080910402602001604051908101604052818152929190602084018383808284378201915050505050509190803590602001908201803590602001908080601f0160208091040260200160405190810160405281815292919060208401838380828437509496506112d295505050505050565b604051901515815260200160405180910390f35b34156103d557600080fd5b61050d600460e481600760e06040519081016040529190828260e080828437820191505050505091908060e001906007806020026040519081016040529190828260e08082843750939560ff8635811696602080820135831697506040808301359093169650929450608081019350606001358401808301929035918291601f83018190048102019051908101604052818152929190602084018383808284378201915050505050509190803590602001908201803590602001908080601f01602080910402602001604051908101604052818152929190602084018383808284378201915050505050509190803590602001908201803590602001908080601f0160208091040260200160405190810160405281815292919060208401838380828437509496505050509135151591506115d79050565b005b341561051a57600080fd5b6100fa60046024813581810190830135806020601f8201819004810201604051908101604052818152929190602084018383808284378201915050505050509190803590602001908201803590602001908080601f01602080910402602001604051908101604052818152929190602084018383808284378201915050505050509190803590602001908201803590602001908080601f01602080910402602001604051908101604052818152929190602084018383808284375094965061171495505050505050565b34156105ef57600080fd5b61050d600460e481600760e06040519081016040529190828260e080828437820191505050505091908060e001906007806020026040519081016040529190828260e08082843750939560ff8635811696602080820135831697506040808301359093169650929450608081019350606001358401808301929035918291601f83018190048102019051908101604052818152929190602084018383808284378201915050505050509190803590602001908201803590602001908080601f01602080910402602001604051908101604052818152929190602084018383808284378201915050505050509190803590602001908201803590602001908080601f0160208091040260200160405190810160405281815292919060208401838380828437509496505060ff8535169460208101359450604001359250611731915050565b341561073e57600080fd5b610749600435611882565b604051600160a060020a03909216825260208201526040908101905180910390f35b341561077657600080fd5b6103b660046024813581810190830135806020601f8201819004810201604051908101604052818152929190602084018383808284378201915050505050509190803590602001908201803590602001908080601f01602080910402602001604051908101604052818152929190602084018383808284378201915050505050509190803590602001908201803590602001908080601f01602080910402602001604051908101604052818152929190602084018383808284378201915050505050509190803590602001908201803590602001908080601f0160208091040260200160405190810160405281815292919060208401838380828437509496506118a795505050505050565b341561088d57600080fd5b610a9860046101c481600e6101c0604051908101604052919082826101c08082843782019150505050509190806101c00190600e80602002604051908101604052919082826101c080828437820191505050505091908060c001906006806020026040519081016040529190828260c0808284375093959460208082019550903586018082019450359250829150601f8201819004810201604051908101604052818152929190602084018383808284378201915050505050509190803590602001908201803590602001908080601f01602080910402602001604051908101604052818152929190602084018383808284378201915050505050509190803590602001908201803590602001908080601f01602080910402602001604051908101604052818152929190602084018383808284378201915050505050509190803590602001908201803590602001908080601f01602080910402602001604051908101604052818152929190602084018383808284378201915050505050509190803590602001908201803590602001908080601f01602080910402602001604051908101604052818152929190602084018383808284378201915050505050509190803590602001908201803590602001908080601f0160208091040260200160405190810160405281815292919060208401838380828437509496506118d495505050505050565b60405190815260200160405180910390f35b3415610ab557600080fd5b6103b6600460e481600760e06040519081016040529190828260e080828437820191505050505091908060e001906007806020026040519081016040529190828260e08082843750939560ff8635811696602080820135831697506040808301359093169650929450608081019350606001358401808301929035918291601f83018190048102019051908101604052818152929190602084018383808284378201915050505050509190803590602001908201803590602001908080601f01602080910402602001604051908101604052818152929190602084018383808284378201915050505050509190803590602001908201803590602001908080601f0160208091040260200160405190810160405281815292919060208401838380828437509496505060ff8535169460208101359450604001359250611bc8915050565b3415610c0457600080fd5b610184611d22565b3415610c1757600080fd5b610184611d31565b3415610c2a57600080fd5b6103b6600435611d40565b3415610c4057600080fd5b61050d60046101c481600e6101c0604051908101604052919082826101c08082843782019150505050509190806101c00190600e80602002604051908101604052919082826101c080828437820191505050505091908060c001906006806020026040519081016040529190828260c0808284375093959460208082019550903586018082019450359250829150601f8201819004810201604051908101604052818152929190602084018383808284378201915050505050509190803590602001908201803590602001908080601f01602080910402602001604051908101604052818152929190602084018383808284378201915050505050509190803590602001908201803590602001908080601f01602080910402602001604051908101604052818152929190602084018383808284378201915050505050509190803590602001908201803590602001908080601f01602080910402602001604051908101604052818152929190602084018383808284378201915050505050509190803590602001908201803590602001908080601f01602080910402602001604051908101604052818152929190602084018383808284378201915050505050509190803590602001908201803590602001908080601f01602080910402602001604051908101604052818152929190602084018383808284378201915050505050509190806040019060028060200260405190810160405280929190826002602002808284378201915050505050919080608001906004806020026040519081016040529190828260808082843750939550611d55945050505050565b3415610eaa57600080fd5b6103b6600435612085565b3415610ec057600080fd5b61050d600460e481600760e06040519081016040529190828260e080828437820191505050505091908060e001906007806020026040519081016040529190828260e08082843750939560ff8635811696602080820135831697506040808301359093169650929450608081019350606001358401808301929035918291601f83018190048102019051908101604052818152929190602084018383808284378201915050505050509190803590602001908201803590602001908080601f01602080910402602001604051908101604052818152929190602084018383808284378201915050505050509190803590602001908201803590602001908080601f0160208091040260200160405190810160405281815292919060208401838380828437509496505050833560ff1693602081013593506040810135925060600135905061209a565b341561101457600080fd5b610a98600460e481600760e06040519081016040529190828260e080828437820191505050505091908060e001906007806020026040519081016040529190828260e08082843750939560ff8635811696602080820135831697506040808301359093169650929450608081019350606001358401808301929035918291601f83018190048102019051908101604052818152929190602084018383808284378201915050505050509190803590602001908201803590602001908080601f01602080910402602001604051908101604052818152929190602084018383808284378201915050505050509190803590602001908201803590602001908080601f0160208091040260200160405190810160405281815292919060208401838380828437509496506121ed95505050505050565b341561115357600080fd5b610a98600460e481600760e06040519081016040529190828260e080828437820191505050505091908060e001906007806020026040519081016040529190828260e08082843750939560ff8635811696602080820135831697506040808301359093169650929450608081019350606001358401808301929035918291601f83018190048102019051908101604052818152929190602084018383808284378201915050505050509190803590602001908201803590602001908080601f01602080910402602001604051908101604052818152929190602084018383808284378201915050505050509190803590602001908201803590602001908080601f01602080910402602001604051908101604052818152929190602084018383808284375094965061232195505050505050565b60408051908101604052601781527f50726f6a6563742057797665726e2045786368616e6765000000000000000000602082015281565b6000546101009004600160a060020a031681565b60006112dc613e18565b6112e4613e18565b6000610280604051908101604052808e51600160a060020a031681526020018e60016020020151600160a060020a0316815260200160408f0151600160a060020a031681526020018d5181526020018d60016020020151815260200160608f0151600160a060020a031681526020018c5160ff16600181111561136357fe5b600181111561136e57fe5b81526020018c6001602002015160ff16600281111561138957fe5b600281111561139457fe5b815260200160808f0151600160a060020a0316815260200160408d015160ff1660018111156113bf57fe5b60018111156113ca57fe5b8152602081018c9052604081018a905260600160a08f0151600160a060020a031681526020810188905260400160c08f0151600160a060020a0316815260200160408e0151815260200160608e0151815260200160808e0151815260200160a08e0151815260200160c08e0151905292506102806040519081016040528060e08f0151600160a060020a031681526020016101008f0151600160a060020a031681526020016101208f0151600160a060020a0316815260200160e08e015181526020016101008e015181526020016101408f0151600160a060020a0316815260200160608d015160ff1660018111156114bf57fe5b60018111156114ca57fe5b815260200160808d015160ff1660028111156114e257fe5b60028111156114ed57fe5b81526020016101608f0151600160a060020a0316815260200160a08d015160ff16600181111561151957fe5b600181111561152457fe5b8152602081018b9052604081018990526060016101808f0151600160a060020a03168152602081018790526040016101a08f0151600160a060020a031681526020016101208e015181526020016101408e015181526020016101608e015181526020016101808e015181526020016101a08e015190529150600360006115a984612444565b8152602081019190915260400160002090506115c6838383612476565b9d9c50505050505050505050505050565b6115df613e18565b610280604051908101604052808b51600160a060020a031681526020018b60016020020151600160a060020a0316815260200160408c0151600160a060020a031681526020018a5181526020018a60016020020151815260200160608c0151600160a060020a0316815260200189600181111561165857fe5b815260200188600281111561166957fe5b815260200160808c0151600160a060020a0316815260200187600181111561168d57fe5b8152602081018790526040810186905260600160a08c0151600160a060020a031681526020810185905260400160c08c0151600160a060020a0316815260200160408b0151815260200160608b0151815260200160808b0151815260200160a08b0151815260200160c08b015190529050611708818361266e565b50505050505050505050565b61171c613ed0565b6117278484846129ba565b50825b9392505050565b611875610280604051908101604052808d51600160a060020a031681526020018d60016020020151600160a060020a0316815260200160408e0151600160a060020a031681526020018c5181526020018c60016020020151815260200160608e0151600160a060020a031681526020018b60018111156117ad57fe5b81526020018a60028111156117be57fe5b815260200160808e0151600160a060020a031681526020018960018111156117e257fe5b8152602081018990526040810188905260600160a08e0151600160a060020a031681526020810187905260400160c08e0151600160a060020a0316815260200160408d0151815260200160608d0151815260200160808d0151815260200160a08d0151815260200160c08d015190526060604051908101604090815260ff87168252602082018690528101849052612be5565b5050505050505050505050565b60036020526000908152604090208054600190910154600160a060020a039091169082565b60006118b48584866129ba565b6118bf8386846129ba565b6118c98584612c64565b90505b949350505050565b60006118de613e18565b6118e6613e18565b6000610280604051908101604052808e51600160a060020a031681526020018e60016020020151600160a060020a0316815260200160408f0151600160a060020a031681526020018d5181526020018d60016020020151815260200160608f0151600160a060020a031681526020018c5160ff16600181111561196557fe5b600181111561197057fe5b81526020018c6001602002015160ff16600281111561198b57fe5b600281111561199657fe5b815260200160808f0151600160a060020a0316815260200160408d015160ff1660018111156119c157fe5b60018111156119cc57fe5b8152602081018c9052604081018a905260600160a08f0151600160a060020a031681526020810188905260400160c08f0151600160a060020a0316815260200160408e0151815260200160608e0151815260200160808e0151815260200160a08e0151815260200160c08e0151905292506102806040519081016040528060e08f0151600160a060020a031681526020016101008f0151600160a060020a031681526020016101208f0151600160a060020a0316815260200160e08e015181526020016101008e015181526020016101408f0151600160a060020a0316815260200160608d015160ff166001811115611ac157fe5b6001811115611acc57fe5b815260200160808d015160ff166002811115611ae457fe5b6002811115611aef57fe5b81526020016101608f0151600160a060020a0316815260200160a08d015160ff166001811115611b1b57fe5b6001811115611b2657fe5b8152602081018b9052604081018990526060016101808f0151600160a060020a03168152602081018790526040016101a08f0151600160a060020a031681526020016101208e015181526020016101408e015181526020016101608e015181526020016101808e015181526020016101a08e01519052915060036000611bab84612444565b8152602081019190915260400160002090506115c6838383612cfa565b6000611bd2613e18565b610280604051908101604052808e51600160a060020a031681526020018e60016020020151600160a060020a0316815260200160408f0151600160a060020a031681526020018d5181526020018d60016020020151815260200160608f0151600160a060020a031681526020018c6001811115611c4b57fe5b81526020018b6002811115611c5c57fe5b815260200160808f0151600160a060020a031681526020018a6001811115611c8057fe5b8152602081018a90526040810189905260600160a08f0151600160a060020a031681526020810188905260400160c08f0151600160a060020a0316815260200160408e0151815260200160608e0151815260200160808e0151815260200160a08e0151815260200160c08e0151905290506115c6611cfd82612dcd565b826060604051908101604090815260ff8a168252602082018990528101879052612e82565b600254600160a060020a031681565b600154600160a060020a031681565b60046020526000908152604090205460ff1681565b611d5d613e18565b611d65613e18565b610280604051908101604052808e51600160a060020a031681526020018e60016020020151600160a060020a0316815260200160408f0151600160a060020a031681526020018d5181526020018d60016020020151815260200160608f0151600160a060020a031681526020018c5160ff166001811115611de257fe5b6001811115611ded57fe5b81526020018c6001602002015160ff166002811115611e0857fe5b6002811115611e1357fe5b815260200160808f0151600160a060020a0316815260200160408d015160ff166001811115611e3e57fe5b6001811115611e4957fe5b8152602081018c9052604081018a905260600160a08f0151600160a060020a031681526020810188905260400160c08f0151600160a060020a0316815260200160408e0151815260200160608e0151815260200160808e0151815260200160a08e0151815260200160c08e0151905291506102806040519081016040528060e08f0151600160a060020a031681526020016101008f0151600160a060020a031681526020016101208f0151600160a060020a0316815260200160e08e015181526020016101008e015181526020016101408f0151600160a060020a0316815260200160608d015160ff166001811115611f3e57fe5b6001811115611f4957fe5b815260200160808d015160ff166002811115611f6157fe5b6002811115611f6c57fe5b81526020016101608f0151600160a060020a0316815260200160a08d015160ff166001811115611f9857fe5b6001811115611fa357fe5b8152602081018b9052604081018990526060016101808f0151600160a060020a03168152602081018790526040016101a08f0151600160a060020a031681526020016101208e015181526020016101408e015181526020016101608e015181526020016101808e015181526020016101a08e01519052905061207682606060405190810160405280875160ff16815260200186518152602001866001602002015190528360606040519081016040528060208a015160ff1681526020016040890151815260200160608901519052612fd6565b50505050505050505050505050565b60056020526000908152604090205460ff1681565b6121df610280604051908101604052808e51600160a060020a031681526020018e60016020020151600160a060020a0316815260200160408f0151600160a060020a031681526020018d5181526020018d60016020020151815260200160608f0151600160a060020a031681526020018c600181111561211657fe5b81526020018b600281111561212757fe5b815260200160808f0151600160a060020a031681526020018a600181111561214b57fe5b8152602081018a90526040810189905260600160a08f0151600160a060020a031681526020810188905260400160c08f0151600160a060020a0316815260200160408e0151815260200160608e0151815260200160808e0151815260200160a08e0151815260200160c08e015190526060604051908101604090815260ff88168252602082018790528101859052836132fc565b505050505050505050505050565b6000612314610280604051908101604052808b51600160a060020a031681526020018b60016020020151600160a060020a0316815260200160408c0151600160a060020a031681526020018a5181526020018a60016020020151815260200160608c0151600160a060020a0316815260200189600181111561226b57fe5b815260200188600281111561227c57fe5b815260200160808c0151600160a060020a031681526020018760018111156122a057fe5b8152602081018790526040810186905260600160a08c0151600160a060020a031681526020810185905260400160c08c0151600160a060020a0316815260200160408b0151815260200160608b0151815260200160808b0151815260200160a08b0151815260200160c08b0151905261352f565b9998505050505050505050565b6000612314610280604051908101604052808b51600160a060020a031681526020018b60016020020151600160a060020a0316815260200160408c0151600160a060020a031681526020018a5181526020018a60016020020151815260200160608c0151600160a060020a0316815260200189600181111561239f57fe5b81526020018860028111156123b057fe5b815260200160808c0151600160a060020a031681526020018760018111156123d457fe5b8152602081018790526040810186905260600160a08c0151600160a060020a031681526020810185905260400160c08c0151600160a060020a0316815260200160408b0151815260200160608b0151815260200160808b0151815260200160a08b0151815260200160c08b015190525b600061244f8261359d565b61245883613754565b60405191825260208201526040908101905180910390209050919050565b6000808460c00151600181111561248957fe5b1480156124a5575060018360c0015160018111156124a357fe5b145b80156124cc5750826101c00151600160a060020a0316846101c00151600160a060020a0316145b8015612508575060006040840151600160a060020a0316148061250857508360200151600160a060020a03168360400151600160a060020a0316145b8015612544575060006040850151600160a060020a0316148061254457508260200151600160a060020a03168460400151600160a060020a0316145b80156125a75750600060a0840151600160a060020a03161480156125765750600060a0850151600160a060020a031614155b806125a75750600060a0840151600160a060020a0316141580156125a75750600060a0850151600160a060020a0316145b80156125ce5750826101000151600160a060020a0316846101000151600160a060020a0316145b80156125f9575082610120015160018111156125e657fe5b84610120015160018111156125f757fe5b145b801561262c575061262c8460e0015184602001518661024001516040805190810160405260008082526020820152613853565b80156118cc57506118cc8360e00151856020015185610240015185604080519081016040528154600160a060020a031681526001909101546020820152613853565b60008260200151600160a060020a031633600160a060020a031614151561269457600080fd5b61269d83612dcd565b60008181526005602052604090205490915060ff16156126bc57600080fd5b6000818152600560205260409020805460ff1916600117905560a0830151600160a060020a03168360200151600160a060020a0316827faee3673166cb20f9607e8257375d5244a4f82611eb34a8319dd0b527e89460bf86518760400151886060015189608001518a60c001518b60e001518c61010001518d61012001518e6101400151604051600160a060020a03808b1682528916602082015260408101889052606081018790526080810186600181111561277557fe5b60ff16815260200185600281111561278957fe5b60ff168152600160a060020a03851660208201526040018360018111156127ac57fe5b60ff16815260200180602001828103825283818151815260200191508051906020019080838360005b838110156127ed5780820151838201526020016127d5565b50505050905090810190601f16801561281a5780820380516001836020036101000a031916815260200191505b509a505050505050505050505060405180910390a4807f6b227a8fe336bb14cfe503246633ca4550cd8065f1933a5ffaf83a955eaa40ed610160850151856101800151866101a00151876101c00151886101e001518961020001518a61022001518b61024001518c61026001518c604051600160a060020a03808b166020830152881660608201526080810187905260a0810186905260c0810185905260e0810184905261010081018390528115156101208201526101408082528190604082019082018d818151815260200191508051906020019080838360005b8381101561290e5780820151838201526020016128f6565b50505050905090810190601f16801561293b5780820380516001836020036101000a031916815260200191505b5083810382528b818151815260200191508051906020019080838360005b83811015612971578082015183820152602001612959565b50505050905090810190601f16801561299e5780820380516001836020036101000a031916815260200191505b509c5050505050505050505050505060405180910390a2505050565b6129c2613ee2565b60008061010060405190810160409081527f800000000000000000000000000000000000000000000000000000000000000082527f400000000000000000000000000000000000000000000000000000000000000060208301527f2000000000000000000000000000000000000000000000000000000000000000908201527f100000000000000000000000000000000000000000000000000000000000000060608201527f080000000000000000000000000000000000000000000000000000000000000060808201527f040000000000000000000000000000000000000000000000000000000000000060a08201527f020000000000000000000000000000000000000000000000000000000000000060c082015260f860020a60e082015292508451865114612af357600080fd5b60088651811515612b0057fe5b0484511015612b0e57600080fd5b600091505b8551821015612bdd57826008830660088110612b2b57fe5b6020020151846008840481518110612b3f57fe5b016020015160f860020a900460f860020a0216600160f860020a031916600060f860020a0214905080612b8f57848281518110612b7857fe5b016020015160f860020a900460f860020a02612bae565b858281518110612b9b57fe5b016020015160f860020a900460f860020a025b868381518110612bba57fe5b906020010190600160f860020a031916908160001a905350600190910190612b13565b505050505050565b6000612bf183836138a4565b90508260200151600160a060020a031633600160a060020a0316141515612c1757600080fd5b60008181526004602052604090819020805460ff1916600117905581907f5152abf959f6564662358c2e52b702259b78bac5ee7842a0f01937e670efcc7d905160405180910390a2505050565b6000808251845114612c795760009150612cf3565b5060005b8351811015612cee57828181518110612c9257fe5b016020015160f860020a900460f860020a02600160f860020a031916848281518110612cba57fe5b016020015160f860020a900460f860020a02600160f860020a031916141515612ce65760009150612cf3565b600101612c7d565b600191505b5092915050565b6000806000612d4c8560c001518660e00151876101e001518861020001518961022001518a61024001518a604080519081016040528154600160a060020a0316815260019091015460208201526138c8565b9150612d9b8660c001518760e00151886101e001518961020001518a61022001518b61024001518a604080519081016040528154600160a060020a0316815260019091015460208201526138c8565b905081811015612daa57600080fd5b85610220015185610220015110612dc15780612dc3565b815b9695505050505050565b6000612dd7613ed0565b600060408051908101604052601c81527f19457468657265756d205369676e6564204d6573736167653a0a3332000000006020820152915081612e1985612444565b6040518083805190602001908083835b60208310612e485780518252601f199092019160209182019101612e29565b6001836020036101000a03801982511681845116179092525050509190910192835250506020019050604051908190039020949350505050565b6000600160a060020a0330168351600160a060020a031614612ea65750600061172a565b60008481526004602052604090205460ff1615612ec55750600061172a565b612edd8360c001518460e00151856102400151613976565b1515612eeb5750600061172a565b8260200151600160a060020a031633600160a060020a03161415612f115750600161172a565b60008481526005602052604090205460ff1615612f305750600161172a565b8260200151600160a060020a03166001858451856020015186604001516040516000815260200160405260006040516020015260405193845260ff90921660208085019190915260408085019290925260608401929092526080909201915160208103908084039060008661646e5a03f11515612fac57600080fd5b505060206040510351600160a060020a03161415612fcc5750600161172a565b5060009392505050565b600080600080612fe688886138a4565b9350612ff286866138a4565b60008181526003602052604090209093509150613010888784612476565b151561301b57600080fd5b6130358861014001518761014001518a61016001516129ba565b61304f8661014001518961014001518861016001516129ba565b613063886101400151876101400151612c64565b151561306e57600080fd5b600154600160a060020a031663c4552791602088015160006040516020015260405160e060020a63ffffffff8416028152600160a060020a039091166004820152602401602060405180830381600087803b15156130cb57600080fd5b6102c65a03f115156130dc57600080fd5b5050506040518051915050600160a060020a03811615156130fc57600080fd5b6000848152600460205260408082208054600160ff19918216811790925586845291909220805490911690911790556131368887846139c5565b80600160a060020a0316631b0f7ba98761010001518861012001518961014001516000604051602001526040518463ffffffff1660e060020a0281526004018084600160a060020a0316600160a060020a0316815260200183600181111561319a57fe5b60ff16815260200180602001828103825283818151815260200191508051906020019080838360005b838110156131db5780820151838201526020016131c3565b50505050905090810190601f1680156132085780820380516001836020036101000a031916815260200191505b50945050505050602060405180830381600087803b151561322857600080fd5b6102c65a03f1151561323957600080fd5b50505060405180519050151561324e57600080fd5b6000610180890151600160a060020a0316146132895761327e8861018001518761014001518a6101a00151613c12565b151561328957600080fd5b6000610180870151600160a060020a0316146132c4576132b9866101800151876101400151886101a00151613c12565b15156132c457600080fd5b82847f0ac43ae443462c4ede260ad38899e594fa78238f3252539851b7b4395f3b043e60405160405180910390a35050505050505050565b600080600061330b86866138a4565b6000818152600360205260409020909350915061336560c08701518760e00151886101e001518961020001518a610240015187604080519081016040528154600160a060020a031681526001909101546020820152613d17565b90508084101561337457600080fd5b604080519081016040908152600160a060020a0333168252602080830187905260008681526003909152208151815473ffffffffffffffffffffffffffffffffffffffff1916600160a060020a03919091161781556020820151600190910155508154600160a060020a03161561346c576002548254600160a060020a0391821691639577bffa91166101c0890151856001015460405160e060020a63ffffffff8616028152600160a060020a0393841660048201529190921660248201526044810191909152606401600060405180830381600087803b151561345757600080fd5b6102c65a03f1151561346857600080fd5b5050505b600254600160a060020a0316635a8158e2336101c08901518760405160e060020a63ffffffff8616028152600160a060020a0393841660048201529190921660248201526044810191909152606401600060405180830381600087803b15156134d457600080fd5b6102c65a03f115156134e557600080fd5b5050600160a060020a0333169050837fff38b86de5d69f2775369319139dcab1f44807defd694708dd58e5d96ecd7c158660405190815260200160405180910390a3505050505050565b600080600061353d84612444565b600081815260036020526040902090925090506118cc60c08501518560e00151866101e0015187610200015188610220015189610240015187604080519081016040528154600160a060020a0316815260019091015460208201526138c8565b6000815182602001518360400151846060015185608001518660a001518760c001518860e001518961010001518a61012001518b61014001518c61016001516040516c01000000000000000000000000600160a060020a03808f16820283528d8116820260148401528c811682026028840152603c83018c9052605c83018b9052891602607c8201526090810187600181111561363657fe5b60ff1660f860020a02815260010186600281111561365057fe5b60ff1660f860020a02815260010185600160a060020a0316600160a060020a03166c0100000000000000000000000002815260140184600181111561369157fe5b60ff1660f860020a02815260010183805190602001908083835b602083106136ca5780518252601f1990920191602091820191016136ab565b6001836020036101000a038019825116818451161790925250505091909101905082805190602001908083835b602083106137165780518252601f1990920191602091820191016136f7565b6001836020036101000a0380198251168184511617909252505050919091019d5060409c505050505050505050505050505180910390209050919050565b6000816101800151826101a00151836101c00151846101e001518561020001518661022001518761024001518861026001516040516c01000000000000000000000000600160a060020a038a160281526014810188805190602001908083835b602083106137d35780518252601f1990920191602091820191016137b4565b6001836020036101000a03801982511681845116808217855250505050505090500187600160a060020a0316600160a060020a03166c010000000000000000000000000281526014018681526020018581526020018481526020018381526020018281526020019850505050505050505060405180910390209050919050565b6000600185600281111561386357fe5b1415613892578151600160a060020a031684600160a060020a031614801561388b5750824210155b90506118cc565b82158061388b575082421090506118cc565b6000806138b084612dcd565b90506138bd818585612e82565b151561172a57600080fd5b600080808860028111156138d857fe5b14156138e65786915061396a565b60018860028111156138f457fe5b141561391e5760008351600160a060020a0316141561391257600080fd5b8260200151915061396a565b600288600281111561392c57fe5b14156100e257848403854203870281151561394357fe5b049050600189600181111561395457fe5b141561396457808703915061396a565b80870191505b50979650505050505050565b6000600183600281111561398657fe5b14158061399e5750600184600181111561399c57fe5b145b80156118cc575060008360028111156139b357fe5b14806118cc5750506000901192915050565b60006139d2848484612cfa565b9050600060a0840151600160a060020a031614613a31578360800151836080015111156139fe57600080fd5b613a1583602001518460a001518560600151613d81565b613a2c84602001518460a001518560800151613d81565b613a74565b826080015184608001511115613a4657600080fd5b613a5d84602001518560a001518660600151613d81565b613a7483602001518560a001518660800151613d81565b8154600160a060020a031615613b0b576002548254600160a060020a0391821691639577bffa91166101c0860151856001015460405160e060020a63ffffffff8616028152600160a060020a0393841660048201529190921660248201526044810191909152606401600060405180830381600087803b1515613af657600080fd5b6102c65a03f11515613b0757600080fd5b5050505b600254600160a060020a031663cb5f26436020860151856101c001518460405160e060020a63ffffffff8616028152600160a060020a0393841660048201529190921660248201526044810191909152606401600060405180830381600087803b1515613b7757600080fd5b6102c65a03f11515613b8857600080fd5b5050600254600160a060020a0316905063034422ef6020850151856101c001518460405160e060020a63ffffffff8616028152600160a060020a0393841660048201529190921660248201526044810191909152606401600060405180830381600087803b1515613bf857600080fd5b6102c65a03f11515613c0957600080fd5b50505050505050565b6000613c1c613ed0565b60008060008551875101604051805910613c335750595b818152601f19601f83011681016020016040529050935083519250600091505b8651821015613ca957868281518110613c6857fe5b016020015160f860020a900460f860020a02848381518110613c8657fe5b906020010190600160f860020a031916908160001a905350600190910190613c53565b5060005b8551811015613d0357858181518110613cc257fe5b016020015160f860020a900460f860020a02848851830181518110613ce357fe5b906020010190600160f860020a031916908160001a905350600101613cad565b60008484868b5afa98975050505050505050565b60006001876001811115613d2757fe5b148015613d3f57506001866002811115613d3d57fe5b145b8015613d4a57508242105b1515613d5557600080fd5b60008251600160a060020a03161415613d6f575083612dc3565b83826020015101979650505050505050565b6000811115613e1357600254600054600160a060020a039182169163f49ec96191869186916101009004168560405160e060020a63ffffffff8716028152600160a060020a0394851660048201529284166024840152921660448201526064810191909152608401600060405180830381600087803b1515613e0257600080fd5b6102c65a03f11515612bdd57600080fd5b505050565b6102806040519081016040908152600080835260208301819052908201819052606082018190526080820181905260a0820181905260c0820181905260e0820181905261010082018190526101208201526101408101613e76613ed0565b8152602001613e83613ed0565b815260006020820152604001613e97613ed0565b81526020016000600160a060020a0316815260200160008152602001600081526020016000815260200160008152602001600081525090565b60206040519081016040526000815290565b6101006040519081016040526008815b600081526000199091019060200181613ef257905050905600a165627a7a72305820ed5f87b8c95d70d046529ca9c4564889213ba286aa997082315acc6485e3b8720029",
  "source": "/*\n\n  << Project Wyvern Exchange >>\n\n*/\n\npragma solidity 0.4.18;\n\nimport \"./exchange/Exchange.sol\";\n\n/**\n * @title WyvernExchange\n * @author Project Wyvern Developers\n */\ncontract WyvernExchange is Exchange {\n\n    string public constant name = \"Project Wyvern Exchange\";\n\n    function WyvernExchange (ProxyRegistry registryAddress, ERC20 tokenAddress, AuthenticatedLazyBank lazyBankAddress) public {\n        exchangeTokenAddress = tokenAddress;\n        registry = registryAddress;\n        bank = lazyBankAddress;\n    }\n\n}\n",
  "sourcePath": "/home/cwgoes/working/crypto/wyvern/wyvern-ethereum/contracts/WyvernExchange.sol",
  "compiler": {
    "name": "solc",
    "version": "0.4.18+commit.9cf6e910.Emscripten.clang"
  },
  "schemaVersion": "1.0.1",
  "updatedAt": "2018-01-30T22:19:07.993Z"
}