{
  "contractName": "WyvernToken",
  "abi": [
    {
      "constant": true,
      "inputs": [],
      "name": "MULTIPLIER",
      "outputs": [
        {
          "name": "",
          "type": "uint256"
        }
      ],
      "payable": false,
      "stateMutability": "view",
      "type": "function"
    },
    {
      "constant": true,
      "inputs": [],
      "name": "name",
      "outputs": [
        {
          "name": "",
          "type": "string"
        }
      ],
      "payable": false,
      "stateMutability": "view",
      "type": "function"
    },
    {
      "constant": true,
      "inputs": [],
      "name": "maximumRedeemable",
      "outputs": [
        {
          "name": "",
          "type": "uint256"
        }
      ],
      "payable": false,
      "stateMutability": "view",
      "type": "function"
    },
    {
      "constant": false,
      "inputs": [
        {
          "name": "_spender",
          "type": "address"
        },
        {
          "name": "_value",
          "type": "uint256"
        }
      ],
      "name": "approve",
      "outputs": [
        {
          "name": "",
          "type": "bool"
        }
      ],
      "payable": false,
      "stateMutability": "nonpayable",
      "type": "function"
    },
    {
      "constant": true,
      "inputs": [],
      "name": "totalSupply",
      "outputs": [
        {
          "name": "",
          "type": "uint256"
        }
      ],
      "payable": false,
      "stateMutability": "view",
      "type": "function"
    },
    {
      "constant": true,
      "inputs": [],
      "name": "multiplier",
      "outputs": [
        {
          "name": "",
          "type": "uint256"
        }
      ],
      "payable": false,
      "stateMutability": "view",
      "type": "function"
    },
    {
      "constant": false,
      "inputs": [
        {
          "name": "_from",
          "type": "address"
        },
        {
          "name": "_to",
          "type": "address"
        },
        {
          "name": "_value",
          "type": "uint256"
        }
      ],
      "name": "transferFrom",
      "outputs": [
        {
          "name": "",
          "type": "bool"
        }
      ],
      "payable": false,
      "stateMutability": "nonpayable",
      "type": "function"
    },
    {
      "constant": true,
      "inputs": [],
      "name": "decimals",
      "outputs": [
        {
          "name": "",
          "type": "uint256"
        }
      ],
      "payable": false,
      "stateMutability": "view",
      "type": "function"
    },
    {
      "constant": false,
      "inputs": [
        {
          "name": "_value",
          "type": "uint256"
        }
      ],
      "name": "burn",
      "outputs": [],
      "payable": false,
      "stateMutability": "nonpayable",
      "type": "function"
    },
    {
      "constant": true,
      "inputs": [
        {
          "name": "pubKey",
          "type": "bytes"
        }
      ],
      "name": "pubKeyToEthereumAddress",
      "outputs": [
        {
          "name": "",
          "type": "address"
        }
      ],
      "payable": false,
      "stateMutability": "pure",
      "type": "function"
    },
    {
      "constant": true,
      "inputs": [],
      "name": "MINT_AMOUNT",
      "outputs": [
        {
          "name": "",
          "type": "uint256"
        }
      ],
      "payable": false,
      "stateMutability": "view",
      "type": "function"
    },
    {
      "constant": false,
      "inputs": [
        {
          "name": "_spender",
          "type": "address"
        },
        {
          "name": "_subtractedValue",
          "type": "uint256"
        }
      ],
      "name": "decreaseApproval",
      "outputs": [
        {
          "name": "",
          "type": "bool"
        }
      ],
      "payable": false,
      "stateMutability": "nonpayable",
      "type": "function"
    },
    {
      "constant": true,
      "inputs": [
        {
          "name": "_owner",
          "type": "address"
        }
      ],
      "name": "balanceOf",
      "outputs": [
        {
          "name": "",
          "type": "uint256"
        }
      ],
      "payable": false,
      "stateMutability": "view",
      "type": "function"
    },
    {
      "constant": false,
      "inputs": [
        {
          "name": "txid",
          "type": "bytes32"
        },
        {
          "name": "outputIndex",
          "type": "uint8"
        },
        {
          "name": "satoshis",
          "type": "uint256"
        },
        {
          "name": "proof",
          "type": "bytes32[]"
        },
        {
          "name": "pubKey",
          "type": "bytes"
        },
        {
          "name": "isCompressed",
          "type": "bool"
        },
        {
          "name": "v",
          "type": "uint8"
        },
        {
          "name": "r",
          "type": "bytes32"
        },
        {
          "name": "s",
          "type": "bytes32"
        }
      ],
      "name": "redeemUTXO",
      "outputs": [
        {
          "name": "tokensRedeemed",
          "type": "uint256"
        }
      ],
      "payable": false,
      "stateMutability": "nonpayable",
      "type": "function"
    },
    {
      "constant": true,
      "inputs": [
        {
          "name": "merkleLeafHash",
          "type": "bytes32"
        },
        {
          "name": "proof",
          "type": "bytes32[]"
        }
      ],
      "name": "canRedeemUTXOHash",
      "outputs": [
        {
          "name": "",
          "type": "bool"
        }
      ],
      "payable": false,
      "stateMutability": "view",
      "type": "function"
    },
    {
      "constant": false,
      "inputs": [
        {
          "name": "destination",
          "type": "address"
        }
      ],
      "name": "releaseTokens",
      "outputs": [],
      "payable": false,
      "stateMutability": "nonpayable",
      "type": "function"
    },
    {
      "constant": true,
      "inputs": [],
      "name": "symbol",
      "outputs": [
        {
          "name": "",
          "type": "string"
        }
      ],
      "payable": false,
      "stateMutability": "view",
      "type": "function"
    },
    {
      "constant": false,
      "inputs": [
        {
          "name": "_to",
          "type": "address"
        },
        {
          "name": "_value",
          "type": "uint256"
        }
      ],
      "name": "transfer",
      "outputs": [
        {
          "name": "",
          "type": "bool"
        }
      ],
      "payable": false,
      "stateMutability": "nonpayable",
      "type": "function"
    },
    {
      "constant": true,
      "inputs": [
        {
          "name": "hash",
          "type": "bytes32"
        },
        {
          "name": "v",
          "type": "uint8"
        },
        {
          "name": "r",
          "type": "bytes32"
        },
        {
          "name": "s",
          "type": "bytes32"
        },
        {
          "name": "expected",
          "type": "address"
        }
      ],
      "name": "validateSignature",
      "outputs": [
        {
          "name": "",
          "type": "bool"
        }
      ],
      "payable": false,
      "stateMutability": "pure",
      "type": "function"
    },
    {
      "constant": true,
      "inputs": [
        {
          "name": "proof",
          "type": "bytes32[]"
        },
        {
          "name": "merkleLeafHash",
          "type": "bytes32"
        }
      ],
      "name": "verifyProof",
      "outputs": [
        {
          "name": "",
          "type": "bool"
        }
      ],
      "payable": false,
      "stateMutability": "view",
      "type": "function"
    },
    {
      "constant": true,
      "inputs": [
        {
          "name": "txid",
          "type": "bytes32"
        },
        {
          "name": "originalAddress",
          "type": "bytes20"
        },
        {
          "name": "outputIndex",
          "type": "uint8"
        },
        {
          "name": "satoshis",
          "type": "uint256"
        },
        {
          "name": "proof",
          "type": "bytes32[]"
        }
      ],
      "name": "canRedeemUTXO",
      "outputs": [
        {
          "name": "",
          "type": "bool"
        }
      ],
      "payable": false,
      "stateMutability": "view",
      "type": "function"
    },
    {
      "constant": true,
      "inputs": [
        {
          "name": "addr",
          "type": "address"
        },
        {
          "name": "pubKey",
          "type": "bytes"
        },
        {
          "name": "v",
          "type": "uint8"
        },
        {
          "name": "r",
          "type": "bytes32"
        },
        {
          "name": "s",
          "type": "bytes32"
        }
      ],
      "name": "ecdsaVerify",
      "outputs": [
        {
          "name": "",
          "type": "bool"
        }
      ],
      "payable": false,
      "stateMutability": "pure",
      "type": "function"
    },
    {
      "constant": false,
      "inputs": [
        {
          "name": "_spender",
          "type": "address"
        },
        {
          "name": "_addedValue",
          "type": "uint256"
        }
      ],
      "name": "increaseApproval",
      "outputs": [
        {
          "name": "",
          "type": "bool"
        }
      ],
      "payable": false,
      "stateMutability": "nonpayable",
      "type": "function"
    },
    {
      "constant": true,
      "inputs": [
        {
          "name": "_owner",
          "type": "address"
        },
        {
          "name": "_spender",
          "type": "address"
        }
      ],
      "name": "allowance",
      "outputs": [
        {
          "name": "",
          "type": "uint256"
        }
      ],
      "payable": false,
      "stateMutability": "view",
      "type": "function"
    },
    {
      "constant": true,
      "inputs": [
        {
          "name": "pubKey",
          "type": "bytes"
        },
        {
          "name": "isCompressed",
          "type": "bool"
        }
      ],
      "name": "pubKeyToBitcoinAddress",
      "outputs": [
        {
          "name": "",
          "type": "bytes20"
        }
      ],
      "payable": false,
      "stateMutability": "pure",
      "type": "function"
    },
    {
      "constant": true,
      "inputs": [],
      "name": "rootUTXOMerkleTreeHash",
      "outputs": [
        {
          "name": "",
          "type": "bytes32"
        }
      ],
      "payable": false,
      "stateMutability": "view",
      "type": "function"
    },
    {
      "constant": true,
      "inputs": [],
      "name": "totalRedeemed",
      "outputs": [
        {
          "name": "",
          "type": "uint256"
        }
      ],
      "payable": false,
      "stateMutability": "view",
      "type": "function"
    },
    {
      "constant": true,
      "inputs": [],
      "name": "SATS_TO_TOKENS",
      "outputs": [
        {
          "name": "",
          "type": "uint256"
        }
      ],
      "payable": false,
      "stateMutability": "view",
      "type": "function"
    },
    {
      "inputs": [
        {
          "name": "merkleRoot",
          "type": "bytes32"
        },
        {
          "name": "totalUtxoAmount",
          "type": "uint256"
        }
      ],
      "payable": false,
      "stateMutability": "nonpayable",
      "type": "constructor"
    },
    {
      "anonymous": false,
      "inputs": [
        {
          "indexed": true,
          "name": "burner",
          "type": "address"
        },
        {
          "indexed": false,
          "name": "value",
          "type": "uint256"
        }
      ],
      "name": "Burn",
      "type": "event"
    },
    {
      "anonymous": false,
      "inputs": [
        {
          "indexed": false,
          "name": "txid",
          "type": "bytes32"
        },
        {
          "indexed": false,
          "name": "outputIndex",
          "type": "uint8"
        },
        {
          "indexed": false,
          "name": "satoshis",
          "type": "uint256"
        },
        {
          "indexed": false,
          "name": "proof",
          "type": "bytes32[]"
        },
        {
          "indexed": false,
          "name": "pubKey",
          "type": "bytes"
        },
        {
          "indexed": false,
          "name": "v",
          "type": "uint8"
        },
        {
          "indexed": false,
          "name": "r",
          "type": "bytes32"
        },
        {
          "indexed": false,
          "name": "s",
          "type": "bytes32"
        },
        {
          "indexed": true,
          "name": "redeemer",
          "type": "address"
        },
        {
          "indexed": false,
          "name": "numberOfTokens",
          "type": "uint256"
        }
      ],
      "name": "UTXORedeemed",
      "type": "event"
    },
    {
      "anonymous": false,
      "inputs": [
        {
          "indexed": false,
          "name": "destination",
          "type": "address"
        },
        {
          "indexed": false,
          "name": "numberOfTokens",
          "type": "uint256"
        }
      ],
      "name": "TokensReleased",
      "type": "event"
    },
    {
      "anonymous": false,
      "inputs": [
        {
          "indexed": true,
          "name": "owner",
          "type": "address"
        },
        {
          "indexed": true,
          "name": "spender",
          "type": "address"
        },
        {
          "indexed": false,
          "name": "value",
          "type": "uint256"
        }
      ],
      "name": "Approval",
      "type": "event"
    },
    {
      "anonymous": false,
      "inputs": [
        {
          "indexed": true,
          "name": "from",
          "type": "address"
        },
        {
          "indexed": true,
          "name": "to",
          "type": "address"
        },
        {
          "indexed": false,
          "name": "value",
          "type": "uint256"
        }
      ],
      "name": "Transfer",
      "type": "event"
    }
  ],
  "bytecode": "0x60806040526003805460a060020a60ff0219169055600060085534801561002557600080fd5b506040516040806116f183398101604052805160209091015160038054600160a060020a03191633600160a060020a03161790556402540be4009081026a01a784379d99db42000000818103600455600593909355600192909255600991909155600755611659806100986000396000f3006080604052600436106101695763ffffffff7c0100000000000000000000000000000000000000000000000000000000600035041663059f8b16811461016e57806306fdde031461019557806308b4312b1461021f578063095ea7b31461023457806318160ddd1461026c5780631b3ed7221461028157806323b872dd14610296578063313ce567146102c057806342966c68146102d55780635418796c146102ef5780635427789c14610364578063661884631461037957806370a082311461039d578063782520dd146103be5780637f7614721461047a57806387b0be48146104d457806395d89b41146104f5578063a9059cbb1461050a578063af1d06e81461052e578063b80ac7df1461055e578063ca193e4d146105b5578063ce267b551461062e578063d73dd623146106a4578063dd62ed3e146106c8578063e073ef69146106ef578063e6997f6d1461076e578063f35dad4014610783578063fa2dedec14610798575b600080fd5b34801561017a57600080fd5b506101836107ad565b60408051918252519081900360200190f35b3480156101a157600080fd5b506101aa6107b2565b6040805160208082528351818301528351919283929083019185019080838360005b838110156101e45781810151838201526020016101cc565b50505050905090810190601f1680156102115780820380516001836020036101000a031916815260200191505b509250505060405180910390f35b34801561022b57600080fd5b506101836107e9565b34801561024057600080fd5b50610258600160a060020a03600435166024356107ef565b604080519115158252519081900360200190f35b34801561027857600080fd5b5061018361085a565b34801561028d57600080fd5b50610183610860565b3480156102a257600080fd5b50610258600160a060020a0360043581169060243516604435610866565b3480156102cc57600080fd5b506101836109d4565b3480156102e157600080fd5b506102ed6004356109d9565b005b3480156102fb57600080fd5b506040805160206004803580820135601f81018490048402850184019095528484526103489436949293602493928401919081908401838280828437509497506109e69650505050505050565b60408051600160a060020a039092168252519081900360200190f35b34801561037057600080fd5b50610183610a53565b34801561038557600080fd5b50610258600160a060020a0360043516602435610a62565b3480156103a957600080fd5b50610183600160a060020a0360043516610b5b565b3480156103ca57600080fd5b506040805160206004606435818101358381028086018501909652808552610183958335956024803560ff16966044359636969095608495939091019290918291908501908490808284375050604080516020601f89358b018035918201839004830284018301909452808352979a9998810197919650918201945092508291508401838280828437509497505050508235151593505060ff602083013516916040810135915060600135610b76565b34801561048657600080fd5b5060408051602060046024803582810135848102808701860190975280865261025896843596369660449591949091019291829185019084908082843750949750610df39650505050505050565b3480156104e057600080fd5b506102ed600160a060020a0360043516610e1e565b34801561050157600080fd5b506101aa610f22565b34801561051657600080fd5b50610258600160a060020a0360043516602435610f59565b34801561053a57600080fd5b5061025860043560ff60243516604435606435600160a060020a0360843516611040565b34801561056a57600080fd5b50604080516020600480358082013583810280860185019096528085526102589536959394602494938501929182918501908490808284375094975050933594506110c59350505050565b3480156105c157600080fd5b50604080516020600460843581810135838102808601850190965280855261025895833595602480356bffffffffffffffffffffffff19169660443560ff1696606435963696919560a4959490910192829190850190849080828437509497506110d49650505050505050565b34801561063a57600080fd5b5060408051602060046024803582810135601f8101859004850286018501909652858552610258958335600160a060020a03169536956044949193909101919081908401838280828437509497505050833560ff1694505050602082013591604001359050611129565b3480156106b057600080fd5b50610258600160a060020a03600435166024356111b0565b3480156106d457600080fd5b50610183600160a060020a0360043581169060243516611252565b3480156106fb57600080fd5b506040805160206004803580820135601f810184900484028501840190955284845261074c94369492936024939284019190819084018382808284375094975050505091351515925061127d915050565b604080516bffffffffffffffffffffffff199092168252519081900360200190f35b34801561077a57600080fd5b506101836113cf565b34801561078f57600080fd5b506101836113d5565b3480156107a457600080fd5b506101836113db565b600181565b60408051808201909152601481527f50726f6a6563742057797665726e20546f6b656e000000000000000000000000602082015281565b60095481565b600160a060020a03338116600081815260026020908152604080832094871680845294825280832086905580518681529051929493927f8c5be1e5ebec7d5bd14f71427d1e84f3dd0314c0f7b2291e5b200ac8c7c3b925929181900390910190a35060015b92915050565b60015490565b60075481565b6000600160a060020a038316151561087d57600080fd5b600160a060020a0384166000908152602081905260409020548211156108a257600080fd5b600160a060020a03808516600090815260026020908152604080832033909416835292905220548211156108d557600080fd5b600160a060020a0384166000908152602081905260409020546108fe908363ffffffff6113e416565b600160a060020a038086166000908152602081905260408082209390935590851681522054610933908363ffffffff6113f616565b600160a060020a0380851660009081526020818152604080832094909455878316825260028152838220339093168252919091522054610979908363ffffffff6113e416565b600160a060020a0380861660008181526002602090815260408083203386168452825291829020949094558051868152905192871693919260008051602061160e833981519152929181900390910190a35060019392505050565b601281565b6109e33382611403565b50565b6000816040518082805190602001908083835b60208310610a185780518252601f1990920191602091820191016109f9565b5181516020939093036101000a60001901801990911692169190911790526040519201829003909120600160a060020a031695945050505050565b6a01a784379d99db4200000081565b600160a060020a03338116600090815260026020908152604080832093861683529290529081205480831115610abf57600160a060020a033381166000908152600260209081526040808320938816835292905290812055610af6565b610acf818463ffffffff6113e416565b600160a060020a033381166000908152600260209081526040808320938916835292905220555b600160a060020a0333811660008181526002602090815260408083209489168084529482529182902054825190815291517f8c5be1e5ebec7d5bd14f71427d1e84f3dd0314c0f7b2291e5b200ac8c7c3b9259281900390910190a35060019392505050565b600160a060020a031660009081526020819052604090205490565b6000806000610b85888861127d565b604080518e81526bffffffffffffffffffffffff198316602082015260f860020a60ff8f16026034820152603581018d905290519081900360550190209092509050610bd1818a610df3565b1515610bdc57600080fd5b610be93389888888611129565b1515610bf457600080fd5b6000818152600660205260409020805460ff19166001179055600754610c1b908b906114f2565b9250610c29600854846113f6565b60088190556009541015610c3c57600080fd5b600160a060020a033316600090815260208190526040902054610c5f90846113f6565b600160a060020a03331660008181526020818152604080832094909455835187815293519293919260008051602061160e8339815191529281900390910190a333600160a060020a03167f312ab01e6ce21dfe30ce841b1cd250767ce180d2c10a5bea492a1cb6b62eb97b8d8d8d8d8d8c8c8c8c604051808a600019166000191681526020018960ff1660ff16815260200188815260200180602001806020018760ff1660ff16815260200186600019166000191681526020018560001916600019168152602001848152602001838103835289818151815260200191508051906020019060200280838360005b83811015610d65578181015183820152602001610d4d565b50505050905001838103825288818151815260200191508051906020019080838360005b83811015610da1578181015183820152602001610d89565b50505050905090810190601f168015610dce5780820380516001836020036101000a031916815260200191505b509b50505050505050505050505060405180910390a250509998505050505050505050565b60008281526006602052604081205460ff16158015610e175750610e1782846110c5565b9392505050565b60035433600160a060020a039081169116148015610e57575060035474010000000000000000000000000000000000000000900460ff16155b1515610e6257600080fd5b6003805474ff0000000000000000000000000000000000000000191674010000000000000000000000000000000000000000179055600454600160a060020a0382166000818152602081815260408083208590558051948552519293919260008051602061160e8339815191529281900390910190a360045460408051600160a060020a0384168152602081019290925280517fc7798891864187665ac6dd119286e44ec13f014527aeeb2b8eb3fd413df931799281900390910190a150565b60408051808201909152600381527f5759560000000000000000000000000000000000000000000000000000000000602082015281565b6000600160a060020a0383161515610f7057600080fd5b600160a060020a033316600090815260208190526040902054821115610f9557600080fd5b600160a060020a033316600090815260208190526040902054610fbe908363ffffffff6113e416565b600160a060020a033381166000908152602081905260408082209390935590851681522054610ff3908363ffffffff6113f616565b600160a060020a038085166000818152602081815260409182902094909455805186815290519193339093169260008051602061160e83398151915292918290030190a350600192915050565b604080516000808252602080830180855289905260ff881683850152606083018790526080830186905292519092600160a060020a0385169260019260a08083019392601f19830192908190039091019087865af11580156110a6573d6000803e3d6000fd5b50505060206040510351600160a060020a031614905095945050505050565b6000610e17836005548461151b565b604080518681526bffffffffffffffffffffffff198616602082015260f860020a60ff861602603482015260358101849052905190819003605501902060009061111e8184610df3565b979650505050505050565b60006111a66002876040518082600160a060020a0316600160a060020a03166c010000000000000000000000000281526014019150506020604051808303816000865af115801561117e573d6000803e3d6000fd5b5050506040513d602081101561119357600080fd5b50518585856111a18a6109e6565b611040565b9695505050505050565b600160a060020a0333811660009081526002602090815260408083209386168352929052908120546111e8908363ffffffff6113f616565b600160a060020a0333811660008181526002602090815260408083209489168084529482529182902085905581519485529051929391927f8c5be1e5ebec7d5bd14f71427d1e84f3dd0314c0f7b2291e5b200ac8c7c3b9259281900390910190a350600192915050565b600160a060020a03918216600090815260026020908152604080832093909416825291909152205490565b60008060008061128e86600061159d565b925061129b86602061159d565b9150841561135e5760028206156112b35760036112b6565b60025b9050600360028285604051808360ff1660ff1660f860020a028152600101828152602001925050506020604051808303816000865af11580156112fd573d6000803e3d6000fd5b5050506040513d602081101561131257600080fd5b505160408051918252516020828101929091908190038201816000865af1158015611341573d6000803e3d6000fd5b505050604051516c010000000000000000000000000293506113c6565b50604080517f040000000000000000000000000000000000000000000000000000000000000081526001810184905260218101839052905160049160039160029160418082019260209290919082900301816000865af11580156112fd573d6000803e3d6000fd5b50505092915050565b60055481565b60085481565b6402540be40081565b6000828211156113f057fe5b50900390565b8181018281101561085457fe5b600160a060020a03821660009081526020819052604090205481111561142857600080fd5b600160a060020a038216600090815260208190526040902054611451908263ffffffff6113e416565b600160a060020a03831660009081526020819052604090205560015461147d908263ffffffff6113e416565b600155604080518281529051600160a060020a038416917fcc16f5dbb4873280815c1ee09dbd06736cffcc184412cf7a71a0fdb75d397ca5919081900360200190a2604080518281529051600091600160a060020a0385169160008051602061160e8339815191529181900360200190a35050565b600082151561150357506000610854565b5081810281838281151561151357fe5b041461085457fe5b60008181805b865182101561159057868281518110151561153857fe5b6020908102909101015190508083101561156a5760408051938452602084018290528051938490030190922091611585565b60408051828152602081019490945280519384900301909220915b600190910190611521565b5050929092149392505050565b6000805b60208110156116065780600802848483018151811015156115be57fe5b60209101015160029190910a60f860020a918290049091027fff00000000000000000000000000000000000000000000000000000000000000160491909118906001016115a1565b50929150505600ddf252ad1be2c89b69c2b068fc378daa952ba7f163c4a11628f55a4df523b3efa165627a7a723058207d7e946257d12be35f4eae22fa88fccc1ccdb9f6783d47ffbe11282d42b382120029",
  "source": "/*\n\n  << Project Wyvern Token (WYV) >>\n\n*/\n\npragma solidity 0.4.23;\n\nimport \"zeppelin-solidity/contracts/token/ERC20/BurnableToken.sol\";\n\nimport \"./token/UTXORedeemableToken.sol\";\nimport \"./token/DelayedReleaseToken.sol\";\n\n/**\n  * @title WyvernToken\n  * @author Project Wyvern Developers\n  */\ncontract WyvernToken is DelayedReleaseToken, UTXORedeemableToken, BurnableToken {\n\n    uint constant public decimals     = 18;\n    string constant public name       = \"Project Wyvern Token\";\n    string constant public symbol     = \"WYV\";\n\n    /* Amount of tokens per Wyvern. */\n    uint constant public MULTIPLIER       = 1;\n\n    /* Constant for conversion from satoshis to tokens. */\n    uint constant public SATS_TO_TOKENS   = MULTIPLIER * (10 ** decimals) / (10 ** 8);\n\n    /* Total mint amount, in tokens (will be reached when all UTXOs are redeemed). */\n    uint constant public MINT_AMOUNT      = 2000000 * MULTIPLIER * (10 ** decimals);\n\n    /**\n      * @dev Initialize the Wyvern token\n      * @param merkleRoot Merkle tree root of the UTXO set\n      * @param totalUtxoAmount Total satoshis of the UTXO set\n      */\n    constructor (bytes32 merkleRoot, uint totalUtxoAmount) public {\n        /* Total number of tokens that can be redeemed from UTXOs. */\n        uint utxoTokens = SATS_TO_TOKENS * totalUtxoAmount;\n\n        /* Configure DelayedReleaseToken. */\n        temporaryAdmin = msg.sender;\n        numberOfDelayedTokens = MINT_AMOUNT - utxoTokens;\n\n        /* Configure UTXORedeemableToken. */\n        rootUTXOMerkleTreeHash = merkleRoot;\n        totalSupply_ = MINT_AMOUNT;\n        maximumRedeemable = utxoTokens;\n        multiplier = SATS_TO_TOKENS;\n    }\n\n}\n",
  "sourcePath": "/home/cwgoes/working/crypto/wyvern/wyvern-ethereum/contracts/WyvernToken.sol",
  "compiler": {
    "name": "solc",
    "version": "0.4.23+commit.124ca40d.Emscripten.clang"
  },
  "schemaVersion": "2.0.0",
  "updatedAt": "2018-05-12T18:06:35.582Z"
}