{
  "contractName": "WyvernProxyRegistry",
  "abi": [
    {
      "constant": true,
      "inputs": [],
      "name": "name",
      "outputs": [
        {
          "name": "",
          "type": "string"
        }
      ],
      "payable": false,
      "stateMutability": "view",
      "type": "function"
    },
    {
      "constant": true,
      "inputs": [],
      "name": "initialAddressSet",
      "outputs": [
        {
          "name": "",
          "type": "bool"
        }
      ],
      "payable": false,
      "stateMutability": "view",
      "type": "function"
    },
    {
      "constant": false,
      "inputs": [
        {
          "name": "addr",
          "type": "address"
        }
      ],
      "name": "endGrantAuthentication",
      "outputs": [],
      "payable": false,
      "stateMutability": "nonpayable",
      "type": "function"
    },
    {
      "constant": false,
      "inputs": [
        {
          "name": "addr",
          "type": "address"
        }
      ],
      "name": "revokeAuthentication",
      "outputs": [],
      "payable": false,
      "stateMutability": "nonpayable",
      "type": "function"
    },
    {
      "constant": true,
      "inputs": [
        {
          "name": "",
          "type": "address"
        }
      ],
      "name": "pending",
      "outputs": [
        {
          "name": "",
          "type": "uint256"
        }
      ],
      "payable": false,
      "stateMutability": "view",
      "type": "function"
    },
    {
      "constant": true,
      "inputs": [],
      "name": "lazyBank",
      "outputs": [
        {
          "name": "",
          "type": "address"
        }
      ],
      "payable": false,
      "stateMutability": "view",
      "type": "function"
    },
    {
      "constant": true,
      "inputs": [
        {
          "name": "",
          "type": "address"
        }
      ],
      "name": "contracts",
      "outputs": [
        {
          "name": "",
          "type": "bool"
        }
      ],
      "payable": false,
      "stateMutability": "view",
      "type": "function"
    },
    {
      "constant": true,
      "inputs": [],
      "name": "owner",
      "outputs": [
        {
          "name": "",
          "type": "address"
        }
      ],
      "payable": false,
      "stateMutability": "view",
      "type": "function"
    },
    {
      "constant": true,
      "inputs": [
        {
          "name": "",
          "type": "address"
        }
      ],
      "name": "proxies",
      "outputs": [
        {
          "name": "",
          "type": "address"
        }
      ],
      "payable": false,
      "stateMutability": "view",
      "type": "function"
    },
    {
      "constant": false,
      "inputs": [
        {
          "name": "addr",
          "type": "address"
        }
      ],
      "name": "startGrantAuthentication",
      "outputs": [],
      "payable": false,
      "stateMutability": "nonpayable",
      "type": "function"
    },
    {
      "constant": false,
      "inputs": [],
      "name": "registerProxy",
      "outputs": [
        {
          "name": "proxy",
          "type": "address"
        }
      ],
      "payable": false,
      "stateMutability": "nonpayable",
      "type": "function"
    },
    {
      "constant": true,
      "inputs": [],
      "name": "DELAY_PERIOD",
      "outputs": [
        {
          "name": "",
          "type": "uint256"
        }
      ],
      "payable": false,
      "stateMutability": "view",
      "type": "function"
    },
    {
      "constant": false,
      "inputs": [
        {
          "name": "authAddress",
          "type": "address"
        }
      ],
      "name": "grantInitialAuthentication",
      "outputs": [],
      "payable": false,
      "stateMutability": "nonpayable",
      "type": "function"
    },
    {
      "constant": false,
      "inputs": [
        {
          "name": "newOwner",
          "type": "address"
        }
      ],
      "name": "transferOwnership",
      "outputs": [],
      "payable": false,
      "stateMutability": "nonpayable",
      "type": "function"
    },
    {
      "inputs": [],
      "payable": false,
      "stateMutability": "nonpayable",
      "type": "constructor"
    },
    {
      "anonymous": false,
      "inputs": [
        {
          "indexed": true,
          "name": "previousOwner",
          "type": "address"
        },
        {
          "indexed": true,
          "name": "newOwner",
          "type": "address"
        }
      ],
      "name": "OwnershipTransferred",
      "type": "event"
    }
  ],
  "bytecode": "0x6060604052621275006005556006805460ff19169055341561002057600080fd5b60008054600160a060020a03191633600160a060020a03161790553061004461008f565b600160a060020a039091168152602001604051809103906000f080151561006a57600080fd5b60018054600160a060020a031916600160a060020a039290921691909117905561009f565b604051610d8780610f8b83390190565b610edd806100ae6000396000f3006060604052600436106100cf5763ffffffff7c010000000000000000000000000000000000000000000000000000000060003504166306fdde0381146100d45780631a86ac4f1461015e57806338b6e4071461018557806353376d1f146101a65780635eebea20146101c55780635fbc4cb9146101f657806369dc9ff3146102255780638da5cb5b14610244578063c455279114610257578063d4e8e06314610276578063ddd81f8214610295578063e71a02e1146102a8578063ef7f3834146102bb578063f2fde38b146102da575b600080fd5b34156100df57600080fd5b6100e76102f9565b60405160208082528190810183818151815260200191508051906020019080838360005b8381101561012357808201518382015260200161010b565b50505050905090810190601f1680156101505780820380516001836020036101000a031916815260200191505b509250505060405180910390f35b341561016957600080fd5b610171610330565b604051901515815260200160405180910390f35b341561019057600080fd5b6101a4600160a060020a0360043516610339565b005b34156101b157600080fd5b6101a4600160a060020a03600435166103fa565b34156101d057600080fd5b6101e4600160a060020a0360043516610436565b60405190815260200160405180910390f35b341561020157600080fd5b610209610448565b604051600160a060020a03909116815260200160405180910390f35b341561023057600080fd5b610171600160a060020a0360043516610457565b341561024f57600080fd5b61020961046c565b341561026257600080fd5b610209600160a060020a036004351661047b565b341561028157600080fd5b6101a4600160a060020a0360043516610496565b34156102a057600080fd5b610209610517565b34156102b357600080fd5b6101e46105b7565b34156102c657600080fd5b6101a4600160a060020a03600435166105bd565b34156102e557600080fd5b6101a4600160a060020a036004351661061d565b60408051908101604052601d81527f50726f6a6563742057797665726e2050726f7879205265676973747279000000602082015281565b60065460ff1681565b60005433600160a060020a0390811691161461035457600080fd5b600160a060020a03811660009081526004602052604090205460ff161580156103945750600160a060020a03811660009081526003602052604090205415155b80156103be5750600554600160a060020a0382166000908152600360205260409020544290910190105b15156103c957600080fd5b600160a060020a0316600090815260036020908152604080832083905560049091529020805460ff19166001179055565b60005433600160a060020a0390811691161461041557600080fd5b600160a060020a03166000908152600460205260409020805460ff19169055565b60036020526000908152604090205481565b600154600160a060020a031681565b60046020526000908152604090205460ff1681565b600054600160a060020a031681565b600260205260009081526040902054600160a060020a031681565b60005433600160a060020a039081169116146104b157600080fd5b600160a060020a03811660009081526004602052604090205460ff161580156104f05750600160a060020a038116600090815260036020526040902054155b15156104fb57600080fd5b600160a060020a03166000908152600360205260409020429055565b600160a060020a033381166000908152600260205260408120549091161561053e57600080fd5b33306105486106b8565b600160a060020a0392831681529116602082015260409081019051809103906000f080151561057657600080fd5b33600160a060020a039081166000908152600260205260409020805473ffffffffffffffffffffffffffffffffffffffff1916918316919091179055919050565b60055481565b60005433600160a060020a039081169116146105d857600080fd5b60065460ff16156105e857600080fd5b6006805460ff199081166001908117909255600160a060020a0390921660009081526004602052604090208054909216179055565b60005433600160a060020a0390811691161461063857600080fd5b600160a060020a038116151561064d57600080fd5b600054600160a060020a0380831691167f8be0079c531659141344cd1fd0a4f28419497f9722a3daafe3b4186f6b6457e060405160405180910390a36000805473ffffffffffffffffffffffffffffffffffffffff1916600160a060020a0392909216919091179055565b6040516107e9806106c98339019056006060604052341561000f57600080fd5b6040516040806107e9833981016040528080519190602001805160008054600160a060020a03958616600160a060020a0319918216179091556001805495909216941693909317909255505061077f8061006a6000396000f3006060604052600436106100695763ffffffff60e060020a6000350416631b0f7ba981146100a85780633f801f91146101245780634c93505f1461018e5780634f8632ba146101a657806363d256ce146101d55780637b103999146101e85780638f4ffcb1146101fb575b33600160a060020a03167fa419615bc8fda4c87663805ee2a3597a6d71c1d476911d9892f340d965bc7bf13460405190815260200160405180910390a2005b34156100b357600080fd5b61011060048035600160a060020a0316906024803560ff16919060649060443590810190830135806020601f8201819004810201604051908101604052818152929190602084018383808284375094965061026795505050505050565b604051901515815260200160405180910390f35b341561012f57600080fd5b61018c60048035600160a060020a0316906024803560ff16919060649060443590810190830135806020601f8201819004810201604051908101604052818152929190602084018383808284375094965061052195505050505050565b005b341561019957600080fd5b61018c600435151561053c565b34156101b157600080fd5b6101b96105c8565b604051600160a060020a03909116815260200160405180910390f35b34156101e057600080fd5b6101106105d7565b34156101f357600080fd5b6101b96105f8565b341561020657600080fd5b61018c60048035600160a060020a0390811691602480359260443516919060849060643590810190830135806020601f8201819004810201604051908101604052818152929190602084018383808284375094965061060795505050505050565b6000805433600160a060020a039081169116148061031b575060015474010000000000000000000000000000000000000000900460ff1615801561031b5750600154600160a060020a03166369dc9ff33360006040516020015260405160e060020a63ffffffff8416028152600160a060020a039091166004820152602401602060405180830381600087803b15156102ff57600080fd5b6102c65a03f1151561031057600080fd5b505050604051805190505b151561032657600080fd5b600083600181111561033457fe5b14156103bc5783600160a060020a03168260405180828051906020019080838360005b8381101561036f578082015183820152602001610357565b50505050905090810190601f16801561039c5780820380516001836020036101000a031916815260200191505b5091505060006040518083038160008661646e5a03f19150509050610455565b60018360018111156103ca57fe5b14156104505783600160a060020a03168260405180828051906020019080838360005b838110156104055780820151838201526020016103ed565b50505050905090810190601f1680156104325780820380516001836020036101000a031916815260200191505b509150506000604051808303818561646e5a03f49150509050610455565b600080fd5b83600160a060020a03167f5ce2d40d28da43eb6b4322e2dfb11165ababa08b96ccb32daa85063dc9cc9ff48484846040518084600181111561049357fe5b60ff1681526020018060200183151515158152602001828103825284818151815260200191508051906020019080838360005b838110156104de5780820151838201526020016104c6565b50505050905090810190601f16801561050b5780820380516001836020036101000a031916815260200191505b5094505050505060405180910390a29392505050565b61052c838383610267565b151561053757600080fd5b505050565b60005433600160a060020a0390811691161461055757600080fd5b6001805474ff0000000000000000000000000000000000000000191674010000000000000000000000000000000000000000831515021790557f2165014523a6f4135deffed62d70149aad59b64de5aac51e3abbcbe2a83e2f7e81604051901515815260200160405180910390a150565b600054600160a060020a031681565b60015474010000000000000000000000000000000000000000900460ff1681565b600154600160a060020a031681565b81600160a060020a0381166323b872dd86308760006040516020015260405160e060020a63ffffffff8616028152600160a060020a0393841660048201529190921660248201526044810191909152606401602060405180830381600087803b151561067257600080fd5b6102c65a03f1151561068357600080fd5b50505060405180519050151561069857600080fd5b82600160a060020a031685600160a060020a03167fd65b48fd35864b3528d38e44760be5553248f89bf3ff6b06cca57817cc2650bf868560405182815260406020820181815290820183818151815260200191508051906020019080838360005b838110156107115780820151838201526020016106f9565b50505050905090810190601f16801561073e5780820380516001836020036101000a031916815260200191505b50935050505060405180910390a350505050505600a165627a7a723058209f3bc23f880cfa5f1b32b55c2017b4da679bb417f5c369990b136b50f844ad8a0029a165627a7a72305820beb9e0d5cca64a0110aae3e78f0dfe3a80691c7193f3bd39c686d5ccefd92d1300296060604052341561000f57600080fd5b604051602080610d878339810160405280805160028054600160a060020a03909216600160a060020a03199092169190911790555050610d33806100546000396000f3006060604052600436106100ab5763ffffffff60e060020a600035041663034422ef81146100b057806347e7ef24146100da5780634e10c95d146100fc5780635a8158e21461013357806369328dec1461015b5780637b103999146101845780639577bffa146101b3578063c23f001f146101db578063cb5f264314610200578063db20266f14610228578063db2ec6bd1461024d578063f49ec96114610272578063f771e78b146102a0575b600080fd5b34156100bb57600080fd5b6100d8600160a060020a03600435811690602435166044356102c5565b005b34156100e557600080fd5b6100d8600160a060020a0360043516602435610354565b341561010757600080fd5b610121600160a060020a03600435811690602435166103f3565b60405190815260200160405180910390f35b341561013e57600080fd5b6100d8600160a060020a036004358116906024351660443561041e565b341561016657600080fd5b6100d8600160a060020a0360043581169060243590604435166104a8565b341561018f57600080fd5b610197610585565b604051600160a060020a03909116815260200160405180910390f35b34156101be57600080fd5b6100d8600160a060020a0360043581169060243516604435610594565b34156101e657600080fd5b610121600160a060020a036004358116906024351661061e565b341561020b57600080fd5b6100d8600160a060020a0360043581169060243516604435610638565b341561023357600080fd5b610121600160a060020a03600435811690602435166106c2565b341561025857600080fd5b610121600160a060020a03600435811690602435166106df565b341561027d57600080fd5b6100d8600160a060020a036004358116906024358116906044351660643561072b565b34156102ab57600080fd5b610121600160a060020a03600435811690602435166107bc565b600254600160a060020a03166369dc9ff33360006040516020015260405160e060020a63ffffffff8416028152600160a060020a039091166004820152602401602060405180830381600087803b151561031e57600080fd5b6102c65a03f1151561032f57600080fd5b50505060405180519050151561034457600080fd5b61034f8383836107e5565b505050565b61035f3383836107e5565b81600160a060020a03166323b872dd33308460006040516020015260405160e060020a63ffffffff8616028152600160a060020a0393841660048201529190921660248201526044810191909152606401602060405180830381600087803b15156103c957600080fd5b6102c65a03f115156103da57600080fd5b5050506040518051905015156103ef57600080fd5b5050565b600160a060020a03918216600090815260016020908152604080832093909416825291909152205490565b600254600160a060020a03166369dc9ff33360006040516020015260405160e060020a63ffffffff8416028152600160a060020a039091166004820152602401602060405180830381600087803b151561047757600080fd5b6102c65a03f1151561048857600080fd5b50505060405180519050151561049d57600080fd5b61034f838383610879565b600160a060020a033381166000818152602081815260408083209488168084529482528083205493835260018252808320948352939052918220546104ed9190610a6b565b9050808311156104fc57600080fd5b610507338585610a7d565b83600160a060020a031663a9059cbb838560006040516020015260405160e060020a63ffffffff8516028152600160a060020a0390921660048301526024820152604401602060405180830381600087803b151561056457600080fd5b6102c65a03f1151561057557600080fd5b5050506040518051505050505050565b600254600160a060020a031681565b600254600160a060020a03166369dc9ff33360006040516020015260405160e060020a63ffffffff8416028152600160a060020a039091166004820152602401602060405180830381600087803b15156105ed57600080fd5b6102c65a03f115156105fe57600080fd5b50505060405180519050151561061357600080fd5b61034f838383610c30565b600060208181529281526040808220909352908152205481565b600254600160a060020a03166369dc9ff33360006040516020015260405160e060020a63ffffffff8416028152600160a060020a039091166004820152602401602060405180830381600087803b151561069157600080fd5b6102c65a03f115156106a257600080fd5b5050506040518051905015156106b757600080fd5b61034f838383610a7d565b600160209081526000928352604080842090915290825290205481565b600160a060020a038083166000818152602081815260408083209486168084529482528083205493835260018252808320948352939052918220546107249190610a6b565b9392505050565b600254600160a060020a03166369dc9ff33360006040516020015260405160e060020a63ffffffff8416028152600160a060020a039091166004820152602401602060405180830381600087803b151561078457600080fd5b6102c65a03f1151561079557600080fd5b5050506040518051905015156107aa57600080fd5b6107b684848484610ce2565b50505050565b600160a060020a0391821660009081526020818152604080832093909416825291909152205490565b600160a060020a03808416600090815260208181526040808320938616835292905220546108139082610cf8565b600160a060020a0380851660008181526020818152604080832094881680845294909152908190209390935590917f4e45da441832cf53bdaa69235704fc0575e68210f459ee1562911024b12967d59084905190815260200160405180910390a3505050565b600160a060020a0380841660009081526001602090815260408083209386168352929052908120546108ab9083610cf8565b600160a060020a03858116600081815260016020908152604080832094891680845285835281842087905593835282825280832093835292815291902054919052901115610a1e57600160a060020a03808516600081815260016020908152604080832094881680845294825280832054938352828252808320948352939052919091205461093a9190610a6b565b600160a060020a038086166000908152602081815260408083209388168352929052205490915061096b9082610cf8565b600160a060020a03808616600090815260208181526040808320938816808452939091528082209390935590916323b872dd91879130918691516020015260405160e060020a63ffffffff8616028152600160a060020a0393841660048201529190921660248201526044810191909152606401602060405180830381600087803b15156109f857600080fd5b6102c65a03f11515610a0957600080fd5b505050604051805190501515610a1e57600080fd5b82600160a060020a031684600160a060020a03167f989eaa915cbb416ea3d6f9a63b1a3de51770c7674b11fe21ecdf76b4e1d139108460405190815260200160405180910390a350505050565b600082821115610a7757fe5b50900390565b600160a060020a038084166000818152602081815260408083209487168084529482528083205493835260018252808320948352939052918220548291610ac391610a6b565b915083600160a060020a031685600160a060020a03167f9407bd81f01ad8f5ae4a2487b63d3d1b1947257c2dcdda3ea183dc8e6965cc6e8560405190815260200160405180910390a3828210610b6a57600160a060020a0380861660009081526020818152604080832093881683529290522054610b419084610a6b565b600160a060020a0380871660009081526020818152604080832093891683529290522055610c29565b610b748383610a6b565b600160a060020a038087166000908152602081815260408083209389168084529390915280822082905592935090916323b872dd91889130918691516020015260405160e060020a63ffffffff8616028152600160a060020a0393841660048201529190921660248201526044810191909152606401602060405180830381600087803b1515610c0357600080fd5b6102c65a03f11515610c1457600080fd5b505050604051805190501515610c2957600080fd5b5050505050565b600160a060020a03808416600090815260016020908152604080832093861683529290522054610c609082610a6b565b600160a060020a0384811660009081526001602090815260408083209387168352929052908120829055901015610c9657600080fd5b81600160a060020a031683600160a060020a03167fe6e0ef9cd056ca98561ca60e347ada61e1ede2f1142a078951b7a52e1e508e608360405190815260200160405180910390a3505050565b610ced8383836107e5565b6107b6848383610a7d565b60008282018381101561072457fe00a165627a7a723058205bcfcae5387ecba2406e577cf66f6c599e742fcb6b891407e5f6f26e119bcb1a0029",
  "source": "/*\n\n  << Project Wyvern Proxy Registry >>\n\n*/\n\npragma solidity 0.4.18;\n\nimport \"./registry/ProxyRegistry.sol\";\n\n/**\n * @title WyvernProxyRegistry\n * @author Project Wyvern Developers\n */\ncontract WyvernProxyRegistry is ProxyRegistry {\n\n    string public constant name = \"Project Wyvern Proxy Registry\";\n\n    bool public initialAddressSet = false;\n\n    function WyvernProxyRegistry ()\n        public\n    {\n        lazyBank = new AuthenticatedLazyBank(this);\n    }\n\n    function grantInitialAuthentication (address authAddress)\n        onlyOwner\n        public\n    {\n        require(!initialAddressSet);\n        initialAddressSet = true;\n        contracts[authAddress] = true;\n    }\n\n}\n",
  "sourcePath": "/home/cwgoes/working/crypto/wyvern/wyvern-ethereum/contracts/WyvernProxyRegistry.sol",
  "compiler": {
    "name": "solc",
    "version": "0.4.18+commit.9cf6e910.Emscripten.clang"
  },
  "schemaVersion": "1.0.1",
  "updatedAt": "2018-01-30T20:15:06.780Z"
}