{
  "contractName": "WyvernProxyRegistry",
  "abi": [
    {
      "constant": true,
      "inputs": [],
      "name": "name",
      "outputs": [
        {
          "name": "",
          "type": "string"
        }
      ],
      "payable": false,
      "stateMutability": "view",
      "type": "function"
    },
    {
      "constant": true,
      "inputs": [],
      "name": "initialAddressSet",
      "outputs": [
        {
          "name": "",
          "type": "bool"
        }
      ],
      "payable": false,
      "stateMutability": "view",
      "type": "function"
    },
    {
      "constant": false,
      "inputs": [
        {
          "name": "bankAddress",
          "type": "address"
        }
      ],
      "name": "setLazyBank",
      "outputs": [],
      "payable": false,
      "stateMutability": "nonpayable",
      "type": "function"
    },
    {
      "constant": false,
      "inputs": [
        {
          "name": "addr",
          "type": "address"
        }
      ],
      "name": "endGrantAuthentication",
      "outputs": [],
      "payable": false,
      "stateMutability": "nonpayable",
      "type": "function"
    },
    {
      "constant": false,
      "inputs": [
        {
          "name": "addr",
          "type": "address"
        }
      ],
      "name": "revokeAuthentication",
      "outputs": [],
      "payable": false,
      "stateMutability": "nonpayable",
      "type": "function"
    },
    {
      "constant": true,
      "inputs": [
        {
          "name": "",
          "type": "address"
        }
      ],
      "name": "pending",
      "outputs": [
        {
          "name": "",
          "type": "uint256"
        }
      ],
      "payable": false,
      "stateMutability": "view",
      "type": "function"
    },
    {
      "constant": true,
      "inputs": [],
      "name": "lazyBank",
      "outputs": [
        {
          "name": "",
          "type": "address"
        }
      ],
      "payable": false,
      "stateMutability": "view",
      "type": "function"
    },
    {
      "constant": true,
      "inputs": [
        {
          "name": "",
          "type": "address"
        }
      ],
      "name": "contracts",
      "outputs": [
        {
          "name": "",
          "type": "bool"
        }
      ],
      "payable": false,
      "stateMutability": "view",
      "type": "function"
    },
    {
      "constant": true,
      "inputs": [],
      "name": "lazyBankSet",
      "outputs": [
        {
          "name": "",
          "type": "bool"
        }
      ],
      "payable": false,
      "stateMutability": "view",
      "type": "function"
    },
    {
      "constant": true,
      "inputs": [],
      "name": "owner",
      "outputs": [
        {
          "name": "",
          "type": "address"
        }
      ],
      "payable": false,
      "stateMutability": "view",
      "type": "function"
    },
    {
      "constant": true,
      "inputs": [
        {
          "name": "",
          "type": "address"
        }
      ],
      "name": "proxies",
      "outputs": [
        {
          "name": "",
          "type": "address"
        }
      ],
      "payable": false,
      "stateMutability": "view",
      "type": "function"
    },
    {
      "constant": false,
      "inputs": [
        {
          "name": "addr",
          "type": "address"
        }
      ],
      "name": "startGrantAuthentication",
      "outputs": [],
      "payable": false,
      "stateMutability": "nonpayable",
      "type": "function"
    },
    {
      "constant": false,
      "inputs": [],
      "name": "registerProxy",
      "outputs": [
        {
          "name": "proxy",
          "type": "address"
        }
      ],
      "payable": false,
      "stateMutability": "nonpayable",
      "type": "function"
    },
    {
      "constant": true,
      "inputs": [],
      "name": "DELAY_PERIOD",
      "outputs": [
        {
          "name": "",
          "type": "uint256"
        }
      ],
      "payable": false,
      "stateMutability": "view",
      "type": "function"
    },
    {
      "constant": false,
      "inputs": [
        {
          "name": "authAddress",
          "type": "address"
        }
      ],
      "name": "grantInitialAuthentication",
      "outputs": [],
      "payable": false,
      "stateMutability": "nonpayable",
      "type": "function"
    },
    {
      "constant": false,
      "inputs": [
        {
          "name": "newOwner",
          "type": "address"
        }
      ],
      "name": "transferOwnership",
      "outputs": [],
      "payable": false,
      "stateMutability": "nonpayable",
      "type": "function"
    },
    {
      "inputs": [],
      "payable": false,
      "stateMutability": "nonpayable",
      "type": "constructor"
    },
    {
      "anonymous": false,
      "inputs": [
        {
          "indexed": true,
          "name": "previousOwner",
          "type": "address"
        },
        {
          "indexed": true,
          "name": "newOwner",
          "type": "address"
        }
      ],
      "name": "OwnershipTransferred",
      "type": "event"
    }
  ],
  "bytecode": "0x6060604052621275006005556006805461ffff19169055341561002157600080fd5b60008054600160a060020a033316600160a060020a0319909116179055610f9f8061004d6000396000f3006060604052600436106100e55763ffffffff7c010000000000000000000000000000000000000000000000000000000060003504166306fdde0381146100ea5780631a86ac4f146101745780632f9acb721461019b57806338b6e407146101bc57806353376d1f146101db5780635eebea20146101fa5780635fbc4cb91461022b57806369dc9ff31461025a5780636f67c4c5146102795780638da5cb5b1461028c578063c45527911461029f578063d4e8e063146102be578063ddd81f82146102dd578063e71a02e1146102f0578063ef7f383414610303578063f2fde38b14610322575b600080fd5b34156100f557600080fd5b6100fd610341565b60405160208082528190810183818151815260200191508051906020019080838360005b83811015610139578082015183820152602001610121565b50505050905090810190601f1680156101665780820380516001836020036101000a031916815260200191505b509250505060405180910390f35b341561017f57600080fd5b610187610378565b604051901515815260200160405180910390f35b34156101a657600080fd5b6101ba600160a060020a0360043516610386565b005b34156101c757600080fd5b6101ba600160a060020a03600435166103ef565b34156101e657600080fd5b6101ba600160a060020a03600435166104b0565b341561020557600080fd5b610219600160a060020a03600435166104ec565b60405190815260200160405180910390f35b341561023657600080fd5b61023e6104fe565b604051600160a060020a03909116815260200160405180910390f35b341561026557600080fd5b610187600160a060020a036004351661050d565b341561028457600080fd5b610187610522565b341561029757600080fd5b61023e61052b565b34156102aa57600080fd5b61023e600160a060020a036004351661053a565b34156102c957600080fd5b6101ba600160a060020a0360043516610555565b34156102e857600080fd5b61023e6105d6565b34156102fb57600080fd5b610219610676565b341561030e57600080fd5b6101ba600160a060020a036004351661067c565b341561032d57600080fd5b6101ba600160a060020a03600435166106df565b60408051908101604052601d81527f50726f6a6563742057797665726e2050726f7879205265676973747279000000602082015281565b600654610100900460ff1681565b60005433600160a060020a039081169116146103a157600080fd5b60065460ff16156103b157600080fd5b6006805460ff191660019081179091558054600160a060020a0390921673ffffffffffffffffffffffffffffffffffffffff19909216919091179055565b60005433600160a060020a0390811691161461040a57600080fd5b600160a060020a03811660009081526004602052604090205460ff1615801561044a5750600160a060020a03811660009081526003602052604090205415155b80156104745750600554600160a060020a0382166000908152600360205260409020544290910190105b151561047f57600080fd5b600160a060020a0316600090815260036020908152604080832083905560049091529020805460ff19166001179055565b60005433600160a060020a039081169116146104cb57600080fd5b600160a060020a03166000908152600460205260409020805460ff19169055565b60036020526000908152604090205481565b600154600160a060020a031681565b60046020526000908152604090205460ff1681565b60065460ff1681565b600054600160a060020a031681565b600260205260009081526040902054600160a060020a031681565b60005433600160a060020a0390811691161461057057600080fd5b600160a060020a03811660009081526004602052604090205460ff161580156105af5750600160a060020a038116600090815260036020526040902054155b15156105ba57600080fd5b600160a060020a03166000908152600360205260409020429055565b600160a060020a03338116600090815260026020526040812054909116156105fd57600080fd5b333061060761077a565b600160a060020a0392831681529116602082015260409081019051809103906000f080151561063557600080fd5b33600160a060020a039081166000908152600260205260409020805473ffffffffffffffffffffffffffffffffffffffff1916918316919091179055919050565b60055481565b60005433600160a060020a0390811691161461069757600080fd5b600654610100900460ff16156106ac57600080fd5b6006805461ff001916610100179055600160a060020a03166000908152600460205260409020805460ff19166001179055565b60005433600160a060020a039081169116146106fa57600080fd5b600160a060020a038116151561070f57600080fd5b600054600160a060020a0380831691167f8be0079c531659141344cd1fd0a4f28419497f9722a3daafe3b4186f6b6457e060405160405180910390a36000805473ffffffffffffffffffffffffffffffffffffffff1916600160a060020a0392909216919091179055565b6040516107e98061078b8339019056006060604052341561000f57600080fd5b6040516040806107e9833981016040528080519190602001805160008054600160a060020a03958616600160a060020a0319918216179091556001805495909216941693909317909255505061077f8061006a6000396000f3006060604052600436106100695763ffffffff60e060020a6000350416631b0f7ba981146100a85780633f801f91146101245780634c93505f1461018e5780634f8632ba146101a657806363d256ce146101d55780637b103999146101e85780638f4ffcb1146101fb575b33600160a060020a03167fa419615bc8fda4c87663805ee2a3597a6d71c1d476911d9892f340d965bc7bf13460405190815260200160405180910390a2005b34156100b357600080fd5b61011060048035600160a060020a0316906024803560ff16919060649060443590810190830135806020601f8201819004810201604051908101604052818152929190602084018383808284375094965061026795505050505050565b604051901515815260200160405180910390f35b341561012f57600080fd5b61018c60048035600160a060020a0316906024803560ff16919060649060443590810190830135806020601f8201819004810201604051908101604052818152929190602084018383808284375094965061052195505050505050565b005b341561019957600080fd5b61018c600435151561053c565b34156101b157600080fd5b6101b96105c8565b604051600160a060020a03909116815260200160405180910390f35b34156101e057600080fd5b6101106105d7565b34156101f357600080fd5b6101b96105f8565b341561020657600080fd5b61018c60048035600160a060020a0390811691602480359260443516919060849060643590810190830135806020601f8201819004810201604051908101604052818152929190602084018383808284375094965061060795505050505050565b6000805433600160a060020a039081169116148061031b575060015474010000000000000000000000000000000000000000900460ff1615801561031b5750600154600160a060020a03166369dc9ff33360006040516020015260405160e060020a63ffffffff8416028152600160a060020a039091166004820152602401602060405180830381600087803b15156102ff57600080fd5b6102c65a03f1151561031057600080fd5b505050604051805190505b151561032657600080fd5b600083600181111561033457fe5b14156103bc5783600160a060020a03168260405180828051906020019080838360005b8381101561036f578082015183820152602001610357565b50505050905090810190601f16801561039c5780820380516001836020036101000a031916815260200191505b5091505060006040518083038160008661646e5a03f19150509050610455565b60018360018111156103ca57fe5b14156104505783600160a060020a03168260405180828051906020019080838360005b838110156104055780820151838201526020016103ed565b50505050905090810190601f1680156104325780820380516001836020036101000a031916815260200191505b509150506000604051808303818561646e5a03f49150509050610455565b600080fd5b83600160a060020a03167f5ce2d40d28da43eb6b4322e2dfb11165ababa08b96ccb32daa85063dc9cc9ff48484846040518084600181111561049357fe5b60ff1681526020018060200183151515158152602001828103825284818151815260200191508051906020019080838360005b838110156104de5780820151838201526020016104c6565b50505050905090810190601f16801561050b5780820380516001836020036101000a031916815260200191505b5094505050505060405180910390a29392505050565b61052c838383610267565b151561053757600080fd5b505050565b60005433600160a060020a0390811691161461055757600080fd5b6001805474ff0000000000000000000000000000000000000000191674010000000000000000000000000000000000000000831515021790557f2165014523a6f4135deffed62d70149aad59b64de5aac51e3abbcbe2a83e2f7e81604051901515815260200160405180910390a150565b600054600160a060020a031681565b60015474010000000000000000000000000000000000000000900460ff1681565b600154600160a060020a031681565b81600160a060020a0381166323b872dd86308760006040516020015260405160e060020a63ffffffff8616028152600160a060020a0393841660048201529190921660248201526044810191909152606401602060405180830381600087803b151561067257600080fd5b6102c65a03f1151561068357600080fd5b50505060405180519050151561069857600080fd5b82600160a060020a031685600160a060020a03167fd65b48fd35864b3528d38e44760be5553248f89bf3ff6b06cca57817cc2650bf868560405182815260406020820181815290820183818151815260200191508051906020019080838360005b838110156107115780820151838201526020016106f9565b50505050905090810190601f16801561073e5780820380516001836020036101000a031916815260200191505b50935050505060405180910390a350505050505600a165627a7a72305820a54f0859fde61a96ec07f21dfc0fe176ed5e349fbd4926adf78709c5c9d250f10029a165627a7a723058206e9c91f7643740697ce87f31fbca74cf20abc2b4da3fafc24d0519d7dd7d6c6b0029",
  "source": "/*\n\n  << Project Wyvern Proxy Registry >>\n\n*/\n\npragma solidity 0.4.18;\n\nimport \"./registry/AuthenticatedLazyBank.sol\";\nimport \"./registry/ProxyRegistry.sol\";\n\n/**\n * @title WyvernProxyRegistry\n * @author Project Wyvern Developers\n */\ncontract WyvernProxyRegistry is ProxyRegistry {\n\n    string public constant name = \"Project Wyvern Proxy Registry\";\n\n    bool public lazyBankSet = false;\n    bool public initialAddressSet = false;\n\n    function WyvernProxyRegistry ()\n        public\n    {\n    }\n\n    function setLazyBank (AuthenticatedLazyBank bankAddress)\n        onlyOwner\n        public\n    {\n        require(!lazyBankSet);\n        lazyBankSet = true;\n        lazyBank = bankAddress;\n    }\n\n    function grantInitialAuthentication (address authAddress)\n        onlyOwner\n        public\n    {\n        require(!initialAddressSet);\n        initialAddressSet = true;\n        contracts[authAddress] = true;\n    }\n\n}\n",
  "sourcePath": "/home/cwgoes/working/crypto/wyvern/wyvern-ethereum/contracts/WyvernProxyRegistry.sol",
  "compiler": {
    "name": "solc",
    "version": "0.4.18+commit.9cf6e910.Emscripten.clang"
  },
  "schemaVersion": "1.0.1",
  "updatedAt": "2018-01-30T22:19:08.004Z"
}